{
  "contractName": "Engine",
  "abi": [
    {
      "anonymous": false,
      "inputs": [
        {
          "indexed": false,
          "internalType": "uint256",
          "name": "_index",
          "type": "uint256"
        },
        {
          "indexed": false,
          "internalType": "address",
          "name": "_bidder",
          "type": "address"
        },
        {
          "indexed": false,
          "internalType": "uint256",
          "name": "amount",
          "type": "uint256"
        }
      ],
      "name": "AuctionBid",
      "type": "event"
    },
    {
      "anonymous": false,
      "inputs": [
        {
          "indexed": false,
          "internalType": "uint256",
          "name": "_index",
          "type": "uint256"
        },
        {
          "indexed": false,
          "internalType": "address",
          "name": "_creator",
          "type": "address"
        },
        {
          "indexed": false,
          "internalType": "address",
          "name": "_asset",
          "type": "address"
        }
      ],
      "name": "AuctionCreated",
      "type": "event"
    },
    {
      "anonymous": false,
      "inputs": [
        {
          "indexed": false,
          "internalType": "uint256",
          "name": "auctionIndex",
          "type": "uint256"
        },
        {
          "indexed": false,
          "internalType": "address",
          "name": "claimer",
          "type": "address"
        }
      ],
      "name": "Claim",
      "type": "event"
    },
    {
      "anonymous": false,
      "inputs": [
        {
          "indexed": true,
          "internalType": "address",
          "name": "previousOwner",
          "type": "address"
        },
        {
          "indexed": true,
          "internalType": "address",
          "name": "newOwner",
          "type": "address"
        }
      ],
      "name": "OwnershipTransferred",
      "type": "event"
    },
    {
      "anonymous": false,
      "inputs": [
        {
          "indexed": false,
          "internalType": "address",
          "name": "receiver",
          "type": "address"
        },
        {
          "indexed": false,
          "internalType": "uint256",
          "name": "amount",
          "type": "uint256"
        },
        {
          "indexed": false,
          "internalType": "uint256",
          "name": "commission",
          "type": "uint256"
        },
        {
          "indexed": false,
          "internalType": "uint256",
          "name": "royalties",
          "type": "uint256"
        },
        {
          "indexed": false,
          "internalType": "uint256",
          "name": "safetyCheckValue",
          "type": "uint256"
        }
      ],
      "name": "PaymentToOwner",
      "type": "event"
    },
    {
      "anonymous": false,
      "inputs": [
        {
          "indexed": false,
          "internalType": "uint256",
          "name": "_index",
          "type": "uint256"
        },
        {
          "indexed": false,
          "internalType": "address",
          "name": "_bidder",
          "type": "address"
        },
        {
          "indexed": false,
          "internalType": "uint256",
          "name": "amount",
          "type": "uint256"
        }
      ],
      "name": "ReturnBidFunds",
      "type": "event"
    },
    {
      "anonymous": false,
      "inputs": [
        {
          "indexed": false,
          "internalType": "address",
          "name": "receiver",
          "type": "address"
        },
        {
          "indexed": false,
          "internalType": "uint256",
          "name": "amount",
          "type": "uint256"
        }
      ],
      "name": "Royalties",
      "type": "event"
    },
    {
      "inputs": [],
      "name": "accumulatedCommission",
      "outputs": [
        {
          "internalType": "uint256",
          "name": "",
          "type": "uint256"
        }
      ],
      "stateMutability": "view",
      "type": "function",
      "constant": true
    },
    {
      "inputs": [
        {
          "internalType": "uint256",
          "name": "",
          "type": "uint256"
        }
      ],
      "name": "auctions",
      "outputs": [
        {
          "internalType": "address",
          "name": "assetAddress",
          "type": "address"
        },
        {
          "internalType": "uint256",
          "name": "assetId",
          "type": "uint256"
        },
        {
          "internalType": "address payable",
          "name": "creator",
          "type": "address"
        },
        {
          "internalType": "uint256",
          "name": "startTime",
          "type": "uint256"
        },
        {
          "internalType": "uint256",
          "name": "duration",
          "type": "uint256"
        },
        {
          "internalType": "uint256",
          "name": "currentBidAmount",
          "type": "uint256"
        },
        {
          "internalType": "address payable",
          "name": "currentBidOwner",
          "type": "address"
        },
        {
          "internalType": "uint256",
          "name": "bidCount",
          "type": "uint256"
        }
      ],
      "stateMutability": "view",
      "type": "function",
      "constant": true
    },
    {
      "inputs": [],
      "name": "commission",
      "outputs": [
        {
          "internalType": "uint256",
          "name": "",
          "type": "uint256"
        }
      ],
      "stateMutability": "view",
      "type": "function",
      "constant": true
    },
    {
      "inputs": [
        {
          "internalType": "uint256",
          "name": "",
          "type": "uint256"
        }
      ],
      "name": "offers",
      "outputs": [
        {
          "internalType": "address",
          "name": "assetAddress",
          "type": "address"
        },
        {
          "internalType": "uint256",
          "name": "tokenId",
          "type": "uint256"
        },
        {
          "internalType": "address payable",
          "name": "creator",
          "type": "address"
        },
        {
          "internalType": "uint256",
          "name": "price",
          "type": "uint256"
        },
        {
          "internalType": "bool",
          "name": "isOnSale",
          "type": "bool"
        },
        {
          "internalType": "bool",
          "name": "isAuction",
          "type": "bool"
        },
        {
          "internalType": "uint256",
          "name": "idAuction",
          "type": "uint256"
        }
      ],
      "stateMutability": "view",
      "type": "function",
      "constant": true
    },
    {
      "inputs": [],
      "name": "owner",
      "outputs": [
        {
          "internalType": "address",
          "name": "",
          "type": "address"
        }
      ],
      "stateMutability": "view",
      "type": "function",
      "constant": true
    },
    {
      "inputs": [],
      "name": "renounceOwnership",
      "outputs": [],
      "stateMutability": "nonpayable",
      "type": "function"
    },
    {
      "inputs": [],
      "name": "totalSales",
      "outputs": [
        {
          "internalType": "uint256",
          "name": "",
          "type": "uint256"
        }
      ],
      "stateMutability": "view",
      "type": "function",
      "constant": true
    },
    {
      "inputs": [
        {
          "internalType": "address",
          "name": "newOwner",
          "type": "address"
        }
      ],
      "name": "transferOwnership",
      "outputs": [],
      "stateMutability": "nonpayable",
      "type": "function"
    },
    {
      "inputs": [
        {
          "internalType": "address",
          "name": "_assetAddress",
          "type": "address"
        },
        {
          "internalType": "uint256",
          "name": "_tokenId",
          "type": "uint256"
        },
        {
          "internalType": "bool",
          "name": "_isDirectSale",
          "type": "bool"
        },
        {
          "internalType": "bool",
          "name": "_isAuction",
          "type": "bool"
        },
        {
          "internalType": "uint256",
          "name": "_price",
          "type": "uint256"
        },
        {
          "internalType": "uint256",
          "name": "_startPrice",
          "type": "uint256"
        },
        {
          "internalType": "uint256",
          "name": "_startTime",
          "type": "uint256"
        },
        {
          "internalType": "uint256",
          "name": "_duration",
          "type": "uint256"
        }
      ],
      "name": "createOffer",
      "outputs": [],
      "stateMutability": "nonpayable",
      "type": "function"
    },
    {
      "inputs": [
        {
          "internalType": "uint256",
          "name": "_tokenId",
          "type": "uint256"
        }
      ],
      "name": "getAuctionId",
      "outputs": [
        {
          "internalType": "uint256",
          "name": "",
          "type": "uint256"
        }
      ],
      "stateMutability": "view",
      "type": "function",
      "constant": true
    },
    {
      "inputs": [],
      "name": "ahora",
      "outputs": [
        {
          "internalType": "uint256",
          "name": "",
          "type": "uint256"
        }
      ],
      "stateMutability": "view",
      "type": "function",
      "constant": true
    },
    {
      "inputs": [
        {
          "internalType": "uint256",
          "name": "_tokenId",
          "type": "uint256"
        }
      ],
      "name": "removeFromAuction",
      "outputs": [],
      "stateMutability": "nonpayable",
      "type": "function"
    },
    {
      "inputs": [
        {
          "internalType": "uint256",
          "name": "_tokenId",
          "type": "uint256"
        }
      ],
      "name": "removeFromSale",
      "outputs": [],
      "stateMutability": "nonpayable",
      "type": "function"
    },
    {
      "inputs": [
        {
          "internalType": "uint256",
          "name": "_commission",
          "type": "uint256"
        }
      ],
      "name": "setCommission",
      "outputs": [],
      "stateMutability": "nonpayable",
      "type": "function"
    },
    {
      "inputs": [
        {
          "internalType": "uint256",
          "name": "_tokenId",
          "type": "uint256"
        }
      ],
      "name": "buy",
      "outputs": [],
      "stateMutability": "payable",
      "type": "function",
      "payable": true
    },
    {
      "inputs": [
        {
          "internalType": "uint256",
          "name": "auctionIndex",
          "type": "uint256"
        }
      ],
      "name": "bid",
      "outputs": [],
      "stateMutability": "payable",
      "type": "function",
      "payable": true
    },
    {
      "inputs": [],
      "name": "getTotalAuctions",
      "outputs": [
        {
          "internalType": "uint256",
          "name": "",
          "type": "uint256"
        }
      ],
      "stateMutability": "view",
      "type": "function",
      "constant": true
    },
    {
      "inputs": [
        {
          "internalType": "uint256",
          "name": "_auctionIndex",
          "type": "uint256"
        }
      ],
      "name": "isActive",
      "outputs": [
        {
          "internalType": "bool",
          "name": "",
          "type": "bool"
        }
      ],
      "stateMutability": "view",
      "type": "function",
      "constant": true
    },
    {
      "inputs": [
        {
          "internalType": "uint256",
          "name": "_auctionIndex",
          "type": "uint256"
        }
      ],
      "name": "isFinished",
      "outputs": [
        {
          "internalType": "bool",
          "name": "",
          "type": "bool"
        }
      ],
      "stateMutability": "view",
      "type": "function",
      "constant": true
    },
    {
      "inputs": [
        {
          "internalType": "uint256",
          "name": "_auctionIndex",
          "type": "uint256"
        }
      ],
      "name": "getStatus",
      "outputs": [
        {
          "internalType": "enum Engine.Status",
          "name": "",
          "type": "uint8"
        }
      ],
      "stateMutability": "view",
      "type": "function",
      "constant": true
    },
    {
      "inputs": [
        {
          "internalType": "uint256",
          "name": "_auctionIndex",
          "type": "uint256"
        }
      ],
      "name": "endDate",
      "outputs": [
        {
          "internalType": "uint256",
          "name": "",
          "type": "uint256"
        }
      ],
      "stateMutability": "view",
      "type": "function",
      "constant": true
    },
    {
      "inputs": [
        {
          "internalType": "uint256",
          "name": "_auctionIndex",
          "type": "uint256"
        }
      ],
      "name": "getCurrentBidOwner",
      "outputs": [
        {
          "internalType": "address",
          "name": "",
          "type": "address"
        }
      ],
      "stateMutability": "view",
      "type": "function",
      "constant": true
    },
    {
      "inputs": [
        {
          "internalType": "uint256",
          "name": "_auctionIndex",
          "type": "uint256"
        }
      ],
      "name": "getCurrentBidAmount",
      "outputs": [
        {
          "internalType": "uint256",
          "name": "",
          "type": "uint256"
        }
      ],
      "stateMutability": "view",
      "type": "function",
      "constant": true
    },
    {
      "inputs": [
        {
          "internalType": "uint256",
          "name": "_auctionIndex",
          "type": "uint256"
        }
      ],
      "name": "getBidCount",
      "outputs": [
        {
          "internalType": "uint256",
          "name": "",
          "type": "uint256"
        }
      ],
      "stateMutability": "view",
      "type": "function",
      "constant": true
    },
    {
      "inputs": [
        {
          "internalType": "uint256",
          "name": "auctionIndex",
          "type": "uint256"
        }
      ],
      "name": "getWinner",
      "outputs": [
        {
          "internalType": "address",
          "name": "",
          "type": "address"
        }
      ],
      "stateMutability": "view",
      "type": "function",
      "constant": true
    },
    {
      "inputs": [
        {
          "internalType": "uint256",
          "name": "auctionIndex",
          "type": "uint256"
        }
      ],
      "name": "claimAsset",
      "outputs": [],
      "stateMutability": "nonpayable",
      "type": "function"
    },
    {
      "inputs": [
        {
          "internalType": "uint256",
          "name": "auctionIndex",
          "type": "uint256"
        }
      ],
      "name": "automaticSetWinner",
      "outputs": [],
      "stateMutability": "nonpayable",
      "type": "function"
    },
    {
      "inputs": [],
      "name": "extractBalance",
      "outputs": [],
      "stateMutability": "nonpayable",
      "type": "function"
    }
  ],
  "bytecode": "0x60806040526000600355600060045560006005553480156200002057600080fd5b50600062000033620000de60201b60201c565b9050806000806101000a81548173ffffffffffffffffffffffffffffffffffffffff021916908373ffffffffffffffffffffffffffffffffffffffff1602179055508073ffffffffffffffffffffffffffffffffffffffff16600073ffffffffffffffffffffffffffffffffffffffff167f8be0079c531659141344cd1fd0a4f28419497f9722a3daafe3b4186f6b6457e060405160405180910390a35060018081905550620000e6565b600033905090565b614e6080620000f66000396000f3fe6080604052600436106101b75760003560e01c80636af83b24116100ec5780638da5cb5b1161008a578063d96a094a11610064578063d96a094a14610642578063e14891911461065e578063e8ba650914610689578063f2fde38b146106c6576101b7565b80638da5cb5b146105c3578063ae693673146105ee578063d3c2a59214610619576101b7565b80637b5a96a6116100c65780637b5a96a6146104dd57806382afd23b1461050657806386b46073146105435780638a72ea6a14610580576101b7565b80636af83b2414610472578063715018a614610489578063744d3411146104a0576101b7565b8063454a2ab311610159578063571a26a011610133578063571a26a0146103895780635c622a0e146103cd5780636605ff661461040a5780636975846a14610435576101b7565b8063454a2ab3146103075780634cac5b4b146103235780635552f6ca14610360576101b7565b80632b866759116101955780632b8667591461024b578063355e6b43146102765780633ef14cc81461029f5780634129b2c9146102ca576101b7565b806312f4ea2e146101bc5780631361a3b6146101f95780632241091b14610222575b600080fd5b3480156101c857600080fd5b506101e360048036038101906101de9190613e4f565b6106ef565b6040516101f091906146a3565b60405180910390f35b34801561020557600080fd5b50610220600480360381019061021b9190613e4f565b61081f565b005b34801561022e57600080fd5b5061024960048036038101906102449190613e4f565b610acb565b005b34801561025757600080fd5b50610260610f5a565b60405161026d91906146a3565b60405180910390f35b34801561028257600080fd5b5061029d60048036038101906102989190613e4f565b610f62565b005b3480156102ab57600080fd5b506102b461102d565b6040516102c191906146a3565b60405180910390f35b3480156102d657600080fd5b506102f160048036038101906102ec9190613e4f565b61103a565b6040516102fe9190614212565b60405180910390f35b610321600480360381019061031c9190613e4f565b6110f7565b005b34801561032f57600080fd5b5061034a60048036038101906103459190613e4f565b611509565b60405161035791906146a3565b60405180910390f35b34801561036c57600080fd5b5061038760048036038101906103829190613e4f565b611579565b005b34801561039557600080fd5b506103b060048036038101906103ab9190613e4f565b611601565b6040516103c498979695949392919061434f565b60405180910390f35b3480156103d957600080fd5b506103f460048036038101906103ef9190613e4f565b6116b9565b60405161040191906143e8565b60405180910390f35b34801561041657600080fd5b5061041f611753565b60405161042c91906146a3565b60405180910390f35b34801561044157600080fd5b5061045c60048036038101906104579190613e4f565b611759565b60405161046991906146a3565b60405180910390f35b34801561047e57600080fd5b506104876117ae565b005b34801561049557600080fd5b5061049e61193e565b005b3480156104ac57600080fd5b506104c760048036038101906104c29190613e4f565b611a78565b6040516104d491906146a3565b60405180910390f35b3480156104e957600080fd5b5061050460048036038101906104ff9190613d9d565b611acd565b005b34801561051257600080fd5b5061052d60048036038101906105289190613e4f565b611fd4565b60405161053a91906143cd565b60405180910390f35b34801561054f57600080fd5b5061056a60048036038101906105659190613e4f565b612059565b6040516105779190614212565b60405180910390f35b34801561058c57600080fd5b506105a760048036038101906105a29190613e4f565b6120ce565b6040516105ba97969594939291906142e0565b60405180910390f35b3480156105cf57600080fd5b506105d861216a565b6040516105e59190614212565b60405180910390f35b3480156105fa57600080fd5b50610603612193565b60405161061091906146a3565b60405180910390f35b34801561062557600080fd5b50610640600480360381019061063b9190613e4f565b612199565b005b61065c60048036038101906106579190613e4f565b612221565b005b34801561066a57600080fd5b50610673612d8e565b60405161068091906146a3565b60405180910390f35b34801561069557600080fd5b506106b060048036038101906106ab9190613e4f565b612d94565b6040516106bd91906143cd565b60405180910390f35b3480156106d257600080fd5b506106ed60048036038101906106e89190613d4b565b612e18565b005b600080600660008481526020019081526020016000206040518060e00160405290816000820160009054906101000a900473ffffffffffffffffffffffffffffffffffffffff1673ffffffffffffffffffffffffffffffffffffffff1673ffffffffffffffffffffffffffffffffffffffff168152602001600182015481526020016002820160009054906101000a900473ffffffffffffffffffffffffffffffffffffffff1673ffffffffffffffffffffffffffffffffffffffff1673ffffffffffffffffffffffffffffffffffffffff168152602001600382015481526020016004820160009054906101000a900460ff161515151581526020016004820160019054906101000a900460ff1615151515815260200160058201548152505090508060c00151915050919050565b6000600660008381526020019081526020016000206040518060e00160405290816000820160009054906101000a900473ffffffffffffffffffffffffffffffffffffffff1673ffffffffffffffffffffffffffffffffffffffff1673ffffffffffffffffffffffffffffffffffffffff168152602001600182015481526020016002820160009054906101000a900473ffffffffffffffffffffffffffffffffffffffff1673ffffffffffffffffffffffffffffffffffffffff1673ffffffffffffffffffffffffffffffffffffffff168152602001600382015481526020016004820160009054906101000a900460ff161515151581526020016004820160019054906101000a900460ff161515151581526020016005820154815250509050806040015173ffffffffffffffffffffffffffffffffffffffff163373ffffffffffffffffffffffffffffffffffffffff16146109b3576040517f08c379a00000000000000000000000000000000000000000000000000000000081526004016109aa90614503565b60405180910390fd5b6000816080019015159081151581525050806006600084815260200190815260200160002060008201518160000160006101000a81548173ffffffffffffffffffffffffffffffffffffffff021916908373ffffffffffffffffffffffffffffffffffffffff1602179055506020820151816001015560408201518160020160006101000a81548173ffffffffffffffffffffffffffffffffffffffff021916908373ffffffffffffffffffffffffffffffffffffffff1602179055506060820151816003015560808201518160040160006101000a81548160ff02191690831515021790555060a08201518160040160016101000a81548160ff02191690831515021790555060c082015181600501559050505050565b6000600660008381526020019081526020016000206040518060e00160405290816000820160009054906101000a900473ffffffffffffffffffffffffffffffffffffffff1673ffffffffffffffffffffffffffffffffffffffff1673ffffffffffffffffffffffffffffffffffffffff168152602001600182015481526020016002820160009054906101000a900473ffffffffffffffffffffffffffffffffffffffff1673ffffffffffffffffffffffffffffffffffffffff1673ffffffffffffffffffffffffffffffffffffffff168152602001600382015481526020016004820160009054906101000a900460ff161515151581526020016004820160019054906101000a900460ff161515151581526020016005820154815250509050806040015173ffffffffffffffffffffffffffffffffffffffff163373ffffffffffffffffffffffffffffffffffffffff1614610c5f576040517f08c379a0000000000000000000000000000000000000000000000000000000008152600401610c5690614503565b60405180910390fd5b60006002826020015181548110610c9f577f4e487b7100000000000000000000000000000000000000000000000000000000600052603260045260246000fd5b9060005260206000209060080201604051806101000160405290816000820160009054906101000a900473ffffffffffffffffffffffffffffffffffffffff1673ffffffffffffffffffffffffffffffffffffffff1673ffffffffffffffffffffffffffffffffffffffff168152602001600182015481526020016002820160009054906101000a900473ffffffffffffffffffffffffffffffffffffffff1673ffffffffffffffffffffffffffffffffffffffff1673ffffffffffffffffffffffffffffffffffffffff1681526020016003820154815260200160048201548152602001600582015481526020016006820160009054906101000a900473ffffffffffffffffffffffffffffffffffffffff1673ffffffffffffffffffffffffffffffffffffffff1673ffffffffffffffffffffffffffffffffffffffff168152602001600782015481525050905060008160e0015114610e36576040517f08c379a0000000000000000000000000000000000000000000000000000000008152600401610e2d90614483565b60405180910390fd5b60008260a001901515908115158152505060008260c0018181525050816006600085815260200190815260200160002060008201518160000160006101000a81548173ffffffffffffffffffffffffffffffffffffffff021916908373ffffffffffffffffffffffffffffffffffffffff1602179055506020820151816001015560408201518160020160006101000a81548173ffffffffffffffffffffffffffffffffffffffff021916908373ffffffffffffffffffffffffffffffffffffffff1602179055506060820151816003015560808201518160040160006101000a81548160ff02191690831515021790555060a08201518160040160016101000a81548160ff02191690831515021790555060c08201518160050155905050505050565b600042905090565b610f6a612fc1565b73ffffffffffffffffffffffffffffffffffffffff16610f8861216a565b73ffffffffffffffffffffffffffffffffffffffff1614610fde576040517f08c379a0000000000000000000000000000000000000000000000000000000008152600401610fd5906145a3565b60405180910390fd5b611388811115611023576040517f08c379a000000000000000000000000000000000000000000000000000000000815260040161101a90614623565b60405180910390fd5b8060038190555050565b6000600280549050905090565b600061104582612d94565b611084576040517f08c379a000000000000000000000000000000000000000000000000000000000815260040161107b90614423565b60405180910390fd5b600282815481106110be577f4e487b7100000000000000000000000000000000000000000000000000000000600052603260045260246000fd5b906000526020600020906008020160060160009054906101000a900473ffffffffffffffffffffffffffffffffffffffff169050919050565b6002600154141561113d576040517f08c379a000000000000000000000000000000000000000000000000000000000815260040161113490614683565b60405180910390fd5b6002600181905550600060028281548110611181577f4e487b7100000000000000000000000000000000000000000000000000000000600052603260045260246000fd5b90600052602060002090600802019050600073ffffffffffffffffffffffffffffffffffffffff168160020160009054906101000a900473ffffffffffffffffffffffffffffffffffffffff1673ffffffffffffffffffffffffffffffffffffffff161415611225576040517f08c379a000000000000000000000000000000000000000000000000000000000815260040161121c90614523565b60405180910390fd5b61122e82611fd4565b61126d576040517f08c379a0000000000000000000000000000000000000000000000000000000008152600401611264906144c3565b60405180910390fd5b806005015434116112b3576040517f08c379a00000000000000000000000000000000000000000000000000000000081526004016112aa90614443565b60405180910390fd5b60008160050154141580156113195750600073ffffffffffffffffffffffffffffffffffffffff168160060160009054906101000a900473ffffffffffffffffffffffffffffffffffffffff1673ffffffffffffffffffffffffffffffffffffffff1614155b156114575760008160060160009054906101000a900473ffffffffffffffffffffffffffffffffffffffff1673ffffffffffffffffffffffffffffffffffffffff16826005015460405161136c906141fd565b60006040518083038185875af1925050503d80600081146113a9576040519150601f19603f3d011682016040523d82523d6000602084013e6113ae565b606091505b50509050806113f2576040517f08c379a00000000000000000000000000000000000000000000000000000000081526004016113e990614643565b60405180910390fd5b7f972fd66eadedfb87beff023a37f4d8c6a91fdd147fa0d3c036e0c6c5a0cdc795838360060160009054906101000a900473ffffffffffffffffffffffffffffffffffffffff16846005015460405161144d9392919061471e565b60405180910390a1505b348160050181905550338160060160006101000a81548173ffffffffffffffffffffffffffffffffffffffff021916908373ffffffffffffffffffffffffffffffffffffffff1602179055506114bb60018260070154612fc990919063ffffffff16565b81600701819055507fb8d756f2d1da4663767eb4d559780ace84f2f65a421a60ddcb47e8b2e5d2fd268233346040516114f693929190614755565b60405180910390a1506001808190555050565b60008060028381548110611546577f4e487b7100000000000000000000000000000000000000000000000000000000600052603260045260246000fd5b9060005260206000209060080201905061157181600401548260030154612fc990919063ffffffff16565b915050919050565b611581612fc1565b73ffffffffffffffffffffffffffffffffffffffff1661159f61216a565b73ffffffffffffffffffffffffffffffffffffffff16146115f5576040517f08c379a00000000000000000000000000000000000000000000000000000000081526004016115ec906145a3565b60405180910390fd5b6115fe81612fdf565b50565b6002818154811061161157600080fd5b90600052602060002090600802016000915090508060000160009054906101000a900473ffffffffffffffffffffffffffffffffffffffff16908060010154908060020160009054906101000a900473ffffffffffffffffffffffffffffffffffffffff16908060030154908060040154908060050154908060060160009054906101000a900473ffffffffffffffffffffffffffffffffffffffff16908060070154905088565b600080600283815481106116f6577f4e487b7100000000000000000000000000000000000000000000000000000000600052603260045260246000fd5b90600052602060002090600802019050806003015442101561171c57600091505061174e565b61173781600401548260030154612fc990919063ffffffff16565b42101561174857600191505061174e565b60029150505b919050565b60055481565b600060028281548110611795577f4e487b7100000000000000000000000000000000000000000000000000000000600052603260045260246000fd5b9060005260206000209060080201600501549050919050565b600260015414156117f4576040517f08c379a00000000000000000000000000000000000000000000000000000000081526004016117eb90614683565b60405180910390fd5b6002600181905550611804612fc1565b73ffffffffffffffffffffffffffffffffffffffff1661182261216a565b73ffffffffffffffffffffffffffffffffffffffff1614611878576040517f08c379a000000000000000000000000000000000000000000000000000000000815260040161186f906145a3565b60405180910390fd5b600033905060008173ffffffffffffffffffffffffffffffffffffffff166004546040516118a5906141fd565b60006040518083038185875af1925050503d80600081146118e2576040519150601f19603f3d011682016040523d82523d6000602084013e6118e7565b606091505b505090508061192b576040517f08c379a000000000000000000000000000000000000000000000000000000000815260040161192290614643565b60405180910390fd5b6000600481905550505060018081905550565b611946612fc1565b73ffffffffffffffffffffffffffffffffffffffff1661196461216a565b73ffffffffffffffffffffffffffffffffffffffff16146119ba576040517f08c379a00000000000000000000000000000000000000000000000000000000081526004016119b1906145a3565b60405180910390fd5b600073ffffffffffffffffffffffffffffffffffffffff1660008054906101000a900473ffffffffffffffffffffffffffffffffffffffff1673ffffffffffffffffffffffffffffffffffffffff167f8be0079c531659141344cd1fd0a4f28419497f9722a3daafe3b4186f6b6457e060405160405180910390a360008060006101000a81548173ffffffffffffffffffffffffffffffffffffffff021916908373ffffffffffffffffffffffffffffffffffffffff160217905550565b600060028281548110611ab4577f4e487b7100000000000000000000000000000000000000000000000000000000600052603260045260246000fd5b9060005260206000209060080201600701549050919050565b60008890503373ffffffffffffffffffffffffffffffffffffffff168173ffffffffffffffffffffffffffffffffffffffff16636352211e8a6040518263ffffffff1660e01b8152600401611b2291906146a3565b60206040518083038186803b158015611b3a57600080fd5b505afa158015611b4e573d6000803e3d6000fd5b505050506040513d601f19601f82011682018060405250810190611b729190613d74565b73ffffffffffffffffffffffffffffffffffffffff1614611bc8576040517f08c379a0000000000000000000000000000000000000000000000000000000008152600401611bbf90614563565b60405180910390fd5b3073ffffffffffffffffffffffffffffffffffffffff168173ffffffffffffffffffffffffffffffffffffffff1663081812fc8a6040518263ffffffff1660e01b8152600401611c1891906146a3565b60206040518083038186803b158015611c3057600080fd5b505afa158015611c44573d6000803e3d6000fd5b505050506040513d601f19601f82011682018060405250810190611c689190613d74565b73ffffffffffffffffffffffffffffffffffffffff1614611cbe576040517f08c379a0000000000000000000000000000000000000000000000000000000008152600401611cb590614663565b60405180910390fd5b6000600660008a81526020019081526020016000206040518060e00160405290816000820160009054906101000a900473ffffffffffffffffffffffffffffffffffffffff1673ffffffffffffffffffffffffffffffffffffffff1673ffffffffffffffffffffffffffffffffffffffff168152602001600182015481526020016002820160009054906101000a900473ffffffffffffffffffffffffffffffffffffffff1673ffffffffffffffffffffffffffffffffffffffff1673ffffffffffffffffffffffffffffffffffffffff168152602001600382015481526020016004820160009054906101000a900460ff161515151581526020016004820160019054906101000a900460ff1615151515815260200160058201548152505090506000151581608001511515148015611e005750600015158160a001511515145b611e3f576040517f08c379a0000000000000000000000000000000000000000000000000000000008152600401611e3690614543565b60405180910390fd5b60006040518060e001604052808c73ffffffffffffffffffffffffffffffffffffffff1681526020018b81526020013373ffffffffffffffffffffffffffffffffffffffff1681526020018881526020018a151581526020018915158152602001600081525090508715611ec457611eba8b8b888888613a83565b8160c00181815250505b80600660008c815260200190815260200160002060008201518160000160006101000a81548173ffffffffffffffffffffffffffffffffffffffff021916908373ffffffffffffffffffffffffffffffffffffffff1602179055506020820151816001015560408201518160020160006101000a81548173ffffffffffffffffffffffffffffffffffffffff021916908373ffffffffffffffffffffffffffffffffffffffff1602179055506060820151816003015560808201518160040160006101000a81548160ff02191690831515021790555060a08201518160040160016101000a81548160ff02191690831515021790555060c082015181600501559050505050505050505050505050565b600060016002811115612010577f4e487b7100000000000000000000000000000000000000000000000000000000600052602160045260246000fd5b612019836116b9565b6002811115612051577f4e487b7100000000000000000000000000000000000000000000000000000000600052602160045260246000fd5b149050919050565b600060028281548110612095577f4e487b7100000000000000000000000000000000000000000000000000000000600052603260045260246000fd5b906000526020600020906008020160060160009054906101000a900473ffffffffffffffffffffffffffffffffffffffff169050919050565b60066020528060005260406000206000915090508060000160009054906101000a900473ffffffffffffffffffffffffffffffffffffffff16908060010154908060020160009054906101000a900473ffffffffffffffffffffffffffffffffffffffff16908060030154908060040160009054906101000a900460ff16908060040160019054906101000a900460ff16908060050154905087565b60008060009054906101000a900473ffffffffffffffffffffffffffffffffffffffff16905090565b60045481565b60006121a48261103a565b90503373ffffffffffffffffffffffffffffffffffffffff168173ffffffffffffffffffffffffffffffffffffffff1614612214576040517f08c379a000000000000000000000000000000000000000000000000000000000815260040161220b906144a3565b60405180910390fd5b61221d82612fdf565b5050565b60026001541415612267576040517f08c379a000000000000000000000000000000000000000000000000000000000815260040161225e90614683565b60405180910390fd5b6002600181905550600033905060003490506000600660008581526020019081526020016000206040518060e00160405290816000820160009054906101000a900473ffffffffffffffffffffffffffffffffffffffff1673ffffffffffffffffffffffffffffffffffffffff1673ffffffffffffffffffffffffffffffffffffffff168152602001600182015481526020016002820160009054906101000a900473ffffffffffffffffffffffffffffffffffffffff1673ffffffffffffffffffffffffffffffffffffffff1673ffffffffffffffffffffffffffffffffffffffff168152602001600382015481526020016004820160009054906101000a900460ff161515151581526020016004820160019054906101000a900460ff1615151515815260200160058201548152505090506001151581608001511515146123e6576040517f08c379a00000000000000000000000000000000000000000000000000000000081526004016123dd90614603565b60405180910390fd5b60008160600151905080831015612432576040517f08c379a000000000000000000000000000000000000000000000000000000000815260040161242990614403565b60405180910390fd5b600115158260a00151151514801561245357506124528260c00151612d94565b5b80156124ae5750600060028360c001518154811061249a577f4e487b7100000000000000000000000000000000000000000000000000000000600052603260045260246000fd5b906000526020600020906008020160070154115b156124ee576040517f08c379a00000000000000000000000000000000000000000000000000000000081526004016124e590614583565b60405180910390fd5b7f35538759d80c1fd7bb450a0d05601db5a99fa8b5d073a07c847a9fd61029b107858560405161251f9291906146be565b60405180910390a16000826000015190508073ffffffffffffffffffffffffffffffffffffffff166342842e0e846040015187896040518463ffffffff1660e01b81526004016125719392919061422d565b600060405180830381600087803b15801561258b57600080fd5b505af115801561259f573d6000803e3d6000fd5b5050505060008173ffffffffffffffffffffffffffffffffffffffff1663d48e638a886040518263ffffffff1660e01b81526004016125de91906146a3565b60206040518083038186803b1580156125f657600080fd5b505afa15801561260a573d6000803e3d6000fd5b505050506040513d601f19601f8201168201806040525081019061262e9190613d74565b9050600061271061264a60035488613cb690919063ffffffff16565b61265491906147fe565b90506000856040015173ffffffffffffffffffffffffffffffffffffffff168373ffffffffffffffffffffffffffffffffffffffff16146128205761271061272d8573ffffffffffffffffffffffffffffffffffffffff1663bb3bafd68c6040518263ffffffff1660e01b81526004016126ce91906146a3565b60206040518083038186803b1580156126e657600080fd5b505afa1580156126fa573d6000803e3d6000fd5b505050506040513d601f19601f8201168201806040525081019061271e9190613e78565b89613cb690919063ffffffff16565b61273791906147fe565b905060008373ffffffffffffffffffffffffffffffffffffffff168260405161275f906141fd565b60006040518083038185875af1925050503d806000811461279c576040519150601f19603f3d011682016040523d82523d6000602084013e6127a1565b606091505b50509050806127e5576040517f08c379a00000000000000000000000000000000000000000000000000000000081526004016127dc90614643565b60405180910390fd5b7f54b960faf8b038c33ba9912fdb9ac1e8e0096c5f327d1c89e62b5d9c5357ddb68483604051612816929190614264565b60405180910390a1505b600061284782612839858b613ccc90919063ffffffff16565b613ccc90919063ffffffff16565b90506000876040015173ffffffffffffffffffffffffffffffffffffffff1682604051612873906141fd565b60006040518083038185875af1925050503d80600081146128b0576040519150601f19603f3d011682016040523d82523d6000602084013e6128b5565b606091505b50509050806128f9576040517f08c379a00000000000000000000000000000000000000000000000000000000081526004016128f090614643565b60405180910390fd5b7f9a37aa02cc986a4a0c2d22af3dcdb9db27c178f7feed43e7037c783b55ed91ba88604001518386866127106003548f612933919061482f565b61293d91906147fe565b8761294891906147a8565b60405161295995949392919061428d565b60405180910390a1600115158860a0015115151415612c1f57600060028960c00151815481106129b2577f4e487b7100000000000000000000000000000000000000000000000000000000600052603260045260246000fd5b9060005260206000209060080201604051806101000160405290816000820160009054906101000a900473ffffffffffffffffffffffffffffffffffffffff1673ffffffffffffffffffffffffffffffffffffffff1673ffffffffffffffffffffffffffffffffffffffff168152602001600182015481526020016002820160009054906101000a900473ffffffffffffffffffffffffffffffffffffffff1673ffffffffffffffffffffffffffffffffffffffff1673ffffffffffffffffffffffffffffffffffffffff1681526020016003820154815260200160048201548152602001600582015481526020016006820160009054906101000a900473ffffffffffffffffffffffffffffffffffffffff1673ffffffffffffffffffffffffffffffffffffffff1673ffffffffffffffffffffffffffffffffffffffff168152602001600782015481525050905060008160a0015114158015612b1b575060008160e00151115b15612c1d5760008160c0015173ffffffffffffffffffffffffffffffffffffffff168260a00151604051612b4e906141fd565b60006040518083038185875af1925050503d8060008114612b8b576040519150601f19603f3d011682016040523d82523d6000602084013e612b90565b606091505b5050905080612bd4576040517f08c379a0000000000000000000000000000000000000000000000000000000008152600401612bcb90614643565b60405180910390fd5b7f972fd66eadedfb87beff023a37f4d8c6a91fdd147fa0d3c036e0c6c5a0cdc7958a60c001518360c001518460a00151604051612c139392919061471e565b60405180910390a1505b505b612c3484600454612fc990919063ffffffff16565b60048190555060008860a0019015159081151581525050600088608001901515908115158152505087600660008d815260200190815260200160002060008201518160000160006101000a81548173ffffffffffffffffffffffffffffffffffffffff021916908373ffffffffffffffffffffffffffffffffffffffff1602179055506020820151816001015560408201518160020160006101000a81548173ffffffffffffffffffffffffffffffffffffffff021916908373ffffffffffffffffffffffffffffffffffffffff1602179055506060820151816003015560808201518160040160006101000a81548160ff02191690831515021790555060a08201518160040160016101000a81548160ff02191690831515021790555060c08201518160050155905050612d7434600554612fc990919063ffffffff16565b600581905550505050505050505050506001808190555050565b60035481565b6000600280811115612dcf577f4e487b7100000000000000000000000000000000000000000000000000000000600052602160045260246000fd5b612dd8836116b9565b6002811115612e10577f4e487b7100000000000000000000000000000000000000000000000000000000600052602160045260246000fd5b149050919050565b612e20612fc1565b73ffffffffffffffffffffffffffffffffffffffff16612e3e61216a565b73ffffffffffffffffffffffffffffffffffffffff1614612e94576040517f08c379a0000000000000000000000000000000000000000000000000000000008152600401612e8b906145a3565b60405180910390fd5b600073ffffffffffffffffffffffffffffffffffffffff168173ffffffffffffffffffffffffffffffffffffffff161415612f04576040517f08c379a0000000000000000000000000000000000000000000000000000000008152600401612efb90614463565b60405180910390fd5b8073ffffffffffffffffffffffffffffffffffffffff1660008054906101000a900473ffffffffffffffffffffffffffffffffffffffff1673ffffffffffffffffffffffffffffffffffffffff167f8be0079c531659141344cd1fd0a4f28419497f9722a3daafe3b4186f6b6457e060405160405180910390a3806000806101000a81548173ffffffffffffffffffffffffffffffffffffffff021916908373ffffffffffffffffffffffffffffffffffffffff16021790555050565b600033905090565b60008183612fd791906147a8565b905092915050565b60026001541415613025576040517f08c379a000000000000000000000000000000000000000000000000000000000815260040161301c90614683565b60405180910390fd5b600260018190555061303681612d94565b613075576040517f08c379a000000000000000000000000000000000000000000000000000000000815260040161306c906145e3565b60405180910390fd5b6000600282815481106130b1577f4e487b7100000000000000000000000000000000000000000000000000000000600052603260045260246000fd5b9060005260206000209060080201905060006130cc8361103a565b9050600060066000846001015481526020019081526020016000206040518060e00160405290816000820160009054906101000a900473ffffffffffffffffffffffffffffffffffffffff1673ffffffffffffffffffffffffffffffffffffffff1673ffffffffffffffffffffffffffffffffffffffff168152602001600182015481526020016002820160009054906101000a900473ffffffffffffffffffffffffffffffffffffffff1673ffffffffffffffffffffffffffffffffffffffff1673ffffffffffffffffffffffffffffffffffffffff168152602001600382015481526020016004820160009054906101000a900460ff161515151581526020016004820160019054906101000a900460ff161515151581526020016005820154815250509050600115158160a0015115151461323f576040517f08c379a0000000000000000000000000000000000000000000000000000000008152600401613236906145c3565b60405180910390fd5b60008360000160009054906101000a900473ffffffffffffffffffffffffffffffffffffffff1690503073ffffffffffffffffffffffffffffffffffffffff168173ffffffffffffffffffffffffffffffffffffffff1663081812fc86600101546040518263ffffffff1660e01b81526004016132bc91906146a3565b60206040518083038186803b1580156132d457600080fd5b505afa1580156132e8573d6000803e3d6000fd5b505050506040513d601f19601f8201168201806040525081019061330c9190613d74565b73ffffffffffffffffffffffffffffffffffffffff1614613362576040517f08c379a000000000000000000000000000000000000000000000000000000000815260040161335990614663565b60405180910390fd5b8360020160009054906101000a900473ffffffffffffffffffffffffffffffffffffffff1673ffffffffffffffffffffffffffffffffffffffff168173ffffffffffffffffffffffffffffffffffffffff16636352211e86600101546040518263ffffffff1660e01b81526004016133da91906146a3565b60206040518083038186803b1580156133f257600080fd5b505afa158015613406573d6000803e3d6000fd5b505050506040513d601f19601f8201168201806040525081019061342a9190613d74565b73ffffffffffffffffffffffffffffffffffffffff1614613480576040517f08c379a0000000000000000000000000000000000000000000000000000000008152600401613477906144e3565b60405180910390fd5b8073ffffffffffffffffffffffffffffffffffffffff166342842e0e8560020160009054906101000a900473ffffffffffffffffffffffffffffffffffffffff168587600101546040518463ffffffff1660e01b81526004016134e59392919061422d565b600060405180830381600087803b1580156134ff57600080fd5b505af1158015613513573d6000803e3d6000fd5b505050507f35538759d80c1fd7bb450a0d05601db5a99fa8b5d073a07c847a9fd61029b10785846040516135489291906146be565b60405180910390a160008173ffffffffffffffffffffffffffffffffffffffff1663d48e638a86600101546040518263ffffffff1660e01b815260040161358f91906146a3565b60206040518083038186803b1580156135a757600080fd5b505afa1580156135bb573d6000803e3d6000fd5b505050506040513d601f19601f820116820180604052508101906135df9190613d74565b905060006127106135ff6003548860050154613cb690919063ffffffff16565b61360991906147fe565b905060008660020160009054906101000a900473ffffffffffffffffffffffffffffffffffffffff1673ffffffffffffffffffffffffffffffffffffffff168373ffffffffffffffffffffffffffffffffffffffff16146137975761271061370a8573ffffffffffffffffffffffffffffffffffffffff1663bb3bafd68a600101546040518263ffffffff1660e01b81526004016136a791906146a3565b60206040518083038186803b1580156136bf57600080fd5b505afa1580156136d3573d6000803e3d6000fd5b505050506040513d601f19601f820116820180604052508101906136f79190613e78565b8960050154613cb690919063ffffffff16565b61371491906147fe565b90508273ffffffffffffffffffffffffffffffffffffffff166108fc829081150290604051600060405180830381858888f1935050505015801561375c573d6000803e3d6000fd5b507f54b960faf8b038c33ba9912fdb9ac1e8e0096c5f327d1c89e62b5d9c5357ddb6838260405161378e929190614264565b60405180910390a15b60006137c2826137b4858b60050154613ccc90919063ffffffff16565b613ccc90919063ffffffff16565b905060008860020160009054906101000a900473ffffffffffffffffffffffffffffffffffffffff1673ffffffffffffffffffffffffffffffffffffffff168260405161380e906141fd565b60006040518083038185875af1925050503d806000811461384b576040519150601f19603f3d011682016040523d82523d6000602084013e613850565b606091505b5050905080613894576040517f08c379a000000000000000000000000000000000000000000000000000000000815260040161388b90614643565b60405180910390fd5b7f9a37aa02cc986a4a0c2d22af3dcdb9db27c178f7feed43e7037c783b55ed91ba8960020160009054906101000a900473ffffffffffffffffffffffffffffffffffffffff168386868789886138ea91906147a8565b6138f491906147a8565b60405161390595949392919061428d565b60405180910390a161392284600454612fc990919063ffffffff16565b60048190555060008760a0019015159081151581525050600087608001901515908115158152505086600660008b60010154815260200190815260200160002060008201518160000160006101000a81548173ffffffffffffffffffffffffffffffffffffffff021916908373ffffffffffffffffffffffffffffffffffffffff1602179055506020820151816001015560408201518160020160006101000a81548173ffffffffffffffffffffffffffffffffffffffff021916908373ffffffffffffffffffffffffffffffffffffffff1602179055506060820151816003015560808201518160040160006101000a81548160ff02191690831515021790555060a08201518160040160016101000a81548160ff02191690831515021790555060c08201518160050155905050613a6a8960050154600554612fc990919063ffffffff16565b6005819055505050505050505050506001808190555050565b600080831415613a91574292505b60006040518061010001604052808873ffffffffffffffffffffffffffffffffffffffff1681526020018781526020013373ffffffffffffffffffffffffffffffffffffffff168152602001858152602001848152602001868152602001600073ffffffffffffffffffffffffffffffffffffffff16815260200160008152509050600281908060018154018082558091505060019003906000526020600020906008020160009091909190915060008201518160000160006101000a81548173ffffffffffffffffffffffffffffffffffffffff021916908373ffffffffffffffffffffffffffffffffffffffff1602179055506020820151816001015560408201518160020160006101000a81548173ffffffffffffffffffffffffffffffffffffffff021916908373ffffffffffffffffffffffffffffffffffffffff160217905550606082015181600301556080820151816004015560a0820151816005015560c08201518160060160006101000a81548173ffffffffffffffffffffffffffffffffffffffff021916908373ffffffffffffffffffffffffffffffffffffffff16021790555060e0820151816007015550506000613c636001600280549050613ccc90919063ffffffff16565b90507f512995dd21f4740d4aba0bdfb032eb8fdad6034f857101e2217bef00c285015f8183604001518460000151604051613ca0939291906146e7565b60405180910390a1809250505095945050505050565b60008183613cc4919061482f565b905092915050565b60008183613cda9190614889565b905092915050565b600081359050613cf181614de5565b92915050565b600081519050613d0681614de5565b92915050565b600081359050613d1b81614dfc565b92915050565b600081359050613d3081614e13565b92915050565b600081519050613d4581614e13565b92915050565b600060208284031215613d5d57600080fd5b6000613d6b84828501613ce2565b91505092915050565b600060208284031215613d8657600080fd5b6000613d9484828501613cf7565b91505092915050565b600080600080600080600080610100898b031215613dba57600080fd5b6000613dc88b828c01613ce2565b9850506020613dd98b828c01613d21565b9750506040613dea8b828c01613d0c565b9650506060613dfb8b828c01613d0c565b9550506080613e0c8b828c01613d21565b94505060a0613e1d8b828c01613d21565b93505060c0613e2e8b828c01613d21565b92505060e0613e3f8b828c01613d21565b9150509295985092959890939650565b600060208284031215613e6157600080fd5b6000613e6f84828501613d21565b91505092915050565b600060208284031215613e8a57600080fd5b6000613e9884828501613d36565b91505092915050565b613eaa8161492a565b82525050565b613eb9816148cf565b82525050565b613ec8816148bd565b82525050565b613ed7816148e1565b82525050565b613ee68161493c565b82525050565b6000613ef9601383614797565b9150613f04826149ff565b602082019050919050565b6000613f1c601883614797565b9150613f2782614a28565b602082019050919050565b6000613f3f600b83614797565b9150613f4a82614a51565b602082019050919050565b6000613f62602683614797565b9150613f6d82614a7a565b604082019050919050565b6000613f85600d83614797565b9150613f9082614ac9565b602082019050919050565b6000613fa8602583614797565b9150613fb382614af2565b604082019050919050565b6000613fcb600e83614797565b9150613fd682614b41565b602082019050919050565b6000613fee602083614797565b9150613ff982614b6a565b602082019050919050565b6000614011601583614797565b915061401c82614b93565b602082019050919050565b6000614034601c83614797565b915061403f82614bbc565b602082019050919050565b6000614057601e83614797565b915061406282614be5565b602082019050919050565b600061407a600d83614797565b915061408582614c0e565b602082019050919050565b600061409d602583614797565b91506140a882614c37565b604082019050919050565b60006140c0602083614797565b91506140cb82614c86565b602082019050919050565b60006140e3601283614797565b91506140ee82614caf565b602082019050919050565b6000614106601b83614797565b915061411182614cd8565b602082019050919050565b6000614129601683614797565b915061413482614d01565b602082019050919050565b600061414c601383614797565b915061415782614d2a565b602082019050919050565b600061416f60008361478c565b915061417a82614d53565b600082019050919050565b6000614192601083614797565b915061419d82614d56565b602082019050919050565b60006141b5601083614797565b91506141c082614d7f565b602082019050919050565b60006141d8601f83614797565b91506141e382614da8565b602082019050919050565b6141f781614920565b82525050565b600061420882614162565b9150819050919050565b60006020820190506142276000830184613ebf565b92915050565b60006060820190506142426000830186613ea1565b61424f6020830185613ebf565b61425c60408301846141ee565b949350505050565b60006040820190506142796000830185613ea1565b61428660208301846141ee565b9392505050565b600060a0820190506142a26000830188613ea1565b6142af60208301876141ee565b6142bc60408301866141ee565b6142c960608301856141ee565b6142d660808301846141ee565b9695505050505050565b600060e0820190506142f5600083018a613ebf565b61430260208301896141ee565b61430f6040830188613eb0565b61431c60608301876141ee565b6143296080830186613ece565b61433660a0830185613ece565b61434360c08301846141ee565b98975050505050505050565b600061010082019050614365600083018b613ebf565b614372602083018a6141ee565b61437f6040830189613eb0565b61438c60608301886141ee565b61439960808301876141ee565b6143a660a08301866141ee565b6143b360c0830185613eb0565b6143c060e08301846141ee565b9998505050505050505050565b60006020820190506143e26000830184613ece565b92915050565b60006020820190506143fd6000830184613edd565b92915050565b6000602082019050818103600083015261441c81613eec565b9050919050565b6000602082019050818103600083015261443c81613f0f565b9050919050565b6000602082019050818103600083015261445c81613f32565b9050919050565b6000602082019050818103600083015261447c81613f55565b9050919050565b6000602082019050818103600083015261449c81613f78565b9050919050565b600060208201905081810360008301526144bc81613f9b565b9050919050565b600060208201905081810360008301526144dc81613fbe565b9050919050565b600060208201905081810360008301526144fc81613fe1565b9050919050565b6000602082019050818103600083015261451c81614004565b9050919050565b6000602082019050818103600083015261453c81614027565b9050919050565b6000602082019050818103600083015261455c8161404a565b9050919050565b6000602082019050818103600083015261457c8161406d565b9050919050565b6000602082019050818103600083015261459c81614090565b9050919050565b600060208201905081810360008301526145bc816140b3565b9050919050565b600060208201905081810360008301526145dc816140d6565b9050919050565b600060208201905081810360008301526145fc816140f9565b9050919050565b6000602082019050818103600083015261461c8161411c565b9050919050565b6000602082019050818103600083015261463c8161413f565b9050919050565b6000602082019050818103600083015261465c81614185565b9050919050565b6000602082019050818103600083015261467c816141a8565b9050919050565b6000602082019050818103600083015261469c816141cb565b9050919050565b60006020820190506146b860008301846141ee565b92915050565b60006040820190506146d360008301856141ee565b6146e06020830184613ebf565b9392505050565b60006060820190506146fc60008301866141ee565b6147096020830185613ea1565b6147166040830184613ebf565b949350505050565b600060608201905061473360008301866141ee565b6147406020830185613ea1565b61474d60408301846141ee565b949350505050565b600060608201905061476a60008301866141ee565b6147776020830185613ebf565b61478460408301846141ee565b949350505050565b600081905092915050565b600082825260208201905092915050565b60006147b382614920565b91506147be83614920565b9250827fffffffffffffffffffffffffffffffffffffffffffffffffffffffffffffffff038211156147f3576147f2614972565b5b828201905092915050565b600061480982614920565b915061481483614920565b925082614824576148236149a1565b5b828204905092915050565b600061483a82614920565b915061484583614920565b9250817fffffffffffffffffffffffffffffffffffffffffffffffffffffffffffffffff048311821515161561487e5761487d614972565b5b828202905092915050565b600061489482614920565b915061489f83614920565b9250828210156148b2576148b1614972565b5b828203905092915050565b60006148c882614900565b9050919050565b60006148da82614900565b9050919050565b60008115159050919050565b60008190506148fb82614dd1565b919050565b600073ffffffffffffffffffffffffffffffffffffffff82169050919050565b6000819050919050565b60006149358261494e565b9050919050565b6000614947826148ed565b9050919050565b600061495982614960565b9050919050565b600061496b82614900565b9050919050565b7f4e487b7100000000000000000000000000000000000000000000000000000000600052601160045260246000fd5b7f4e487b7100000000000000000000000000000000000000000000000000000000600052601260045260246000fd5b7f4e487b7100000000000000000000000000000000000000000000000000000000600052602160045260246000fd5b7f5072696365206973206e6f7420656e6f75676800000000000000000000000000600082015250565b7f41756374696f6e206e6f742066696e6973686564207965740000000000000000600082015250565b7f42696420746f6f206c6f77000000000000000000000000000000000000000000600082015250565b7f4f776e61626c653a206e6577206f776e657220697320746865207a65726f206160008201527f6464726573730000000000000000000000000000000000000000000000000000602082015250565b7f42696473206578697374696e6700000000000000000000000000000000000000600082015250565b7f596f7520617265206e6f74207468652077696e6e6572206f662074686520617560008201527f6374696f6e000000000000000000000000000000000000000000000000000000602082015250565b7f426964206e6f7420616374697665000000000000000000000000000000000000600082015250565b7f41756374696f6e2063726561746f72206973206e6f74206e6674206f776e6572600082015250565b7f596f7520617265206e6f7420746865206f776e65720000000000000000000000600082015250565b7f43616e6e6f74206269642e204572726f7220696e2061756374696f6e00000000600082015250565b7f416e20616374697665206f6666657220616c7265616479206578697374730000600082015250565b7f4e6f7420746865206f776e657200000000000000000000000000000000000000600082015250565b7f436c61696d2061737365742066726f6d2061756374696f6e206861732070726960008201527f6f72697479000000000000000000000000000000000000000000000000000000602082015250565b7f4f776e61626c653a2063616c6c6572206973206e6f7420746865206f776e6572600082015250565b7f4e4654206e6f7420696e2061756374696f6e0000000000000000000000000000600082015250565b7f5468652061756374696f6e206973207374696c6c206163746976650000000000600082015250565b7f4e4654206e6f7420696e206469726563742073616c6500000000000000000000600082015250565b7f436f6d6d697373696f6e20746f6f206869676800000000000000000000000000600082015250565b50565b7f5472616e73666572206661696c65642e00000000000000000000000000000000600082015250565b7f4e4654206e6f7420617070726f76656400000000000000000000000000000000600082015250565b7f5265656e7472616e637947756172643a207265656e7472616e742063616c6c00600082015250565b60038110614de257614de16149d0565b5b50565b614dee816148bd565b8114614df957600080fd5b50565b614e05816148e1565b8114614e1057600080fd5b50565b614e1c81614920565b8114614e2757600080fd5b5056fea2646970667358221220ab0a7a0c8debba220805bf95a367f4efeccc4f3ce2a8009164dc66ecab092c4b64736f6c63430008040033",
  "immutableReferences": {},
  "source": "// SPDX-License-Identifier: UNLICENSED\npragma solidity 0.8.4;\n\n//import \"./AddressUtils.sol\";\nimport \"@openzeppelin/contracts/token/ERC721/ERC721.sol\";\nimport \"@openzeppelin/contracts/access/Ownable.sol\";\nimport \"./PUML721.sol\";\nimport \"@openzeppelin/contracts/utils/math/SafeMath.sol\";\nimport \"@openzeppelin/contracts/security/ReentrancyGuard.sol\";\n\ncontract Engine is Ownable, ReentrancyGuard {\n    using SafeMath for uint256;\n\n    // Event triggered when an auction is created\n    event AuctionCreated(uint256 _index, address _creator, address _asset);\n    // Event triggered when an auction receives a bid\n    event AuctionBid(uint256 _index, address _bidder, uint256 amount);\n    // Event triggered when an ended auction winner claims the NFT\n    event Claim(uint256 auctionIndex, address claimer);\n    // Event triggered when an auction received a bid that implies sending funds back to previous best bidder\n    event ReturnBidFunds(uint256 _index, address _bidder, uint256 amount);\n    // Event triggered when a royalties payment is generated, either on direct sales or on auctions\n    event Royalties(address receiver, uint256 amount);\n    // Event triggered when a payment to the owner is generated, either on direct sales or on auctions.assetAddress\n    // This event is useful to check that all the payments funds are the right ones.\n    event PaymentToOwner(\n        address receiver,\n        uint256 amount,\n        //    uint256 paidByCustomer,\n        uint256 commission,\n        uint256 royalties,\n        uint256 safetyCheckValue\n    );\n\n    // Status of an auction, calculated using the start date, the duration and the current timeblock\n    enum Status {\n        pending,\n        active,\n        finished\n    }\n    // Data of an auction\n    struct Auction {\n        address assetAddress; // token address\n        uint256 assetId; // token id\n        address payable creator; // creator of the auction, which is the token owner\n        uint256 startTime; // time (unix, in seconds) where the auction will start\n        uint256 duration; // duration in seconds of the auction\n        uint256 currentBidAmount; // amount in ETH of the current bid amount\n        address payable currentBidOwner; // address of the user who places the best bid\n        uint256 bidCount; // number of bids of the auction\n    }\n    Auction[] public auctions;\n\n    uint256 public commission = 0; // this is the commission in basic points that will charge the marketplace by default.\n    uint256 public accumulatedCommission = 0; // this is the amount in ETH accumulated on marketplace wallet\n    uint256 public totalSales = 0;\n\n\n    struct Offer {\n        address assetAddress; // address of the token\n        uint256 tokenId; // the tokenId returned when calling \"createItem\"\n        address payable creator; // who creates the offer\n        uint256 price; // price of each token\n        bool isOnSale; // is on sale or not\n        bool isAuction; // is this offer is for an auction\n        uint256 idAuction; // the id of the auction\n    }\n    mapping(uint256 => Offer) public offers;\n\n    // Every time a token is put on sale, an offer is created. An offer can be a direct sale, an auction\n    // or a combination of both.\n    function createOffer(\n        address _assetAddress, // address of the token\n        uint256 _tokenId, // tokenId\n        bool _isDirectSale, // true if can be bought on a direct sale\n        bool _isAuction, // true if can be bought in an auction\n        uint256 _price, // price that if paid in a direct sale, transfers the NFT\n        uint256 _startPrice, // minimum price on the auction\n        uint256 _startTime, // time when the auction will start. Check the format with frontend\n        uint256 _duration // duration in seconds of the auction\n    ) public {\n        ERC721 asset = ERC721(_assetAddress);\n        require(asset.ownerOf(_tokenId) == msg.sender, \"Not the owner\");\n        require(\n            asset.getApproved(_tokenId) == address(this),\n            \"NFT not approved\"\n        );\n        // Could not be used to update an existing offer (#02)\n        Offer memory previous = offers[_tokenId];\n        require(\n            previous.isOnSale == false && previous.isAuction == false,\n            \"An active offer already exists\"\n        );\n\n        // First create the offer\n        Offer memory offer = Offer({\n            assetAddress: _assetAddress,\n            tokenId: _tokenId,\n            creator: payable(msg.sender),\n            price: _price,\n            isOnSale: _isDirectSale,\n            isAuction: _isAuction,\n            idAuction: 0\n        });\n        // only if the offer has the \"is_auction\" flag, add the auction to the list\n        if (_isAuction) {\n            offer.idAuction = createAuction(\n                _assetAddress,\n                _tokenId,\n                _startPrice,\n                _startTime,\n                _duration\n            );\n        }\n        offers[_tokenId] = offer;\n    }\n\n    // returns the auctionId from the offerId\n    function getAuctionId(uint256 _tokenId) public view returns (uint256) {\n        Offer memory offer = offers[_tokenId];\n        return offer.idAuction;\n    }\n\n    // this method returns the current date and time of the blockchain. Used also to check the contract is alive\n    function ahora() public view returns (uint256) {\n        return block.timestamp;\n    }\n\n    // Remove an auction from the offer that did not have previous bids. Beware could be a direct sale\n    function removeFromAuction(uint256 _tokenId) public {\n        Offer memory offer = offers[_tokenId];\n        require(msg.sender == offer.creator, \"You are not the owner\");\n        Auction memory auction = auctions[offer.tokenId];\n        require(auction.bidCount == 0, \"Bids existing\");\n        offer.isAuction = false;\n        offer.idAuction = 0;\n        offers[_tokenId] = offer;\n    }\n\n    // remove a direct sale from an offer. Beware that could be an auction for the token\n    function removeFromSale(uint256 _tokenId) public {\n        Offer memory offer = offers[_tokenId];\n        require(msg.sender == offer.creator, \"You are not the owner\");\n        offer.isOnSale = false;\n        offers[_tokenId] = offer;\n    }\n\n    // Changes the default commission. Only the owner of the marketplace can do that. In basic points\n    function setCommission(uint256 _commission) public onlyOwner {\n        require(_commission <= 5000, \"Commission too high\");\n        commission = _commission;\n    }\n\n    // called in a direct sale by the customer. Transfer the nft to the customer, the royalties (if any)\n    // to the token creator, the commission for the marketplace is keeped on the contract and the remaining\n    // funds are transferred to the token owner.\n    // is there is an auction open, the last bid amount is sent back to the last bidder\n    // After that, the offer is cleared.\n    function buy(uint256 _tokenId) external payable nonReentrant {\n        address buyer = msg.sender;\n        uint256 paidPrice = msg.value;\n\n        Offer memory offer = offers[_tokenId];\n        require(offer.isOnSale == true, \"NFT not in direct sale\");\n        uint256 price = offer.price;\n        require(paidPrice >= price, \"Price is not enough\");\n\n        //if there is a bid and the auction is closed but not claimed, give priority to claim\n        require(\n            !(offer.isAuction == true &&\n                isFinished(offer.idAuction) &&\n                auctions[offer.idAuction].bidCount > 0),\n            \"Claim asset from auction has priority\"\n        );\n\n        emit Claim(_tokenId, buyer);\n        PUML721 asset = PUML721(offer.assetAddress);\n        asset.safeTransferFrom(offer.creator, buyer, _tokenId);\n\n        // now, pay the amount - commission - royalties to the auction creator\n        address payable creatorNFT = payable(asset.getCreator(_tokenId));\n\n        uint256 commissionToPay = (paidPrice.mul(commission)) / 10000;\n        uint256 royaltiesToPay = 0;\n        if (creatorNFT != offer.creator) {\n            // It is a resale. Transfer royalties\n            royaltiesToPay =\n                (paidPrice.mul(asset.getRoyalties(_tokenId))) /\n                10000;\n            \n            (bool success, ) = creatorNFT.call{value: royaltiesToPay}(\"\");\n            require(success, \"Transfer failed.\");\n\n            emit Royalties(creatorNFT, royaltiesToPay);\n        }\n        uint256 amountToPay = paidPrice.sub(commissionToPay).sub(\n            royaltiesToPay\n        );\n\n        (bool success2, ) = offer.creator.call{value: amountToPay}(\"\");\n        require(success2, \"Transfer failed.\");\n        emit PaymentToOwner(\n            offer.creator,\n            amountToPay,\n            //     paidPrice,\n            commissionToPay,\n            royaltiesToPay,\n            amountToPay + ((paidPrice * commission) / 10000) // using safemath will trigger an error because of stack size\n        );\n\n        // is there is an auction open, we have to give back the last bid amount to the last bidder\n        if (offer.isAuction == true) {\n            Auction memory auction = auctions[offer.idAuction];\n            // #4. Only if there is at least a bid and the bid amount > 0, give it back to last bidder\n            if (auction.currentBidAmount != 0 && auction.bidCount > 0) {\n                // return funds to the previuos bidder\n                (bool success3, ) = auction.currentBidOwner.call{\n                    value: auction.currentBidAmount\n                }(\"\");\n                require(success3, \"Transfer failed.\");\n                emit ReturnBidFunds(\n                    offer.idAuction,\n                    auction.currentBidOwner,\n                    auction.currentBidAmount\n                );\n            }\n        }\n\n        accumulatedCommission = accumulatedCommission.add(commissionToPay);\n\n        offer.isAuction = false;\n        offer.isOnSale = false;\n        offers[_tokenId] = offer;\n\n        totalSales = totalSales.add(msg.value);\n    }\n\n    // Creates an auction for a token. It is linked to an offer\n    function createAuction(\n        address _assetAddress, // address of the PUML721 token\n        uint256 _assetId, // id of the NFT\n        uint256 _startPrice, // minimum price\n        uint256 _startTime, // time when the auction will start. Check with frontend because is unix time in seconds, not millisecs!\n        uint256 _duration // duration in seconds of the auction\n    ) private returns (uint256) {\n        if (_startTime == 0) {\n            _startTime = block.timestamp;\n        }\n\n        Auction memory auction = Auction({\n            creator: payable(msg.sender),\n            assetAddress: _assetAddress,\n            assetId: _assetId,\n            startTime: _startTime,\n            duration: _duration,\n            currentBidAmount: _startPrice,\n            currentBidOwner: payable(address(0)),\n            bidCount: 0\n        });\n        auctions.push(auction);\n        uint256 index = auctions.length.sub(1);\n\n        emit AuctionCreated(index, auction.creator, auction.assetAddress);\n\n        return index;\n    }\n\n    // At the end of the call, the amount is saved on the marketplace wallet and the previous bid amount is returned to old bidder\n    // except in the case of the first bid, as could exists a minimum price set by the creator as first bid.\n    function bid(uint256 auctionIndex) public payable nonReentrant {\n        Auction storage auction = auctions[auctionIndex];\n        require(auction.creator != address(0), \"Cannot bid. Error in auction\");\n        require(isActive(auctionIndex), \"Bid not active\");\n        require(msg.value > auction.currentBidAmount, \"Bid too low\");\n        // we got a better bid. Return funds to the previous best bidder\n        // and register the sender as `currentBidOwner`\n\n        // this check is for not transferring back funds on the first bid, as the fist bid is the minimum price set by the auction creator\n        // and the bid owner is address(0)\n        if (\n            auction.currentBidAmount != 0 &&\n            auction.currentBidOwner != address(0)\n        ) {\n            // return funds to the previuos bidder\n            (bool success, ) = auction.currentBidOwner.call{\n                value: auction.currentBidAmount\n            }(\"\");\n            require(success, \"Transfer failed.\");\n            emit ReturnBidFunds(\n                auctionIndex,\n                auction.currentBidOwner,\n                auction.currentBidAmount\n            );\n        }\n        // register new bidder\n        auction.currentBidAmount = msg.value;\n        auction.currentBidOwner = payable(msg.sender);\n        auction.bidCount = auction.bidCount.add(1);\n\n        emit AuctionBid(auctionIndex, msg.sender, msg.value);\n    }\n\n    function getTotalAuctions() public view returns (uint256) {\n        return auctions.length;\n    }\n\n    function isActive(uint256 _auctionIndex) public view returns (bool) {\n        return getStatus(_auctionIndex) == Status.active;\n    }\n\n    function isFinished(uint256 _auctionIndex) public view returns (bool) {\n        return getStatus(_auctionIndex) == Status.finished;\n    }\n\n    // The auctions did not be affected if the current time is 15 seconds wrong\n    // So, according to Consensys security advices, it is safe using block.timestamp\n    function getStatus(uint256 _auctionIndex) public view returns (Status) {\n        Auction storage auction = auctions[_auctionIndex];\n        if (block.timestamp < auction.startTime) {\n            return Status.pending;\n        } else if (block.timestamp < auction.startTime.add(auction.duration)) {\n            return Status.active;\n        } else {\n            return Status.finished;\n        }\n    }\n\n    // returns the end date of the auction, in unix time using seconds\n    function endDate(uint256 _auctionIndex) public view returns (uint256) {\n        Auction storage auction = auctions[_auctionIndex];\n        return auction.startTime.add(auction.duration);\n    }\n\n    // returns the user with the best bid until now on an auction\n    function getCurrentBidOwner(uint256 _auctionIndex)\n        public\n        view\n        returns (address)\n    {\n        return auctions[_auctionIndex].currentBidOwner;\n    }\n\n    // returns the amount in ETH of the best bid until now on an auction\n    function getCurrentBidAmount(uint256 _auctionIndex)\n        public\n        view\n        returns (uint256)\n    {\n        return auctions[_auctionIndex].currentBidAmount;\n    }\n\n    // returns the number of bids of an auction (0 by default)\n    function getBidCount(uint256 _auctionIndex) public view returns (uint256) {\n        return auctions[_auctionIndex].bidCount;\n    }\n\n    // returns the winner of an auction once the auction finished\n    function getWinner(uint256 auctionIndex) public view returns (address) {\n        require(isFinished(auctionIndex), \"Auction not finished yet\");\n        return auctions[auctionIndex].currentBidOwner;\n    }\n\n    // called when the auction is finished by the user who won the auction\n    // transfer the nft to the caller, the royalties (if any) to the nft creator\n    // the commission of the marketplace is calculated, and the remaining funds\n    // are transferred to the token owner\n    // After this, the offer is disabled\n    function claimAsset(uint256 auctionIndex) public {\n        address winner = getWinner(auctionIndex);\n        require(winner == msg.sender, \"You are not the winner of the auction\");\n        auctionTransferAsset(auctionIndex);\n    }\n\n    function automaticSetWinner(uint256 auctionIndex) public onlyOwner {\n        auctionTransferAsset(auctionIndex);\n    }\n\n    function auctionTransferAsset(uint256 auctionIndex) private nonReentrant {\n        require(isFinished(auctionIndex), \"The auction is still active\");\n        Auction storage auction = auctions[auctionIndex];\n\n        address winner = getWinner(auctionIndex);\n\n        // the token could be sold in direct sale or the owner cancelled the auction\n        Offer memory offer = offers[auction.assetId];\n        require(offer.isAuction == true, \"NFT not in auction\");\n\n        PUML721 asset = PUML721(auction.assetAddress);\n\n        // #3, check if the asset owner had removed their approval or the offer creator is not the token owner anymore.\n        require(\n            asset.getApproved(auction.assetId) == address(this),\n            \"NFT not approved\"\n        );\n        require(\n            asset.ownerOf(auction.assetId) == auction.creator,\n            \"Auction creator is not nft owner\"\n        );\n\n        asset.safeTransferFrom(auction.creator, winner, auction.assetId);\n\n        emit Claim(auctionIndex, winner);\n\n        // now, pay the amount - commission - royalties to the auction creator\n        address payable creatorNFT = payable(asset.getCreator(auction.assetId));\n        uint256 commissionToPay = (auction.currentBidAmount.mul(commission)) /\n            10000;\n        uint256 royaltiesToPay = 0;\n        if (creatorNFT != auction.creator) {\n            // It is a resale. Transfer royalties\n            royaltiesToPay =\n                (\n                    auction.currentBidAmount.mul(\n                        asset.getRoyalties(auction.assetId)\n                    )\n                ) /\n                10000;\n            creatorNFT.transfer(royaltiesToPay);\n            emit Royalties(creatorNFT, royaltiesToPay);\n        }\n        uint256 amountToPay = auction.currentBidAmount.sub(commissionToPay).sub(\n            royaltiesToPay\n        );\n\n        (bool success, ) = auction.creator.call{value: amountToPay}(\"\");\n        require(success, \"Transfer failed.\");\n        emit PaymentToOwner(\n            auction.creator,\n            amountToPay,\n            //  auction.currentBidAmount,\n            commissionToPay,\n            royaltiesToPay,\n            amountToPay + commissionToPay + royaltiesToPay\n        );\n\n        accumulatedCommission = accumulatedCommission.add(commissionToPay);\n\n        offer.isAuction = false;\n        offer.isOnSale = false;\n        offers[auction.assetId] = offer;\n\n        totalSales = totalSales.add(auction.currentBidAmount);\n    }\n\n    // This method is only callable by the marketplace owner and transfer funds from\n    // the marketplace to the caller.\n    // It us used to move the funds from the marketplace to the investors\n    function extractBalance() public nonReentrant onlyOwner {\n        address payable me = payable(msg.sender);\n        (bool success, ) = me.call{value: accumulatedCommission}(\"\");\n        require(success, \"Transfer failed.\");\n        accumulatedCommission = 0;\n    }\n}\n",
  "sourcePath": "/home/linux/ether/PUML721/contracts/Engine.sol",
  "compiler": {
    "name": "solc",
    "version": "0.8.4+commit.c7e474f2.Emscripten.clang"
  },
  "schemaVersion": "3.3.4",
  "updatedAt": "2021-08-02T10:56:44.355Z",
  "networkType": "ethereum",
  "devdoc": {
    "kind": "dev",
    "methods": {
      "owner()": {
        "details": "Returns the address of the current owner."
      },
      "renounceOwnership()": {
        "details": "Leaves the contract without owner. It will not be possible to call `onlyOwner` functions anymore. Can only be called by the current owner. NOTE: Renouncing ownership will leave the contract without an owner, thereby removing any functionality that is only available to the owner."
      },
      "transferOwnership(address)": {
        "details": "Transfers ownership of the contract to a new account (`newOwner`). Can only be called by the current owner."
      }
    },
    "version": 1
  },
  "userdoc": {
    "kind": "user",
    "methods": {},
    "version": 1
  }
}