{
  "contractName": "Engine",
  "abi": [
    {
      "inputs": [
        {
          "internalType": "address",
          "name": "_stakeAddress",
          "type": "address"
        }
      ],
      "stateMutability": "nonpayable",
      "type": "constructor"
    },
    {
      "anonymous": false,
      "inputs": [
        {
          "indexed": false,
          "internalType": "uint256",
          "name": "_index",
          "type": "uint256"
        },
        {
          "indexed": false,
          "internalType": "address",
          "name": "_bidder",
          "type": "address"
        },
        {
          "indexed": false,
          "internalType": "uint256",
          "name": "amount",
          "type": "uint256"
        }
      ],
      "name": "AuctionBid",
      "type": "event"
    },
    {
      "anonymous": false,
      "inputs": [
        {
          "indexed": false,
          "internalType": "uint256",
          "name": "_auctionId",
          "type": "uint256"
        },
        {
          "indexed": false,
          "internalType": "address",
          "name": "_creator",
          "type": "address"
        },
        {
          "indexed": false,
          "internalType": "uint256",
          "name": "_tokenId",
          "type": "uint256"
        },
        {
          "indexed": false,
          "internalType": "uint256",
          "name": "_startPrice",
          "type": "uint256"
        }
      ],
      "name": "AuctionCreated",
      "type": "event"
    },
    {
      "anonymous": false,
      "inputs": [
        {
          "indexed": false,
          "internalType": "uint256",
          "name": "_index",
          "type": "uint256"
        },
        {
          "indexed": false,
          "internalType": "address",
          "name": "buyer",
          "type": "address"
        },
        {
          "indexed": false,
          "internalType": "uint256",
          "name": "_amount",
          "type": "uint256"
        }
      ],
      "name": "Buy",
      "type": "event"
    },
    {
      "anonymous": false,
      "inputs": [
        {
          "indexed": false,
          "internalType": "uint256",
          "name": "auctionIndex",
          "type": "uint256"
        },
        {
          "indexed": false,
          "internalType": "address",
          "name": "claimer",
          "type": "address"
        }
      ],
      "name": "Claim",
      "type": "event"
    },
    {
      "anonymous": false,
      "inputs": [
        {
          "indexed": false,
          "internalType": "uint256",
          "name": "_tokenId",
          "type": "uint256"
        },
        {
          "indexed": false,
          "internalType": "address",
          "name": "_creator",
          "type": "address"
        },
        {
          "indexed": false,
          "internalType": "address",
          "name": "_asset",
          "type": "address"
        },
        {
          "indexed": false,
          "internalType": "uint256",
          "name": "numCopies",
          "type": "uint256"
        },
        {
          "indexed": false,
          "internalType": "uint256",
          "name": "amount",
          "type": "uint256"
        },
        {
          "indexed": false,
          "internalType": "bool",
          "name": "isSale",
          "type": "bool"
        }
      ],
      "name": "OfferCreated",
      "type": "event"
    },
    {
      "anonymous": false,
      "inputs": [
        {
          "indexed": true,
          "internalType": "address",
          "name": "previousOwner",
          "type": "address"
        },
        {
          "indexed": true,
          "internalType": "address",
          "name": "newOwner",
          "type": "address"
        }
      ],
      "name": "OwnershipTransferred",
      "type": "event"
    },
    {
      "anonymous": false,
      "inputs": [
        {
          "indexed": false,
          "internalType": "address",
          "name": "receiver",
          "type": "address"
        },
        {
          "indexed": false,
          "internalType": "uint256",
          "name": "amount",
          "type": "uint256"
        },
        {
          "indexed": false,
          "internalType": "uint256",
          "name": "commission",
          "type": "uint256"
        },
        {
          "indexed": false,
          "internalType": "uint256",
          "name": "royalties",
          "type": "uint256"
        },
        {
          "indexed": false,
          "internalType": "uint256",
          "name": "safetyCheckValue",
          "type": "uint256"
        }
      ],
      "name": "PaymentToOwner",
      "type": "event"
    },
    {
      "anonymous": false,
      "inputs": [
        {
          "indexed": false,
          "internalType": "uint256",
          "name": "_index",
          "type": "uint256"
        },
        {
          "indexed": false,
          "internalType": "address",
          "name": "_bidder",
          "type": "address"
        },
        {
          "indexed": false,
          "internalType": "uint256",
          "name": "amount",
          "type": "uint256"
        }
      ],
      "name": "ReturnBidFunds",
      "type": "event"
    },
    {
      "anonymous": false,
      "inputs": [
        {
          "indexed": false,
          "internalType": "address",
          "name": "receiver",
          "type": "address"
        },
        {
          "indexed": false,
          "internalType": "uint256",
          "name": "amount",
          "type": "uint256"
        }
      ],
      "name": "Royalties",
      "type": "event"
    },
    {
      "anonymous": false,
      "inputs": [
        {
          "indexed": true,
          "internalType": "address",
          "name": "user",
          "type": "address"
        },
        {
          "indexed": false,
          "internalType": "uint256",
          "name": "amount",
          "type": "uint256"
        },
        {
          "indexed": false,
          "internalType": "uint256[]",
          "name": "tokenIds",
          "type": "uint256[]"
        }
      ],
      "name": "StakedNFT",
      "type": "event"
    },
    {
      "anonymous": false,
      "inputs": [
        {
          "indexed": true,
          "internalType": "address",
          "name": "user",
          "type": "address"
        },
        {
          "indexed": false,
          "internalType": "uint256",
          "name": "amount",
          "type": "uint256"
        },
        {
          "indexed": false,
          "internalType": "uint256[]",
          "name": "tokenIds",
          "type": "uint256[]"
        }
      ],
      "name": "WithdrawnNFT",
      "type": "event"
    },
    {
      "inputs": [],
      "name": "accumulatedCommission",
      "outputs": [
        {
          "internalType": "uint256",
          "name": "",
          "type": "uint256"
        }
      ],
      "stateMutability": "view",
      "type": "function"
    },
    {
      "inputs": [
        {
          "internalType": "uint256",
          "name": "",
          "type": "uint256"
        }
      ],
      "name": "auctions",
      "outputs": [
        {
          "internalType": "address",
          "name": "assetAddress",
          "type": "address"
        },
        {
          "internalType": "uint256",
          "name": "assetId",
          "type": "uint256"
        },
        {
          "internalType": "address payable",
          "name": "creator",
          "type": "address"
        },
        {
          "internalType": "uint256",
          "name": "startTime",
          "type": "uint256"
        },
        {
          "internalType": "uint256",
          "name": "duration",
          "type": "uint256"
        },
        {
          "internalType": "uint256",
          "name": "currentBidAmount",
          "type": "uint256"
        },
        {
          "internalType": "address payable",
          "name": "currentBidOwner",
          "type": "address"
        },
        {
          "internalType": "uint256",
          "name": "bidCount",
          "type": "uint256"
        }
      ],
      "stateMutability": "view",
      "type": "function"
    },
    {
      "inputs": [],
      "name": "commission",
      "outputs": [
        {
          "internalType": "uint256",
          "name": "",
          "type": "uint256"
        }
      ],
      "stateMutability": "view",
      "type": "function"
    },
    {
      "inputs": [
        {
          "internalType": "uint256",
          "name": "",
          "type": "uint256"
        }
      ],
      "name": "offers",
      "outputs": [
        {
          "internalType": "address",
          "name": "assetAddress",
          "type": "address"
        },
        {
          "internalType": "uint256",
          "name": "tokenId",
          "type": "uint256"
        },
        {
          "internalType": "address payable",
          "name": "creator",
          "type": "address"
        },
        {
          "internalType": "uint256",
          "name": "price",
          "type": "uint256"
        },
        {
          "internalType": "bool",
          "name": "isOnSale",
          "type": "bool"
        },
        {
          "internalType": "bool",
          "name": "isAuction",
          "type": "bool"
        },
        {
          "internalType": "uint256",
          "name": "idAuction",
          "type": "uint256"
        }
      ],
      "stateMutability": "view",
      "type": "function"
    },
    {
      "inputs": [],
      "name": "owner",
      "outputs": [
        {
          "internalType": "address",
          "name": "",
          "type": "address"
        }
      ],
      "stateMutability": "view",
      "type": "function"
    },
    {
      "inputs": [],
      "name": "renounceOwnership",
      "outputs": [],
      "stateMutability": "nonpayable",
      "type": "function"
    },
    {
      "inputs": [],
      "name": "stakePUMLx",
      "outputs": [
        {
          "internalType": "contract PumlStake",
          "name": "",
          "type": "address"
        }
      ],
      "stateMutability": "view",
      "type": "function"
    },
    {
      "inputs": [],
      "name": "totalSales",
      "outputs": [
        {
          "internalType": "uint256",
          "name": "",
          "type": "uint256"
        }
      ],
      "stateMutability": "view",
      "type": "function"
    },
    {
      "inputs": [
        {
          "internalType": "address",
          "name": "newOwner",
          "type": "address"
        }
      ],
      "name": "transferOwnership",
      "outputs": [],
      "stateMutability": "nonpayable",
      "type": "function"
    },
    {
      "inputs": [
        {
          "internalType": "address",
          "name": "_assetAddress",
          "type": "address"
        },
        {
          "internalType": "uint256",
          "name": "_tokenId",
          "type": "uint256"
        },
        {
          "internalType": "bool",
          "name": "_isDirectSale",
          "type": "bool"
        },
        {
          "internalType": "bool",
          "name": "_isAuction",
          "type": "bool"
        },
        {
          "internalType": "uint256",
          "name": "_price",
          "type": "uint256"
        },
        {
          "internalType": "uint256",
          "name": "_startPrice",
          "type": "uint256"
        },
        {
          "internalType": "uint256",
          "name": "_startTime",
          "type": "uint256"
        },
        {
          "internalType": "uint256",
          "name": "_duration",
          "type": "uint256"
        }
      ],
      "name": "createOffer",
      "outputs": [],
      "stateMutability": "nonpayable",
      "type": "function"
    },
    {
      "inputs": [
        {
          "internalType": "uint256",
          "name": "_tokenId",
          "type": "uint256"
        }
      ],
      "name": "getAuctionId",
      "outputs": [
        {
          "internalType": "uint256",
          "name": "",
          "type": "uint256"
        }
      ],
      "stateMutability": "view",
      "type": "function"
    },
    {
      "inputs": [],
      "name": "ahora",
      "outputs": [
        {
          "internalType": "uint256",
          "name": "",
          "type": "uint256"
        }
      ],
      "stateMutability": "view",
      "type": "function"
    },
    {
      "inputs": [
        {
          "internalType": "uint256",
          "name": "_tokenId",
          "type": "uint256"
        }
      ],
      "name": "removeFromAuction",
      "outputs": [],
      "stateMutability": "nonpayable",
      "type": "function"
    },
    {
      "inputs": [
        {
          "internalType": "uint256",
          "name": "_tokenId",
          "type": "uint256"
        }
      ],
      "name": "removeFromSale",
      "outputs": [],
      "stateMutability": "nonpayable",
      "type": "function"
    },
    {
      "inputs": [
        {
          "internalType": "uint256",
          "name": "_commission",
          "type": "uint256"
        }
      ],
      "name": "setCommission",
      "outputs": [],
      "stateMutability": "nonpayable",
      "type": "function"
    },
    {
      "inputs": [
        {
          "internalType": "uint256",
          "name": "_tokenId",
          "type": "uint256"
        },
        {
          "internalType": "address",
          "name": "_buyerAddress",
          "type": "address"
        }
      ],
      "name": "buy",
      "outputs": [],
      "stateMutability": "payable",
      "type": "function"
    },
    {
      "inputs": [
        {
          "internalType": "uint256",
          "name": "auctionIndex",
          "type": "uint256"
        },
        {
          "internalType": "address",
          "name": "_bidderAddress",
          "type": "address"
        }
      ],
      "name": "bid",
      "outputs": [],
      "stateMutability": "payable",
      "type": "function"
    },
    {
      "inputs": [],
      "name": "getTotalAuctions",
      "outputs": [
        {
          "internalType": "uint256",
          "name": "",
          "type": "uint256"
        }
      ],
      "stateMutability": "view",
      "type": "function"
    },
    {
      "inputs": [
        {
          "internalType": "uint256",
          "name": "_auctionIndex",
          "type": "uint256"
        }
      ],
      "name": "isActive",
      "outputs": [
        {
          "internalType": "bool",
          "name": "",
          "type": "bool"
        }
      ],
      "stateMutability": "view",
      "type": "function"
    },
    {
      "inputs": [
        {
          "internalType": "uint256",
          "name": "_auctionIndex",
          "type": "uint256"
        }
      ],
      "name": "isFinished",
      "outputs": [
        {
          "internalType": "bool",
          "name": "",
          "type": "bool"
        }
      ],
      "stateMutability": "view",
      "type": "function"
    },
    {
      "inputs": [
        {
          "internalType": "uint256",
          "name": "_auctionIndex",
          "type": "uint256"
        }
      ],
      "name": "getStatus",
      "outputs": [
        {
          "internalType": "enum Engine.Status",
          "name": "",
          "type": "uint8"
        }
      ],
      "stateMutability": "view",
      "type": "function"
    },
    {
      "inputs": [
        {
          "internalType": "uint256",
          "name": "_auctionIndex",
          "type": "uint256"
        }
      ],
      "name": "endDate",
      "outputs": [
        {
          "internalType": "uint256",
          "name": "",
          "type": "uint256"
        }
      ],
      "stateMutability": "view",
      "type": "function"
    },
    {
      "inputs": [
        {
          "internalType": "uint256",
          "name": "_auctionIndex",
          "type": "uint256"
        }
      ],
      "name": "getCurrentBidOwner",
      "outputs": [
        {
          "internalType": "address",
          "name": "",
          "type": "address"
        }
      ],
      "stateMutability": "view",
      "type": "function"
    },
    {
      "inputs": [
        {
          "internalType": "uint256",
          "name": "_auctionIndex",
          "type": "uint256"
        }
      ],
      "name": "getCurrentBidAmount",
      "outputs": [
        {
          "internalType": "uint256",
          "name": "",
          "type": "uint256"
        }
      ],
      "stateMutability": "view",
      "type": "function"
    },
    {
      "inputs": [
        {
          "internalType": "uint256",
          "name": "_auctionIndex",
          "type": "uint256"
        }
      ],
      "name": "getBidCount",
      "outputs": [
        {
          "internalType": "uint256",
          "name": "",
          "type": "uint256"
        }
      ],
      "stateMutability": "view",
      "type": "function"
    },
    {
      "inputs": [
        {
          "internalType": "uint256",
          "name": "auctionIndex",
          "type": "uint256"
        }
      ],
      "name": "getWinner",
      "outputs": [
        {
          "internalType": "address",
          "name": "",
          "type": "address"
        }
      ],
      "stateMutability": "view",
      "type": "function"
    },
    {
      "inputs": [
        {
          "internalType": "uint256",
          "name": "auctionIndex",
          "type": "uint256"
        }
      ],
      "name": "closeAuction",
      "outputs": [],
      "stateMutability": "nonpayable",
      "type": "function"
    },
    {
      "inputs": [
        {
          "internalType": "uint256",
          "name": "auctionIndex",
          "type": "uint256"
        }
      ],
      "name": "automaticSetWinner",
      "outputs": [],
      "stateMutability": "nonpayable",
      "type": "function"
    },
    {
      "inputs": [
        {
          "internalType": "address",
          "name": "_assetAddress",
          "type": "address"
        },
        {
          "internalType": "address",
          "name": "_to",
          "type": "address"
        },
        {
          "internalType": "uint256[]",
          "name": "tokenIds",
          "type": "uint256[]"
        },
        {
          "internalType": "uint256",
          "name": "collect",
          "type": "uint256"
        }
      ],
      "name": "stakeNFT",
      "outputs": [],
      "stateMutability": "payable",
      "type": "function"
    },
    {
      "inputs": [
        {
          "internalType": "address",
          "name": "_assetAddress",
          "type": "address"
        },
        {
          "internalType": "address",
          "name": "_from",
          "type": "address"
        },
        {
          "internalType": "uint256[]",
          "name": "tokenIds",
          "type": "uint256[]"
        },
        {
          "internalType": "uint256",
          "name": "collect",
          "type": "uint256"
        }
      ],
      "name": "withdrawNFT",
      "outputs": [],
      "stateMutability": "payable",
      "type": "function"
    }
  ],
  "bytecode": "0x60806040526000600455600060055560006006553480156200002057600080fd5b5060405162005b9338038062005b93833981810160405281019062000046919062000198565b620000666200005a620000b560201b60201c565b620000bd60201b60201c565b6001808190555080600260006101000a81548173ffffffffffffffffffffffffffffffffffffffff021916908373ffffffffffffffffffffffffffffffffffffffff1602179055505062000212565b600033905090565b60008060009054906101000a900473ffffffffffffffffffffffffffffffffffffffff169050816000806101000a81548173ffffffffffffffffffffffffffffffffffffffff021916908373ffffffffffffffffffffffffffffffffffffffff1602179055508173ffffffffffffffffffffffffffffffffffffffff168173ffffffffffffffffffffffffffffffffffffffff167f8be0079c531659141344cd1fd0a4f28419497f9722a3daafe3b4186f6b6457e060405160405180910390a35050565b6000815190506200019281620001f8565b92915050565b600060208284031215620001ab57600080fd5b6000620001bb8482850162000181565b91505092915050565b6000620001d182620001d8565b9050919050565b600073ffffffffffffffffffffffffffffffffffffffff82169050919050565b6200020381620001c4565b81146200020f57600080fd5b50565b61597180620002226000396000f3fe6080604052600436106101cd5760003560e01c8063715018a6116100f75780638da5cb5b11610095578063e8ba650911610064578063e8ba6509146106a4578063ea4f10b5146106e1578063ecff99061461070c578063f2fde38b14610728576101cd565b80638da5cb5b146106075780639f04996d14610632578063ae6936731461064e578063e148919114610679576101cd565b80637deb6025116100d15780637deb60251461052e57806382afd23b1461054a57806386b46073146105875780638a72ea6a146105c4576101cd565b8063715018a6146104b1578063744d3411146104c85780637b5a96a614610505576101cd565b80633ef14cc81161016f578063571a26a01161013e578063571a26a0146103c85780635c622a0e1461040c5780636605ff66146104495780636975846a14610474576101cd565b80633ef14cc8146102fa5780634129b2c9146103255780634cac5b4b146103625780635552f6ca1461039f576101cd565b80632241091b116101ab5780632241091b14610254578063236ed8f31461027d5780632b866759146102a6578063355e6b43146102d1576101cd565b806304c3e49d146101d257806312f4ea2e146101ee5780631361a3b61461022b575b600080fd5b6101ec60048036038101906101e7919061453e565b610751565b005b3480156101fa57600080fd5b506102156004803603810190610210919061466b565b610ba3565b604051610222919061500d565b60405180910390f35b34801561023757600080fd5b50610252600480360381019061024d919061466b565b610cd3565b005b34801561026057600080fd5b5061027b6004803603810190610276919061466b565b610f7f565b005b34801561028957600080fd5b506102a4600480360381019061029f919061466b565b61140e565b005b3480156102b257600080fd5b506102bb61141a565b6040516102c8919061500d565b60405180910390f35b3480156102dd57600080fd5b506102f860048036038101906102f3919061466b565b611422565b005b34801561030657600080fd5b5061030f6114ed565b60405161031c919061500d565b60405180910390f35b34801561033157600080fd5b5061034c6004803603810190610347919061466b565b6114fa565b6040516103599190614aea565b60405180910390f35b34801561036e57600080fd5b506103896004803603810190610384919061466b565b6115b7565b604051610396919061500d565b60405180910390f35b3480156103ab57600080fd5b506103c660048036038101906103c1919061466b565b611627565b005b3480156103d457600080fd5b506103ef60048036038101906103ea919061466b565b6116af565b604051610403989796959493929190614c87565b60405180910390f35b34801561041857600080fd5b50610433600480360381019061042e919061466b565b611767565b6040516104409190614d72565b60405180910390f35b34801561045557600080fd5b5061045e611801565b60405161046b919061500d565b60405180910390f35b34801561048057600080fd5b5061049b6004803603810190610496919061466b565b611807565b6040516104a8919061500d565b60405180910390f35b3480156104bd57600080fd5b506104c661185c565b005b3480156104d457600080fd5b506104ef60048036038101906104ea919061466b565b6118e4565b6040516104fc919061500d565b60405180910390f35b34801561051157600080fd5b5061052c600480360381019061052791906145b9565b611939565b005b610548600480360381019061054391906146bd565b611e82565b005b34801561055657600080fd5b50610571600480360381019061056c919061466b565b612a63565b60405161057e9190614d3c565b60405180910390f35b34801561059357600080fd5b506105ae60048036038101906105a9919061466b565b612ae8565b6040516105bb9190614aea565b60405180910390f35b3480156105d057600080fd5b506105eb60048036038101906105e6919061466b565b612b5d565b6040516105fe9796959493929190614c18565b60405180910390f35b34801561061357600080fd5b5061061c612bf9565b6040516106299190614aea565b60405180910390f35b61064c600480360381019061064791906146bd565b612c22565b005b34801561065a57600080fd5b50610663613073565b604051610670919061500d565b60405180910390f35b34801561068557600080fd5b5061068e613079565b60405161069b919061500d565b60405180910390f35b3480156106b057600080fd5b506106cb60048036038101906106c6919061466b565b61307f565b6040516106d89190614d3c565b60405180910390f35b3480156106ed57600080fd5b506106f6613103565b6040516107039190614d57565b60405180910390f35b6107266004803603810190610721919061453e565b613129565b005b34801561073457600080fd5b5061074f600480360381019061074a91906144ec565b613422565b005b60026001541415610797576040517f08c379a000000000000000000000000000000000000000000000000000000000815260040161078e90614fed565b60405180910390fd5b600260018190555060008085905060005b8451811015610aab573373ffffffffffffffffffffffffffffffffffffffff16600260009054906101000a900473ffffffffffffffffffffffffffffffffffffffff1673ffffffffffffffffffffffffffffffffffffffff16633a42b05387848151811061083f577f4e487b7100000000000000000000000000000000000000000000000000000000600052603260045260246000fd5b60200260200101516040518263ffffffff1660e01b8152600401610863919061500d565b60206040518083038186803b15801561087b57600080fd5b505afa15801561088f573d6000803e3d6000fd5b505050506040513d601f19601f820116820180604052508101906108b39190614515565b73ffffffffffffffffffffffffffffffffffffffff1614610909576040517f08c379a000000000000000000000000000000000000000000000000000000000815260040161090090614ded565b60405180910390fd5b8173ffffffffffffffffffffffffffffffffffffffff166342842e0e8733888581518110610960577f4e487b7100000000000000000000000000000000000000000000000000000000600052603260045260246000fd5b60200260200101516040518463ffffffff1660e01b815260040161098693929190614bb8565b600060405180830381600087803b1580156109a057600080fd5b505af11580156109b4573d6000803e3d6000fd5b505050506001836109c5919061523b565b9250600260009054906101000a900473ffffffffffffffffffffffffffffffffffffffff1673ffffffffffffffffffffffffffffffffffffffff1663bcb4fa42868381518110610a3e577f4e487b7100000000000000000000000000000000000000000000000000000000600052603260045260246000fd5b602002602001015160006040518363ffffffff1660e01b8152600401610a65929190615028565b600060405180830381600087803b158015610a7f57600080fd5b505af1158015610a93573d6000803e3d6000fd5b50505050600181610aa4919061523b565b90506107a8565b50610ab58261351a565b600260009054906101000a900473ffffffffffffffffffffffffffffffffffffffff1673ffffffffffffffffffffffffffffffffffffffff16631aa24d6233856040518363ffffffff1660e01b8152600401610b12929190614bef565b600060405180830381600087803b158015610b2c57600080fd5b505af1158015610b40573d6000803e3d6000fd5b505050503373ffffffffffffffffffffffffffffffffffffffff167f62ce610c288a7f8a9a6715f35d395ec0702a9719aa06b15bb5e6869d7d19a9528386604051610b8c929190615165565b60405180910390a250506001808190555050505050565b600080600760008481526020019081526020016000206040518060e00160405290816000820160009054906101000a900473ffffffffffffffffffffffffffffffffffffffff1673ffffffffffffffffffffffffffffffffffffffff1673ffffffffffffffffffffffffffffffffffffffff168152602001600182015481526020016002820160009054906101000a900473ffffffffffffffffffffffffffffffffffffffff1673ffffffffffffffffffffffffffffffffffffffff1673ffffffffffffffffffffffffffffffffffffffff168152602001600382015481526020016004820160009054906101000a900460ff161515151581526020016004820160019054906101000a900460ff1615151515815260200160058201548152505090508060c00151915050919050565b6000600760008381526020019081526020016000206040518060e00160405290816000820160009054906101000a900473ffffffffffffffffffffffffffffffffffffffff1673ffffffffffffffffffffffffffffffffffffffff1673ffffffffffffffffffffffffffffffffffffffff168152602001600182015481526020016002820160009054906101000a900473ffffffffffffffffffffffffffffffffffffffff1673ffffffffffffffffffffffffffffffffffffffff1673ffffffffffffffffffffffffffffffffffffffff168152602001600382015481526020016004820160009054906101000a900460ff161515151581526020016004820160019054906101000a900460ff161515151581526020016005820154815250509050806040015173ffffffffffffffffffffffffffffffffffffffff163373ffffffffffffffffffffffffffffffffffffffff1614610e67576040517f08c379a0000000000000000000000000000000000000000000000000000000008152600401610e5e90614e8d565b60405180910390fd5b6000816080019015159081151581525050806007600084815260200190815260200160002060008201518160000160006101000a81548173ffffffffffffffffffffffffffffffffffffffff021916908373ffffffffffffffffffffffffffffffffffffffff1602179055506020820151816001015560408201518160020160006101000a81548173ffffffffffffffffffffffffffffffffffffffff021916908373ffffffffffffffffffffffffffffffffffffffff1602179055506060820151816003015560808201518160040160006101000a81548160ff02191690831515021790555060a08201518160040160016101000a81548160ff02191690831515021790555060c082015181600501559050505050565b6000600760008381526020019081526020016000206040518060e00160405290816000820160009054906101000a900473ffffffffffffffffffffffffffffffffffffffff1673ffffffffffffffffffffffffffffffffffffffff1673ffffffffffffffffffffffffffffffffffffffff168152602001600182015481526020016002820160009054906101000a900473ffffffffffffffffffffffffffffffffffffffff1673ffffffffffffffffffffffffffffffffffffffff1673ffffffffffffffffffffffffffffffffffffffff168152602001600382015481526020016004820160009054906101000a900460ff161515151581526020016004820160019054906101000a900460ff161515151581526020016005820154815250509050806040015173ffffffffffffffffffffffffffffffffffffffff163373ffffffffffffffffffffffffffffffffffffffff1614611113576040517f08c379a000000000000000000000000000000000000000000000000000000000815260040161110a90614e8d565b60405180910390fd5b600060038260c0015181548110611153577f4e487b7100000000000000000000000000000000000000000000000000000000600052603260045260246000fd5b9060005260206000209060080201604051806101000160405290816000820160009054906101000a900473ffffffffffffffffffffffffffffffffffffffff1673ffffffffffffffffffffffffffffffffffffffff1673ffffffffffffffffffffffffffffffffffffffff168152602001600182015481526020016002820160009054906101000a900473ffffffffffffffffffffffffffffffffffffffff1673ffffffffffffffffffffffffffffffffffffffff1673ffffffffffffffffffffffffffffffffffffffff1681526020016003820154815260200160048201548152602001600582015481526020016006820160009054906101000a900473ffffffffffffffffffffffffffffffffffffffff1673ffffffffffffffffffffffffffffffffffffffff1673ffffffffffffffffffffffffffffffffffffffff168152602001600782015481525050905060008160e00151146112ea576040517f08c379a00000000000000000000000000000000000000000000000000000000081526004016112e190614e2d565b60405180910390fd5b60008260a001901515908115158152505060008260c0018181525050816007600085815260200190815260200160002060008201518160000160006101000a81548173ffffffffffffffffffffffffffffffffffffffff021916908373ffffffffffffffffffffffffffffffffffffffff1602179055506020820151816001015560408201518160020160006101000a81548173ffffffffffffffffffffffffffffffffffffffff021916908373ffffffffffffffffffffffffffffffffffffffff1602179055506060820151816003015560808201518160040160006101000a81548160ff02191690831515021790555060a08201518160040160016101000a81548160ff02191690831515021790555060c08201518160050155905050505050565b611417816135af565b50565b600042905090565b61142a614019565b73ffffffffffffffffffffffffffffffffffffffff16611448612bf9565b73ffffffffffffffffffffffffffffffffffffffff161461149e576040517f08c379a000000000000000000000000000000000000000000000000000000000815260040161149590614f2d565b60405180910390fd5b6113888111156114e3576040517f08c379a00000000000000000000000000000000000000000000000000000000081526004016114da90614f8d565b60405180910390fd5b8060048190555050565b6000600380549050905090565b60006115058261307f565b611544576040517f08c379a000000000000000000000000000000000000000000000000000000000815260040161153b90614dad565b60405180910390fd5b6003828154811061157e577f4e487b7100000000000000000000000000000000000000000000000000000000600052603260045260246000fd5b906000526020600020906008020160060160009054906101000a900473ffffffffffffffffffffffffffffffffffffffff169050919050565b600080600383815481106115f4577f4e487b7100000000000000000000000000000000000000000000000000000000600052603260045260246000fd5b9060005260206000209060080201905061161f8160040154826003015461402190919063ffffffff16565b915050919050565b61162f614019565b73ffffffffffffffffffffffffffffffffffffffff1661164d612bf9565b73ffffffffffffffffffffffffffffffffffffffff16146116a3576040517f08c379a000000000000000000000000000000000000000000000000000000000815260040161169a90614f2d565b60405180910390fd5b6116ac816135af565b50565b600381815481106116bf57600080fd5b90600052602060002090600802016000915090508060000160009054906101000a900473ffffffffffffffffffffffffffffffffffffffff16908060010154908060020160009054906101000a900473ffffffffffffffffffffffffffffffffffffffff16908060030154908060040154908060050154908060060160009054906101000a900473ffffffffffffffffffffffffffffffffffffffff16908060070154905088565b600080600383815481106117a4577f4e487b7100000000000000000000000000000000000000000000000000000000600052603260045260246000fd5b9060005260206000209060080201905080600301544210156117ca5760009150506117fc565b6117e58160040154826003015461402190919063ffffffff16565b4210156117f65760019150506117fc565b60029150505b919050565b60065481565b600060038281548110611843577f4e487b7100000000000000000000000000000000000000000000000000000000600052603260045260246000fd5b9060005260206000209060080201600501549050919050565b611864614019565b73ffffffffffffffffffffffffffffffffffffffff16611882612bf9565b73ffffffffffffffffffffffffffffffffffffffff16146118d8576040517f08c379a00000000000000000000000000000000000000000000000000000000081526004016118cf90614f2d565b60405180910390fd5b6118e26000614037565b565b600060038281548110611920577f4e487b7100000000000000000000000000000000000000000000000000000000600052603260045260246000fd5b9060005260206000209060080201600701549050919050565b60008890503373ffffffffffffffffffffffffffffffffffffffff168173ffffffffffffffffffffffffffffffffffffffff16636352211e8a6040518263ffffffff1660e01b815260040161198e919061500d565b60206040518083038186803b1580156119a657600080fd5b505afa1580156119ba573d6000803e3d6000fd5b505050506040513d601f19601f820116820180604052508101906119de9190614515565b73ffffffffffffffffffffffffffffffffffffffff1614611a34576040517f08c379a0000000000000000000000000000000000000000000000000000000008152600401611a2b90614eed565b60405180910390fd5b3073ffffffffffffffffffffffffffffffffffffffff168173ffffffffffffffffffffffffffffffffffffffff1663081812fc8a6040518263ffffffff1660e01b8152600401611a84919061500d565b60206040518083038186803b158015611a9c57600080fd5b505afa158015611ab0573d6000803e3d6000fd5b505050506040513d601f19601f82011682018060405250810190611ad49190614515565b73ffffffffffffffffffffffffffffffffffffffff1614611b2a576040517f08c379a0000000000000000000000000000000000000000000000000000000008152600401611b2190614fcd565b60405180910390fd5b6000600760008a81526020019081526020016000206040518060e00160405290816000820160009054906101000a900473ffffffffffffffffffffffffffffffffffffffff1673ffffffffffffffffffffffffffffffffffffffff1673ffffffffffffffffffffffffffffffffffffffff168152602001600182015481526020016002820160009054906101000a900473ffffffffffffffffffffffffffffffffffffffff1673ffffffffffffffffffffffffffffffffffffffff1673ffffffffffffffffffffffffffffffffffffffff168152602001600382015481526020016004820160009054906101000a900460ff161515151581526020016004820160019054906101000a900460ff1615151515815260200160058201548152505090506000151581608001511515148015611c6c5750600015158160a001511515145b611cab576040517f08c379a0000000000000000000000000000000000000000000000000000000008152600401611ca290614ecd565b60405180910390fd5b60006040518060e001604052808c73ffffffffffffffffffffffffffffffffffffffff1681526020018b81526020013373ffffffffffffffffffffffffffffffffffffffff1681526020018881526020018a151581526020018915158152602001600081525090508715611d3057611d268b8b8888886140fb565b8160c00181815250505b80600760008c815260200190815260200160002060008201518160000160006101000a81548173ffffffffffffffffffffffffffffffffffffffff021916908373ffffffffffffffffffffffffffffffffffffffff1602179055506020820151816001015560408201518160020160006101000a81548173ffffffffffffffffffffffffffffffffffffffff021916908373ffffffffffffffffffffffffffffffffffffffff1602179055506060820151816003015560808201518160040160006101000a81548160ff02191690831515021790555060a08201518160040160016101000a81548160ff02191690831515021790555060c082015181600501559050507fa9b9b286d6a0d36eec10c565ed38fc4794a2f554baf7b6187e53e71e600f0aa98a338d60018b8e604051611e6d969594939291906150cd565b60405180910390a15050505050505050505050565b60026001541415611ec8576040517f08c379a0000000000000000000000000000000000000000000000000000000008152600401611ebf90614fed565b60405180910390fd5b600260018190555060003390506000349050600073ffffffffffffffffffffffffffffffffffffffff168373ffffffffffffffffffffffffffffffffffffffff1614611f12578291505b6000600760008681526020019081526020016000206040518060e00160405290816000820160009054906101000a900473ffffffffffffffffffffffffffffffffffffffff1673ffffffffffffffffffffffffffffffffffffffff1673ffffffffffffffffffffffffffffffffffffffff168152602001600182015481526020016002820160009054906101000a900473ffffffffffffffffffffffffffffffffffffffff1673ffffffffffffffffffffffffffffffffffffffff1673ffffffffffffffffffffffffffffffffffffffff168152602001600382015481526020016004820160009054906101000a900460ff161515151581526020016004820160019054906101000a900460ff16151515158152602001600582015481525050905060011515816080015115151461207f576040517f08c379a000000000000000000000000000000000000000000000000000000000815260040161207690614f6d565b60405180910390fd5b600081606001519050808310156120cb576040517f08c379a00000000000000000000000000000000000000000000000000000000081526004016120c290614d8d565b60405180910390fd5b600115158260a0015115151480156120ec57506120eb8260c0015161307f565b5b80156121475750600060038360c0015181548110612133577f4e487b7100000000000000000000000000000000000000000000000000000000600052603260045260246000fd5b906000526020600020906008020160070154115b15612187576040517f08c379a000000000000000000000000000000000000000000000000000000000815260040161217e90614f0d565b60405180910390fd5b7f35538759d80c1fd7bb450a0d05601db5a99fa8b5d073a07c847a9fd61029b10786856040516121b8929190615028565b60405180910390a16000826000015190508073ffffffffffffffffffffffffffffffffffffffff166342842e0e8460400151878a6040518463ffffffff1660e01b815260040161220a93929190614b05565b600060405180830381600087803b15801561222457600080fd5b505af1158015612238573d6000803e3d6000fd5b5050505060008173ffffffffffffffffffffffffffffffffffffffff1663d48e638a896040518263ffffffff1660e01b8152600401612277919061500d565b60206040518083038186803b15801561228f57600080fd5b505afa1580156122a3573d6000803e3d6000fd5b505050506040513d601f19601f820116820180604052508101906122c79190614515565b905060006127106122e36004548861432c90919063ffffffff16565b6122ed9190615291565b90506000856040015173ffffffffffffffffffffffffffffffffffffffff168373ffffffffffffffffffffffffffffffffffffffff16146124b9576127106123c68573ffffffffffffffffffffffffffffffffffffffff1663bb3bafd68d6040518263ffffffff1660e01b8152600401612367919061500d565b60206040518083038186803b15801561237f57600080fd5b505afa158015612393573d6000803e3d6000fd5b505050506040513d601f19601f820116820180604052508101906123b79190614694565b8961432c90919063ffffffff16565b6123d09190615291565b905060008373ffffffffffffffffffffffffffffffffffffffff16826040516123f890614ad5565b60006040518083038185875af1925050503d8060008114612435576040519150601f19603f3d011682016040523d82523d6000602084013e61243a565b606091505b505090508061247e576040517f08c379a000000000000000000000000000000000000000000000000000000000815260040161247590614fad565b60405180910390fd5b7f54b960faf8b038c33ba9912fdb9ac1e8e0096c5f327d1c89e62b5d9c5357ddb684836040516124af929190614b3c565b60405180910390a1505b60006124e0826124d2858b61434290919063ffffffff16565b61434290919063ffffffff16565b90506000876040015173ffffffffffffffffffffffffffffffffffffffff168260405161250c90614ad5565b60006040518083038185875af1925050503d8060008114612549576040519150601f19603f3d011682016040523d82523d6000602084013e61254e565b606091505b5050905080612592576040517f08c379a000000000000000000000000000000000000000000000000000000000815260040161258990614fad565b60405180910390fd5b7f9a37aa02cc986a4a0c2d22af3dcdb9db27c178f7feed43e7037c783b55ed91ba88604001518386866127106004548f6125cc91906152c2565b6125d69190615291565b876125e1919061523b565b6040516125f2959493929190614b65565b60405180910390a1600115158860a00151151514156128b857600060038960c001518154811061264b577f4e487b7100000000000000000000000000000000000000000000000000000000600052603260045260246000fd5b9060005260206000209060080201604051806101000160405290816000820160009054906101000a900473ffffffffffffffffffffffffffffffffffffffff1673ffffffffffffffffffffffffffffffffffffffff1673ffffffffffffffffffffffffffffffffffffffff168152602001600182015481526020016002820160009054906101000a900473ffffffffffffffffffffffffffffffffffffffff1673ffffffffffffffffffffffffffffffffffffffff1673ffffffffffffffffffffffffffffffffffffffff1681526020016003820154815260200160048201548152602001600582015481526020016006820160009054906101000a900473ffffffffffffffffffffffffffffffffffffffff1673ffffffffffffffffffffffffffffffffffffffff1673ffffffffffffffffffffffffffffffffffffffff168152602001600782015481525050905060008160a00151141580156127b4575060008160e00151115b156128b65760008160c0015173ffffffffffffffffffffffffffffffffffffffff168260a001516040516127e790614ad5565b60006040518083038185875af1925050503d8060008114612824576040519150601f19603f3d011682016040523d82523d6000602084013e612829565b606091505b505090508061286d576040517f08c379a000000000000000000000000000000000000000000000000000000000815260040161286490614fad565b60405180910390fd5b7f972fd66eadedfb87beff023a37f4d8c6a91fdd147fa0d3c036e0c6c5a0cdc7958a60c001518360c001518460a001516040516128ac93929190615051565b60405180910390a1505b505b7f3b599f6217e39be59216b60e543ce0d4c7d534fe64dd9d962334924e7819894e8c8b346040516128eb9392919061512e565b60405180910390a16129088460055461402190919063ffffffff16565b60058190555060008860a0019015159081151581525050600088608001901515908115158152505087600760008e815260200190815260200160002060008201518160000160006101000a81548173ffffffffffffffffffffffffffffffffffffffff021916908373ffffffffffffffffffffffffffffffffffffffff1602179055506020820151816001015560408201518160020160006101000a81548173ffffffffffffffffffffffffffffffffffffffff021916908373ffffffffffffffffffffffffffffffffffffffff1602179055506060820151816003015560808201518160040160006101000a81548160ff02191690831515021790555060a08201518160040160016101000a81548160ff02191690831515021790555060c08201518160050155905050612a483460065461402190919063ffffffff16565b60068190555050505050505050505050600180819055505050565b600060016002811115612a9f577f4e487b7100000000000000000000000000000000000000000000000000000000600052602160045260246000fd5b612aa883611767565b6002811115612ae0577f4e487b7100000000000000000000000000000000000000000000000000000000600052602160045260246000fd5b149050919050565b600060038281548110612b24577f4e487b7100000000000000000000000000000000000000000000000000000000600052603260045260246000fd5b906000526020600020906008020160060160009054906101000a900473ffffffffffffffffffffffffffffffffffffffff169050919050565b60076020528060005260406000206000915090508060000160009054906101000a900473ffffffffffffffffffffffffffffffffffffffff16908060010154908060020160009054906101000a900473ffffffffffffffffffffffffffffffffffffffff16908060030154908060040160009054906101000a900460ff16908060040160019054906101000a900460ff16908060050154905087565b60008060009054906101000a900473ffffffffffffffffffffffffffffffffffffffff16905090565b60026001541415612c68576040517f08c379a0000000000000000000000000000000000000000000000000000000008152600401612c5f90614fed565b60405180910390fd5b60026001819055506000339050600073ffffffffffffffffffffffffffffffffffffffff168273ffffffffffffffffffffffffffffffffffffffff1614612cad578190505b600060038481548110612ce9577f4e487b7100000000000000000000000000000000000000000000000000000000600052603260045260246000fd5b90600052602060002090600802019050600073ffffffffffffffffffffffffffffffffffffffff168160020160009054906101000a900473ffffffffffffffffffffffffffffffffffffffff1673ffffffffffffffffffffffffffffffffffffffff161415612d8d576040517f08c379a0000000000000000000000000000000000000000000000000000000008152600401612d8490614ead565b60405180910390fd5b612d9684612a63565b612dd5576040517f08c379a0000000000000000000000000000000000000000000000000000000008152600401612dcc90614e4d565b60405180910390fd5b80600501543411612e1b576040517f08c379a0000000000000000000000000000000000000000000000000000000008152600401612e1290614dcd565b60405180910390fd5b6000816005015414158015612e815750600073ffffffffffffffffffffffffffffffffffffffff168160060160009054906101000a900473ffffffffffffffffffffffffffffffffffffffff1673ffffffffffffffffffffffffffffffffffffffff1614155b15612fbf5760008160060160009054906101000a900473ffffffffffffffffffffffffffffffffffffffff1673ffffffffffffffffffffffffffffffffffffffff168260050154604051612ed490614ad5565b60006040518083038185875af1925050503d8060008114612f11576040519150601f19603f3d011682016040523d82523d6000602084013e612f16565b606091505b5050905080612f5a576040517f08c379a0000000000000000000000000000000000000000000000000000000008152600401612f5190614fad565b60405180910390fd5b7f972fd66eadedfb87beff023a37f4d8c6a91fdd147fa0d3c036e0c6c5a0cdc795858360060160009054906101000a900473ffffffffffffffffffffffffffffffffffffffff168460050154604051612fb593929190615051565b60405180910390a1505b348160050181905550818160060160006101000a81548173ffffffffffffffffffffffffffffffffffffffff021916908373ffffffffffffffffffffffffffffffffffffffff1602179055506130236001826007015461402190919063ffffffff16565b81600701819055507fb8d756f2d1da4663767eb4d559780ace84f2f65a421a60ddcb47e8b2e5d2fd2684833460405161305e9392919061512e565b60405180910390a15050600180819055505050565b60055481565b60045481565b60006002808111156130ba577f4e487b7100000000000000000000000000000000000000000000000000000000600052602160045260246000fd5b6130c383611767565b60028111156130fb577f4e487b7100000000000000000000000000000000000000000000000000000000600052602160045260246000fd5b149050919050565b600260009054906101000a900473ffffffffffffffffffffffffffffffffffffffff1681565b6002600154141561316f576040517f08c379a000000000000000000000000000000000000000000000000000000000815260040161316690614fed565b60405180910390fd5b600260018190555060008085905060005b845181101561332a578173ffffffffffffffffffffffffffffffffffffffff166342842e0e33888885815181106131e0577f4e487b7100000000000000000000000000000000000000000000000000000000600052603260045260246000fd5b60200260200101516040518463ffffffff1660e01b815260040161320693929190614bb8565b600060405180830381600087803b15801561322057600080fd5b505af1158015613234573d6000803e3d6000fd5b50505050600183613245919061523b565b9250600260009054906101000a900473ffffffffffffffffffffffffffffffffffffffff1673ffffffffffffffffffffffffffffffffffffffff1663bcb4fa428683815181106132be577f4e487b7100000000000000000000000000000000000000000000000000000000600052603260045260246000fd5b6020026020010151336040518363ffffffff1660e01b81526004016132e4929190615028565b600060405180830381600087803b1580156132fe57600080fd5b505af1158015613312573d6000803e3d6000fd5b50505050600181613323919061523b565b9050613180565b5061333482614358565b600260009054906101000a900473ffffffffffffffffffffffffffffffffffffffff1673ffffffffffffffffffffffffffffffffffffffff16631aa24d6233856040518363ffffffff1660e01b8152600401613391929190614bef565b600060405180830381600087803b1580156133ab57600080fd5b505af11580156133bf573d6000803e3d6000fd5b505050503373ffffffffffffffffffffffffffffffffffffffff167fdeaad30c9e3118ba3b39651e76dd3db3536ec6872639078cfe472ab46316afae838660405161340b929190615165565b60405180910390a250506001808190555050505050565b61342a614019565b73ffffffffffffffffffffffffffffffffffffffff16613448612bf9565b73ffffffffffffffffffffffffffffffffffffffff161461349e576040517f08c379a000000000000000000000000000000000000000000000000000000000815260040161349590614f2d565b60405180910390fd5b600073ffffffffffffffffffffffffffffffffffffffff168173ffffffffffffffffffffffffffffffffffffffff16141561350e576040517f08c379a000000000000000000000000000000000000000000000000000000000815260040161350590614e0d565b60405180910390fd5b61351781614037565b50565b600260009054906101000a900473ffffffffffffffffffffffffffffffffffffffff1673ffffffffffffffffffffffffffffffffffffffff16635db8de19338360006040518463ffffffff1660e01b815260040161357a93929190614d05565b600060405180830381600087803b15801561359457600080fd5b505af11580156135a8573d6000803e3d6000fd5b5050505050565b600260015414156135f5576040517f08c379a00000000000000000000000000000000000000000000000000000000081526004016135ec90614fed565b60405180910390fd5b60026001819055506000613608826114fa565b9050600060038381548110613646577f4e487b7100000000000000000000000000000000000000000000000000000000600052603260045260246000fd5b90600052602060002090600802019050600060076000836001015481526020019081526020016000206040518060e00160405290816000820160009054906101000a900473ffffffffffffffffffffffffffffffffffffffff1673ffffffffffffffffffffffffffffffffffffffff1673ffffffffffffffffffffffffffffffffffffffff168152602001600182015481526020016002820160009054906101000a900473ffffffffffffffffffffffffffffffffffffffff1673ffffffffffffffffffffffffffffffffffffffff1673ffffffffffffffffffffffffffffffffffffffff168152602001600382015481526020016004820160009054906101000a900460ff161515151581526020016004820160019054906101000a900460ff161515151581526020016005820154815250509050600115158160a001511515146137c7576040517f08c379a00000000000000000000000000000000000000000000000000000000081526004016137be90614f4d565b60405180910390fd5b600082600701541115613ee35760008260000160009054906101000a900473ffffffffffffffffffffffffffffffffffffffff1690503073ffffffffffffffffffffffffffffffffffffffff168173ffffffffffffffffffffffffffffffffffffffff1663081812fc85600101546040518263ffffffff1660e01b8152600401613851919061500d565b60206040518083038186803b15801561386957600080fd5b505afa15801561387d573d6000803e3d6000fd5b505050506040513d601f19601f820116820180604052508101906138a19190614515565b73ffffffffffffffffffffffffffffffffffffffff16146138f7576040517f08c379a00000000000000000000000000000000000000000000000000000000081526004016138ee90614fcd565b60405180910390fd5b8260020160009054906101000a900473ffffffffffffffffffffffffffffffffffffffff1673ffffffffffffffffffffffffffffffffffffffff168173ffffffffffffffffffffffffffffffffffffffff16636352211e85600101546040518263ffffffff1660e01b815260040161396f919061500d565b60206040518083038186803b15801561398757600080fd5b505afa15801561399b573d6000803e3d6000fd5b505050506040513d601f19601f820116820180604052508101906139bf9190614515565b73ffffffffffffffffffffffffffffffffffffffff1614613a15576040517f08c379a0000000000000000000000000000000000000000000000000000000008152600401613a0c90614e6d565b60405180910390fd5b8073ffffffffffffffffffffffffffffffffffffffff166342842e0e8460020160009054906101000a900473ffffffffffffffffffffffffffffffffffffffff168686600101546040518463ffffffff1660e01b8152600401613a7a93929190614b05565b600060405180830381600087803b158015613a9457600080fd5b505af1158015613aa8573d6000803e3d6000fd5b505050507f35538759d80c1fd7bb450a0d05601db5a99fa8b5d073a07c847a9fd61029b1078585604051613add929190615028565b60405180910390a160008173ffffffffffffffffffffffffffffffffffffffff1663d48e638a85600101546040518263ffffffff1660e01b8152600401613b24919061500d565b60206040518083038186803b158015613b3c57600080fd5b505afa158015613b50573d6000803e3d6000fd5b505050506040513d601f19601f82011682018060405250810190613b749190614515565b90506000612710613b94600454876005015461432c90919063ffffffff16565b613b9e9190615291565b905060008560020160009054906101000a900473ffffffffffffffffffffffffffffffffffffffff1673ffffffffffffffffffffffffffffffffffffffff168373ffffffffffffffffffffffffffffffffffffffff1614613d2c57612710613c9f8573ffffffffffffffffffffffffffffffffffffffff1663bb3bafd689600101546040518263ffffffff1660e01b8152600401613c3c919061500d565b60206040518083038186803b158015613c5457600080fd5b505afa158015613c68573d6000803e3d6000fd5b505050506040513d601f19601f82011682018060405250810190613c8c9190614694565b886005015461432c90919063ffffffff16565b613ca99190615291565b90508273ffffffffffffffffffffffffffffffffffffffff166108fc829081150290604051600060405180830381858888f19350505050158015613cf1573d6000803e3d6000fd5b507f54b960faf8b038c33ba9912fdb9ac1e8e0096c5f327d1c89e62b5d9c5357ddb68382604051613d23929190614b3c565b60405180910390a15b6000613d5782613d49858a6005015461434290919063ffffffff16565b61434290919063ffffffff16565b905060008760020160009054906101000a900473ffffffffffffffffffffffffffffffffffffffff1673ffffffffffffffffffffffffffffffffffffffff1682604051613da390614ad5565b60006040518083038185875af1925050503d8060008114613de0576040519150601f19603f3d011682016040523d82523d6000602084013e613de5565b606091505b5050905080613e29576040517f08c379a0000000000000000000000000000000000000000000000000000000008152600401613e2090614fad565b60405180910390fd5b7f9a37aa02cc986a4a0c2d22af3dcdb9db27c178f7feed43e7037c783b55ed91ba8860020160009054906101000a900473ffffffffffffffffffffffffffffffffffffffff16838686878988613e7f919061523b565b613e89919061523b565b604051613e9a959493929190614b65565b60405180910390a1613eb78460055461402190919063ffffffff16565b600581905550613ed6886005015460065461402190919063ffffffff16565b6006819055505050505050505b60008160a0019015159081151581525050600081608001901515908115158152505080600760008460010154815260200190815260200160002060008201518160000160006101000a81548173ffffffffffffffffffffffffffffffffffffffff021916908373ffffffffffffffffffffffffffffffffffffffff1602179055506020820151816001015560408201518160020160006101000a81548173ffffffffffffffffffffffffffffffffffffffff021916908373ffffffffffffffffffffffffffffffffffffffff1602179055506060820151816003015560808201518160040160006101000a81548160ff02191690831515021790555060a08201518160040160016101000a81548160ff02191690831515021790555060c082015181600501559050505050506001808190555050565b600033905090565b6000818361402f919061523b565b905092915050565b60008060009054906101000a900473ffffffffffffffffffffffffffffffffffffffff169050816000806101000a81548173ffffffffffffffffffffffffffffffffffffffff021916908373ffffffffffffffffffffffffffffffffffffffff1602179055508173ffffffffffffffffffffffffffffffffffffffff168173ffffffffffffffffffffffffffffffffffffffff167f8be0079c531659141344cd1fd0a4f28419497f9722a3daafe3b4186f6b6457e060405160405180910390a35050565b600080831415614109574292505b60006040518061010001604052808873ffffffffffffffffffffffffffffffffffffffff1681526020018781526020013373ffffffffffffffffffffffffffffffffffffffff168152602001858152602001848152602001868152602001600073ffffffffffffffffffffffffffffffffffffffff16815260200160008152509050600381908060018154018082558091505060019003906000526020600020906008020160009091909190915060008201518160000160006101000a81548173ffffffffffffffffffffffffffffffffffffffff021916908373ffffffffffffffffffffffffffffffffffffffff1602179055506020820151816001015560408201518160020160006101000a81548173ffffffffffffffffffffffffffffffffffffffff021916908373ffffffffffffffffffffffffffffffffffffffff160217905550606082015181600301556080820151816004015560a0820151816005015560c08201518160060160006101000a81548173ffffffffffffffffffffffffffffffffffffffff021916908373ffffffffffffffffffffffffffffffffffffffff16021790555060e08201518160070155505060006142db600160038054905061434290919063ffffffff16565b90507fc9050d42180a61cb0d9ebb8ad118b62fe6eab12cf12ff752c4a0cc7da9ddf62781836040015189896040516143169493929190615088565b60405180910390a1809250505095945050505050565b6000818361433a91906152c2565b905092915050565b60008183614350919061531c565b905092915050565b600260009054906101000a900473ffffffffffffffffffffffffffffffffffffffff1673ffffffffffffffffffffffffffffffffffffffff16635db8de19338360016040518463ffffffff1660e01b81526004016143b893929190614d05565b600060405180830381600087803b1580156143d257600080fd5b505af11580156143e6573d6000803e3d6000fd5b5050505050565b60006144006143fb846151ba565b615195565b9050808382526020820190508285602086028201111561441f57600080fd5b60005b8581101561444f578161443588826144c2565b845260208401935060208301925050600181019050614422565b5050509392505050565b600081359050614468816158f6565b92915050565b60008151905061447d816158f6565b92915050565b600082601f83011261449457600080fd5b81356144a48482602086016143ed565b91505092915050565b6000813590506144bc8161590d565b92915050565b6000813590506144d181615924565b92915050565b6000815190506144e681615924565b92915050565b6000602082840312156144fe57600080fd5b600061450c84828501614459565b91505092915050565b60006020828403121561452757600080fd5b60006145358482850161446e565b91505092915050565b6000806000806080858703121561455457600080fd5b600061456287828801614459565b945050602061457387828801614459565b935050604085013567ffffffffffffffff81111561459057600080fd5b61459c87828801614483565b92505060606145ad878288016144c2565b91505092959194509250565b600080600080600080600080610100898b0312156145d657600080fd5b60006145e48b828c01614459565b98505060206145f58b828c016144c2565b97505060406146068b828c016144ad565b96505060606146178b828c016144ad565b95505060806146288b828c016144c2565b94505060a06146398b828c016144c2565b93505060c061464a8b828c016144c2565b92505060e061465b8b828c016144c2565b9150509295985092959890939650565b60006020828403121561467d57600080fd5b600061468b848285016144c2565b91505092915050565b6000602082840312156146a657600080fd5b60006146b4848285016144d7565b91505092915050565b600080604083850312156146d057600080fd5b60006146de858286016144c2565b92505060206146ef85828601614459565b9150509250929050565b60006147058383614ab7565b60208301905092915050565b61471a816153bd565b82525050565b61472981615362565b82525050565b61473881615350565b82525050565b6000614749826151f6565b614753818561520e565b935061475e836151e6565b8060005b8381101561478f57815161477688826146f9565b975061478183615201565b925050600181019050614762565b5085935050505092915050565b6147a581615374565b82525050565b6147b4816153cf565b82525050565b6147c3816153f3565b82525050565b6147d281615405565b82525050565b60006147e560138361522a565b91506147f082615539565b602082019050919050565b600061480860188361522a565b915061481382615562565b602082019050919050565b600061482b600b8361522a565b91506148368261558b565b602082019050919050565b600061484e60248361522a565b9150614859826155b4565b604082019050919050565b600061487160268361522a565b915061487c82615603565b604082019050919050565b6000614894600d8361522a565b915061489f82615652565b602082019050919050565b60006148b7600e8361522a565b91506148c28261567b565b602082019050919050565b60006148da60208361522a565b91506148e5826156a4565b602082019050919050565b60006148fd60158361522a565b9150614908826156cd565b602082019050919050565b6000614920601c8361522a565b915061492b826156f6565b602082019050919050565b6000614943601e8361522a565b915061494e8261571f565b602082019050919050565b6000614966600d8361522a565b915061497182615748565b602082019050919050565b600061498960258361522a565b915061499482615771565b604082019050919050565b60006149ac60208361522a565b91506149b7826157c0565b602082019050919050565b60006149cf60128361522a565b91506149da826157e9565b602082019050919050565b60006149f260168361522a565b91506149fd82615812565b602082019050919050565b6000614a1560138361522a565b9150614a208261583b565b602082019050919050565b6000614a3860008361521f565b9150614a4382615864565b600082019050919050565b6000614a5b60108361522a565b9150614a6682615867565b602082019050919050565b6000614a7e60108361522a565b9150614a8982615890565b602082019050919050565b6000614aa1601f8361522a565b9150614aac826158b9565b602082019050919050565b614ac0816153b3565b82525050565b614acf816153b3565b82525050565b6000614ae082614a2b565b9150819050919050565b6000602082019050614aff600083018461472f565b92915050565b6000606082019050614b1a6000830186614711565b614b27602083018561472f565b614b346040830184614ac6565b949350505050565b6000604082019050614b516000830185614711565b614b5e6020830184614ac6565b9392505050565b600060a082019050614b7a6000830188614711565b614b876020830187614ac6565b614b946040830186614ac6565b614ba16060830185614ac6565b614bae6080830184614ac6565b9695505050505050565b6000606082019050614bcd600083018661472f565b614bda602083018561472f565b614be76040830184614ac6565b949350505050565b6000604082019050614c04600083018561472f565b614c116020830184614ac6565b9392505050565b600060e082019050614c2d600083018a61472f565b614c3a6020830189614ac6565b614c476040830188614720565b614c546060830187614ac6565b614c61608083018661479c565b614c6e60a083018561479c565b614c7b60c0830184614ac6565b98975050505050505050565b600061010082019050614c9d600083018b61472f565b614caa602083018a614ac6565b614cb76040830189614720565b614cc46060830188614ac6565b614cd16080830187614ac6565b614cde60a0830186614ac6565b614ceb60c0830185614720565b614cf860e0830184614ac6565b9998505050505050505050565b6000606082019050614d1a600083018661472f565b614d276020830185614ac6565b614d34604083018461479c565b949350505050565b6000602082019050614d51600083018461479c565b92915050565b6000602082019050614d6c60008301846147ab565b92915050565b6000602082019050614d8760008301846147ba565b92915050565b60006020820190508181036000830152614da6816147d8565b9050919050565b60006020820190508181036000830152614dc6816147fb565b9050919050565b60006020820190508181036000830152614de68161481e565b9050919050565b60006020820190508181036000830152614e0681614841565b9050919050565b60006020820190508181036000830152614e2681614864565b9050919050565b60006020820190508181036000830152614e4681614887565b9050919050565b60006020820190508181036000830152614e66816148aa565b9050919050565b60006020820190508181036000830152614e86816148cd565b9050919050565b60006020820190508181036000830152614ea6816148f0565b9050919050565b60006020820190508181036000830152614ec681614913565b9050919050565b60006020820190508181036000830152614ee681614936565b9050919050565b60006020820190508181036000830152614f0681614959565b9050919050565b60006020820190508181036000830152614f268161497c565b9050919050565b60006020820190508181036000830152614f468161499f565b9050919050565b60006020820190508181036000830152614f66816149c2565b9050919050565b60006020820190508181036000830152614f86816149e5565b9050919050565b60006020820190508181036000830152614fa681614a08565b9050919050565b60006020820190508181036000830152614fc681614a4e565b9050919050565b60006020820190508181036000830152614fe681614a71565b9050919050565b6000602082019050818103600083015261500681614a94565b9050919050565b60006020820190506150226000830184614ac6565b92915050565b600060408201905061503d6000830185614ac6565b61504a602083018461472f565b9392505050565b60006060820190506150666000830186614ac6565b6150736020830185614711565b6150806040830184614ac6565b949350505050565b600060808201905061509d6000830187614ac6565b6150aa6020830186614711565b6150b76040830185614ac6565b6150c46060830184614ac6565b95945050505050565b600060c0820190506150e26000830189614ac6565b6150ef602083018861472f565b6150fc604083018761472f565b61510960608301866147c9565b6151166080830185614ac6565b61512360a083018461479c565b979650505050505050565b60006060820190506151436000830186614ac6565b615150602083018561472f565b61515d6040830184614ac6565b949350505050565b600060408201905061517a6000830185614ac6565b818103602083015261518c818461473e565b90509392505050565b600061519f6151b0565b90506151ab828261543b565b919050565b6000604051905090565b600067ffffffffffffffff8211156151d5576151d46154f9565b5b602082029050602081019050919050565b6000819050602082019050919050565b600081519050919050565b6000602082019050919050565b600082825260208201905092915050565b600081905092915050565b600082825260208201905092915050565b6000615246826153b3565b9150615251836153b3565b9250827fffffffffffffffffffffffffffffffffffffffffffffffffffffffffffffffff038211156152865761528561546c565b5b828201905092915050565b600061529c826153b3565b91506152a7836153b3565b9250826152b7576152b661549b565b5b828204905092915050565b60006152cd826153b3565b91506152d8836153b3565b9250817fffffffffffffffffffffffffffffffffffffffffffffffffffffffffffffffff04831182151516156153115761531061546c565b5b828202905092915050565b6000615327826153b3565b9150615332836153b3565b9250828210156153455761534461546c565b5b828203905092915050565b600061535b82615393565b9050919050565b600061536d82615393565b9050919050565b60008115159050919050565b600081905061538e826158e2565b919050565b600073ffffffffffffffffffffffffffffffffffffffff82169050919050565b6000819050919050565b60006153c882615417565b9050919050565b60006153da826153e1565b9050919050565b60006153ec82615393565b9050919050565b60006153fe82615380565b9050919050565b6000615410826153b3565b9050919050565b600061542282615429565b9050919050565b600061543482615393565b9050919050565b61544482615528565b810181811067ffffffffffffffff82111715615463576154626154f9565b5b80604052505050565b7f4e487b7100000000000000000000000000000000000000000000000000000000600052601160045260246000fd5b7f4e487b7100000000000000000000000000000000000000000000000000000000600052601260045260246000fd5b7f4e487b7100000000000000000000000000000000000000000000000000000000600052602160045260246000fd5b7f4e487b7100000000000000000000000000000000000000000000000000000000600052604160045260246000fd5b6000601f19601f8301169050919050565b7f5072696365206973206e6f7420656e6f75676800000000000000000000000000600082015250565b7f41756374696f6e206e6f742066696e6973686564207965740000000000000000600082015250565b7f42696420746f6f206c6f77000000000000000000000000000000000000000000600082015250565b7f5374616b696e673a204e6f7420746865207374616b6572206f6620746865207460008201527f6f6b656e00000000000000000000000000000000000000000000000000000000602082015250565b7f4f776e61626c653a206e6577206f776e657220697320746865207a65726f206160008201527f6464726573730000000000000000000000000000000000000000000000000000602082015250565b7f42696473206578697374696e6700000000000000000000000000000000000000600082015250565b7f426964206e6f7420616374697665000000000000000000000000000000000000600082015250565b7f41756374696f6e2063726561746f72206973206e6f74206e6674206f776e6572600082015250565b7f596f7520617265206e6f7420746865206f776e65720000000000000000000000600082015250565b7f43616e6e6f74206269642e204572726f7220696e2061756374696f6e00000000600082015250565b7f416e20616374697665206f6666657220616c7265616479206578697374730000600082015250565b7f4e6f7420746865206f776e657200000000000000000000000000000000000000600082015250565b7f436c61696d2061737365742066726f6d2061756374696f6e206861732070726960008201527f6f72697479000000000000000000000000000000000000000000000000000000602082015250565b7f4f776e61626c653a2063616c6c6572206973206e6f7420746865206f776e6572600082015250565b7f4e4654206e6f7420696e2061756374696f6e0000000000000000000000000000600082015250565b7f4e4654206e6f7420696e206469726563742073616c6500000000000000000000600082015250565b7f436f6d6d697373696f6e20746f6f206869676800000000000000000000000000600082015250565b50565b7f5472616e73666572206661696c65642e00000000000000000000000000000000600082015250565b7f4e4654206e6f7420617070726f76656400000000000000000000000000000000600082015250565b7f5265656e7472616e637947756172643a207265656e7472616e742063616c6c00600082015250565b600381106158f3576158f26154ca565b5b50565b6158ff81615350565b811461590a57600080fd5b50565b61591681615374565b811461592157600080fd5b50565b61592d816153b3565b811461593857600080fd5b5056fea2646970667358221220cf7bdc10e05be22b8c72183d38d60b9c4bf1192b92194b5fc7b195f3a8aa789364736f6c63430008040033",
  "immutableReferences": {},
  "source": "// SPDX-License-Identifier: UNLICENSED\r\npragma solidity 0.8.4;\r\n\r\n//import \"./AddressUtils.sol\";\r\nimport \"@openzeppelin/contracts/token/ERC721/ERC721.sol\";\r\nimport \"@openzeppelin/contracts/access/Ownable.sol\";\r\nimport \"./PumlNFT.sol\";\r\nimport \"./PumlStake.sol\";\r\nimport \"@openzeppelin/contracts/utils/math/SafeMath.sol\";\r\nimport \"@openzeppelin/contracts/security/ReentrancyGuard.sol\";\r\n\r\ncontract Engine is Ownable, ReentrancyGuard {\r\n    using SafeMath for uint256;\r\n    PumlStake public stakePUMLx;\r\n\r\n    constructor(address _stakeAddress) {\r\n        stakePUMLx = PumlStake(_stakeAddress);\r\n    }\r\n\r\n    event OfferCreated(\r\n        uint256 _tokenId,\r\n        address _creator,\r\n        address _asset,\r\n        uint256 numCopies,\r\n        uint256 amount,\r\n        bool isSale\r\n    );\r\n    // Event triggered when an auction is created\r\n    event AuctionCreated(\r\n        uint256 _auctionId,\r\n        address _creator,\r\n        uint256 _tokenId,\r\n        uint256 _startPrice\r\n    );\r\n    // Event triggered when an auction receives a bid\r\n    event AuctionBid(uint256 _index, address _bidder, uint256 amount);\r\n    // Event triggered when an ended auction winner claims the NFT\r\n    event Claim(uint256 auctionIndex, address claimer);\r\n    // Event triggered when an auction received a bid that implies sending funds back to previous best bidder\r\n    event ReturnBidFunds(uint256 _index, address _bidder, uint256 amount);\r\n    // Event triggered when a royalties payment is generated, either on direct sales or on auctions\r\n    event Royalties(address receiver, uint256 amount);\r\n    // Event triggered when a payment to the owner is generated, either on direct sales or on auctions.assetAddress\r\n    // This event is useful to check that all the payments funds are the right ones.\r\n    event PaymentToOwner(\r\n        address receiver,\r\n        uint256 amount,\r\n        //    uint256 paidByCustomer,\r\n        uint256 commission,\r\n        uint256 royalties,\r\n        uint256 safetyCheckValue\r\n    );\r\n    event Buy(uint256 _index, address buyer, uint256 _amount);\r\n\r\n    // Status of an auction, calculated using the start date, the duration and the current timeblock\r\n    enum Status {\r\n        pending,\r\n        active,\r\n        finished\r\n    }\r\n    // Data of an auction\r\n    struct Auction {\r\n        address assetAddress; // token address\r\n        uint256 assetId; // token id\r\n        address payable creator; // creator of the auction, which is the token owner\r\n        uint256 startTime; // time (unix, in seconds) where the auction will start\r\n        uint256 duration; // duration in seconds of the auction\r\n        uint256 currentBidAmount; // amount in ETH of the current bid amount\r\n        address payable currentBidOwner; // address of the user who places the best bid\r\n        uint256 bidCount; // number of bids of the auction\r\n    }\r\n    Auction[] public auctions;\r\n\r\n    uint256 public commission = 0; // this is the commission in basic points that will charge the marketplace by default.\r\n    uint256 public accumulatedCommission = 0; // this is the amount in ETH accumulated on marketplace wallet\r\n    uint256 public totalSales = 0;\r\n\r\n    struct Offer {\r\n        address assetAddress; // address of the token\r\n        uint256 tokenId; // the tokenId returned when calling \"createItem\"\r\n        address payable creator; // who creates the offer\r\n        uint256 price; // price of each token\r\n        bool isOnSale; // is on sale or not\r\n        bool isAuction; // is this offer is for an auction\r\n        uint256 idAuction; // the id of the auction\r\n    }\r\n    mapping(uint256 => Offer) public offers;\r\n\r\n    // Every time a token is put on sale, an offer is created. An offer can be a direct sale, an auction\r\n    // or a combination of both.\r\n    function createOffer(\r\n        address _assetAddress, // address of the token\r\n        uint256 _tokenId, // tokenId\r\n        bool _isDirectSale, // true if can be bought on a direct sale\r\n        bool _isAuction, // true if can be bought in an auction\r\n        uint256 _price, // price that if paid in a direct sale, transfers the NFT\r\n        uint256 _startPrice, // minimum price on the auction\r\n        uint256 _startTime, // time when the auction will start. Check the format with frontend\r\n        uint256 _duration // duration in seconds of the auction\r\n    ) public {\r\n        ERC721 asset = ERC721(_assetAddress);\r\n        require(asset.ownerOf(_tokenId) == msg.sender, \"Not the owner\");\r\n        require(\r\n            asset.getApproved(_tokenId) == address(this),\r\n            \"NFT not approved\"\r\n        );\r\n        // Could not be used to update an existing offer (#02)\r\n        Offer memory previous = offers[_tokenId];\r\n        require(\r\n            previous.isOnSale == false && previous.isAuction == false,\r\n            \"An active offer already exists\"\r\n        );\r\n\r\n        // First create the offer\r\n        Offer memory offer = Offer({\r\n            assetAddress: _assetAddress,\r\n            tokenId: _tokenId,\r\n            creator: payable(msg.sender),\r\n            price: _price,\r\n            isOnSale: _isDirectSale,\r\n            isAuction: _isAuction,\r\n            idAuction: 0\r\n        });\r\n        // only if the offer has the \"is_auction\" flag, add the auction to the list\r\n        if (_isAuction) {\r\n            offer.idAuction = createAuction(\r\n                _assetAddress,\r\n                _tokenId,\r\n                _startPrice,\r\n                _startTime,\r\n                _duration\r\n            );\r\n        }\r\n        offers[_tokenId] = offer;\r\n        emit OfferCreated(\r\n            _tokenId,\r\n            msg.sender,\r\n            _assetAddress,\r\n            1,\r\n            _price,\r\n            _isDirectSale\r\n        );\r\n    }\r\n\r\n    // returns the auctionId from the offerId\r\n    function getAuctionId(uint256 _tokenId) public view returns (uint256) {\r\n        Offer memory offer = offers[_tokenId];\r\n        return offer.idAuction;\r\n    }\r\n\r\n    // this method returns the current date and time of the blockchain. Used also to check the contract is alive\r\n    function ahora() public view returns (uint256) {\r\n        return block.timestamp;\r\n    }\r\n\r\n    // Remove an auction from the offer that did not have previous bids. Beware could be a direct sale\r\n    function removeFromAuction(uint256 _tokenId) public {\r\n        Offer memory offer = offers[_tokenId];\r\n        require(msg.sender == offer.creator, \"You are not the owner\");\r\n        Auction memory auction = auctions[offer.idAuction];\r\n        require(auction.bidCount == 0, \"Bids existing\");\r\n        offer.isAuction = false;\r\n        offer.idAuction = 0;\r\n        offers[_tokenId] = offer;\r\n    }\r\n\r\n    // remove a direct sale from an offer. Beware that could be an auction for the token\r\n    function removeFromSale(uint256 _tokenId) public {\r\n        Offer memory offer = offers[_tokenId];\r\n        require(msg.sender == offer.creator, \"You are not the owner\");\r\n        offer.isOnSale = false;\r\n        offers[_tokenId] = offer;\r\n    }\r\n\r\n    // Changes the default commission. Only the owner of the marketplace can do that. In basic points\r\n    function setCommission(uint256 _commission) public onlyOwner {\r\n        require(_commission <= 5000, \"Commission too high\");\r\n        commission = _commission;\r\n    }\r\n\r\n    // called in a direct sale by the customer. Transfer the nft to the customer, the royalties (if any)\r\n    // to the token creator, the commission for the marketplace is keeped on the contract and the remaining\r\n    // funds are transferred to the token owner.\r\n    // is there is an auction open, the last bid amount is sent back to the last bidder\r\n    // After that, the offer is cleared.\r\n    function buy(uint256 _tokenId, address _buyerAddress) external payable nonReentrant {\r\n        address buyer = msg.sender;\r\n        uint256 paidPrice = msg.value;\r\n\r\n        if (_buyerAddress != address(0)) {\r\n            buyer = _buyerAddress;\r\n        }\r\n\r\n        Offer memory offer = offers[_tokenId];\r\n        require(offer.isOnSale == true, \"NFT not in direct sale\");\r\n        uint256 price = offer.price;\r\n        require(paidPrice >= price, \"Price is not enough\");\r\n\r\n        //if there is a bid and the auction is closed but not claimed, give priority to claim\r\n        require(\r\n            !(offer.isAuction == true &&\r\n                isFinished(offer.idAuction) &&\r\n                auctions[offer.idAuction].bidCount > 0),\r\n            \"Claim asset from auction has priority\"\r\n        );\r\n\r\n        emit Claim(_tokenId, buyer);\r\n        PumlNFT asset = PumlNFT(offer.assetAddress);\r\n        asset.safeTransferFrom(offer.creator, buyer, _tokenId);\r\n\r\n        // now, pay the amount - commission - royalties to the auction creator\r\n        address payable creatorNFT = payable(asset.getCreator(_tokenId));\r\n\r\n        uint256 commissionToPay = (paidPrice.mul(commission)) / 10000;\r\n        uint256 royaltiesToPay = 0;\r\n        if (creatorNFT != offer.creator) {\r\n            // It is a resale. Transfer royalties\r\n            royaltiesToPay =\r\n                (paidPrice.mul(asset.getRoyalties(_tokenId))) /\r\n                10000;\r\n\r\n            (bool success, ) = creatorNFT.call{value: royaltiesToPay}(\"\");\r\n            require(success, \"Transfer failed.\");\r\n\r\n            emit Royalties(creatorNFT, royaltiesToPay);\r\n        }\r\n        uint256 amountToPay = paidPrice.sub(commissionToPay).sub(\r\n            royaltiesToPay\r\n        );\r\n\r\n        (bool success2, ) = offer.creator.call{value: amountToPay}(\"\");\r\n        require(success2, \"Transfer failed.\");\r\n        emit PaymentToOwner(\r\n            offer.creator,\r\n            amountToPay,\r\n            //     paidPrice,\r\n            commissionToPay,\r\n            royaltiesToPay,\r\n            amountToPay + ((paidPrice * commission) / 10000) // using safemath will trigger an error because of stack size\r\n        );\r\n\r\n        // is there is an auction open, we have to give back the last bid amount to the last bidder\r\n        if (offer.isAuction == true) {\r\n            Auction memory auction = auctions[offer.idAuction];\r\n            // #4. Only if there is at least a bid and the bid amount > 0, give it back to last bidder\r\n            if (auction.currentBidAmount != 0 && auction.bidCount > 0) {\r\n                // return funds to the previuos bidder\r\n                (bool success3, ) = auction.currentBidOwner.call{\r\n                    value: auction.currentBidAmount\r\n                }(\"\");\r\n                require(success3, \"Transfer failed.\");\r\n                emit ReturnBidFunds(\r\n                    offer.idAuction,\r\n                    auction.currentBidOwner,\r\n                    auction.currentBidAmount\r\n                );\r\n            }\r\n        }\r\n\r\n        emit Buy(_tokenId, buyer, msg.value);\r\n\r\n        accumulatedCommission = accumulatedCommission.add(commissionToPay);\r\n\r\n        offer.isAuction = false;\r\n        offer.isOnSale = false;\r\n        offers[_tokenId] = offer;\r\n\r\n        totalSales = totalSales.add(msg.value);\r\n    }\r\n\r\n    // Creates an auction for a token. It is linked to an offer\r\n    function createAuction(\r\n        address _assetAddress, // address of the PumlNFT token\r\n        uint256 _assetId, // id of the NFT\r\n        uint256 _startPrice, // minimum price\r\n        uint256 _startTime, // time when the auction will start. Check with frontend because is unix time in seconds, not millisecs!\r\n        uint256 _duration // duration in seconds of the auction\r\n    ) private returns (uint256) {\r\n        if (_startTime == 0) {\r\n            _startTime = block.timestamp;\r\n        }\r\n\r\n        Auction memory auction = Auction({\r\n            creator: payable(msg.sender),\r\n            assetAddress: _assetAddress,\r\n            assetId: _assetId,\r\n            startTime: _startTime,\r\n            duration: _duration,\r\n            currentBidAmount: _startPrice,\r\n            currentBidOwner: payable(address(0)),\r\n            bidCount: 0\r\n        });\r\n        auctions.push(auction);\r\n        uint256 index = auctions.length.sub(1);\r\n\r\n        emit AuctionCreated(index, auction.creator, _assetId, _startPrice);\r\n\r\n        return index;\r\n    }\r\n\r\n    // At the end of the call, the amount is saved on the marketplace wallet and the previous bid amount is returned to old bidder\r\n    // except in the case of the first bid, as could exists a minimum price set by the creator as first bid.\r\n    function bid(uint256 auctionIndex, address _bidderAddress) public payable nonReentrant {\r\n        address bidder = msg.sender;\r\n\r\n        if (_bidderAddress != address(0)) {\r\n            bidder = _bidderAddress;\r\n        }\r\n\r\n        Auction storage auction = auctions[auctionIndex];\r\n        require(auction.creator != address(0), \"Cannot bid. Error in auction\");\r\n        require(isActive(auctionIndex), \"Bid not active\");\r\n        require(msg.value > auction.currentBidAmount, \"Bid too low\");\r\n        // we got a better bid. Return funds to the previous best bidder\r\n        // and register the sender as `currentBidOwner`\r\n\r\n        // this check is for not transferring back funds on the first bid, as the fist bid is the minimum price set by the auction creator\r\n        // and the bid owner is address(0)\r\n        if (\r\n            auction.currentBidAmount != 0 &&\r\n            auction.currentBidOwner != address(0)\r\n        ) {\r\n            // return funds to the previuos bidder\r\n            (bool success, ) = auction.currentBidOwner.call{\r\n                value: auction.currentBidAmount\r\n            }(\"\");\r\n            require(success, \"Transfer failed.\");\r\n            emit ReturnBidFunds(\r\n                auctionIndex,\r\n                auction.currentBidOwner,\r\n                auction.currentBidAmount\r\n            );\r\n        }\r\n        // register new bidder\r\n        auction.currentBidAmount = msg.value;\r\n        auction.currentBidOwner = payable(bidder);\r\n        auction.bidCount = auction.bidCount.add(1);\r\n\r\n        emit AuctionBid(auctionIndex, bidder, msg.value);\r\n    }\r\n\r\n    function getTotalAuctions() public view returns (uint256) {\r\n        return auctions.length;\r\n    }\r\n\r\n    function isActive(uint256 _auctionIndex) public view returns (bool) {\r\n        return getStatus(_auctionIndex) == Status.active;\r\n    }\r\n\r\n    function isFinished(uint256 _auctionIndex) public view returns (bool) {\r\n        return getStatus(_auctionIndex) == Status.finished;\r\n    }\r\n\r\n    // The auctions did not be affected if the current time is 15 seconds wrong\r\n    // So, according to Consensys security advices, it is safe using block.timestamp\r\n    function getStatus(uint256 _auctionIndex) public view returns (Status) {\r\n        Auction storage auction = auctions[_auctionIndex];\r\n        if (block.timestamp < auction.startTime) {\r\n            return Status.pending;\r\n        } else if (block.timestamp < auction.startTime.add(auction.duration)) {\r\n            return Status.active;\r\n        } else {\r\n            return Status.finished;\r\n        }\r\n    }\r\n\r\n    // returns the end date of the auction, in unix time using seconds\r\n    function endDate(uint256 _auctionIndex) public view returns (uint256) {\r\n        Auction storage auction = auctions[_auctionIndex];\r\n        return auction.startTime.add(auction.duration);\r\n    }\r\n\r\n    // returns the user with the best bid until now on an auction\r\n    function getCurrentBidOwner(uint256 _auctionIndex)\r\n        public\r\n        view\r\n        returns (address)\r\n    {\r\n        return auctions[_auctionIndex].currentBidOwner;\r\n    }\r\n\r\n    // returns the amount in ETH of the best bid until now on an auction\r\n    function getCurrentBidAmount(uint256 _auctionIndex)\r\n        public\r\n        view\r\n        returns (uint256)\r\n    {\r\n        return auctions[_auctionIndex].currentBidAmount;\r\n    }\r\n\r\n    // returns the number of bids of an auction (0 by default)\r\n    function getBidCount(uint256 _auctionIndex) public view returns (uint256) {\r\n        return auctions[_auctionIndex].bidCount;\r\n    }\r\n\r\n    // returns the winner of an auction once the auction finished\r\n    function getWinner(uint256 auctionIndex) public view returns (address) {\r\n        require(isFinished(auctionIndex), \"Auction not finished yet\");\r\n        return auctions[auctionIndex].currentBidOwner;\r\n    }\r\n\r\n    // called when the auction is finished by the user who won the auction\r\n    // transfer the nft to the caller, the royalties (if any) to the nft creator\r\n    // the commission of the marketplace is calculated, and the remaining funds\r\n    // are transferred to the token owner\r\n    // After this, the offer is disabled\r\n    function closeAuction(uint256 auctionIndex) public {\r\n        //    address winner = getWinner(auctionIndex);\r\n        //    require(winner == msg.sender, \"You are not the winner of the auction\");\r\n        auctionTransferAsset(auctionIndex);\r\n    }\r\n\r\n    function automaticSetWinner(uint256 auctionIndex) public onlyOwner {\r\n        auctionTransferAsset(auctionIndex);\r\n    }\r\n\r\n    function auctionTransferAsset(uint256 auctionIndex) private nonReentrant {\r\n        // require(isFinished(auctionIndex), \"The auction is still active\");\r\n        address winner = getWinner(auctionIndex);\r\n\r\n        Auction storage auction = auctions[auctionIndex];\r\n\r\n        // the token could be sold in direct sale or the owner cancelled the auction\r\n        Offer memory offer = offers[auction.assetId];\r\n        require(offer.isAuction == true, \"NFT not in auction\");\r\n\r\n        if (auction.bidCount > 0) {\r\n            PumlNFT asset = PumlNFT(auction.assetAddress);\r\n\r\n            // #3, check if the asset owner had removed their approval or the offer creator is not the token owner anymore.\r\n            require(\r\n                asset.getApproved(auction.assetId) == address(this),\r\n                \"NFT not approved\"\r\n            );\r\n            require(\r\n                asset.ownerOf(auction.assetId) == auction.creator,\r\n                \"Auction creator is not nft owner\"\r\n            );\r\n\r\n            asset.safeTransferFrom(auction.creator, winner, auction.assetId);\r\n\r\n            emit Claim(auctionIndex, winner);\r\n\r\n            // now, pay the amount - commission - royalties to the auction creator\r\n            address payable creatorNFT = payable(\r\n                asset.getCreator(auction.assetId)\r\n            );\r\n            uint256 commissionToPay = (\r\n                auction.currentBidAmount.mul(commission)\r\n            ) / 10000;\r\n            uint256 royaltiesToPay = 0;\r\n            if (creatorNFT != auction.creator) {\r\n                // It is a resale. Transfer royalties\r\n                royaltiesToPay =\r\n                    (\r\n                        auction.currentBidAmount.mul(\r\n                            asset.getRoyalties(auction.assetId)\r\n                        )\r\n                    ) /\r\n                    10000;\r\n                creatorNFT.transfer(royaltiesToPay);\r\n                emit Royalties(creatorNFT, royaltiesToPay);\r\n            }\r\n            uint256 amountToPay = auction\r\n                .currentBidAmount\r\n                .sub(commissionToPay)\r\n                .sub(royaltiesToPay);\r\n\r\n            (bool success, ) = auction.creator.call{value: amountToPay}(\"\");\r\n            require(success, \"Transfer failed.\");\r\n            emit PaymentToOwner(\r\n                auction.creator,\r\n                amountToPay,\r\n                //  auction.currentBidAmount,\r\n                commissionToPay,\r\n                royaltiesToPay,\r\n                amountToPay + commissionToPay + royaltiesToPay\r\n            );\r\n\r\n            accumulatedCommission = accumulatedCommission.add(commissionToPay);\r\n\r\n            totalSales = totalSales.add(auction.currentBidAmount);\r\n        }\r\n\r\n        offer.isAuction = false;\r\n        offer.isOnSale = false;\r\n        offers[auction.assetId] = offer;\r\n    }\r\n\r\n    //stake NFT\r\n    \r\n    function stakeNFT(\r\n        address _assetAddress,\r\n        address _to, \r\n        uint256[] memory tokenIds,\r\n        uint256 collect\r\n    ) external payable nonReentrant {\r\n\r\n        uint256 amount;\r\n        ERC721 token = ERC721(_assetAddress);\r\n        for (uint256 i = 0; i < tokenIds.length; i += 1) {\r\n            // Transfer user's NFTs to the staking contract\r\n            token.safeTransferFrom(msg.sender, _to, tokenIds[i]);\r\n            // Increment the amount which will be staked\r\n            amount += 1;\r\n            // Save who is the staker/depositor of the token\r\n            stakePUMLx.setStakedAssets(tokenIds[i], msg.sender);\r\n        }\r\n        _stakeNFT(amount);\r\n        stakePUMLx.setUserRewardUpdate(msg.sender, collect);\r\n        emit StakedNFT(msg.sender, amount, tokenIds);\r\n    }\r\n\r\n    function withdrawNFT(\r\n        address _assetAddress, \r\n        address _from, \r\n        uint256[] memory tokenIds,\r\n        uint256 collect\r\n    ) public payable nonReentrant {\r\n\r\n        uint256 amount;\r\n        ERC721 token = ERC721(_assetAddress);\r\n        for (uint256 i = 0; i < tokenIds.length; i += 1) {\r\n            // Check if the user who withdraws is the owner\r\n            require(\r\n                stakePUMLx.getStakedAssets(tokenIds[i]) == msg.sender,\r\n                \"Staking: Not the staker of the token\"\r\n            );\r\n            // Transfer NFTs back to the owner\r\n            token.safeTransferFrom(_from, msg.sender, tokenIds[i]);\r\n            // Increment the amount which will be withdrawn\r\n            amount += 1;\r\n            // Cleanup stakedAssets for the current tokenId\r\n            stakePUMLx.setStakedAssets(tokenIds[i], address(0));\r\n        }\r\n        _withdrawNFT(amount);\r\n        stakePUMLx.setUserRewardUpdate(msg.sender, collect);\r\n        emit WithdrawnNFT(msg.sender, amount, tokenIds);\r\n    }\r\n\r\n    function _stakeNFT(uint256 _amount) internal {\r\n        stakePUMLx.setBalancesNFT(msg.sender, _amount, true);\r\n    }\r\n\r\n    function _withdrawNFT(uint256 _amount) internal {\r\n        stakePUMLx.setBalancesNFT(msg.sender, _amount, false);\r\n    }\r\n\r\n    event StakedNFT(address indexed user, uint256 amount, uint256[] tokenIds);\r\n    event WithdrawnNFT(address indexed user, uint256 amount, uint256[] tokenIds);\r\n}\r\n",
  "sourcePath": "F:\\work\\puml-project\\ethcontracts\\contracts\\Engine.sol",
  "compiler": {
    "name": "solc",
    "version": "0.8.4+commit.c7e474f2.Emscripten.clang"
  },
  "schemaVersion": "3.4.5",
  "updatedAt": "2022-04-08T05:43:52.392Z",
  "devdoc": {
    "kind": "dev",
    "methods": {
      "owner()": {
        "details": "Returns the address of the current owner."
      },
      "renounceOwnership()": {
        "details": "Leaves the contract without owner. It will not be possible to call `onlyOwner` functions anymore. Can only be called by the current owner. NOTE: Renouncing ownership will leave the contract without an owner, thereby removing any functionality that is only available to the owner."
      },
      "transferOwnership(address)": {
        "details": "Transfers ownership of the contract to a new account (`newOwner`). Can only be called by the current owner."
      }
    },
    "version": 1
  },
  "userdoc": {
    "kind": "user",
    "methods": {},
    "version": 1
  }
}