{
  "contractName": "Engine",
  "abi": [
    {
      "anonymous": false,
      "inputs": [
        {
          "indexed": false,
          "internalType": "uint256",
          "name": "_index",
          "type": "uint256"
        },
        {
          "indexed": false,
          "internalType": "address",
          "name": "_bidder",
          "type": "address"
        },
        {
          "indexed": false,
          "internalType": "uint256",
          "name": "amount",
          "type": "uint256"
        }
      ],
      "name": "AuctionBid",
      "type": "event"
    },
    {
      "anonymous": false,
      "inputs": [
        {
          "indexed": false,
          "internalType": "uint256",
          "name": "_index",
          "type": "uint256"
        },
        {
          "indexed": false,
          "internalType": "address",
          "name": "_creator",
          "type": "address"
        },
        {
          "indexed": false,
          "internalType": "address",
          "name": "_asset",
          "type": "address"
        }
      ],
      "name": "AuctionCreated",
      "type": "event"
    },
    {
      "anonymous": false,
      "inputs": [
        {
          "indexed": false,
          "internalType": "uint256",
          "name": "auctionIndex",
          "type": "uint256"
        },
        {
          "indexed": false,
          "internalType": "address",
          "name": "claimer",
          "type": "address"
        }
      ],
      "name": "Claim",
      "type": "event"
    },
    {
      "anonymous": false,
      "inputs": [
        {
          "indexed": true,
          "internalType": "address",
          "name": "previousOwner",
          "type": "address"
        },
        {
          "indexed": true,
          "internalType": "address",
          "name": "newOwner",
          "type": "address"
        }
      ],
      "name": "OwnershipTransferred",
      "type": "event"
    },
    {
      "anonymous": false,
      "inputs": [
        {
          "indexed": false,
          "internalType": "address",
          "name": "receiver",
          "type": "address"
        },
        {
          "indexed": false,
          "internalType": "uint256",
          "name": "amount",
          "type": "uint256"
        },
        {
          "indexed": false,
          "internalType": "uint256",
          "name": "paidByCustomer",
          "type": "uint256"
        },
        {
          "indexed": false,
          "internalType": "uint256",
          "name": "commission",
          "type": "uint256"
        },
        {
          "indexed": false,
          "internalType": "uint256",
          "name": "royalties",
          "type": "uint256"
        },
        {
          "indexed": false,
          "internalType": "uint256",
          "name": "safetyCheckValue",
          "type": "uint256"
        }
      ],
      "name": "PaymentToOwner",
      "type": "event"
    },
    {
      "anonymous": false,
      "inputs": [
        {
          "indexed": false,
          "internalType": "uint256",
          "name": "_index",
          "type": "uint256"
        },
        {
          "indexed": false,
          "internalType": "address",
          "name": "_bidder",
          "type": "address"
        },
        {
          "indexed": false,
          "internalType": "uint256",
          "name": "amount",
          "type": "uint256"
        }
      ],
      "name": "ReturnBidFunds",
      "type": "event"
    },
    {
      "anonymous": false,
      "inputs": [
        {
          "indexed": false,
          "internalType": "address",
          "name": "receiver",
          "type": "address"
        },
        {
          "indexed": false,
          "internalType": "uint256",
          "name": "amount",
          "type": "uint256"
        }
      ],
      "name": "Royalties",
      "type": "event"
    },
    {
      "inputs": [],
      "name": "accumulatedCommission",
      "outputs": [
        {
          "internalType": "uint256",
          "name": "",
          "type": "uint256"
        }
      ],
      "stateMutability": "view",
      "type": "function",
      "constant": true
    },
    {
      "inputs": [
        {
          "internalType": "uint256",
          "name": "",
          "type": "uint256"
        }
      ],
      "name": "auctions",
      "outputs": [
        {
          "internalType": "address",
          "name": "assetAddress",
          "type": "address"
        },
        {
          "internalType": "uint256",
          "name": "assetId",
          "type": "uint256"
        },
        {
          "internalType": "address payable",
          "name": "creator",
          "type": "address"
        },
        {
          "internalType": "uint256",
          "name": "startTime",
          "type": "uint256"
        },
        {
          "internalType": "uint256",
          "name": "duration",
          "type": "uint256"
        },
        {
          "internalType": "uint256",
          "name": "currentBidAmount",
          "type": "uint256"
        },
        {
          "internalType": "address payable",
          "name": "currentBidOwner",
          "type": "address"
        },
        {
          "internalType": "uint256",
          "name": "bidCount",
          "type": "uint256"
        }
      ],
      "stateMutability": "view",
      "type": "function",
      "constant": true
    },
    {
      "inputs": [],
      "name": "commission",
      "outputs": [
        {
          "internalType": "uint256",
          "name": "",
          "type": "uint256"
        }
      ],
      "stateMutability": "view",
      "type": "function",
      "constant": true
    },
    {
      "inputs": [
        {
          "internalType": "uint256",
          "name": "",
          "type": "uint256"
        }
      ],
      "name": "offers",
      "outputs": [
        {
          "internalType": "address",
          "name": "assetAddress",
          "type": "address"
        },
        {
          "internalType": "uint256",
          "name": "tokenId",
          "type": "uint256"
        },
        {
          "internalType": "address payable",
          "name": "creator",
          "type": "address"
        },
        {
          "internalType": "uint256",
          "name": "price",
          "type": "uint256"
        },
        {
          "internalType": "bool",
          "name": "isOnSale",
          "type": "bool"
        },
        {
          "internalType": "bool",
          "name": "isAuction",
          "type": "bool"
        },
        {
          "internalType": "uint256",
          "name": "idAuction",
          "type": "uint256"
        }
      ],
      "stateMutability": "view",
      "type": "function",
      "constant": true
    },
    {
      "inputs": [],
      "name": "owner",
      "outputs": [
        {
          "internalType": "address",
          "name": "",
          "type": "address"
        }
      ],
      "stateMutability": "view",
      "type": "function",
      "constant": true
    },
    {
      "inputs": [],
      "name": "renounceOwnership",
      "outputs": [],
      "stateMutability": "nonpayable",
      "type": "function"
    },
    {
      "inputs": [
        {
          "internalType": "address",
          "name": "newOwner",
          "type": "address"
        }
      ],
      "name": "transferOwnership",
      "outputs": [],
      "stateMutability": "nonpayable",
      "type": "function"
    },
    {
      "inputs": [
        {
          "internalType": "address",
          "name": "_assetAddress",
          "type": "address"
        },
        {
          "internalType": "uint256",
          "name": "_tokenId",
          "type": "uint256"
        },
        {
          "internalType": "bool",
          "name": "_isDirectSale",
          "type": "bool"
        },
        {
          "internalType": "bool",
          "name": "_isAuction",
          "type": "bool"
        },
        {
          "internalType": "uint256",
          "name": "_price",
          "type": "uint256"
        },
        {
          "internalType": "uint256",
          "name": "_startPrice",
          "type": "uint256"
        },
        {
          "internalType": "uint256",
          "name": "_startTime",
          "type": "uint256"
        },
        {
          "internalType": "uint256",
          "name": "_duration",
          "type": "uint256"
        }
      ],
      "name": "createOffer",
      "outputs": [],
      "stateMutability": "nonpayable",
      "type": "function"
    },
    {
      "inputs": [
        {
          "internalType": "uint256",
          "name": "_tokenId",
          "type": "uint256"
        }
      ],
      "name": "getAuctionId",
      "outputs": [
        {
          "internalType": "uint256",
          "name": "",
          "type": "uint256"
        }
      ],
      "stateMutability": "view",
      "type": "function",
      "constant": true
    },
    {
      "inputs": [],
      "name": "ahora",
      "outputs": [
        {
          "internalType": "uint256",
          "name": "",
          "type": "uint256"
        }
      ],
      "stateMutability": "view",
      "type": "function",
      "constant": true
    },
    {
      "inputs": [
        {
          "internalType": "uint256",
          "name": "_tokenId",
          "type": "uint256"
        }
      ],
      "name": "removeFromAuction",
      "outputs": [],
      "stateMutability": "nonpayable",
      "type": "function"
    },
    {
      "inputs": [
        {
          "internalType": "uint256",
          "name": "_tokenId",
          "type": "uint256"
        }
      ],
      "name": "removeFromSale",
      "outputs": [],
      "stateMutability": "nonpayable",
      "type": "function"
    },
    {
      "inputs": [
        {
          "internalType": "uint256",
          "name": "_commission",
          "type": "uint256"
        }
      ],
      "name": "setCommission",
      "outputs": [],
      "stateMutability": "nonpayable",
      "type": "function"
    },
    {
      "inputs": [
        {
          "internalType": "uint256",
          "name": "_tokenId",
          "type": "uint256"
        }
      ],
      "name": "buy",
      "outputs": [],
      "stateMutability": "payable",
      "type": "function",
      "payable": true
    },
    {
      "inputs": [
        {
          "internalType": "uint256",
          "name": "auctionIndex",
          "type": "uint256"
        }
      ],
      "name": "bid",
      "outputs": [],
      "stateMutability": "payable",
      "type": "function",
      "payable": true
    },
    {
      "inputs": [],
      "name": "getTotalAuctions",
      "outputs": [
        {
          "internalType": "uint256",
          "name": "",
          "type": "uint256"
        }
      ],
      "stateMutability": "view",
      "type": "function",
      "constant": true
    },
    {
      "inputs": [
        {
          "internalType": "uint256",
          "name": "_auctionIndex",
          "type": "uint256"
        }
      ],
      "name": "isActive",
      "outputs": [
        {
          "internalType": "bool",
          "name": "",
          "type": "bool"
        }
      ],
      "stateMutability": "view",
      "type": "function",
      "constant": true
    },
    {
      "inputs": [
        {
          "internalType": "uint256",
          "name": "_auctionIndex",
          "type": "uint256"
        }
      ],
      "name": "isFinished",
      "outputs": [
        {
          "internalType": "bool",
          "name": "",
          "type": "bool"
        }
      ],
      "stateMutability": "view",
      "type": "function",
      "constant": true
    },
    {
      "inputs": [
        {
          "internalType": "uint256",
          "name": "_auctionIndex",
          "type": "uint256"
        }
      ],
      "name": "getStatus",
      "outputs": [
        {
          "internalType": "enum Engine.Status",
          "name": "",
          "type": "uint8"
        }
      ],
      "stateMutability": "view",
      "type": "function",
      "constant": true
    },
    {
      "inputs": [
        {
          "internalType": "uint256",
          "name": "_auctionIndex",
          "type": "uint256"
        }
      ],
      "name": "endDate",
      "outputs": [
        {
          "internalType": "uint256",
          "name": "",
          "type": "uint256"
        }
      ],
      "stateMutability": "view",
      "type": "function",
      "constant": true
    },
    {
      "inputs": [
        {
          "internalType": "uint256",
          "name": "_auctionIndex",
          "type": "uint256"
        }
      ],
      "name": "getCurrentBidOwner",
      "outputs": [
        {
          "internalType": "address",
          "name": "",
          "type": "address"
        }
      ],
      "stateMutability": "view",
      "type": "function",
      "constant": true
    },
    {
      "inputs": [
        {
          "internalType": "uint256",
          "name": "_auctionIndex",
          "type": "uint256"
        }
      ],
      "name": "getCurrentBidAmount",
      "outputs": [
        {
          "internalType": "uint256",
          "name": "",
          "type": "uint256"
        }
      ],
      "stateMutability": "view",
      "type": "function",
      "constant": true
    },
    {
      "inputs": [
        {
          "internalType": "uint256",
          "name": "_auctionIndex",
          "type": "uint256"
        }
      ],
      "name": "getBidCount",
      "outputs": [
        {
          "internalType": "uint256",
          "name": "",
          "type": "uint256"
        }
      ],
      "stateMutability": "view",
      "type": "function",
      "constant": true
    },
    {
      "inputs": [
        {
          "internalType": "uint256",
          "name": "auctionIndex",
          "type": "uint256"
        }
      ],
      "name": "getWinner",
      "outputs": [
        {
          "internalType": "address",
          "name": "",
          "type": "address"
        }
      ],
      "stateMutability": "view",
      "type": "function",
      "constant": true
    },
    {
      "inputs": [
        {
          "internalType": "uint256",
          "name": "auctionIndex",
          "type": "uint256"
        }
      ],
      "name": "claimAsset",
      "outputs": [],
      "stateMutability": "nonpayable",
      "type": "function"
    },
    {
      "inputs": [],
      "name": "extractBalance",
      "outputs": [],
      "stateMutability": "nonpayable",
      "type": "function"
    }
  ],
  "bytecode": "0x6080604052600060025560006003553480156200001b57600080fd5b506200003c620000306200004260201b60201c565b6200004a60201b60201c565b6200010e565b600033905090565b60008060009054906101000a900473ffffffffffffffffffffffffffffffffffffffff169050816000806101000a81548173ffffffffffffffffffffffffffffffffffffffff021916908373ffffffffffffffffffffffffffffffffffffffff1602179055508173ffffffffffffffffffffffffffffffffffffffff168173ffffffffffffffffffffffffffffffffffffffff167f8be0079c531659141344cd1fd0a4f28419497f9722a3daafe3b4186f6b6457e060405160405180910390a35050565b613ff0806200011e6000396000f3fe6080604052600436106101815760003560e01c8063715018a6116100d15780638da5cb5b1161008a578063d96a094a11610064578063d96a094a146105b8578063e1489191146105d4578063e8ba6509146105ff578063f2fde38b1461063c57610181565b80638da5cb5b14610539578063ae69367314610564578063d3c2a5921461058f57610181565b8063715018a6146103ff578063744d3411146104165780637b5a96a61461045357806382afd23b1461047c57806386b46073146104b95780638a72ea6a146104f657610181565b80634129b2c91161013e578063571a26a011610118578063571a26a01461032a5780635c622a0e1461036e5780636975846a146103ab5780636af83b24146103e857610181565b80634129b2c914610294578063454a2ab3146102d15780634cac5b4b146102ed57610181565b806312f4ea2e146101865780631361a3b6146101c35780632241091b146101ec5780632b86675914610215578063355e6b43146102405780633ef14cc814610269575b600080fd5b34801561019257600080fd5b506101ad60048036038101906101a8919061339d565b610665565b6040516101ba91906139af565b60405180910390f35b3480156101cf57600080fd5b506101ea60048036038101906101e5919061339d565b610795565b005b3480156101f857600080fd5b50610213600480360381019061020e919061339d565b610a41565b005b34801561022157600080fd5b5061022a610ed0565b60405161023791906139af565b60405180910390f35b34801561024c57600080fd5b506102676004803603810190610262919061339d565b610ed8565b005b34801561027557600080fd5b5061027e610f5e565b60405161028b91906139af565b60405180910390f35b3480156102a057600080fd5b506102bb60048036038101906102b6919061339d565b610f6b565b6040516102c89190613610565b60405180910390f35b6102eb60048036038101906102e6919061339d565b611028565b005b3480156102f957600080fd5b50610314600480360381019061030f919061339d565b611336565b60405161032191906139af565b60405180910390f35b34801561033657600080fd5b50610351600480360381019061034c919061339d565b6113a6565b60405161036598979695949392919061375b565b60405180910390f35b34801561037a57600080fd5b506103956004803603810190610390919061339d565b61145e565b6040516103a291906137f4565b60405180910390f35b3480156103b757600080fd5b506103d260048036038101906103cd919061339d565b6114f8565b6040516103df91906139af565b60405180910390f35b3480156103f457600080fd5b506103fd61154d565b005b34801561040b57600080fd5b50610414611622565b005b34801561042257600080fd5b5061043d6004803603810190610438919061339d565b6116aa565b60405161044a91906139af565b60405180910390f35b34801561045f57600080fd5b5061047a600480360381019061047591906132eb565b6116ff565b005b34801561048857600080fd5b506104a3600480360381019061049e919061339d565b611a84565b6040516104b091906137d9565b60405180910390f35b3480156104c557600080fd5b506104e060048036038101906104db919061339d565b611b09565b6040516104ed9190613610565b60405180910390f35b34801561050257600080fd5b5061051d6004803603810190610518919061339d565b611b7e565b60405161053097969594939291906136ec565b60405180910390f35b34801561054557600080fd5b5061054e611c1a565b60405161055b9190613610565b60405180910390f35b34801561057057600080fd5b50610579611c43565b60405161058691906139af565b60405180910390f35b34801561059b57600080fd5b506105b660048036038101906105b1919061339d565b611c49565b005b6105d260048036038101906105cd919061339d565b61246f565b005b3480156105e057600080fd5b506105e9612d6e565b6040516105f691906139af565b60405180910390f35b34801561060b57600080fd5b506106266004803603810190610621919061339d565b612d74565b60405161063391906137d9565b60405180910390f35b34801561064857600080fd5b50610663600480360381019061065e9190613299565b612df8565b005b600080600460008481526020019081526020016000206040518060e00160405290816000820160009054906101000a900473ffffffffffffffffffffffffffffffffffffffff1673ffffffffffffffffffffffffffffffffffffffff1673ffffffffffffffffffffffffffffffffffffffff168152602001600182015481526020016002820160009054906101000a900473ffffffffffffffffffffffffffffffffffffffff1673ffffffffffffffffffffffffffffffffffffffff1673ffffffffffffffffffffffffffffffffffffffff168152602001600382015481526020016004820160009054906101000a900460ff161515151581526020016004820160019054906101000a900460ff1615151515815260200160058201548152505090508060c00151915050919050565b6000600460008381526020019081526020016000206040518060e00160405290816000820160009054906101000a900473ffffffffffffffffffffffffffffffffffffffff1673ffffffffffffffffffffffffffffffffffffffff1673ffffffffffffffffffffffffffffffffffffffff168152602001600182015481526020016002820160009054906101000a900473ffffffffffffffffffffffffffffffffffffffff1673ffffffffffffffffffffffffffffffffffffffff1673ffffffffffffffffffffffffffffffffffffffff168152602001600382015481526020016004820160009054906101000a900460ff161515151581526020016004820160019054906101000a900460ff161515151581526020016005820154815250509050806040015173ffffffffffffffffffffffffffffffffffffffff163373ffffffffffffffffffffffffffffffffffffffff1614610929576040517f08c379a0000000000000000000000000000000000000000000000000000000008152600401610920906138cf565b60405180910390fd5b6000816080019015159081151581525050806004600084815260200190815260200160002060008201518160000160006101000a81548173ffffffffffffffffffffffffffffffffffffffff021916908373ffffffffffffffffffffffffffffffffffffffff1602179055506020820151816001015560408201518160020160006101000a81548173ffffffffffffffffffffffffffffffffffffffff021916908373ffffffffffffffffffffffffffffffffffffffff1602179055506060820151816003015560808201518160040160006101000a81548160ff02191690831515021790555060a08201518160040160016101000a81548160ff02191690831515021790555060c082015181600501559050505050565b6000600460008381526020019081526020016000206040518060e00160405290816000820160009054906101000a900473ffffffffffffffffffffffffffffffffffffffff1673ffffffffffffffffffffffffffffffffffffffff1673ffffffffffffffffffffffffffffffffffffffff168152602001600182015481526020016002820160009054906101000a900473ffffffffffffffffffffffffffffffffffffffff1673ffffffffffffffffffffffffffffffffffffffff1673ffffffffffffffffffffffffffffffffffffffff168152602001600382015481526020016004820160009054906101000a900460ff161515151581526020016004820160019054906101000a900460ff161515151581526020016005820154815250509050806040015173ffffffffffffffffffffffffffffffffffffffff163373ffffffffffffffffffffffffffffffffffffffff1614610bd5576040517f08c379a0000000000000000000000000000000000000000000000000000000008152600401610bcc906138cf565b60405180910390fd5b60006001826020015181548110610c15577f4e487b7100000000000000000000000000000000000000000000000000000000600052603260045260246000fd5b9060005260206000209060080201604051806101000160405290816000820160009054906101000a900473ffffffffffffffffffffffffffffffffffffffff1673ffffffffffffffffffffffffffffffffffffffff1673ffffffffffffffffffffffffffffffffffffffff168152602001600182015481526020016002820160009054906101000a900473ffffffffffffffffffffffffffffffffffffffff1673ffffffffffffffffffffffffffffffffffffffff1673ffffffffffffffffffffffffffffffffffffffff1681526020016003820154815260200160048201548152602001600582015481526020016006820160009054906101000a900473ffffffffffffffffffffffffffffffffffffffff1673ffffffffffffffffffffffffffffffffffffffff1673ffffffffffffffffffffffffffffffffffffffff168152602001600782015481525050905060008160e0015114610dac576040517f08c379a0000000000000000000000000000000000000000000000000000000008152600401610da39061388f565b60405180910390fd5b60008260a001901515908115158152505060008260c0018181525050816004600085815260200190815260200160002060008201518160000160006101000a81548173ffffffffffffffffffffffffffffffffffffffff021916908373ffffffffffffffffffffffffffffffffffffffff1602179055506020820151816001015560408201518160020160006101000a81548173ffffffffffffffffffffffffffffffffffffffff021916908373ffffffffffffffffffffffffffffffffffffffff1602179055506060820151816003015560808201518160040160006101000a81548160ff02191690831515021790555060a08201518160040160016101000a81548160ff02191690831515021790555060c08201518160050155905050505050565b600042905090565b610ee0612ef0565b73ffffffffffffffffffffffffffffffffffffffff16610efe611c1a565b73ffffffffffffffffffffffffffffffffffffffff1614610f54576040517f08c379a0000000000000000000000000000000000000000000000000000000008152600401610f4b9061390f565b60405180910390fd5b8060028190555050565b6000600180549050905090565b6000610f7682612d74565b610fb5576040517f08c379a0000000000000000000000000000000000000000000000000000000008152600401610fac9061382f565b60405180910390fd5b60018281548110610fef577f4e487b7100000000000000000000000000000000000000000000000000000000600052603260045260246000fd5b906000526020600020906008020160060160009054906101000a900473ffffffffffffffffffffffffffffffffffffffff169050919050565b600060018281548110611064577f4e487b7100000000000000000000000000000000000000000000000000000000600052603260045260246000fd5b90600052602060002090600802019050600073ffffffffffffffffffffffffffffffffffffffff168160020160009054906101000a900473ffffffffffffffffffffffffffffffffffffffff1673ffffffffffffffffffffffffffffffffffffffff1614156110d257600080fd5b6110db82611a84565b6110e457600080fd5b8060050154341161112a576040517f08c379a00000000000000000000000000000000000000000000000000000000081526004016111219061384f565b60405180910390fd5b60008160050154141580156111b357508060020160009054906101000a900473ffffffffffffffffffffffffffffffffffffffff1673ffffffffffffffffffffffffffffffffffffffff168160060160009054906101000a900473ffffffffffffffffffffffffffffffffffffffff1673ffffffffffffffffffffffffffffffffffffffff1614155b1561128b578060060160009054906101000a900473ffffffffffffffffffffffffffffffffffffffff1673ffffffffffffffffffffffffffffffffffffffff166108fc82600501549081150290604051600060405180830381858888f19350505050158015611226573d6000803e3d6000fd5b507f972fd66eadedfb87beff023a37f4d8c6a91fdd147fa0d3c036e0c6c5a0cdc795828260060160009054906101000a900473ffffffffffffffffffffffffffffffffffffffff16836005015460405161128293929190613a2a565b60405180910390a15b348160050181905550338160060160006101000a81548173ffffffffffffffffffffffffffffffffffffffff021916908373ffffffffffffffffffffffffffffffffffffffff1602179055506112ef60018260070154612ef890919063ffffffff16565b81600701819055507fb8d756f2d1da4663767eb4d559780ace84f2f65a421a60ddcb47e8b2e5d2fd2682333460405161132a93929190613a61565b60405180910390a15050565b60008060018381548110611373577f4e487b7100000000000000000000000000000000000000000000000000000000600052603260045260246000fd5b9060005260206000209060080201905061139e81600401548260030154612ef890919063ffffffff16565b915050919050565b600181815481106113b657600080fd5b90600052602060002090600802016000915090508060000160009054906101000a900473ffffffffffffffffffffffffffffffffffffffff16908060010154908060020160009054906101000a900473ffffffffffffffffffffffffffffffffffffffff16908060030154908060040154908060050154908060060160009054906101000a900473ffffffffffffffffffffffffffffffffffffffff16908060070154905088565b6000806001838154811061149b577f4e487b7100000000000000000000000000000000000000000000000000000000600052603260045260246000fd5b9060005260206000209060080201905080600301544210156114c15760009150506114f3565b6114dc81600401548260030154612ef890919063ffffffff16565b4210156114ed5760019150506114f3565b60029150505b919050565b600060018281548110611534577f4e487b7100000000000000000000000000000000000000000000000000000000600052603260045260246000fd5b9060005260206000209060080201600501549050919050565b611555612ef0565b73ffffffffffffffffffffffffffffffffffffffff16611573611c1a565b73ffffffffffffffffffffffffffffffffffffffff16146115c9576040517f08c379a00000000000000000000000000000000000000000000000000000000081526004016115c09061390f565b60405180910390fd5b60003390508073ffffffffffffffffffffffffffffffffffffffff166108fc6003549081150290604051600060405180830381858888f19350505050158015611616573d6000803e3d6000fd5b50600060038190555050565b61162a612ef0565b73ffffffffffffffffffffffffffffffffffffffff16611648611c1a565b73ffffffffffffffffffffffffffffffffffffffff161461169e576040517f08c379a00000000000000000000000000000000000000000000000000000000081526004016116959061390f565b60405180910390fd5b6116a86000612f0e565b565b6000600182815481106116e6577f4e487b7100000000000000000000000000000000000000000000000000000000600052603260045260246000fd5b9060005260206000209060080201600701549050919050565b60008890503373ffffffffffffffffffffffffffffffffffffffff168173ffffffffffffffffffffffffffffffffffffffff16636352211e8a6040518263ffffffff1660e01b815260040161175491906139af565b60206040518083038186803b15801561176c57600080fd5b505afa158015611780573d6000803e3d6000fd5b505050506040513d601f19601f820116820180604052508101906117a491906132c2565b73ffffffffffffffffffffffffffffffffffffffff16146117fa576040517f08c379a00000000000000000000000000000000000000000000000000000000081526004016117f1906138ef565b60405180910390fd5b3073ffffffffffffffffffffffffffffffffffffffff168173ffffffffffffffffffffffffffffffffffffffff1663081812fc8a6040518263ffffffff1660e01b815260040161184a91906139af565b60206040518083038186803b15801561186257600080fd5b505afa158015611876573d6000803e3d6000fd5b505050506040513d601f19601f8201168201806040525081019061189a91906132c2565b73ffffffffffffffffffffffffffffffffffffffff16146118f0576040517f08c379a00000000000000000000000000000000000000000000000000000000081526004016118e79061398f565b60405180910390fd5b60006040518060e001604052808b73ffffffffffffffffffffffffffffffffffffffff1681526020018a81526020013373ffffffffffffffffffffffffffffffffffffffff168152602001878152602001891515815260200188151581526020016000815250905086156119755761196b8a8a878787612fd2565b8160c00181815250505b80600460008b815260200190815260200160002060008201518160000160006101000a81548173ffffffffffffffffffffffffffffffffffffffff021916908373ffffffffffffffffffffffffffffffffffffffff1602179055506020820151816001015560408201518160020160006101000a81548173ffffffffffffffffffffffffffffffffffffffff021916908373ffffffffffffffffffffffffffffffffffffffff1602179055506060820151816003015560808201518160040160006101000a81548160ff02191690831515021790555060a08201518160040160016101000a81548160ff02191690831515021790555060c0820151816005015590505050505050505050505050565b600060016002811115611ac0577f4e487b7100000000000000000000000000000000000000000000000000000000600052602160045260246000fd5b611ac98361145e565b6002811115611b01577f4e487b7100000000000000000000000000000000000000000000000000000000600052602160045260246000fd5b149050919050565b600060018281548110611b45577f4e487b7100000000000000000000000000000000000000000000000000000000600052603260045260246000fd5b906000526020600020906008020160060160009054906101000a900473ffffffffffffffffffffffffffffffffffffffff169050919050565b60046020528060005260406000206000915090508060000160009054906101000a900473ffffffffffffffffffffffffffffffffffffffff16908060010154908060020160009054906101000a900473ffffffffffffffffffffffffffffffffffffffff16908060030154908060040160009054906101000a900460ff16908060040160019054906101000a900460ff16908060050154905087565b60008060009054906101000a900473ffffffffffffffffffffffffffffffffffffffff16905090565b60035481565b611c5281612d74565b611c91576040517f08c379a0000000000000000000000000000000000000000000000000000000008152600401611c889061394f565b60405180910390fd5b600060018281548110611ccd577f4e487b7100000000000000000000000000000000000000000000000000000000600052603260045260246000fd5b906000526020600020906008020190506000611ce883610f6b565b90503373ffffffffffffffffffffffffffffffffffffffff168173ffffffffffffffffffffffffffffffffffffffff1614611d58576040517f08c379a0000000000000000000000000000000000000000000000000000000008152600401611d4f906138af565b60405180910390fd5b600060046000846001015481526020019081526020016000206040518060e00160405290816000820160009054906101000a900473ffffffffffffffffffffffffffffffffffffffff1673ffffffffffffffffffffffffffffffffffffffff1673ffffffffffffffffffffffffffffffffffffffff168152602001600182015481526020016002820160009054906101000a900473ffffffffffffffffffffffffffffffffffffffff1673ffffffffffffffffffffffffffffffffffffffff1673ffffffffffffffffffffffffffffffffffffffff168152602001600382015481526020016004820160009054906101000a900460ff161515151581526020016004820160019054906101000a900460ff161515151581526020016005820154815250509050600115158160a00151151514611ec9576040517f08c379a0000000000000000000000000000000000000000000000000000000008152600401611ec09061392f565b60405180910390fd5b60008360000160009054906101000a900473ffffffffffffffffffffffffffffffffffffffff1690508073ffffffffffffffffffffffffffffffffffffffff166323b872dd8560020160009054906101000a900473ffffffffffffffffffffffffffffffffffffffff168587600101546040518463ffffffff1660e01b8152600401611f579392919061362b565b600060405180830381600087803b158015611f7157600080fd5b505af1158015611f85573d6000803e3d6000fd5b505050507f35538759d80c1fd7bb450a0d05601db5a99fa8b5d073a07c847a9fd61029b1078584604051611fba9291906139ca565b60405180910390a160008173ffffffffffffffffffffffffffffffffffffffff1663d48e638a86600101546040518263ffffffff1660e01b815260040161200191906139af565b60206040518083038186803b15801561201957600080fd5b505afa15801561202d573d6000803e3d6000fd5b505050506040513d601f19601f8201168201806040525081019061205191906132c2565b90506000612710612071600254886005015461320490919063ffffffff16565b61207b9190613aff565b905060008660020160009054906101000a900473ffffffffffffffffffffffffffffffffffffffff1673ffffffffffffffffffffffffffffffffffffffff168373ffffffffffffffffffffffffffffffffffffffff16146122095761271061217c8573ffffffffffffffffffffffffffffffffffffffff1663bb3bafd68a600101546040518263ffffffff1660e01b815260040161211991906139af565b60206040518083038186803b15801561213157600080fd5b505afa158015612145573d6000803e3d6000fd5b505050506040513d601f19601f8201168201806040525081019061216991906133c6565b896005015461320490919063ffffffff16565b6121869190613aff565b90508273ffffffffffffffffffffffffffffffffffffffff166108fc829081150290604051600060405180830381858888f193505050501580156121ce573d6000803e3d6000fd5b507f54b960faf8b038c33ba9912fdb9ac1e8e0096c5f327d1c89e62b5d9c5357ddb68382604051612200929190613662565b60405180910390a15b600061223482612226858b6005015461321a90919063ffffffff16565b61321a90919063ffffffff16565b90508760020160009054906101000a900473ffffffffffffffffffffffffffffffffffffffff1673ffffffffffffffffffffffffffffffffffffffff166108fc829081150290604051600060405180830381858888f193505050501580156122a0573d6000803e3d6000fd5b507fdc30cf33a72c513fcddf37a0bee2e04d50e197e511f1e1dc0a0fbcf470d810018860020160009054906101000a900473ffffffffffffffffffffffffffffffffffffffff16828a6005015486868789886122fc9190613aa9565b6123069190613aa9565b6040516123189695949392919061368b565b60405180910390a161233583600354612ef890919063ffffffff16565b60038190555060008660a0019015159081151581525050600086608001901515908115158152505085600460008a60010154815260200190815260200160002060008201518160000160006101000a81548173ffffffffffffffffffffffffffffffffffffffff021916908373ffffffffffffffffffffffffffffffffffffffff1602179055506020820151816001015560408201518160020160006101000a81548173ffffffffffffffffffffffffffffffffffffffff021916908373ffffffffffffffffffffffffffffffffffffffff1602179055506060820151816003015560808201518160040160006101000a81548160ff02191690831515021790555060a08201518160040160016101000a81548160ff02191690831515021790555060c08201518160050155905050505050505050505050565b600033905060003490506000600460008581526020019081526020016000206040518060e00160405290816000820160009054906101000a900473ffffffffffffffffffffffffffffffffffffffff1673ffffffffffffffffffffffffffffffffffffffff1673ffffffffffffffffffffffffffffffffffffffff168152602001600182015481526020016002820160009054906101000a900473ffffffffffffffffffffffffffffffffffffffff1673ffffffffffffffffffffffffffffffffffffffff1673ffffffffffffffffffffffffffffffffffffffff168152602001600382015481526020016004820160009054906101000a900460ff161515151581526020016004820160019054906101000a900460ff1615151515815260200160058201548152505090506001151581608001511515146125e6576040517f08c379a00000000000000000000000000000000000000000000000000000000081526004016125dd9061396f565b60405180910390fd5b60008160600151905080831015612632576040517f08c379a00000000000000000000000000000000000000000000000000000000081526004016126299061380f565b60405180910390fd5b7f35538759d80c1fd7bb450a0d05601db5a99fa8b5d073a07c847a9fd61029b10785856040516126639291906139ca565b60405180910390a16000826000015190508073ffffffffffffffffffffffffffffffffffffffff166323b872dd846040015187896040518463ffffffff1660e01b81526004016126b59392919061362b565b600060405180830381600087803b1580156126cf57600080fd5b505af11580156126e3573d6000803e3d6000fd5b5050505060008173ffffffffffffffffffffffffffffffffffffffff1663d48e638a886040518263ffffffff1660e01b815260040161272291906139af565b60206040518083038186803b15801561273a57600080fd5b505afa15801561274e573d6000803e3d6000fd5b505050506040513d601f19601f8201168201806040525081019061277291906132c2565b9050600061271061278e6002548861320490919063ffffffff16565b6127989190613aff565b90506000856040015173ffffffffffffffffffffffffffffffffffffffff168373ffffffffffffffffffffffffffffffffffffffff16146128fe576127106128718573ffffffffffffffffffffffffffffffffffffffff1663bb3bafd68c6040518263ffffffff1660e01b815260040161281291906139af565b60206040518083038186803b15801561282a57600080fd5b505afa15801561283e573d6000803e3d6000fd5b505050506040513d601f19601f8201168201806040525081019061286291906133c6565b8961320490919063ffffffff16565b61287b9190613aff565b90508273ffffffffffffffffffffffffffffffffffffffff166108fc829081150290604051600060405180830381858888f193505050501580156128c3573d6000803e3d6000fd5b507f54b960faf8b038c33ba9912fdb9ac1e8e0096c5f327d1c89e62b5d9c5357ddb683826040516128f5929190613662565b60405180910390a15b600061292582612917858b61321a90919063ffffffff16565b61321a90919063ffffffff16565b9050866040015173ffffffffffffffffffffffffffffffffffffffff166108fc829081150290604051600060405180830381858888f19350505050158015612971573d6000803e3d6000fd5b507fdc30cf33a72c513fcddf37a0bee2e04d50e197e511f1e1dc0a0fbcf470d810018760400151828a86866127106002548f6129ad9190613b30565b6129b79190613aff565b876129c29190613aa9565b6040516129d49695949392919061368b565b60405180910390a1600115158760a0015115151415612c2257600060018860c0015181548110612a2d577f4e487b7100000000000000000000000000000000000000000000000000000000600052603260045260246000fd5b9060005260206000209060080201604051806101000160405290816000820160009054906101000a900473ffffffffffffffffffffffffffffffffffffffff1673ffffffffffffffffffffffffffffffffffffffff1673ffffffffffffffffffffffffffffffffffffffff168152602001600182015481526020016002820160009054906101000a900473ffffffffffffffffffffffffffffffffffffffff1673ffffffffffffffffffffffffffffffffffffffff1673ffffffffffffffffffffffffffffffffffffffff1681526020016003820154815260200160048201548152602001600582015481526020016006820160009054906101000a900473ffffffffffffffffffffffffffffffffffffffff1673ffffffffffffffffffffffffffffffffffffffff1673ffffffffffffffffffffffffffffffffffffffff168152602001600782015481525050905060008160a0015114612c20578060c0015173ffffffffffffffffffffffffffffffffffffffff166108fc8260a001519081150290604051600060405180830381858888f19350505050158015612bd7573d6000803e3d6000fd5b507f972fd66eadedfb87beff023a37f4d8c6a91fdd147fa0d3c036e0c6c5a0cdc7958860c001518260c001518360a00151604051612c1793929190613a2a565b60405180910390a15b505b612c3783600354612ef890919063ffffffff16565b60038190555060008760a0019015159081151581525050600087608001901515908115158152505086600460008c815260200190815260200160002060008201518160000160006101000a81548173ffffffffffffffffffffffffffffffffffffffff021916908373ffffffffffffffffffffffffffffffffffffffff1602179055506020820151816001015560408201518160020160006101000a81548173ffffffffffffffffffffffffffffffffffffffff021916908373ffffffffffffffffffffffffffffffffffffffff1602179055506060820151816003015560808201518160040160006101000a81548160ff02191690831515021790555060a08201518160040160016101000a81548160ff02191690831515021790555060c0820151816005015590505050505050505050505050565b60025481565b6000600280811115612daf577f4e487b7100000000000000000000000000000000000000000000000000000000600052602160045260246000fd5b612db88361145e565b6002811115612df0577f4e487b7100000000000000000000000000000000000000000000000000000000600052602160045260246000fd5b149050919050565b612e00612ef0565b73ffffffffffffffffffffffffffffffffffffffff16612e1e611c1a565b73ffffffffffffffffffffffffffffffffffffffff1614612e74576040517f08c379a0000000000000000000000000000000000000000000000000000000008152600401612e6b9061390f565b60405180910390fd5b600073ffffffffffffffffffffffffffffffffffffffff168173ffffffffffffffffffffffffffffffffffffffff161415612ee4576040517f08c379a0000000000000000000000000000000000000000000000000000000008152600401612edb9061386f565b60405180910390fd5b612eed81612f0e565b50565b600033905090565b60008183612f069190613aa9565b905092915050565b60008060009054906101000a900473ffffffffffffffffffffffffffffffffffffffff169050816000806101000a81548173ffffffffffffffffffffffffffffffffffffffff021916908373ffffffffffffffffffffffffffffffffffffffff1602179055508173ffffffffffffffffffffffffffffffffffffffff168173ffffffffffffffffffffffffffffffffffffffff167f8be0079c531659141344cd1fd0a4f28419497f9722a3daafe3b4186f6b6457e060405160405180910390a35050565b600080831415612fe0574292505b60006040518061010001604052808873ffffffffffffffffffffffffffffffffffffffff1681526020018781526020013373ffffffffffffffffffffffffffffffffffffffff168152602001858152602001848152602001868152602001600073ffffffffffffffffffffffffffffffffffffffff16815260200160008152509050600181908060018154018082558091505060019003906000526020600020906008020160009091909190915060008201518160000160006101000a81548173ffffffffffffffffffffffffffffffffffffffff021916908373ffffffffffffffffffffffffffffffffffffffff1602179055506020820151816001015560408201518160020160006101000a81548173ffffffffffffffffffffffffffffffffffffffff021916908373ffffffffffffffffffffffffffffffffffffffff160217905550606082015181600301556080820151816004015560a0820151816005015560c08201518160060160006101000a81548173ffffffffffffffffffffffffffffffffffffffff021916908373ffffffffffffffffffffffffffffffffffffffff16021790555060e08201518160070155505060006131b16001808054905061321a90919063ffffffff16565b90507f512995dd21f4740d4aba0bdfb032eb8fdad6034f857101e2217bef00c285015f81836040015184600001516040516131ee939291906139f3565b60405180910390a1809250505095945050505050565b600081836132129190613b30565b905092915050565b600081836132289190613b8a565b905092915050565b60008135905061323f81613f75565b92915050565b60008151905061325481613f75565b92915050565b60008135905061326981613f8c565b92915050565b60008135905061327e81613fa3565b92915050565b60008151905061329381613fa3565b92915050565b6000602082840312156132ab57600080fd5b60006132b984828501613230565b91505092915050565b6000602082840312156132d457600080fd5b60006132e284828501613245565b91505092915050565b600080600080600080600080610100898b03121561330857600080fd5b60006133168b828c01613230565b98505060206133278b828c0161326f565b97505060406133388b828c0161325a565b96505060606133498b828c0161325a565b955050608061335a8b828c0161326f565b94505060a061336b8b828c0161326f565b93505060c061337c8b828c0161326f565b92505060e061338d8b828c0161326f565b9150509295985092959890939650565b6000602082840312156133af57600080fd5b60006133bd8482850161326f565b91505092915050565b6000602082840312156133d857600080fd5b60006133e684828501613284565b91505092915050565b6133f881613c2b565b82525050565b61340781613bd0565b82525050565b61341681613bbe565b82525050565b61342581613be2565b82525050565b61343481613c3d565b82525050565b6000613447601383613a98565b915061345282613d00565b602082019050919050565b600061346a601883613a98565b915061347582613d29565b602082019050919050565b600061348d600b83613a98565b915061349882613d52565b602082019050919050565b60006134b0602683613a98565b91506134bb82613d7b565b604082019050919050565b60006134d3600d83613a98565b91506134de82613dca565b602082019050919050565b60006134f6602583613a98565b915061350182613df3565b604082019050919050565b6000613519601583613a98565b915061352482613e42565b602082019050919050565b600061353c600d83613a98565b915061354782613e6b565b602082019050919050565b600061355f602083613a98565b915061356a82613e94565b602082019050919050565b6000613582601283613a98565b915061358d82613ebd565b602082019050919050565b60006135a5601b83613a98565b91506135b082613ee6565b602082019050919050565b60006135c8601683613a98565b91506135d382613f0f565b602082019050919050565b60006135eb601083613a98565b91506135f682613f38565b602082019050919050565b61360a81613c21565b82525050565b6000602082019050613625600083018461340d565b92915050565b600060608201905061364060008301866133ef565b61364d602083018561340d565b61365a6040830184613601565b949350505050565b600060408201905061367760008301856133ef565b6136846020830184613601565b9392505050565b600060c0820190506136a060008301896133ef565b6136ad6020830188613601565b6136ba6040830187613601565b6136c76060830186613601565b6136d46080830185613601565b6136e160a0830184613601565b979650505050505050565b600060e082019050613701600083018a61340d565b61370e6020830189613601565b61371b60408301886133fe565b6137286060830187613601565b613735608083018661341c565b61374260a083018561341c565b61374f60c0830184613601565b98975050505050505050565b600061010082019050613771600083018b61340d565b61377e602083018a613601565b61378b60408301896133fe565b6137986060830188613601565b6137a56080830187613601565b6137b260a0830186613601565b6137bf60c08301856133fe565b6137cc60e0830184613601565b9998505050505050505050565b60006020820190506137ee600083018461341c565b92915050565b6000602082019050613809600083018461342b565b92915050565b600060208201905081810360008301526138288161343a565b9050919050565b600060208201905081810360008301526138488161345d565b9050919050565b6000602082019050818103600083015261386881613480565b9050919050565b60006020820190508181036000830152613888816134a3565b9050919050565b600060208201905081810360008301526138a8816134c6565b9050919050565b600060208201905081810360008301526138c8816134e9565b9050919050565b600060208201905081810360008301526138e88161350c565b9050919050565b600060208201905081810360008301526139088161352f565b9050919050565b6000602082019050818103600083015261392881613552565b9050919050565b6000602082019050818103600083015261394881613575565b9050919050565b6000602082019050818103600083015261396881613598565b9050919050565b60006020820190508181036000830152613988816135bb565b9050919050565b600060208201905081810360008301526139a8816135de565b9050919050565b60006020820190506139c46000830184613601565b92915050565b60006040820190506139df6000830185613601565b6139ec602083018461340d565b9392505050565b6000606082019050613a086000830186613601565b613a1560208301856133ef565b613a22604083018461340d565b949350505050565b6000606082019050613a3f6000830186613601565b613a4c60208301856133ef565b613a596040830184613601565b949350505050565b6000606082019050613a766000830186613601565b613a83602083018561340d565b613a906040830184613601565b949350505050565b600082825260208201905092915050565b6000613ab482613c21565b9150613abf83613c21565b9250827fffffffffffffffffffffffffffffffffffffffffffffffffffffffffffffffff03821115613af457613af3613c73565b5b828201905092915050565b6000613b0a82613c21565b9150613b1583613c21565b925082613b2557613b24613ca2565b5b828204905092915050565b6000613b3b82613c21565b9150613b4683613c21565b9250817fffffffffffffffffffffffffffffffffffffffffffffffffffffffffffffffff0483118215151615613b7f57613b7e613c73565b5b828202905092915050565b6000613b9582613c21565b9150613ba083613c21565b925082821015613bb357613bb2613c73565b5b828203905092915050565b6000613bc982613c01565b9050919050565b6000613bdb82613c01565b9050919050565b60008115159050919050565b6000819050613bfc82613f61565b919050565b600073ffffffffffffffffffffffffffffffffffffffff82169050919050565b6000819050919050565b6000613c3682613c4f565b9050919050565b6000613c4882613bee565b9050919050565b6000613c5a82613c61565b9050919050565b6000613c6c82613c01565b9050919050565b7f4e487b7100000000000000000000000000000000000000000000000000000000600052601160045260246000fd5b7f4e487b7100000000000000000000000000000000000000000000000000000000600052601260045260246000fd5b7f4e487b7100000000000000000000000000000000000000000000000000000000600052602160045260246000fd5b7f5072696365206973206e6f7420656e6f75676800000000000000000000000000600082015250565b7f41756374696f6e206e6f742066696e6973686564207965740000000000000000600082015250565b7f42696420746f6f206c6f77000000000000000000000000000000000000000000600082015250565b7f4f776e61626c653a206e6577206f776e657220697320746865207a65726f206160008201527f6464726573730000000000000000000000000000000000000000000000000000602082015250565b7f42696473206578697374696e6700000000000000000000000000000000000000600082015250565b7f596f7520617265206e6f74207468652077696e6e6572206f662074686520617560008201527f6374696f6e000000000000000000000000000000000000000000000000000000602082015250565b7f596f7520617265206e6f7420746865206f776e65720000000000000000000000600082015250565b7f4e6f7420746865206f776e657200000000000000000000000000000000000000600082015250565b7f4f776e61626c653a2063616c6c6572206973206e6f7420746865206f776e6572600082015250565b7f4e4654206e6f7420696e2061756374696f6e0000000000000000000000000000600082015250565b7f5468652061756374696f6e206973207374696c6c206163746976650000000000600082015250565b7f4e4654206e6f7420696e206469726563742073616c6500000000000000000000600082015250565b7f4e4654206e6f7420617070726f76656400000000000000000000000000000000600082015250565b60038110613f7257613f71613cd1565b5b50565b613f7e81613bbe565b8114613f8957600080fd5b50565b613f9581613be2565b8114613fa057600080fd5b50565b613fac81613c21565b8114613fb757600080fd5b5056fea2646970667358221220bd1d8792c7a88566939b024d71f5b5dd21183e2e09582373771da965a6939acc64736f6c63430008040033",
  "immutableReferences": {},
  "source": "// SPDX-License-Identifier: UNLICENSED\r\npragma solidity 0.8.4;\r\n\r\n//import \"./AddressUtils.sol\";\r\nimport \"@openzeppelin/contracts/token/ERC721/ERC721.sol\";\r\nimport \"@openzeppelin/contracts/access/Ownable.sol\";\r\nimport \"./PumlNFT.sol\";\r\nimport \"@openzeppelin/contracts/utils/math/SafeMath.sol\";\r\n\r\ncontract Engine is Ownable {\r\n    using SafeMath for uint256;\r\n\r\n    // Event triggered when an auction is created\r\n    event AuctionCreated(uint256 _index, address _creator, address _asset);\r\n    // Event triggered when an auction receives a bid\r\n    event AuctionBid(uint256 _index, address _bidder, uint256 amount);\r\n    // Event triggered when an ended auction winner claims the NFT\r\n    event Claim(uint256 auctionIndex, address claimer);\r\n    // Event triggered when an auction received a bid that implies sending funds back to previous best bidder\r\n    event ReturnBidFunds(uint256 _index, address _bidder, uint256 amount);\r\n    // Event triggered when a royalties payment is generated, either on direct sales or on auctions\r\n    event Royalties(address receiver, uint256 amount);\r\n    // Event triggered when a payment to the owner is generated, either on direct sales or on auctions.assetAddress\r\n    // This event is useful to check that all the payments funds are the right ones.\r\n    event PaymentToOwner(\r\n        address receiver,\r\n        uint256 amount,\r\n        uint256 paidByCustomer,\r\n        uint256 commission,\r\n        uint256 royalties,\r\n        uint256 safetyCheckValue\r\n    );\r\n\r\n    // Status of an auction, calculated using the start date, the duration and the current timeblock\r\n    enum Status {pending, active, finished}\r\n    // Data of an auction\r\n    struct Auction {\r\n        address assetAddress;               // token address\r\n        uint256 assetId;                    // token id\r\n        address payable creator;            // creator of the auction, which is the token owner\r\n        uint256 startTime;                  // time (unix, in seconds) where the auction will start\r\n        uint256 duration;                   // duration in seconds of the auction\r\n        uint256 currentBidAmount;           // amount in ETH of the current bid amount\r\n        address payable currentBidOwner;    // address of the user who places the best bid\r\n        uint256 bidCount;                   // number of bids of the auction\r\n    }\r\n    Auction[] public auctions;\r\n\r\n    uint256 public commission = 0; // this is the commission in basic points that will charge the marketplace by default.\r\n    uint256 public accumulatedCommission = 0; // this is the amount in ETH accumulated on marketplace wallet\r\n\r\n    struct Offer {\r\n        address assetAddress;       // address of the token\r\n        uint256 tokenId;            // the tokenId returned when calling \"createItem\"\r\n        address payable creator;    // who creates the offer\r\n        uint256 price;              // price of each token\r\n        bool isOnSale;              // is on sale or not\r\n        bool isAuction;             // is this offer is for an auction\r\n        uint256 idAuction;          // the id of the auction\r\n    }\r\n    mapping(uint256 => Offer) public offers;\r\n\r\n    // Every time a token is put on sale, an offer is created. An offer can be a direct sale, an auction\r\n    // or a combination of both.\r\n    function createOffer(\r\n        address _assetAddress,  // address of the token\r\n        uint256 _tokenId,       // tokenId\r\n        bool _isDirectSale,     // true if can be bought on a direct sale\r\n        bool _isAuction,        // true if can be bought in an auction\r\n        uint256 _price,         // price that if paid in a direct sale, transfers the NFT\r\n        uint256 _startPrice,    // minimum price on the auction\r\n        uint256 _startTime,     // time when the auction will start. Check the format with frontend\r\n        uint256 _duration       // duration in seconds of the auction\r\n    ) public {\r\n        ERC721 asset = ERC721(_assetAddress);\r\n        require(asset.ownerOf(_tokenId) == msg.sender, \"Not the owner\");\r\n        require(\r\n            asset.getApproved(_tokenId) == address(this),\r\n            \"NFT not approved\"\r\n        );\r\n        // First create the offer\r\n        Offer memory offer =\r\n            Offer({\r\n                assetAddress: _assetAddress,\r\n                tokenId: _tokenId,\r\n                creator: payable(msg.sender),\r\n                price: _price,\r\n                isOnSale: _isDirectSale,\r\n                isAuction: _isAuction,\r\n                idAuction: 0\r\n            });\r\n        // only if the offer has the \"is_auction\" flag, add the auction to the list\r\n        if (_isAuction) {\r\n            offer.idAuction = createAuction(\r\n                _assetAddress,\r\n                _tokenId,\r\n                _startPrice,\r\n                _startTime,\r\n                _duration\r\n            );\r\n        }\r\n        offers[_tokenId] = offer;\r\n    }\r\n\r\n    // returns the auctionId from the offerId\r\n    function getAuctionId(uint256 _tokenId) public view returns (uint256) {\r\n        Offer memory offer = offers[_tokenId];\r\n        return offer.idAuction;\r\n    }\r\n\r\n    // this method returns the current date and time of the blockchain. Used also to check the contract is alive\r\n    function ahora() public view returns (uint256) {\r\n        return block.timestamp;\r\n    }\r\n\r\n    // Remove an auction from the offer that did not have previous bids. Beware could be a direct sale\r\n    function removeFromAuction(uint256 _tokenId) public {\r\n        Offer memory offer = offers[_tokenId];\r\n        require(msg.sender == offer.creator, \"You are not the owner\");\r\n        Auction memory auction = auctions[offer.tokenId];\r\n        require(auction.bidCount == 0, \"Bids existing\");\r\n        offer.isAuction = false;\r\n        offer.idAuction = 0;\r\n        offers[_tokenId] = offer;\r\n    }\r\n\r\n    // remove a direct sale from an offer. Beware that could be an auction for the token\r\n    function removeFromSale(uint256 _tokenId) public {\r\n        Offer memory offer = offers[_tokenId];\r\n        require(msg.sender == offer.creator, \"You are not the owner\");\r\n        offer.isOnSale = false;\r\n        offers[_tokenId] = offer;\r\n    }\r\n\r\n    // Changes the default commission. Only the owner of the marketplace can do that. In basic points\r\n    function setCommission(uint256 _commission) public onlyOwner {\r\n        commission = _commission;\r\n    }\r\n\r\n    // called in a direct sale by the customer. Transfer the nft to the customer, the royalties (if any)\r\n    // to the token creator, the commission for the marketplace is keeped on the contract and the remaining\r\n    // funds are transferred to the token owner.\r\n    // is there is an auction open, the last bid amount is sent back to the last bidder\r\n    // After that, the offer is cleared.\r\n    function buy(uint256 _tokenId) external payable {\r\n        address buyer = msg.sender;\r\n        uint256 paidPrice = msg.value;\r\n\r\n        Offer memory offer = offers[_tokenId];\r\n        require(offer.isOnSale == true, \"NFT not in direct sale\");\r\n        uint256 price = offer.price;\r\n        require(paidPrice >= price, \"Price is not enough\");\r\n\r\n        emit Claim(_tokenId, buyer);\r\n        PumlNFT asset = PumlNFT(offer.assetAddress);\r\n        asset.transferFrom(offer.creator, buyer, _tokenId);\r\n\r\n        // now, pay the amount - commission - royalties to the auction creator\r\n        address payable creatorNFT = payable(asset.getCreator(_tokenId));\r\n\r\n        uint256 commissionToPay = (paidPrice.mul(commission)) / 10000;\r\n        uint256 royaltiesToPay = 0;\r\n        if (creatorNFT != offer.creator) {\r\n            // It is a resale. Transfer royalties\r\n            royaltiesToPay = (paidPrice.mul(asset.getRoyalties(_tokenId))) / 10000;\r\n            creatorNFT.transfer(royaltiesToPay);\r\n            emit Royalties(creatorNFT, royaltiesToPay);\r\n        }\r\n        uint256 amountToPay = paidPrice.sub(commissionToPay).sub(royaltiesToPay);\r\n\r\n        offer.creator.transfer(amountToPay);\r\n        emit PaymentToOwner(\r\n            offer.creator,\r\n            amountToPay, \r\n            paidPrice,\r\n            commissionToPay,\r\n            royaltiesToPay,\r\n            amountToPay + ((paidPrice * commission) / 10000) // using safemath will trigger an error because of stack size\r\n        );\r\n\r\n        // is there is an auction open, we have to give back the last bid amount to the last bidder\r\n        if (offer.isAuction == true) {\r\n            Auction memory auction = auctions[offer.idAuction];\r\n            if (auction.currentBidAmount != 0) {\r\n                // return funds to the previuos bidder\r\n                auction.currentBidOwner.transfer(auction.currentBidAmount);\r\n                emit ReturnBidFunds(\r\n                    offer.idAuction,\r\n                    auction.currentBidOwner,\r\n                    auction.currentBidAmount\r\n                );\r\n            }\r\n        }\r\n\r\n        accumulatedCommission = accumulatedCommission.add(commissionToPay);\r\n\r\n        offer.isAuction = false;\r\n        offer.isOnSale = false;\r\n        offers[_tokenId] = offer;\r\n    }\r\n\r\n    // Creates an auction for a token. It is linked to an offer\r\n    function createAuction(\r\n        address _assetAddress, // address of the PumlNFT token\r\n        uint256 _assetId, // id of the NFT\r\n        uint256 _startPrice, // minimum price\r\n        uint256 _startTime, // time when the auction will start. Check with frontend because is unix time in seconds, not millisecs!\r\n        uint256 _duration // duration in seconds of the auction\r\n    ) private returns (uint256) {\r\n        if (_startTime == 0) {\r\n            _startTime = block.timestamp;\r\n        }\r\n\r\n        Auction memory auction =\r\n            Auction({\r\n                creator: payable(msg.sender),\r\n                assetAddress: _assetAddress,\r\n                assetId: _assetId,\r\n                startTime: _startTime,\r\n                duration: _duration,\r\n                currentBidAmount: _startPrice,\r\n                currentBidOwner: payable(address(0)),\r\n                bidCount: 0\r\n            });\r\n        auctions.push(auction);\r\n        uint256 index = auctions.length.sub(1);\r\n\r\n        emit AuctionCreated(index, auction.creator, auction.assetAddress);\r\n\r\n        return index;\r\n    }\r\n\r\n    // At the end of the call, the amount is saved on the marketplace wallet and the previous bid amount is returned to old bidder\r\n    // except in the case of the first bid, as could exists a minimum price set by the creator as first bid.\r\n    function bid(uint256 auctionIndex) public payable {\r\n        Auction storage auction = auctions[auctionIndex];\r\n        require(auction.creator != address(0));\r\n        require(isActive(auctionIndex));\r\n        require(msg.value > auction.currentBidAmount, \"Bid too low\");\r\n        // we got a better bid. Return funds to the previous best bidder\r\n        // and register the sender as `currentBidOwner`\r\n\r\n        // this check is for not transferring back funds on the first bid, as the fist bid is the minimum price set by the auction creator\r\n        if (\r\n            auction.currentBidAmount != 0 &&\r\n            auction.currentBidOwner != auction.creator\r\n        ) {\r\n            // return funds to the previuos bidder\r\n            auction.currentBidOwner.transfer(auction.currentBidAmount);\r\n            emit ReturnBidFunds(\r\n                auctionIndex,\r\n                auction.currentBidOwner,\r\n                auction.currentBidAmount\r\n            );\r\n        }\r\n        // register new bidder\r\n        auction.currentBidAmount = msg.value;\r\n        auction.currentBidOwner = payable(msg.sender);\r\n        auction.bidCount = auction.bidCount.add(1);\r\n\r\n        emit AuctionBid(auctionIndex, msg.sender, msg.value);\r\n    }\r\n\r\n    function getTotalAuctions() public view returns (uint256) {\r\n        return auctions.length;\r\n    }\r\n\r\n    function isActive(uint256 _auctionIndex) public view returns (bool) {\r\n        return getStatus(_auctionIndex) == Status.active;\r\n    }\r\n\r\n    function isFinished(uint256 _auctionIndex) public view returns (bool) {\r\n        return getStatus(_auctionIndex) == Status.finished;\r\n    }\r\n\r\n    // The auctions did not be affected if the current time is 15 seconds wrong\r\n    // So, according to Consensys security advices, it is safe using block.timestamp\r\n    function getStatus(uint256 _auctionIndex) public view returns (Status) {\r\n        Auction storage auction = auctions[_auctionIndex];\r\n        if (block.timestamp < auction.startTime) {\r\n            return Status.pending;\r\n        } else if (block.timestamp < auction.startTime.add(auction.duration)) {\r\n            return Status.active;\r\n        } else {\r\n            return Status.finished;\r\n        }\r\n    }\r\n\r\n    // returns the end date of the auction, in unix time using seconds\r\n    function endDate(uint256 _auctionIndex) public view returns (uint256) {\r\n        Auction storage auction = auctions[_auctionIndex];\r\n        return auction.startTime.add(auction.duration);\r\n    }\r\n\r\n    // returns the user with the best bid until now on an auction\r\n    function getCurrentBidOwner(uint256 _auctionIndex) public view returns (address)\r\n    {\r\n        return auctions[_auctionIndex].currentBidOwner;\r\n    }\r\n\r\n    // returns the amount in ETH of the best bid until now on an auction\r\n    function getCurrentBidAmount(uint256 _auctionIndex) public view returns (uint256)\r\n    {\r\n        return auctions[_auctionIndex].currentBidAmount;\r\n    }\r\n\r\n    // returns the number of bids of an auction (0 by default)\r\n    function getBidCount(uint256 _auctionIndex) public view returns (uint256) {\r\n        return auctions[_auctionIndex].bidCount;\r\n    }\r\n\r\n    // returns the winner of an auction once the auction finished\r\n    function getWinner(uint256 auctionIndex) public view returns (address) {\r\n        require(isFinished(auctionIndex), \"Auction not finished yet\");\r\n        return auctions[auctionIndex].currentBidOwner;\r\n    }\r\n \r\n    // called when the auction is finished by the user who won the auction\r\n    // transfer the nft to the caller, the royalties (if any) to the nft creator\r\n    // the commission of the marketplace is calculated, and the remaining funds\r\n    // are transferred to the token owner\r\n    // After this, the offer is disabled\r\n    function claimAsset(uint256 auctionIndex) public {\r\n        require(isFinished(auctionIndex), \"The auction is still active\");\r\n        Auction storage auction = auctions[auctionIndex];\r\n\r\n        address winner = getWinner(auctionIndex);\r\n        require(winner == msg.sender, \"You are not the winner of the auction\");\r\n\r\n        // the token could be sold in direct sale or the owner cancelled the auction\r\n        Offer memory offer = offers[auction.assetId];\r\n        require(offer.isAuction == true, \"NFT not in auction\");\r\n\r\n        PumlNFT asset = PumlNFT(auction.assetAddress);\r\n        asset.transferFrom(auction.creator, winner, auction.assetId);\r\n\r\n        emit Claim(auctionIndex, winner);\r\n\r\n        // now, pay the amount - commission - royalties to the auction creator\r\n        address payable creatorNFT = payable(asset.getCreator(auction.assetId));\r\n        uint256 commissionToPay =\r\n            (auction.currentBidAmount.mul(commission)) / 10000;\r\n        uint256 royaltiesToPay = 0;\r\n        if (creatorNFT != auction.creator) {\r\n            // It is a resale. Transfer royalties\r\n            royaltiesToPay =\r\n                (auction.currentBidAmount.mul(asset.getRoyalties(auction.assetId))) /\r\n                10000;\r\n            creatorNFT.transfer(royaltiesToPay);\r\n            emit Royalties(creatorNFT, royaltiesToPay);\r\n        }\r\n        uint256 amountToPay =\r\n            auction.currentBidAmount.sub(commissionToPay).sub(royaltiesToPay);\r\n\r\n        auction.creator.transfer(amountToPay);\r\n        emit PaymentToOwner(\r\n            auction.creator,\r\n            amountToPay,\r\n            auction.currentBidAmount,\r\n            commissionToPay,\r\n            royaltiesToPay,\r\n            amountToPay + commissionToPay + royaltiesToPay\r\n        );\r\n\r\n        accumulatedCommission = accumulatedCommission.add(commissionToPay);\r\n\r\n        offer.isAuction = false;\r\n        offer.isOnSale = false;\r\n        offers[auction.assetId] = offer;\r\n    }\r\n\r\n    // This method is only callable by the marketplace owner and transfer funds from\r\n    // the marketplace to the caller. \r\n    // It us used to move the funds from the marketplace to the investors\r\n    function extractBalance() public onlyOwner {\r\n        address payable me = payable(msg.sender);\r\n        me.transfer(accumulatedCommission);\r\n        accumulatedCommission = 0;\r\n    }\r\n}\r\n",
  "sourcePath": "/Volumes/Work/work/PUML/ethcontracts/contracts/Engine.sol",
  "compiler": {
    "name": "solc",
    "version": "0.8.4+commit.c7e474f2.Emscripten.clang"
  },
  "schemaVersion": "3.4.3",
  "updatedAt": "2021-09-14T03:39:45.561Z",
  "networkType": "ethereum",
  "devdoc": {
    "kind": "dev",
    "methods": {
      "owner()": {
        "details": "Returns the address of the current owner."
      },
      "renounceOwnership()": {
        "details": "Leaves the contract without owner. It will not be possible to call `onlyOwner` functions anymore. Can only be called by the current owner. NOTE: Renouncing ownership will leave the contract without an owner, thereby removing any functionality that is only available to the owner."
      },
      "transferOwnership(address)": {
        "details": "Transfers ownership of the contract to a new account (`newOwner`). Can only be called by the current owner."
      }
    },
    "version": 1
  },
  "userdoc": {
    "kind": "user",
    "methods": {},
    "version": 1
  }
}