{
  "contractName": "Engine",
  "abi": [
    {
      "inputs": [
        {
          "internalType": "address",
          "name": "_stakeAddress",
          "type": "address"
        }
      ],
      "stateMutability": "nonpayable",
      "type": "constructor"
    },
    {
      "anonymous": false,
      "inputs": [
        {
          "indexed": false,
          "internalType": "uint256",
          "name": "_index",
          "type": "uint256"
        },
        {
          "indexed": false,
          "internalType": "address",
          "name": "_bidder",
          "type": "address"
        },
        {
          "indexed": false,
          "internalType": "uint256",
          "name": "amount",
          "type": "uint256"
        }
      ],
      "name": "AuctionBid",
      "type": "event"
    },
    {
      "anonymous": false,
      "inputs": [
        {
          "indexed": false,
          "internalType": "uint256",
          "name": "_auctionId",
          "type": "uint256"
        },
        {
          "indexed": false,
          "internalType": "address",
          "name": "_creator",
          "type": "address"
        },
        {
          "indexed": false,
          "internalType": "uint256",
          "name": "_tokenId",
          "type": "uint256"
        },
        {
          "indexed": false,
          "internalType": "uint256",
          "name": "_startPrice",
          "type": "uint256"
        }
      ],
      "name": "AuctionCreated",
      "type": "event"
    },
    {
      "anonymous": false,
      "inputs": [
        {
          "indexed": false,
          "internalType": "uint256",
          "name": "_index",
          "type": "uint256"
        },
        {
          "indexed": false,
          "internalType": "address",
          "name": "buyer",
          "type": "address"
        },
        {
          "indexed": false,
          "internalType": "uint256",
          "name": "_amount",
          "type": "uint256"
        }
      ],
      "name": "Buy",
      "type": "event"
    },
    {
      "anonymous": false,
      "inputs": [
        {
          "indexed": false,
          "internalType": "uint256",
          "name": "auctionIndex",
          "type": "uint256"
        },
        {
          "indexed": false,
          "internalType": "address",
          "name": "claimer",
          "type": "address"
        }
      ],
      "name": "Claim",
      "type": "event"
    },
    {
      "anonymous": false,
      "inputs": [
        {
          "indexed": false,
          "internalType": "uint256",
          "name": "_tokenId",
          "type": "uint256"
        },
        {
          "indexed": false,
          "internalType": "address",
          "name": "_creator",
          "type": "address"
        },
        {
          "indexed": false,
          "internalType": "address",
          "name": "_asset",
          "type": "address"
        },
        {
          "indexed": false,
          "internalType": "uint256",
          "name": "numCopies",
          "type": "uint256"
        },
        {
          "indexed": false,
          "internalType": "uint256",
          "name": "amount",
          "type": "uint256"
        },
        {
          "indexed": false,
          "internalType": "bool",
          "name": "isSale",
          "type": "bool"
        }
      ],
      "name": "OfferCreated",
      "type": "event"
    },
    {
      "anonymous": false,
      "inputs": [
        {
          "indexed": true,
          "internalType": "address",
          "name": "previousOwner",
          "type": "address"
        },
        {
          "indexed": true,
          "internalType": "address",
          "name": "newOwner",
          "type": "address"
        }
      ],
      "name": "OwnershipTransferred",
      "type": "event"
    },
    {
      "anonymous": false,
      "inputs": [
        {
          "indexed": false,
          "internalType": "address",
          "name": "receiver",
          "type": "address"
        },
        {
          "indexed": false,
          "internalType": "uint256",
          "name": "amount",
          "type": "uint256"
        },
        {
          "indexed": false,
          "internalType": "uint256",
          "name": "commission",
          "type": "uint256"
        },
        {
          "indexed": false,
          "internalType": "uint256",
          "name": "royalties",
          "type": "uint256"
        },
        {
          "indexed": false,
          "internalType": "uint256",
          "name": "safetyCheckValue",
          "type": "uint256"
        }
      ],
      "name": "PaymentToOwner",
      "type": "event"
    },
    {
      "anonymous": false,
      "inputs": [
        {
          "indexed": false,
          "internalType": "uint256",
          "name": "_index",
          "type": "uint256"
        },
        {
          "indexed": false,
          "internalType": "address",
          "name": "_bidder",
          "type": "address"
        },
        {
          "indexed": false,
          "internalType": "uint256",
          "name": "amount",
          "type": "uint256"
        }
      ],
      "name": "ReturnBidFunds",
      "type": "event"
    },
    {
      "anonymous": false,
      "inputs": [
        {
          "indexed": false,
          "internalType": "address",
          "name": "receiver",
          "type": "address"
        },
        {
          "indexed": false,
          "internalType": "uint256",
          "name": "amount",
          "type": "uint256"
        }
      ],
      "name": "Royalties",
      "type": "event"
    },
    {
      "anonymous": false,
      "inputs": [
        {
          "indexed": true,
          "internalType": "address",
          "name": "user",
          "type": "address"
        },
        {
          "indexed": false,
          "internalType": "uint256",
          "name": "amount",
          "type": "uint256"
        },
        {
          "indexed": false,
          "internalType": "uint256[]",
          "name": "tokenIds",
          "type": "uint256[]"
        }
      ],
      "name": "StakedNFT",
      "type": "event"
    },
    {
      "anonymous": false,
      "inputs": [
        {
          "indexed": true,
          "internalType": "address",
          "name": "user",
          "type": "address"
        },
        {
          "indexed": false,
          "internalType": "uint256",
          "name": "amount",
          "type": "uint256"
        },
        {
          "indexed": false,
          "internalType": "uint256[]",
          "name": "tokenIds",
          "type": "uint256[]"
        }
      ],
      "name": "WithdrawnNFT",
      "type": "event"
    },
    {
      "inputs": [],
      "name": "accumulatedCommission",
      "outputs": [
        {
          "internalType": "uint256",
          "name": "",
          "type": "uint256"
        }
      ],
      "stateMutability": "view",
      "type": "function"
    },
    {
      "inputs": [
        {
          "internalType": "uint256",
          "name": "",
          "type": "uint256"
        }
      ],
      "name": "auctions",
      "outputs": [
        {
          "internalType": "address",
          "name": "assetAddress",
          "type": "address"
        },
        {
          "internalType": "uint256",
          "name": "assetId",
          "type": "uint256"
        },
        {
          "internalType": "address payable",
          "name": "creator",
          "type": "address"
        },
        {
          "internalType": "uint256",
          "name": "startTime",
          "type": "uint256"
        },
        {
          "internalType": "uint256",
          "name": "duration",
          "type": "uint256"
        },
        {
          "internalType": "uint256",
          "name": "currentBidAmount",
          "type": "uint256"
        },
        {
          "internalType": "address payable",
          "name": "currentBidOwner",
          "type": "address"
        },
        {
          "internalType": "uint256",
          "name": "bidCount",
          "type": "uint256"
        }
      ],
      "stateMutability": "view",
      "type": "function"
    },
    {
      "inputs": [],
      "name": "commission",
      "outputs": [
        {
          "internalType": "uint256",
          "name": "",
          "type": "uint256"
        }
      ],
      "stateMutability": "view",
      "type": "function"
    },
    {
      "inputs": [
        {
          "internalType": "uint256",
          "name": "",
          "type": "uint256"
        }
      ],
      "name": "offers",
      "outputs": [
        {
          "internalType": "address",
          "name": "assetAddress",
          "type": "address"
        },
        {
          "internalType": "uint256",
          "name": "tokenId",
          "type": "uint256"
        },
        {
          "internalType": "address payable",
          "name": "creator",
          "type": "address"
        },
        {
          "internalType": "uint256",
          "name": "price",
          "type": "uint256"
        },
        {
          "internalType": "bool",
          "name": "isOnSale",
          "type": "bool"
        },
        {
          "internalType": "bool",
          "name": "isAuction",
          "type": "bool"
        },
        {
          "internalType": "uint256",
          "name": "idAuction",
          "type": "uint256"
        }
      ],
      "stateMutability": "view",
      "type": "function"
    },
    {
      "inputs": [],
      "name": "owner",
      "outputs": [
        {
          "internalType": "address",
          "name": "",
          "type": "address"
        }
      ],
      "stateMutability": "view",
      "type": "function"
    },
    {
      "inputs": [],
      "name": "renounceOwnership",
      "outputs": [],
      "stateMutability": "nonpayable",
      "type": "function"
    },
    {
      "inputs": [],
      "name": "stakePUMLx",
      "outputs": [
        {
          "internalType": "contract PumlStake",
          "name": "",
          "type": "address"
        }
      ],
      "stateMutability": "view",
      "type": "function"
    },
    {
      "inputs": [],
      "name": "totalSales",
      "outputs": [
        {
          "internalType": "uint256",
          "name": "",
          "type": "uint256"
        }
      ],
      "stateMutability": "view",
      "type": "function"
    },
    {
      "inputs": [
        {
          "internalType": "address",
          "name": "newOwner",
          "type": "address"
        }
      ],
      "name": "transferOwnership",
      "outputs": [],
      "stateMutability": "nonpayable",
      "type": "function"
    },
    {
      "inputs": [
        {
          "internalType": "address",
          "name": "_assetAddress",
          "type": "address"
        },
        {
          "internalType": "uint256",
          "name": "_tokenId",
          "type": "uint256"
        },
        {
          "internalType": "bool",
          "name": "_isDirectSale",
          "type": "bool"
        },
        {
          "internalType": "bool",
          "name": "_isAuction",
          "type": "bool"
        },
        {
          "internalType": "uint256",
          "name": "_price",
          "type": "uint256"
        },
        {
          "internalType": "uint256",
          "name": "_startPrice",
          "type": "uint256"
        },
        {
          "internalType": "uint256",
          "name": "_startTime",
          "type": "uint256"
        },
        {
          "internalType": "uint256",
          "name": "_duration",
          "type": "uint256"
        }
      ],
      "name": "createOffer",
      "outputs": [],
      "stateMutability": "nonpayable",
      "type": "function"
    },
    {
      "inputs": [
        {
          "internalType": "uint256",
          "name": "_tokenId",
          "type": "uint256"
        }
      ],
      "name": "getAuctionId",
      "outputs": [
        {
          "internalType": "uint256",
          "name": "",
          "type": "uint256"
        }
      ],
      "stateMutability": "view",
      "type": "function"
    },
    {
      "inputs": [],
      "name": "ahora",
      "outputs": [
        {
          "internalType": "uint256",
          "name": "",
          "type": "uint256"
        }
      ],
      "stateMutability": "view",
      "type": "function"
    },
    {
      "inputs": [
        {
          "internalType": "uint256",
          "name": "_tokenId",
          "type": "uint256"
        }
      ],
      "name": "removeFromAuction",
      "outputs": [],
      "stateMutability": "nonpayable",
      "type": "function"
    },
    {
      "inputs": [
        {
          "internalType": "uint256",
          "name": "_tokenId",
          "type": "uint256"
        }
      ],
      "name": "removeFromSale",
      "outputs": [],
      "stateMutability": "nonpayable",
      "type": "function"
    },
    {
      "inputs": [
        {
          "internalType": "uint256",
          "name": "_commission",
          "type": "uint256"
        }
      ],
      "name": "setCommission",
      "outputs": [],
      "stateMutability": "nonpayable",
      "type": "function"
    },
    {
      "inputs": [
        {
          "internalType": "uint256",
          "name": "_tokenId",
          "type": "uint256"
        },
        {
          "internalType": "uint256",
          "name": "_puml",
          "type": "uint256"
        }
      ],
      "name": "buy",
      "outputs": [],
      "stateMutability": "payable",
      "type": "function"
    },
    {
      "inputs": [
        {
          "internalType": "uint256",
          "name": "auctionIndex",
          "type": "uint256"
        },
        {
          "internalType": "uint256",
          "name": "_puml",
          "type": "uint256"
        }
      ],
      "name": "bid",
      "outputs": [],
      "stateMutability": "payable",
      "type": "function"
    },
    {
      "inputs": [],
      "name": "getTotalAuctions",
      "outputs": [
        {
          "internalType": "uint256",
          "name": "",
          "type": "uint256"
        }
      ],
      "stateMutability": "view",
      "type": "function"
    },
    {
      "inputs": [
        {
          "internalType": "uint256",
          "name": "_auctionIndex",
          "type": "uint256"
        }
      ],
      "name": "isActive",
      "outputs": [
        {
          "internalType": "bool",
          "name": "",
          "type": "bool"
        }
      ],
      "stateMutability": "view",
      "type": "function"
    },
    {
      "inputs": [
        {
          "internalType": "uint256",
          "name": "_auctionIndex",
          "type": "uint256"
        }
      ],
      "name": "isFinished",
      "outputs": [
        {
          "internalType": "bool",
          "name": "",
          "type": "bool"
        }
      ],
      "stateMutability": "view",
      "type": "function"
    },
    {
      "inputs": [
        {
          "internalType": "uint256",
          "name": "_auctionIndex",
          "type": "uint256"
        }
      ],
      "name": "getStatus",
      "outputs": [
        {
          "internalType": "enum Engine.Status",
          "name": "",
          "type": "uint8"
        }
      ],
      "stateMutability": "view",
      "type": "function"
    },
    {
      "inputs": [
        {
          "internalType": "uint256",
          "name": "_auctionIndex",
          "type": "uint256"
        }
      ],
      "name": "endDate",
      "outputs": [
        {
          "internalType": "uint256",
          "name": "",
          "type": "uint256"
        }
      ],
      "stateMutability": "view",
      "type": "function"
    },
    {
      "inputs": [
        {
          "internalType": "uint256",
          "name": "_auctionIndex",
          "type": "uint256"
        }
      ],
      "name": "getCurrentBidOwner",
      "outputs": [
        {
          "internalType": "address",
          "name": "",
          "type": "address"
        }
      ],
      "stateMutability": "view",
      "type": "function"
    },
    {
      "inputs": [
        {
          "internalType": "uint256",
          "name": "_auctionIndex",
          "type": "uint256"
        }
      ],
      "name": "getCurrentBidAmount",
      "outputs": [
        {
          "internalType": "uint256",
          "name": "",
          "type": "uint256"
        }
      ],
      "stateMutability": "view",
      "type": "function"
    },
    {
      "inputs": [
        {
          "internalType": "uint256",
          "name": "_auctionIndex",
          "type": "uint256"
        }
      ],
      "name": "getBidCount",
      "outputs": [
        {
          "internalType": "uint256",
          "name": "",
          "type": "uint256"
        }
      ],
      "stateMutability": "view",
      "type": "function"
    },
    {
      "inputs": [
        {
          "internalType": "uint256",
          "name": "auctionIndex",
          "type": "uint256"
        }
      ],
      "name": "getWinner",
      "outputs": [
        {
          "internalType": "address",
          "name": "",
          "type": "address"
        }
      ],
      "stateMutability": "view",
      "type": "function"
    },
    {
      "inputs": [
        {
          "internalType": "uint256",
          "name": "auctionIndex",
          "type": "uint256"
        }
      ],
      "name": "closeAuction",
      "outputs": [],
      "stateMutability": "nonpayable",
      "type": "function"
    },
    {
      "inputs": [
        {
          "internalType": "uint256",
          "name": "auctionIndex",
          "type": "uint256"
        }
      ],
      "name": "automaticSetWinner",
      "outputs": [],
      "stateMutability": "nonpayable",
      "type": "function"
    },
    {
      "inputs": [
        {
          "internalType": "address",
          "name": "_assetAddress",
          "type": "address"
        },
        {
          "internalType": "address",
          "name": "_to",
          "type": "address"
        },
        {
          "internalType": "uint256[]",
          "name": "tokenIds",
          "type": "uint256[]"
        },
        {
          "internalType": "uint256",
          "name": "collect",
          "type": "uint256"
        },
        {
          "internalType": "uint256",
          "name": "feeward",
          "type": "uint256"
        }
      ],
      "name": "stakeNFT",
      "outputs": [],
      "stateMutability": "payable",
      "type": "function"
    },
    {
      "inputs": [
        {
          "internalType": "address",
          "name": "_assetAddress",
          "type": "address"
        },
        {
          "internalType": "address",
          "name": "_from",
          "type": "address"
        },
        {
          "internalType": "uint256[]",
          "name": "tokenIds",
          "type": "uint256[]"
        },
        {
          "internalType": "uint256",
          "name": "collect",
          "type": "uint256"
        },
        {
          "internalType": "uint256",
          "name": "feeward",
          "type": "uint256"
        }
      ],
      "name": "withdrawNFT",
      "outputs": [],
      "stateMutability": "payable",
      "type": "function"
    }
  ],
  "bytecode": "0x60806040526000600455600060055560006006553480156200002057600080fd5b5060405162005ccf38038062005ccf833981810160405281019062000046919062000198565b620000666200005a620000b560201b60201c565b620000bd60201b60201c565b6001808190555080600260006101000a81548173ffffffffffffffffffffffffffffffffffffffff021916908373ffffffffffffffffffffffffffffffffffffffff1602179055505062000212565b600033905090565b60008060009054906101000a900473ffffffffffffffffffffffffffffffffffffffff169050816000806101000a81548173ffffffffffffffffffffffffffffffffffffffff021916908373ffffffffffffffffffffffffffffffffffffffff1602179055508173ffffffffffffffffffffffffffffffffffffffff168173ffffffffffffffffffffffffffffffffffffffff167f8be0079c531659141344cd1fd0a4f28419497f9722a3daafe3b4186f6b6457e060405160405180910390a35050565b6000815190506200019281620001f8565b92915050565b600060208284031215620001ab57600080fd5b6000620001bb8482850162000181565b91505092915050565b6000620001d182620001d8565b9050919050565b600073ffffffffffffffffffffffffffffffffffffffff82169050919050565b6200020381620001c4565b81146200020f57600080fd5b50565b615aad80620002226000396000f3fe6080604052600436106101cd5760003560e01c80636605ff66116100f75780638a72ea6a11610095578063e148919111610064578063e148919114610695578063e8ba6509146106c0578063ea4f10b5146106fd578063f2fde38b14610728576101cd565b80638a72ea6a146105e05780638da5cb5b14610623578063ae6936731461064e578063d6febde814610679576101cd565b8063744d3411116100d1578063744d3411146105005780637b5a96a61461053d57806382afd23b1461056657806386b46073146105a3576101cd565b80636605ff66146104815780636975846a146104ac578063715018a6146104e9576101cd565b8063355e6b431161016f5780635552f6ca1161013e5780635552f6ca146103bb578063571a26a0146103e4578063598647f8146104285780635c622a0e14610444576101cd565b8063355e6b43146102ed5780633ef14cc8146103165780634129b2c9146103415780634cac5b4b1461037e576101cd565b80632241091b116101ab5780632241091b14610254578063236ed8f31461027d5780632b866759146102a65780632e715ee2146102d1576101cd565b806312f4ea2e146101d25780631361a3b61461020f57806316b66dc514610238575b600080fd5b3480156101de57600080fd5b506101f960048036038101906101f49190614739565b610751565b6040516102069190615149565b60405180910390f35b34801561021b57600080fd5b5061023660048036038101906102319190614739565b610881565b005b610252600480360381019061024d91906145f8565b610b2d565b005b34801561026057600080fd5b5061027b60048036038101906102769190614739565b610e29565b005b34801561028957600080fd5b506102a4600480360381019061029f9190614739565b6112b8565b005b3480156102b257600080fd5b506102bb6112c4565b6040516102c89190615149565b60405180910390f35b6102eb60048036038101906102e691906145f8565b6112cc565b005b3480156102f957600080fd5b50610314600480360381019061030f9190614739565b611721565b005b34801561032257600080fd5b5061032b6117ec565b6040516103389190615149565b60405180910390f35b34801561034d57600080fd5b5061036860048036038101906103639190614739565b6117f9565b6040516103759190614bb8565b60405180910390f35b34801561038a57600080fd5b506103a560048036038101906103a09190614739565b6118b6565b6040516103b29190615149565b60405180910390f35b3480156103c757600080fd5b506103e260048036038101906103dd9190614739565b611926565b005b3480156103f057600080fd5b5061040b60048036038101906104069190614739565b6119ae565b60405161041f989796959493929190614d8c565b60405180910390f35b610442600480360381019061043d919061478b565b611a66565b005b34801561045057600080fd5b5061046b60048036038101906104669190614739565b611f0e565b6040516104789190614eae565b60405180910390f35b34801561048d57600080fd5b50610496611fa8565b6040516104a39190615149565b60405180910390f35b3480156104b857600080fd5b506104d360048036038101906104ce9190614739565b611fae565b6040516104e09190615149565b60405180910390f35b3480156104f557600080fd5b506104fe612003565b005b34801561050c57600080fd5b5061052760048036038101906105229190614739565b61208b565b6040516105349190615149565b60405180910390f35b34801561054957600080fd5b50610564600480360381019061055f9190614687565b6120e0565b005b34801561057257600080fd5b5061058d60048036038101906105889190614739565b612629565b60405161059a9190614e78565b60405180910390f35b3480156105af57600080fd5b506105ca60048036038101906105c59190614739565b6126ae565b6040516105d79190614bb8565b60405180910390f35b3480156105ec57600080fd5b5061060760048036038101906106029190614739565b612723565b60405161061a9796959493929190614d1d565b60405180910390f35b34801561062f57600080fd5b506106386127bf565b6040516106459190614bb8565b60405180910390f35b34801561065a57600080fd5b506106636127e8565b6040516106709190615149565b60405180910390f35b610693600480360381019061068e919061478b565b6127ee565b005b3480156106a157600080fd5b506106aa61342c565b6040516106b79190615149565b60405180910390f35b3480156106cc57600080fd5b506106e760048036038101906106e29190614739565b613432565b6040516106f49190614e78565b60405180910390f35b34801561070957600080fd5b506107126134b6565b60405161071f9190614e93565b60405180910390f35b34801561073457600080fd5b5061074f600480360381019061074a91906145a6565b6134dc565b005b600080600760008481526020019081526020016000206040518060e00160405290816000820160009054906101000a900473ffffffffffffffffffffffffffffffffffffffff1673ffffffffffffffffffffffffffffffffffffffff1673ffffffffffffffffffffffffffffffffffffffff168152602001600182015481526020016002820160009054906101000a900473ffffffffffffffffffffffffffffffffffffffff1673ffffffffffffffffffffffffffffffffffffffff1673ffffffffffffffffffffffffffffffffffffffff168152602001600382015481526020016004820160009054906101000a900460ff161515151581526020016004820160019054906101000a900460ff1615151515815260200160058201548152505090508060c00151915050919050565b6000600760008381526020019081526020016000206040518060e00160405290816000820160009054906101000a900473ffffffffffffffffffffffffffffffffffffffff1673ffffffffffffffffffffffffffffffffffffffff1673ffffffffffffffffffffffffffffffffffffffff168152602001600182015481526020016002820160009054906101000a900473ffffffffffffffffffffffffffffffffffffffff1673ffffffffffffffffffffffffffffffffffffffff1673ffffffffffffffffffffffffffffffffffffffff168152602001600382015481526020016004820160009054906101000a900460ff161515151581526020016004820160019054906101000a900460ff161515151581526020016005820154815250509050806040015173ffffffffffffffffffffffffffffffffffffffff163373ffffffffffffffffffffffffffffffffffffffff1614610a15576040517f08c379a0000000000000000000000000000000000000000000000000000000008152600401610a0c90614fc9565b60405180910390fd5b6000816080019015159081151581525050806007600084815260200190815260200160002060008201518160000160006101000a81548173ffffffffffffffffffffffffffffffffffffffff021916908373ffffffffffffffffffffffffffffffffffffffff1602179055506020820151816001015560408201518160020160006101000a81548173ffffffffffffffffffffffffffffffffffffffff021916908373ffffffffffffffffffffffffffffffffffffffff1602179055506060820151816003015560808201518160040160006101000a81548160ff02191690831515021790555060a08201518160040160016101000a81548160ff02191690831515021790555060c082015181600501559050505050565b60026001541415610b73576040517f08c379a0000000000000000000000000000000000000000000000000000000008152600401610b6a90615129565b60405180910390fd5b600260018190555060008086905060005b8551811015610d2e578173ffffffffffffffffffffffffffffffffffffffff166342842e0e3389898581518110610be4577f4e487b7100000000000000000000000000000000000000000000000000000000600052603260045260246000fd5b60200260200101516040518463ffffffff1660e01b8152600401610c0a93929190614cbd565b600060405180830381600087803b158015610c2457600080fd5b505af1158015610c38573d6000803e3d6000fd5b50505050600183610c499190615377565b9250600260009054906101000a900473ffffffffffffffffffffffffffffffffffffffff1673ffffffffffffffffffffffffffffffffffffffff1663bcb4fa42878381518110610cc2577f4e487b7100000000000000000000000000000000000000000000000000000000600052603260045260246000fd5b6020026020010151336040518363ffffffff1660e01b8152600401610ce8929190615164565b600060405180830381600087803b158015610d0257600080fd5b505af1158015610d16573d6000803e3d6000fd5b50505050600181610d279190615377565b9050610b84565b50610d38826135d4565b600260009054906101000a900473ffffffffffffffffffffffffffffffffffffffff1673ffffffffffffffffffffffffffffffffffffffff16634595242d3386866040518463ffffffff1660e01b8152600401610d9793929190614e41565b600060405180830381600087803b158015610db157600080fd5b505af1158015610dc5573d6000803e3d6000fd5b505050503373ffffffffffffffffffffffffffffffffffffffff167fdeaad30c9e3118ba3b39651e76dd3db3536ec6872639078cfe472ab46316afae8387604051610e119291906152a1565b60405180910390a25050600180819055505050505050565b6000600760008381526020019081526020016000206040518060e00160405290816000820160009054906101000a900473ffffffffffffffffffffffffffffffffffffffff1673ffffffffffffffffffffffffffffffffffffffff1673ffffffffffffffffffffffffffffffffffffffff168152602001600182015481526020016002820160009054906101000a900473ffffffffffffffffffffffffffffffffffffffff1673ffffffffffffffffffffffffffffffffffffffff1673ffffffffffffffffffffffffffffffffffffffff168152602001600382015481526020016004820160009054906101000a900460ff161515151581526020016004820160019054906101000a900460ff161515151581526020016005820154815250509050806040015173ffffffffffffffffffffffffffffffffffffffff163373ffffffffffffffffffffffffffffffffffffffff1614610fbd576040517f08c379a0000000000000000000000000000000000000000000000000000000008152600401610fb490614fc9565b60405180910390fd5b600060038260c0015181548110610ffd577f4e487b7100000000000000000000000000000000000000000000000000000000600052603260045260246000fd5b9060005260206000209060080201604051806101000160405290816000820160009054906101000a900473ffffffffffffffffffffffffffffffffffffffff1673ffffffffffffffffffffffffffffffffffffffff1673ffffffffffffffffffffffffffffffffffffffff168152602001600182015481526020016002820160009054906101000a900473ffffffffffffffffffffffffffffffffffffffff1673ffffffffffffffffffffffffffffffffffffffff1673ffffffffffffffffffffffffffffffffffffffff1681526020016003820154815260200160048201548152602001600582015481526020016006820160009054906101000a900473ffffffffffffffffffffffffffffffffffffffff1673ffffffffffffffffffffffffffffffffffffffff1673ffffffffffffffffffffffffffffffffffffffff168152602001600782015481525050905060008160e0015114611194576040517f08c379a000000000000000000000000000000000000000000000000000000000815260040161118b90614f69565b60405180910390fd5b60008260a001901515908115158152505060008260c0018181525050816007600085815260200190815260200160002060008201518160000160006101000a81548173ffffffffffffffffffffffffffffffffffffffff021916908373ffffffffffffffffffffffffffffffffffffffff1602179055506020820151816001015560408201518160020160006101000a81548173ffffffffffffffffffffffffffffffffffffffff021916908373ffffffffffffffffffffffffffffffffffffffff1602179055506060820151816003015560808201518160040160006101000a81548160ff02191690831515021790555060a08201518160040160016101000a81548160ff02191690831515021790555060c08201518160050155905050505050565b6112c181613669565b50565b600042905090565b60026001541415611312576040517f08c379a000000000000000000000000000000000000000000000000000000000815260040161130990615129565b60405180910390fd5b600260018190555060008086905060005b8551811015611626573373ffffffffffffffffffffffffffffffffffffffff16600260009054906101000a900473ffffffffffffffffffffffffffffffffffffffff1673ffffffffffffffffffffffffffffffffffffffff16633a42b0538884815181106113ba577f4e487b7100000000000000000000000000000000000000000000000000000000600052603260045260246000fd5b60200260200101516040518263ffffffff1660e01b81526004016113de9190615149565b60206040518083038186803b1580156113f657600080fd5b505afa15801561140a573d6000803e3d6000fd5b505050506040513d601f19601f8201168201806040525081019061142e91906145cf565b73ffffffffffffffffffffffffffffffffffffffff1614611484576040517f08c379a000000000000000000000000000000000000000000000000000000000815260040161147b90614f29565b60405180910390fd5b8173ffffffffffffffffffffffffffffffffffffffff166342842e0e88338985815181106114db577f4e487b7100000000000000000000000000000000000000000000000000000000600052603260045260246000fd5b60200260200101516040518463ffffffff1660e01b815260040161150193929190614cbd565b600060405180830381600087803b15801561151b57600080fd5b505af115801561152f573d6000803e3d6000fd5b505050506001836115409190615377565b9250600260009054906101000a900473ffffffffffffffffffffffffffffffffffffffff1673ffffffffffffffffffffffffffffffffffffffff1663bcb4fa428783815181106115b9577f4e487b7100000000000000000000000000000000000000000000000000000000600052603260045260246000fd5b602002602001015160006040518363ffffffff1660e01b81526004016115e0929190615164565b600060405180830381600087803b1580156115fa57600080fd5b505af115801561160e573d6000803e3d6000fd5b5050505060018161161f9190615377565b9050611323565b50611630826140d3565b600260009054906101000a900473ffffffffffffffffffffffffffffffffffffffff1673ffffffffffffffffffffffffffffffffffffffff16634595242d3386866040518463ffffffff1660e01b815260040161168f93929190614e41565b600060405180830381600087803b1580156116a957600080fd5b505af11580156116bd573d6000803e3d6000fd5b505050503373ffffffffffffffffffffffffffffffffffffffff167f62ce610c288a7f8a9a6715f35d395ec0702a9719aa06b15bb5e6869d7d19a95283876040516117099291906152a1565b60405180910390a25050600180819055505050505050565b611729614168565b73ffffffffffffffffffffffffffffffffffffffff166117476127bf565b73ffffffffffffffffffffffffffffffffffffffff161461179d576040517f08c379a000000000000000000000000000000000000000000000000000000000815260040161179490615069565b60405180910390fd5b6113888111156117e2576040517f08c379a00000000000000000000000000000000000000000000000000000000081526004016117d9906150c9565b60405180910390fd5b8060048190555050565b6000600380549050905090565b600061180482613432565b611843576040517f08c379a000000000000000000000000000000000000000000000000000000000815260040161183a90614ee9565b60405180910390fd5b6003828154811061187d577f4e487b7100000000000000000000000000000000000000000000000000000000600052603260045260246000fd5b906000526020600020906008020160060160009054906101000a900473ffffffffffffffffffffffffffffffffffffffff169050919050565b600080600383815481106118f3577f4e487b7100000000000000000000000000000000000000000000000000000000600052603260045260246000fd5b9060005260206000209060080201905061191e8160040154826003015461417090919063ffffffff16565b915050919050565b61192e614168565b73ffffffffffffffffffffffffffffffffffffffff1661194c6127bf565b73ffffffffffffffffffffffffffffffffffffffff16146119a2576040517f08c379a000000000000000000000000000000000000000000000000000000000815260040161199990615069565b60405180910390fd5b6119ab81613669565b50565b600381815481106119be57600080fd5b90600052602060002090600802016000915090508060000160009054906101000a900473ffffffffffffffffffffffffffffffffffffffff16908060010154908060020160009054906101000a900473ffffffffffffffffffffffffffffffffffffffff16908060030154908060040154908060050154908060060160009054906101000a900473ffffffffffffffffffffffffffffffffffffffff16908060070154905088565b60026001541415611aac576040517f08c379a0000000000000000000000000000000000000000000000000000000008152600401611aa390615129565b60405180910390fd5b60026001819055506000339050600060038481548110611af5577f4e487b7100000000000000000000000000000000000000000000000000000000600052603260045260246000fd5b90600052602060002090600802019050600073ffffffffffffffffffffffffffffffffffffffff168160020160009054906101000a900473ffffffffffffffffffffffffffffffffffffffff1673ffffffffffffffffffffffffffffffffffffffff161415611b99576040517f08c379a0000000000000000000000000000000000000000000000000000000008152600401611b9090614fe9565b60405180910390fd5b611ba284612629565b611be1576040517f08c379a0000000000000000000000000000000000000000000000000000000008152600401611bd890614f89565b60405180910390fd5b80600501543411611c27576040517f08c379a0000000000000000000000000000000000000000000000000000000008152600401611c1e90614f09565b60405180910390fd5b6000816005015414158015611c8d5750600073ffffffffffffffffffffffffffffffffffffffff168160060160009054906101000a900473ffffffffffffffffffffffffffffffffffffffff1673ffffffffffffffffffffffffffffffffffffffff1614155b15611dcb5760008160060160009054906101000a900473ffffffffffffffffffffffffffffffffffffffff1673ffffffffffffffffffffffffffffffffffffffff168260050154604051611ce090614ba3565b60006040518083038185875af1925050503d8060008114611d1d576040519150601f19603f3d011682016040523d82523d6000602084013e611d22565b606091505b5050905080611d66576040517f08c379a0000000000000000000000000000000000000000000000000000000008152600401611d5d906150e9565b60405180910390fd5b7f972fd66eadedfb87beff023a37f4d8c6a91fdd147fa0d3c036e0c6c5a0cdc795858360060160009054906101000a900473ffffffffffffffffffffffffffffffffffffffff168460050154604051611dc19392919061518d565b60405180910390a1505b348160050181905550818160060160006101000a81548173ffffffffffffffffffffffffffffffffffffffff021916908373ffffffffffffffffffffffffffffffffffffffff160217905550611e2f6001826007015461417090919063ffffffff16565b8160070181905550600260009054906101000a900473ffffffffffffffffffffffffffffffffffffffff1673ffffffffffffffffffffffffffffffffffffffff16639d756a8d83856040518363ffffffff1660e01b8152600401611e94929190614cf4565b600060405180830381600087803b158015611eae57600080fd5b505af1158015611ec2573d6000803e3d6000fd5b505050507fb8d756f2d1da4663767eb4d559780ace84f2f65a421a60ddcb47e8b2e5d2fd26848334604051611ef99392919061526a565b60405180910390a15050600180819055505050565b60008060038381548110611f4b577f4e487b7100000000000000000000000000000000000000000000000000000000600052603260045260246000fd5b906000526020600020906008020190508060030154421015611f71576000915050611fa3565b611f8c8160040154826003015461417090919063ffffffff16565b421015611f9d576001915050611fa3565b60029150505b919050565b60065481565b600060038281548110611fea577f4e487b7100000000000000000000000000000000000000000000000000000000600052603260045260246000fd5b9060005260206000209060080201600501549050919050565b61200b614168565b73ffffffffffffffffffffffffffffffffffffffff166120296127bf565b73ffffffffffffffffffffffffffffffffffffffff161461207f576040517f08c379a000000000000000000000000000000000000000000000000000000000815260040161207690615069565b60405180910390fd5b6120896000614186565b565b6000600382815481106120c7577f4e487b7100000000000000000000000000000000000000000000000000000000600052603260045260246000fd5b9060005260206000209060080201600701549050919050565b60008890503373ffffffffffffffffffffffffffffffffffffffff168173ffffffffffffffffffffffffffffffffffffffff16636352211e8a6040518263ffffffff1660e01b81526004016121359190615149565b60206040518083038186803b15801561214d57600080fd5b505afa158015612161573d6000803e3d6000fd5b505050506040513d601f19601f8201168201806040525081019061218591906145cf565b73ffffffffffffffffffffffffffffffffffffffff16146121db576040517f08c379a00000000000000000000000000000000000000000000000000000000081526004016121d290615029565b60405180910390fd5b3073ffffffffffffffffffffffffffffffffffffffff168173ffffffffffffffffffffffffffffffffffffffff1663081812fc8a6040518263ffffffff1660e01b815260040161222b9190615149565b60206040518083038186803b15801561224357600080fd5b505afa158015612257573d6000803e3d6000fd5b505050506040513d601f19601f8201168201806040525081019061227b91906145cf565b73ffffffffffffffffffffffffffffffffffffffff16146122d1576040517f08c379a00000000000000000000000000000000000000000000000000000000081526004016122c890615109565b60405180910390fd5b6000600760008a81526020019081526020016000206040518060e00160405290816000820160009054906101000a900473ffffffffffffffffffffffffffffffffffffffff1673ffffffffffffffffffffffffffffffffffffffff1673ffffffffffffffffffffffffffffffffffffffff168152602001600182015481526020016002820160009054906101000a900473ffffffffffffffffffffffffffffffffffffffff1673ffffffffffffffffffffffffffffffffffffffff1673ffffffffffffffffffffffffffffffffffffffff168152602001600382015481526020016004820160009054906101000a900460ff161515151581526020016004820160019054906101000a900460ff16151515158152602001600582015481525050905060001515816080015115151480156124135750600015158160a001511515145b612452576040517f08c379a000000000000000000000000000000000000000000000000000000000815260040161244990615009565b60405180910390fd5b60006040518060e001604052808c73ffffffffffffffffffffffffffffffffffffffff1681526020018b81526020013373ffffffffffffffffffffffffffffffffffffffff1681526020018881526020018a1515815260200189151581526020016000815250905087156124d7576124cd8b8b88888861424a565b8160c00181815250505b80600760008c815260200190815260200160002060008201518160000160006101000a81548173ffffffffffffffffffffffffffffffffffffffff021916908373ffffffffffffffffffffffffffffffffffffffff1602179055506020820151816001015560408201518160020160006101000a81548173ffffffffffffffffffffffffffffffffffffffff021916908373ffffffffffffffffffffffffffffffffffffffff1602179055506060820151816003015560808201518160040160006101000a81548160ff02191690831515021790555060a08201518160040160016101000a81548160ff02191690831515021790555060c082015181600501559050507fa9b9b286d6a0d36eec10c565ed38fc4794a2f554baf7b6187e53e71e600f0aa98a338d60018b8e60405161261496959493929190615209565b60405180910390a15050505050505050505050565b600060016002811115612665577f4e487b7100000000000000000000000000000000000000000000000000000000600052602160045260246000fd5b61266e83611f0e565b60028111156126a6577f4e487b7100000000000000000000000000000000000000000000000000000000600052602160045260246000fd5b149050919050565b6000600382815481106126ea577f4e487b7100000000000000000000000000000000000000000000000000000000600052603260045260246000fd5b906000526020600020906008020160060160009054906101000a900473ffffffffffffffffffffffffffffffffffffffff169050919050565b60076020528060005260406000206000915090508060000160009054906101000a900473ffffffffffffffffffffffffffffffffffffffff16908060010154908060020160009054906101000a900473ffffffffffffffffffffffffffffffffffffffff16908060030154908060040160009054906101000a900460ff16908060040160019054906101000a900460ff16908060050154905087565b60008060009054906101000a900473ffffffffffffffffffffffffffffffffffffffff16905090565b60055481565b60026001541415612834576040517f08c379a000000000000000000000000000000000000000000000000000000000815260040161282b90615129565b60405180910390fd5b6002600181905550600033905060003490506000600760008681526020019081526020016000206040518060e00160405290816000820160009054906101000a900473ffffffffffffffffffffffffffffffffffffffff1673ffffffffffffffffffffffffffffffffffffffff1673ffffffffffffffffffffffffffffffffffffffff168152602001600182015481526020016002820160009054906101000a900473ffffffffffffffffffffffffffffffffffffffff1673ffffffffffffffffffffffffffffffffffffffff1673ffffffffffffffffffffffffffffffffffffffff168152602001600382015481526020016004820160009054906101000a900460ff161515151581526020016004820160019054906101000a900460ff1615151515815260200160058201548152505090506001151581608001511515146129b3576040517f08c379a00000000000000000000000000000000000000000000000000000000081526004016129aa906150a9565b60405180910390fd5b600081606001519050808310156129ff576040517f08c379a00000000000000000000000000000000000000000000000000000000081526004016129f690614ec9565b60405180910390fd5b600115158260a001511515148015612a205750612a1f8260c00151613432565b5b8015612a7b5750600060038360c0015181548110612a67577f4e487b7100000000000000000000000000000000000000000000000000000000600052603260045260246000fd5b906000526020600020906008020160070154115b15612abb576040517f08c379a0000000000000000000000000000000000000000000000000000000008152600401612ab290615049565b60405180910390fd5b7f35538759d80c1fd7bb450a0d05601db5a99fa8b5d073a07c847a9fd61029b1078685604051612aec929190615164565b60405180910390a16000826000015190508073ffffffffffffffffffffffffffffffffffffffff166342842e0e8460400151878a6040518463ffffffff1660e01b8152600401612b3e93929190614bd3565b600060405180830381600087803b158015612b5857600080fd5b505af1158015612b6c573d6000803e3d6000fd5b5050505060008173ffffffffffffffffffffffffffffffffffffffff1663d48e638a896040518263ffffffff1660e01b8152600401612bab9190615149565b60206040518083038186803b158015612bc357600080fd5b505afa158015612bd7573d6000803e3d6000fd5b505050506040513d601f19601f82011682018060405250810190612bfb91906145cf565b90506000612710612c176004548861447b90919063ffffffff16565b612c2191906153cd565b90506000856040015173ffffffffffffffffffffffffffffffffffffffff168373ffffffffffffffffffffffffffffffffffffffff1614612ded57612710612cfa8573ffffffffffffffffffffffffffffffffffffffff1663bb3bafd68d6040518263ffffffff1660e01b8152600401612c9b9190615149565b60206040518083038186803b158015612cb357600080fd5b505afa158015612cc7573d6000803e3d6000fd5b505050506040513d601f19601f82011682018060405250810190612ceb9190614762565b8961447b90919063ffffffff16565b612d0491906153cd565b905060008373ffffffffffffffffffffffffffffffffffffffff1682604051612d2c90614ba3565b60006040518083038185875af1925050503d8060008114612d69576040519150601f19603f3d011682016040523d82523d6000602084013e612d6e565b606091505b5050905080612db2576040517f08c379a0000000000000000000000000000000000000000000000000000000008152600401612da9906150e9565b60405180910390fd5b7f54b960faf8b038c33ba9912fdb9ac1e8e0096c5f327d1c89e62b5d9c5357ddb68483604051612de3929190614c0a565b60405180910390a1505b6000612e1482612e06858b61449190919063ffffffff16565b61449190919063ffffffff16565b90506000876040015173ffffffffffffffffffffffffffffffffffffffff1682604051612e4090614ba3565b60006040518083038185875af1925050503d8060008114612e7d576040519150601f19603f3d011682016040523d82523d6000602084013e612e82565b606091505b5050905080612ec6576040517f08c379a0000000000000000000000000000000000000000000000000000000008152600401612ebd906150e9565b60405180910390fd5b7f9a37aa02cc986a4a0c2d22af3dcdb9db27c178f7feed43e7037c783b55ed91ba88604001518386866127106004548f612f0091906153fe565b612f0a91906153cd565b87612f159190615377565b604051612f26959493929190614c33565b60405180910390a1600115158860a00151151514156131ec57600060038960c0015181548110612f7f577f4e487b7100000000000000000000000000000000000000000000000000000000600052603260045260246000fd5b9060005260206000209060080201604051806101000160405290816000820160009054906101000a900473ffffffffffffffffffffffffffffffffffffffff1673ffffffffffffffffffffffffffffffffffffffff1673ffffffffffffffffffffffffffffffffffffffff168152602001600182015481526020016002820160009054906101000a900473ffffffffffffffffffffffffffffffffffffffff1673ffffffffffffffffffffffffffffffffffffffff1673ffffffffffffffffffffffffffffffffffffffff1681526020016003820154815260200160048201548152602001600582015481526020016006820160009054906101000a900473ffffffffffffffffffffffffffffffffffffffff1673ffffffffffffffffffffffffffffffffffffffff1673ffffffffffffffffffffffffffffffffffffffff168152602001600782015481525050905060008160a00151141580156130e8575060008160e00151115b156131ea5760008160c0015173ffffffffffffffffffffffffffffffffffffffff168260a0015160405161311b90614ba3565b60006040518083038185875af1925050503d8060008114613158576040519150601f19603f3d011682016040523d82523d6000602084013e61315d565b606091505b50509050806131a1576040517f08c379a0000000000000000000000000000000000000000000000000000000008152600401613198906150e9565b60405180910390fd5b7f972fd66eadedfb87beff023a37f4d8c6a91fdd147fa0d3c036e0c6c5a0cdc7958a60c001518360c001518460a001516040516131e09392919061518d565b60405180910390a1505b505b7f3b599f6217e39be59216b60e543ce0d4c7d534fe64dd9d962334924e7819894e8c8b3460405161321f9392919061526a565b60405180910390a161323c8460055461417090919063ffffffff16565b60058190555060008860a0019015159081151581525050600088608001901515908115158152505087600760008e815260200190815260200160002060008201518160000160006101000a81548173ffffffffffffffffffffffffffffffffffffffff021916908373ffffffffffffffffffffffffffffffffffffffff1602179055506020820151816001015560408201518160020160006101000a81548173ffffffffffffffffffffffffffffffffffffffff021916908373ffffffffffffffffffffffffffffffffffffffff1602179055506060820151816003015560808201518160040160006101000a81548160ff02191690831515021790555060a08201518160040160016101000a81548160ff02191690831515021790555060c0820151816005015590505061337c3460065461417090919063ffffffff16565b600681905550600260009054906101000a900473ffffffffffffffffffffffffffffffffffffffff1673ffffffffffffffffffffffffffffffffffffffff16633dfc70878b8a604001518e6040518463ffffffff1660e01b81526004016133e593929190614c86565b600060405180830381600087803b1580156133ff57600080fd5b505af1158015613413573d6000803e3d6000fd5b5050505050505050505050505050600180819055505050565b60045481565b600060028081111561346d577f4e487b7100000000000000000000000000000000000000000000000000000000600052602160045260246000fd5b61347683611f0e565b60028111156134ae577f4e487b7100000000000000000000000000000000000000000000000000000000600052602160045260246000fd5b149050919050565b600260009054906101000a900473ffffffffffffffffffffffffffffffffffffffff1681565b6134e4614168565b73ffffffffffffffffffffffffffffffffffffffff166135026127bf565b73ffffffffffffffffffffffffffffffffffffffff1614613558576040517f08c379a000000000000000000000000000000000000000000000000000000000815260040161354f90615069565b60405180910390fd5b600073ffffffffffffffffffffffffffffffffffffffff168173ffffffffffffffffffffffffffffffffffffffff1614156135c8576040517f08c379a00000000000000000000000000000000000000000000000000000000081526004016135bf90614f49565b60405180910390fd5b6135d181614186565b50565b600260009054906101000a900473ffffffffffffffffffffffffffffffffffffffff1673ffffffffffffffffffffffffffffffffffffffff16635db8de19338360016040518463ffffffff1660e01b815260040161363493929190614e0a565b600060405180830381600087803b15801561364e57600080fd5b505af1158015613662573d6000803e3d6000fd5b5050505050565b600260015414156136af576040517f08c379a00000000000000000000000000000000000000000000000000000000081526004016136a690615129565b60405180910390fd5b600260018190555060006136c2826117f9565b9050600060038381548110613700577f4e487b7100000000000000000000000000000000000000000000000000000000600052603260045260246000fd5b90600052602060002090600802019050600060076000836001015481526020019081526020016000206040518060e00160405290816000820160009054906101000a900473ffffffffffffffffffffffffffffffffffffffff1673ffffffffffffffffffffffffffffffffffffffff1673ffffffffffffffffffffffffffffffffffffffff168152602001600182015481526020016002820160009054906101000a900473ffffffffffffffffffffffffffffffffffffffff1673ffffffffffffffffffffffffffffffffffffffff1673ffffffffffffffffffffffffffffffffffffffff168152602001600382015481526020016004820160009054906101000a900460ff161515151581526020016004820160019054906101000a900460ff161515151581526020016005820154815250509050600115158160a00151151514613881576040517f08c379a000000000000000000000000000000000000000000000000000000000815260040161387890615089565b60405180910390fd5b600082600701541115613f9d5760008260000160009054906101000a900473ffffffffffffffffffffffffffffffffffffffff1690503073ffffffffffffffffffffffffffffffffffffffff168173ffffffffffffffffffffffffffffffffffffffff1663081812fc85600101546040518263ffffffff1660e01b815260040161390b9190615149565b60206040518083038186803b15801561392357600080fd5b505afa158015613937573d6000803e3d6000fd5b505050506040513d601f19601f8201168201806040525081019061395b91906145cf565b73ffffffffffffffffffffffffffffffffffffffff16146139b1576040517f08c379a00000000000000000000000000000000000000000000000000000000081526004016139a890615109565b60405180910390fd5b8260020160009054906101000a900473ffffffffffffffffffffffffffffffffffffffff1673ffffffffffffffffffffffffffffffffffffffff168173ffffffffffffffffffffffffffffffffffffffff16636352211e85600101546040518263ffffffff1660e01b8152600401613a299190615149565b60206040518083038186803b158015613a4157600080fd5b505afa158015613a55573d6000803e3d6000fd5b505050506040513d601f19601f82011682018060405250810190613a7991906145cf565b73ffffffffffffffffffffffffffffffffffffffff1614613acf576040517f08c379a0000000000000000000000000000000000000000000000000000000008152600401613ac690614fa9565b60405180910390fd5b8073ffffffffffffffffffffffffffffffffffffffff166342842e0e8460020160009054906101000a900473ffffffffffffffffffffffffffffffffffffffff168686600101546040518463ffffffff1660e01b8152600401613b3493929190614bd3565b600060405180830381600087803b158015613b4e57600080fd5b505af1158015613b62573d6000803e3d6000fd5b505050507f35538759d80c1fd7bb450a0d05601db5a99fa8b5d073a07c847a9fd61029b1078585604051613b97929190615164565b60405180910390a160008173ffffffffffffffffffffffffffffffffffffffff1663d48e638a85600101546040518263ffffffff1660e01b8152600401613bde9190615149565b60206040518083038186803b158015613bf657600080fd5b505afa158015613c0a573d6000803e3d6000fd5b505050506040513d601f19601f82011682018060405250810190613c2e91906145cf565b90506000612710613c4e600454876005015461447b90919063ffffffff16565b613c5891906153cd565b905060008560020160009054906101000a900473ffffffffffffffffffffffffffffffffffffffff1673ffffffffffffffffffffffffffffffffffffffff168373ffffffffffffffffffffffffffffffffffffffff1614613de657612710613d598573ffffffffffffffffffffffffffffffffffffffff1663bb3bafd689600101546040518263ffffffff1660e01b8152600401613cf69190615149565b60206040518083038186803b158015613d0e57600080fd5b505afa158015613d22573d6000803e3d6000fd5b505050506040513d601f19601f82011682018060405250810190613d469190614762565b886005015461447b90919063ffffffff16565b613d6391906153cd565b90508273ffffffffffffffffffffffffffffffffffffffff166108fc829081150290604051600060405180830381858888f19350505050158015613dab573d6000803e3d6000fd5b507f54b960faf8b038c33ba9912fdb9ac1e8e0096c5f327d1c89e62b5d9c5357ddb68382604051613ddd929190614c0a565b60405180910390a15b6000613e1182613e03858a6005015461449190919063ffffffff16565b61449190919063ffffffff16565b905060008760020160009054906101000a900473ffffffffffffffffffffffffffffffffffffffff1673ffffffffffffffffffffffffffffffffffffffff1682604051613e5d90614ba3565b60006040518083038185875af1925050503d8060008114613e9a576040519150601f19603f3d011682016040523d82523d6000602084013e613e9f565b606091505b5050905080613ee3576040517f08c379a0000000000000000000000000000000000000000000000000000000008152600401613eda906150e9565b60405180910390fd5b7f9a37aa02cc986a4a0c2d22af3dcdb9db27c178f7feed43e7037c783b55ed91ba8860020160009054906101000a900473ffffffffffffffffffffffffffffffffffffffff16838686878988613f399190615377565b613f439190615377565b604051613f54959493929190614c33565b60405180910390a1613f718460055461417090919063ffffffff16565b600581905550613f90886005015460065461417090919063ffffffff16565b6006819055505050505050505b60008160a0019015159081151581525050600081608001901515908115158152505080600760008460010154815260200190815260200160002060008201518160000160006101000a81548173ffffffffffffffffffffffffffffffffffffffff021916908373ffffffffffffffffffffffffffffffffffffffff1602179055506020820151816001015560408201518160020160006101000a81548173ffffffffffffffffffffffffffffffffffffffff021916908373ffffffffffffffffffffffffffffffffffffffff1602179055506060820151816003015560808201518160040160006101000a81548160ff02191690831515021790555060a08201518160040160016101000a81548160ff02191690831515021790555060c082015181600501559050505050506001808190555050565b600260009054906101000a900473ffffffffffffffffffffffffffffffffffffffff1673ffffffffffffffffffffffffffffffffffffffff16635db8de19338360006040518463ffffffff1660e01b815260040161413393929190614e0a565b600060405180830381600087803b15801561414d57600080fd5b505af1158015614161573d6000803e3d6000fd5b5050505050565b600033905090565b6000818361417e9190615377565b905092915050565b60008060009054906101000a900473ffffffffffffffffffffffffffffffffffffffff169050816000806101000a81548173ffffffffffffffffffffffffffffffffffffffff021916908373ffffffffffffffffffffffffffffffffffffffff1602179055508173ffffffffffffffffffffffffffffffffffffffff168173ffffffffffffffffffffffffffffffffffffffff167f8be0079c531659141344cd1fd0a4f28419497f9722a3daafe3b4186f6b6457e060405160405180910390a35050565b600080831415614258574292505b60006040518061010001604052808873ffffffffffffffffffffffffffffffffffffffff1681526020018781526020013373ffffffffffffffffffffffffffffffffffffffff168152602001858152602001848152602001868152602001600073ffffffffffffffffffffffffffffffffffffffff16815260200160008152509050600381908060018154018082558091505060019003906000526020600020906008020160009091909190915060008201518160000160006101000a81548173ffffffffffffffffffffffffffffffffffffffff021916908373ffffffffffffffffffffffffffffffffffffffff1602179055506020820151816001015560408201518160020160006101000a81548173ffffffffffffffffffffffffffffffffffffffff021916908373ffffffffffffffffffffffffffffffffffffffff160217905550606082015181600301556080820151816004015560a0820151816005015560c08201518160060160006101000a81548173ffffffffffffffffffffffffffffffffffffffff021916908373ffffffffffffffffffffffffffffffffffffffff16021790555060e082015181600701555050600061442a600160038054905061449190919063ffffffff16565b90507fc9050d42180a61cb0d9ebb8ad118b62fe6eab12cf12ff752c4a0cc7da9ddf627818360400151898960405161446594939291906151c4565b60405180910390a1809250505095945050505050565b6000818361448991906153fe565b905092915050565b6000818361449f9190615458565b905092915050565b60006144ba6144b5846152f6565b6152d1565b905080838252602082019050828560208602820111156144d957600080fd5b60005b8581101561450957816144ef888261457c565b8452602084019350602083019250506001810190506144dc565b5050509392505050565b60008135905061452281615a32565b92915050565b60008151905061453781615a32565b92915050565b600082601f83011261454e57600080fd5b813561455e8482602086016144a7565b91505092915050565b60008135905061457681615a49565b92915050565b60008135905061458b81615a60565b92915050565b6000815190506145a081615a60565b92915050565b6000602082840312156145b857600080fd5b60006145c684828501614513565b91505092915050565b6000602082840312156145e157600080fd5b60006145ef84828501614528565b91505092915050565b600080600080600060a0868803121561461057600080fd5b600061461e88828901614513565b955050602061462f88828901614513565b945050604086013567ffffffffffffffff81111561464c57600080fd5b6146588882890161453d565b93505060606146698882890161457c565b925050608061467a8882890161457c565b9150509295509295909350565b600080600080600080600080610100898b0312156146a457600080fd5b60006146b28b828c01614513565b98505060206146c38b828c0161457c565b97505060406146d48b828c01614567565b96505060606146e58b828c01614567565b95505060806146f68b828c0161457c565b94505060a06147078b828c0161457c565b93505060c06147188b828c0161457c565b92505060e06147298b828c0161457c565b9150509295985092959890939650565b60006020828403121561474b57600080fd5b60006147598482850161457c565b91505092915050565b60006020828403121561477457600080fd5b600061478284828501614591565b91505092915050565b6000806040838503121561479e57600080fd5b60006147ac8582860161457c565b92505060206147bd8582860161457c565b9150509250929050565b60006147d38383614b85565b60208301905092915050565b6147e8816154f9565b82525050565b6147f78161549e565b82525050565b6148068161548c565b82525050565b600061481782615332565b614821818561534a565b935061482c83615322565b8060005b8381101561485d57815161484488826147c7565b975061484f8361533d565b925050600181019050614830565b5085935050505092915050565b614873816154b0565b82525050565b6148828161550b565b82525050565b6148918161552f565b82525050565b6148a081615541565b82525050565b60006148b3601383615366565b91506148be82615675565b602082019050919050565b60006148d6601883615366565b91506148e18261569e565b602082019050919050565b60006148f9600b83615366565b9150614904826156c7565b602082019050919050565b600061491c602483615366565b9150614927826156f0565b604082019050919050565b600061493f602683615366565b915061494a8261573f565b604082019050919050565b6000614962600d83615366565b915061496d8261578e565b602082019050919050565b6000614985600e83615366565b9150614990826157b7565b602082019050919050565b60006149a8602083615366565b91506149b3826157e0565b602082019050919050565b60006149cb601583615366565b91506149d682615809565b602082019050919050565b60006149ee601c83615366565b91506149f982615832565b602082019050919050565b6000614a11601e83615366565b9150614a1c8261585b565b602082019050919050565b6000614a34600d83615366565b9150614a3f82615884565b602082019050919050565b6000614a57602583615366565b9150614a62826158ad565b604082019050919050565b6000614a7a602083615366565b9150614a85826158fc565b602082019050919050565b6000614a9d601283615366565b9150614aa882615925565b602082019050919050565b6000614ac0601683615366565b9150614acb8261594e565b602082019050919050565b6000614ae3601383615366565b9150614aee82615977565b602082019050919050565b6000614b0660008361535b565b9150614b11826159a0565b600082019050919050565b6000614b29601083615366565b9150614b34826159a3565b602082019050919050565b6000614b4c601083615366565b9150614b57826159cc565b602082019050919050565b6000614b6f601f83615366565b9150614b7a826159f5565b602082019050919050565b614b8e816154ef565b82525050565b614b9d816154ef565b82525050565b6000614bae82614af9565b9150819050919050565b6000602082019050614bcd60008301846147fd565b92915050565b6000606082019050614be860008301866147df565b614bf560208301856147fd565b614c026040830184614b94565b949350505050565b6000604082019050614c1f60008301856147df565b614c2c6020830184614b94565b9392505050565b600060a082019050614c4860008301886147df565b614c556020830187614b94565b614c626040830186614b94565b614c6f6060830185614b94565b614c7c6080830184614b94565b9695505050505050565b6000606082019050614c9b60008301866147fd565b614ca860208301856147df565b614cb56040830184614b94565b949350505050565b6000606082019050614cd260008301866147fd565b614cdf60208301856147fd565b614cec6040830184614b94565b949350505050565b6000604082019050614d0960008301856147fd565b614d166020830184614b94565b9392505050565b600060e082019050614d32600083018a6147fd565b614d3f6020830189614b94565b614d4c60408301886147ee565b614d596060830187614b94565b614d66608083018661486a565b614d7360a083018561486a565b614d8060c0830184614b94565b98975050505050505050565b600061010082019050614da2600083018b6147fd565b614daf602083018a614b94565b614dbc60408301896147ee565b614dc96060830188614b94565b614dd66080830187614b94565b614de360a0830186614b94565b614df060c08301856147ee565b614dfd60e0830184614b94565b9998505050505050505050565b6000606082019050614e1f60008301866147fd565b614e2c6020830185614b94565b614e39604083018461486a565b949350505050565b6000606082019050614e5660008301866147fd565b614e636020830185614b94565b614e706040830184614b94565b949350505050565b6000602082019050614e8d600083018461486a565b92915050565b6000602082019050614ea86000830184614879565b92915050565b6000602082019050614ec36000830184614888565b92915050565b60006020820190508181036000830152614ee2816148a6565b9050919050565b60006020820190508181036000830152614f02816148c9565b9050919050565b60006020820190508181036000830152614f22816148ec565b9050919050565b60006020820190508181036000830152614f428161490f565b9050919050565b60006020820190508181036000830152614f6281614932565b9050919050565b60006020820190508181036000830152614f8281614955565b9050919050565b60006020820190508181036000830152614fa281614978565b9050919050565b60006020820190508181036000830152614fc28161499b565b9050919050565b60006020820190508181036000830152614fe2816149be565b9050919050565b60006020820190508181036000830152615002816149e1565b9050919050565b6000602082019050818103600083015261502281614a04565b9050919050565b6000602082019050818103600083015261504281614a27565b9050919050565b6000602082019050818103600083015261506281614a4a565b9050919050565b6000602082019050818103600083015261508281614a6d565b9050919050565b600060208201905081810360008301526150a281614a90565b9050919050565b600060208201905081810360008301526150c281614ab3565b9050919050565b600060208201905081810360008301526150e281614ad6565b9050919050565b6000602082019050818103600083015261510281614b1c565b9050919050565b6000602082019050818103600083015261512281614b3f565b9050919050565b6000602082019050818103600083015261514281614b62565b9050919050565b600060208201905061515e6000830184614b94565b92915050565b60006040820190506151796000830185614b94565b61518660208301846147fd565b9392505050565b60006060820190506151a26000830186614b94565b6151af60208301856147df565b6151bc6040830184614b94565b949350505050565b60006080820190506151d96000830187614b94565b6151e660208301866147df565b6151f36040830185614b94565b6152006060830184614b94565b95945050505050565b600060c08201905061521e6000830189614b94565b61522b60208301886147fd565b61523860408301876147fd565b6152456060830186614897565b6152526080830185614b94565b61525f60a083018461486a565b979650505050505050565b600060608201905061527f6000830186614b94565b61528c60208301856147fd565b6152996040830184614b94565b949350505050565b60006040820190506152b66000830185614b94565b81810360208301526152c8818461480c565b90509392505050565b60006152db6152ec565b90506152e78282615577565b919050565b6000604051905090565b600067ffffffffffffffff82111561531157615310615635565b5b602082029050602081019050919050565b6000819050602082019050919050565b600081519050919050565b6000602082019050919050565b600082825260208201905092915050565b600081905092915050565b600082825260208201905092915050565b6000615382826154ef565b915061538d836154ef565b9250827fffffffffffffffffffffffffffffffffffffffffffffffffffffffffffffffff038211156153c2576153c16155a8565b5b828201905092915050565b60006153d8826154ef565b91506153e3836154ef565b9250826153f3576153f26155d7565b5b828204905092915050565b6000615409826154ef565b9150615414836154ef565b9250817fffffffffffffffffffffffffffffffffffffffffffffffffffffffffffffffff048311821515161561544d5761544c6155a8565b5b828202905092915050565b6000615463826154ef565b915061546e836154ef565b925082821015615481576154806155a8565b5b828203905092915050565b6000615497826154cf565b9050919050565b60006154a9826154cf565b9050919050565b60008115159050919050565b60008190506154ca82615a1e565b919050565b600073ffffffffffffffffffffffffffffffffffffffff82169050919050565b6000819050919050565b600061550482615553565b9050919050565b60006155168261551d565b9050919050565b6000615528826154cf565b9050919050565b600061553a826154bc565b9050919050565b600061554c826154ef565b9050919050565b600061555e82615565565b9050919050565b6000615570826154cf565b9050919050565b61558082615664565b810181811067ffffffffffffffff8211171561559f5761559e615635565b5b80604052505050565b7f4e487b7100000000000000000000000000000000000000000000000000000000600052601160045260246000fd5b7f4e487b7100000000000000000000000000000000000000000000000000000000600052601260045260246000fd5b7f4e487b7100000000000000000000000000000000000000000000000000000000600052602160045260246000fd5b7f4e487b7100000000000000000000000000000000000000000000000000000000600052604160045260246000fd5b6000601f19601f8301169050919050565b7f5072696365206973206e6f7420656e6f75676800000000000000000000000000600082015250565b7f41756374696f6e206e6f742066696e6973686564207965740000000000000000600082015250565b7f42696420746f6f206c6f77000000000000000000000000000000000000000000600082015250565b7f5374616b696e673a204e6f7420746865207374616b6572206f6620746865207460008201527f6f6b656e00000000000000000000000000000000000000000000000000000000602082015250565b7f4f776e61626c653a206e6577206f776e657220697320746865207a65726f206160008201527f6464726573730000000000000000000000000000000000000000000000000000602082015250565b7f42696473206578697374696e6700000000000000000000000000000000000000600082015250565b7f426964206e6f7420616374697665000000000000000000000000000000000000600082015250565b7f41756374696f6e2063726561746f72206973206e6f74206e6674206f776e6572600082015250565b7f596f7520617265206e6f7420746865206f776e65720000000000000000000000600082015250565b7f43616e6e6f74206269642e204572726f7220696e2061756374696f6e00000000600082015250565b7f416e20616374697665206f6666657220616c7265616479206578697374730000600082015250565b7f4e6f7420746865206f776e657200000000000000000000000000000000000000600082015250565b7f436c61696d2061737365742066726f6d2061756374696f6e206861732070726960008201527f6f72697479000000000000000000000000000000000000000000000000000000602082015250565b7f4f776e61626c653a2063616c6c6572206973206e6f7420746865206f776e6572600082015250565b7f4e4654206e6f7420696e2061756374696f6e0000000000000000000000000000600082015250565b7f4e4654206e6f7420696e206469726563742073616c6500000000000000000000600082015250565b7f436f6d6d697373696f6e20746f6f206869676800000000000000000000000000600082015250565b50565b7f5472616e73666572206661696c65642e00000000000000000000000000000000600082015250565b7f4e4654206e6f7420617070726f76656400000000000000000000000000000000600082015250565b7f5265656e7472616e637947756172643a207265656e7472616e742063616c6c00600082015250565b60038110615a2f57615a2e615606565b5b50565b615a3b8161548c565b8114615a4657600080fd5b50565b615a52816154b0565b8114615a5d57600080fd5b50565b615a69816154ef565b8114615a7457600080fd5b5056fea26469706673582212203d634945ecb9fd5e1089c11a922603cc0364339763aefa98bbe621484b931f6964736f6c63430008040033",
  "immutableReferences": {},
  "source": "// SPDX-License-Identifier: UNLICENSED\r\npragma solidity 0.8.4;\r\n\r\n//import \"./AddressUtils.sol\";\r\nimport \"@openzeppelin/contracts/token/ERC721/ERC721.sol\";\r\nimport \"@openzeppelin/contracts/access/Ownable.sol\";\r\nimport \"./PumlNFT.sol\";\r\nimport \"./PumlStake.sol\";\r\nimport \"@openzeppelin/contracts/utils/math/SafeMath.sol\";\r\nimport \"@openzeppelin/contracts/security/ReentrancyGuard.sol\";\r\n\r\ncontract Engine is Ownable, ReentrancyGuard {\r\n    using SafeMath for uint256;\r\n    PumlStake public stakePUMLx;\r\n\r\n    constructor(address _stakeAddress) {\r\n        stakePUMLx = PumlStake(_stakeAddress);\r\n    }\r\n\r\n    event OfferCreated(\r\n        uint256 _tokenId,\r\n        address _creator,\r\n        address _asset,\r\n        uint256 numCopies,\r\n        uint256 amount,\r\n        bool isSale\r\n    );\r\n    // Event triggered when an auction is created\r\n    event AuctionCreated(\r\n        uint256 _auctionId,\r\n        address _creator,\r\n        uint256 _tokenId,\r\n        uint256 _startPrice\r\n    );\r\n    // Event triggered when an auction receives a bid\r\n    event AuctionBid(uint256 _index, address _bidder, uint256 amount);\r\n    // Event triggered when an ended auction winner claims the NFT\r\n    event Claim(uint256 auctionIndex, address claimer);\r\n    // Event triggered when an auction received a bid that implies sending funds back to previous best bidder\r\n    event ReturnBidFunds(uint256 _index, address _bidder, uint256 amount);\r\n    // Event triggered when a royalties payment is generated, either on direct sales or on auctions\r\n    event Royalties(address receiver, uint256 amount);\r\n    // Event triggered when a payment to the owner is generated, either on direct sales or on auctions.assetAddress\r\n    // This event is useful to check that all the payments funds are the right ones.\r\n    event PaymentToOwner(\r\n        address receiver,\r\n        uint256 amount,\r\n        //    uint256 paidByCustomer,\r\n        uint256 commission,\r\n        uint256 royalties,\r\n        uint256 safetyCheckValue\r\n    );\r\n    event Buy(uint256 _index, address buyer, uint256 _amount);\r\n\r\n    // Status of an auction, calculated using the start date, the duration and the current timeblock\r\n    enum Status {\r\n        pending,\r\n        active,\r\n        finished\r\n    }\r\n    // Data of an auction\r\n    struct Auction {\r\n        address assetAddress; // token address\r\n        uint256 assetId; // token id\r\n        address payable creator; // creator of the auction, which is the token owner\r\n        uint256 startTime; // time (unix, in seconds) where the auction will start\r\n        uint256 duration; // duration in seconds of the auction\r\n        uint256 currentBidAmount; // amount in ETH of the current bid amount\r\n        address payable currentBidOwner; // address of the user who places the best bid\r\n        uint256 bidCount; // number of bids of the auction\r\n    }\r\n    Auction[] public auctions;\r\n\r\n    uint256 public commission = 0; // this is the commission in basic points that will charge the marketplace by default.\r\n    uint256 public accumulatedCommission = 0; // this is the amount in ETH accumulated on marketplace wallet\r\n    uint256 public totalSales = 0;\r\n\r\n    struct Offer {\r\n        address assetAddress; // address of the token\r\n        uint256 tokenId; // the tokenId returned when calling \"createItem\"\r\n        address payable creator; // who creates the offer\r\n        uint256 price; // price of each token\r\n        bool isOnSale; // is on sale or not\r\n        bool isAuction; // is this offer is for an auction\r\n        uint256 idAuction; // the id of the auction\r\n    }\r\n    mapping(uint256 => Offer) public offers;\r\n\r\n    // Every time a token is put on sale, an offer is created. An offer can be a direct sale, an auction\r\n    // or a combination of both.\r\n    function createOffer(\r\n        address _assetAddress, // address of the token\r\n        uint256 _tokenId, // tokenId\r\n        bool _isDirectSale, // true if can be bought on a direct sale\r\n        bool _isAuction, // true if can be bought in an auction\r\n        uint256 _price, // price that if paid in a direct sale, transfers the NFT\r\n        uint256 _startPrice, // minimum price on the auction\r\n        uint256 _startTime, // time when the auction will start. Check the format with frontend\r\n        uint256 _duration // duration in seconds of the auction\r\n    ) public {\r\n        ERC721 asset = ERC721(_assetAddress);\r\n        require(asset.ownerOf(_tokenId) == msg.sender, \"Not the owner\");\r\n        require(\r\n            asset.getApproved(_tokenId) == address(this),\r\n            \"NFT not approved\"\r\n        );\r\n        // Could not be used to update an existing offer (#02)\r\n        Offer memory previous = offers[_tokenId];\r\n        require(\r\n            previous.isOnSale == false && previous.isAuction == false,\r\n            \"An active offer already exists\"\r\n        );\r\n\r\n        // First create the offer\r\n        Offer memory offer = Offer({\r\n            assetAddress: _assetAddress,\r\n            tokenId: _tokenId,\r\n            creator: payable(msg.sender),\r\n            price: _price,\r\n            isOnSale: _isDirectSale,\r\n            isAuction: _isAuction,\r\n            idAuction: 0\r\n        });\r\n        // only if the offer has the \"is_auction\" flag, add the auction to the list\r\n        if (_isAuction) {\r\n            offer.idAuction = createAuction(\r\n                _assetAddress,\r\n                _tokenId,\r\n                _startPrice,\r\n                _startTime,\r\n                _duration\r\n            );\r\n        }\r\n        offers[_tokenId] = offer;\r\n        emit OfferCreated(\r\n            _tokenId,\r\n            msg.sender,\r\n            _assetAddress,\r\n            1,\r\n            _price,\r\n            _isDirectSale\r\n        );\r\n    }\r\n\r\n    // returns the auctionId from the offerId\r\n    function getAuctionId(uint256 _tokenId) public view returns (uint256) {\r\n        Offer memory offer = offers[_tokenId];\r\n        return offer.idAuction;\r\n    }\r\n\r\n    // this method returns the current date and time of the blockchain. Used also to check the contract is alive\r\n    function ahora() public view returns (uint256) {\r\n        return block.timestamp;\r\n    }\r\n\r\n    // Remove an auction from the offer that did not have previous bids. Beware could be a direct sale\r\n    function removeFromAuction(uint256 _tokenId) public {\r\n        Offer memory offer = offers[_tokenId];\r\n        require(msg.sender == offer.creator, \"You are not the owner\");\r\n        Auction memory auction = auctions[offer.idAuction];\r\n        require(auction.bidCount == 0, \"Bids existing\");\r\n        offer.isAuction = false;\r\n        offer.idAuction = 0;\r\n        offers[_tokenId] = offer;\r\n    }\r\n\r\n    // remove a direct sale from an offer. Beware that could be an auction for the token\r\n    function removeFromSale(uint256 _tokenId) public {\r\n        Offer memory offer = offers[_tokenId];\r\n        require(msg.sender == offer.creator, \"You are not the owner\");\r\n        offer.isOnSale = false;\r\n        offers[_tokenId] = offer;\r\n    }\r\n\r\n    // Changes the default commission. Only the owner of the marketplace can do that. In basic points\r\n    function setCommission(uint256 _commission) public onlyOwner {\r\n        require(_commission <= 5000, \"Commission too high\");\r\n        commission = _commission;\r\n    }\r\n\r\n    // called in a direct sale by the customer. Transfer the nft to the customer, the royalties (if any)\r\n    // to the token creator, the commission for the marketplace is keeped on the contract and the remaining\r\n    // funds are transferred to the token owner.\r\n    // is there is an auction open, the last bid amount is sent back to the last bidder\r\n    // After that, the offer is cleared.\r\n    function buy(uint256 _tokenId, uint256 _puml) external payable nonReentrant {\r\n        address buyer = msg.sender;\r\n        uint256 paidPrice = msg.value;\r\n\r\n        Offer memory offer = offers[_tokenId];\r\n        require(offer.isOnSale == true, \"NFT not in direct sale\");\r\n        uint256 price = offer.price;\r\n        require(paidPrice >= price, \"Price is not enough\");\r\n\r\n        //if there is a bid and the auction is closed but not claimed, give priority to claim\r\n        require(\r\n            !(offer.isAuction == true &&\r\n                isFinished(offer.idAuction) &&\r\n                auctions[offer.idAuction].bidCount > 0),\r\n            \"Claim asset from auction has priority\"\r\n        );\r\n\r\n        emit Claim(_tokenId, buyer);\r\n        PumlNFT asset = PumlNFT(offer.assetAddress);\r\n        asset.safeTransferFrom(offer.creator, buyer, _tokenId);\r\n\r\n        // now, pay the amount - commission - royalties to the auction creator\r\n        address payable creatorNFT = payable(asset.getCreator(_tokenId));\r\n\r\n        uint256 commissionToPay = (paidPrice.mul(commission)) / 10000;\r\n        uint256 royaltiesToPay = 0;\r\n        if (creatorNFT != offer.creator) {\r\n            // It is a resale. Transfer royalties\r\n            royaltiesToPay =\r\n                (paidPrice.mul(asset.getRoyalties(_tokenId))) /\r\n                10000;\r\n\r\n            (bool success, ) = creatorNFT.call{value: royaltiesToPay}(\"\");\r\n            require(success, \"Transfer failed.\");\r\n\r\n            emit Royalties(creatorNFT, royaltiesToPay);\r\n        }\r\n        uint256 amountToPay = paidPrice.sub(commissionToPay).sub(\r\n            royaltiesToPay\r\n        );\r\n\r\n        (bool success2, ) = offer.creator.call{value: amountToPay}(\"\");\r\n        require(success2, \"Transfer failed.\");\r\n        emit PaymentToOwner(\r\n            offer.creator,\r\n            amountToPay,\r\n            //     paidPrice,\r\n            commissionToPay,\r\n            royaltiesToPay,\r\n            amountToPay + ((paidPrice * commission) / 10000) // using safemath will trigger an error because of stack size\r\n        );\r\n\r\n        // is there is an auction open, we have to give back the last bid amount to the last bidder\r\n        if (offer.isAuction == true) {\r\n            Auction memory auction = auctions[offer.idAuction];\r\n            // #4. Only if there is at least a bid and the bid amount > 0, give it back to last bidder\r\n            if (auction.currentBidAmount != 0 && auction.bidCount > 0) {\r\n                // return funds to the previuos bidder\r\n                (bool success3, ) = auction.currentBidOwner.call{\r\n                    value: auction.currentBidAmount\r\n                }(\"\");\r\n                require(success3, \"Transfer failed.\");\r\n                emit ReturnBidFunds(\r\n                    offer.idAuction,\r\n                    auction.currentBidOwner,\r\n                    auction.currentBidAmount\r\n                );\r\n            }\r\n        }\r\n\r\n        emit Buy(_tokenId, buyer, msg.value);\r\n\r\n        accumulatedCommission = accumulatedCommission.add(commissionToPay);\r\n\r\n        offer.isAuction = false;\r\n        offer.isOnSale = false;\r\n        offers[_tokenId] = offer;\r\n\r\n        totalSales = totalSales.add(msg.value);\r\n\r\n        stakePUMLx.setTransferPuml(buyer, offer.creator, _puml);\r\n    }\r\n\r\n    // Creates an auction for a token. It is linked to an offer\r\n    function createAuction(\r\n        address _assetAddress, // address of the PumlNFT token\r\n        uint256 _assetId, // id of the NFT\r\n        uint256 _startPrice, // minimum price\r\n        uint256 _startTime, // time when the auction will start. Check with frontend because is unix time in seconds, not millisecs!\r\n        uint256 _duration // duration in seconds of the auction\r\n    ) private returns (uint256) {\r\n        if (_startTime == 0) {\r\n            _startTime = block.timestamp;\r\n        }\r\n\r\n        Auction memory auction = Auction({\r\n            creator: payable(msg.sender),\r\n            assetAddress: _assetAddress,\r\n            assetId: _assetId,\r\n            startTime: _startTime,\r\n            duration: _duration,\r\n            currentBidAmount: _startPrice,\r\n            currentBidOwner: payable(address(0)),\r\n            bidCount: 0\r\n        });\r\n        auctions.push(auction);\r\n        uint256 index = auctions.length.sub(1);\r\n\r\n        emit AuctionCreated(index, auction.creator, _assetId, _startPrice);\r\n\r\n        return index;\r\n    }\r\n\r\n    // At the end of the call, the amount is saved on the marketplace wallet and the previous bid amount is returned to old bidder\r\n    // except in the case of the first bid, as could exists a minimum price set by the creator as first bid.\r\n    function bid(uint256 auctionIndex, uint256 _puml) public payable nonReentrant {\r\n        address bidder = msg.sender;\r\n\r\n        Auction storage auction = auctions[auctionIndex];\r\n        require(auction.creator != address(0), \"Cannot bid. Error in auction\");\r\n        require(isActive(auctionIndex), \"Bid not active\");\r\n        require(msg.value > auction.currentBidAmount, \"Bid too low\");\r\n        // we got a better bid. Return funds to the previous best bidder\r\n        // and register the sender as `currentBidOwner`\r\n\r\n        // this check is for not transferring back funds on the first bid, as the fist bid is the minimum price set by the auction creator\r\n        // and the bid owner is address(0)\r\n        if (\r\n            auction.currentBidAmount != 0 &&\r\n            auction.currentBidOwner != address(0)\r\n        ) {\r\n            // return funds to the previuos bidder\r\n            (bool success, ) = auction.currentBidOwner.call{\r\n                value: auction.currentBidAmount\r\n            }(\"\");\r\n            require(success, \"Transfer failed.\");\r\n            emit ReturnBidFunds(\r\n                auctionIndex,\r\n                auction.currentBidOwner,\r\n                auction.currentBidAmount\r\n            );\r\n        }\r\n        // register new bidder\r\n        auction.currentBidAmount = msg.value;\r\n        auction.currentBidOwner = payable(bidder);\r\n        auction.bidCount = auction.bidCount.add(1);\r\n\r\n        stakePUMLx.setDepositPuml(bidder, _puml);\r\n\r\n        emit AuctionBid(auctionIndex, bidder, msg.value);\r\n    }\r\n\r\n    function getTotalAuctions() public view returns (uint256) {\r\n        return auctions.length;\r\n    }\r\n\r\n    function isActive(uint256 _auctionIndex) public view returns (bool) {\r\n        return getStatus(_auctionIndex) == Status.active;\r\n    }\r\n\r\n    function isFinished(uint256 _auctionIndex) public view returns (bool) {\r\n        return getStatus(_auctionIndex) == Status.finished;\r\n    }\r\n\r\n    // The auctions did not be affected if the current time is 15 seconds wrong\r\n    // So, according to Consensys security advices, it is safe using block.timestamp\r\n    function getStatus(uint256 _auctionIndex) public view returns (Status) {\r\n        Auction storage auction = auctions[_auctionIndex];\r\n        if (block.timestamp < auction.startTime) {\r\n            return Status.pending;\r\n        } else if (block.timestamp < auction.startTime.add(auction.duration)) {\r\n            return Status.active;\r\n        } else {\r\n            return Status.finished;\r\n        }\r\n    }\r\n\r\n    // returns the end date of the auction, in unix time using seconds\r\n    function endDate(uint256 _auctionIndex) public view returns (uint256) {\r\n        Auction storage auction = auctions[_auctionIndex];\r\n        return auction.startTime.add(auction.duration);\r\n    }\r\n\r\n    // returns the user with the best bid until now on an auction\r\n    function getCurrentBidOwner(uint256 _auctionIndex)\r\n        public\r\n        view\r\n        returns (address)\r\n    {\r\n        return auctions[_auctionIndex].currentBidOwner;\r\n    }\r\n\r\n    // returns the amount in ETH of the best bid until now on an auction\r\n    function getCurrentBidAmount(uint256 _auctionIndex)\r\n        public\r\n        view\r\n        returns (uint256)\r\n    {\r\n        return auctions[_auctionIndex].currentBidAmount;\r\n    }\r\n\r\n    // returns the number of bids of an auction (0 by default)\r\n    function getBidCount(uint256 _auctionIndex) public view returns (uint256) {\r\n        return auctions[_auctionIndex].bidCount;\r\n    }\r\n\r\n    // returns the winner of an auction once the auction finished\r\n    function getWinner(uint256 auctionIndex) public view returns (address) {\r\n        require(isFinished(auctionIndex), \"Auction not finished yet\");\r\n        return auctions[auctionIndex].currentBidOwner;\r\n    }\r\n\r\n    // called when the auction is finished by the user who won the auction\r\n    // transfer the nft to the caller, the royalties (if any) to the nft creator\r\n    // the commission of the marketplace is calculated, and the remaining funds\r\n    // are transferred to the token owner\r\n    // After this, the offer is disabled\r\n    function closeAuction(uint256 auctionIndex) public {\r\n        //    address winner = getWinner(auctionIndex);\r\n        //    require(winner == msg.sender, \"You are not the winner of the auction\");\r\n        auctionTransferAsset(auctionIndex);\r\n    }\r\n\r\n    function automaticSetWinner(uint256 auctionIndex) public onlyOwner {\r\n        auctionTransferAsset(auctionIndex);\r\n    }\r\n\r\n    function auctionTransferAsset(uint256 auctionIndex) private nonReentrant {\r\n        // require(isFinished(auctionIndex), \"The auction is still active\");\r\n        address winner = getWinner(auctionIndex);\r\n\r\n        Auction storage auction = auctions[auctionIndex];\r\n\r\n        // the token could be sold in direct sale or the owner cancelled the auction\r\n        Offer memory offer = offers[auction.assetId];\r\n        require(offer.isAuction == true, \"NFT not in auction\");\r\n\r\n        if (auction.bidCount > 0) {\r\n            PumlNFT asset = PumlNFT(auction.assetAddress);\r\n\r\n            // #3, check if the asset owner had removed their approval or the offer creator is not the token owner anymore.\r\n            require(\r\n                asset.getApproved(auction.assetId) == address(this),\r\n                \"NFT not approved\"\r\n            );\r\n            require(\r\n                asset.ownerOf(auction.assetId) == auction.creator,\r\n                \"Auction creator is not nft owner\"\r\n            );\r\n\r\n            asset.safeTransferFrom(auction.creator, winner, auction.assetId);\r\n\r\n            emit Claim(auctionIndex, winner);\r\n\r\n            // now, pay the amount - commission - royalties to the auction creator\r\n            address payable creatorNFT = payable(\r\n                asset.getCreator(auction.assetId)\r\n            );\r\n            uint256 commissionToPay = (\r\n                auction.currentBidAmount.mul(commission)\r\n            ) / 10000;\r\n            uint256 royaltiesToPay = 0;\r\n            if (creatorNFT != auction.creator) {\r\n                // It is a resale. Transfer royalties\r\n                royaltiesToPay =\r\n                    (\r\n                        auction.currentBidAmount.mul(\r\n                            asset.getRoyalties(auction.assetId)\r\n                        )\r\n                    ) /\r\n                    10000;\r\n                creatorNFT.transfer(royaltiesToPay);\r\n                emit Royalties(creatorNFT, royaltiesToPay);\r\n            }\r\n            uint256 amountToPay = auction\r\n                .currentBidAmount\r\n                .sub(commissionToPay)\r\n                .sub(royaltiesToPay);\r\n\r\n            (bool success, ) = auction.creator.call{value: amountToPay}(\"\");\r\n            require(success, \"Transfer failed.\");\r\n            emit PaymentToOwner(\r\n                auction.creator,\r\n                amountToPay,\r\n                //  auction.currentBidAmount,\r\n                commissionToPay,\r\n                royaltiesToPay,\r\n                amountToPay + commissionToPay + royaltiesToPay\r\n            );\r\n\r\n            accumulatedCommission = accumulatedCommission.add(commissionToPay);\r\n\r\n            totalSales = totalSales.add(auction.currentBidAmount);\r\n        }\r\n\r\n        offer.isAuction = false;\r\n        offer.isOnSale = false;\r\n        offers[auction.assetId] = offer;\r\n    }\r\n\r\n    //stake NFT\r\n    \r\n    function stakeNFT(\r\n        address _assetAddress,\r\n        address _to, \r\n        uint256[] memory tokenIds,\r\n        uint256 collect,\r\n        uint256 feeward\r\n    ) external payable nonReentrant {\r\n\r\n        uint256 amount;\r\n        ERC721 token = ERC721(_assetAddress);\r\n        for (uint256 i = 0; i < tokenIds.length; i += 1) {\r\n            // Transfer user's NFTs to the staking contract\r\n            token.safeTransferFrom(msg.sender, _to, tokenIds[i]);\r\n            // Increment the amount which will be staked\r\n            amount += 1;\r\n            // Save who is the staker/depositor of the token\r\n            stakePUMLx.setStakedAssets(tokenIds[i], msg.sender);\r\n        }\r\n        _stakeNFT(amount);\r\n        stakePUMLx.setUserRewardUpdate(msg.sender, collect, feeward);\r\n        emit StakedNFT(msg.sender, amount, tokenIds);\r\n    }\r\n\r\n    function withdrawNFT(\r\n        address _assetAddress, \r\n        address _from, \r\n        uint256[] memory tokenIds,\r\n        uint256 collect,\r\n        uint256 feeward\r\n    ) public payable nonReentrant {\r\n\r\n        uint256 amount;\r\n        ERC721 token = ERC721(_assetAddress);\r\n        for (uint256 i = 0; i < tokenIds.length; i += 1) {\r\n            // Check if the user who withdraws is the owner\r\n            require(\r\n                stakePUMLx.getStakedAssets(tokenIds[i]) == msg.sender,\r\n                \"Staking: Not the staker of the token\"\r\n            );\r\n            // Transfer NFTs back to the owner\r\n            token.safeTransferFrom(_from, msg.sender, tokenIds[i]);\r\n            // Increment the amount which will be withdrawn\r\n            amount += 1;\r\n            // Cleanup stakedAssets for the current tokenId\r\n            stakePUMLx.setStakedAssets(tokenIds[i], address(0));\r\n        }\r\n        _withdrawNFT(amount);\r\n        stakePUMLx.setUserRewardUpdate(msg.sender, collect, feeward);\r\n        emit WithdrawnNFT(msg.sender, amount, tokenIds);\r\n    }\r\n\r\n    function _stakeNFT(uint256 _amount) internal {\r\n        stakePUMLx.setBalancesNFT(msg.sender, _amount, true);\r\n    }\r\n\r\n    function _withdrawNFT(uint256 _amount) internal {\r\n        stakePUMLx.setBalancesNFT(msg.sender, _amount, false);\r\n    }\r\n\r\n    event StakedNFT(address indexed user, uint256 amount, uint256[] tokenIds);\r\n    event WithdrawnNFT(address indexed user, uint256 amount, uint256[] tokenIds);\r\n}\r\n",
  "sourcePath": "F:\\work\\puml-project\\ethcontracts\\contracts\\Engine.sol",
  "compiler": {
    "name": "solc",
    "version": "0.8.4+commit.c7e474f2.Emscripten.clang"
  },
  "schemaVersion": "3.4.5",
  "updatedAt": "2022-08-24T20:27:26.043Z",
  "devdoc": {
    "kind": "dev",
    "methods": {
      "owner()": {
        "details": "Returns the address of the current owner."
      },
      "renounceOwnership()": {
        "details": "Leaves the contract without owner. It will not be possible to call `onlyOwner` functions anymore. Can only be called by the current owner. NOTE: Renouncing ownership will leave the contract without an owner, thereby removing any functionality that is only available to the owner."
      },
      "transferOwnership(address)": {
        "details": "Transfers ownership of the contract to a new account (`newOwner`). Can only be called by the current owner."
      }
    },
    "version": 1
  },
  "userdoc": {
    "kind": "user",
    "methods": {},
    "version": 1
  }
}