{
  "contractName": "Engine",
  "abi": [
    {
      "inputs": [
        {
          "internalType": "address",
          "name": "_stakeAddress",
          "type": "address"
        }
      ],
      "stateMutability": "nonpayable",
      "type": "constructor"
    },
    {
      "anonymous": false,
      "inputs": [
        {
          "indexed": false,
          "internalType": "uint256",
          "name": "_index",
          "type": "uint256"
        },
        {
          "indexed": false,
          "internalType": "address",
          "name": "_bidder",
          "type": "address"
        },
        {
          "indexed": false,
          "internalType": "uint256",
          "name": "amount",
          "type": "uint256"
        }
      ],
      "name": "AuctionBid",
      "type": "event"
    },
    {
      "anonymous": false,
      "inputs": [
        {
          "indexed": false,
          "internalType": "uint256",
          "name": "_auctionId",
          "type": "uint256"
        },
        {
          "indexed": false,
          "internalType": "address",
          "name": "_creator",
          "type": "address"
        },
        {
          "indexed": false,
          "internalType": "uint256",
          "name": "_tokenId",
          "type": "uint256"
        },
        {
          "indexed": false,
          "internalType": "uint256",
          "name": "_startPrice",
          "type": "uint256"
        }
      ],
      "name": "AuctionCreated",
      "type": "event"
    },
    {
      "anonymous": false,
      "inputs": [
        {
          "indexed": false,
          "internalType": "uint256",
          "name": "_index",
          "type": "uint256"
        },
        {
          "indexed": false,
          "internalType": "address",
          "name": "buyer",
          "type": "address"
        },
        {
          "indexed": false,
          "internalType": "uint256",
          "name": "_amount",
          "type": "uint256"
        }
      ],
      "name": "Buy",
      "type": "event"
    },
    {
      "anonymous": false,
      "inputs": [
        {
          "indexed": false,
          "internalType": "uint256",
          "name": "auctionIndex",
          "type": "uint256"
        },
        {
          "indexed": false,
          "internalType": "address",
          "name": "claimer",
          "type": "address"
        }
      ],
      "name": "Claim",
      "type": "event"
    },
    {
      "anonymous": false,
      "inputs": [
        {
          "indexed": false,
          "internalType": "uint256",
          "name": "_tokenId",
          "type": "uint256"
        },
        {
          "indexed": false,
          "internalType": "address",
          "name": "_creator",
          "type": "address"
        },
        {
          "indexed": false,
          "internalType": "address",
          "name": "_asset",
          "type": "address"
        },
        {
          "indexed": false,
          "internalType": "uint256",
          "name": "numCopies",
          "type": "uint256"
        },
        {
          "indexed": false,
          "internalType": "uint256",
          "name": "amount",
          "type": "uint256"
        },
        {
          "indexed": false,
          "internalType": "bool",
          "name": "isSale",
          "type": "bool"
        }
      ],
      "name": "OfferCreated",
      "type": "event"
    },
    {
      "anonymous": false,
      "inputs": [
        {
          "indexed": true,
          "internalType": "address",
          "name": "previousOwner",
          "type": "address"
        },
        {
          "indexed": true,
          "internalType": "address",
          "name": "newOwner",
          "type": "address"
        }
      ],
      "name": "OwnershipTransferred",
      "type": "event"
    },
    {
      "anonymous": false,
      "inputs": [
        {
          "indexed": false,
          "internalType": "address",
          "name": "receiver",
          "type": "address"
        },
        {
          "indexed": false,
          "internalType": "uint256",
          "name": "amount",
          "type": "uint256"
        },
        {
          "indexed": false,
          "internalType": "uint256",
          "name": "commission",
          "type": "uint256"
        },
        {
          "indexed": false,
          "internalType": "uint256",
          "name": "royalties",
          "type": "uint256"
        },
        {
          "indexed": false,
          "internalType": "uint256",
          "name": "safetyCheckValue",
          "type": "uint256"
        }
      ],
      "name": "PaymentToOwner",
      "type": "event"
    },
    {
      "anonymous": false,
      "inputs": [
        {
          "indexed": false,
          "internalType": "uint256",
          "name": "_index",
          "type": "uint256"
        },
        {
          "indexed": false,
          "internalType": "address",
          "name": "_bidder",
          "type": "address"
        },
        {
          "indexed": false,
          "internalType": "uint256",
          "name": "amount",
          "type": "uint256"
        }
      ],
      "name": "ReturnBidFunds",
      "type": "event"
    },
    {
      "anonymous": false,
      "inputs": [
        {
          "indexed": false,
          "internalType": "address",
          "name": "receiver",
          "type": "address"
        },
        {
          "indexed": false,
          "internalType": "uint256",
          "name": "amount",
          "type": "uint256"
        }
      ],
      "name": "Royalties",
      "type": "event"
    },
    {
      "anonymous": false,
      "inputs": [
        {
          "indexed": true,
          "internalType": "address",
          "name": "user",
          "type": "address"
        },
        {
          "indexed": false,
          "internalType": "uint256",
          "name": "amount",
          "type": "uint256"
        },
        {
          "indexed": false,
          "internalType": "uint256[]",
          "name": "tokenIds",
          "type": "uint256[]"
        }
      ],
      "name": "StakedNFT",
      "type": "event"
    },
    {
      "anonymous": false,
      "inputs": [
        {
          "indexed": true,
          "internalType": "address",
          "name": "user",
          "type": "address"
        },
        {
          "indexed": false,
          "internalType": "uint256",
          "name": "amount",
          "type": "uint256"
        },
        {
          "indexed": false,
          "internalType": "uint256[]",
          "name": "tokenIds",
          "type": "uint256[]"
        }
      ],
      "name": "WithdrawnNFT",
      "type": "event"
    },
    {
      "inputs": [],
      "name": "accumulatedCommission",
      "outputs": [
        {
          "internalType": "uint256",
          "name": "",
          "type": "uint256"
        }
      ],
      "stateMutability": "view",
      "type": "function"
    },
    {
      "inputs": [
        {
          "internalType": "uint256",
          "name": "",
          "type": "uint256"
        }
      ],
      "name": "auctions",
      "outputs": [
        {
          "internalType": "address",
          "name": "assetAddress",
          "type": "address"
        },
        {
          "internalType": "uint256",
          "name": "assetId",
          "type": "uint256"
        },
        {
          "internalType": "address payable",
          "name": "creator",
          "type": "address"
        },
        {
          "internalType": "uint256",
          "name": "startTime",
          "type": "uint256"
        },
        {
          "internalType": "uint256",
          "name": "duration",
          "type": "uint256"
        },
        {
          "internalType": "uint256",
          "name": "currentBidAmount",
          "type": "uint256"
        },
        {
          "internalType": "address payable",
          "name": "currentBidOwner",
          "type": "address"
        },
        {
          "internalType": "uint256",
          "name": "bidCount",
          "type": "uint256"
        }
      ],
      "stateMutability": "view",
      "type": "function"
    },
    {
      "inputs": [],
      "name": "commission",
      "outputs": [
        {
          "internalType": "uint256",
          "name": "",
          "type": "uint256"
        }
      ],
      "stateMutability": "view",
      "type": "function"
    },
    {
      "inputs": [
        {
          "internalType": "uint256",
          "name": "",
          "type": "uint256"
        }
      ],
      "name": "offers",
      "outputs": [
        {
          "internalType": "address",
          "name": "assetAddress",
          "type": "address"
        },
        {
          "internalType": "uint256",
          "name": "tokenId",
          "type": "uint256"
        },
        {
          "internalType": "address payable",
          "name": "creator",
          "type": "address"
        },
        {
          "internalType": "uint256",
          "name": "price",
          "type": "uint256"
        },
        {
          "internalType": "bool",
          "name": "isOnSale",
          "type": "bool"
        },
        {
          "internalType": "bool",
          "name": "isAuction",
          "type": "bool"
        },
        {
          "internalType": "uint256",
          "name": "idAuction",
          "type": "uint256"
        }
      ],
      "stateMutability": "view",
      "type": "function"
    },
    {
      "inputs": [],
      "name": "owner",
      "outputs": [
        {
          "internalType": "address",
          "name": "",
          "type": "address"
        }
      ],
      "stateMutability": "view",
      "type": "function"
    },
    {
      "inputs": [],
      "name": "renounceOwnership",
      "outputs": [],
      "stateMutability": "nonpayable",
      "type": "function"
    },
    {
      "inputs": [],
      "name": "stakePUMLx",
      "outputs": [
        {
          "internalType": "contract PumlStake",
          "name": "",
          "type": "address"
        }
      ],
      "stateMutability": "view",
      "type": "function"
    },
    {
      "inputs": [],
      "name": "totalSales",
      "outputs": [
        {
          "internalType": "uint256",
          "name": "",
          "type": "uint256"
        }
      ],
      "stateMutability": "view",
      "type": "function"
    },
    {
      "inputs": [
        {
          "internalType": "address",
          "name": "newOwner",
          "type": "address"
        }
      ],
      "name": "transferOwnership",
      "outputs": [],
      "stateMutability": "nonpayable",
      "type": "function"
    },
    {
      "inputs": [
        {
          "internalType": "address",
          "name": "_assetAddress",
          "type": "address"
        },
        {
          "internalType": "uint256",
          "name": "_tokenId",
          "type": "uint256"
        },
        {
          "internalType": "bool",
          "name": "_isDirectSale",
          "type": "bool"
        },
        {
          "internalType": "bool",
          "name": "_isAuction",
          "type": "bool"
        },
        {
          "internalType": "uint256",
          "name": "_price",
          "type": "uint256"
        },
        {
          "internalType": "uint256",
          "name": "_startPrice",
          "type": "uint256"
        },
        {
          "internalType": "uint256",
          "name": "_startTime",
          "type": "uint256"
        },
        {
          "internalType": "uint256",
          "name": "_duration",
          "type": "uint256"
        }
      ],
      "name": "createOffer",
      "outputs": [],
      "stateMutability": "nonpayable",
      "type": "function"
    },
    {
      "inputs": [
        {
          "internalType": "uint256",
          "name": "_tokenId",
          "type": "uint256"
        }
      ],
      "name": "getAuctionId",
      "outputs": [
        {
          "internalType": "uint256",
          "name": "",
          "type": "uint256"
        }
      ],
      "stateMutability": "view",
      "type": "function"
    },
    {
      "inputs": [],
      "name": "ahora",
      "outputs": [
        {
          "internalType": "uint256",
          "name": "",
          "type": "uint256"
        }
      ],
      "stateMutability": "view",
      "type": "function"
    },
    {
      "inputs": [
        {
          "internalType": "uint256",
          "name": "_tokenId",
          "type": "uint256"
        }
      ],
      "name": "removeFromAuction",
      "outputs": [],
      "stateMutability": "nonpayable",
      "type": "function"
    },
    {
      "inputs": [
        {
          "internalType": "uint256",
          "name": "_tokenId",
          "type": "uint256"
        }
      ],
      "name": "removeFromSale",
      "outputs": [],
      "stateMutability": "nonpayable",
      "type": "function"
    },
    {
      "inputs": [
        {
          "internalType": "uint256",
          "name": "_commission",
          "type": "uint256"
        }
      ],
      "name": "setCommission",
      "outputs": [],
      "stateMutability": "nonpayable",
      "type": "function"
    },
    {
      "inputs": [
        {
          "internalType": "uint256",
          "name": "_tokenId",
          "type": "uint256"
        },
        {
          "internalType": "uint256",
          "name": "_puml",
          "type": "uint256"
        }
      ],
      "name": "buy",
      "outputs": [],
      "stateMutability": "payable",
      "type": "function"
    },
    {
      "inputs": [
        {
          "internalType": "uint256",
          "name": "auctionIndex",
          "type": "uint256"
        },
        {
          "internalType": "uint256",
          "name": "_puml",
          "type": "uint256"
        }
      ],
      "name": "bid",
      "outputs": [],
      "stateMutability": "payable",
      "type": "function"
    },
    {
      "inputs": [],
      "name": "getTotalAuctions",
      "outputs": [
        {
          "internalType": "uint256",
          "name": "",
          "type": "uint256"
        }
      ],
      "stateMutability": "view",
      "type": "function"
    },
    {
      "inputs": [
        {
          "internalType": "uint256",
          "name": "_auctionIndex",
          "type": "uint256"
        }
      ],
      "name": "isActive",
      "outputs": [
        {
          "internalType": "bool",
          "name": "",
          "type": "bool"
        }
      ],
      "stateMutability": "view",
      "type": "function"
    },
    {
      "inputs": [
        {
          "internalType": "uint256",
          "name": "_auctionIndex",
          "type": "uint256"
        }
      ],
      "name": "isFinished",
      "outputs": [
        {
          "internalType": "bool",
          "name": "",
          "type": "bool"
        }
      ],
      "stateMutability": "view",
      "type": "function"
    },
    {
      "inputs": [
        {
          "internalType": "uint256",
          "name": "_auctionIndex",
          "type": "uint256"
        }
      ],
      "name": "getStatus",
      "outputs": [
        {
          "internalType": "enum Engine.Status",
          "name": "",
          "type": "uint8"
        }
      ],
      "stateMutability": "view",
      "type": "function"
    },
    {
      "inputs": [
        {
          "internalType": "uint256",
          "name": "_auctionIndex",
          "type": "uint256"
        }
      ],
      "name": "endDate",
      "outputs": [
        {
          "internalType": "uint256",
          "name": "",
          "type": "uint256"
        }
      ],
      "stateMutability": "view",
      "type": "function"
    },
    {
      "inputs": [
        {
          "internalType": "uint256",
          "name": "_auctionIndex",
          "type": "uint256"
        }
      ],
      "name": "getCurrentBidOwner",
      "outputs": [
        {
          "internalType": "address",
          "name": "",
          "type": "address"
        }
      ],
      "stateMutability": "view",
      "type": "function"
    },
    {
      "inputs": [
        {
          "internalType": "uint256",
          "name": "_auctionIndex",
          "type": "uint256"
        }
      ],
      "name": "getCurrentBidAmount",
      "outputs": [
        {
          "internalType": "uint256",
          "name": "",
          "type": "uint256"
        }
      ],
      "stateMutability": "view",
      "type": "function"
    },
    {
      "inputs": [
        {
          "internalType": "uint256",
          "name": "_auctionIndex",
          "type": "uint256"
        }
      ],
      "name": "getBidCount",
      "outputs": [
        {
          "internalType": "uint256",
          "name": "",
          "type": "uint256"
        }
      ],
      "stateMutability": "view",
      "type": "function"
    },
    {
      "inputs": [
        {
          "internalType": "uint256",
          "name": "auctionIndex",
          "type": "uint256"
        }
      ],
      "name": "getWinner",
      "outputs": [
        {
          "internalType": "address",
          "name": "",
          "type": "address"
        }
      ],
      "stateMutability": "view",
      "type": "function"
    },
    {
      "inputs": [
        {
          "internalType": "uint256",
          "name": "auctionIndex",
          "type": "uint256"
        }
      ],
      "name": "closeAuction",
      "outputs": [],
      "stateMutability": "nonpayable",
      "type": "function"
    },
    {
      "inputs": [
        {
          "internalType": "uint256",
          "name": "auctionIndex",
          "type": "uint256"
        }
      ],
      "name": "automaticSetWinner",
      "outputs": [],
      "stateMutability": "nonpayable",
      "type": "function"
    },
    {
      "inputs": [
        {
          "internalType": "address",
          "name": "_assetAddress",
          "type": "address"
        },
        {
          "internalType": "uint256[]",
          "name": "tokenIds",
          "type": "uint256[]"
        }
      ],
      "name": "stakeNFT",
      "outputs": [],
      "stateMutability": "payable",
      "type": "function"
    },
    {
      "inputs": [
        {
          "internalType": "address",
          "name": "_assetAddress",
          "type": "address"
        },
        {
          "internalType": "uint256[]",
          "name": "tokenIds",
          "type": "uint256[]"
        }
      ],
      "name": "withdrawNFT",
      "outputs": [],
      "stateMutability": "payable",
      "type": "function"
    }
  ],
  "bytecode": "0x608060405273dcbdb0ddb5a3a8df116d7a02415dd0c4c39fbdad600360006101000a81548173ffffffffffffffffffffffffffffffffffffffff021916908373ffffffffffffffffffffffffffffffffffffffff16021790555073c8616cd6e90c2a770cdb66ea777e5da6bb57832f600460006101000a81548173ffffffffffffffffffffffffffffffffffffffff021916908373ffffffffffffffffffffffffffffffffffffffff160217905550600360009054906101000a900473ffffffffffffffffffffffffffffffffffffffff16600560006101000a81548173ffffffffffffffffffffffffffffffffffffffff021916908373ffffffffffffffffffffffffffffffffffffffff160217905550600460009054906101000a900473ffffffffffffffffffffffffffffffffffffffff16600660006101000a81548173ffffffffffffffffffffffffffffffffffffffff021916908373ffffffffffffffffffffffffffffffffffffffff16021790555061010e60085560006009556000600a553480156200019157600080fd5b5060405162006060380380620060608339818101604052810190620001b7919062000309565b620001d7620001cb6200022660201b60201c565b6200022e60201b60201c565b6001808190555080600260006101000a81548173ffffffffffffffffffffffffffffffffffffffff021916908373ffffffffffffffffffffffffffffffffffffffff1602179055505062000383565b600033905090565b60008060009054906101000a900473ffffffffffffffffffffffffffffffffffffffff169050816000806101000a81548173ffffffffffffffffffffffffffffffffffffffff021916908373ffffffffffffffffffffffffffffffffffffffff1602179055508173ffffffffffffffffffffffffffffffffffffffff168173ffffffffffffffffffffffffffffffffffffffff167f8be0079c531659141344cd1fd0a4f28419497f9722a3daafe3b4186f6b6457e060405160405180910390a35050565b600081519050620003038162000369565b92915050565b6000602082840312156200031c57600080fd5b60006200032c84828501620002f2565b91505092915050565b6000620003428262000349565b9050919050565b600073ffffffffffffffffffffffffffffffffffffffff82169050919050565b620003748162000335565b81146200038057600080fd5b50565b615ccd80620003936000396000f3fe6080604052600436106101cd5760003560e01c8063715018a6116100f75780639175a58811610095578063e148919111610064578063e148919114610695578063e8ba6509146106c0578063ea4f10b5146106fd578063f2fde38b14610728576101cd565b80639175a588146106165780639bdedea514610632578063ae6936731461064e578063d6febde814610679576101cd565b806382afd23b116100d157806382afd23b1461052e57806386b460731461056b5780638a72ea6a146105a85780638da5cb5b146105eb576101cd565b8063715018a6146104b1578063744d3411146104c85780637b5a96a614610505576101cd565b80634129b2c91161016f578063598647f81161013e578063598647f8146103f05780635c622a0e1461040c5780636605ff66146104495780636975846a14610474576101cd565b80634129b2c9146103095780634cac5b4b146103465780635552f6ca14610383578063571a26a0146103ac576101cd565b8063236ed8f3116101ab578063236ed8f3146102615780632b8667591461028a578063355e6b43146102b55780633ef14cc8146102de576101cd565b806312f4ea2e146101d25780631361a3b61461020f5780632241091b14610238575b600080fd5b3480156101de57600080fd5b506101f960048036038101906101f49190614990565b610751565b6040516102069190615369565b60405180910390f35b34801561021b57600080fd5b5061023660048036038101906102319190614990565b610881565b005b34801561024457600080fd5b5061025f600480360381019061025a9190614990565b610b2d565b005b34801561026d57600080fd5b5061028860048036038101906102839190614990565b610fbc565b005b34801561029657600080fd5b5061029f610fc8565b6040516102ac9190615369565b60405180910390f35b3480156102c157600080fd5b506102dc60048036038101906102d79190614990565b610fd0565b005b3480156102ea57600080fd5b506102f361109b565b6040516103009190615369565b60405180910390f35b34801561031557600080fd5b50610330600480360381019061032b9190614990565b6110a8565b60405161033d9190614e0f565b60405180910390f35b34801561035257600080fd5b5061036d60048036038101906103689190614990565b611165565b60405161037a9190615369565b60405180910390f35b34801561038f57600080fd5b506103aa60048036038101906103a59190614990565b6111d5565b005b3480156103b857600080fd5b506103d360048036038101906103ce9190614990565b61125d565b6040516103e7989796959493929190614fe3565b60405180910390f35b61040a600480360381019061040591906149e2565b611315565b005b34801561041857600080fd5b50610433600480360381019061042e9190614990565b6117c7565b60405161044091906150ce565b60405180910390f35b34801561045557600080fd5b5061045e611861565b60405161046b9190615369565b60405180910390f35b34801561048057600080fd5b5061049b60048036038101906104969190614990565b611867565b6040516104a89190615369565b60405180910390f35b3480156104bd57600080fd5b506104c66118bc565b005b3480156104d457600080fd5b506104ef60048036038101906104ea9190614990565b611944565b6040516104fc9190615369565b60405180910390f35b34801561051157600080fd5b5061052c600480360381019061052791906148de565b611999565b005b34801561053a57600080fd5b5061055560048036038101906105509190614990565b611ee2565b6040516105629190615098565b60405180910390f35b34801561057757600080fd5b50610592600480360381019061058d9190614990565b611f67565b60405161059f9190614e0f565b60405180910390f35b3480156105b457600080fd5b506105cf60048036038101906105ca9190614990565b611fdc565b6040516105e29796959493929190614f74565b60405180910390f35b3480156105f757600080fd5b50610600612078565b60405161060d9190614e0f565b60405180910390f35b610630600480360381019061062b919061488a565b6120a1565b005b61064c6004803603810190610647919061488a565b61225a565b005b34801561065a57600080fd5b5061066361256e565b6040516106709190615369565b60405180910390f35b610693600480360381019061068e91906149e2565b612574565b005b3480156106a157600080fd5b506106aa6136be565b6040516106b79190615369565b60405180910390f35b3480156106cc57600080fd5b506106e760048036038101906106e29190614990565b6136c4565b6040516106f49190615098565b60405180910390f35b34801561070957600080fd5b50610712613748565b60405161071f91906150b3565b60405180910390f35b34801561073457600080fd5b5061074f600480360381019061074a9190614838565b61376e565b005b600080600b60008481526020019081526020016000206040518060e00160405290816000820160009054906101000a900473ffffffffffffffffffffffffffffffffffffffff1673ffffffffffffffffffffffffffffffffffffffff1673ffffffffffffffffffffffffffffffffffffffff168152602001600182015481526020016002820160009054906101000a900473ffffffffffffffffffffffffffffffffffffffff1673ffffffffffffffffffffffffffffffffffffffff1673ffffffffffffffffffffffffffffffffffffffff168152602001600382015481526020016004820160009054906101000a900460ff161515151581526020016004820160019054906101000a900460ff1615151515815260200160058201548152505090508060c00151915050919050565b6000600b60008381526020019081526020016000206040518060e00160405290816000820160009054906101000a900473ffffffffffffffffffffffffffffffffffffffff1673ffffffffffffffffffffffffffffffffffffffff1673ffffffffffffffffffffffffffffffffffffffff168152602001600182015481526020016002820160009054906101000a900473ffffffffffffffffffffffffffffffffffffffff1673ffffffffffffffffffffffffffffffffffffffff1673ffffffffffffffffffffffffffffffffffffffff168152602001600382015481526020016004820160009054906101000a900460ff161515151581526020016004820160019054906101000a900460ff161515151581526020016005820154815250509050806040015173ffffffffffffffffffffffffffffffffffffffff163373ffffffffffffffffffffffffffffffffffffffff1614610a15576040517f08c379a0000000000000000000000000000000000000000000000000000000008152600401610a0c906151e9565b60405180910390fd5b600081608001901515908115158152505080600b600084815260200190815260200160002060008201518160000160006101000a81548173ffffffffffffffffffffffffffffffffffffffff021916908373ffffffffffffffffffffffffffffffffffffffff1602179055506020820151816001015560408201518160020160006101000a81548173ffffffffffffffffffffffffffffffffffffffff021916908373ffffffffffffffffffffffffffffffffffffffff1602179055506060820151816003015560808201518160040160006101000a81548160ff02191690831515021790555060a08201518160040160016101000a81548160ff02191690831515021790555060c082015181600501559050505050565b6000600b60008381526020019081526020016000206040518060e00160405290816000820160009054906101000a900473ffffffffffffffffffffffffffffffffffffffff1673ffffffffffffffffffffffffffffffffffffffff1673ffffffffffffffffffffffffffffffffffffffff168152602001600182015481526020016002820160009054906101000a900473ffffffffffffffffffffffffffffffffffffffff1673ffffffffffffffffffffffffffffffffffffffff1673ffffffffffffffffffffffffffffffffffffffff168152602001600382015481526020016004820160009054906101000a900460ff161515151581526020016004820160019054906101000a900460ff161515151581526020016005820154815250509050806040015173ffffffffffffffffffffffffffffffffffffffff163373ffffffffffffffffffffffffffffffffffffffff1614610cc1576040517f08c379a0000000000000000000000000000000000000000000000000000000008152600401610cb8906151e9565b60405180910390fd5b600060078260c0015181548110610d01577f4e487b7100000000000000000000000000000000000000000000000000000000600052603260045260246000fd5b9060005260206000209060080201604051806101000160405290816000820160009054906101000a900473ffffffffffffffffffffffffffffffffffffffff1673ffffffffffffffffffffffffffffffffffffffff1673ffffffffffffffffffffffffffffffffffffffff168152602001600182015481526020016002820160009054906101000a900473ffffffffffffffffffffffffffffffffffffffff1673ffffffffffffffffffffffffffffffffffffffff1673ffffffffffffffffffffffffffffffffffffffff1681526020016003820154815260200160048201548152602001600582015481526020016006820160009054906101000a900473ffffffffffffffffffffffffffffffffffffffff1673ffffffffffffffffffffffffffffffffffffffff1673ffffffffffffffffffffffffffffffffffffffff168152602001600782015481525050905060008160e0015114610e98576040517f08c379a0000000000000000000000000000000000000000000000000000000008152600401610e8f90615189565b60405180910390fd5b60008260a001901515908115158152505060008260c001818152505081600b600085815260200190815260200160002060008201518160000160006101000a81548173ffffffffffffffffffffffffffffffffffffffff021916908373ffffffffffffffffffffffffffffffffffffffff1602179055506020820151816001015560408201518160020160006101000a81548173ffffffffffffffffffffffffffffffffffffffff021916908373ffffffffffffffffffffffffffffffffffffffff1602179055506060820151816003015560808201518160040160006101000a81548160ff02191690831515021790555060a08201518160040160016101000a81548160ff02191690831515021790555060c08201518160050155905050505050565b610fc581613866565b50565b600042905090565b610fd86142d0565b73ffffffffffffffffffffffffffffffffffffffff16610ff6612078565b73ffffffffffffffffffffffffffffffffffffffff161461104c576040517f08c379a000000000000000000000000000000000000000000000000000000000815260040161104390615289565b60405180910390fd5b611388811115611091576040517f08c379a0000000000000000000000000000000000000000000000000000000008152600401611088906152e9565b60405180910390fd5b8060088190555050565b6000600780549050905090565b60006110b3826136c4565b6110f2576040517f08c379a00000000000000000000000000000000000000000000000000000000081526004016110e990615109565b60405180910390fd5b6007828154811061112c577f4e487b7100000000000000000000000000000000000000000000000000000000600052603260045260246000fd5b906000526020600020906008020160060160009054906101000a900473ffffffffffffffffffffffffffffffffffffffff169050919050565b600080600783815481106111a2577f4e487b7100000000000000000000000000000000000000000000000000000000600052603260045260246000fd5b906000526020600020906008020190506111cd816004015482600301546142d890919063ffffffff16565b915050919050565b6111dd6142d0565b73ffffffffffffffffffffffffffffffffffffffff166111fb612078565b73ffffffffffffffffffffffffffffffffffffffff1614611251576040517f08c379a000000000000000000000000000000000000000000000000000000000815260040161124890615289565b60405180910390fd5b61125a81613866565b50565b6007818154811061126d57600080fd5b90600052602060002090600802016000915090508060000160009054906101000a900473ffffffffffffffffffffffffffffffffffffffff16908060010154908060020160009054906101000a900473ffffffffffffffffffffffffffffffffffffffff16908060030154908060040154908060050154908060060160009054906101000a900473ffffffffffffffffffffffffffffffffffffffff16908060070154905088565b6002600154141561135b576040517f08c379a000000000000000000000000000000000000000000000000000000000815260040161135290615349565b60405180910390fd5b600260018190555060003390506000600784815481106113a4577f4e487b7100000000000000000000000000000000000000000000000000000000600052603260045260246000fd5b90600052602060002090600802019050600073ffffffffffffffffffffffffffffffffffffffff168160020160009054906101000a900473ffffffffffffffffffffffffffffffffffffffff1673ffffffffffffffffffffffffffffffffffffffff161415611448576040517f08c379a000000000000000000000000000000000000000000000000000000000815260040161143f90615209565b60405180910390fd5b61145184611ee2565b611490576040517f08c379a0000000000000000000000000000000000000000000000000000000008152600401611487906151a9565b60405180910390fd5b806005015434116114d6576040517f08c379a00000000000000000000000000000000000000000000000000000000081526004016114cd90615129565b60405180910390fd5b600081600501541415801561153c5750600073ffffffffffffffffffffffffffffffffffffffff168160060160009054906101000a900473ffffffffffffffffffffffffffffffffffffffff1673ffffffffffffffffffffffffffffffffffffffff1614155b1561167a5760008160060160009054906101000a900473ffffffffffffffffffffffffffffffffffffffff1673ffffffffffffffffffffffffffffffffffffffff16826005015460405161158f90614dfa565b60006040518083038185875af1925050503d80600081146115cc576040519150601f19603f3d011682016040523d82523d6000602084013e6115d1565b606091505b5050905080611615576040517f08c379a000000000000000000000000000000000000000000000000000000000815260040161160c90615309565b60405180910390fd5b7f972fd66eadedfb87beff023a37f4d8c6a91fdd147fa0d3c036e0c6c5a0cdc795858360060160009054906101000a900473ffffffffffffffffffffffffffffffffffffffff168460050154604051611670939291906153ad565b60405180910390a1505b348160050181905550818160060160006101000a81548173ffffffffffffffffffffffffffffffffffffffff021916908373ffffffffffffffffffffffffffffffffffffffff1602179055506116de600182600701546142d890919063ffffffff16565b8160070181905550600083111561177f57600260009054906101000a900473ffffffffffffffffffffffffffffffffffffffff1673ffffffffffffffffffffffffffffffffffffffff16639d756a8d83856040518363ffffffff1660e01b815260040161174c929190614f14565b600060405180830381600087803b15801561176657600080fd5b505af115801561177a573d6000803e3d6000fd5b505050505b7fb8d756f2d1da4663767eb4d559780ace84f2f65a421a60ddcb47e8b2e5d2fd268483346040516117b29392919061548a565b60405180910390a15050600180819055505050565b60008060078381548110611804577f4e487b7100000000000000000000000000000000000000000000000000000000600052603260045260246000fd5b90600052602060002090600802019050806003015442101561182a57600091505061185c565b611845816004015482600301546142d890919063ffffffff16565b42101561185657600191505061185c565b60029150505b919050565b600a5481565b6000600782815481106118a3577f4e487b7100000000000000000000000000000000000000000000000000000000600052603260045260246000fd5b9060005260206000209060080201600501549050919050565b6118c46142d0565b73ffffffffffffffffffffffffffffffffffffffff166118e2612078565b73ffffffffffffffffffffffffffffffffffffffff1614611938576040517f08c379a000000000000000000000000000000000000000000000000000000000815260040161192f90615289565b60405180910390fd5b61194260006142ee565b565b600060078281548110611980577f4e487b7100000000000000000000000000000000000000000000000000000000600052603260045260246000fd5b9060005260206000209060080201600701549050919050565b60008890503373ffffffffffffffffffffffffffffffffffffffff168173ffffffffffffffffffffffffffffffffffffffff16636352211e8a6040518263ffffffff1660e01b81526004016119ee9190615369565b60206040518083038186803b158015611a0657600080fd5b505afa158015611a1a573d6000803e3d6000fd5b505050506040513d601f19601f82011682018060405250810190611a3e9190614861565b73ffffffffffffffffffffffffffffffffffffffff1614611a94576040517f08c379a0000000000000000000000000000000000000000000000000000000008152600401611a8b90615249565b60405180910390fd5b3073ffffffffffffffffffffffffffffffffffffffff168173ffffffffffffffffffffffffffffffffffffffff1663081812fc8a6040518263ffffffff1660e01b8152600401611ae49190615369565b60206040518083038186803b158015611afc57600080fd5b505afa158015611b10573d6000803e3d6000fd5b505050506040513d601f19601f82011682018060405250810190611b349190614861565b73ffffffffffffffffffffffffffffffffffffffff1614611b8a576040517f08c379a0000000000000000000000000000000000000000000000000000000008152600401611b8190615329565b60405180910390fd5b6000600b60008a81526020019081526020016000206040518060e00160405290816000820160009054906101000a900473ffffffffffffffffffffffffffffffffffffffff1673ffffffffffffffffffffffffffffffffffffffff1673ffffffffffffffffffffffffffffffffffffffff168152602001600182015481526020016002820160009054906101000a900473ffffffffffffffffffffffffffffffffffffffff1673ffffffffffffffffffffffffffffffffffffffff1673ffffffffffffffffffffffffffffffffffffffff168152602001600382015481526020016004820160009054906101000a900460ff161515151581526020016004820160019054906101000a900460ff1615151515815260200160058201548152505090506000151581608001511515148015611ccc5750600015158160a001511515145b611d0b576040517f08c379a0000000000000000000000000000000000000000000000000000000008152600401611d0290615229565b60405180910390fd5b60006040518060e001604052808c73ffffffffffffffffffffffffffffffffffffffff1681526020018b81526020013373ffffffffffffffffffffffffffffffffffffffff1681526020018881526020018a151581526020018915158152602001600081525090508715611d9057611d868b8b8888886143b2565b8160c00181815250505b80600b60008c815260200190815260200160002060008201518160000160006101000a81548173ffffffffffffffffffffffffffffffffffffffff021916908373ffffffffffffffffffffffffffffffffffffffff1602179055506020820151816001015560408201518160020160006101000a81548173ffffffffffffffffffffffffffffffffffffffff021916908373ffffffffffffffffffffffffffffffffffffffff1602179055506060820151816003015560808201518160040160006101000a81548160ff02191690831515021790555060a08201518160040160016101000a81548160ff02191690831515021790555060c082015181600501559050507fa9b9b286d6a0d36eec10c565ed38fc4794a2f554baf7b6187e53e71e600f0aa98a338d60018b8e604051611ecd96959493929190615429565b60405180910390a15050505050505050505050565b600060016002811115611f1e577f4e487b7100000000000000000000000000000000000000000000000000000000600052602160045260246000fd5b611f27836117c7565b6002811115611f5f577f4e487b7100000000000000000000000000000000000000000000000000000000600052602160045260246000fd5b149050919050565b600060078281548110611fa3577f4e487b7100000000000000000000000000000000000000000000000000000000600052603260045260246000fd5b906000526020600020906008020160060160009054906101000a900473ffffffffffffffffffffffffffffffffffffffff169050919050565b600b6020528060005260406000206000915090508060000160009054906101000a900473ffffffffffffffffffffffffffffffffffffffff16908060010154908060020160009054906101000a900473ffffffffffffffffffffffffffffffffffffffff16908060030154908060040160009054906101000a900460ff16908060040160019054906101000a900460ff16908060050154905087565b60008060009054906101000a900473ffffffffffffffffffffffffffffffffffffffff16905090565b600260015414156120e7576040517f08c379a00000000000000000000000000000000000000000000000000000000081526004016120de90615349565b60405180910390fd5b6002600181905550600080600090505b82518110156121f45760018261210d9190615597565b9150600260009054906101000a900473ffffffffffffffffffffffffffffffffffffffff1673ffffffffffffffffffffffffffffffffffffffff1663c77013ca85858481518110612187577f4e487b7100000000000000000000000000000000000000000000000000000000600052603260045260246000fd5b6020026020010151336040518463ffffffff1660e01b81526004016121ae93929190614f3d565b600060405180830381600087803b1580156121c857600080fd5b505af11580156121dc573d6000803e3d6000fd5b505050506001816121ed9190615597565b90506120f7565b506121fe816145e3565b3373ffffffffffffffffffffffffffffffffffffffff167fdeaad30c9e3118ba3b39651e76dd3db3536ec6872639078cfe472ab46316afae82846040516122469291906154c1565b60405180910390a250600180819055505050565b600260015414156122a0576040517f08c379a000000000000000000000000000000000000000000000000000000000815260040161229790615349565b60405180910390fd5b6002600181905550600080600090505b8251811015612508573373ffffffffffffffffffffffffffffffffffffffff16600260009054906101000a900473ffffffffffffffffffffffffffffffffffffffff1673ffffffffffffffffffffffffffffffffffffffff16633ce72e5a86868581518110612348577f4e487b7100000000000000000000000000000000000000000000000000000000600052603260045260246000fd5b60200260200101516040518363ffffffff1660e01b815260040161236d929190614f14565b60206040518083038186803b15801561238557600080fd5b505afa158015612399573d6000803e3d6000fd5b505050506040513d601f19601f820116820180604052508101906123bd9190614861565b73ffffffffffffffffffffffffffffffffffffffff1614612413576040517f08c379a000000000000000000000000000000000000000000000000000000000815260040161240a90615149565b60405180910390fd5b6001826124209190615597565b9150600260009054906101000a900473ffffffffffffffffffffffffffffffffffffffff1673ffffffffffffffffffffffffffffffffffffffff1663c77013ca8585848151811061249a577f4e487b7100000000000000000000000000000000000000000000000000000000600052603260045260246000fd5b602002602001015160006040518463ffffffff1660e01b81526004016124c293929190614f3d565b600060405180830381600087803b1580156124dc57600080fd5b505af11580156124f0573d6000803e3d6000fd5b505050506001816125019190615597565b90506122b0565b5061251281614678565b3373ffffffffffffffffffffffffffffffffffffffff167f62ce610c288a7f8a9a6715f35d395ec0702a9719aa06b15bb5e6869d7d19a952828460405161255a9291906154c1565b60405180910390a250600180819055505050565b60095481565b600260015414156125ba576040517f08c379a00000000000000000000000000000000000000000000000000000000081526004016125b190615349565b60405180910390fd5b6002600181905550600033905060003490506000600b60008681526020019081526020016000206040518060e00160405290816000820160009054906101000a900473ffffffffffffffffffffffffffffffffffffffff1673ffffffffffffffffffffffffffffffffffffffff1673ffffffffffffffffffffffffffffffffffffffff168152602001600182015481526020016002820160009054906101000a900473ffffffffffffffffffffffffffffffffffffffff1673ffffffffffffffffffffffffffffffffffffffff1673ffffffffffffffffffffffffffffffffffffffff168152602001600382015481526020016004820160009054906101000a900460ff161515151581526020016004820160019054906101000a900460ff161515151581526020016005820154815250509050600115158160800151151514612739576040517f08c379a0000000000000000000000000000000000000000000000000000000008152600401612730906152c9565b60405180910390fd5b60008160600151905080831015612785576040517f08c379a000000000000000000000000000000000000000000000000000000000815260040161277c906150e9565b60405180910390fd5b600115158260a0015115151480156127a657506127a58260c001516136c4565b5b80156128015750600060078360c00151815481106127ed577f4e487b7100000000000000000000000000000000000000000000000000000000600052603260045260246000fd5b906000526020600020906008020160070154115b15612841576040517f08c379a000000000000000000000000000000000000000000000000000000000815260040161283890615269565b60405180910390fd5b7f35538759d80c1fd7bb450a0d05601db5a99fa8b5d073a07c847a9fd61029b1078685604051612872929190615384565b60405180910390a16000826000015190508073ffffffffffffffffffffffffffffffffffffffff166342842e0e8460400151878a6040518463ffffffff1660e01b81526004016128c493929190614e2a565b600060405180830381600087803b1580156128de57600080fd5b505af11580156128f2573d6000803e3d6000fd5b5050505060008173ffffffffffffffffffffffffffffffffffffffff1663d48e638a896040518263ffffffff1660e01b81526004016129319190615369565b60206040518083038186803b15801561294957600080fd5b505afa15801561295d573d6000803e3d6000fd5b505050506040513d601f19601f820116820180604052508101906129819190614861565b9050600061271061299d6008548861470d90919063ffffffff16565b6129a791906155ed565b9050600080866040015173ffffffffffffffffffffffffffffffffffffffff168473ffffffffffffffffffffffffffffffffffffffff1614612cb957612710612a818673ffffffffffffffffffffffffffffffffffffffff1663bb3bafd68e6040518263ffffffff1660e01b8152600401612a229190615369565b60206040518083038186803b158015612a3a57600080fd5b505afa158015612a4e573d6000803e3d6000fd5b505050506040513d601f19601f82011682018060405250810190612a7291906149b9565b8a61470d90919063ffffffff16565b612a8b91906155ed565b9150612710612b2b8673ffffffffffffffffffffffffffffffffffffffff1663bb3bafd68e6040518263ffffffff1660e01b8152600401612acc9190615369565b60206040518083038186803b158015612ae457600080fd5b505afa158015612af8573d6000803e3d6000fd5b505050506040513d601f19601f82011682018060405250810190612b1c91906149b9565b8c61470d90919063ffffffff16565b612b3591906155ed565b905060008473ffffffffffffffffffffffffffffffffffffffff1683604051612b5d90614dfa565b60006040518083038185875af1925050503d8060008114612b9a576040519150601f19603f3d011682016040523d82523d6000602084013e612b9f565b606091505b5050905080612be3576040517f08c379a0000000000000000000000000000000000000000000000000000000008152600401612bda90615309565b60405180910390fd5b6000821115612c7e57600260009054906101000a900473ffffffffffffffffffffffffffffffffffffffff1673ffffffffffffffffffffffffffffffffffffffff16633dfc70878b87856040518463ffffffff1660e01b8152600401612c4b93929190614edd565b600060405180830381600087803b158015612c6557600080fd5b505af1158015612c79573d6000803e3d6000fd5b505050505b7f54b960faf8b038c33ba9912fdb9ac1e8e0096c5f327d1c89e62b5d9c5357ddb68584604051612caf929190614e61565b60405180910390a1505b6000612ce083612cd2868c61472390919063ffffffff16565b61472390919063ffffffff16565b90506000886040015173ffffffffffffffffffffffffffffffffffffffff1682604051612d0c90614dfa565b60006040518083038185875af1925050503d8060008114612d49576040519150601f19603f3d011682016040523d82523d6000602084013e612d4e565b606091505b5050905080612d92576040517f08c379a0000000000000000000000000000000000000000000000000000000008152600401612d8990615309565b60405180910390fd5b7f9a37aa02cc986a4a0c2d22af3dcdb9db27c178f7feed43e7037c783b55ed91ba896040015183878761271060085434612dcc919061561e565b612dd691906155ed565b87612de19190615597565b604051612df2959493929190614e8a565b60405180910390a1600115158960a00151151514156130b857600060078a60c0015181548110612e4b577f4e487b7100000000000000000000000000000000000000000000000000000000600052603260045260246000fd5b9060005260206000209060080201604051806101000160405290816000820160009054906101000a900473ffffffffffffffffffffffffffffffffffffffff1673ffffffffffffffffffffffffffffffffffffffff1673ffffffffffffffffffffffffffffffffffffffff168152602001600182015481526020016002820160009054906101000a900473ffffffffffffffffffffffffffffffffffffffff1673ffffffffffffffffffffffffffffffffffffffff1673ffffffffffffffffffffffffffffffffffffffff1681526020016003820154815260200160048201548152602001600582015481526020016006820160009054906101000a900473ffffffffffffffffffffffffffffffffffffffff1673ffffffffffffffffffffffffffffffffffffffff1673ffffffffffffffffffffffffffffffffffffffff168152602001600782015481525050905060008160a0015114158015612fb4575060008160e00151115b156130b65760008160c0015173ffffffffffffffffffffffffffffffffffffffff168260a00151604051612fe790614dfa565b60006040518083038185875af1925050503d8060008114613024576040519150601f19603f3d011682016040523d82523d6000602084013e613029565b606091505b505090508061306d576040517f08c379a000000000000000000000000000000000000000000000000000000000815260040161306490615309565b60405180910390fd5b7f972fd66eadedfb87beff023a37f4d8c6a91fdd147fa0d3c036e0c6c5a0cdc7958b60c001518360c001518460a001516040516130ac939291906153ad565b60405180910390a1505b505b7f3b599f6217e39be59216b60e543ce0d4c7d534fe64dd9d962334924e7819894e8d8c346040516130eb9392919061548a565b60405180910390a1613108856009546142d890919063ffffffff16565b60098190555060008960a0019015159081151581525050600089608001901515908115158152505088600b60008f815260200190815260200160002060008201518160000160006101000a81548173ffffffffffffffffffffffffffffffffffffffff021916908373ffffffffffffffffffffffffffffffffffffffff1602179055506020820151816001015560408201518160020160006101000a81548173ffffffffffffffffffffffffffffffffffffffff021916908373ffffffffffffffffffffffffffffffffffffffff1602179055506060820151816003015560808201518160040160006101000a81548160ff02191690831515021790555060a08201518160040160016101000a81548160ff02191690831515021790555060c0820151816005015590505061324834600a546142d890919063ffffffff16565b600a8190555060008c9050600061271061326d6008548461470d90919063ffffffff16565b61327791906155ed565b905060006132a086613292848661472390919063ffffffff16565b61472390919063ffffffff16565b905060008311156134d757600260009054906101000a900473ffffffffffffffffffffffffffffffffffffffff1673ffffffffffffffffffffffffffffffffffffffff16633dfc70878f8e60400151846040518463ffffffff1660e01b815260040161330e93929190614edd565b600060405180830381600087803b15801561332857600080fd5b505af115801561333c573d6000803e3d6000fd5b50505050600260009054906101000a900473ffffffffffffffffffffffffffffffffffffffff1673ffffffffffffffffffffffffffffffffffffffff16633dfc70878f600560009054906101000a900473ffffffffffffffffffffffffffffffffffffffff166064603f876133b1919061561e565b6133bb91906155ed565b6040518463ffffffff1660e01b81526004016133d993929190614edd565b600060405180830381600087803b1580156133f357600080fd5b505af1158015613407573d6000803e3d6000fd5b50505050600260009054906101000a900473ffffffffffffffffffffffffffffffffffffffff1673ffffffffffffffffffffffffffffffffffffffff16633dfc70878f600660009054906101000a900473ffffffffffffffffffffffffffffffffffffffff16606460248761347c919061561e565b61348691906155ed565b6040518463ffffffff1660e01b81526004016134a493929190614edd565b600060405180830381600087803b1580156134be57600080fd5b505af11580156134d2573d6000803e3d6000fd5b505050505b6000600560009054906101000a900473ffffffffffffffffffffffffffffffffffffffff1673ffffffffffffffffffffffffffffffffffffffff166064603f8b613521919061561e565b61352b91906155ed565b60405161353790614dfa565b60006040518083038185875af1925050503d8060008114613574576040519150601f19603f3d011682016040523d82523d6000602084013e613579565b606091505b50509050806135bd576040517f08c379a00000000000000000000000000000000000000000000000000000000081526004016135b490615309565b60405180910390fd5b6000600660009054906101000a900473ffffffffffffffffffffffffffffffffffffffff1673ffffffffffffffffffffffffffffffffffffffff16606460248c613607919061561e565b61361191906155ed565b60405161361d90614dfa565b60006040518083038185875af1925050503d806000811461365a576040519150601f19603f3d011682016040523d82523d6000602084013e61365f565b606091505b50509050806136a3576040517f08c379a000000000000000000000000000000000000000000000000000000000815260040161369a90615309565b60405180910390fd5b50505050505050505050505050505050600180819055505050565b60085481565b60006002808111156136ff577f4e487b7100000000000000000000000000000000000000000000000000000000600052602160045260246000fd5b613708836117c7565b6002811115613740577f4e487b7100000000000000000000000000000000000000000000000000000000600052602160045260246000fd5b149050919050565b600260009054906101000a900473ffffffffffffffffffffffffffffffffffffffff1681565b6137766142d0565b73ffffffffffffffffffffffffffffffffffffffff16613794612078565b73ffffffffffffffffffffffffffffffffffffffff16146137ea576040517f08c379a00000000000000000000000000000000000000000000000000000000081526004016137e190615289565b60405180910390fd5b600073ffffffffffffffffffffffffffffffffffffffff168173ffffffffffffffffffffffffffffffffffffffff16141561385a576040517f08c379a000000000000000000000000000000000000000000000000000000000815260040161385190615169565b60405180910390fd5b613863816142ee565b50565b600260015414156138ac576040517f08c379a00000000000000000000000000000000000000000000000000000000081526004016138a390615349565b60405180910390fd5b600260018190555060006138bf826110a8565b90506000600783815481106138fd577f4e487b7100000000000000000000000000000000000000000000000000000000600052603260045260246000fd5b906000526020600020906008020190506000600b6000836001015481526020019081526020016000206040518060e00160405290816000820160009054906101000a900473ffffffffffffffffffffffffffffffffffffffff1673ffffffffffffffffffffffffffffffffffffffff1673ffffffffffffffffffffffffffffffffffffffff168152602001600182015481526020016002820160009054906101000a900473ffffffffffffffffffffffffffffffffffffffff1673ffffffffffffffffffffffffffffffffffffffff1673ffffffffffffffffffffffffffffffffffffffff168152602001600382015481526020016004820160009054906101000a900460ff161515151581526020016004820160019054906101000a900460ff161515151581526020016005820154815250509050600115158160a00151151514613a7e576040517f08c379a0000000000000000000000000000000000000000000000000000000008152600401613a75906152a9565b60405180910390fd5b60008260070154111561419a5760008260000160009054906101000a900473ffffffffffffffffffffffffffffffffffffffff1690503073ffffffffffffffffffffffffffffffffffffffff168173ffffffffffffffffffffffffffffffffffffffff1663081812fc85600101546040518263ffffffff1660e01b8152600401613b089190615369565b60206040518083038186803b158015613b2057600080fd5b505afa158015613b34573d6000803e3d6000fd5b505050506040513d601f19601f82011682018060405250810190613b589190614861565b73ffffffffffffffffffffffffffffffffffffffff1614613bae576040517f08c379a0000000000000000000000000000000000000000000000000000000008152600401613ba590615329565b60405180910390fd5b8260020160009054906101000a900473ffffffffffffffffffffffffffffffffffffffff1673ffffffffffffffffffffffffffffffffffffffff168173ffffffffffffffffffffffffffffffffffffffff16636352211e85600101546040518263ffffffff1660e01b8152600401613c269190615369565b60206040518083038186803b158015613c3e57600080fd5b505afa158015613c52573d6000803e3d6000fd5b505050506040513d601f19601f82011682018060405250810190613c769190614861565b73ffffffffffffffffffffffffffffffffffffffff1614613ccc576040517f08c379a0000000000000000000000000000000000000000000000000000000008152600401613cc3906151c9565b60405180910390fd5b8073ffffffffffffffffffffffffffffffffffffffff166342842e0e8460020160009054906101000a900473ffffffffffffffffffffffffffffffffffffffff168686600101546040518463ffffffff1660e01b8152600401613d3193929190614e2a565b600060405180830381600087803b158015613d4b57600080fd5b505af1158015613d5f573d6000803e3d6000fd5b505050507f35538759d80c1fd7bb450a0d05601db5a99fa8b5d073a07c847a9fd61029b1078585604051613d94929190615384565b60405180910390a160008173ffffffffffffffffffffffffffffffffffffffff1663d48e638a85600101546040518263ffffffff1660e01b8152600401613ddb9190615369565b60206040518083038186803b158015613df357600080fd5b505afa158015613e07573d6000803e3d6000fd5b505050506040513d601f19601f82011682018060405250810190613e2b9190614861565b90506000612710613e4b600854876005015461470d90919063ffffffff16565b613e5591906155ed565b905060008560020160009054906101000a900473ffffffffffffffffffffffffffffffffffffffff1673ffffffffffffffffffffffffffffffffffffffff168373ffffffffffffffffffffffffffffffffffffffff1614613fe357612710613f568573ffffffffffffffffffffffffffffffffffffffff1663bb3bafd689600101546040518263ffffffff1660e01b8152600401613ef39190615369565b60206040518083038186803b158015613f0b57600080fd5b505afa158015613f1f573d6000803e3d6000fd5b505050506040513d601f19601f82011682018060405250810190613f4391906149b9565b886005015461470d90919063ffffffff16565b613f6091906155ed565b90508273ffffffffffffffffffffffffffffffffffffffff166108fc829081150290604051600060405180830381858888f19350505050158015613fa8573d6000803e3d6000fd5b507f54b960faf8b038c33ba9912fdb9ac1e8e0096c5f327d1c89e62b5d9c5357ddb68382604051613fda929190614e61565b60405180910390a15b600061400e82614000858a6005015461472390919063ffffffff16565b61472390919063ffffffff16565b905060008760020160009054906101000a900473ffffffffffffffffffffffffffffffffffffffff1673ffffffffffffffffffffffffffffffffffffffff168260405161405a90614dfa565b60006040518083038185875af1925050503d8060008114614097576040519150601f19603f3d011682016040523d82523d6000602084013e61409c565b606091505b50509050806140e0576040517f08c379a00000000000000000000000000000000000000000000000000000000081526004016140d790615309565b60405180910390fd5b7f9a37aa02cc986a4a0c2d22af3dcdb9db27c178f7feed43e7037c783b55ed91ba8860020160009054906101000a900473ffffffffffffffffffffffffffffffffffffffff168386868789886141369190615597565b6141409190615597565b604051614151959493929190614e8a565b60405180910390a161416e846009546142d890919063ffffffff16565b60098190555061418d8860050154600a546142d890919063ffffffff16565b600a819055505050505050505b60008160a0019015159081151581525050600081608001901515908115158152505080600b60008460010154815260200190815260200160002060008201518160000160006101000a81548173ffffffffffffffffffffffffffffffffffffffff021916908373ffffffffffffffffffffffffffffffffffffffff1602179055506020820151816001015560408201518160020160006101000a81548173ffffffffffffffffffffffffffffffffffffffff021916908373ffffffffffffffffffffffffffffffffffffffff1602179055506060820151816003015560808201518160040160006101000a81548160ff02191690831515021790555060a08201518160040160016101000a81548160ff02191690831515021790555060c082015181600501559050505050506001808190555050565b600033905090565b600081836142e69190615597565b905092915050565b60008060009054906101000a900473ffffffffffffffffffffffffffffffffffffffff169050816000806101000a81548173ffffffffffffffffffffffffffffffffffffffff021916908373ffffffffffffffffffffffffffffffffffffffff1602179055508173ffffffffffffffffffffffffffffffffffffffff168173ffffffffffffffffffffffffffffffffffffffff167f8be0079c531659141344cd1fd0a4f28419497f9722a3daafe3b4186f6b6457e060405160405180910390a35050565b6000808314156143c0574292505b60006040518061010001604052808873ffffffffffffffffffffffffffffffffffffffff1681526020018781526020013373ffffffffffffffffffffffffffffffffffffffff168152602001858152602001848152602001868152602001600073ffffffffffffffffffffffffffffffffffffffff16815260200160008152509050600781908060018154018082558091505060019003906000526020600020906008020160009091909190915060008201518160000160006101000a81548173ffffffffffffffffffffffffffffffffffffffff021916908373ffffffffffffffffffffffffffffffffffffffff1602179055506020820151816001015560408201518160020160006101000a81548173ffffffffffffffffffffffffffffffffffffffff021916908373ffffffffffffffffffffffffffffffffffffffff160217905550606082015181600301556080820151816004015560a0820151816005015560c08201518160060160006101000a81548173ffffffffffffffffffffffffffffffffffffffff021916908373ffffffffffffffffffffffffffffffffffffffff16021790555060e0820151816007015550506000614592600160078054905061472390919063ffffffff16565b90507fc9050d42180a61cb0d9ebb8ad118b62fe6eab12cf12ff752c4a0cc7da9ddf62781836040015189896040516145cd94939291906153e4565b60405180910390a1809250505095945050505050565b600260009054906101000a900473ffffffffffffffffffffffffffffffffffffffff1673ffffffffffffffffffffffffffffffffffffffff16635db8de19338360016040518463ffffffff1660e01b815260040161464393929190615061565b600060405180830381600087803b15801561465d57600080fd5b505af1158015614671573d6000803e3d6000fd5b5050505050565b600260009054906101000a900473ffffffffffffffffffffffffffffffffffffffff1673ffffffffffffffffffffffffffffffffffffffff16635db8de19338360006040518463ffffffff1660e01b81526004016146d893929190615061565b600060405180830381600087803b1580156146f257600080fd5b505af1158015614706573d6000803e3d6000fd5b5050505050565b6000818361471b919061561e565b905092915050565b600081836147319190615678565b905092915050565b600061474c61474784615516565b6154f1565b9050808382526020820190508285602086028201111561476b57600080fd5b60005b8581101561479b5781614781888261480e565b84526020840193506020830192505060018101905061476e565b5050509392505050565b6000813590506147b481615c52565b92915050565b6000815190506147c981615c52565b92915050565b600082601f8301126147e057600080fd5b81356147f0848260208601614739565b91505092915050565b60008135905061480881615c69565b92915050565b60008135905061481d81615c80565b92915050565b60008151905061483281615c80565b92915050565b60006020828403121561484a57600080fd5b6000614858848285016147a5565b91505092915050565b60006020828403121561487357600080fd5b6000614881848285016147ba565b91505092915050565b6000806040838503121561489d57600080fd5b60006148ab858286016147a5565b925050602083013567ffffffffffffffff8111156148c857600080fd5b6148d4858286016147cf565b9150509250929050565b600080600080600080600080610100898b0312156148fb57600080fd5b60006149098b828c016147a5565b985050602061491a8b828c0161480e565b975050604061492b8b828c016147f9565b965050606061493c8b828c016147f9565b955050608061494d8b828c0161480e565b94505060a061495e8b828c0161480e565b93505060c061496f8b828c0161480e565b92505060e06149808b828c0161480e565b9150509295985092959890939650565b6000602082840312156149a257600080fd5b60006149b08482850161480e565b91505092915050565b6000602082840312156149cb57600080fd5b60006149d984828501614823565b91505092915050565b600080604083850312156149f557600080fd5b6000614a038582860161480e565b9250506020614a148582860161480e565b9150509250929050565b6000614a2a8383614ddc565b60208301905092915050565b614a3f81615719565b82525050565b614a4e816156be565b82525050565b614a5d816156ac565b82525050565b6000614a6e82615552565b614a78818561556a565b9350614a8383615542565b8060005b83811015614ab4578151614a9b8882614a1e565b9750614aa68361555d565b925050600181019050614a87565b5085935050505092915050565b614aca816156d0565b82525050565b614ad98161572b565b82525050565b614ae88161574f565b82525050565b614af781615761565b82525050565b6000614b0a601383615586565b9150614b1582615895565b602082019050919050565b6000614b2d601883615586565b9150614b38826158be565b602082019050919050565b6000614b50600b83615586565b9150614b5b826158e7565b602082019050919050565b6000614b73602483615586565b9150614b7e82615910565b604082019050919050565b6000614b96602683615586565b9150614ba18261595f565b604082019050919050565b6000614bb9600d83615586565b9150614bc4826159ae565b602082019050919050565b6000614bdc600e83615586565b9150614be7826159d7565b602082019050919050565b6000614bff602083615586565b9150614c0a82615a00565b602082019050919050565b6000614c22601583615586565b9150614c2d82615a29565b602082019050919050565b6000614c45601c83615586565b9150614c5082615a52565b602082019050919050565b6000614c68601e83615586565b9150614c7382615a7b565b602082019050919050565b6000614c8b600d83615586565b9150614c9682615aa4565b602082019050919050565b6000614cae602583615586565b9150614cb982615acd565b604082019050919050565b6000614cd1602083615586565b9150614cdc82615b1c565b602082019050919050565b6000614cf4601283615586565b9150614cff82615b45565b602082019050919050565b6000614d17601683615586565b9150614d2282615b6e565b602082019050919050565b6000614d3a601383615586565b9150614d4582615b97565b602082019050919050565b6000614d5d60008361557b565b9150614d6882615bc0565b600082019050919050565b6000614d80601083615586565b9150614d8b82615bc3565b602082019050919050565b6000614da3601083615586565b9150614dae82615bec565b602082019050919050565b6000614dc6601f83615586565b9150614dd182615c15565b602082019050919050565b614de58161570f565b82525050565b614df48161570f565b82525050565b6000614e0582614d50565b9150819050919050565b6000602082019050614e246000830184614a54565b92915050565b6000606082019050614e3f6000830186614a36565b614e4c6020830185614a54565b614e596040830184614deb565b949350505050565b6000604082019050614e766000830185614a36565b614e836020830184614deb565b9392505050565b600060a082019050614e9f6000830188614a36565b614eac6020830187614deb565b614eb96040830186614deb565b614ec66060830185614deb565b614ed36080830184614deb565b9695505050505050565b6000606082019050614ef26000830186614a54565b614eff6020830185614a36565b614f0c6040830184614deb565b949350505050565b6000604082019050614f296000830185614a54565b614f366020830184614deb565b9392505050565b6000606082019050614f526000830186614a54565b614f5f6020830185614deb565b614f6c6040830184614a54565b949350505050565b600060e082019050614f89600083018a614a54565b614f966020830189614deb565b614fa36040830188614a45565b614fb06060830187614deb565b614fbd6080830186614ac1565b614fca60a0830185614ac1565b614fd760c0830184614deb565b98975050505050505050565b600061010082019050614ff9600083018b614a54565b615006602083018a614deb565b6150136040830189614a45565b6150206060830188614deb565b61502d6080830187614deb565b61503a60a0830186614deb565b61504760c0830185614a45565b61505460e0830184614deb565b9998505050505050505050565b60006060820190506150766000830186614a54565b6150836020830185614deb565b6150906040830184614ac1565b949350505050565b60006020820190506150ad6000830184614ac1565b92915050565b60006020820190506150c86000830184614ad0565b92915050565b60006020820190506150e36000830184614adf565b92915050565b6000602082019050818103600083015261510281614afd565b9050919050565b6000602082019050818103600083015261512281614b20565b9050919050565b6000602082019050818103600083015261514281614b43565b9050919050565b6000602082019050818103600083015261516281614b66565b9050919050565b6000602082019050818103600083015261518281614b89565b9050919050565b600060208201905081810360008301526151a281614bac565b9050919050565b600060208201905081810360008301526151c281614bcf565b9050919050565b600060208201905081810360008301526151e281614bf2565b9050919050565b6000602082019050818103600083015261520281614c15565b9050919050565b6000602082019050818103600083015261522281614c38565b9050919050565b6000602082019050818103600083015261524281614c5b565b9050919050565b6000602082019050818103600083015261526281614c7e565b9050919050565b6000602082019050818103600083015261528281614ca1565b9050919050565b600060208201905081810360008301526152a281614cc4565b9050919050565b600060208201905081810360008301526152c281614ce7565b9050919050565b600060208201905081810360008301526152e281614d0a565b9050919050565b6000602082019050818103600083015261530281614d2d565b9050919050565b6000602082019050818103600083015261532281614d73565b9050919050565b6000602082019050818103600083015261534281614d96565b9050919050565b6000602082019050818103600083015261536281614db9565b9050919050565b600060208201905061537e6000830184614deb565b92915050565b60006040820190506153996000830185614deb565b6153a66020830184614a54565b9392505050565b60006060820190506153c26000830186614deb565b6153cf6020830185614a36565b6153dc6040830184614deb565b949350505050565b60006080820190506153f96000830187614deb565b6154066020830186614a36565b6154136040830185614deb565b6154206060830184614deb565b95945050505050565b600060c08201905061543e6000830189614deb565b61544b6020830188614a54565b6154586040830187614a54565b6154656060830186614aee565b6154726080830185614deb565b61547f60a0830184614ac1565b979650505050505050565b600060608201905061549f6000830186614deb565b6154ac6020830185614a54565b6154b96040830184614deb565b949350505050565b60006040820190506154d66000830185614deb565b81810360208301526154e88184614a63565b90509392505050565b60006154fb61550c565b90506155078282615797565b919050565b6000604051905090565b600067ffffffffffffffff82111561553157615530615855565b5b602082029050602081019050919050565b6000819050602082019050919050565b600081519050919050565b6000602082019050919050565b600082825260208201905092915050565b600081905092915050565b600082825260208201905092915050565b60006155a28261570f565b91506155ad8361570f565b9250827fffffffffffffffffffffffffffffffffffffffffffffffffffffffffffffffff038211156155e2576155e16157c8565b5b828201905092915050565b60006155f88261570f565b91506156038361570f565b925082615613576156126157f7565b5b828204905092915050565b60006156298261570f565b91506156348361570f565b9250817fffffffffffffffffffffffffffffffffffffffffffffffffffffffffffffffff048311821515161561566d5761566c6157c8565b5b828202905092915050565b60006156838261570f565b915061568e8361570f565b9250828210156156a1576156a06157c8565b5b828203905092915050565b60006156b7826156ef565b9050919050565b60006156c9826156ef565b9050919050565b60008115159050919050565b60008190506156ea82615c3e565b919050565b600073ffffffffffffffffffffffffffffffffffffffff82169050919050565b6000819050919050565b600061572482615773565b9050919050565b60006157368261573d565b9050919050565b6000615748826156ef565b9050919050565b600061575a826156dc565b9050919050565b600061576c8261570f565b9050919050565b600061577e82615785565b9050919050565b6000615790826156ef565b9050919050565b6157a082615884565b810181811067ffffffffffffffff821117156157bf576157be615855565b5b80604052505050565b7f4e487b7100000000000000000000000000000000000000000000000000000000600052601160045260246000fd5b7f4e487b7100000000000000000000000000000000000000000000000000000000600052601260045260246000fd5b7f4e487b7100000000000000000000000000000000000000000000000000000000600052602160045260246000fd5b7f4e487b7100000000000000000000000000000000000000000000000000000000600052604160045260246000fd5b6000601f19601f8301169050919050565b7f5072696365206973206e6f7420656e6f75676800000000000000000000000000600082015250565b7f41756374696f6e206e6f742066696e6973686564207965740000000000000000600082015250565b7f42696420746f6f206c6f77000000000000000000000000000000000000000000600082015250565b7f5374616b696e673a204e6f7420746865207374616b6572206f6620746865207460008201527f6f6b656e00000000000000000000000000000000000000000000000000000000602082015250565b7f4f776e61626c653a206e6577206f776e657220697320746865207a65726f206160008201527f6464726573730000000000000000000000000000000000000000000000000000602082015250565b7f42696473206578697374696e6700000000000000000000000000000000000000600082015250565b7f426964206e6f7420616374697665000000000000000000000000000000000000600082015250565b7f41756374696f6e2063726561746f72206973206e6f74206e6674206f776e6572600082015250565b7f596f7520617265206e6f7420746865206f776e65720000000000000000000000600082015250565b7f43616e6e6f74206269642e204572726f7220696e2061756374696f6e00000000600082015250565b7f416e20616374697665206f6666657220616c7265616479206578697374730000600082015250565b7f4e6f7420746865206f776e657200000000000000000000000000000000000000600082015250565b7f436c61696d2061737365742066726f6d2061756374696f6e206861732070726960008201527f6f72697479000000000000000000000000000000000000000000000000000000602082015250565b7f4f776e61626c653a2063616c6c6572206973206e6f7420746865206f776e6572600082015250565b7f4e4654206e6f7420696e2061756374696f6e0000000000000000000000000000600082015250565b7f4e4654206e6f7420696e206469726563742073616c6500000000000000000000600082015250565b7f436f6d6d697373696f6e20746f6f206869676800000000000000000000000000600082015250565b50565b7f5472616e73666572206661696c65642e00000000000000000000000000000000600082015250565b7f4e4654206e6f7420617070726f76656400000000000000000000000000000000600082015250565b7f5265656e7472616e637947756172643a207265656e7472616e742063616c6c00600082015250565b60038110615c4f57615c4e615826565b5b50565b615c5b816156ac565b8114615c6657600080fd5b50565b615c72816156d0565b8114615c7d57600080fd5b50565b615c898161570f565b8114615c9457600080fd5b5056fea26469706673582212200330f78e96752e432233f26b731898e1f1b39a5d6267d7b1044cbf0b818446d164736f6c63430008040033",
  "immutableReferences": {},
  "source": "// SPDX-License-Identifier: UNLICENSED\r\npragma solidity 0.8.4;\r\n\r\n//import \"./AddressUtils.sol\";\r\nimport \"@openzeppelin/contracts/token/ERC721/ERC721.sol\";\r\nimport \"@openzeppelin/contracts/access/Ownable.sol\";\r\nimport \"./PumlNFT.sol\";\r\nimport \"./PumlStake.sol\";\r\nimport \"@openzeppelin/contracts/utils/math/SafeMath.sol\";\r\nimport \"@openzeppelin/contracts/security/ReentrancyGuard.sol\";\r\n\r\ncontract Engine is Ownable, ReentrancyGuard {\r\n    using SafeMath for uint256;\r\n    PumlStake public stakePUMLx;\r\n\r\n    constructor(address _stakeAddress) {\r\n        stakePUMLx = PumlStake(_stakeAddress);\r\n    }\r\n    address companyFeeAddress = 0xDCBDB0dDB5A3a8DF116d7a02415DD0c4c39FbDaD;\r\n    address feeAddress = 0xC8616CD6e90c2a770cDB66eA777E5dA6bb57832f;\r\n    address payable fee17address = payable(companyFeeAddress);\r\n    address payable fee10address = payable(feeAddress);\r\n\r\n    event OfferCreated(\r\n        uint256 _tokenId,\r\n        address _creator,\r\n        address _asset,\r\n        uint256 numCopies,\r\n        uint256 amount,\r\n        bool isSale\r\n    );\r\n    // Event triggered when an auction is created\r\n    event AuctionCreated(\r\n        uint256 _auctionId,\r\n        address _creator,\r\n        uint256 _tokenId,\r\n        uint256 _startPrice\r\n    );\r\n    // Event triggered when an auction receives a bid\r\n    event AuctionBid(uint256 _index, address _bidder, uint256 amount);\r\n    // Event triggered when an ended auction winner claims the NFT\r\n    event Claim(uint256 auctionIndex, address claimer);\r\n    // Event triggered when an auction received a bid that implies sending funds back to previous best bidder\r\n    event ReturnBidFunds(uint256 _index, address _bidder, uint256 amount);\r\n    // Event triggered when a royalties payment is generated, either on direct sales or on auctions\r\n    event Royalties(address receiver, uint256 amount);\r\n    // Event triggered when a payment to the owner is generated, either on direct sales or on auctions.assetAddress\r\n    // This event is useful to check that all the payments funds are the right ones.\r\n    event PaymentToOwner(\r\n        address receiver,\r\n        uint256 amount,\r\n        //    uint256 paidByCustomer,\r\n        uint256 commission,\r\n        uint256 royalties,\r\n        uint256 safetyCheckValue\r\n    );\r\n    event Buy(uint256 _index, address buyer, uint256 _amount);\r\n\r\n    // Status of an auction, calculated using the start date, the duration and the current timeblock\r\n    enum Status {\r\n        pending,\r\n        active,\r\n        finished\r\n    }\r\n    // Data of an auction\r\n    struct Auction {\r\n        address assetAddress; // token address\r\n        uint256 assetId; // token id\r\n        address payable creator; // creator of the auction, which is the token owner\r\n        uint256 startTime; // time (unix, in seconds) where the auction will start\r\n        uint256 duration; // duration in seconds of the auction\r\n        uint256 currentBidAmount; // amount in ETH of the current bid amount\r\n        address payable currentBidOwner; // address of the user who places the best bid\r\n        uint256 bidCount; // number of bids of the auction\r\n    }\r\n    Auction[] public auctions;\r\n\r\n    uint256 public commission = 270; // this is the commission in basic points that will charge the marketplace by default.\r\n    uint256 public accumulatedCommission = 0; // this is the amount in ETH accumulated on marketplace wallet\r\n    uint256 public totalSales = 0;\r\n\r\n    struct Offer {\r\n        address assetAddress; // address of the token\r\n        uint256 tokenId; // the tokenId returned when calling \"createItem\"\r\n        address payable creator; // who creates the offer\r\n        uint256 price; // price of each token\r\n        bool isOnSale; // is on sale or not\r\n        bool isAuction; // is this offer is for an auction\r\n        uint256 idAuction; // the id of the auction\r\n    }\r\n    mapping(uint256 => Offer) public offers;\r\n\r\n    // Every time a token is put on sale, an offer is created. An offer can be a direct sale, an auction\r\n    // or a combination of both.\r\n    function createOffer(\r\n        address _assetAddress, // address of the token\r\n        uint256 _tokenId, // tokenId\r\n        bool _isDirectSale, // true if can be bought on a direct sale\r\n        bool _isAuction, // true if can be bought in an auction\r\n        uint256 _price, // price that if paid in a direct sale, transfers the NFT\r\n        uint256 _startPrice, // minimum price on the auction\r\n        uint256 _startTime, // time when the auction will start. Check the format with frontend\r\n        uint256 _duration // duration in seconds of the auction\r\n    ) public {\r\n        ERC721 asset = ERC721(_assetAddress);\r\n        require(asset.ownerOf(_tokenId) == msg.sender, \"Not the owner\");\r\n        require(\r\n            asset.getApproved(_tokenId) == address(this),\r\n            \"NFT not approved\"\r\n        );\r\n        // Could not be used to update an existing offer (#02)\r\n        Offer memory previous = offers[_tokenId];\r\n        require(\r\n            previous.isOnSale == false && previous.isAuction == false,\r\n            \"An active offer already exists\"\r\n        );\r\n\r\n        // First create the offer\r\n        Offer memory offer = Offer({\r\n            assetAddress: _assetAddress,\r\n            tokenId: _tokenId,\r\n            creator: payable(msg.sender),\r\n            price: _price,\r\n            isOnSale: _isDirectSale,\r\n            isAuction: _isAuction,\r\n            idAuction: 0\r\n        });\r\n        // only if the offer has the \"is_auction\" flag, add the auction to the list\r\n        if (_isAuction) {\r\n            offer.idAuction = createAuction(\r\n                _assetAddress,\r\n                _tokenId,\r\n                _startPrice,\r\n                _startTime,\r\n                _duration\r\n            );\r\n        }\r\n        offers[_tokenId] = offer;\r\n        emit OfferCreated(\r\n            _tokenId,\r\n            msg.sender,\r\n            _assetAddress,\r\n            1,\r\n            _price,\r\n            _isDirectSale\r\n        );\r\n    }\r\n\r\n    // returns the auctionId from the offerId\r\n    function getAuctionId(uint256 _tokenId) public view returns (uint256) {\r\n        Offer memory offer = offers[_tokenId];\r\n        return offer.idAuction;\r\n    }\r\n\r\n    // this method returns the current date and time of the blockchain. Used also to check the contract is alive\r\n    function ahora() public view returns (uint256) {\r\n        return block.timestamp;\r\n    }\r\n\r\n    // Remove an auction from the offer that did not have previous bids. Beware could be a direct sale\r\n    function removeFromAuction(uint256 _tokenId) public {\r\n        Offer memory offer = offers[_tokenId];\r\n        require(msg.sender == offer.creator, \"You are not the owner\");\r\n        Auction memory auction = auctions[offer.idAuction];\r\n        require(auction.bidCount == 0, \"Bids existing\");\r\n        offer.isAuction = false;\r\n        offer.idAuction = 0;\r\n        offers[_tokenId] = offer;\r\n    }\r\n\r\n    // remove a direct sale from an offer. Beware that could be an auction for the token\r\n    function removeFromSale(uint256 _tokenId) public {\r\n        Offer memory offer = offers[_tokenId];\r\n        require(msg.sender == offer.creator, \"You are not the owner\");\r\n        offer.isOnSale = false;\r\n        offers[_tokenId] = offer;\r\n    }\r\n\r\n    // Changes the default commission. Only the owner of the marketplace can do that. In basic points\r\n    function setCommission(uint256 _commission) public onlyOwner {\r\n        require(_commission <= 5000, \"Commission too high\");\r\n        commission = _commission;\r\n    }\r\n\r\n    // called in a direct sale by the customer. Transfer the nft to the customer, the royalties (if any)\r\n    // to the token creator, the commission for the marketplace is keeped on the contract and the remaining\r\n    // funds are transferred to the token owner.\r\n    // is there is an auction open, the last bid amount is sent back to the last bidder\r\n    // After that, the offer is cleared.\r\n    function buy(uint256 _tokenId, uint256 _puml) external payable nonReentrant {\r\n        address buyer = msg.sender;\r\n        uint256 paidPrice = msg.value;\r\n\r\n        Offer memory offer = offers[_tokenId];\r\n        require(offer.isOnSale == true, \"NFT not in direct sale\");\r\n        uint256 price = offer.price;\r\n        require(paidPrice >= price, \"Price is not enough\");\r\n\r\n        //if there is a bid and the auction is closed but not claimed, give priority to claim\r\n        require(\r\n            !(offer.isAuction == true &&\r\n                isFinished(offer.idAuction) &&\r\n                auctions[offer.idAuction].bidCount > 0),\r\n            \"Claim asset from auction has priority\"\r\n        );\r\n\r\n        emit Claim(_tokenId, buyer);\r\n        PumlNFT asset = PumlNFT(offer.assetAddress);\r\n        asset.safeTransferFrom(offer.creator, buyer, _tokenId);\r\n\r\n        // now, pay the amount - commission - royalties to the auction creator\r\n        address payable creatorNFT = payable(asset.getCreator(_tokenId));\r\n\r\n        uint256 commissionToPay = (paidPrice.mul(commission)) / 10000;\r\n        uint256 royaltiesToPay = 0;\r\n        uint256 royaltiesToPayPUML = 0;\r\n        if (creatorNFT != offer.creator) {\r\n            // It is a resale. Transfer royalties\r\n            royaltiesToPay =\r\n                (paidPrice.mul(asset.getRoyalties(_tokenId))) /\r\n                10000;\r\n            royaltiesToPayPUML =\r\n                (_puml.mul(asset.getRoyalties(_tokenId))) /\r\n                10000;\r\n\r\n            (bool success, ) = creatorNFT.call{value: royaltiesToPay}(\"\");\r\n            require(success, \"Transfer failed.\");\r\n\r\n            if (royaltiesToPayPUML > 0) {\r\n                stakePUMLx.setTransferPuml(buyer, creatorNFT, royaltiesToPayPUML);\r\n            }\r\n\r\n            emit Royalties(creatorNFT, royaltiesToPay);\r\n        }\r\n        uint256 amountToPay = paidPrice.sub(commissionToPay).sub(\r\n            royaltiesToPay\r\n        );\r\n\r\n        (bool success2, ) = offer.creator.call{value: amountToPay}(\"\");\r\n        require(success2, \"Transfer failed.\");\r\n\r\n        emit PaymentToOwner(\r\n            offer.creator,\r\n            amountToPay,\r\n            //     paidPrice,\r\n            commissionToPay,\r\n            royaltiesToPay,\r\n            amountToPay + ((msg.value * commission) / 10000) // using safemath will trigger an error because of stack size\r\n        );\r\n\r\n        // is there is an auction open, we have to give back the last bid amount to the last bidder\r\n        if (offer.isAuction == true) {\r\n            Auction memory auction = auctions[offer.idAuction];\r\n            // #4. Only if there is at least a bid and the bid amount > 0, give it back to last bidder\r\n            if (auction.currentBidAmount != 0 && auction.bidCount > 0) {\r\n                // return funds to the previuos bidder\r\n                (bool success3, ) = auction.currentBidOwner.call{\r\n                    value: auction.currentBidAmount\r\n                }(\"\");\r\n                require(success3, \"Transfer failed.\");\r\n                emit ReturnBidFunds(\r\n                    offer.idAuction,\r\n                    auction.currentBidOwner,\r\n                    auction.currentBidAmount\r\n                );\r\n            }\r\n        }\r\n\r\n        emit Buy(_tokenId, buyer, msg.value);\r\n\r\n        accumulatedCommission = accumulatedCommission.add(commissionToPay);\r\n\r\n        offer.isAuction = false;\r\n        offer.isOnSale = false;\r\n        offers[_tokenId] = offer;\r\n\r\n        totalSales = totalSales.add(msg.value);\r\n\r\n        uint256 paidPUML = _puml;\r\n        uint256 commissionToPayPUML = (paidPUML.mul(commission)) / 10000;\r\n        uint256 amountToPayPUML = paidPUML.sub(commissionToPayPUML).sub(\r\n            royaltiesToPayPUML\r\n        );\r\n\r\n        if(paidPUML > 0) {\r\n            stakePUMLx.setTransferPuml(buyer, offer.creator, amountToPayPUML);\r\n            stakePUMLx.setTransferPuml(buyer, fee17address, commissionToPayPUML * 63 / 100);\r\n            stakePUMLx.setTransferPuml(buyer, fee10address, commissionToPayPUML * 36 / 100);\r\n        }\r\n\r\n        (bool success17, ) =fee17address.call{value: commissionToPay*63/100}(\"\");\r\n        require(success17, \"Transfer failed.\");\r\n        (bool success10, ) = fee10address.call{value: commissionToPay*36/100}(\"\");\r\n        require(success10, \"Transfer failed.\");\r\n    }\r\n\r\n    // Creates an auction for a token. It is linked to an offer\r\n    function createAuction(\r\n        address _assetAddress, // address of the PumlNFT token\r\n        uint256 _assetId, // id of the NFT\r\n        uint256 _startPrice, // minimum price\r\n        uint256 _startTime, // time when the auction will start. Check with frontend because is unix time in seconds, not millisecs!\r\n        uint256 _duration // duration in seconds of the auction\r\n    ) private returns (uint256) {\r\n        if (_startTime == 0) {\r\n            _startTime = block.timestamp;\r\n        }\r\n\r\n        Auction memory auction = Auction({\r\n            creator: payable(msg.sender),\r\n            assetAddress: _assetAddress,\r\n            assetId: _assetId,\r\n            startTime: _startTime,\r\n            duration: _duration,\r\n            currentBidAmount: _startPrice,\r\n            currentBidOwner: payable(address(0)),\r\n            bidCount: 0\r\n        });\r\n        auctions.push(auction);\r\n        uint256 index = auctions.length.sub(1);\r\n\r\n        emit AuctionCreated(index, auction.creator, _assetId, _startPrice);\r\n\r\n        return index;\r\n    }\r\n\r\n    // At the end of the call, the amount is saved on the marketplace wallet and the previous bid amount is returned to old bidder\r\n    // except in the case of the first bid, as could exists a minimum price set by the creator as first bid.\r\n    function bid(uint256 auctionIndex, uint256 _puml) public payable nonReentrant {\r\n        address bidder = msg.sender;\r\n\r\n        Auction storage auction = auctions[auctionIndex];\r\n        require(auction.creator != address(0), \"Cannot bid. Error in auction\");\r\n        require(isActive(auctionIndex), \"Bid not active\");\r\n        require(msg.value > auction.currentBidAmount, \"Bid too low\");\r\n        // we got a better bid. Return funds to the previous best bidder\r\n        // and register the sender as `currentBidOwner`\r\n\r\n        // this check is for not transferring back funds on the first bid, as the fist bid is the minimum price set by the auction creator\r\n        // and the bid owner is address(0)\r\n        if (\r\n            auction.currentBidAmount != 0 &&\r\n            auction.currentBidOwner != address(0)\r\n        ) {\r\n            // return funds to the previuos bidder\r\n            (bool success, ) = auction.currentBidOwner.call{\r\n                value: auction.currentBidAmount\r\n            }(\"\");\r\n            require(success, \"Transfer failed.\");\r\n            emit ReturnBidFunds(\r\n                auctionIndex,\r\n                auction.currentBidOwner,\r\n                auction.currentBidAmount\r\n            );\r\n        }\r\n        // register new bidder\r\n        auction.currentBidAmount = msg.value;\r\n        auction.currentBidOwner = payable(bidder);\r\n        auction.bidCount = auction.bidCount.add(1);\r\n\r\n        if(_puml > 0) {\r\n            stakePUMLx.setDepositPuml(bidder, _puml);\r\n        }\r\n\r\n        emit AuctionBid(auctionIndex, bidder, msg.value);\r\n    }\r\n\r\n    function getTotalAuctions() public view returns (uint256) {\r\n        return auctions.length;\r\n    }\r\n\r\n    function isActive(uint256 _auctionIndex) public view returns (bool) {\r\n        return getStatus(_auctionIndex) == Status.active;\r\n    }\r\n\r\n    function isFinished(uint256 _auctionIndex) public view returns (bool) {\r\n        return getStatus(_auctionIndex) == Status.finished;\r\n    }\r\n\r\n    // The auctions did not be affected if the current time is 15 seconds wrong\r\n    // So, according to Consensys security advices, it is safe using block.timestamp\r\n    function getStatus(uint256 _auctionIndex) public view returns (Status) {\r\n        Auction storage auction = auctions[_auctionIndex];\r\n        if (block.timestamp < auction.startTime) {\r\n            return Status.pending;\r\n        } else if (block.timestamp < auction.startTime.add(auction.duration)) {\r\n            return Status.active;\r\n        } else {\r\n            return Status.finished;\r\n        }\r\n    }\r\n\r\n    // returns the end date of the auction, in unix time using seconds\r\n    function endDate(uint256 _auctionIndex) public view returns (uint256) {\r\n        Auction storage auction = auctions[_auctionIndex];\r\n        return auction.startTime.add(auction.duration);\r\n    }\r\n\r\n    // returns the user with the best bid until now on an auction\r\n    function getCurrentBidOwner(uint256 _auctionIndex)\r\n        public\r\n        view\r\n        returns (address)\r\n    {\r\n        return auctions[_auctionIndex].currentBidOwner;\r\n    }\r\n\r\n    // returns the amount in ETH of the best bid until now on an auction\r\n    function getCurrentBidAmount(uint256 _auctionIndex)\r\n        public\r\n        view\r\n        returns (uint256)\r\n    {\r\n        return auctions[_auctionIndex].currentBidAmount;\r\n    }\r\n\r\n    // returns the number of bids of an auction (0 by default)\r\n    function getBidCount(uint256 _auctionIndex) public view returns (uint256) {\r\n        return auctions[_auctionIndex].bidCount;\r\n    }\r\n\r\n    // returns the winner of an auction once the auction finished\r\n    function getWinner(uint256 auctionIndex) public view returns (address) {\r\n        require(isFinished(auctionIndex), \"Auction not finished yet\");\r\n        return auctions[auctionIndex].currentBidOwner;\r\n    }\r\n\r\n    // called when the auction is finished by the user who won the auction\r\n    // transfer the nft to the caller, the royalties (if any) to the nft creator\r\n    // the commission of the marketplace is calculated, and the remaining funds\r\n    // are transferred to the token owner\r\n    // After this, the offer is disabled\r\n    function closeAuction(uint256 auctionIndex) public {\r\n        //    address winner = getWinner(auctionIndex);\r\n        //    require(winner == msg.sender, \"You are not the winner of the auction\");\r\n        auctionTransferAsset(auctionIndex);\r\n    }\r\n\r\n    function automaticSetWinner(uint256 auctionIndex) public onlyOwner {\r\n        auctionTransferAsset(auctionIndex);\r\n    }\r\n\r\n    function auctionTransferAsset(uint256 auctionIndex) private nonReentrant {\r\n        // require(isFinished(auctionIndex), \"The auction is still active\");\r\n        address winner = getWinner(auctionIndex);\r\n\r\n        Auction storage auction = auctions[auctionIndex];\r\n\r\n        // the token could be sold in direct sale or the owner cancelled the auction\r\n        Offer memory offer = offers[auction.assetId];\r\n        require(offer.isAuction == true, \"NFT not in auction\");\r\n\r\n        if (auction.bidCount > 0) {\r\n            PumlNFT asset = PumlNFT(auction.assetAddress);\r\n\r\n            // #3, check if the asset owner had removed their approval or the offer creator is not the token owner anymore.\r\n            require(\r\n                asset.getApproved(auction.assetId) == address(this),\r\n                \"NFT not approved\"\r\n            );\r\n            require(\r\n                asset.ownerOf(auction.assetId) == auction.creator,\r\n                \"Auction creator is not nft owner\"\r\n            );\r\n\r\n            asset.safeTransferFrom(auction.creator, winner, auction.assetId);\r\n\r\n            emit Claim(auctionIndex, winner);\r\n\r\n            // now, pay the amount - commission - royalties to the auction creator\r\n            address payable creatorNFT = payable(\r\n                asset.getCreator(auction.assetId)\r\n            );\r\n            uint256 commissionToPay = (\r\n                auction.currentBidAmount.mul(commission)\r\n            ) / 10000;\r\n            uint256 royaltiesToPay = 0;\r\n            if (creatorNFT != auction.creator) {\r\n                // It is a resale. Transfer royalties\r\n                royaltiesToPay =\r\n                    (\r\n                        auction.currentBidAmount.mul(\r\n                            asset.getRoyalties(auction.assetId)\r\n                        )\r\n                    ) /\r\n                    10000;\r\n                creatorNFT.transfer(royaltiesToPay);\r\n                emit Royalties(creatorNFT, royaltiesToPay);\r\n            }\r\n            uint256 amountToPay = auction\r\n                .currentBidAmount\r\n                .sub(commissionToPay)\r\n                .sub(royaltiesToPay);\r\n\r\n            (bool success, ) = auction.creator.call{value: amountToPay}(\"\");\r\n            require(success, \"Transfer failed.\");\r\n            emit PaymentToOwner(\r\n                auction.creator,\r\n                amountToPay,\r\n                //  auction.currentBidAmount,\r\n                commissionToPay,\r\n                royaltiesToPay,\r\n                amountToPay + commissionToPay + royaltiesToPay\r\n            );\r\n\r\n            accumulatedCommission = accumulatedCommission.add(commissionToPay);\r\n\r\n            totalSales = totalSales.add(auction.currentBidAmount);\r\n        }\r\n\r\n        offer.isAuction = false;\r\n        offer.isOnSale = false;\r\n        offers[auction.assetId] = offer;\r\n    }\r\n\r\n    //stake NFT\r\n    \r\n    function stakeNFT(\r\n        address _assetAddress,\r\n        uint256[] memory tokenIds\r\n    ) external payable nonReentrant {\r\n\r\n        uint256 amount;\r\n        //PumlNFT token = PumlNFT(_assetAddress);\r\n        for (uint256 i = 0; i < tokenIds.length; i += 1) {\r\n            // Transfer user's NFTs to the staking contract\r\n\r\n            ////// token.safeTransferFrom(msg.sender, _to, tokenIds[i]);\r\n\r\n            // Increment the amount which will be staked\r\n            amount += 1;\r\n            // Save who is the staker/depositor of the token\r\n            stakePUMLx.setStakedAssets(_assetAddress, tokenIds[i], msg.sender);\r\n        }\r\n        _stakeNFT(amount);\r\n        emit StakedNFT(msg.sender, amount, tokenIds);\r\n    }\r\n\r\n    function withdrawNFT(\r\n        address _assetAddress,\r\n        uint256[] memory tokenIds\r\n    ) public payable nonReentrant {\r\n\r\n        uint256 amount;\r\n        //PumlNFT token = PumlNFT(_assetAddress);\r\n        for (uint256 i = 0; i < tokenIds.length; i += 1) {\r\n            // Check if the user who withdraws is the owner\r\n            require(\r\n                stakePUMLx.getStakedAssets(_assetAddress, tokenIds[i]) == msg.sender,\r\n                \"Staking: Not the staker of the token\"\r\n            );\r\n            // Transfer NFTs back to the owner\r\n\r\n            //////// token.safeTransferFrom(_from, msg.sender, tokenIds[i]);\r\n\r\n            // Increment the amount which will be withdrawn\r\n            amount += 1;\r\n            // Cleanup stakedAssets for the current tokenId\r\n            stakePUMLx.setStakedAssets(_assetAddress, tokenIds[i], address(0));\r\n        }\r\n        _withdrawNFT(amount);\r\n        emit WithdrawnNFT(msg.sender, amount, tokenIds);\r\n    }\r\n\r\n    function _stakeNFT(uint256 _amount) internal {\r\n        stakePUMLx.setBalancesNFT(msg.sender, _amount, true);\r\n    }\r\n\r\n    function _withdrawNFT(uint256 _amount) internal {\r\n        stakePUMLx.setBalancesNFT(msg.sender, _amount, false);\r\n    }\r\n\r\n    event StakedNFT(address indexed user, uint256 amount, uint256[] tokenIds);\r\n    event WithdrawnNFT(address indexed user, uint256 amount, uint256[] tokenIds);\r\n}\r\n",
  "sourcePath": "F:\\work\\puml-project\\ethcontracts\\contracts\\Engine.sol",
  "compiler": {
    "name": "solc",
    "version": "0.8.4+commit.c7e474f2.Emscripten.clang"
  },
  "schemaVersion": "3.4.5",
  "updatedAt": "2022-09-22T21:05:47.819Z",
  "devdoc": {
    "kind": "dev",
    "methods": {
      "owner()": {
        "details": "Returns the address of the current owner."
      },
      "renounceOwnership()": {
        "details": "Leaves the contract without owner. It will not be possible to call `onlyOwner` functions anymore. Can only be called by the current owner. NOTE: Renouncing ownership will leave the contract without an owner, thereby removing any functionality that is only available to the owner."
      },
      "transferOwnership(address)": {
        "details": "Transfers ownership of the contract to a new account (`newOwner`). Can only be called by the current owner."
      }
    },
    "version": 1
  },
  "userdoc": {
    "kind": "user",
    "methods": {},
    "version": 1
  }
}