{
  "contractName": "Engine",
  "abi": [
    {
      "inputs": [
        {
          "internalType": "address",
          "name": "_stakeAddress",
          "type": "address"
        }
      ],
      "stateMutability": "nonpayable",
      "type": "constructor"
    },
    {
      "anonymous": false,
      "inputs": [
        {
          "indexed": false,
          "internalType": "uint256",
          "name": "_index",
          "type": "uint256"
        },
        {
          "indexed": false,
          "internalType": "address",
          "name": "_bidder",
          "type": "address"
        },
        {
          "indexed": false,
          "internalType": "uint256",
          "name": "amount",
          "type": "uint256"
        }
      ],
      "name": "AuctionBid",
      "type": "event"
    },
    {
      "anonymous": false,
      "inputs": [
        {
          "indexed": false,
          "internalType": "uint256",
          "name": "_auctionId",
          "type": "uint256"
        },
        {
          "indexed": false,
          "internalType": "address",
          "name": "_creator",
          "type": "address"
        },
        {
          "indexed": false,
          "internalType": "uint256",
          "name": "_tokenId",
          "type": "uint256"
        },
        {
          "indexed": false,
          "internalType": "uint256",
          "name": "_startPrice",
          "type": "uint256"
        }
      ],
      "name": "AuctionCreated",
      "type": "event"
    },
    {
      "anonymous": false,
      "inputs": [
        {
          "indexed": false,
          "internalType": "uint256",
          "name": "_index",
          "type": "uint256"
        },
        {
          "indexed": false,
          "internalType": "address",
          "name": "buyer",
          "type": "address"
        },
        {
          "indexed": false,
          "internalType": "uint256",
          "name": "_amount",
          "type": "uint256"
        }
      ],
      "name": "Buy",
      "type": "event"
    },
    {
      "anonymous": false,
      "inputs": [
        {
          "indexed": false,
          "internalType": "uint256",
          "name": "auctionIndex",
          "type": "uint256"
        },
        {
          "indexed": false,
          "internalType": "address",
          "name": "claimer",
          "type": "address"
        }
      ],
      "name": "Claim",
      "type": "event"
    },
    {
      "anonymous": false,
      "inputs": [
        {
          "indexed": false,
          "internalType": "uint256",
          "name": "_tokenId",
          "type": "uint256"
        },
        {
          "indexed": false,
          "internalType": "address",
          "name": "_creator",
          "type": "address"
        },
        {
          "indexed": false,
          "internalType": "address",
          "name": "_asset",
          "type": "address"
        },
        {
          "indexed": false,
          "internalType": "uint256",
          "name": "numCopies",
          "type": "uint256"
        },
        {
          "indexed": false,
          "internalType": "uint256",
          "name": "amount",
          "type": "uint256"
        },
        {
          "indexed": false,
          "internalType": "bool",
          "name": "isSale",
          "type": "bool"
        }
      ],
      "name": "OfferCreated",
      "type": "event"
    },
    {
      "anonymous": false,
      "inputs": [
        {
          "indexed": true,
          "internalType": "address",
          "name": "previousOwner",
          "type": "address"
        },
        {
          "indexed": true,
          "internalType": "address",
          "name": "newOwner",
          "type": "address"
        }
      ],
      "name": "OwnershipTransferred",
      "type": "event"
    },
    {
      "anonymous": false,
      "inputs": [
        {
          "indexed": false,
          "internalType": "address",
          "name": "receiver",
          "type": "address"
        },
        {
          "indexed": false,
          "internalType": "uint256",
          "name": "amount",
          "type": "uint256"
        },
        {
          "indexed": false,
          "internalType": "uint256",
          "name": "commission",
          "type": "uint256"
        },
        {
          "indexed": false,
          "internalType": "uint256",
          "name": "royalties",
          "type": "uint256"
        },
        {
          "indexed": false,
          "internalType": "uint256",
          "name": "safetyCheckValue",
          "type": "uint256"
        }
      ],
      "name": "PaymentToOwner",
      "type": "event"
    },
    {
      "anonymous": false,
      "inputs": [
        {
          "indexed": false,
          "internalType": "uint256",
          "name": "_index",
          "type": "uint256"
        },
        {
          "indexed": false,
          "internalType": "address",
          "name": "_bidder",
          "type": "address"
        },
        {
          "indexed": false,
          "internalType": "uint256",
          "name": "amount",
          "type": "uint256"
        }
      ],
      "name": "ReturnBidFunds",
      "type": "event"
    },
    {
      "anonymous": false,
      "inputs": [
        {
          "indexed": false,
          "internalType": "address",
          "name": "receiver",
          "type": "address"
        },
        {
          "indexed": false,
          "internalType": "uint256",
          "name": "amount",
          "type": "uint256"
        }
      ],
      "name": "Royalties",
      "type": "event"
    },
    {
      "anonymous": false,
      "inputs": [
        {
          "indexed": true,
          "internalType": "address",
          "name": "user",
          "type": "address"
        },
        {
          "indexed": false,
          "internalType": "uint256",
          "name": "amount",
          "type": "uint256"
        },
        {
          "indexed": false,
          "internalType": "uint256[]",
          "name": "tokenIds",
          "type": "uint256[]"
        }
      ],
      "name": "StakedNFT",
      "type": "event"
    },
    {
      "anonymous": false,
      "inputs": [
        {
          "indexed": true,
          "internalType": "address",
          "name": "user",
          "type": "address"
        },
        {
          "indexed": false,
          "internalType": "uint256",
          "name": "amount",
          "type": "uint256"
        },
        {
          "indexed": false,
          "internalType": "uint256[]",
          "name": "tokenIds",
          "type": "uint256[]"
        }
      ],
      "name": "WithdrawnNFT",
      "type": "event"
    },
    {
      "inputs": [],
      "name": "accumulatedCommission",
      "outputs": [
        {
          "internalType": "uint256",
          "name": "",
          "type": "uint256"
        }
      ],
      "stateMutability": "view",
      "type": "function"
    },
    {
      "inputs": [
        {
          "internalType": "uint256",
          "name": "",
          "type": "uint256"
        }
      ],
      "name": "auctions",
      "outputs": [
        {
          "internalType": "address",
          "name": "assetAddress",
          "type": "address"
        },
        {
          "internalType": "uint256",
          "name": "assetId",
          "type": "uint256"
        },
        {
          "internalType": "address payable",
          "name": "creator",
          "type": "address"
        },
        {
          "internalType": "uint256",
          "name": "startTime",
          "type": "uint256"
        },
        {
          "internalType": "uint256",
          "name": "duration",
          "type": "uint256"
        },
        {
          "internalType": "uint256",
          "name": "currentBidAmount",
          "type": "uint256"
        },
        {
          "internalType": "address payable",
          "name": "currentBidOwner",
          "type": "address"
        },
        {
          "internalType": "uint256",
          "name": "bidCount",
          "type": "uint256"
        }
      ],
      "stateMutability": "view",
      "type": "function"
    },
    {
      "inputs": [],
      "name": "commission",
      "outputs": [
        {
          "internalType": "uint256",
          "name": "",
          "type": "uint256"
        }
      ],
      "stateMutability": "view",
      "type": "function"
    },
    {
      "inputs": [
        {
          "internalType": "uint256",
          "name": "",
          "type": "uint256"
        }
      ],
      "name": "offers",
      "outputs": [
        {
          "internalType": "address",
          "name": "assetAddress",
          "type": "address"
        },
        {
          "internalType": "uint256",
          "name": "tokenId",
          "type": "uint256"
        },
        {
          "internalType": "address payable",
          "name": "creator",
          "type": "address"
        },
        {
          "internalType": "uint256",
          "name": "price",
          "type": "uint256"
        },
        {
          "internalType": "bool",
          "name": "isOnSale",
          "type": "bool"
        },
        {
          "internalType": "bool",
          "name": "isAuction",
          "type": "bool"
        },
        {
          "internalType": "uint256",
          "name": "idAuction",
          "type": "uint256"
        }
      ],
      "stateMutability": "view",
      "type": "function"
    },
    {
      "inputs": [],
      "name": "owner",
      "outputs": [
        {
          "internalType": "address",
          "name": "",
          "type": "address"
        }
      ],
      "stateMutability": "view",
      "type": "function"
    },
    {
      "inputs": [],
      "name": "renounceOwnership",
      "outputs": [],
      "stateMutability": "nonpayable",
      "type": "function"
    },
    {
      "inputs": [],
      "name": "stakePUMLx",
      "outputs": [
        {
          "internalType": "contract PumlStake",
          "name": "",
          "type": "address"
        }
      ],
      "stateMutability": "view",
      "type": "function"
    },
    {
      "inputs": [],
      "name": "totalSales",
      "outputs": [
        {
          "internalType": "uint256",
          "name": "",
          "type": "uint256"
        }
      ],
      "stateMutability": "view",
      "type": "function"
    },
    {
      "inputs": [
        {
          "internalType": "address",
          "name": "newOwner",
          "type": "address"
        }
      ],
      "name": "transferOwnership",
      "outputs": [],
      "stateMutability": "nonpayable",
      "type": "function"
    },
    {
      "inputs": [
        {
          "internalType": "address",
          "name": "_assetAddress",
          "type": "address"
        },
        {
          "internalType": "uint256",
          "name": "_tokenId",
          "type": "uint256"
        },
        {
          "internalType": "bool",
          "name": "_isDirectSale",
          "type": "bool"
        },
        {
          "internalType": "bool",
          "name": "_isAuction",
          "type": "bool"
        },
        {
          "internalType": "uint256",
          "name": "_price",
          "type": "uint256"
        },
        {
          "internalType": "uint256",
          "name": "_startPrice",
          "type": "uint256"
        },
        {
          "internalType": "uint256",
          "name": "_startTime",
          "type": "uint256"
        },
        {
          "internalType": "uint256",
          "name": "_duration",
          "type": "uint256"
        }
      ],
      "name": "createOffer",
      "outputs": [],
      "stateMutability": "nonpayable",
      "type": "function"
    },
    {
      "inputs": [
        {
          "internalType": "uint256",
          "name": "_tokenId",
          "type": "uint256"
        }
      ],
      "name": "getAuctionId",
      "outputs": [
        {
          "internalType": "uint256",
          "name": "",
          "type": "uint256"
        }
      ],
      "stateMutability": "view",
      "type": "function"
    },
    {
      "inputs": [],
      "name": "ahora",
      "outputs": [
        {
          "internalType": "uint256",
          "name": "",
          "type": "uint256"
        }
      ],
      "stateMutability": "view",
      "type": "function"
    },
    {
      "inputs": [
        {
          "internalType": "uint256",
          "name": "_tokenId",
          "type": "uint256"
        }
      ],
      "name": "removeFromAuction",
      "outputs": [],
      "stateMutability": "nonpayable",
      "type": "function"
    },
    {
      "inputs": [
        {
          "internalType": "uint256",
          "name": "_tokenId",
          "type": "uint256"
        }
      ],
      "name": "removeFromSale",
      "outputs": [],
      "stateMutability": "nonpayable",
      "type": "function"
    },
    {
      "inputs": [
        {
          "internalType": "uint256",
          "name": "_commission",
          "type": "uint256"
        }
      ],
      "name": "setCommission",
      "outputs": [],
      "stateMutability": "nonpayable",
      "type": "function"
    },
    {
      "inputs": [
        {
          "internalType": "uint256",
          "name": "_tokenId",
          "type": "uint256"
        },
        {
          "internalType": "uint256",
          "name": "_puml",
          "type": "uint256"
        }
      ],
      "name": "buy",
      "outputs": [],
      "stateMutability": "payable",
      "type": "function"
    },
    {
      "inputs": [
        {
          "internalType": "uint256",
          "name": "auctionIndex",
          "type": "uint256"
        },
        {
          "internalType": "uint256",
          "name": "_puml",
          "type": "uint256"
        }
      ],
      "name": "bid",
      "outputs": [],
      "stateMutability": "payable",
      "type": "function"
    },
    {
      "inputs": [],
      "name": "getTotalAuctions",
      "outputs": [
        {
          "internalType": "uint256",
          "name": "",
          "type": "uint256"
        }
      ],
      "stateMutability": "view",
      "type": "function"
    },
    {
      "inputs": [
        {
          "internalType": "uint256",
          "name": "_auctionIndex",
          "type": "uint256"
        }
      ],
      "name": "isActive",
      "outputs": [
        {
          "internalType": "bool",
          "name": "",
          "type": "bool"
        }
      ],
      "stateMutability": "view",
      "type": "function"
    },
    {
      "inputs": [
        {
          "internalType": "uint256",
          "name": "_auctionIndex",
          "type": "uint256"
        }
      ],
      "name": "isFinished",
      "outputs": [
        {
          "internalType": "bool",
          "name": "",
          "type": "bool"
        }
      ],
      "stateMutability": "view",
      "type": "function"
    },
    {
      "inputs": [
        {
          "internalType": "uint256",
          "name": "_auctionIndex",
          "type": "uint256"
        }
      ],
      "name": "getStatus",
      "outputs": [
        {
          "internalType": "enum Engine.Status",
          "name": "",
          "type": "uint8"
        }
      ],
      "stateMutability": "view",
      "type": "function"
    },
    {
      "inputs": [
        {
          "internalType": "uint256",
          "name": "_auctionIndex",
          "type": "uint256"
        }
      ],
      "name": "endDate",
      "outputs": [
        {
          "internalType": "uint256",
          "name": "",
          "type": "uint256"
        }
      ],
      "stateMutability": "view",
      "type": "function"
    },
    {
      "inputs": [
        {
          "internalType": "uint256",
          "name": "_auctionIndex",
          "type": "uint256"
        }
      ],
      "name": "getCurrentBidOwner",
      "outputs": [
        {
          "internalType": "address",
          "name": "",
          "type": "address"
        }
      ],
      "stateMutability": "view",
      "type": "function"
    },
    {
      "inputs": [
        {
          "internalType": "uint256",
          "name": "_auctionIndex",
          "type": "uint256"
        }
      ],
      "name": "getCurrentBidAmount",
      "outputs": [
        {
          "internalType": "uint256",
          "name": "",
          "type": "uint256"
        }
      ],
      "stateMutability": "view",
      "type": "function"
    },
    {
      "inputs": [
        {
          "internalType": "uint256",
          "name": "_auctionIndex",
          "type": "uint256"
        }
      ],
      "name": "getBidCount",
      "outputs": [
        {
          "internalType": "uint256",
          "name": "",
          "type": "uint256"
        }
      ],
      "stateMutability": "view",
      "type": "function"
    },
    {
      "inputs": [
        {
          "internalType": "uint256",
          "name": "auctionIndex",
          "type": "uint256"
        }
      ],
      "name": "getWinner",
      "outputs": [
        {
          "internalType": "address",
          "name": "",
          "type": "address"
        }
      ],
      "stateMutability": "view",
      "type": "function"
    },
    {
      "inputs": [
        {
          "internalType": "uint256",
          "name": "auctionIndex",
          "type": "uint256"
        }
      ],
      "name": "closeAuction",
      "outputs": [],
      "stateMutability": "nonpayable",
      "type": "function"
    },
    {
      "inputs": [
        {
          "internalType": "uint256",
          "name": "auctionIndex",
          "type": "uint256"
        }
      ],
      "name": "automaticSetWinner",
      "outputs": [],
      "stateMutability": "nonpayable",
      "type": "function"
    },
    {
      "inputs": [
        {
          "internalType": "address",
          "name": "_assetAddress",
          "type": "address"
        },
        {
          "internalType": "uint256[]",
          "name": "tokenIds",
          "type": "uint256[]"
        }
      ],
      "name": "stakeNFT",
      "outputs": [],
      "stateMutability": "payable",
      "type": "function"
    },
    {
      "inputs": [
        {
          "internalType": "address",
          "name": "_assetAddress",
          "type": "address"
        },
        {
          "internalType": "uint256[]",
          "name": "tokenIds",
          "type": "uint256[]"
        },
        {
          "internalType": "uint256",
          "name": "_claimAmount",
          "type": "uint256"
        }
      ],
      "name": "withdrawNFT",
      "outputs": [],
      "stateMutability": "payable",
      "type": "function"
    }
  ],
  "bytecode": "0x608060405273dcbdb0ddb5a3a8df116d7a02415dd0c4c39fbdad600360006101000a81548173ffffffffffffffffffffffffffffffffffffffff021916908373ffffffffffffffffffffffffffffffffffffffff160217905550600360009054906101000a900473ffffffffffffffffffffffffffffffffffffffff16600460006101000a81548173ffffffffffffffffffffffffffffffffffffffff021916908373ffffffffffffffffffffffffffffffffffffffff1602179055507306ba79d856c477e71d492786029986feea4744a6600560006101000a81548173ffffffffffffffffffffffffffffffffffffffff021916908373ffffffffffffffffffffffffffffffffffffffff16021790555061010e600755600060085560006009553480156200012e57600080fd5b5060405162006046380380620060468339818101604052810190620001549190620002a6565b6200017462000168620001c360201b60201c565b620001cb60201b60201c565b6001808190555080600260006101000a81548173ffffffffffffffffffffffffffffffffffffffff021916908373ffffffffffffffffffffffffffffffffffffffff1602179055505062000320565b600033905090565b60008060009054906101000a900473ffffffffffffffffffffffffffffffffffffffff169050816000806101000a81548173ffffffffffffffffffffffffffffffffffffffff021916908373ffffffffffffffffffffffffffffffffffffffff1602179055508173ffffffffffffffffffffffffffffffffffffffff168173ffffffffffffffffffffffffffffffffffffffff167f8be0079c531659141344cd1fd0a4f28419497f9722a3daafe3b4186f6b6457e060405160405180910390a35050565b600081519050620002a08162000306565b92915050565b600060208284031215620002b957600080fd5b6000620002c9848285016200028f565b91505092915050565b6000620002df82620002e6565b9050919050565b600073ffffffffffffffffffffffffffffffffffffffff82169050919050565b6200031181620002d2565b81146200031d57600080fd5b50565b615d1680620003306000396000f3fe6080604052600436106101cd5760003560e01c80636975846a116100f75780638da5cb5b11610095578063e148919111610064578063e148919114610695578063e8ba6509146106c0578063ea4f10b5146106fd578063f2fde38b14610728576101cd565b80638da5cb5b146106075780639175a58814610632578063ae6936731461064e578063d6febde814610679576101cd565b80637b5a96a6116100d15780637b5a96a61461052157806382afd23b1461054a57806386b46073146105875780638a72ea6a146105c4576101cd565b80636975846a14610490578063715018a6146104cd578063744d3411146104e4576101cd565b80634129b2c91161016f578063571a26a01161013e578063571a26a0146103c8578063598647f81461040c5780635c622a0e146104285780636605ff6614610465576101cd565b80634129b2c91461030957806344b8ad0d146103465780634cac5b4b146103625780635552f6ca1461039f576101cd565b8063236ed8f3116101ab578063236ed8f3146102615780632b8667591461028a578063355e6b43146102b55780633ef14cc8146102de576101cd565b806312f4ea2e146101d25780631361a3b61461020f5780632241091b14610238575b600080fd5b3480156101de57600080fd5b506101f960048036038101906101f491906149a2565b610751565b60405161020691906153b2565b60405180910390f35b34801561021b57600080fd5b50610236600480360381019061023191906149a2565b610881565b005b34801561024457600080fd5b5061025f600480360381019061025a91906149a2565b610b2d565b005b34801561026d57600080fd5b50610288600480360381019061028391906149a2565b610fbc565b005b34801561029657600080fd5b5061029f610fc8565b6040516102ac91906153b2565b60405180910390f35b3480156102c157600080fd5b506102dc60048036038101906102d791906149a2565b610fd0565b005b3480156102ea57600080fd5b506102f361109b565b60405161030091906153b2565b60405180910390f35b34801561031557600080fd5b50610330600480360381019061032b91906149a2565b6110a8565b60405161033d9190614e21565b60405180910390f35b610360600480360381019061035b9190614889565b611165565b005b34801561036e57600080fd5b50610389600480360381019061038491906149a2565b61147b565b60405161039691906153b2565b60405180910390f35b3480156103ab57600080fd5b506103c660048036038101906103c191906149a2565b6114eb565b005b3480156103d457600080fd5b506103ef60048036038101906103ea91906149a2565b611573565b60405161040398979695949392919061502c565b60405180910390f35b610426600480360381019061042191906149f4565b61162b565b005b34801561043457600080fd5b5061044f600480360381019061044a91906149a2565b611add565b60405161045c9190615117565b60405180910390f35b34801561047157600080fd5b5061047a611b77565b60405161048791906153b2565b60405180910390f35b34801561049c57600080fd5b506104b760048036038101906104b291906149a2565b611b7d565b6040516104c491906153b2565b60405180910390f35b3480156104d957600080fd5b506104e2611bd2565b005b3480156104f057600080fd5b5061050b600480360381019061050691906149a2565b611c5a565b60405161051891906153b2565b60405180910390f35b34801561052d57600080fd5b50610548600480360381019061054391906148f0565b611caf565b005b34801561055657600080fd5b50610571600480360381019061056c91906149a2565b6121f8565b60405161057e91906150e1565b60405180910390f35b34801561059357600080fd5b506105ae60048036038101906105a991906149a2565b61227d565b6040516105bb9190614e21565b60405180910390f35b3480156105d057600080fd5b506105eb60048036038101906105e691906149a2565b6122f2565b6040516105fe9796959493929190614fbd565b60405180910390f35b34801561061357600080fd5b5061061c61238e565b6040516106299190614e21565b60405180910390f35b61064c60048036038101906106479190614835565b6123b7565b005b34801561065a57600080fd5b50610663612570565b60405161067091906153b2565b60405180910390f35b610693600480360381019061068e91906149f4565b612576565b005b3480156106a157600080fd5b506106aa6135d9565b6040516106b791906153b2565b60405180910390f35b3480156106cc57600080fd5b506106e760048036038101906106e291906149a2565b6135df565b6040516106f491906150e1565b60405180910390f35b34801561070957600080fd5b50610712613663565b60405161071f91906150fc565b60405180910390f35b34801561073457600080fd5b5061074f600480360381019061074a91906147e3565b613689565b005b600080600a60008481526020019081526020016000206040518060e00160405290816000820160009054906101000a900473ffffffffffffffffffffffffffffffffffffffff1673ffffffffffffffffffffffffffffffffffffffff1673ffffffffffffffffffffffffffffffffffffffff168152602001600182015481526020016002820160009054906101000a900473ffffffffffffffffffffffffffffffffffffffff1673ffffffffffffffffffffffffffffffffffffffff1673ffffffffffffffffffffffffffffffffffffffff168152602001600382015481526020016004820160009054906101000a900460ff161515151581526020016004820160019054906101000a900460ff1615151515815260200160058201548152505090508060c00151915050919050565b6000600a60008381526020019081526020016000206040518060e00160405290816000820160009054906101000a900473ffffffffffffffffffffffffffffffffffffffff1673ffffffffffffffffffffffffffffffffffffffff1673ffffffffffffffffffffffffffffffffffffffff168152602001600182015481526020016002820160009054906101000a900473ffffffffffffffffffffffffffffffffffffffff1673ffffffffffffffffffffffffffffffffffffffff1673ffffffffffffffffffffffffffffffffffffffff168152602001600382015481526020016004820160009054906101000a900460ff161515151581526020016004820160019054906101000a900460ff161515151581526020016005820154815250509050806040015173ffffffffffffffffffffffffffffffffffffffff163373ffffffffffffffffffffffffffffffffffffffff1614610a15576040517f08c379a0000000000000000000000000000000000000000000000000000000008152600401610a0c90615232565b60405180910390fd5b600081608001901515908115158152505080600a600084815260200190815260200160002060008201518160000160006101000a81548173ffffffffffffffffffffffffffffffffffffffff021916908373ffffffffffffffffffffffffffffffffffffffff1602179055506020820151816001015560408201518160020160006101000a81548173ffffffffffffffffffffffffffffffffffffffff021916908373ffffffffffffffffffffffffffffffffffffffff1602179055506060820151816003015560808201518160040160006101000a81548160ff02191690831515021790555060a08201518160040160016101000a81548160ff02191690831515021790555060c082015181600501559050505050565b6000600a60008381526020019081526020016000206040518060e00160405290816000820160009054906101000a900473ffffffffffffffffffffffffffffffffffffffff1673ffffffffffffffffffffffffffffffffffffffff1673ffffffffffffffffffffffffffffffffffffffff168152602001600182015481526020016002820160009054906101000a900473ffffffffffffffffffffffffffffffffffffffff1673ffffffffffffffffffffffffffffffffffffffff1673ffffffffffffffffffffffffffffffffffffffff168152602001600382015481526020016004820160009054906101000a900460ff161515151581526020016004820160019054906101000a900460ff161515151581526020016005820154815250509050806040015173ffffffffffffffffffffffffffffffffffffffff163373ffffffffffffffffffffffffffffffffffffffff1614610cc1576040517f08c379a0000000000000000000000000000000000000000000000000000000008152600401610cb890615232565b60405180910390fd5b600060068260c0015181548110610d01577f4e487b7100000000000000000000000000000000000000000000000000000000600052603260045260246000fd5b9060005260206000209060080201604051806101000160405290816000820160009054906101000a900473ffffffffffffffffffffffffffffffffffffffff1673ffffffffffffffffffffffffffffffffffffffff1673ffffffffffffffffffffffffffffffffffffffff168152602001600182015481526020016002820160009054906101000a900473ffffffffffffffffffffffffffffffffffffffff1673ffffffffffffffffffffffffffffffffffffffff1673ffffffffffffffffffffffffffffffffffffffff1681526020016003820154815260200160048201548152602001600582015481526020016006820160009054906101000a900473ffffffffffffffffffffffffffffffffffffffff1673ffffffffffffffffffffffffffffffffffffffff1673ffffffffffffffffffffffffffffffffffffffff168152602001600782015481525050905060008160e0015114610e98576040517f08c379a0000000000000000000000000000000000000000000000000000000008152600401610e8f906151d2565b60405180910390fd5b60008260a001901515908115158152505060008260c001818152505081600a600085815260200190815260200160002060008201518160000160006101000a81548173ffffffffffffffffffffffffffffffffffffffff021916908373ffffffffffffffffffffffffffffffffffffffff1602179055506020820151816001015560408201518160020160006101000a81548173ffffffffffffffffffffffffffffffffffffffff021916908373ffffffffffffffffffffffffffffffffffffffff1602179055506060820151816003015560808201518160040160006101000a81548160ff02191690831515021790555060a08201518160040160016101000a81548160ff02191690831515021790555060c08201518160050155905050505050565b610fc581613781565b50565b600042905090565b610fd86141eb565b73ffffffffffffffffffffffffffffffffffffffff16610ff661238e565b73ffffffffffffffffffffffffffffffffffffffff161461104c576040517f08c379a0000000000000000000000000000000000000000000000000000000008152600401611043906152d2565b60405180910390fd5b611388811115611091576040517f08c379a000000000000000000000000000000000000000000000000000000000815260040161108890615332565b60405180910390fd5b8060078190555050565b6000600680549050905090565b60006110b3826135df565b6110f2576040517f08c379a00000000000000000000000000000000000000000000000000000000081526004016110e990615152565b60405180910390fd5b6006828154811061112c577f4e487b7100000000000000000000000000000000000000000000000000000000600052603260045260246000fd5b906000526020600020906008020160060160009054906101000a900473ffffffffffffffffffffffffffffffffffffffff169050919050565b600260015414156111ab576040517f08c379a00000000000000000000000000000000000000000000000000000000081526004016111a290615392565b60405180910390fd5b6002600181905550600080600090505b8351811015611413573373ffffffffffffffffffffffffffffffffffffffff16600260009054906101000a900473ffffffffffffffffffffffffffffffffffffffff1673ffffffffffffffffffffffffffffffffffffffff16633ce72e5a87878581518110611253577f4e487b7100000000000000000000000000000000000000000000000000000000600052603260045260246000fd5b60200260200101516040518363ffffffff1660e01b8152600401611278929190614f5d565b60206040518083038186803b15801561129057600080fd5b505afa1580156112a4573d6000803e3d6000fd5b505050506040513d601f19601f820116820180604052508101906112c8919061480c565b73ffffffffffffffffffffffffffffffffffffffff161461131e576040517f08c379a000000000000000000000000000000000000000000000000000000000815260040161131590615192565b60405180910390fd5b60018261132b91906155e0565b9150600260009054906101000a900473ffffffffffffffffffffffffffffffffffffffff1673ffffffffffffffffffffffffffffffffffffffff1663c77013ca868684815181106113a5577f4e487b7100000000000000000000000000000000000000000000000000000000600052603260045260246000fd5b602002602001015160006040518463ffffffff1660e01b81526004016113cd93929190614f86565b600060405180830381600087803b1580156113e757600080fd5b505af11580156113fb573d6000803e3d6000fd5b5050505060018161140c91906155e0565b90506111bb565b5061141e81836141f3565b3373ffffffffffffffffffffffffffffffffffffffff167f62ce610c288a7f8a9a6715f35d395ec0702a9719aa06b15bb5e6869d7d19a952828560405161146692919061550a565b60405180910390a25060018081905550505050565b600080600683815481106114b8577f4e487b7100000000000000000000000000000000000000000000000000000000600052603260045260246000fd5b906000526020600020906008020190506114e38160040154826003015461431890919063ffffffff16565b915050919050565b6114f36141eb565b73ffffffffffffffffffffffffffffffffffffffff1661151161238e565b73ffffffffffffffffffffffffffffffffffffffff1614611567576040517f08c379a000000000000000000000000000000000000000000000000000000000815260040161155e906152d2565b60405180910390fd5b61157081613781565b50565b6006818154811061158357600080fd5b90600052602060002090600802016000915090508060000160009054906101000a900473ffffffffffffffffffffffffffffffffffffffff16908060010154908060020160009054906101000a900473ffffffffffffffffffffffffffffffffffffffff16908060030154908060040154908060050154908060060160009054906101000a900473ffffffffffffffffffffffffffffffffffffffff16908060070154905088565b60026001541415611671576040517f08c379a000000000000000000000000000000000000000000000000000000000815260040161166890615392565b60405180910390fd5b600260018190555060003390506000600684815481106116ba577f4e487b7100000000000000000000000000000000000000000000000000000000600052603260045260246000fd5b90600052602060002090600802019050600073ffffffffffffffffffffffffffffffffffffffff168160020160009054906101000a900473ffffffffffffffffffffffffffffffffffffffff1673ffffffffffffffffffffffffffffffffffffffff16141561175e576040517f08c379a000000000000000000000000000000000000000000000000000000000815260040161175590615252565b60405180910390fd5b611767846121f8565b6117a6576040517f08c379a000000000000000000000000000000000000000000000000000000000815260040161179d906151f2565b60405180910390fd5b806005015434116117ec576040517f08c379a00000000000000000000000000000000000000000000000000000000081526004016117e390615172565b60405180910390fd5b60008160050154141580156118525750600073ffffffffffffffffffffffffffffffffffffffff168160060160009054906101000a900473ffffffffffffffffffffffffffffffffffffffff1673ffffffffffffffffffffffffffffffffffffffff1614155b156119905760008160060160009054906101000a900473ffffffffffffffffffffffffffffffffffffffff1673ffffffffffffffffffffffffffffffffffffffff1682600501546040516118a590614e0c565b60006040518083038185875af1925050503d80600081146118e2576040519150601f19603f3d011682016040523d82523d6000602084013e6118e7565b606091505b505090508061192b576040517f08c379a000000000000000000000000000000000000000000000000000000000815260040161192290615352565b60405180910390fd5b7f972fd66eadedfb87beff023a37f4d8c6a91fdd147fa0d3c036e0c6c5a0cdc795858360060160009054906101000a900473ffffffffffffffffffffffffffffffffffffffff168460050154604051611986939291906153f6565b60405180910390a1505b348160050181905550818160060160006101000a81548173ffffffffffffffffffffffffffffffffffffffff021916908373ffffffffffffffffffffffffffffffffffffffff1602179055506119f46001826007015461431890919063ffffffff16565b81600701819055506000831115611a9557600260009054906101000a900473ffffffffffffffffffffffffffffffffffffffff1673ffffffffffffffffffffffffffffffffffffffff16639d756a8d83856040518363ffffffff1660e01b8152600401611a62929190614f5d565b600060405180830381600087803b158015611a7c57600080fd5b505af1158015611a90573d6000803e3d6000fd5b505050505b7fb8d756f2d1da4663767eb4d559780ace84f2f65a421a60ddcb47e8b2e5d2fd26848334604051611ac8939291906154d3565b60405180910390a15050600180819055505050565b60008060068381548110611b1a577f4e487b7100000000000000000000000000000000000000000000000000000000600052603260045260246000fd5b906000526020600020906008020190508060030154421015611b40576000915050611b72565b611b5b8160040154826003015461431890919063ffffffff16565b421015611b6c576001915050611b72565b60029150505b919050565b60095481565b600060068281548110611bb9577f4e487b7100000000000000000000000000000000000000000000000000000000600052603260045260246000fd5b9060005260206000209060080201600501549050919050565b611bda6141eb565b73ffffffffffffffffffffffffffffffffffffffff16611bf861238e565b73ffffffffffffffffffffffffffffffffffffffff1614611c4e576040517f08c379a0000000000000000000000000000000000000000000000000000000008152600401611c45906152d2565b60405180910390fd5b611c58600061432e565b565b600060068281548110611c96577f4e487b7100000000000000000000000000000000000000000000000000000000600052603260045260246000fd5b9060005260206000209060080201600701549050919050565b60008890503373ffffffffffffffffffffffffffffffffffffffff168173ffffffffffffffffffffffffffffffffffffffff16636352211e8a6040518263ffffffff1660e01b8152600401611d0491906153b2565b60206040518083038186803b158015611d1c57600080fd5b505afa158015611d30573d6000803e3d6000fd5b505050506040513d601f19601f82011682018060405250810190611d54919061480c565b73ffffffffffffffffffffffffffffffffffffffff1614611daa576040517f08c379a0000000000000000000000000000000000000000000000000000000008152600401611da190615292565b60405180910390fd5b3073ffffffffffffffffffffffffffffffffffffffff168173ffffffffffffffffffffffffffffffffffffffff1663081812fc8a6040518263ffffffff1660e01b8152600401611dfa91906153b2565b60206040518083038186803b158015611e1257600080fd5b505afa158015611e26573d6000803e3d6000fd5b505050506040513d601f19601f82011682018060405250810190611e4a919061480c565b73ffffffffffffffffffffffffffffffffffffffff1614611ea0576040517f08c379a0000000000000000000000000000000000000000000000000000000008152600401611e9790615372565b60405180910390fd5b6000600a60008a81526020019081526020016000206040518060e00160405290816000820160009054906101000a900473ffffffffffffffffffffffffffffffffffffffff1673ffffffffffffffffffffffffffffffffffffffff1673ffffffffffffffffffffffffffffffffffffffff168152602001600182015481526020016002820160009054906101000a900473ffffffffffffffffffffffffffffffffffffffff1673ffffffffffffffffffffffffffffffffffffffff1673ffffffffffffffffffffffffffffffffffffffff168152602001600382015481526020016004820160009054906101000a900460ff161515151581526020016004820160019054906101000a900460ff1615151515815260200160058201548152505090506000151581608001511515148015611fe25750600015158160a001511515145b612021576040517f08c379a000000000000000000000000000000000000000000000000000000000815260040161201890615272565b60405180910390fd5b60006040518060e001604052808c73ffffffffffffffffffffffffffffffffffffffff1681526020018b81526020013373ffffffffffffffffffffffffffffffffffffffff1681526020018881526020018a1515815260200189151581526020016000815250905087156120a65761209c8b8b8888886143f2565b8160c00181815250505b80600a60008c815260200190815260200160002060008201518160000160006101000a81548173ffffffffffffffffffffffffffffffffffffffff021916908373ffffffffffffffffffffffffffffffffffffffff1602179055506020820151816001015560408201518160020160006101000a81548173ffffffffffffffffffffffffffffffffffffffff021916908373ffffffffffffffffffffffffffffffffffffffff1602179055506060820151816003015560808201518160040160006101000a81548160ff02191690831515021790555060a08201518160040160016101000a81548160ff02191690831515021790555060c082015181600501559050507fa9b9b286d6a0d36eec10c565ed38fc4794a2f554baf7b6187e53e71e600f0aa98a338d60018b8e6040516121e396959493929190615472565b60405180910390a15050505050505050505050565b600060016002811115612234577f4e487b7100000000000000000000000000000000000000000000000000000000600052602160045260246000fd5b61223d83611add565b6002811115612275577f4e487b7100000000000000000000000000000000000000000000000000000000600052602160045260246000fd5b149050919050565b6000600682815481106122b9577f4e487b7100000000000000000000000000000000000000000000000000000000600052603260045260246000fd5b906000526020600020906008020160060160009054906101000a900473ffffffffffffffffffffffffffffffffffffffff169050919050565b600a6020528060005260406000206000915090508060000160009054906101000a900473ffffffffffffffffffffffffffffffffffffffff16908060010154908060020160009054906101000a900473ffffffffffffffffffffffffffffffffffffffff16908060030154908060040160009054906101000a900460ff16908060040160019054906101000a900460ff16908060050154905087565b60008060009054906101000a900473ffffffffffffffffffffffffffffffffffffffff16905090565b600260015414156123fd576040517f08c379a00000000000000000000000000000000000000000000000000000000081526004016123f490615392565b60405180910390fd5b6002600181905550600080600090505b825181101561250a5760018261242391906155e0565b9150600260009054906101000a900473ffffffffffffffffffffffffffffffffffffffff1673ffffffffffffffffffffffffffffffffffffffff1663c77013ca8585848151811061249d577f4e487b7100000000000000000000000000000000000000000000000000000000600052603260045260246000fd5b6020026020010151336040518463ffffffff1660e01b81526004016124c493929190614f86565b600060405180830381600087803b1580156124de57600080fd5b505af11580156124f2573d6000803e3d6000fd5b5050505060018161250391906155e0565b905061240d565b5061251481614623565b3373ffffffffffffffffffffffffffffffffffffffff167fdeaad30c9e3118ba3b39651e76dd3db3536ec6872639078cfe472ab46316afae828460405161255c92919061550a565b60405180910390a250600180819055505050565b60085481565b600260015414156125bc576040517f08c379a00000000000000000000000000000000000000000000000000000000081526004016125b390615392565b60405180910390fd5b6002600181905550600033905060003490506000600a60008681526020019081526020016000206040518060e00160405290816000820160009054906101000a900473ffffffffffffffffffffffffffffffffffffffff1673ffffffffffffffffffffffffffffffffffffffff1673ffffffffffffffffffffffffffffffffffffffff168152602001600182015481526020016002820160009054906101000a900473ffffffffffffffffffffffffffffffffffffffff1673ffffffffffffffffffffffffffffffffffffffff1673ffffffffffffffffffffffffffffffffffffffff168152602001600382015481526020016004820160009054906101000a900460ff161515151581526020016004820160019054906101000a900460ff16151515158152602001600582015481525050905060011515816080015115151461273b576040517f08c379a000000000000000000000000000000000000000000000000000000000815260040161273290615312565b60405180910390fd5b60008160600151905080831015612787576040517f08c379a000000000000000000000000000000000000000000000000000000000815260040161277e90615132565b60405180910390fd5b600115158260a0015115151480156127a857506127a78260c001516135df565b5b80156128035750600060068360c00151815481106127ef577f4e487b7100000000000000000000000000000000000000000000000000000000600052603260045260246000fd5b906000526020600020906008020160070154115b15612843576040517f08c379a000000000000000000000000000000000000000000000000000000000815260040161283a906152b2565b60405180910390fd5b7f35538759d80c1fd7bb450a0d05601db5a99fa8b5d073a07c847a9fd61029b10786856040516128749291906153cd565b60405180910390a16000826000015190508073ffffffffffffffffffffffffffffffffffffffff166342842e0e8460400151878a6040518463ffffffff1660e01b81526004016128c693929190614e3c565b600060405180830381600087803b1580156128e057600080fd5b505af11580156128f4573d6000803e3d6000fd5b5050505060008173ffffffffffffffffffffffffffffffffffffffff1663d48e638a896040518263ffffffff1660e01b815260040161293391906153b2565b60206040518083038186803b15801561294b57600080fd5b505afa15801561295f573d6000803e3d6000fd5b505050506040513d601f19601f82011682018060405250810190612983919061480c565b9050600061271061299f600754886146b890919063ffffffff16565b6129a99190615636565b9050600080866040015173ffffffffffffffffffffffffffffffffffffffff168473ffffffffffffffffffffffffffffffffffffffff1614612cbb57612710612a838673ffffffffffffffffffffffffffffffffffffffff1663bb3bafd68e6040518263ffffffff1660e01b8152600401612a2491906153b2565b60206040518083038186803b158015612a3c57600080fd5b505afa158015612a50573d6000803e3d6000fd5b505050506040513d601f19601f82011682018060405250810190612a7491906149cb565b8a6146b890919063ffffffff16565b612a8d9190615636565b9150612710612b2d8673ffffffffffffffffffffffffffffffffffffffff1663bb3bafd68e6040518263ffffffff1660e01b8152600401612ace91906153b2565b60206040518083038186803b158015612ae657600080fd5b505afa158015612afa573d6000803e3d6000fd5b505050506040513d601f19601f82011682018060405250810190612b1e91906149cb565b8c6146b890919063ffffffff16565b612b379190615636565b905060008473ffffffffffffffffffffffffffffffffffffffff1683604051612b5f90614e0c565b60006040518083038185875af1925050503d8060008114612b9c576040519150601f19603f3d011682016040523d82523d6000602084013e612ba1565b606091505b5050905080612be5576040517f08c379a0000000000000000000000000000000000000000000000000000000008152600401612bdc90615352565b60405180910390fd5b6000821115612c8057600260009054906101000a900473ffffffffffffffffffffffffffffffffffffffff1673ffffffffffffffffffffffffffffffffffffffff16633dfc70878b87856040518463ffffffff1660e01b8152600401612c4d93929190614eef565b600060405180830381600087803b158015612c6757600080fd5b505af1158015612c7b573d6000803e3d6000fd5b505050505b7f54b960faf8b038c33ba9912fdb9ac1e8e0096c5f327d1c89e62b5d9c5357ddb68584604051612cb1929190614e73565b60405180910390a1505b6000612ce283612cd4868c6146ce90919063ffffffff16565b6146ce90919063ffffffff16565b90506000886040015173ffffffffffffffffffffffffffffffffffffffff1682604051612d0e90614e0c565b60006040518083038185875af1925050503d8060008114612d4b576040519150601f19603f3d011682016040523d82523d6000602084013e612d50565b606091505b5050905080612d94576040517f08c379a0000000000000000000000000000000000000000000000000000000008152600401612d8b90615352565b60405180910390fd5b7f9a37aa02cc986a4a0c2d22af3dcdb9db27c178f7feed43e7037c783b55ed91ba896040015183878761271060075434612dce9190615667565b612dd89190615636565b87612de391906155e0565b604051612df4959493929190614e9c565b60405180910390a1600115158960a00151151514156130ba57600060068a60c0015181548110612e4d577f4e487b7100000000000000000000000000000000000000000000000000000000600052603260045260246000fd5b9060005260206000209060080201604051806101000160405290816000820160009054906101000a900473ffffffffffffffffffffffffffffffffffffffff1673ffffffffffffffffffffffffffffffffffffffff1673ffffffffffffffffffffffffffffffffffffffff168152602001600182015481526020016002820160009054906101000a900473ffffffffffffffffffffffffffffffffffffffff1673ffffffffffffffffffffffffffffffffffffffff1673ffffffffffffffffffffffffffffffffffffffff1681526020016003820154815260200160048201548152602001600582015481526020016006820160009054906101000a900473ffffffffffffffffffffffffffffffffffffffff1673ffffffffffffffffffffffffffffffffffffffff1673ffffffffffffffffffffffffffffffffffffffff168152602001600782015481525050905060008160a0015114158015612fb6575060008160e00151115b156130b85760008160c0015173ffffffffffffffffffffffffffffffffffffffff168260a00151604051612fe990614e0c565b60006040518083038185875af1925050503d8060008114613026576040519150601f19603f3d011682016040523d82523d6000602084013e61302b565b606091505b505090508061306f576040517f08c379a000000000000000000000000000000000000000000000000000000000815260040161306690615352565b60405180910390fd5b7f972fd66eadedfb87beff023a37f4d8c6a91fdd147fa0d3c036e0c6c5a0cdc7958b60c001518360c001518460a001516040516130ae939291906153f6565b60405180910390a1505b505b7f3b599f6217e39be59216b60e543ce0d4c7d534fe64dd9d962334924e7819894e8d8c346040516130ed939291906154d3565b60405180910390a161310a8560085461431890919063ffffffff16565b60088190555060008960a0019015159081151581525050600089608001901515908115158152505088600a60008f815260200190815260200160002060008201518160000160006101000a81548173ffffffffffffffffffffffffffffffffffffffff021916908373ffffffffffffffffffffffffffffffffffffffff1602179055506020820151816001015560408201518160020160006101000a81548173ffffffffffffffffffffffffffffffffffffffff021916908373ffffffffffffffffffffffffffffffffffffffff1602179055506060820151816003015560808201518160040160006101000a81548160ff02191690831515021790555060a08201518160040160016101000a81548160ff02191690831515021790555060c0820151816005015590505061324a3460095461431890919063ffffffff16565b60098190555060008c9050600061271061326f600754846146b890919063ffffffff16565b6132799190615636565b905060006132a28661329484866146ce90919063ffffffff16565b6146ce90919063ffffffff16565b905060008311156134d957600260009054906101000a900473ffffffffffffffffffffffffffffffffffffffff1673ffffffffffffffffffffffffffffffffffffffff16633dfc70878f8e60400151846040518463ffffffff1660e01b815260040161331093929190614eef565b600060405180830381600087803b15801561332a57600080fd5b505af115801561333e573d6000803e3d6000fd5b50505050600260009054906101000a900473ffffffffffffffffffffffffffffffffffffffff1673ffffffffffffffffffffffffffffffffffffffff16633dfc70878f600360009054906101000a900473ffffffffffffffffffffffffffffffffffffffff166064603f876133b39190615667565b6133bd9190615636565b6040518463ffffffff1660e01b81526004016133db93929190614f26565b600060405180830381600087803b1580156133f557600080fd5b505af1158015613409573d6000803e3d6000fd5b50505050600260009054906101000a900473ffffffffffffffffffffffffffffffffffffffff1673ffffffffffffffffffffffffffffffffffffffff16633dfc70878f600560009054906101000a900473ffffffffffffffffffffffffffffffffffffffff16606460248761347e9190615667565b6134889190615636565b6040518463ffffffff1660e01b81526004016134a693929190614f26565b600060405180830381600087803b1580156134c057600080fd5b505af11580156134d4573d6000803e3d6000fd5b505050505b6000600460009054906101000a900473ffffffffffffffffffffffffffffffffffffffff1673ffffffffffffffffffffffffffffffffffffffff166064603f8b6135239190615667565b61352d9190615636565b60405161353990614e0c565b60006040518083038185875af1925050503d8060008114613576576040519150601f19603f3d011682016040523d82523d6000602084013e61357b565b606091505b50509050806135bf576040517f08c379a00000000000000000000000000000000000000000000000000000000081526004016135b690615352565b60405180910390fd5b505050505050505050505050505050600180819055505050565b60075481565b600060028081111561361a577f4e487b7100000000000000000000000000000000000000000000000000000000600052602160045260246000fd5b61362383611add565b600281111561365b577f4e487b7100000000000000000000000000000000000000000000000000000000600052602160045260246000fd5b149050919050565b600260009054906101000a900473ffffffffffffffffffffffffffffffffffffffff1681565b6136916141eb565b73ffffffffffffffffffffffffffffffffffffffff166136af61238e565b73ffffffffffffffffffffffffffffffffffffffff1614613705576040517f08c379a00000000000000000000000000000000000000000000000000000000081526004016136fc906152d2565b60405180910390fd5b600073ffffffffffffffffffffffffffffffffffffffff168173ffffffffffffffffffffffffffffffffffffffff161415613775576040517f08c379a000000000000000000000000000000000000000000000000000000000815260040161376c906151b2565b60405180910390fd5b61377e8161432e565b50565b600260015414156137c7576040517f08c379a00000000000000000000000000000000000000000000000000000000081526004016137be90615392565b60405180910390fd5b600260018190555060006137da826110a8565b9050600060068381548110613818577f4e487b7100000000000000000000000000000000000000000000000000000000600052603260045260246000fd5b906000526020600020906008020190506000600a6000836001015481526020019081526020016000206040518060e00160405290816000820160009054906101000a900473ffffffffffffffffffffffffffffffffffffffff1673ffffffffffffffffffffffffffffffffffffffff1673ffffffffffffffffffffffffffffffffffffffff168152602001600182015481526020016002820160009054906101000a900473ffffffffffffffffffffffffffffffffffffffff1673ffffffffffffffffffffffffffffffffffffffff1673ffffffffffffffffffffffffffffffffffffffff168152602001600382015481526020016004820160009054906101000a900460ff161515151581526020016004820160019054906101000a900460ff161515151581526020016005820154815250509050600115158160a00151151514613999576040517f08c379a0000000000000000000000000000000000000000000000000000000008152600401613990906152f2565b60405180910390fd5b6000826007015411156140b55760008260000160009054906101000a900473ffffffffffffffffffffffffffffffffffffffff1690503073ffffffffffffffffffffffffffffffffffffffff168173ffffffffffffffffffffffffffffffffffffffff1663081812fc85600101546040518263ffffffff1660e01b8152600401613a2391906153b2565b60206040518083038186803b158015613a3b57600080fd5b505afa158015613a4f573d6000803e3d6000fd5b505050506040513d601f19601f82011682018060405250810190613a73919061480c565b73ffffffffffffffffffffffffffffffffffffffff1614613ac9576040517f08c379a0000000000000000000000000000000000000000000000000000000008152600401613ac090615372565b60405180910390fd5b8260020160009054906101000a900473ffffffffffffffffffffffffffffffffffffffff1673ffffffffffffffffffffffffffffffffffffffff168173ffffffffffffffffffffffffffffffffffffffff16636352211e85600101546040518263ffffffff1660e01b8152600401613b4191906153b2565b60206040518083038186803b158015613b5957600080fd5b505afa158015613b6d573d6000803e3d6000fd5b505050506040513d601f19601f82011682018060405250810190613b91919061480c565b73ffffffffffffffffffffffffffffffffffffffff1614613be7576040517f08c379a0000000000000000000000000000000000000000000000000000000008152600401613bde90615212565b60405180910390fd5b8073ffffffffffffffffffffffffffffffffffffffff166342842e0e8460020160009054906101000a900473ffffffffffffffffffffffffffffffffffffffff168686600101546040518463ffffffff1660e01b8152600401613c4c93929190614e3c565b600060405180830381600087803b158015613c6657600080fd5b505af1158015613c7a573d6000803e3d6000fd5b505050507f35538759d80c1fd7bb450a0d05601db5a99fa8b5d073a07c847a9fd61029b1078585604051613caf9291906153cd565b60405180910390a160008173ffffffffffffffffffffffffffffffffffffffff1663d48e638a85600101546040518263ffffffff1660e01b8152600401613cf691906153b2565b60206040518083038186803b158015613d0e57600080fd5b505afa158015613d22573d6000803e3d6000fd5b505050506040513d601f19601f82011682018060405250810190613d46919061480c565b90506000612710613d6660075487600501546146b890919063ffffffff16565b613d709190615636565b905060008560020160009054906101000a900473ffffffffffffffffffffffffffffffffffffffff1673ffffffffffffffffffffffffffffffffffffffff168373ffffffffffffffffffffffffffffffffffffffff1614613efe57612710613e718573ffffffffffffffffffffffffffffffffffffffff1663bb3bafd689600101546040518263ffffffff1660e01b8152600401613e0e91906153b2565b60206040518083038186803b158015613e2657600080fd5b505afa158015613e3a573d6000803e3d6000fd5b505050506040513d601f19601f82011682018060405250810190613e5e91906149cb565b88600501546146b890919063ffffffff16565b613e7b9190615636565b90508273ffffffffffffffffffffffffffffffffffffffff166108fc829081150290604051600060405180830381858888f19350505050158015613ec3573d6000803e3d6000fd5b507f54b960faf8b038c33ba9912fdb9ac1e8e0096c5f327d1c89e62b5d9c5357ddb68382604051613ef5929190614e73565b60405180910390a15b6000613f2982613f1b858a600501546146ce90919063ffffffff16565b6146ce90919063ffffffff16565b905060008760020160009054906101000a900473ffffffffffffffffffffffffffffffffffffffff1673ffffffffffffffffffffffffffffffffffffffff1682604051613f7590614e0c565b60006040518083038185875af1925050503d8060008114613fb2576040519150601f19603f3d011682016040523d82523d6000602084013e613fb7565b606091505b5050905080613ffb576040517f08c379a0000000000000000000000000000000000000000000000000000000008152600401613ff290615352565b60405180910390fd5b7f9a37aa02cc986a4a0c2d22af3dcdb9db27c178f7feed43e7037c783b55ed91ba8860020160009054906101000a900473ffffffffffffffffffffffffffffffffffffffff1683868687898861405191906155e0565b61405b91906155e0565b60405161406c959493929190614e9c565b60405180910390a16140898460085461431890919063ffffffff16565b6008819055506140a8886005015460095461431890919063ffffffff16565b6009819055505050505050505b60008160a0019015159081151581525050600081608001901515908115158152505080600a60008460010154815260200190815260200160002060008201518160000160006101000a81548173ffffffffffffffffffffffffffffffffffffffff021916908373ffffffffffffffffffffffffffffffffffffffff1602179055506020820151816001015560408201518160020160006101000a81548173ffffffffffffffffffffffffffffffffffffffff021916908373ffffffffffffffffffffffffffffffffffffffff1602179055506060820151816003015560808201518160040160006101000a81548160ff02191690831515021790555060a08201518160040160016101000a81548160ff02191690831515021790555060c082015181600501559050505050506001808190555050565b600033905090565b600260009054906101000a900473ffffffffffffffffffffffffffffffffffffffff1673ffffffffffffffffffffffffffffffffffffffff16635db8de19338460006040518463ffffffff1660e01b8152600401614253939291906150aa565b600060405180830381600087803b15801561426d57600080fd5b505af1158015614281573d6000803e3d6000fd5b50505050600260009054906101000a900473ffffffffffffffffffffffffffffffffffffffff1673ffffffffffffffffffffffffffffffffffffffff16632abc341333836040518363ffffffff1660e01b81526004016142e2929190614f5d565b600060405180830381600087803b1580156142fc57600080fd5b505af1158015614310573d6000803e3d6000fd5b505050505050565b6000818361432691906155e0565b905092915050565b60008060009054906101000a900473ffffffffffffffffffffffffffffffffffffffff169050816000806101000a81548173ffffffffffffffffffffffffffffffffffffffff021916908373ffffffffffffffffffffffffffffffffffffffff1602179055508173ffffffffffffffffffffffffffffffffffffffff168173ffffffffffffffffffffffffffffffffffffffff167f8be0079c531659141344cd1fd0a4f28419497f9722a3daafe3b4186f6b6457e060405160405180910390a35050565b600080831415614400574292505b60006040518061010001604052808873ffffffffffffffffffffffffffffffffffffffff1681526020018781526020013373ffffffffffffffffffffffffffffffffffffffff168152602001858152602001848152602001868152602001600073ffffffffffffffffffffffffffffffffffffffff16815260200160008152509050600681908060018154018082558091505060019003906000526020600020906008020160009091909190915060008201518160000160006101000a81548173ffffffffffffffffffffffffffffffffffffffff021916908373ffffffffffffffffffffffffffffffffffffffff1602179055506020820151816001015560408201518160020160006101000a81548173ffffffffffffffffffffffffffffffffffffffff021916908373ffffffffffffffffffffffffffffffffffffffff160217905550606082015181600301556080820151816004015560a0820151816005015560c08201518160060160006101000a81548173ffffffffffffffffffffffffffffffffffffffff021916908373ffffffffffffffffffffffffffffffffffffffff16021790555060e08201518160070155505060006145d260016006805490506146ce90919063ffffffff16565b90507fc9050d42180a61cb0d9ebb8ad118b62fe6eab12cf12ff752c4a0cc7da9ddf627818360400151898960405161460d949392919061542d565b60405180910390a1809250505095945050505050565b600260009054906101000a900473ffffffffffffffffffffffffffffffffffffffff1673ffffffffffffffffffffffffffffffffffffffff16635db8de19338360016040518463ffffffff1660e01b8152600401614683939291906150aa565b600060405180830381600087803b15801561469d57600080fd5b505af11580156146b1573d6000803e3d6000fd5b5050505050565b600081836146c69190615667565b905092915050565b600081836146dc91906156c1565b905092915050565b60006146f76146f28461555f565b61553a565b9050808382526020820190508285602086028201111561471657600080fd5b60005b85811015614746578161472c88826147b9565b845260208401935060208301925050600181019050614719565b5050509392505050565b60008135905061475f81615c9b565b92915050565b60008151905061477481615c9b565b92915050565b600082601f83011261478b57600080fd5b813561479b8482602086016146e4565b91505092915050565b6000813590506147b381615cb2565b92915050565b6000813590506147c881615cc9565b92915050565b6000815190506147dd81615cc9565b92915050565b6000602082840312156147f557600080fd5b600061480384828501614750565b91505092915050565b60006020828403121561481e57600080fd5b600061482c84828501614765565b91505092915050565b6000806040838503121561484857600080fd5b600061485685828601614750565b925050602083013567ffffffffffffffff81111561487357600080fd5b61487f8582860161477a565b9150509250929050565b60008060006060848603121561489e57600080fd5b60006148ac86828701614750565b935050602084013567ffffffffffffffff8111156148c957600080fd5b6148d58682870161477a565b92505060406148e6868287016147b9565b9150509250925092565b600080600080600080600080610100898b03121561490d57600080fd5b600061491b8b828c01614750565b985050602061492c8b828c016147b9565b975050604061493d8b828c016147a4565b965050606061494e8b828c016147a4565b955050608061495f8b828c016147b9565b94505060a06149708b828c016147b9565b93505060c06149818b828c016147b9565b92505060e06149928b828c016147b9565b9150509295985092959890939650565b6000602082840312156149b457600080fd5b60006149c2848285016147b9565b91505092915050565b6000602082840312156149dd57600080fd5b60006149eb848285016147ce565b91505092915050565b60008060408385031215614a0757600080fd5b6000614a15858286016147b9565b9250506020614a26858286016147b9565b9150509250929050565b6000614a3c8383614dee565b60208301905092915050565b614a5181615762565b82525050565b614a6081615707565b82525050565b614a6f816156f5565b82525050565b6000614a808261559b565b614a8a81856155b3565b9350614a958361558b565b8060005b83811015614ac6578151614aad8882614a30565b9750614ab8836155a6565b925050600181019050614a99565b5085935050505092915050565b614adc81615719565b82525050565b614aeb81615774565b82525050565b614afa81615798565b82525050565b614b09816157aa565b82525050565b6000614b1c6013836155cf565b9150614b27826158de565b602082019050919050565b6000614b3f6018836155cf565b9150614b4a82615907565b602082019050919050565b6000614b62600b836155cf565b9150614b6d82615930565b602082019050919050565b6000614b856024836155cf565b9150614b9082615959565b604082019050919050565b6000614ba86026836155cf565b9150614bb3826159a8565b604082019050919050565b6000614bcb600d836155cf565b9150614bd6826159f7565b602082019050919050565b6000614bee600e836155cf565b9150614bf982615a20565b602082019050919050565b6000614c116020836155cf565b9150614c1c82615a49565b602082019050919050565b6000614c346015836155cf565b9150614c3f82615a72565b602082019050919050565b6000614c57601c836155cf565b9150614c6282615a9b565b602082019050919050565b6000614c7a601e836155cf565b9150614c8582615ac4565b602082019050919050565b6000614c9d600d836155cf565b9150614ca882615aed565b602082019050919050565b6000614cc06025836155cf565b9150614ccb82615b16565b604082019050919050565b6000614ce36020836155cf565b9150614cee82615b65565b602082019050919050565b6000614d066012836155cf565b9150614d1182615b8e565b602082019050919050565b6000614d296016836155cf565b9150614d3482615bb7565b602082019050919050565b6000614d4c6013836155cf565b9150614d5782615be0565b602082019050919050565b6000614d6f6000836155c4565b9150614d7a82615c09565b600082019050919050565b6000614d926010836155cf565b9150614d9d82615c0c565b602082019050919050565b6000614db56010836155cf565b9150614dc082615c35565b602082019050919050565b6000614dd8601f836155cf565b9150614de382615c5e565b602082019050919050565b614df781615758565b82525050565b614e0681615758565b82525050565b6000614e1782614d62565b9150819050919050565b6000602082019050614e366000830184614a66565b92915050565b6000606082019050614e516000830186614a48565b614e5e6020830185614a66565b614e6b6040830184614dfd565b949350505050565b6000604082019050614e886000830185614a48565b614e956020830184614dfd565b9392505050565b600060a082019050614eb16000830188614a48565b614ebe6020830187614dfd565b614ecb6040830186614dfd565b614ed86060830185614dfd565b614ee56080830184614dfd565b9695505050505050565b6000606082019050614f046000830186614a66565b614f116020830185614a48565b614f1e6040830184614dfd565b949350505050565b6000606082019050614f3b6000830186614a66565b614f486020830185614a66565b614f556040830184614dfd565b949350505050565b6000604082019050614f726000830185614a66565b614f7f6020830184614dfd565b9392505050565b6000606082019050614f9b6000830186614a66565b614fa86020830185614dfd565b614fb56040830184614a66565b949350505050565b600060e082019050614fd2600083018a614a66565b614fdf6020830189614dfd565b614fec6040830188614a57565b614ff96060830187614dfd565b6150066080830186614ad3565b61501360a0830185614ad3565b61502060c0830184614dfd565b98975050505050505050565b600061010082019050615042600083018b614a66565b61504f602083018a614dfd565b61505c6040830189614a57565b6150696060830188614dfd565b6150766080830187614dfd565b61508360a0830186614dfd565b61509060c0830185614a57565b61509d60e0830184614dfd565b9998505050505050505050565b60006060820190506150bf6000830186614a66565b6150cc6020830185614dfd565b6150d96040830184614ad3565b949350505050565b60006020820190506150f66000830184614ad3565b92915050565b60006020820190506151116000830184614ae2565b92915050565b600060208201905061512c6000830184614af1565b92915050565b6000602082019050818103600083015261514b81614b0f565b9050919050565b6000602082019050818103600083015261516b81614b32565b9050919050565b6000602082019050818103600083015261518b81614b55565b9050919050565b600060208201905081810360008301526151ab81614b78565b9050919050565b600060208201905081810360008301526151cb81614b9b565b9050919050565b600060208201905081810360008301526151eb81614bbe565b9050919050565b6000602082019050818103600083015261520b81614be1565b9050919050565b6000602082019050818103600083015261522b81614c04565b9050919050565b6000602082019050818103600083015261524b81614c27565b9050919050565b6000602082019050818103600083015261526b81614c4a565b9050919050565b6000602082019050818103600083015261528b81614c6d565b9050919050565b600060208201905081810360008301526152ab81614c90565b9050919050565b600060208201905081810360008301526152cb81614cb3565b9050919050565b600060208201905081810360008301526152eb81614cd6565b9050919050565b6000602082019050818103600083015261530b81614cf9565b9050919050565b6000602082019050818103600083015261532b81614d1c565b9050919050565b6000602082019050818103600083015261534b81614d3f565b9050919050565b6000602082019050818103600083015261536b81614d85565b9050919050565b6000602082019050818103600083015261538b81614da8565b9050919050565b600060208201905081810360008301526153ab81614dcb565b9050919050565b60006020820190506153c76000830184614dfd565b92915050565b60006040820190506153e26000830185614dfd565b6153ef6020830184614a66565b9392505050565b600060608201905061540b6000830186614dfd565b6154186020830185614a48565b6154256040830184614dfd565b949350505050565b60006080820190506154426000830187614dfd565b61544f6020830186614a48565b61545c6040830185614dfd565b6154696060830184614dfd565b95945050505050565b600060c0820190506154876000830189614dfd565b6154946020830188614a66565b6154a16040830187614a66565b6154ae6060830186614b00565b6154bb6080830185614dfd565b6154c860a0830184614ad3565b979650505050505050565b60006060820190506154e86000830186614dfd565b6154f56020830185614a66565b6155026040830184614dfd565b949350505050565b600060408201905061551f6000830185614dfd565b81810360208301526155318184614a75565b90509392505050565b6000615544615555565b905061555082826157e0565b919050565b6000604051905090565b600067ffffffffffffffff82111561557a5761557961589e565b5b602082029050602081019050919050565b6000819050602082019050919050565b600081519050919050565b6000602082019050919050565b600082825260208201905092915050565b600081905092915050565b600082825260208201905092915050565b60006155eb82615758565b91506155f683615758565b9250827fffffffffffffffffffffffffffffffffffffffffffffffffffffffffffffffff0382111561562b5761562a615811565b5b828201905092915050565b600061564182615758565b915061564c83615758565b92508261565c5761565b615840565b5b828204905092915050565b600061567282615758565b915061567d83615758565b9250817fffffffffffffffffffffffffffffffffffffffffffffffffffffffffffffffff04831182151516156156b6576156b5615811565b5b828202905092915050565b60006156cc82615758565b91506156d783615758565b9250828210156156ea576156e9615811565b5b828203905092915050565b600061570082615738565b9050919050565b600061571282615738565b9050919050565b60008115159050919050565b600081905061573382615c87565b919050565b600073ffffffffffffffffffffffffffffffffffffffff82169050919050565b6000819050919050565b600061576d826157bc565b9050919050565b600061577f82615786565b9050919050565b600061579182615738565b9050919050565b60006157a382615725565b9050919050565b60006157b582615758565b9050919050565b60006157c7826157ce565b9050919050565b60006157d982615738565b9050919050565b6157e9826158cd565b810181811067ffffffffffffffff821117156158085761580761589e565b5b80604052505050565b7f4e487b7100000000000000000000000000000000000000000000000000000000600052601160045260246000fd5b7f4e487b7100000000000000000000000000000000000000000000000000000000600052601260045260246000fd5b7f4e487b7100000000000000000000000000000000000000000000000000000000600052602160045260246000fd5b7f4e487b7100000000000000000000000000000000000000000000000000000000600052604160045260246000fd5b6000601f19601f8301169050919050565b7f5072696365206973206e6f7420656e6f75676800000000000000000000000000600082015250565b7f41756374696f6e206e6f742066696e6973686564207965740000000000000000600082015250565b7f42696420746f6f206c6f77000000000000000000000000000000000000000000600082015250565b7f5374616b696e673a204e6f7420746865207374616b6572206f6620746865207460008201527f6f6b656e00000000000000000000000000000000000000000000000000000000602082015250565b7f4f776e61626c653a206e6577206f776e657220697320746865207a65726f206160008201527f6464726573730000000000000000000000000000000000000000000000000000602082015250565b7f42696473206578697374696e6700000000000000000000000000000000000000600082015250565b7f426964206e6f7420616374697665000000000000000000000000000000000000600082015250565b7f41756374696f6e2063726561746f72206973206e6f74206e6674206f776e6572600082015250565b7f596f7520617265206e6f7420746865206f776e65720000000000000000000000600082015250565b7f43616e6e6f74206269642e204572726f7220696e2061756374696f6e00000000600082015250565b7f416e20616374697665206f6666657220616c7265616479206578697374730000600082015250565b7f4e6f7420746865206f776e657200000000000000000000000000000000000000600082015250565b7f436c61696d2061737365742066726f6d2061756374696f6e206861732070726960008201527f6f72697479000000000000000000000000000000000000000000000000000000602082015250565b7f4f776e61626c653a2063616c6c6572206973206e6f7420746865206f776e6572600082015250565b7f4e4654206e6f7420696e2061756374696f6e0000000000000000000000000000600082015250565b7f4e4654206e6f7420696e206469726563742073616c6500000000000000000000600082015250565b7f436f6d6d697373696f6e20746f6f206869676800000000000000000000000000600082015250565b50565b7f5472616e73666572206661696c65642e00000000000000000000000000000000600082015250565b7f4e4654206e6f7420617070726f76656400000000000000000000000000000000600082015250565b7f5265656e7472616e637947756172643a207265656e7472616e742063616c6c00600082015250565b60038110615c9857615c9761586f565b5b50565b615ca4816156f5565b8114615caf57600080fd5b50565b615cbb81615719565b8114615cc657600080fd5b50565b615cd281615758565b8114615cdd57600080fd5b5056fea26469706673582212203a9113286c91eb1579a914c9e2e6ac8cc29a53b3f90417588cf4e154656d168264736f6c63430008040033",
  "immutableReferences": {},
  "source": "// SPDX-License-Identifier: UNLICENSED\r\npragma solidity 0.8.4;\r\n\r\n//import \"./AddressUtils.sol\";\r\nimport \"@openzeppelin/contracts/token/ERC721/ERC721.sol\";\r\nimport \"@openzeppelin/contracts/access/Ownable.sol\";\r\nimport \"./PumlNFT.sol\";\r\nimport \"./PumlStake.sol\";\r\nimport \"@openzeppelin/contracts/utils/math/SafeMath.sol\";\r\nimport \"@openzeppelin/contracts/security/ReentrancyGuard.sol\";\r\n\r\ncontract Engine is Ownable, ReentrancyGuard {\r\n    using SafeMath for uint256;\r\n    PumlStake public stakePUMLx;\r\n\r\n    constructor(address _stakeAddress) {\r\n        stakePUMLx = PumlStake(_stakeAddress);\r\n    }\r\n    address companyFeeAddress = 0xDCBDB0dDB5A3a8DF116d7a02415DD0c4c39FbDaD;\r\n    address payable fee17address = payable(companyFeeAddress);\r\n    address pumlfee10address = 0x06BA79D856C477E71d492786029986fEEa4744a6;\r\n\r\n    event OfferCreated(\r\n        uint256 _tokenId,\r\n        address _creator,\r\n        address _asset,\r\n        uint256 numCopies,\r\n        uint256 amount,\r\n        bool isSale\r\n    );\r\n    // Event triggered when an auction is created\r\n    event AuctionCreated(\r\n        uint256 _auctionId,\r\n        address _creator,\r\n        uint256 _tokenId,\r\n        uint256 _startPrice\r\n    );\r\n    // Event triggered when an auction receives a bid\r\n    event AuctionBid(uint256 _index, address _bidder, uint256 amount);\r\n    // Event triggered when an ended auction winner claims the NFT\r\n    event Claim(uint256 auctionIndex, address claimer);\r\n    // Event triggered when an auction received a bid that implies sending funds back to previous best bidder\r\n    event ReturnBidFunds(uint256 _index, address _bidder, uint256 amount);\r\n    // Event triggered when a royalties payment is generated, either on direct sales or on auctions\r\n    event Royalties(address receiver, uint256 amount);\r\n    // Event triggered when a payment to the owner is generated, either on direct sales or on auctions.assetAddress\r\n    // This event is useful to check that all the payments funds are the right ones.\r\n    event PaymentToOwner(\r\n        address receiver,\r\n        uint256 amount,\r\n        //    uint256 paidByCustomer,\r\n        uint256 commission,\r\n        uint256 royalties,\r\n        uint256 safetyCheckValue\r\n    );\r\n    event Buy(uint256 _index, address buyer, uint256 _amount);\r\n\r\n    // Status of an auction, calculated using the start date, the duration and the current timeblock\r\n    enum Status {\r\n        pending,\r\n        active,\r\n        finished\r\n    }\r\n    // Data of an auction\r\n    struct Auction {\r\n        address assetAddress; // token address\r\n        uint256 assetId; // token id\r\n        address payable creator; // creator of the auction, which is the token owner\r\n        uint256 startTime; // time (unix, in seconds) where the auction will start\r\n        uint256 duration; // duration in seconds of the auction\r\n        uint256 currentBidAmount; // amount in ETH of the current bid amount\r\n        address payable currentBidOwner; // address of the user who places the best bid\r\n        uint256 bidCount; // number of bids of the auction\r\n    }\r\n    Auction[] public auctions;\r\n\r\n    uint256 public commission = 270; // this is the commission in basic points that will charge the marketplace by default.\r\n    uint256 public accumulatedCommission = 0; // this is the amount in ETH accumulated on marketplace wallet\r\n    uint256 public totalSales = 0;\r\n\r\n    struct Offer {\r\n        address assetAddress; // address of the token\r\n        uint256 tokenId; // the tokenId returned when calling \"createItem\"\r\n        address payable creator; // who creates the offer\r\n        uint256 price; // price of each token\r\n        bool isOnSale; // is on sale or not\r\n        bool isAuction; // is this offer is for an auction\r\n        uint256 idAuction; // the id of the auction\r\n    }\r\n    mapping(uint256 => Offer) public offers;\r\n\r\n    // Every time a token is put on sale, an offer is created. An offer can be a direct sale, an auction\r\n    // or a combination of both.\r\n    function createOffer(\r\n        address _assetAddress, // address of the token\r\n        uint256 _tokenId, // tokenId\r\n        bool _isDirectSale, // true if can be bought on a direct sale\r\n        bool _isAuction, // true if can be bought in an auction\r\n        uint256 _price, // price that if paid in a direct sale, transfers the NFT\r\n        uint256 _startPrice, // minimum price on the auction\r\n        uint256 _startTime, // time when the auction will start. Check the format with frontend\r\n        uint256 _duration // duration in seconds of the auction\r\n    ) public {\r\n        ERC721 asset = ERC721(_assetAddress);\r\n        require(asset.ownerOf(_tokenId) == msg.sender, \"Not the owner\");\r\n        require(\r\n            asset.getApproved(_tokenId) == address(this),\r\n            \"NFT not approved\"\r\n        );\r\n        // Could not be used to update an existing offer (#02)\r\n        Offer memory previous = offers[_tokenId];\r\n        require(\r\n            previous.isOnSale == false && previous.isAuction == false,\r\n            \"An active offer already exists\"\r\n        );\r\n\r\n        // First create the offer\r\n        Offer memory offer = Offer({\r\n            assetAddress: _assetAddress,\r\n            tokenId: _tokenId,\r\n            creator: payable(msg.sender),\r\n            price: _price,\r\n            isOnSale: _isDirectSale,\r\n            isAuction: _isAuction,\r\n            idAuction: 0\r\n        });\r\n        // only if the offer has the \"is_auction\" flag, add the auction to the list\r\n        if (_isAuction) {\r\n            offer.idAuction = createAuction(\r\n                _assetAddress,\r\n                _tokenId,\r\n                _startPrice,\r\n                _startTime,\r\n                _duration\r\n            );\r\n        }\r\n        offers[_tokenId] = offer;\r\n        emit OfferCreated(\r\n            _tokenId,\r\n            msg.sender,\r\n            _assetAddress,\r\n            1,\r\n            _price,\r\n            _isDirectSale\r\n        );\r\n    }\r\n\r\n    // returns the auctionId from the offerId\r\n    function getAuctionId(uint256 _tokenId) public view returns (uint256) {\r\n        Offer memory offer = offers[_tokenId];\r\n        return offer.idAuction;\r\n    }\r\n\r\n    // this method returns the current date and time of the blockchain. Used also to check the contract is alive\r\n    function ahora() public view returns (uint256) {\r\n        return block.timestamp;\r\n    }\r\n\r\n    // Remove an auction from the offer that did not have previous bids. Beware could be a direct sale\r\n    function removeFromAuction(uint256 _tokenId) public {\r\n        Offer memory offer = offers[_tokenId];\r\n        require(msg.sender == offer.creator, \"You are not the owner\");\r\n        Auction memory auction = auctions[offer.idAuction];\r\n        require(auction.bidCount == 0, \"Bids existing\");\r\n        offer.isAuction = false;\r\n        offer.idAuction = 0;\r\n        offers[_tokenId] = offer;\r\n    }\r\n\r\n    // remove a direct sale from an offer. Beware that could be an auction for the token\r\n    function removeFromSale(uint256 _tokenId) public {\r\n        Offer memory offer = offers[_tokenId];\r\n        require(msg.sender == offer.creator, \"You are not the owner\");\r\n        offer.isOnSale = false;\r\n        offers[_tokenId] = offer;\r\n    }\r\n\r\n    // Changes the default commission. Only the owner of the marketplace can do that. In basic points\r\n    function setCommission(uint256 _commission) public onlyOwner {\r\n        require(_commission <= 5000, \"Commission too high\");\r\n        commission = _commission;\r\n    }\r\n\r\n    // called in a direct sale by the customer. Transfer the nft to the customer, the royalties (if any)\r\n    // to the token creator, the commission for the marketplace is keeped on the contract and the remaining\r\n    // funds are transferred to the token owner.\r\n    // is there is an auction open, the last bid amount is sent back to the last bidder\r\n    // After that, the offer is cleared.\r\n    function buy(uint256 _tokenId, uint256 _puml) external payable nonReentrant {\r\n        address buyer = msg.sender;\r\n        uint256 paidPrice = msg.value;\r\n\r\n        Offer memory offer = offers[_tokenId];\r\n        require(offer.isOnSale == true, \"NFT not in direct sale\");\r\n        uint256 price = offer.price;\r\n        require(paidPrice >= price, \"Price is not enough\");\r\n\r\n        //if there is a bid and the auction is closed but not claimed, give priority to claim\r\n        require(\r\n            !(offer.isAuction == true &&\r\n                isFinished(offer.idAuction) &&\r\n                auctions[offer.idAuction].bidCount > 0),\r\n            \"Claim asset from auction has priority\"\r\n        );\r\n\r\n        emit Claim(_tokenId, buyer);\r\n        PumlNFT asset = PumlNFT(offer.assetAddress);\r\n        asset.safeTransferFrom(offer.creator, buyer, _tokenId);\r\n\r\n        // now, pay the amount - commission - royalties to the auction creator\r\n        address payable creatorNFT = payable(asset.getCreator(_tokenId));\r\n\r\n        uint256 commissionToPay = (paidPrice.mul(commission)) / 10000;\r\n        uint256 royaltiesToPay = 0;\r\n        uint256 royaltiesToPayPUML = 0;\r\n        if (creatorNFT != offer.creator) {\r\n            // It is a resale. Transfer royalties\r\n            royaltiesToPay =\r\n                (paidPrice.mul(asset.getRoyalties(_tokenId))) /\r\n                10000;\r\n            royaltiesToPayPUML =\r\n                (_puml.mul(asset.getRoyalties(_tokenId))) /\r\n                10000;\r\n\r\n            (bool success, ) = creatorNFT.call{value: royaltiesToPay}(\"\");\r\n            require(success, \"Transfer failed.\");\r\n\r\n            if (royaltiesToPayPUML > 0) {\r\n                stakePUMLx.setTransferPuml(buyer, creatorNFT, royaltiesToPayPUML);\r\n            }\r\n\r\n            emit Royalties(creatorNFT, royaltiesToPay);\r\n        }\r\n        uint256 amountToPay = paidPrice.sub(commissionToPay).sub(\r\n            royaltiesToPay\r\n        );\r\n\r\n        (bool success2, ) = offer.creator.call{value: amountToPay}(\"\");\r\n        require(success2, \"Transfer failed.\");\r\n\r\n        emit PaymentToOwner(\r\n            offer.creator,\r\n            amountToPay,\r\n            //     paidPrice,\r\n            commissionToPay,\r\n            royaltiesToPay,\r\n            amountToPay + ((msg.value * commission) / 10000) // using safemath will trigger an error because of stack size\r\n        );\r\n\r\n        // is there is an auction open, we have to give back the last bid amount to the last bidder\r\n        if (offer.isAuction == true) {\r\n            Auction memory auction = auctions[offer.idAuction];\r\n            // #4. Only if there is at least a bid and the bid amount > 0, give it back to last bidder\r\n            if (auction.currentBidAmount != 0 && auction.bidCount > 0) {\r\n                // return funds to the previuos bidder\r\n                (bool success3, ) = auction.currentBidOwner.call{\r\n                    value: auction.currentBidAmount\r\n                }(\"\");\r\n                require(success3, \"Transfer failed.\");\r\n                emit ReturnBidFunds(\r\n                    offer.idAuction,\r\n                    auction.currentBidOwner,\r\n                    auction.currentBidAmount\r\n                );\r\n            }\r\n        }\r\n\r\n        emit Buy(_tokenId, buyer, msg.value);\r\n\r\n        accumulatedCommission = accumulatedCommission.add(commissionToPay);\r\n\r\n        offer.isAuction = false;\r\n        offer.isOnSale = false;\r\n        offers[_tokenId] = offer;\r\n\r\n        totalSales = totalSales.add(msg.value);\r\n\r\n        uint256 paidPUML = _puml;\r\n        uint256 commissionToPayPUML = (paidPUML.mul(commission)) / 10000;\r\n        uint256 amountToPayPUML = paidPUML.sub(commissionToPayPUML).sub(royaltiesToPayPUML);\r\n\r\n        if(paidPUML > 0) {\r\n            stakePUMLx.setTransferPuml(buyer, offer.creator, amountToPayPUML);\r\n            stakePUMLx.setTransferPuml(buyer, companyFeeAddress, commissionToPayPUML * 63 / 100);\r\n            stakePUMLx.setTransferPuml(buyer, pumlfee10address, commissionToPayPUML * 36 / 100);\r\n        }\r\n\r\n        (bool success17, ) =fee17address.call{value: commissionToPay*63/100}(\"\");\r\n        require(success17, \"Transfer failed.\");\r\n    }\r\n\r\n    // Creates an auction for a token. It is linked to an offer\r\n    function createAuction(\r\n        address _assetAddress, // address of the PumlNFT token\r\n        uint256 _assetId, // id of the NFT\r\n        uint256 _startPrice, // minimum price\r\n        uint256 _startTime, // time when the auction will start. Check with frontend because is unix time in seconds, not millisecs!\r\n        uint256 _duration // duration in seconds of the auction\r\n    ) private returns (uint256) {\r\n        if (_startTime == 0) {\r\n            _startTime = block.timestamp;\r\n        }\r\n\r\n        Auction memory auction = Auction({\r\n            creator: payable(msg.sender),\r\n            assetAddress: _assetAddress,\r\n            assetId: _assetId,\r\n            startTime: _startTime,\r\n            duration: _duration,\r\n            currentBidAmount: _startPrice,\r\n            currentBidOwner: payable(address(0)),\r\n            bidCount: 0\r\n        });\r\n        auctions.push(auction);\r\n        uint256 index = auctions.length.sub(1);\r\n\r\n        emit AuctionCreated(index, auction.creator, _assetId, _startPrice);\r\n\r\n        return index;\r\n    }\r\n\r\n    // At the end of the call, the amount is saved on the marketplace wallet and the previous bid amount is returned to old bidder\r\n    // except in the case of the first bid, as could exists a minimum price set by the creator as first bid.\r\n    function bid(uint256 auctionIndex, uint256 _puml) public payable nonReentrant {\r\n        address bidder = msg.sender;\r\n\r\n        Auction storage auction = auctions[auctionIndex];\r\n        require(auction.creator != address(0), \"Cannot bid. Error in auction\");\r\n        require(isActive(auctionIndex), \"Bid not active\");\r\n        require(msg.value > auction.currentBidAmount, \"Bid too low\");\r\n        // we got a better bid. Return funds to the previous best bidder\r\n        // and register the sender as `currentBidOwner`\r\n\r\n        // this check is for not transferring back funds on the first bid, as the fist bid is the minimum price set by the auction creator\r\n        // and the bid owner is address(0)\r\n        if (\r\n            auction.currentBidAmount != 0 &&\r\n            auction.currentBidOwner != address(0)\r\n        ) {\r\n            // return funds to the previuos bidder\r\n            (bool success, ) = auction.currentBidOwner.call{\r\n                value: auction.currentBidAmount\r\n            }(\"\");\r\n            require(success, \"Transfer failed.\");\r\n            emit ReturnBidFunds(\r\n                auctionIndex,\r\n                auction.currentBidOwner,\r\n                auction.currentBidAmount\r\n            );\r\n        }\r\n        // register new bidder\r\n        auction.currentBidAmount = msg.value;\r\n        auction.currentBidOwner = payable(bidder);\r\n        auction.bidCount = auction.bidCount.add(1);\r\n\r\n        if(_puml > 0) {\r\n            stakePUMLx.setDepositPuml(bidder, _puml);\r\n        }\r\n\r\n        emit AuctionBid(auctionIndex, bidder, msg.value);\r\n    }\r\n\r\n    function getTotalAuctions() public view returns (uint256) {\r\n        return auctions.length;\r\n    }\r\n\r\n    function isActive(uint256 _auctionIndex) public view returns (bool) {\r\n        return getStatus(_auctionIndex) == Status.active;\r\n    }\r\n\r\n    function isFinished(uint256 _auctionIndex) public view returns (bool) {\r\n        return getStatus(_auctionIndex) == Status.finished;\r\n    }\r\n\r\n    // The auctions did not be affected if the current time is 15 seconds wrong\r\n    // So, according to Consensys security advices, it is safe using block.timestamp\r\n    function getStatus(uint256 _auctionIndex) public view returns (Status) {\r\n        Auction storage auction = auctions[_auctionIndex];\r\n        if (block.timestamp < auction.startTime) {\r\n            return Status.pending;\r\n        } else if (block.timestamp < auction.startTime.add(auction.duration)) {\r\n            return Status.active;\r\n        } else {\r\n            return Status.finished;\r\n        }\r\n    }\r\n\r\n    // returns the end date of the auction, in unix time using seconds\r\n    function endDate(uint256 _auctionIndex) public view returns (uint256) {\r\n        Auction storage auction = auctions[_auctionIndex];\r\n        return auction.startTime.add(auction.duration);\r\n    }\r\n\r\n    // returns the user with the best bid until now on an auction\r\n    function getCurrentBidOwner(uint256 _auctionIndex)\r\n        public\r\n        view\r\n        returns (address)\r\n    {\r\n        return auctions[_auctionIndex].currentBidOwner;\r\n    }\r\n\r\n    // returns the amount in ETH of the best bid until now on an auction\r\n    function getCurrentBidAmount(uint256 _auctionIndex)\r\n        public\r\n        view\r\n        returns (uint256)\r\n    {\r\n        return auctions[_auctionIndex].currentBidAmount;\r\n    }\r\n\r\n    // returns the number of bids of an auction (0 by default)\r\n    function getBidCount(uint256 _auctionIndex) public view returns (uint256) {\r\n        return auctions[_auctionIndex].bidCount;\r\n    }\r\n\r\n    // returns the winner of an auction once the auction finished\r\n    function getWinner(uint256 auctionIndex) public view returns (address) {\r\n        require(isFinished(auctionIndex), \"Auction not finished yet\");\r\n        return auctions[auctionIndex].currentBidOwner;\r\n    }\r\n\r\n    // called when the auction is finished by the user who won the auction\r\n    // transfer the nft to the caller, the royalties (if any) to the nft creator\r\n    // the commission of the marketplace is calculated, and the remaining funds\r\n    // are transferred to the token owner\r\n    // After this, the offer is disabled\r\n    function closeAuction(uint256 auctionIndex) public {\r\n        //    address winner = getWinner(auctionIndex);\r\n        //    require(winner == msg.sender, \"You are not the winner of the auction\");\r\n        auctionTransferAsset(auctionIndex);\r\n    }\r\n\r\n    function automaticSetWinner(uint256 auctionIndex) public onlyOwner {\r\n        auctionTransferAsset(auctionIndex);\r\n    }\r\n\r\n    function auctionTransferAsset(uint256 auctionIndex) private nonReentrant {\r\n        // require(isFinished(auctionIndex), \"The auction is still active\");\r\n        address winner = getWinner(auctionIndex);\r\n\r\n        Auction storage auction = auctions[auctionIndex];\r\n\r\n        // the token could be sold in direct sale or the owner cancelled the auction\r\n        Offer memory offer = offers[auction.assetId];\r\n        require(offer.isAuction == true, \"NFT not in auction\");\r\n\r\n        if (auction.bidCount > 0) {\r\n            PumlNFT asset = PumlNFT(auction.assetAddress);\r\n\r\n            // #3, check if the asset owner had removed their approval or the offer creator is not the token owner anymore.\r\n            require(\r\n                asset.getApproved(auction.assetId) == address(this),\r\n                \"NFT not approved\"\r\n            );\r\n            require(\r\n                asset.ownerOf(auction.assetId) == auction.creator,\r\n                \"Auction creator is not nft owner\"\r\n            );\r\n\r\n            asset.safeTransferFrom(auction.creator, winner, auction.assetId);\r\n\r\n            emit Claim(auctionIndex, winner);\r\n\r\n            // now, pay the amount - commission - royalties to the auction creator\r\n            address payable creatorNFT = payable(\r\n                asset.getCreator(auction.assetId)\r\n            );\r\n            uint256 commissionToPay = (\r\n                auction.currentBidAmount.mul(commission)\r\n            ) / 10000;\r\n            uint256 royaltiesToPay = 0;\r\n            if (creatorNFT != auction.creator) {\r\n                // It is a resale. Transfer royalties\r\n                royaltiesToPay =\r\n                    (\r\n                        auction.currentBidAmount.mul(\r\n                            asset.getRoyalties(auction.assetId)\r\n                        )\r\n                    ) /\r\n                    10000;\r\n                creatorNFT.transfer(royaltiesToPay);\r\n                emit Royalties(creatorNFT, royaltiesToPay);\r\n            }\r\n            uint256 amountToPay = auction\r\n                .currentBidAmount\r\n                .sub(commissionToPay)\r\n                .sub(royaltiesToPay);\r\n\r\n            (bool success, ) = auction.creator.call{value: amountToPay}(\"\");\r\n            require(success, \"Transfer failed.\");\r\n            emit PaymentToOwner(\r\n                auction.creator,\r\n                amountToPay,\r\n                //  auction.currentBidAmount,\r\n                commissionToPay,\r\n                royaltiesToPay,\r\n                amountToPay + commissionToPay + royaltiesToPay\r\n            );\r\n\r\n            accumulatedCommission = accumulatedCommission.add(commissionToPay);\r\n\r\n            totalSales = totalSales.add(auction.currentBidAmount);\r\n        }\r\n\r\n        offer.isAuction = false;\r\n        offer.isOnSale = false;\r\n        offers[auction.assetId] = offer;\r\n    }\r\n\r\n    //stake NFT\r\n    \r\n    function stakeNFT(\r\n        address _assetAddress,\r\n        uint256[] memory tokenIds\r\n    ) external payable nonReentrant {\r\n\r\n        uint256 amount;\r\n        //PumlNFT token = PumlNFT(_assetAddress);\r\n        for (uint256 i = 0; i < tokenIds.length; i += 1) {\r\n            // Transfer user's NFTs to the staking contract\r\n\r\n            ////// token.safeTransferFrom(msg.sender, _to, tokenIds[i]);\r\n\r\n            // Increment the amount which will be staked\r\n            amount += 1;\r\n            // Save who is the staker/depositor of the token\r\n            stakePUMLx.setStakedAssets(_assetAddress, tokenIds[i], msg.sender);\r\n        }\r\n        _stakeNFT(amount);\r\n        emit StakedNFT(msg.sender, amount, tokenIds);\r\n    }\r\n\r\n    function withdrawNFT(\r\n        address _assetAddress,\r\n        uint256[] memory tokenIds,\r\n        uint256 _claimAmount\r\n    ) public payable nonReentrant {\r\n\r\n        uint256 amount;\r\n        //PumlNFT token = PumlNFT(_assetAddress);\r\n        for (uint256 i = 0; i < tokenIds.length; i += 1) {\r\n            // Check if the user who withdraws is the owner\r\n            require(\r\n                stakePUMLx.getStakedAssets(_assetAddress, tokenIds[i]) == msg.sender,\r\n                \"Staking: Not the staker of the token\"\r\n            );\r\n            // Transfer NFTs back to the owner\r\n\r\n            //////// token.safeTransferFrom(_from, msg.sender, tokenIds[i]);\r\n\r\n            // Increment the amount which will be withdrawn\r\n            amount += 1;\r\n            // Cleanup stakedAssets for the current tokenId\r\n            stakePUMLx.setStakedAssets(_assetAddress, tokenIds[i], address(0));\r\n        }\r\n        _withdrawNFT(amount, _claimAmount);\r\n        emit WithdrawnNFT(msg.sender, amount, tokenIds);\r\n    }\r\n\r\n    function _stakeNFT(uint256 _amount) internal {\r\n        stakePUMLx.setBalancesNFT(msg.sender, _amount, true);\r\n    }\r\n\r\n    function _withdrawNFT(uint256 _amount, uint256 _claimAmount) internal {\r\n        stakePUMLx.setBalancesNFT(msg.sender, _amount, false);\r\n        stakePUMLx.nftRewardClaim(msg.sender, _claimAmount);\r\n    }\r\n\r\n    event StakedNFT(address indexed user, uint256 amount, uint256[] tokenIds);\r\n    event WithdrawnNFT(address indexed user, uint256 amount, uint256[] tokenIds);\r\n}\r\n",
  "sourcePath": "F:\\work\\puml-project\\ethcontracts\\contracts\\Engine.sol",
  "compiler": {
    "name": "solc",
    "version": "0.8.4+commit.c7e474f2.Emscripten.clang"
  },
  "schemaVersion": "3.4.5",
  "updatedAt": "2022-10-28T18:12:02.808Z",
  "devdoc": {
    "kind": "dev",
    "methods": {
      "owner()": {
        "details": "Returns the address of the current owner."
      },
      "renounceOwnership()": {
        "details": "Leaves the contract without owner. It will not be possible to call `onlyOwner` functions anymore. Can only be called by the current owner. NOTE: Renouncing ownership will leave the contract without an owner, thereby removing any functionality that is only available to the owner."
      },
      "transferOwnership(address)": {
        "details": "Transfers ownership of the contract to a new account (`newOwner`). Can only be called by the current owner."
      }
    },
    "version": 1
  },
  "userdoc": {
    "kind": "user",
    "methods": {},
    "version": 1
  }
}