{
  "contractName": "Engine",
  "abi": [
    {
      "anonymous": false,
      "inputs": [
        {
          "indexed": false,
          "internalType": "uint256",
          "name": "_index",
          "type": "uint256"
        },
        {
          "indexed": false,
          "internalType": "address",
          "name": "_bidder",
          "type": "address"
        },
        {
          "indexed": false,
          "internalType": "uint256",
          "name": "amount",
          "type": "uint256"
        }
      ],
      "name": "AuctionBid",
      "type": "event"
    },
    {
      "anonymous": false,
      "inputs": [
        {
          "indexed": false,
          "internalType": "uint256",
          "name": "_index",
          "type": "uint256"
        },
        {
          "indexed": false,
          "internalType": "address",
          "name": "_creator",
          "type": "address"
        },
        {
          "indexed": false,
          "internalType": "address",
          "name": "_asset",
          "type": "address"
        }
      ],
      "name": "AuctionCreated",
      "type": "event"
    },
    {
      "anonymous": false,
      "inputs": [
        {
          "indexed": false,
          "internalType": "uint256",
          "name": "auctionIndex",
          "type": "uint256"
        },
        {
          "indexed": false,
          "internalType": "address",
          "name": "claimer",
          "type": "address"
        }
      ],
      "name": "Claim",
      "type": "event"
    },
    {
      "anonymous": false,
      "inputs": [
        {
          "indexed": true,
          "internalType": "address",
          "name": "previousOwner",
          "type": "address"
        },
        {
          "indexed": true,
          "internalType": "address",
          "name": "newOwner",
          "type": "address"
        }
      ],
      "name": "OwnershipTransferred",
      "type": "event"
    },
    {
      "anonymous": false,
      "inputs": [
        {
          "indexed": false,
          "internalType": "address",
          "name": "receiver",
          "type": "address"
        },
        {
          "indexed": false,
          "internalType": "uint256",
          "name": "amount",
          "type": "uint256"
        },
        {
          "indexed": false,
          "internalType": "uint256",
          "name": "commission",
          "type": "uint256"
        },
        {
          "indexed": false,
          "internalType": "uint256",
          "name": "royalties",
          "type": "uint256"
        },
        {
          "indexed": false,
          "internalType": "uint256",
          "name": "safetyCheckValue",
          "type": "uint256"
        }
      ],
      "name": "PaymentToOwner",
      "type": "event"
    },
    {
      "anonymous": false,
      "inputs": [
        {
          "indexed": false,
          "internalType": "uint256",
          "name": "_index",
          "type": "uint256"
        },
        {
          "indexed": false,
          "internalType": "address",
          "name": "_bidder",
          "type": "address"
        },
        {
          "indexed": false,
          "internalType": "uint256",
          "name": "amount",
          "type": "uint256"
        }
      ],
      "name": "ReturnBidFunds",
      "type": "event"
    },
    {
      "anonymous": false,
      "inputs": [
        {
          "indexed": false,
          "internalType": "address",
          "name": "receiver",
          "type": "address"
        },
        {
          "indexed": false,
          "internalType": "uint256",
          "name": "amount",
          "type": "uint256"
        }
      ],
      "name": "Royalties",
      "type": "event"
    },
    {
      "inputs": [],
      "name": "accumulatedCommission",
      "outputs": [
        {
          "internalType": "uint256",
          "name": "",
          "type": "uint256"
        }
      ],
      "stateMutability": "view",
      "type": "function"
    },
    {
      "inputs": [
        {
          "internalType": "uint256",
          "name": "",
          "type": "uint256"
        }
      ],
      "name": "auctions",
      "outputs": [
        {
          "internalType": "address",
          "name": "assetAddress",
          "type": "address"
        },
        {
          "internalType": "uint256",
          "name": "assetId",
          "type": "uint256"
        },
        {
          "internalType": "address payable",
          "name": "creator",
          "type": "address"
        },
        {
          "internalType": "uint256",
          "name": "startTime",
          "type": "uint256"
        },
        {
          "internalType": "uint256",
          "name": "duration",
          "type": "uint256"
        },
        {
          "internalType": "uint256",
          "name": "currentBidAmount",
          "type": "uint256"
        },
        {
          "internalType": "address payable",
          "name": "currentBidOwner",
          "type": "address"
        },
        {
          "internalType": "uint256",
          "name": "bidCount",
          "type": "uint256"
        }
      ],
      "stateMutability": "view",
      "type": "function"
    },
    {
      "inputs": [],
      "name": "commission",
      "outputs": [
        {
          "internalType": "uint256",
          "name": "",
          "type": "uint256"
        }
      ],
      "stateMutability": "view",
      "type": "function"
    },
    {
      "inputs": [
        {
          "internalType": "uint256",
          "name": "",
          "type": "uint256"
        }
      ],
      "name": "offers",
      "outputs": [
        {
          "internalType": "address",
          "name": "assetAddress",
          "type": "address"
        },
        {
          "internalType": "uint256",
          "name": "tokenId",
          "type": "uint256"
        },
        {
          "internalType": "address payable",
          "name": "creator",
          "type": "address"
        },
        {
          "internalType": "uint256",
          "name": "price",
          "type": "uint256"
        },
        {
          "internalType": "bool",
          "name": "isOnSale",
          "type": "bool"
        },
        {
          "internalType": "bool",
          "name": "isAuction",
          "type": "bool"
        },
        {
          "internalType": "uint256",
          "name": "idAuction",
          "type": "uint256"
        }
      ],
      "stateMutability": "view",
      "type": "function"
    },
    {
      "inputs": [],
      "name": "owner",
      "outputs": [
        {
          "internalType": "address",
          "name": "",
          "type": "address"
        }
      ],
      "stateMutability": "view",
      "type": "function"
    },
    {
      "inputs": [],
      "name": "renounceOwnership",
      "outputs": [],
      "stateMutability": "nonpayable",
      "type": "function"
    },
    {
      "inputs": [],
      "name": "totalSales",
      "outputs": [
        {
          "internalType": "uint256",
          "name": "",
          "type": "uint256"
        }
      ],
      "stateMutability": "view",
      "type": "function"
    },
    {
      "inputs": [
        {
          "internalType": "address",
          "name": "newOwner",
          "type": "address"
        }
      ],
      "name": "transferOwnership",
      "outputs": [],
      "stateMutability": "nonpayable",
      "type": "function"
    },
    {
      "inputs": [
        {
          "internalType": "address",
          "name": "_assetAddress",
          "type": "address"
        },
        {
          "internalType": "uint256",
          "name": "_tokenId",
          "type": "uint256"
        },
        {
          "internalType": "bool",
          "name": "_isDirectSale",
          "type": "bool"
        },
        {
          "internalType": "bool",
          "name": "_isAuction",
          "type": "bool"
        },
        {
          "internalType": "uint256",
          "name": "_price",
          "type": "uint256"
        },
        {
          "internalType": "uint256",
          "name": "_startPrice",
          "type": "uint256"
        },
        {
          "internalType": "uint256",
          "name": "_startTime",
          "type": "uint256"
        },
        {
          "internalType": "uint256",
          "name": "_duration",
          "type": "uint256"
        }
      ],
      "name": "createOffer",
      "outputs": [],
      "stateMutability": "nonpayable",
      "type": "function"
    },
    {
      "inputs": [
        {
          "internalType": "uint256",
          "name": "_tokenId",
          "type": "uint256"
        }
      ],
      "name": "getAuctionId",
      "outputs": [
        {
          "internalType": "uint256",
          "name": "",
          "type": "uint256"
        }
      ],
      "stateMutability": "view",
      "type": "function"
    },
    {
      "inputs": [],
      "name": "ahora",
      "outputs": [
        {
          "internalType": "uint256",
          "name": "",
          "type": "uint256"
        }
      ],
      "stateMutability": "view",
      "type": "function"
    },
    {
      "inputs": [
        {
          "internalType": "uint256",
          "name": "_tokenId",
          "type": "uint256"
        }
      ],
      "name": "removeFromAuction",
      "outputs": [],
      "stateMutability": "nonpayable",
      "type": "function"
    },
    {
      "inputs": [
        {
          "internalType": "uint256",
          "name": "_tokenId",
          "type": "uint256"
        }
      ],
      "name": "removeFromSale",
      "outputs": [],
      "stateMutability": "nonpayable",
      "type": "function"
    },
    {
      "inputs": [
        {
          "internalType": "uint256",
          "name": "_commission",
          "type": "uint256"
        }
      ],
      "name": "setCommission",
      "outputs": [],
      "stateMutability": "nonpayable",
      "type": "function"
    },
    {
      "inputs": [
        {
          "internalType": "uint256",
          "name": "_tokenId",
          "type": "uint256"
        }
      ],
      "name": "buy",
      "outputs": [],
      "stateMutability": "payable",
      "type": "function"
    },
    {
      "inputs": [
        {
          "internalType": "uint256",
          "name": "auctionIndex",
          "type": "uint256"
        }
      ],
      "name": "bid",
      "outputs": [],
      "stateMutability": "payable",
      "type": "function"
    },
    {
      "inputs": [],
      "name": "getTotalAuctions",
      "outputs": [
        {
          "internalType": "uint256",
          "name": "",
          "type": "uint256"
        }
      ],
      "stateMutability": "view",
      "type": "function"
    },
    {
      "inputs": [
        {
          "internalType": "uint256",
          "name": "_auctionIndex",
          "type": "uint256"
        }
      ],
      "name": "isActive",
      "outputs": [
        {
          "internalType": "bool",
          "name": "",
          "type": "bool"
        }
      ],
      "stateMutability": "view",
      "type": "function"
    },
    {
      "inputs": [
        {
          "internalType": "uint256",
          "name": "_auctionIndex",
          "type": "uint256"
        }
      ],
      "name": "isFinished",
      "outputs": [
        {
          "internalType": "bool",
          "name": "",
          "type": "bool"
        }
      ],
      "stateMutability": "view",
      "type": "function"
    },
    {
      "inputs": [
        {
          "internalType": "uint256",
          "name": "_auctionIndex",
          "type": "uint256"
        }
      ],
      "name": "getStatus",
      "outputs": [
        {
          "internalType": "enum Engine.Status",
          "name": "",
          "type": "uint8"
        }
      ],
      "stateMutability": "view",
      "type": "function"
    },
    {
      "inputs": [
        {
          "internalType": "uint256",
          "name": "_auctionIndex",
          "type": "uint256"
        }
      ],
      "name": "endDate",
      "outputs": [
        {
          "internalType": "uint256",
          "name": "",
          "type": "uint256"
        }
      ],
      "stateMutability": "view",
      "type": "function"
    },
    {
      "inputs": [
        {
          "internalType": "uint256",
          "name": "_auctionIndex",
          "type": "uint256"
        }
      ],
      "name": "getCurrentBidOwner",
      "outputs": [
        {
          "internalType": "address",
          "name": "",
          "type": "address"
        }
      ],
      "stateMutability": "view",
      "type": "function"
    },
    {
      "inputs": [
        {
          "internalType": "uint256",
          "name": "_auctionIndex",
          "type": "uint256"
        }
      ],
      "name": "getCurrentBidAmount",
      "outputs": [
        {
          "internalType": "uint256",
          "name": "",
          "type": "uint256"
        }
      ],
      "stateMutability": "view",
      "type": "function"
    },
    {
      "inputs": [
        {
          "internalType": "uint256",
          "name": "_auctionIndex",
          "type": "uint256"
        }
      ],
      "name": "getBidCount",
      "outputs": [
        {
          "internalType": "uint256",
          "name": "",
          "type": "uint256"
        }
      ],
      "stateMutability": "view",
      "type": "function"
    },
    {
      "inputs": [
        {
          "internalType": "uint256",
          "name": "auctionIndex",
          "type": "uint256"
        }
      ],
      "name": "getWinner",
      "outputs": [
        {
          "internalType": "address",
          "name": "",
          "type": "address"
        }
      ],
      "stateMutability": "view",
      "type": "function"
    },
    {
      "inputs": [
        {
          "internalType": "uint256",
          "name": "auctionIndex",
          "type": "uint256"
        }
      ],
      "name": "claimAsset",
      "outputs": [],
      "stateMutability": "nonpayable",
      "type": "function"
    },
    {
      "inputs": [
        {
          "internalType": "uint256",
          "name": "auctionIndex",
          "type": "uint256"
        }
      ],
      "name": "automaticSetWinner",
      "outputs": [],
      "stateMutability": "nonpayable",
      "type": "function"
    },
    {
      "inputs": [
        {
          "internalType": "uint256",
          "name": "_tokenId",
          "type": "uint256"
        }
      ],
      "name": "cancelAuctionOfToken",
      "outputs": [],
      "stateMutability": "nonpayable",
      "type": "function"
    },
    {
      "inputs": [],
      "name": "extractBalance",
      "outputs": [],
      "stateMutability": "nonpayable",
      "type": "function"
    }
  ],
  "bytecode": "0x60806040526000600355600060045560006005553480156200002057600080fd5b5062000041620000356200004e60201b60201c565b6200005660201b60201c565b600180819055506200011a565b600033905090565b60008060009054906101000a900473ffffffffffffffffffffffffffffffffffffffff169050816000806101000a81548173ffffffffffffffffffffffffffffffffffffffff021916908373ffffffffffffffffffffffffffffffffffffffff1602179055508173ffffffffffffffffffffffffffffffffffffffff168173ffffffffffffffffffffffffffffffffffffffff167f8be0079c531659141344cd1fd0a4f28419497f9722a3daafe3b4186f6b6457e060405160405180910390a35050565b615699806200012a6000396000f3fe6080604052600436106101c25760003560e01c80636975846a116100f75780638a72ea6a11610095578063d96a094a11610064578063d96a094a14610676578063e148919114610692578063e8ba6509146106bd578063f2fde38b146106fa576101c2565b80638a72ea6a146105b45780638da5cb5b146105f7578063ae69367314610622578063d3c2a5921461064d576101c2565b8063744d3411116100d1578063744d3411146104d45780637b5a96a61461051157806382afd23b1461053a57806386b4607314610577576101c2565b80636975846a146104695780636af83b24146104a6578063715018a6146104bd576101c2565b8063454a2ab3116101645780635552f6ca1161013e5780635552f6ca14610394578063571a26a0146103bd5780635c622a0e146104015780636605ff661461043e576101c2565b8063454a2ab3146103125780634cac5b4b1461032e57806352ad091a1461036b576101c2565b80632b866759116101a05780632b86675914610256578063355e6b43146102815780633ef14cc8146102aa5780634129b2c9146102d5576101c2565b806312f4ea2e146101c75780631361a3b6146102045780632241091b1461022d575b600080fd5b3480156101d357600080fd5b506101ee60048036038101906101e9919061451e565b610723565b6040516101fb9190614e3b565b60405180910390f35b34801561021057600080fd5b5061022b6004803603810190610226919061451e565b610853565b005b34801561023957600080fd5b50610254600480360381019061024f919061451e565b610aff565b005b34801561026257600080fd5b5061026b610f8e565b6040516102789190614e3b565b60405180910390f35b34801561028d57600080fd5b506102a860048036038101906102a3919061451e565b610f96565b005b3480156102b657600080fd5b506102bf611061565b6040516102cc9190614e3b565b60405180910390f35b3480156102e157600080fd5b506102fc60048036038101906102f7919061451e565b61106e565b604051610309919061494a565b60405180910390f35b61032c6004803603810190610327919061451e565b61112b565b005b34801561033a57600080fd5b506103556004803603810190610350919061451e565b61153d565b6040516103629190614e3b565b60405180910390f35b34801561037757600080fd5b50610392600480360381019061038d919061451e565b6115ad565b005b3480156103a057600080fd5b506103bb60048036038101906103b6919061451e565b611a97565b005b3480156103c957600080fd5b506103e460048036038101906103df919061451e565b611b1f565b6040516103f8989796959493929190614a87565b60405180910390f35b34801561040d57600080fd5b506104286004803603810190610423919061451e565b611bd7565b6040516104359190614b20565b60405180910390f35b34801561044a57600080fd5b50610453611c71565b6040516104609190614e3b565b60405180910390f35b34801561047557600080fd5b50610490600480360381019061048b919061451e565b611c77565b60405161049d9190614e3b565b60405180910390f35b3480156104b257600080fd5b506104bb611ccc565b005b3480156104c957600080fd5b506104d2611e5c565b005b3480156104e057600080fd5b506104fb60048036038101906104f6919061451e565b611ee4565b6040516105089190614e3b565b60405180910390f35b34801561051d57600080fd5b506105386004803603810190610533919061446c565b611f39565b005b34801561054657600080fd5b50610561600480360381019061055c919061451e565b612440565b60405161056e9190614b05565b60405180910390f35b34801561058357600080fd5b5061059e6004803603810190610599919061451e565b6124c5565b6040516105ab919061494a565b60405180910390f35b3480156105c057600080fd5b506105db60048036038101906105d6919061451e565b61253a565b6040516105ee9796959493929190614a18565b60405180910390f35b34801561060357600080fd5b5061060c6125d6565b604051610619919061494a565b60405180910390f35b34801561062e57600080fd5b506106376125ff565b6040516106449190614e3b565b60405180910390f35b34801561065957600080fd5b50610674600480360381019061066f919061451e565b612605565b005b610690600480360381019061068b919061451e565b61268d565b005b34801561069e57600080fd5b506106a76131fa565b6040516106b49190614e3b565b60405180910390f35b3480156106c957600080fd5b506106e460048036038101906106df919061451e565b613200565b6040516106f19190614b05565b60405180910390f35b34801561070657600080fd5b50610721600480360381019061071c919061441a565b613284565b005b600080600660008481526020019081526020016000206040518060e00160405290816000820160009054906101000a900473ffffffffffffffffffffffffffffffffffffffff1673ffffffffffffffffffffffffffffffffffffffff1673ffffffffffffffffffffffffffffffffffffffff168152602001600182015481526020016002820160009054906101000a900473ffffffffffffffffffffffffffffffffffffffff1673ffffffffffffffffffffffffffffffffffffffff1673ffffffffffffffffffffffffffffffffffffffff168152602001600382015481526020016004820160009054906101000a900460ff161515151581526020016004820160019054906101000a900460ff1615151515815260200160058201548152505090508060c00151915050919050565b6000600660008381526020019081526020016000206040518060e00160405290816000820160009054906101000a900473ffffffffffffffffffffffffffffffffffffffff1673ffffffffffffffffffffffffffffffffffffffff1673ffffffffffffffffffffffffffffffffffffffff168152602001600182015481526020016002820160009054906101000a900473ffffffffffffffffffffffffffffffffffffffff1673ffffffffffffffffffffffffffffffffffffffff1673ffffffffffffffffffffffffffffffffffffffff168152602001600382015481526020016004820160009054906101000a900460ff161515151581526020016004820160019054906101000a900460ff161515151581526020016005820154815250509050806040015173ffffffffffffffffffffffffffffffffffffffff163373ffffffffffffffffffffffffffffffffffffffff16146109e7576040517f08c379a00000000000000000000000000000000000000000000000000000000081526004016109de90614c5b565b60405180910390fd5b6000816080019015159081151581525050806006600084815260200190815260200160002060008201518160000160006101000a81548173ffffffffffffffffffffffffffffffffffffffff021916908373ffffffffffffffffffffffffffffffffffffffff1602179055506020820151816001015560408201518160020160006101000a81548173ffffffffffffffffffffffffffffffffffffffff021916908373ffffffffffffffffffffffffffffffffffffffff1602179055506060820151816003015560808201518160040160006101000a81548160ff02191690831515021790555060a08201518160040160016101000a81548160ff02191690831515021790555060c082015181600501559050505050565b6000600660008381526020019081526020016000206040518060e00160405290816000820160009054906101000a900473ffffffffffffffffffffffffffffffffffffffff1673ffffffffffffffffffffffffffffffffffffffff1673ffffffffffffffffffffffffffffffffffffffff168152602001600182015481526020016002820160009054906101000a900473ffffffffffffffffffffffffffffffffffffffff1673ffffffffffffffffffffffffffffffffffffffff1673ffffffffffffffffffffffffffffffffffffffff168152602001600382015481526020016004820160009054906101000a900460ff161515151581526020016004820160019054906101000a900460ff161515151581526020016005820154815250509050806040015173ffffffffffffffffffffffffffffffffffffffff163373ffffffffffffffffffffffffffffffffffffffff1614610c93576040517f08c379a0000000000000000000000000000000000000000000000000000000008152600401610c8a90614c5b565b60405180910390fd5b60006002826020015181548110610cd3577f4e487b7100000000000000000000000000000000000000000000000000000000600052603260045260246000fd5b9060005260206000209060080201604051806101000160405290816000820160009054906101000a900473ffffffffffffffffffffffffffffffffffffffff1673ffffffffffffffffffffffffffffffffffffffff1673ffffffffffffffffffffffffffffffffffffffff168152602001600182015481526020016002820160009054906101000a900473ffffffffffffffffffffffffffffffffffffffff1673ffffffffffffffffffffffffffffffffffffffff1673ffffffffffffffffffffffffffffffffffffffff1681526020016003820154815260200160048201548152602001600582015481526020016006820160009054906101000a900473ffffffffffffffffffffffffffffffffffffffff1673ffffffffffffffffffffffffffffffffffffffff1673ffffffffffffffffffffffffffffffffffffffff168152602001600782015481525050905060008160e0015114610e6a576040517f08c379a0000000000000000000000000000000000000000000000000000000008152600401610e6190614bdb565b60405180910390fd5b60008260a001901515908115158152505060008260c0018181525050816006600085815260200190815260200160002060008201518160000160006101000a81548173ffffffffffffffffffffffffffffffffffffffff021916908373ffffffffffffffffffffffffffffffffffffffff1602179055506020820151816001015560408201518160020160006101000a81548173ffffffffffffffffffffffffffffffffffffffff021916908373ffffffffffffffffffffffffffffffffffffffff1602179055506060820151816003015560808201518160040160006101000a81548160ff02191690831515021790555060a08201518160040160016101000a81548160ff02191690831515021790555060c08201518160050155905050505050565b600042905090565b610f9e61337c565b73ffffffffffffffffffffffffffffffffffffffff16610fbc6125d6565b73ffffffffffffffffffffffffffffffffffffffff1614611012576040517f08c379a000000000000000000000000000000000000000000000000000000000815260040161100990614d3b565b60405180910390fd5b611388811115611057576040517f08c379a000000000000000000000000000000000000000000000000000000000815260040161104e90614dbb565b60405180910390fd5b8060038190555050565b6000600280549050905090565b600061107982613200565b6110b8576040517f08c379a00000000000000000000000000000000000000000000000000000000081526004016110af90614b5b565b60405180910390fd5b600282815481106110f2577f4e487b7100000000000000000000000000000000000000000000000000000000600052603260045260246000fd5b906000526020600020906008020160060160009054906101000a900473ffffffffffffffffffffffffffffffffffffffff169050919050565b60026001541415611171576040517f08c379a000000000000000000000000000000000000000000000000000000000815260040161116890614e1b565b60405180910390fd5b60026001819055506000600282815481106111b5577f4e487b7100000000000000000000000000000000000000000000000000000000600052603260045260246000fd5b90600052602060002090600802019050600073ffffffffffffffffffffffffffffffffffffffff168160020160009054906101000a900473ffffffffffffffffffffffffffffffffffffffff1673ffffffffffffffffffffffffffffffffffffffff161415611259576040517f08c379a000000000000000000000000000000000000000000000000000000000815260040161125090614c7b565b60405180910390fd5b61126282612440565b6112a1576040517f08c379a000000000000000000000000000000000000000000000000000000000815260040161129890614c1b565b60405180910390fd5b806005015434116112e7576040517f08c379a00000000000000000000000000000000000000000000000000000000081526004016112de90614b7b565b60405180910390fd5b600081600501541415801561134d5750600073ffffffffffffffffffffffffffffffffffffffff168160060160009054906101000a900473ffffffffffffffffffffffffffffffffffffffff1673ffffffffffffffffffffffffffffffffffffffff1614155b1561148b5760008160060160009054906101000a900473ffffffffffffffffffffffffffffffffffffffff1673ffffffffffffffffffffffffffffffffffffffff1682600501546040516113a090614935565b60006040518083038185875af1925050503d80600081146113dd576040519150601f19603f3d011682016040523d82523d6000602084013e6113e2565b606091505b5050905080611426576040517f08c379a000000000000000000000000000000000000000000000000000000000815260040161141d90614ddb565b60405180910390fd5b7f972fd66eadedfb87beff023a37f4d8c6a91fdd147fa0d3c036e0c6c5a0cdc795838360060160009054906101000a900473ffffffffffffffffffffffffffffffffffffffff16846005015460405161148193929190614eb6565b60405180910390a1505b348160050181905550338160060160006101000a81548173ffffffffffffffffffffffffffffffffffffffff021916908373ffffffffffffffffffffffffffffffffffffffff1602179055506114ef6001826007015461338490919063ffffffff16565b81600701819055507fb8d756f2d1da4663767eb4d559780ace84f2f65a421a60ddcb47e8b2e5d2fd2682333460405161152a93929190614eed565b60405180910390a1506001808190555050565b6000806002838154811061157a577f4e487b7100000000000000000000000000000000000000000000000000000000600052603260045260246000fd5b906000526020600020906008020190506115a58160040154826003015461338490919063ffffffff16565b915050919050565b6115b561337c565b73ffffffffffffffffffffffffffffffffffffffff166115d36125d6565b73ffffffffffffffffffffffffffffffffffffffff1614611629576040517f08c379a000000000000000000000000000000000000000000000000000000000815260040161162090614d3b565b60405180910390fd5b6002600154141561166f576040517f08c379a000000000000000000000000000000000000000000000000000000000815260040161166690614e1b565b60405180910390fd5b60026001819055506000600660008381526020019081526020016000206040518060e00160405290816000820160009054906101000a900473ffffffffffffffffffffffffffffffffffffffff1673ffffffffffffffffffffffffffffffffffffffff1673ffffffffffffffffffffffffffffffffffffffff168152602001600182015481526020016002820160009054906101000a900473ffffffffffffffffffffffffffffffffffffffff1673ffffffffffffffffffffffffffffffffffffffff1673ffffffffffffffffffffffffffffffffffffffff168152602001600382015481526020016004820160009054906101000a900460ff161515151581526020016004820160019054906101000a900460ff1615151515815260200160058201548152505090508060a001516117dd576040517f08c379a00000000000000000000000000000000000000000000000000000000081526004016117d490614d1b565b60405180910390fd5b600060028260c001518154811061181d577f4e487b7100000000000000000000000000000000000000000000000000000000600052603260045260246000fd5b9060005260206000209060080201604051806101000160405290816000820160009054906101000a900473ffffffffffffffffffffffffffffffffffffffff1673ffffffffffffffffffffffffffffffffffffffff1673ffffffffffffffffffffffffffffffffffffffff168152602001600182015481526020016002820160009054906101000a900473ffffffffffffffffffffffffffffffffffffffff1673ffffffffffffffffffffffffffffffffffffffff1673ffffffffffffffffffffffffffffffffffffffff1681526020016003820154815260200160048201548152602001600582015481526020016006820160009054906101000a900473ffffffffffffffffffffffffffffffffffffffff1673ffffffffffffffffffffffffffffffffffffffff1673ffffffffffffffffffffffffffffffffffffffff1681526020016007820154815250509050611977828261339a565b60008260a0019015159081151581525050816006600085815260200190815260200160002060008201518160000160006101000a81548173ffffffffffffffffffffffffffffffffffffffff021916908373ffffffffffffffffffffffffffffffffffffffff1602179055506020820151816001015560408201518160020160006101000a81548173ffffffffffffffffffffffffffffffffffffffff021916908373ffffffffffffffffffffffffffffffffffffffff1602179055506060820151816003015560808201518160040160006101000a81548160ff02191690831515021790555060a08201518160040160016101000a81548160ff02191690831515021790555060c0820151816005015590505050506001808190555050565b611a9f61337c565b73ffffffffffffffffffffffffffffffffffffffff16611abd6125d6565b73ffffffffffffffffffffffffffffffffffffffff1614611b13576040517f08c379a0000000000000000000000000000000000000000000000000000000008152600401611b0a90614d3b565b60405180910390fd5b611b1c816135ea565b50565b60028181548110611b2f57600080fd5b90600052602060002090600802016000915090508060000160009054906101000a900473ffffffffffffffffffffffffffffffffffffffff16908060010154908060020160009054906101000a900473ffffffffffffffffffffffffffffffffffffffff16908060030154908060040154908060050154908060060160009054906101000a900473ffffffffffffffffffffffffffffffffffffffff16908060070154905088565b60008060028381548110611c14577f4e487b7100000000000000000000000000000000000000000000000000000000600052603260045260246000fd5b906000526020600020906008020190508060030154421015611c3a576000915050611c6c565b611c558160040154826003015461338490919063ffffffff16565b421015611c66576001915050611c6c565b60029150505b919050565b60055481565b600060028281548110611cb3577f4e487b7100000000000000000000000000000000000000000000000000000000600052603260045260246000fd5b9060005260206000209060080201600501549050919050565b60026001541415611d12576040517f08c379a0000000000000000000000000000000000000000000000000000000008152600401611d0990614e1b565b60405180910390fd5b6002600181905550611d2261337c565b73ffffffffffffffffffffffffffffffffffffffff16611d406125d6565b73ffffffffffffffffffffffffffffffffffffffff1614611d96576040517f08c379a0000000000000000000000000000000000000000000000000000000008152600401611d8d90614d3b565b60405180910390fd5b600033905060008173ffffffffffffffffffffffffffffffffffffffff16600454604051611dc390614935565b60006040518083038185875af1925050503d8060008114611e00576040519150601f19603f3d011682016040523d82523d6000602084013e611e05565b606091505b5050905080611e49576040517f08c379a0000000000000000000000000000000000000000000000000000000008152600401611e4090614ddb565b60405180910390fd5b6000600481905550505060018081905550565b611e6461337c565b73ffffffffffffffffffffffffffffffffffffffff16611e826125d6565b73ffffffffffffffffffffffffffffffffffffffff1614611ed8576040517f08c379a0000000000000000000000000000000000000000000000000000000008152600401611ecf90614d3b565b60405180910390fd5b611ee2600061408e565b565b600060028281548110611f20577f4e487b7100000000000000000000000000000000000000000000000000000000600052603260045260246000fd5b9060005260206000209060080201600701549050919050565b60008890503373ffffffffffffffffffffffffffffffffffffffff168173ffffffffffffffffffffffffffffffffffffffff16636352211e8a6040518263ffffffff1660e01b8152600401611f8e9190614e3b565b60206040518083038186803b158015611fa657600080fd5b505afa158015611fba573d6000803e3d6000fd5b505050506040513d601f19601f82011682018060405250810190611fde9190614443565b73ffffffffffffffffffffffffffffffffffffffff1614612034576040517f08c379a000000000000000000000000000000000000000000000000000000000815260040161202b90614cbb565b60405180910390fd5b3073ffffffffffffffffffffffffffffffffffffffff168173ffffffffffffffffffffffffffffffffffffffff1663081812fc8a6040518263ffffffff1660e01b81526004016120849190614e3b565b60206040518083038186803b15801561209c57600080fd5b505afa1580156120b0573d6000803e3d6000fd5b505050506040513d601f19601f820116820180604052508101906120d49190614443565b73ffffffffffffffffffffffffffffffffffffffff161461212a576040517f08c379a000000000000000000000000000000000000000000000000000000000815260040161212190614dfb565b60405180910390fd5b6000600660008a81526020019081526020016000206040518060e00160405290816000820160009054906101000a900473ffffffffffffffffffffffffffffffffffffffff1673ffffffffffffffffffffffffffffffffffffffff1673ffffffffffffffffffffffffffffffffffffffff168152602001600182015481526020016002820160009054906101000a900473ffffffffffffffffffffffffffffffffffffffff1673ffffffffffffffffffffffffffffffffffffffff1673ffffffffffffffffffffffffffffffffffffffff168152602001600382015481526020016004820160009054906101000a900460ff161515151581526020016004820160019054906101000a900460ff161515151581526020016005820154815250509050600015158160800151151514801561226c5750600015158160a001511515145b6122ab576040517f08c379a00000000000000000000000000000000000000000000000000000000081526004016122a290614c9b565b60405180910390fd5b60006040518060e001604052808c73ffffffffffffffffffffffffffffffffffffffff1681526020018b81526020013373ffffffffffffffffffffffffffffffffffffffff1681526020018881526020018a151581526020018915158152602001600081525090508715612330576123268b8b888888614152565b8160c00181815250505b80600660008c815260200190815260200160002060008201518160000160006101000a81548173ffffffffffffffffffffffffffffffffffffffff021916908373ffffffffffffffffffffffffffffffffffffffff1602179055506020820151816001015560408201518160020160006101000a81548173ffffffffffffffffffffffffffffffffffffffff021916908373ffffffffffffffffffffffffffffffffffffffff1602179055506060820151816003015560808201518160040160006101000a81548160ff02191690831515021790555060a08201518160040160016101000a81548160ff02191690831515021790555060c082015181600501559050505050505050505050505050565b60006001600281111561247c577f4e487b7100000000000000000000000000000000000000000000000000000000600052602160045260246000fd5b61248583611bd7565b60028111156124bd577f4e487b7100000000000000000000000000000000000000000000000000000000600052602160045260246000fd5b149050919050565b600060028281548110612501577f4e487b7100000000000000000000000000000000000000000000000000000000600052603260045260246000fd5b906000526020600020906008020160060160009054906101000a900473ffffffffffffffffffffffffffffffffffffffff169050919050565b60066020528060005260406000206000915090508060000160009054906101000a900473ffffffffffffffffffffffffffffffffffffffff16908060010154908060020160009054906101000a900473ffffffffffffffffffffffffffffffffffffffff16908060030154908060040160009054906101000a900460ff16908060040160019054906101000a900460ff16908060050154905087565b60008060009054906101000a900473ffffffffffffffffffffffffffffffffffffffff16905090565b60045481565b60006126108261106e565b90503373ffffffffffffffffffffffffffffffffffffffff168173ffffffffffffffffffffffffffffffffffffffff1614612680576040517f08c379a000000000000000000000000000000000000000000000000000000000815260040161267790614bfb565b60405180910390fd5b612689826135ea565b5050565b600260015414156126d3576040517f08c379a00000000000000000000000000000000000000000000000000000000081526004016126ca90614e1b565b60405180910390fd5b6002600181905550600033905060003490506000600660008581526020019081526020016000206040518060e00160405290816000820160009054906101000a900473ffffffffffffffffffffffffffffffffffffffff1673ffffffffffffffffffffffffffffffffffffffff1673ffffffffffffffffffffffffffffffffffffffff168152602001600182015481526020016002820160009054906101000a900473ffffffffffffffffffffffffffffffffffffffff1673ffffffffffffffffffffffffffffffffffffffff1673ffffffffffffffffffffffffffffffffffffffff168152602001600382015481526020016004820160009054906101000a900460ff161515151581526020016004820160019054906101000a900460ff161515151581526020016005820154815250509050600115158160800151151514612852576040517f08c379a000000000000000000000000000000000000000000000000000000000815260040161284990614d9b565b60405180910390fd5b6000816060015190508083101561289e576040517f08c379a000000000000000000000000000000000000000000000000000000000815260040161289590614b3b565b60405180910390fd5b600115158260a0015115151480156128bf57506128be8260c00151613200565b5b801561291a5750600060028360c0015181548110612906577f4e487b7100000000000000000000000000000000000000000000000000000000600052603260045260246000fd5b906000526020600020906008020160070154115b1561295a576040517f08c379a000000000000000000000000000000000000000000000000000000000815260040161295190614cdb565b60405180910390fd5b7f35538759d80c1fd7bb450a0d05601db5a99fa8b5d073a07c847a9fd61029b107858560405161298b929190614e56565b60405180910390a16000826000015190508073ffffffffffffffffffffffffffffffffffffffff166342842e0e846040015187896040518463ffffffff1660e01b81526004016129dd93929190614965565b600060405180830381600087803b1580156129f757600080fd5b505af1158015612a0b573d6000803e3d6000fd5b5050505060008173ffffffffffffffffffffffffffffffffffffffff1663d48e638a886040518263ffffffff1660e01b8152600401612a4a9190614e3b565b60206040518083038186803b158015612a6257600080fd5b505afa158015612a76573d6000803e3d6000fd5b505050506040513d601f19601f82011682018060405250810190612a9a9190614443565b90506000612710612ab66003548861438590919063ffffffff16565b612ac09190614f96565b90506000856040015173ffffffffffffffffffffffffffffffffffffffff168373ffffffffffffffffffffffffffffffffffffffff1614612c8c57612710612b998573ffffffffffffffffffffffffffffffffffffffff1663bb3bafd68c6040518263ffffffff1660e01b8152600401612b3a9190614e3b565b60206040518083038186803b158015612b5257600080fd5b505afa158015612b66573d6000803e3d6000fd5b505050506040513d601f19601f82011682018060405250810190612b8a9190614547565b8961438590919063ffffffff16565b612ba39190614f96565b905060008373ffffffffffffffffffffffffffffffffffffffff1682604051612bcb90614935565b60006040518083038185875af1925050503d8060008114612c08576040519150601f19603f3d011682016040523d82523d6000602084013e612c0d565b606091505b5050905080612c51576040517f08c379a0000000000000000000000000000000000000000000000000000000008152600401612c4890614ddb565b60405180910390fd5b7f54b960faf8b038c33ba9912fdb9ac1e8e0096c5f327d1c89e62b5d9c5357ddb68483604051612c8292919061499c565b60405180910390a1505b6000612cb382612ca5858b61439b90919063ffffffff16565b61439b90919063ffffffff16565b90506000876040015173ffffffffffffffffffffffffffffffffffffffff1682604051612cdf90614935565b60006040518083038185875af1925050503d8060008114612d1c576040519150601f19603f3d011682016040523d82523d6000602084013e612d21565b606091505b5050905080612d65576040517f08c379a0000000000000000000000000000000000000000000000000000000008152600401612d5c90614ddb565b60405180910390fd5b7f9a37aa02cc986a4a0c2d22af3dcdb9db27c178f7feed43e7037c783b55ed91ba88604001518386866127106003548f612d9f9190614fc7565b612da99190614f96565b87612db49190614f40565b604051612dc59594939291906149c5565b60405180910390a1600115158860a001511515141561308b57600060028960c0015181548110612e1e577f4e487b7100000000000000000000000000000000000000000000000000000000600052603260045260246000fd5b9060005260206000209060080201604051806101000160405290816000820160009054906101000a900473ffffffffffffffffffffffffffffffffffffffff1673ffffffffffffffffffffffffffffffffffffffff1673ffffffffffffffffffffffffffffffffffffffff168152602001600182015481526020016002820160009054906101000a900473ffffffffffffffffffffffffffffffffffffffff1673ffffffffffffffffffffffffffffffffffffffff1673ffffffffffffffffffffffffffffffffffffffff1681526020016003820154815260200160048201548152602001600582015481526020016006820160009054906101000a900473ffffffffffffffffffffffffffffffffffffffff1673ffffffffffffffffffffffffffffffffffffffff1673ffffffffffffffffffffffffffffffffffffffff168152602001600782015481525050905060008160a0015114158015612f87575060008160e00151115b156130895760008160c0015173ffffffffffffffffffffffffffffffffffffffff168260a00151604051612fba90614935565b60006040518083038185875af1925050503d8060008114612ff7576040519150601f19603f3d011682016040523d82523d6000602084013e612ffc565b606091505b5050905080613040576040517f08c379a000000000000000000000000000000000000000000000000000000000815260040161303790614ddb565b60405180910390fd5b7f972fd66eadedfb87beff023a37f4d8c6a91fdd147fa0d3c036e0c6c5a0cdc7958a60c001518360c001518460a0015160405161307f93929190614eb6565b60405180910390a1505b505b6130a08460045461338490919063ffffffff16565b60048190555060008860a0019015159081151581525050600088608001901515908115158152505087600660008d815260200190815260200160002060008201518160000160006101000a81548173ffffffffffffffffffffffffffffffffffffffff021916908373ffffffffffffffffffffffffffffffffffffffff1602179055506020820151816001015560408201518160020160006101000a81548173ffffffffffffffffffffffffffffffffffffffff021916908373ffffffffffffffffffffffffffffffffffffffff1602179055506060820151816003015560808201518160040160006101000a81548160ff02191690831515021790555060a08201518160040160016101000a81548160ff02191690831515021790555060c082015181600501559050506131e03460055461338490919063ffffffff16565b600581905550505050505050505050506001808190555050565b60035481565b600060028081111561323b577f4e487b7100000000000000000000000000000000000000000000000000000000600052602160045260246000fd5b61324483611bd7565b600281111561327c577f4e487b7100000000000000000000000000000000000000000000000000000000600052602160045260246000fd5b149050919050565b61328c61337c565b73ffffffffffffffffffffffffffffffffffffffff166132aa6125d6565b73ffffffffffffffffffffffffffffffffffffffff1614613300576040517f08c379a00000000000000000000000000000000000000000000000000000000081526004016132f790614d3b565b60405180910390fd5b600073ffffffffffffffffffffffffffffffffffffffff168173ffffffffffffffffffffffffffffffffffffffff161415613370576040517f08c379a000000000000000000000000000000000000000000000000000000000815260040161336790614bbb565b60405180910390fd5b6133798161408e565b50565b600033905090565b600081836133929190614f40565b905092915050565b8160a001516133de576040517f08c379a00000000000000000000000000000000000000000000000000000000081526004016133d590614d1b565b60405180910390fd5b60008160a00151141580156133f7575060008160e00151115b80156134345750600073ffffffffffffffffffffffffffffffffffffffff168160c0015173ffffffffffffffffffffffffffffffffffffffff1614155b613473576040517f08c379a000000000000000000000000000000000000000000000000000000000815260040161346a90614cfb565b60405180910390fd5b8060c0015173ffffffffffffffffffffffffffffffffffffffff16826040015173ffffffffffffffffffffffffffffffffffffffff1614156134ea576040517f08c379a00000000000000000000000000000000000000000000000000000000081526004016134e190614b9b565b60405180910390fd5b60008160c0015173ffffffffffffffffffffffffffffffffffffffff168260a0015160405161351890614935565b60006040518083038185875af1925050503d8060008114613555576040519150601f19603f3d011682016040523d82523d6000602084013e61355a565b606091505b505090508061359e576040517f08c379a000000000000000000000000000000000000000000000000000000000815260040161359590614ddb565b60405180910390fd5b7f972fd66eadedfb87beff023a37f4d8c6a91fdd147fa0d3c036e0c6c5a0cdc7958360c001518360c001518460a001516040516135dd93929190614eb6565b60405180910390a1505050565b60026001541415613630576040517f08c379a000000000000000000000000000000000000000000000000000000000815260040161362790614e1b565b60405180910390fd5b600260018190555061364181613200565b613680576040517f08c379a000000000000000000000000000000000000000000000000000000000815260040161367790614d7b565b60405180910390fd5b6000600282815481106136bc577f4e487b7100000000000000000000000000000000000000000000000000000000600052603260045260246000fd5b9060005260206000209060080201905060006136d78361106e565b9050600060066000846001015481526020019081526020016000206040518060e00160405290816000820160009054906101000a900473ffffffffffffffffffffffffffffffffffffffff1673ffffffffffffffffffffffffffffffffffffffff1673ffffffffffffffffffffffffffffffffffffffff168152602001600182015481526020016002820160009054906101000a900473ffffffffffffffffffffffffffffffffffffffff1673ffffffffffffffffffffffffffffffffffffffff1673ffffffffffffffffffffffffffffffffffffffff168152602001600382015481526020016004820160009054906101000a900460ff161515151581526020016004820160019054906101000a900460ff161515151581526020016005820154815250509050600115158160a0015115151461384a576040517f08c379a000000000000000000000000000000000000000000000000000000000815260040161384190614d5b565b60405180910390fd5b60008360000160009054906101000a900473ffffffffffffffffffffffffffffffffffffffff1690503073ffffffffffffffffffffffffffffffffffffffff168173ffffffffffffffffffffffffffffffffffffffff1663081812fc86600101546040518263ffffffff1660e01b81526004016138c79190614e3b565b60206040518083038186803b1580156138df57600080fd5b505afa1580156138f3573d6000803e3d6000fd5b505050506040513d601f19601f820116820180604052508101906139179190614443565b73ffffffffffffffffffffffffffffffffffffffff161461396d576040517f08c379a000000000000000000000000000000000000000000000000000000000815260040161396490614dfb565b60405180910390fd5b8360020160009054906101000a900473ffffffffffffffffffffffffffffffffffffffff1673ffffffffffffffffffffffffffffffffffffffff168173ffffffffffffffffffffffffffffffffffffffff16636352211e86600101546040518263ffffffff1660e01b81526004016139e59190614e3b565b60206040518083038186803b1580156139fd57600080fd5b505afa158015613a11573d6000803e3d6000fd5b505050506040513d601f19601f82011682018060405250810190613a359190614443565b73ffffffffffffffffffffffffffffffffffffffff1614613a8b576040517f08c379a0000000000000000000000000000000000000000000000000000000008152600401613a8290614c3b565b60405180910390fd5b8073ffffffffffffffffffffffffffffffffffffffff166342842e0e8560020160009054906101000a900473ffffffffffffffffffffffffffffffffffffffff168587600101546040518463ffffffff1660e01b8152600401613af093929190614965565b600060405180830381600087803b158015613b0a57600080fd5b505af1158015613b1e573d6000803e3d6000fd5b505050507f35538759d80c1fd7bb450a0d05601db5a99fa8b5d073a07c847a9fd61029b1078584604051613b53929190614e56565b60405180910390a160008173ffffffffffffffffffffffffffffffffffffffff1663d48e638a86600101546040518263ffffffff1660e01b8152600401613b9a9190614e3b565b60206040518083038186803b158015613bb257600080fd5b505afa158015613bc6573d6000803e3d6000fd5b505050506040513d601f19601f82011682018060405250810190613bea9190614443565b90506000612710613c0a600354886005015461438590919063ffffffff16565b613c149190614f96565b905060008660020160009054906101000a900473ffffffffffffffffffffffffffffffffffffffff1673ffffffffffffffffffffffffffffffffffffffff168373ffffffffffffffffffffffffffffffffffffffff1614613da257612710613d158573ffffffffffffffffffffffffffffffffffffffff1663bb3bafd68a600101546040518263ffffffff1660e01b8152600401613cb29190614e3b565b60206040518083038186803b158015613cca57600080fd5b505afa158015613cde573d6000803e3d6000fd5b505050506040513d601f19601f82011682018060405250810190613d029190614547565b896005015461438590919063ffffffff16565b613d1f9190614f96565b90508273ffffffffffffffffffffffffffffffffffffffff166108fc829081150290604051600060405180830381858888f19350505050158015613d67573d6000803e3d6000fd5b507f54b960faf8b038c33ba9912fdb9ac1e8e0096c5f327d1c89e62b5d9c5357ddb68382604051613d9992919061499c565b60405180910390a15b6000613dcd82613dbf858b6005015461439b90919063ffffffff16565b61439b90919063ffffffff16565b905060008860020160009054906101000a900473ffffffffffffffffffffffffffffffffffffffff1673ffffffffffffffffffffffffffffffffffffffff1682604051613e1990614935565b60006040518083038185875af1925050503d8060008114613e56576040519150601f19603f3d011682016040523d82523d6000602084013e613e5b565b606091505b5050905080613e9f576040517f08c379a0000000000000000000000000000000000000000000000000000000008152600401613e9690614ddb565b60405180910390fd5b7f9a37aa02cc986a4a0c2d22af3dcdb9db27c178f7feed43e7037c783b55ed91ba8960020160009054906101000a900473ffffffffffffffffffffffffffffffffffffffff16838686878988613ef59190614f40565b613eff9190614f40565b604051613f109594939291906149c5565b60405180910390a1613f2d8460045461338490919063ffffffff16565b600481905550613f4c896005015460055461338490919063ffffffff16565b60058190555060008760a0019015159081151581525050600087608001901515908115158152505086600660008b60010154815260200190815260200160002060008201518160000160006101000a81548173ffffffffffffffffffffffffffffffffffffffff021916908373ffffffffffffffffffffffffffffffffffffffff1602179055506020820151816001015560408201518160020160006101000a81548173ffffffffffffffffffffffffffffffffffffffff021916908373ffffffffffffffffffffffffffffffffffffffff1602179055506060820151816003015560808201518160040160006101000a81548160ff02191690831515021790555060a08201518160040160016101000a81548160ff02191690831515021790555060c082015181600501559050505050505050505050506001808190555050565b60008060009054906101000a900473ffffffffffffffffffffffffffffffffffffffff169050816000806101000a81548173ffffffffffffffffffffffffffffffffffffffff021916908373ffffffffffffffffffffffffffffffffffffffff1602179055508173ffffffffffffffffffffffffffffffffffffffff168173ffffffffffffffffffffffffffffffffffffffff167f8be0079c531659141344cd1fd0a4f28419497f9722a3daafe3b4186f6b6457e060405160405180910390a35050565b600080831415614160574292505b60006040518061010001604052808873ffffffffffffffffffffffffffffffffffffffff1681526020018781526020013373ffffffffffffffffffffffffffffffffffffffff168152602001858152602001848152602001868152602001600073ffffffffffffffffffffffffffffffffffffffff16815260200160008152509050600281908060018154018082558091505060019003906000526020600020906008020160009091909190915060008201518160000160006101000a81548173ffffffffffffffffffffffffffffffffffffffff021916908373ffffffffffffffffffffffffffffffffffffffff1602179055506020820151816001015560408201518160020160006101000a81548173ffffffffffffffffffffffffffffffffffffffff021916908373ffffffffffffffffffffffffffffffffffffffff160217905550606082015181600301556080820151816004015560a0820151816005015560c08201518160060160006101000a81548173ffffffffffffffffffffffffffffffffffffffff021916908373ffffffffffffffffffffffffffffffffffffffff16021790555060e0820151816007015550506000614332600160028054905061439b90919063ffffffff16565b90507f512995dd21f4740d4aba0bdfb032eb8fdad6034f857101e2217bef00c285015f818360400151846000015160405161436f93929190614e7f565b60405180910390a1809250505095945050505050565b600081836143939190614fc7565b905092915050565b600081836143a99190615021565b905092915050565b6000813590506143c08161561e565b92915050565b6000815190506143d58161561e565b92915050565b6000813590506143ea81615635565b92915050565b6000813590506143ff8161564c565b92915050565b6000815190506144148161564c565b92915050565b60006020828403121561442c57600080fd5b600061443a848285016143b1565b91505092915050565b60006020828403121561445557600080fd5b6000614463848285016143c6565b91505092915050565b600080600080600080600080610100898b03121561448957600080fd5b60006144978b828c016143b1565b98505060206144a88b828c016143f0565b97505060406144b98b828c016143db565b96505060606144ca8b828c016143db565b95505060806144db8b828c016143f0565b94505060a06144ec8b828c016143f0565b93505060c06144fd8b828c016143f0565b92505060e061450e8b828c016143f0565b9150509295985092959890939650565b60006020828403121561453057600080fd5b600061453e848285016143f0565b91505092915050565b60006020828403121561455957600080fd5b600061456784828501614405565b91505092915050565b614579816150c2565b82525050565b61458881615067565b82525050565b61459781615055565b82525050565b6145a681615079565b82525050565b6145b5816150d4565b82525050565b60006145c8601383614f2f565b91506145d382615197565b602082019050919050565b60006145eb601883614f2f565b91506145f6826151c0565b602082019050919050565b600061460e600b83614f2f565b9150614619826151e9565b602082019050919050565b6000614631602583614f2f565b915061463c82615212565b604082019050919050565b6000614654602683614f2f565b915061465f82615261565b604082019050919050565b6000614677600d83614f2f565b9150614682826152b0565b602082019050919050565b600061469a602583614f2f565b91506146a5826152d9565b604082019050919050565b60006146bd600e83614f2f565b91506146c882615328565b602082019050919050565b60006146e0602083614f2f565b91506146eb82615351565b602082019050919050565b6000614703601583614f2f565b915061470e8261537a565b602082019050919050565b6000614726601c83614f2f565b9150614731826153a3565b602082019050919050565b6000614749601e83614f2f565b9150614754826153cc565b602082019050919050565b600061476c600d83614f2f565b9150614777826153f5565b602082019050919050565b600061478f602583614f2f565b915061479a8261541e565b604082019050919050565b60006147b2600b83614f2f565b91506147bd8261546d565b602082019050919050565b60006147d5601783614f2f565b91506147e082615496565b602082019050919050565b60006147f8602083614f2f565b9150614803826154bf565b602082019050919050565b600061481b601283614f2f565b9150614826826154e8565b602082019050919050565b600061483e601b83614f2f565b915061484982615511565b602082019050919050565b6000614861601683614f2f565b915061486c8261553a565b602082019050919050565b6000614884601383614f2f565b915061488f82615563565b602082019050919050565b60006148a7600083614f24565b91506148b28261558c565b600082019050919050565b60006148ca601083614f2f565b91506148d58261558f565b602082019050919050565b60006148ed601083614f2f565b91506148f8826155b8565b602082019050919050565b6000614910601f83614f2f565b915061491b826155e1565b602082019050919050565b61492f816150b8565b82525050565b60006149408261489a565b9150819050919050565b600060208201905061495f600083018461458e565b92915050565b600060608201905061497a6000830186614570565b614987602083018561458e565b6149946040830184614926565b949350505050565b60006040820190506149b16000830185614570565b6149be6020830184614926565b9392505050565b600060a0820190506149da6000830188614570565b6149e76020830187614926565b6149f46040830186614926565b614a016060830185614926565b614a0e6080830184614926565b9695505050505050565b600060e082019050614a2d600083018a61458e565b614a3a6020830189614926565b614a47604083018861457f565b614a546060830187614926565b614a61608083018661459d565b614a6e60a083018561459d565b614a7b60c0830184614926565b98975050505050505050565b600061010082019050614a9d600083018b61458e565b614aaa602083018a614926565b614ab7604083018961457f565b614ac46060830188614926565b614ad16080830187614926565b614ade60a0830186614926565b614aeb60c083018561457f565b614af860e0830184614926565b9998505050505050505050565b6000602082019050614b1a600083018461459d565b92915050565b6000602082019050614b3560008301846145ac565b92915050565b60006020820190508181036000830152614b54816145bb565b9050919050565b60006020820190508181036000830152614b74816145de565b9050919050565b60006020820190508181036000830152614b9481614601565b9050919050565b60006020820190508181036000830152614bb481614624565b9050919050565b60006020820190508181036000830152614bd481614647565b9050919050565b60006020820190508181036000830152614bf48161466a565b9050919050565b60006020820190508181036000830152614c148161468d565b9050919050565b60006020820190508181036000830152614c34816146b0565b9050919050565b60006020820190508181036000830152614c54816146d3565b9050919050565b60006020820190508181036000830152614c74816146f6565b9050919050565b60006020820190508181036000830152614c9481614719565b9050919050565b60006020820190508181036000830152614cb48161473c565b9050919050565b60006020820190508181036000830152614cd48161475f565b9050919050565b60006020820190508181036000830152614cf481614782565b9050919050565b60006020820190508181036000830152614d14816147a5565b9050919050565b60006020820190508181036000830152614d34816147c8565b9050919050565b60006020820190508181036000830152614d54816147eb565b9050919050565b60006020820190508181036000830152614d748161480e565b9050919050565b60006020820190508181036000830152614d9481614831565b9050919050565b60006020820190508181036000830152614db481614854565b9050919050565b60006020820190508181036000830152614dd481614877565b9050919050565b60006020820190508181036000830152614df4816148bd565b9050919050565b60006020820190508181036000830152614e14816148e0565b9050919050565b60006020820190508181036000830152614e3481614903565b9050919050565b6000602082019050614e506000830184614926565b92915050565b6000604082019050614e6b6000830185614926565b614e78602083018461458e565b9392505050565b6000606082019050614e946000830186614926565b614ea16020830185614570565b614eae604083018461458e565b949350505050565b6000606082019050614ecb6000830186614926565b614ed86020830185614570565b614ee56040830184614926565b949350505050565b6000606082019050614f026000830186614926565b614f0f602083018561458e565b614f1c6040830184614926565b949350505050565b600081905092915050565b600082825260208201905092915050565b6000614f4b826150b8565b9150614f56836150b8565b9250827fffffffffffffffffffffffffffffffffffffffffffffffffffffffffffffffff03821115614f8b57614f8a61510a565b5b828201905092915050565b6000614fa1826150b8565b9150614fac836150b8565b925082614fbc57614fbb615139565b5b828204905092915050565b6000614fd2826150b8565b9150614fdd836150b8565b9250817fffffffffffffffffffffffffffffffffffffffffffffffffffffffffffffffff04831182151516156150165761501561510a565b5b828202905092915050565b600061502c826150b8565b9150615037836150b8565b92508282101561504a5761504961510a565b5b828203905092915050565b600061506082615098565b9050919050565b600061507282615098565b9050919050565b60008115159050919050565b60008190506150938261560a565b919050565b600073ffffffffffffffffffffffffffffffffffffffff82169050919050565b6000819050919050565b60006150cd826150e6565b9050919050565b60006150df82615085565b9050919050565b60006150f1826150f8565b9050919050565b600061510382615098565b9050919050565b7f4e487b7100000000000000000000000000000000000000000000000000000000600052601160045260246000fd5b7f4e487b7100000000000000000000000000000000000000000000000000000000600052601260045260246000fd5b7f4e487b7100000000000000000000000000000000000000000000000000000000600052602160045260246000fd5b7f5072696365206973206e6f7420656e6f75676800000000000000000000000000600082015250565b7f41756374696f6e206e6f742066696e6973686564207965740000000000000000600082015250565b7f42696420746f6f206c6f77000000000000000000000000000000000000000000600082015250565b7f4f66666572206f776e65722063616e6e6f74207265747269657665206f776e2060008201527f66756e6473000000000000000000000000000000000000000000000000000000602082015250565b7f4f776e61626c653a206e6577206f776e657220697320746865207a65726f206160008201527f6464726573730000000000000000000000000000000000000000000000000000602082015250565b7f42696473206578697374696e6700000000000000000000000000000000000000600082015250565b7f596f7520617265206e6f74207468652077696e6e6572206f662074686520617560008201527f6374696f6e000000000000000000000000000000000000000000000000000000602082015250565b7f426964206e6f7420616374697665000000000000000000000000000000000000600082015250565b7f41756374696f6e2063726561746f72206973206e6f74206e6674206f776e6572600082015250565b7f596f7520617265206e6f7420746865206f776e65720000000000000000000000600082015250565b7f43616e6e6f74206269642e204572726f7220696e2061756374696f6e00000000600082015250565b7f416e20616374697665206f6666657220616c7265616479206578697374730000600082015250565b7f4e6f7420746865206f776e657200000000000000000000000000000000000000600082015250565b7f436c61696d2061737365742066726f6d2061756374696f6e206861732070726960008201527f6f72697479000000000000000000000000000000000000000000000000000000602082015250565b7f4e6f206269647320796574000000000000000000000000000000000000000000600082015250565b7f4f66666572206973206e6f7420616e2061756374696f6e000000000000000000600082015250565b7f4f776e61626c653a2063616c6c6572206973206e6f7420746865206f776e6572600082015250565b7f4e4654206e6f7420696e2061756374696f6e0000000000000000000000000000600082015250565b7f5468652061756374696f6e206973207374696c6c206163746976650000000000600082015250565b7f4e4654206e6f7420696e206469726563742073616c6500000000000000000000600082015250565b7f436f6d6d697373696f6e20746f6f206869676800000000000000000000000000600082015250565b50565b7f5472616e73666572206661696c65642e00000000000000000000000000000000600082015250565b7f4e4654206e6f7420617070726f76656400000000000000000000000000000000600082015250565b7f5265656e7472616e637947756172643a207265656e7472616e742063616c6c00600082015250565b6003811061561b5761561a615168565b5b50565b61562781615055565b811461563257600080fd5b50565b61563e81615079565b811461564957600080fd5b50565b615655816150b8565b811461566057600080fd5b5056fea2646970667358221220458861c931ed40502677104af6227e2bd8586725fb6958edf6dfe91c1c9e327e64736f6c63430008040033",
  "immutableReferences": {},
  "source": "// SPDX-License-Identifier: UNLICENSED\r\npragma solidity 0.8.4;\r\n\r\n//import \"./AddressUtils.sol\";\r\nimport \"@openzeppelin/contracts/token/ERC721/ERC721.sol\";\r\nimport \"@openzeppelin/contracts/access/Ownable.sol\";\r\nimport \"./PumlNFT.sol\";\r\nimport \"@openzeppelin/contracts/utils/math/SafeMath.sol\";\r\nimport \"@openzeppelin/contracts/security/ReentrancyGuard.sol\";\r\n\r\ncontract Engine is Ownable, ReentrancyGuard {\r\n    using SafeMath for uint256;\r\n\r\n    // Event triggered when an auction is created\r\n    event AuctionCreated(uint256 _index, address _creator, address _asset);\r\n    // Event triggered when an auction receives a bid\r\n    event AuctionBid(uint256 _index, address _bidder, uint256 amount);\r\n    // Event triggered when an ended auction winner claims the NFT\r\n    event Claim(uint256 auctionIndex, address claimer);\r\n    // Event triggered when an auction received a bid that implies sending funds back to previous best bidder\r\n    event ReturnBidFunds(uint256 _index, address _bidder, uint256 amount);\r\n    // Event triggered when a royalties payment is generated, either on direct sales or on auctions\r\n    event Royalties(address receiver, uint256 amount);\r\n    // Event triggered when a payment to the owner is generated, either on direct sales or on auctions.assetAddress\r\n    // This event is useful to check that all the payments funds are the right ones.\r\n    event PaymentToOwner(\r\n        address receiver,\r\n        uint256 amount,\r\n        //    uint256 paidByCustomer,\r\n        uint256 commission,\r\n        uint256 royalties,\r\n        uint256 safetyCheckValue\r\n    );\r\n\r\n    // Status of an auction, calculated using the start date, the duration and the current timeblock\r\n    enum Status {\r\n        pending,\r\n        active,\r\n        finished\r\n    }\r\n    // Data of an auction\r\n    struct Auction {\r\n        address assetAddress; // token address\r\n        uint256 assetId; // token id\r\n        address payable creator; // creator of the auction, which is the token owner\r\n        uint256 startTime; // time (unix, in seconds) where the auction will start\r\n        uint256 duration; // duration in seconds of the auction\r\n        uint256 currentBidAmount; // amount in ETH of the current bid amount\r\n        address payable currentBidOwner; // address of the user who places the best bid\r\n        uint256 bidCount; // number of bids of the auction\r\n    }\r\n    Auction[] public auctions;\r\n\r\n    uint256 public commission = 0; // this is the commission in basic points that will charge the marketplace by default.\r\n    uint256 public accumulatedCommission = 0; // this is the amount in ETH accumulated on marketplace wallet\r\n    uint256 public totalSales = 0;\r\n\r\n    struct Offer {\r\n        address assetAddress; // address of the token\r\n        uint256 tokenId; // the tokenId returned when calling \"createItem\"\r\n        address payable creator; // who creates the offer\r\n        uint256 price; // price of each token\r\n        bool isOnSale; // is on sale or not\r\n        bool isAuction; // is this offer is for an auction\r\n        uint256 idAuction; // the id of the auction\r\n    }\r\n    mapping(uint256 => Offer) public offers;\r\n\r\n    // Every time a token is put on sale, an offer is created. An offer can be a direct sale, an auction\r\n    // or a combination of both.\r\n    function createOffer(\r\n        address _assetAddress, // address of the token\r\n        uint256 _tokenId, // tokenId\r\n        bool _isDirectSale, // true if can be bought on a direct sale\r\n        bool _isAuction, // true if can be bought in an auction\r\n        uint256 _price, // price that if paid in a direct sale, transfers the NFT\r\n        uint256 _startPrice, // minimum price on the auction\r\n        uint256 _startTime, // time when the auction will start. Check the format with frontend\r\n        uint256 _duration // duration in seconds of the auction\r\n    ) public {\r\n        ERC721 asset = ERC721(_assetAddress);\r\n        require(asset.ownerOf(_tokenId) == msg.sender, \"Not the owner\");\r\n        require(\r\n            asset.getApproved(_tokenId) == address(this),\r\n            \"NFT not approved\"\r\n        );\r\n        // Could not be used to update an existing offer (#02)\r\n        Offer memory previous = offers[_tokenId];\r\n        require(\r\n            previous.isOnSale == false && previous.isAuction == false,\r\n            \"An active offer already exists\"\r\n        );\r\n\r\n        // First create the offer\r\n        Offer memory offer = Offer({\r\n            assetAddress: _assetAddress,\r\n            tokenId: _tokenId,\r\n            creator: payable(msg.sender),\r\n            price: _price,\r\n            isOnSale: _isDirectSale,\r\n            isAuction: _isAuction,\r\n            idAuction: 0\r\n        });\r\n        // only if the offer has the \"is_auction\" flag, add the auction to the list\r\n        if (_isAuction) {\r\n            offer.idAuction = createAuction(\r\n                _assetAddress,\r\n                _tokenId,\r\n                _startPrice,\r\n                _startTime,\r\n                _duration\r\n            );\r\n        }\r\n        offers[_tokenId] = offer;\r\n    }\r\n\r\n    // returns the auctionId from the offerId\r\n    function getAuctionId(uint256 _tokenId) public view returns (uint256) {\r\n        Offer memory offer = offers[_tokenId];\r\n        return offer.idAuction;\r\n    }\r\n\r\n    // this method returns the current date and time of the blockchain. Used also to check the contract is alive\r\n    function ahora() public view returns (uint256) {\r\n        return block.timestamp;\r\n    }\r\n\r\n    // Remove an auction from the offer that did not have previous bids. Beware could be a direct sale\r\n    function removeFromAuction(uint256 _tokenId) public {\r\n        Offer memory offer = offers[_tokenId];\r\n        require(msg.sender == offer.creator, \"You are not the owner\");\r\n        Auction memory auction = auctions[offer.tokenId];\r\n        require(auction.bidCount == 0, \"Bids existing\");\r\n        offer.isAuction = false;\r\n        offer.idAuction = 0;\r\n        offers[_tokenId] = offer;\r\n    }\r\n\r\n    // remove a direct sale from an offer. Beware that could be an auction for the token\r\n    function removeFromSale(uint256 _tokenId) public {\r\n        Offer memory offer = offers[_tokenId];\r\n        require(msg.sender == offer.creator, \"You are not the owner\");\r\n        offer.isOnSale = false;\r\n        offers[_tokenId] = offer;\r\n    }\r\n\r\n    // Changes the default commission. Only the owner of the marketplace can do that. In basic points\r\n    function setCommission(uint256 _commission) public onlyOwner {\r\n        require(_commission <= 5000, \"Commission too high\");\r\n        commission = _commission;\r\n    }\r\n\r\n    // called in a direct sale by the customer. Transfer the nft to the customer, the royalties (if any)\r\n    // to the token creator, the commission for the marketplace is keeped on the contract and the remaining\r\n    // funds are transferred to the token owner.\r\n    // is there is an auction open, the last bid amount is sent back to the last bidder\r\n    // After that, the offer is cleared.\r\n    function buy(uint256 _tokenId) external payable nonReentrant {\r\n        address buyer = msg.sender;\r\n        uint256 paidPrice = msg.value;\r\n\r\n        Offer memory offer = offers[_tokenId];\r\n        require(offer.isOnSale == true, \"NFT not in direct sale\");\r\n        uint256 price = offer.price;\r\n        require(paidPrice >= price, \"Price is not enough\");\r\n\r\n        //if there is a bid and the auction is closed but not claimed, give priority to claim\r\n        require(\r\n            !(offer.isAuction == true &&\r\n                isFinished(offer.idAuction) &&\r\n                auctions[offer.idAuction].bidCount > 0),\r\n            \"Claim asset from auction has priority\"\r\n        );\r\n\r\n        emit Claim(_tokenId, buyer);\r\n        PumlNFT asset = PumlNFT(offer.assetAddress);\r\n        asset.safeTransferFrom(offer.creator, buyer, _tokenId);\r\n\r\n        // now, pay the amount - commission - royalties to the auction creator\r\n        address payable creatorNFT = payable(asset.getCreator(_tokenId));\r\n\r\n        uint256 commissionToPay = (paidPrice.mul(commission)) / 10000;\r\n        uint256 royaltiesToPay = 0;\r\n        if (creatorNFT != offer.creator) {\r\n            // It is a resale. Transfer royalties\r\n            royaltiesToPay =\r\n                (paidPrice.mul(asset.getRoyalties(_tokenId))) /\r\n                10000;\r\n\r\n            (bool success, ) = creatorNFT.call{value: royaltiesToPay}(\"\");\r\n            require(success, \"Transfer failed.\");\r\n\r\n            emit Royalties(creatorNFT, royaltiesToPay);\r\n        }\r\n        uint256 amountToPay = paidPrice.sub(commissionToPay).sub(\r\n            royaltiesToPay\r\n        );\r\n\r\n        (bool success2, ) = offer.creator.call{value: amountToPay}(\"\");\r\n        require(success2, \"Transfer failed.\");\r\n        emit PaymentToOwner(\r\n            offer.creator,\r\n            amountToPay,\r\n            //     paidPrice,\r\n            commissionToPay,\r\n            royaltiesToPay,\r\n            amountToPay + ((paidPrice * commission) / 10000) // using safemath will trigger an error because of stack size\r\n        );\r\n\r\n        // is there is an auction open, we have to give back the last bid amount to the last bidder\r\n        if (offer.isAuction == true) {\r\n            Auction memory auction = auctions[offer.idAuction];\r\n            // #4. Only if there is at least a bid and the bid amount > 0, give it back to last bidder\r\n            if (auction.currentBidAmount != 0 && auction.bidCount > 0) {\r\n                // return funds to the previuos bidder\r\n                (bool success3, ) = auction.currentBidOwner.call{\r\n                    value: auction.currentBidAmount\r\n                }(\"\");\r\n                require(success3, \"Transfer failed.\");\r\n                emit ReturnBidFunds(\r\n                    offer.idAuction,\r\n                    auction.currentBidOwner,\r\n                    auction.currentBidAmount\r\n                );\r\n            }\r\n        }\r\n\r\n        accumulatedCommission = accumulatedCommission.add(commissionToPay);\r\n\r\n        offer.isAuction = false;\r\n        offer.isOnSale = false;\r\n        offers[_tokenId] = offer;\r\n\r\n        totalSales = totalSales.add(msg.value);\r\n    }\r\n\r\n    // Creates an auction for a token. It is linked to an offer\r\n    function createAuction(\r\n        address _assetAddress, // address of the PumlNFT token\r\n        uint256 _assetId, // id of the NFT\r\n        uint256 _startPrice, // minimum price\r\n        uint256 _startTime, // time when the auction will start. Check with frontend because is unix time in seconds, not millisecs!\r\n        uint256 _duration // duration in seconds of the auction\r\n    ) private returns (uint256) {\r\n        if (_startTime == 0) {\r\n            _startTime = block.timestamp;\r\n        }\r\n\r\n        Auction memory auction = Auction({\r\n            creator: payable(msg.sender),\r\n            assetAddress: _assetAddress,\r\n            assetId: _assetId,\r\n            startTime: _startTime,\r\n            duration: _duration,\r\n            currentBidAmount: _startPrice,\r\n            currentBidOwner: payable(address(0)),\r\n            bidCount: 0\r\n        });\r\n        auctions.push(auction);\r\n        uint256 index = auctions.length.sub(1);\r\n\r\n        emit AuctionCreated(index, auction.creator, auction.assetAddress);\r\n\r\n        return index;\r\n    }\r\n\r\n    // At the end of the call, the amount is saved on the marketplace wallet and the previous bid amount is returned to old bidder\r\n    // except in the case of the first bid, as could exists a minimum price set by the creator as first bid.\r\n    function bid(uint256 auctionIndex) public payable nonReentrant {\r\n        Auction storage auction = auctions[auctionIndex];\r\n        require(auction.creator != address(0), \"Cannot bid. Error in auction\");\r\n        require(isActive(auctionIndex), \"Bid not active\");\r\n        require(msg.value > auction.currentBidAmount, \"Bid too low\");\r\n        // we got a better bid. Return funds to the previous best bidder\r\n        // and register the sender as `currentBidOwner`\r\n\r\n        // this check is for not transferring back funds on the first bid, as the fist bid is the minimum price set by the auction creator\r\n        // and the bid owner is address(0)\r\n        if (\r\n            auction.currentBidAmount != 0 &&\r\n            auction.currentBidOwner != address(0)\r\n        ) {\r\n            // return funds to the previuos bidder\r\n            (bool success, ) = auction.currentBidOwner.call{\r\n                value: auction.currentBidAmount\r\n            }(\"\");\r\n            require(success, \"Transfer failed.\");\r\n            emit ReturnBidFunds(\r\n                auctionIndex,\r\n                auction.currentBidOwner,\r\n                auction.currentBidAmount\r\n            );\r\n        }\r\n        // register new bidder\r\n        auction.currentBidAmount = msg.value;\r\n        auction.currentBidOwner = payable(msg.sender);\r\n        auction.bidCount = auction.bidCount.add(1);\r\n\r\n        emit AuctionBid(auctionIndex, msg.sender, msg.value);\r\n    }\r\n\r\n    function getTotalAuctions() public view returns (uint256) {\r\n        return auctions.length;\r\n    }\r\n\r\n    function isActive(uint256 _auctionIndex) public view returns (bool) {\r\n        return getStatus(_auctionIndex) == Status.active;\r\n    }\r\n\r\n    function isFinished(uint256 _auctionIndex) public view returns (bool) {\r\n        return getStatus(_auctionIndex) == Status.finished;\r\n    }\r\n\r\n    // The auctions did not be affected if the current time is 15 seconds wrong\r\n    // So, according to Consensys security advices, it is safe using block.timestamp\r\n    function getStatus(uint256 _auctionIndex) public view returns (Status) {\r\n        Auction storage auction = auctions[_auctionIndex];\r\n        if (block.timestamp < auction.startTime) {\r\n            return Status.pending;\r\n        } else if (block.timestamp < auction.startTime.add(auction.duration)) {\r\n            return Status.active;\r\n        } else {\r\n            return Status.finished;\r\n        }\r\n    }\r\n\r\n    // returns the end date of the auction, in unix time using seconds\r\n    function endDate(uint256 _auctionIndex) public view returns (uint256) {\r\n        Auction storage auction = auctions[_auctionIndex];\r\n        return auction.startTime.add(auction.duration);\r\n    }\r\n\r\n    // returns the user with the best bid until now on an auction\r\n    function getCurrentBidOwner(uint256 _auctionIndex)\r\n        public\r\n        view\r\n        returns (address)\r\n    {\r\n        return auctions[_auctionIndex].currentBidOwner;\r\n    }\r\n\r\n    // returns the amount in ETH of the best bid until now on an auction\r\n    function getCurrentBidAmount(uint256 _auctionIndex)\r\n        public\r\n        view\r\n        returns (uint256)\r\n    {\r\n        return auctions[_auctionIndex].currentBidAmount;\r\n    }\r\n\r\n    // returns the number of bids of an auction (0 by default)\r\n    function getBidCount(uint256 _auctionIndex) public view returns (uint256) {\r\n        return auctions[_auctionIndex].bidCount;\r\n    }\r\n\r\n    // returns the winner of an auction once the auction finished\r\n    function getWinner(uint256 auctionIndex) public view returns (address) {\r\n        require(isFinished(auctionIndex), \"Auction not finished yet\");\r\n        return auctions[auctionIndex].currentBidOwner;\r\n    }\r\n\r\n    // called when the auction is finished by the user who won the auction\r\n    // transfer the nft to the caller, the royalties (if any) to the nft creator\r\n    // the commission of the marketplace is calculated, and the remaining funds\r\n    // are transferred to the token owner\r\n    // After this, the offer is disabled\r\n    function claimAsset(uint256 auctionIndex) public {\r\n        address winner = getWinner(auctionIndex);\r\n        require(winner == msg.sender, \"You are not the winner of the auction\");\r\n        auctionTransferAsset(auctionIndex);\r\n    }\r\n\r\n    function automaticSetWinner(uint256 auctionIndex) public onlyOwner {\r\n        auctionTransferAsset(auctionIndex);\r\n    }\r\n\r\n    function auctionTransferAsset(uint256 auctionIndex) private nonReentrant {\r\n        require(isFinished(auctionIndex), \"The auction is still active\");\r\n        Auction storage auction = auctions[auctionIndex];\r\n\r\n        address winner = getWinner(auctionIndex);\r\n\r\n        // the token could be sold in direct sale or the owner cancelled the auction\r\n        Offer memory offer = offers[auction.assetId];\r\n        require(offer.isAuction == true, \"NFT not in auction\");\r\n\r\n        PumlNFT asset = PumlNFT(auction.assetAddress);\r\n\r\n        // #3, check if the asset owner had removed their approval or the offer creator is not the token owner anymore.\r\n        require(\r\n            asset.getApproved(auction.assetId) == address(this),\r\n            \"NFT not approved\"\r\n        );\r\n        require(\r\n            asset.ownerOf(auction.assetId) == auction.creator,\r\n            \"Auction creator is not nft owner\"\r\n        );\r\n\r\n        asset.safeTransferFrom(auction.creator, winner, auction.assetId);\r\n\r\n        emit Claim(auctionIndex, winner);\r\n\r\n        // now, pay the amount - commission - royalties to the auction creator\r\n        address payable creatorNFT = payable(asset.getCreator(auction.assetId));\r\n        uint256 commissionToPay = (auction.currentBidAmount.mul(commission)) /\r\n            10000;\r\n        uint256 royaltiesToPay = 0;\r\n        if (creatorNFT != auction.creator) {\r\n            // It is a resale. Transfer royalties\r\n            royaltiesToPay =\r\n                (\r\n                    auction.currentBidAmount.mul(\r\n                        asset.getRoyalties(auction.assetId)\r\n                    )\r\n                ) /\r\n                10000;\r\n            creatorNFT.transfer(royaltiesToPay);\r\n            emit Royalties(creatorNFT, royaltiesToPay);\r\n        }\r\n        uint256 amountToPay = auction.currentBidAmount.sub(commissionToPay).sub(\r\n            royaltiesToPay\r\n        );\r\n\r\n        (bool success, ) = auction.creator.call{value: amountToPay}(\"\");\r\n        require(success, \"Transfer failed.\");\r\n        emit PaymentToOwner(\r\n            auction.creator,\r\n            amountToPay,\r\n            //  auction.currentBidAmount,\r\n            commissionToPay,\r\n            royaltiesToPay,\r\n            amountToPay + commissionToPay + royaltiesToPay\r\n        );\r\n\r\n        accumulatedCommission = accumulatedCommission.add(commissionToPay);\r\n\r\n        totalSales = totalSales.add(auction.currentBidAmount);\r\n\r\n        offer.isAuction = false;\r\n        offer.isOnSale = false;\r\n        offers[auction.assetId] = offer;\r\n    }\r\n\r\n    //Call this method\r\n    function cancelAuctionOfToken(uint256 _tokenId)\r\n        external\r\n        onlyOwner\r\n        nonReentrant\r\n    {\r\n        Offer memory offer = offers[_tokenId];\r\n        // is there is an auction open, we have to give back the last bid amount to the last bidder\r\n        require(offer.isAuction, \"Offer is not an auction\");\r\n        Auction memory auction = auctions[offer.idAuction];\r\n\r\n        returnLastBid(offer, auction);\r\n\r\n        offer.isAuction = false;\r\n        offers[_tokenId] = offer;\r\n    }\r\n\r\n    function returnLastBid(Offer memory offer, Auction memory auction)\r\n        internal\r\n    {\r\n        // is there is an auction open, we have to give back the last bid amount to the last bidder\r\n        require(offer.isAuction, \"Offer is not an auction\");\r\n        // #4. Only if there is at least a bid and the bid amount > 0, give it back to last bidder\r\n        require(\r\n            auction.currentBidAmount != 0 && auction.bidCount > 0 && auction.currentBidOwner != address(0),\r\n            \"No bids yet\"\r\n        );\r\n        require(offer.creator != auction.currentBidOwner, \"Offer owner cannot retrieve own funds\");\r\n        // return funds to the previuos bidder\r\n        (bool success3, ) = auction.currentBidOwner.call{\r\n            value: auction.currentBidAmount\r\n        }(\"\");\r\n        require(success3, \"Transfer failed.\");\r\n        emit ReturnBidFunds(\r\n            offer.idAuction,\r\n            auction.currentBidOwner,\r\n            auction.currentBidAmount\r\n        );\r\n    }\r\n\r\n    // This method is only callable by the marketplace owner and transfer funds from\r\n    // the marketplace to the caller.\r\n    // It us used to move the funds from the marketplace to the investors\r\n    function extractBalance() public nonReentrant onlyOwner {\r\n        address payable me = payable(msg.sender);\r\n        (bool success, ) = me.call{value: accumulatedCommission}(\"\");\r\n        require(success, \"Transfer failed.\");\r\n        accumulatedCommission = 0;\r\n    }\r\n}\r\n",
  "sourcePath": "/Volumes/Work/work/PUML/ethcontracts/contracts/Engine.sol",
  "compiler": {
    "name": "solc",
    "version": "0.8.4+commit.c7e474f2.Emscripten.clang"
  },
  "schemaVersion": "3.4.3",
  "updatedAt": "2021-11-19T14:49:04.354Z",
  "devdoc": {
    "kind": "dev",
    "methods": {
      "owner()": {
        "details": "Returns the address of the current owner."
      },
      "renounceOwnership()": {
        "details": "Leaves the contract without owner. It will not be possible to call `onlyOwner` functions anymore. Can only be called by the current owner. NOTE: Renouncing ownership will leave the contract without an owner, thereby removing any functionality that is only available to the owner."
      },
      "transferOwnership(address)": {
        "details": "Transfers ownership of the contract to a new account (`newOwner`). Can only be called by the current owner."
      }
    },
    "version": 1
  },
  "userdoc": {
    "kind": "user",
    "methods": {},
    "version": 1
  }
}