{
  "contractName": "Engine",
  "abi": [
    {
      "inputs": [
        {
          "internalType": "address",
          "name": "_stakeAddress",
          "type": "address"
        }
      ],
      "stateMutability": "nonpayable",
      "type": "constructor"
    },
    {
      "anonymous": false,
      "inputs": [
        {
          "indexed": false,
          "internalType": "uint256",
          "name": "_index",
          "type": "uint256"
        },
        {
          "indexed": false,
          "internalType": "address",
          "name": "_bidder",
          "type": "address"
        },
        {
          "indexed": false,
          "internalType": "uint256",
          "name": "amount",
          "type": "uint256"
        }
      ],
      "name": "AuctionBid",
      "type": "event"
    },
    {
      "anonymous": false,
      "inputs": [
        {
          "indexed": false,
          "internalType": "uint256",
          "name": "_auctionId",
          "type": "uint256"
        },
        {
          "indexed": false,
          "internalType": "address",
          "name": "_creator",
          "type": "address"
        },
        {
          "indexed": false,
          "internalType": "uint256",
          "name": "_tokenId",
          "type": "uint256"
        },
        {
          "indexed": false,
          "internalType": "uint256",
          "name": "_startPrice",
          "type": "uint256"
        }
      ],
      "name": "AuctionCreated",
      "type": "event"
    },
    {
      "anonymous": false,
      "inputs": [
        {
          "indexed": false,
          "internalType": "uint256",
          "name": "_index",
          "type": "uint256"
        },
        {
          "indexed": false,
          "internalType": "address",
          "name": "buyer",
          "type": "address"
        },
        {
          "indexed": false,
          "internalType": "uint256",
          "name": "_amount",
          "type": "uint256"
        }
      ],
      "name": "Buy",
      "type": "event"
    },
    {
      "anonymous": false,
      "inputs": [
        {
          "indexed": false,
          "internalType": "uint256",
          "name": "auctionIndex",
          "type": "uint256"
        },
        {
          "indexed": false,
          "internalType": "address",
          "name": "claimer",
          "type": "address"
        }
      ],
      "name": "Claim",
      "type": "event"
    },
    {
      "anonymous": false,
      "inputs": [
        {
          "indexed": false,
          "internalType": "uint256",
          "name": "_tokenId",
          "type": "uint256"
        },
        {
          "indexed": false,
          "internalType": "address",
          "name": "_creator",
          "type": "address"
        },
        {
          "indexed": false,
          "internalType": "address",
          "name": "_asset",
          "type": "address"
        },
        {
          "indexed": false,
          "internalType": "uint256",
          "name": "numCopies",
          "type": "uint256"
        },
        {
          "indexed": false,
          "internalType": "uint256",
          "name": "amount",
          "type": "uint256"
        },
        {
          "indexed": false,
          "internalType": "bool",
          "name": "isSale",
          "type": "bool"
        }
      ],
      "name": "OfferCreated",
      "type": "event"
    },
    {
      "anonymous": false,
      "inputs": [
        {
          "indexed": true,
          "internalType": "address",
          "name": "previousOwner",
          "type": "address"
        },
        {
          "indexed": true,
          "internalType": "address",
          "name": "newOwner",
          "type": "address"
        }
      ],
      "name": "OwnershipTransferred",
      "type": "event"
    },
    {
      "anonymous": false,
      "inputs": [
        {
          "indexed": false,
          "internalType": "address",
          "name": "receiver",
          "type": "address"
        },
        {
          "indexed": false,
          "internalType": "uint256",
          "name": "amount",
          "type": "uint256"
        },
        {
          "indexed": false,
          "internalType": "uint256",
          "name": "commission",
          "type": "uint256"
        },
        {
          "indexed": false,
          "internalType": "uint256",
          "name": "royalties",
          "type": "uint256"
        },
        {
          "indexed": false,
          "internalType": "uint256",
          "name": "safetyCheckValue",
          "type": "uint256"
        }
      ],
      "name": "PaymentToOwner",
      "type": "event"
    },
    {
      "anonymous": false,
      "inputs": [
        {
          "indexed": false,
          "internalType": "uint256",
          "name": "_index",
          "type": "uint256"
        },
        {
          "indexed": false,
          "internalType": "address",
          "name": "_bidder",
          "type": "address"
        },
        {
          "indexed": false,
          "internalType": "uint256",
          "name": "amount",
          "type": "uint256"
        }
      ],
      "name": "ReturnBidFunds",
      "type": "event"
    },
    {
      "anonymous": false,
      "inputs": [
        {
          "indexed": false,
          "internalType": "address",
          "name": "receiver",
          "type": "address"
        },
        {
          "indexed": false,
          "internalType": "uint256",
          "name": "amount",
          "type": "uint256"
        }
      ],
      "name": "Royalties",
      "type": "event"
    },
    {
      "anonymous": false,
      "inputs": [
        {
          "indexed": true,
          "internalType": "address",
          "name": "user",
          "type": "address"
        },
        {
          "indexed": false,
          "internalType": "uint256",
          "name": "amount",
          "type": "uint256"
        },
        {
          "indexed": false,
          "internalType": "uint256[]",
          "name": "tokenIds",
          "type": "uint256[]"
        }
      ],
      "name": "StakedNFT",
      "type": "event"
    },
    {
      "anonymous": false,
      "inputs": [
        {
          "indexed": true,
          "internalType": "address",
          "name": "user",
          "type": "address"
        },
        {
          "indexed": false,
          "internalType": "uint256",
          "name": "amount",
          "type": "uint256"
        },
        {
          "indexed": false,
          "internalType": "uint256[]",
          "name": "tokenIds",
          "type": "uint256[]"
        }
      ],
      "name": "WithdrawnNFT",
      "type": "event"
    },
    {
      "inputs": [],
      "name": "accumulatedCommission",
      "outputs": [
        {
          "internalType": "uint256",
          "name": "",
          "type": "uint256"
        }
      ],
      "stateMutability": "view",
      "type": "function"
    },
    {
      "inputs": [
        {
          "internalType": "uint256",
          "name": "",
          "type": "uint256"
        }
      ],
      "name": "auctions",
      "outputs": [
        {
          "internalType": "address",
          "name": "assetAddress",
          "type": "address"
        },
        {
          "internalType": "uint256",
          "name": "assetId",
          "type": "uint256"
        },
        {
          "internalType": "address payable",
          "name": "creator",
          "type": "address"
        },
        {
          "internalType": "uint256",
          "name": "startTime",
          "type": "uint256"
        },
        {
          "internalType": "uint256",
          "name": "duration",
          "type": "uint256"
        },
        {
          "internalType": "uint256",
          "name": "currentBidAmount",
          "type": "uint256"
        },
        {
          "internalType": "address payable",
          "name": "currentBidOwner",
          "type": "address"
        },
        {
          "internalType": "uint256",
          "name": "bidCount",
          "type": "uint256"
        }
      ],
      "stateMutability": "view",
      "type": "function"
    },
    {
      "inputs": [],
      "name": "commission",
      "outputs": [
        {
          "internalType": "uint256",
          "name": "",
          "type": "uint256"
        }
      ],
      "stateMutability": "view",
      "type": "function"
    },
    {
      "inputs": [
        {
          "internalType": "uint256",
          "name": "",
          "type": "uint256"
        }
      ],
      "name": "offers",
      "outputs": [
        {
          "internalType": "address",
          "name": "assetAddress",
          "type": "address"
        },
        {
          "internalType": "uint256",
          "name": "tokenId",
          "type": "uint256"
        },
        {
          "internalType": "address payable",
          "name": "creator",
          "type": "address"
        },
        {
          "internalType": "uint256",
          "name": "price",
          "type": "uint256"
        },
        {
          "internalType": "bool",
          "name": "isOnSale",
          "type": "bool"
        },
        {
          "internalType": "bool",
          "name": "isAuction",
          "type": "bool"
        },
        {
          "internalType": "uint256",
          "name": "idAuction",
          "type": "uint256"
        }
      ],
      "stateMutability": "view",
      "type": "function"
    },
    {
      "inputs": [],
      "name": "owner",
      "outputs": [
        {
          "internalType": "address",
          "name": "",
          "type": "address"
        }
      ],
      "stateMutability": "view",
      "type": "function"
    },
    {
      "inputs": [],
      "name": "renounceOwnership",
      "outputs": [],
      "stateMutability": "nonpayable",
      "type": "function"
    },
    {
      "inputs": [],
      "name": "stakePUMLx",
      "outputs": [
        {
          "internalType": "contract PumlStake",
          "name": "",
          "type": "address"
        }
      ],
      "stateMutability": "view",
      "type": "function"
    },
    {
      "inputs": [],
      "name": "totalSales",
      "outputs": [
        {
          "internalType": "uint256",
          "name": "",
          "type": "uint256"
        }
      ],
      "stateMutability": "view",
      "type": "function"
    },
    {
      "inputs": [
        {
          "internalType": "address",
          "name": "newOwner",
          "type": "address"
        }
      ],
      "name": "transferOwnership",
      "outputs": [],
      "stateMutability": "nonpayable",
      "type": "function"
    },
    {
      "inputs": [
        {
          "internalType": "address",
          "name": "_assetAddress",
          "type": "address"
        },
        {
          "internalType": "uint256",
          "name": "_tokenId",
          "type": "uint256"
        },
        {
          "internalType": "bool",
          "name": "_isDirectSale",
          "type": "bool"
        },
        {
          "internalType": "bool",
          "name": "_isAuction",
          "type": "bool"
        },
        {
          "internalType": "uint256",
          "name": "_price",
          "type": "uint256"
        },
        {
          "internalType": "uint256",
          "name": "_startPrice",
          "type": "uint256"
        },
        {
          "internalType": "uint256",
          "name": "_startTime",
          "type": "uint256"
        },
        {
          "internalType": "uint256",
          "name": "_duration",
          "type": "uint256"
        }
      ],
      "name": "createOffer",
      "outputs": [],
      "stateMutability": "nonpayable",
      "type": "function"
    },
    {
      "inputs": [
        {
          "internalType": "uint256",
          "name": "_tokenId",
          "type": "uint256"
        }
      ],
      "name": "getAuctionId",
      "outputs": [
        {
          "internalType": "uint256",
          "name": "",
          "type": "uint256"
        }
      ],
      "stateMutability": "view",
      "type": "function"
    },
    {
      "inputs": [],
      "name": "ahora",
      "outputs": [
        {
          "internalType": "uint256",
          "name": "",
          "type": "uint256"
        }
      ],
      "stateMutability": "view",
      "type": "function"
    },
    {
      "inputs": [
        {
          "internalType": "uint256",
          "name": "_tokenId",
          "type": "uint256"
        }
      ],
      "name": "removeFromAuction",
      "outputs": [],
      "stateMutability": "nonpayable",
      "type": "function"
    },
    {
      "inputs": [
        {
          "internalType": "uint256",
          "name": "_tokenId",
          "type": "uint256"
        }
      ],
      "name": "removeFromSale",
      "outputs": [],
      "stateMutability": "nonpayable",
      "type": "function"
    },
    {
      "inputs": [
        {
          "internalType": "uint256",
          "name": "_commission",
          "type": "uint256"
        }
      ],
      "name": "setCommission",
      "outputs": [],
      "stateMutability": "nonpayable",
      "type": "function"
    },
    {
      "inputs": [
        {
          "internalType": "uint256",
          "name": "_tokenId",
          "type": "uint256"
        },
        {
          "internalType": "uint256",
          "name": "_puml",
          "type": "uint256"
        }
      ],
      "name": "buy",
      "outputs": [],
      "stateMutability": "payable",
      "type": "function"
    },
    {
      "inputs": [
        {
          "internalType": "uint256",
          "name": "auctionIndex",
          "type": "uint256"
        },
        {
          "internalType": "uint256",
          "name": "_puml",
          "type": "uint256"
        }
      ],
      "name": "bid",
      "outputs": [],
      "stateMutability": "payable",
      "type": "function"
    },
    {
      "inputs": [],
      "name": "getTotalAuctions",
      "outputs": [
        {
          "internalType": "uint256",
          "name": "",
          "type": "uint256"
        }
      ],
      "stateMutability": "view",
      "type": "function"
    },
    {
      "inputs": [
        {
          "internalType": "uint256",
          "name": "_auctionIndex",
          "type": "uint256"
        }
      ],
      "name": "isActive",
      "outputs": [
        {
          "internalType": "bool",
          "name": "",
          "type": "bool"
        }
      ],
      "stateMutability": "view",
      "type": "function"
    },
    {
      "inputs": [
        {
          "internalType": "uint256",
          "name": "_auctionIndex",
          "type": "uint256"
        }
      ],
      "name": "isFinished",
      "outputs": [
        {
          "internalType": "bool",
          "name": "",
          "type": "bool"
        }
      ],
      "stateMutability": "view",
      "type": "function"
    },
    {
      "inputs": [
        {
          "internalType": "uint256",
          "name": "_auctionIndex",
          "type": "uint256"
        }
      ],
      "name": "getStatus",
      "outputs": [
        {
          "internalType": "enum Engine.Status",
          "name": "",
          "type": "uint8"
        }
      ],
      "stateMutability": "view",
      "type": "function"
    },
    {
      "inputs": [
        {
          "internalType": "uint256",
          "name": "_auctionIndex",
          "type": "uint256"
        }
      ],
      "name": "endDate",
      "outputs": [
        {
          "internalType": "uint256",
          "name": "",
          "type": "uint256"
        }
      ],
      "stateMutability": "view",
      "type": "function"
    },
    {
      "inputs": [
        {
          "internalType": "uint256",
          "name": "_auctionIndex",
          "type": "uint256"
        }
      ],
      "name": "getCurrentBidOwner",
      "outputs": [
        {
          "internalType": "address",
          "name": "",
          "type": "address"
        }
      ],
      "stateMutability": "view",
      "type": "function"
    },
    {
      "inputs": [
        {
          "internalType": "uint256",
          "name": "_auctionIndex",
          "type": "uint256"
        }
      ],
      "name": "getCurrentBidAmount",
      "outputs": [
        {
          "internalType": "uint256",
          "name": "",
          "type": "uint256"
        }
      ],
      "stateMutability": "view",
      "type": "function"
    },
    {
      "inputs": [
        {
          "internalType": "uint256",
          "name": "_auctionIndex",
          "type": "uint256"
        }
      ],
      "name": "getBidCount",
      "outputs": [
        {
          "internalType": "uint256",
          "name": "",
          "type": "uint256"
        }
      ],
      "stateMutability": "view",
      "type": "function"
    },
    {
      "inputs": [
        {
          "internalType": "uint256",
          "name": "auctionIndex",
          "type": "uint256"
        }
      ],
      "name": "getWinner",
      "outputs": [
        {
          "internalType": "address",
          "name": "",
          "type": "address"
        }
      ],
      "stateMutability": "view",
      "type": "function"
    },
    {
      "inputs": [
        {
          "internalType": "uint256",
          "name": "auctionIndex",
          "type": "uint256"
        }
      ],
      "name": "closeAuction",
      "outputs": [],
      "stateMutability": "nonpayable",
      "type": "function"
    },
    {
      "inputs": [
        {
          "internalType": "uint256",
          "name": "auctionIndex",
          "type": "uint256"
        }
      ],
      "name": "automaticSetWinner",
      "outputs": [],
      "stateMutability": "nonpayable",
      "type": "function"
    },
    {
      "inputs": [
        {
          "internalType": "address",
          "name": "_assetAddress",
          "type": "address"
        },
        {
          "internalType": "address",
          "name": "_to",
          "type": "address"
        },
        {
          "internalType": "uint256[]",
          "name": "tokenIds",
          "type": "uint256[]"
        },
        {
          "internalType": "uint256",
          "name": "feeward",
          "type": "uint256"
        }
      ],
      "name": "stakeNFT",
      "outputs": [],
      "stateMutability": "payable",
      "type": "function"
    },
    {
      "inputs": [
        {
          "internalType": "address",
          "name": "_assetAddress",
          "type": "address"
        },
        {
          "internalType": "address",
          "name": "_from",
          "type": "address"
        },
        {
          "internalType": "uint256[]",
          "name": "tokenIds",
          "type": "uint256[]"
        },
        {
          "internalType": "uint256",
          "name": "feeward",
          "type": "uint256"
        }
      ],
      "name": "withdrawNFT",
      "outputs": [],
      "stateMutability": "payable",
      "type": "function"
    }
  ],
  "bytecode": "0x60806040526000600455600060055560006006553480156200002057600080fd5b5060405162005c7e38038062005c7e833981810160405281019062000046919062000198565b620000666200005a620000b560201b60201c565b620000bd60201b60201c565b6001808190555080600260006101000a81548173ffffffffffffffffffffffffffffffffffffffff021916908373ffffffffffffffffffffffffffffffffffffffff1602179055505062000212565b600033905090565b60008060009054906101000a900473ffffffffffffffffffffffffffffffffffffffff169050816000806101000a81548173ffffffffffffffffffffffffffffffffffffffff021916908373ffffffffffffffffffffffffffffffffffffffff1602179055508173ffffffffffffffffffffffffffffffffffffffff168173ffffffffffffffffffffffffffffffffffffffff167f8be0079c531659141344cd1fd0a4f28419497f9722a3daafe3b4186f6b6457e060405160405180910390a35050565b6000815190506200019281620001f8565b92915050565b600060208284031215620001ab57600080fd5b6000620001bb8482850162000181565b91505092915050565b6000620001d182620001d8565b9050919050565b600073ffffffffffffffffffffffffffffffffffffffff82169050919050565b6200020381620001c4565b81146200020f57600080fd5b50565b615a5c80620002226000396000f3fe6080604052600436106101cd5760003560e01c80636975846a116100f75780638da5cb5b11610095578063e8ba650911610064578063e8ba6509146106a4578063ea4f10b5146106e1578063ecff99061461070c578063f2fde38b14610728576101cd565b80638da5cb5b14610607578063ae69367314610632578063d6febde81461065d578063e148919114610679576101cd565b80637b5a96a6116100d15780637b5a96a61461052157806382afd23b1461054a57806386b46073146105875780638a72ea6a146105c4576101cd565b80636975846a14610490578063715018a6146104cd578063744d3411146104e4576101cd565b80633ef14cc81161016f578063571a26a01161013e578063571a26a0146103c8578063598647f81461040c5780635c622a0e146104285780636605ff6614610465576101cd565b80633ef14cc8146102fa5780634129b2c9146103255780634cac5b4b146103625780635552f6ca1461039f576101cd565b80632241091b116101ab5780632241091b14610254578063236ed8f31461027d5780632b866759146102a6578063355e6b43146102d1576101cd565b806304c3e49d146101d257806312f4ea2e146101ee5780631361a3b61461022b575b600080fd5b6101ec60048036038101906101e791906145f2565b610751565b005b3480156101fa57600080fd5b506102156004803603810190610210919061471f565b610ba3565b60405161022291906150f8565b60405180910390f35b34801561023757600080fd5b50610252600480360381019061024d919061471f565b610cd3565b005b34801561026057600080fd5b5061027b6004803603810190610276919061471f565b610f7f565b005b34801561028957600080fd5b506102a4600480360381019061029f919061471f565b61140e565b005b3480156102b257600080fd5b506102bb61141a565b6040516102c891906150f8565b60405180910390f35b3480156102dd57600080fd5b506102f860048036038101906102f3919061471f565b611422565b005b34801561030657600080fd5b5061030f6114ed565b60405161031c91906150f8565b60405180910390f35b34801561033157600080fd5b5061034c6004803603810190610347919061471f565b6114fa565b6040516103599190614b9e565b60405180910390f35b34801561036e57600080fd5b506103896004803603810190610384919061471f565b6115b7565b60405161039691906150f8565b60405180910390f35b3480156103ab57600080fd5b506103c660048036038101906103c1919061471f565b611627565b005b3480156103d457600080fd5b506103ef60048036038101906103ea919061471f565b6116af565b604051610403989796959493929190614d72565b60405180910390f35b61042660048036038101906104219190614771565b611767565b005b34801561043457600080fd5b5061044f600480360381019061044a919061471f565b611c0f565b60405161045c9190614e5d565b60405180910390f35b34801561047157600080fd5b5061047a611ca9565b60405161048791906150f8565b60405180910390f35b34801561049c57600080fd5b506104b760048036038101906104b2919061471f565b611caf565b6040516104c491906150f8565b60405180910390f35b3480156104d957600080fd5b506104e2611d04565b005b3480156104f057600080fd5b5061050b6004803603810190610506919061471f565b611d8c565b60405161051891906150f8565b60405180910390f35b34801561052d57600080fd5b506105486004803603810190610543919061466d565b611de1565b005b34801561055657600080fd5b50610571600480360381019061056c919061471f565b61232a565b60405161057e9190614e27565b60405180910390f35b34801561059357600080fd5b506105ae60048036038101906105a9919061471f565b6123af565b6040516105bb9190614b9e565b60405180910390f35b3480156105d057600080fd5b506105eb60048036038101906105e6919061471f565b612424565b6040516105fe9796959493929190614d03565b60405180910390f35b34801561061357600080fd5b5061061c6124c0565b6040516106299190614b9e565b60405180910390f35b34801561063e57600080fd5b506106476124e9565b60405161065491906150f8565b60405180910390f35b61067760048036038101906106729190614771565b6124ef565b005b34801561068557600080fd5b5061068e61312d565b60405161069b91906150f8565b60405180910390f35b3480156106b057600080fd5b506106cb60048036038101906106c6919061471f565b613133565b6040516106d89190614e27565b60405180910390f35b3480156106ed57600080fd5b506106f66131b7565b6040516107039190614e42565b60405180910390f35b610726600480360381019061072191906145f2565b6131dd565b005b34801561073457600080fd5b5061074f600480360381019061074a91906145a0565b6134d6565b005b60026001541415610797576040517f08c379a000000000000000000000000000000000000000000000000000000000815260040161078e906150d8565b60405180910390fd5b600260018190555060008085905060005b8451811015610aab573373ffffffffffffffffffffffffffffffffffffffff16600260009054906101000a900473ffffffffffffffffffffffffffffffffffffffff1673ffffffffffffffffffffffffffffffffffffffff16633a42b05387848151811061083f577f4e487b7100000000000000000000000000000000000000000000000000000000600052603260045260246000fd5b60200260200101516040518263ffffffff1660e01b815260040161086391906150f8565b60206040518083038186803b15801561087b57600080fd5b505afa15801561088f573d6000803e3d6000fd5b505050506040513d601f19601f820116820180604052508101906108b391906145c9565b73ffffffffffffffffffffffffffffffffffffffff1614610909576040517f08c379a000000000000000000000000000000000000000000000000000000000815260040161090090614ed8565b60405180910390fd5b8173ffffffffffffffffffffffffffffffffffffffff166342842e0e8733888581518110610960577f4e487b7100000000000000000000000000000000000000000000000000000000600052603260045260246000fd5b60200260200101516040518463ffffffff1660e01b815260040161098693929190614ca3565b600060405180830381600087803b1580156109a057600080fd5b505af11580156109b4573d6000803e3d6000fd5b505050506001836109c59190615326565b9250600260009054906101000a900473ffffffffffffffffffffffffffffffffffffffff1673ffffffffffffffffffffffffffffffffffffffff1663bcb4fa42868381518110610a3e577f4e487b7100000000000000000000000000000000000000000000000000000000600052603260045260246000fd5b602002602001015160006040518363ffffffff1660e01b8152600401610a65929190615113565b600060405180830381600087803b158015610a7f57600080fd5b505af1158015610a93573d6000803e3d6000fd5b50505050600181610aa49190615326565b90506107a8565b50600260009054906101000a900473ffffffffffffffffffffffffffffffffffffffff1673ffffffffffffffffffffffffffffffffffffffff166381051b8033856040518363ffffffff1660e01b8152600401610b09929190614cda565b600060405180830381600087803b158015610b2357600080fd5b505af1158015610b37573d6000803e3d6000fd5b50505050610b44826135ce565b3373ffffffffffffffffffffffffffffffffffffffff167f62ce610c288a7f8a9a6715f35d395ec0702a9719aa06b15bb5e6869d7d19a9528386604051610b8c929190615250565b60405180910390a250506001808190555050505050565b600080600760008481526020019081526020016000206040518060e00160405290816000820160009054906101000a900473ffffffffffffffffffffffffffffffffffffffff1673ffffffffffffffffffffffffffffffffffffffff1673ffffffffffffffffffffffffffffffffffffffff168152602001600182015481526020016002820160009054906101000a900473ffffffffffffffffffffffffffffffffffffffff1673ffffffffffffffffffffffffffffffffffffffff1673ffffffffffffffffffffffffffffffffffffffff168152602001600382015481526020016004820160009054906101000a900460ff161515151581526020016004820160019054906101000a900460ff1615151515815260200160058201548152505090508060c00151915050919050565b6000600760008381526020019081526020016000206040518060e00160405290816000820160009054906101000a900473ffffffffffffffffffffffffffffffffffffffff1673ffffffffffffffffffffffffffffffffffffffff1673ffffffffffffffffffffffffffffffffffffffff168152602001600182015481526020016002820160009054906101000a900473ffffffffffffffffffffffffffffffffffffffff1673ffffffffffffffffffffffffffffffffffffffff1673ffffffffffffffffffffffffffffffffffffffff168152602001600382015481526020016004820160009054906101000a900460ff161515151581526020016004820160019054906101000a900460ff161515151581526020016005820154815250509050806040015173ffffffffffffffffffffffffffffffffffffffff163373ffffffffffffffffffffffffffffffffffffffff1614610e67576040517f08c379a0000000000000000000000000000000000000000000000000000000008152600401610e5e90614f78565b60405180910390fd5b6000816080019015159081151581525050806007600084815260200190815260200160002060008201518160000160006101000a81548173ffffffffffffffffffffffffffffffffffffffff021916908373ffffffffffffffffffffffffffffffffffffffff1602179055506020820151816001015560408201518160020160006101000a81548173ffffffffffffffffffffffffffffffffffffffff021916908373ffffffffffffffffffffffffffffffffffffffff1602179055506060820151816003015560808201518160040160006101000a81548160ff02191690831515021790555060a08201518160040160016101000a81548160ff02191690831515021790555060c082015181600501559050505050565b6000600760008381526020019081526020016000206040518060e00160405290816000820160009054906101000a900473ffffffffffffffffffffffffffffffffffffffff1673ffffffffffffffffffffffffffffffffffffffff1673ffffffffffffffffffffffffffffffffffffffff168152602001600182015481526020016002820160009054906101000a900473ffffffffffffffffffffffffffffffffffffffff1673ffffffffffffffffffffffffffffffffffffffff1673ffffffffffffffffffffffffffffffffffffffff168152602001600382015481526020016004820160009054906101000a900460ff161515151581526020016004820160019054906101000a900460ff161515151581526020016005820154815250509050806040015173ffffffffffffffffffffffffffffffffffffffff163373ffffffffffffffffffffffffffffffffffffffff1614611113576040517f08c379a000000000000000000000000000000000000000000000000000000000815260040161110a90614f78565b60405180910390fd5b600060038260c0015181548110611153577f4e487b7100000000000000000000000000000000000000000000000000000000600052603260045260246000fd5b9060005260206000209060080201604051806101000160405290816000820160009054906101000a900473ffffffffffffffffffffffffffffffffffffffff1673ffffffffffffffffffffffffffffffffffffffff1673ffffffffffffffffffffffffffffffffffffffff168152602001600182015481526020016002820160009054906101000a900473ffffffffffffffffffffffffffffffffffffffff1673ffffffffffffffffffffffffffffffffffffffff1673ffffffffffffffffffffffffffffffffffffffff1681526020016003820154815260200160048201548152602001600582015481526020016006820160009054906101000a900473ffffffffffffffffffffffffffffffffffffffff1673ffffffffffffffffffffffffffffffffffffffff1673ffffffffffffffffffffffffffffffffffffffff168152602001600782015481525050905060008160e00151146112ea576040517f08c379a00000000000000000000000000000000000000000000000000000000081526004016112e190614f18565b60405180910390fd5b60008260a001901515908115158152505060008260c0018181525050816007600085815260200190815260200160002060008201518160000160006101000a81548173ffffffffffffffffffffffffffffffffffffffff021916908373ffffffffffffffffffffffffffffffffffffffff1602179055506020820151816001015560408201518160020160006101000a81548173ffffffffffffffffffffffffffffffffffffffff021916908373ffffffffffffffffffffffffffffffffffffffff1602179055506060820151816003015560808201518160040160006101000a81548160ff02191690831515021790555060a08201518160040160016101000a81548160ff02191690831515021790555060c08201518160050155905050505050565b61141781613663565b50565b600042905090565b61142a6140cd565b73ffffffffffffffffffffffffffffffffffffffff166114486124c0565b73ffffffffffffffffffffffffffffffffffffffff161461149e576040517f08c379a000000000000000000000000000000000000000000000000000000000815260040161149590615018565b60405180910390fd5b6113888111156114e3576040517f08c379a00000000000000000000000000000000000000000000000000000000081526004016114da90615078565b60405180910390fd5b8060048190555050565b6000600380549050905090565b600061150582613133565b611544576040517f08c379a000000000000000000000000000000000000000000000000000000000815260040161153b90614e98565b60405180910390fd5b6003828154811061157e577f4e487b7100000000000000000000000000000000000000000000000000000000600052603260045260246000fd5b906000526020600020906008020160060160009054906101000a900473ffffffffffffffffffffffffffffffffffffffff169050919050565b600080600383815481106115f4577f4e487b7100000000000000000000000000000000000000000000000000000000600052603260045260246000fd5b9060005260206000209060080201905061161f816004015482600301546140d590919063ffffffff16565b915050919050565b61162f6140cd565b73ffffffffffffffffffffffffffffffffffffffff1661164d6124c0565b73ffffffffffffffffffffffffffffffffffffffff16146116a3576040517f08c379a000000000000000000000000000000000000000000000000000000000815260040161169a90615018565b60405180910390fd5b6116ac81613663565b50565b600381815481106116bf57600080fd5b90600052602060002090600802016000915090508060000160009054906101000a900473ffffffffffffffffffffffffffffffffffffffff16908060010154908060020160009054906101000a900473ffffffffffffffffffffffffffffffffffffffff16908060030154908060040154908060050154908060060160009054906101000a900473ffffffffffffffffffffffffffffffffffffffff16908060070154905088565b600260015414156117ad576040517f08c379a00000000000000000000000000000000000000000000000000000000081526004016117a4906150d8565b60405180910390fd5b600260018190555060003390506000600384815481106117f6577f4e487b7100000000000000000000000000000000000000000000000000000000600052603260045260246000fd5b90600052602060002090600802019050600073ffffffffffffffffffffffffffffffffffffffff168160020160009054906101000a900473ffffffffffffffffffffffffffffffffffffffff1673ffffffffffffffffffffffffffffffffffffffff16141561189a576040517f08c379a000000000000000000000000000000000000000000000000000000000815260040161189190614f98565b60405180910390fd5b6118a38461232a565b6118e2576040517f08c379a00000000000000000000000000000000000000000000000000000000081526004016118d990614f38565b60405180910390fd5b80600501543411611928576040517f08c379a000000000000000000000000000000000000000000000000000000000815260040161191f90614eb8565b60405180910390fd5b600081600501541415801561198e5750600073ffffffffffffffffffffffffffffffffffffffff168160060160009054906101000a900473ffffffffffffffffffffffffffffffffffffffff1673ffffffffffffffffffffffffffffffffffffffff1614155b15611acc5760008160060160009054906101000a900473ffffffffffffffffffffffffffffffffffffffff1673ffffffffffffffffffffffffffffffffffffffff1682600501546040516119e190614b89565b60006040518083038185875af1925050503d8060008114611a1e576040519150601f19603f3d011682016040523d82523d6000602084013e611a23565b606091505b5050905080611a67576040517f08c379a0000000000000000000000000000000000000000000000000000000008152600401611a5e90615098565b60405180910390fd5b7f972fd66eadedfb87beff023a37f4d8c6a91fdd147fa0d3c036e0c6c5a0cdc795858360060160009054906101000a900473ffffffffffffffffffffffffffffffffffffffff168460050154604051611ac29392919061513c565b60405180910390a1505b348160050181905550818160060160006101000a81548173ffffffffffffffffffffffffffffffffffffffff021916908373ffffffffffffffffffffffffffffffffffffffff160217905550611b30600182600701546140d590919063ffffffff16565b8160070181905550600260009054906101000a900473ffffffffffffffffffffffffffffffffffffffff1673ffffffffffffffffffffffffffffffffffffffff16639d756a8d83856040518363ffffffff1660e01b8152600401611b95929190614cda565b600060405180830381600087803b158015611baf57600080fd5b505af1158015611bc3573d6000803e3d6000fd5b505050507fb8d756f2d1da4663767eb4d559780ace84f2f65a421a60ddcb47e8b2e5d2fd26848334604051611bfa93929190615219565b60405180910390a15050600180819055505050565b60008060038381548110611c4c577f4e487b7100000000000000000000000000000000000000000000000000000000600052603260045260246000fd5b906000526020600020906008020190508060030154421015611c72576000915050611ca4565b611c8d816004015482600301546140d590919063ffffffff16565b421015611c9e576001915050611ca4565b60029150505b919050565b60065481565b600060038281548110611ceb577f4e487b7100000000000000000000000000000000000000000000000000000000600052603260045260246000fd5b9060005260206000209060080201600501549050919050565b611d0c6140cd565b73ffffffffffffffffffffffffffffffffffffffff16611d2a6124c0565b73ffffffffffffffffffffffffffffffffffffffff1614611d80576040517f08c379a0000000000000000000000000000000000000000000000000000000008152600401611d7790615018565b60405180910390fd5b611d8a60006140eb565b565b600060038281548110611dc8577f4e487b7100000000000000000000000000000000000000000000000000000000600052603260045260246000fd5b9060005260206000209060080201600701549050919050565b60008890503373ffffffffffffffffffffffffffffffffffffffff168173ffffffffffffffffffffffffffffffffffffffff16636352211e8a6040518263ffffffff1660e01b8152600401611e3691906150f8565b60206040518083038186803b158015611e4e57600080fd5b505afa158015611e62573d6000803e3d6000fd5b505050506040513d601f19601f82011682018060405250810190611e8691906145c9565b73ffffffffffffffffffffffffffffffffffffffff1614611edc576040517f08c379a0000000000000000000000000000000000000000000000000000000008152600401611ed390614fd8565b60405180910390fd5b3073ffffffffffffffffffffffffffffffffffffffff168173ffffffffffffffffffffffffffffffffffffffff1663081812fc8a6040518263ffffffff1660e01b8152600401611f2c91906150f8565b60206040518083038186803b158015611f4457600080fd5b505afa158015611f58573d6000803e3d6000fd5b505050506040513d601f19601f82011682018060405250810190611f7c91906145c9565b73ffffffffffffffffffffffffffffffffffffffff1614611fd2576040517f08c379a0000000000000000000000000000000000000000000000000000000008152600401611fc9906150b8565b60405180910390fd5b6000600760008a81526020019081526020016000206040518060e00160405290816000820160009054906101000a900473ffffffffffffffffffffffffffffffffffffffff1673ffffffffffffffffffffffffffffffffffffffff1673ffffffffffffffffffffffffffffffffffffffff168152602001600182015481526020016002820160009054906101000a900473ffffffffffffffffffffffffffffffffffffffff1673ffffffffffffffffffffffffffffffffffffffff1673ffffffffffffffffffffffffffffffffffffffff168152602001600382015481526020016004820160009054906101000a900460ff161515151581526020016004820160019054906101000a900460ff16151515158152602001600582015481525050905060001515816080015115151480156121145750600015158160a001511515145b612153576040517f08c379a000000000000000000000000000000000000000000000000000000000815260040161214a90614fb8565b60405180910390fd5b60006040518060e001604052808c73ffffffffffffffffffffffffffffffffffffffff1681526020018b81526020013373ffffffffffffffffffffffffffffffffffffffff1681526020018881526020018a1515815260200189151581526020016000815250905087156121d8576121ce8b8b8888886141af565b8160c00181815250505b80600760008c815260200190815260200160002060008201518160000160006101000a81548173ffffffffffffffffffffffffffffffffffffffff021916908373ffffffffffffffffffffffffffffffffffffffff1602179055506020820151816001015560408201518160020160006101000a81548173ffffffffffffffffffffffffffffffffffffffff021916908373ffffffffffffffffffffffffffffffffffffffff1602179055506060820151816003015560808201518160040160006101000a81548160ff02191690831515021790555060a08201518160040160016101000a81548160ff02191690831515021790555060c082015181600501559050507fa9b9b286d6a0d36eec10c565ed38fc4794a2f554baf7b6187e53e71e600f0aa98a338d60018b8e604051612315969594939291906151b8565b60405180910390a15050505050505050505050565b600060016002811115612366577f4e487b7100000000000000000000000000000000000000000000000000000000600052602160045260246000fd5b61236f83611c0f565b60028111156123a7577f4e487b7100000000000000000000000000000000000000000000000000000000600052602160045260246000fd5b149050919050565b6000600382815481106123eb577f4e487b7100000000000000000000000000000000000000000000000000000000600052603260045260246000fd5b906000526020600020906008020160060160009054906101000a900473ffffffffffffffffffffffffffffffffffffffff169050919050565b60076020528060005260406000206000915090508060000160009054906101000a900473ffffffffffffffffffffffffffffffffffffffff16908060010154908060020160009054906101000a900473ffffffffffffffffffffffffffffffffffffffff16908060030154908060040160009054906101000a900460ff16908060040160019054906101000a900460ff16908060050154905087565b60008060009054906101000a900473ffffffffffffffffffffffffffffffffffffffff16905090565b60055481565b60026001541415612535576040517f08c379a000000000000000000000000000000000000000000000000000000000815260040161252c906150d8565b60405180910390fd5b6002600181905550600033905060003490506000600760008681526020019081526020016000206040518060e00160405290816000820160009054906101000a900473ffffffffffffffffffffffffffffffffffffffff1673ffffffffffffffffffffffffffffffffffffffff1673ffffffffffffffffffffffffffffffffffffffff168152602001600182015481526020016002820160009054906101000a900473ffffffffffffffffffffffffffffffffffffffff1673ffffffffffffffffffffffffffffffffffffffff1673ffffffffffffffffffffffffffffffffffffffff168152602001600382015481526020016004820160009054906101000a900460ff161515151581526020016004820160019054906101000a900460ff1615151515815260200160058201548152505090506001151581608001511515146126b4576040517f08c379a00000000000000000000000000000000000000000000000000000000081526004016126ab90615058565b60405180910390fd5b60008160600151905080831015612700576040517f08c379a00000000000000000000000000000000000000000000000000000000081526004016126f790614e78565b60405180910390fd5b600115158260a00151151514801561272157506127208260c00151613133565b5b801561277c5750600060038360c0015181548110612768577f4e487b7100000000000000000000000000000000000000000000000000000000600052603260045260246000fd5b906000526020600020906008020160070154115b156127bc576040517f08c379a00000000000000000000000000000000000000000000000000000000081526004016127b390614ff8565b60405180910390fd5b7f35538759d80c1fd7bb450a0d05601db5a99fa8b5d073a07c847a9fd61029b10786856040516127ed929190615113565b60405180910390a16000826000015190508073ffffffffffffffffffffffffffffffffffffffff166342842e0e8460400151878a6040518463ffffffff1660e01b815260040161283f93929190614bb9565b600060405180830381600087803b15801561285957600080fd5b505af115801561286d573d6000803e3d6000fd5b5050505060008173ffffffffffffffffffffffffffffffffffffffff1663d48e638a896040518263ffffffff1660e01b81526004016128ac91906150f8565b60206040518083038186803b1580156128c457600080fd5b505afa1580156128d8573d6000803e3d6000fd5b505050506040513d601f19601f820116820180604052508101906128fc91906145c9565b90506000612710612918600454886143e090919063ffffffff16565b612922919061537c565b90506000856040015173ffffffffffffffffffffffffffffffffffffffff168373ffffffffffffffffffffffffffffffffffffffff1614612aee576127106129fb8573ffffffffffffffffffffffffffffffffffffffff1663bb3bafd68d6040518263ffffffff1660e01b815260040161299c91906150f8565b60206040518083038186803b1580156129b457600080fd5b505afa1580156129c8573d6000803e3d6000fd5b505050506040513d601f19601f820116820180604052508101906129ec9190614748565b896143e090919063ffffffff16565b612a05919061537c565b905060008373ffffffffffffffffffffffffffffffffffffffff1682604051612a2d90614b89565b60006040518083038185875af1925050503d8060008114612a6a576040519150601f19603f3d011682016040523d82523d6000602084013e612a6f565b606091505b5050905080612ab3576040517f08c379a0000000000000000000000000000000000000000000000000000000008152600401612aaa90615098565b60405180910390fd5b7f54b960faf8b038c33ba9912fdb9ac1e8e0096c5f327d1c89e62b5d9c5357ddb68483604051612ae4929190614bf0565b60405180910390a1505b6000612b1582612b07858b6143f690919063ffffffff16565b6143f690919063ffffffff16565b90506000876040015173ffffffffffffffffffffffffffffffffffffffff1682604051612b4190614b89565b60006040518083038185875af1925050503d8060008114612b7e576040519150601f19603f3d011682016040523d82523d6000602084013e612b83565b606091505b5050905080612bc7576040517f08c379a0000000000000000000000000000000000000000000000000000000008152600401612bbe90615098565b60405180910390fd5b7f9a37aa02cc986a4a0c2d22af3dcdb9db27c178f7feed43e7037c783b55ed91ba88604001518386866127106004548f612c0191906153ad565b612c0b919061537c565b87612c169190615326565b604051612c27959493929190614c19565b60405180910390a1600115158860a0015115151415612eed57600060038960c0015181548110612c80577f4e487b7100000000000000000000000000000000000000000000000000000000600052603260045260246000fd5b9060005260206000209060080201604051806101000160405290816000820160009054906101000a900473ffffffffffffffffffffffffffffffffffffffff1673ffffffffffffffffffffffffffffffffffffffff1673ffffffffffffffffffffffffffffffffffffffff168152602001600182015481526020016002820160009054906101000a900473ffffffffffffffffffffffffffffffffffffffff1673ffffffffffffffffffffffffffffffffffffffff1673ffffffffffffffffffffffffffffffffffffffff1681526020016003820154815260200160048201548152602001600582015481526020016006820160009054906101000a900473ffffffffffffffffffffffffffffffffffffffff1673ffffffffffffffffffffffffffffffffffffffff1673ffffffffffffffffffffffffffffffffffffffff168152602001600782015481525050905060008160a0015114158015612de9575060008160e00151115b15612eeb5760008160c0015173ffffffffffffffffffffffffffffffffffffffff168260a00151604051612e1c90614b89565b60006040518083038185875af1925050503d8060008114612e59576040519150601f19603f3d011682016040523d82523d6000602084013e612e5e565b606091505b5050905080612ea2576040517f08c379a0000000000000000000000000000000000000000000000000000000008152600401612e9990615098565b60405180910390fd5b7f972fd66eadedfb87beff023a37f4d8c6a91fdd147fa0d3c036e0c6c5a0cdc7958a60c001518360c001518460a00151604051612ee19392919061513c565b60405180910390a1505b505b7f3b599f6217e39be59216b60e543ce0d4c7d534fe64dd9d962334924e7819894e8c8b34604051612f2093929190615219565b60405180910390a1612f3d846005546140d590919063ffffffff16565b60058190555060008860a0019015159081151581525050600088608001901515908115158152505087600760008e815260200190815260200160002060008201518160000160006101000a81548173ffffffffffffffffffffffffffffffffffffffff021916908373ffffffffffffffffffffffffffffffffffffffff1602179055506020820151816001015560408201518160020160006101000a81548173ffffffffffffffffffffffffffffffffffffffff021916908373ffffffffffffffffffffffffffffffffffffffff1602179055506060820151816003015560808201518160040160006101000a81548160ff02191690831515021790555060a08201518160040160016101000a81548160ff02191690831515021790555060c0820151816005015590505061307d346006546140d590919063ffffffff16565b600681905550600260009054906101000a900473ffffffffffffffffffffffffffffffffffffffff1673ffffffffffffffffffffffffffffffffffffffff16633dfc70878b8a604001518e6040518463ffffffff1660e01b81526004016130e693929190614c6c565b600060405180830381600087803b15801561310057600080fd5b505af1158015613114573d6000803e3d6000fd5b5050505050505050505050505050600180819055505050565b60045481565b600060028081111561316e577f4e487b7100000000000000000000000000000000000000000000000000000000600052602160045260246000fd5b61317783611c0f565b60028111156131af577f4e487b7100000000000000000000000000000000000000000000000000000000600052602160045260246000fd5b149050919050565b600260009054906101000a900473ffffffffffffffffffffffffffffffffffffffff1681565b60026001541415613223576040517f08c379a000000000000000000000000000000000000000000000000000000000815260040161321a906150d8565b60405180910390fd5b600260018190555060008085905060005b84518110156133de578173ffffffffffffffffffffffffffffffffffffffff166342842e0e3388888581518110613294577f4e487b7100000000000000000000000000000000000000000000000000000000600052603260045260246000fd5b60200260200101516040518463ffffffff1660e01b81526004016132ba93929190614ca3565b600060405180830381600087803b1580156132d457600080fd5b505af11580156132e8573d6000803e3d6000fd5b505050506001836132f99190615326565b9250600260009054906101000a900473ffffffffffffffffffffffffffffffffffffffff1673ffffffffffffffffffffffffffffffffffffffff1663bcb4fa42868381518110613372577f4e487b7100000000000000000000000000000000000000000000000000000000600052603260045260246000fd5b6020026020010151336040518363ffffffff1660e01b8152600401613398929190615113565b600060405180830381600087803b1580156133b257600080fd5b505af11580156133c6573d6000803e3d6000fd5b505050506001816133d79190615326565b9050613234565b50600260009054906101000a900473ffffffffffffffffffffffffffffffffffffffff1673ffffffffffffffffffffffffffffffffffffffff166381051b8033856040518363ffffffff1660e01b815260040161343c929190614cda565b600060405180830381600087803b15801561345657600080fd5b505af115801561346a573d6000803e3d6000fd5b505050506134778261440c565b3373ffffffffffffffffffffffffffffffffffffffff167fdeaad30c9e3118ba3b39651e76dd3db3536ec6872639078cfe472ab46316afae83866040516134bf929190615250565b60405180910390a250506001808190555050505050565b6134de6140cd565b73ffffffffffffffffffffffffffffffffffffffff166134fc6124c0565b73ffffffffffffffffffffffffffffffffffffffff1614613552576040517f08c379a000000000000000000000000000000000000000000000000000000000815260040161354990615018565b60405180910390fd5b600073ffffffffffffffffffffffffffffffffffffffff168173ffffffffffffffffffffffffffffffffffffffff1614156135c2576040517f08c379a00000000000000000000000000000000000000000000000000000000081526004016135b990614ef8565b60405180910390fd5b6135cb816140eb565b50565b600260009054906101000a900473ffffffffffffffffffffffffffffffffffffffff1673ffffffffffffffffffffffffffffffffffffffff16635db8de19338360006040518463ffffffff1660e01b815260040161362e93929190614df0565b600060405180830381600087803b15801561364857600080fd5b505af115801561365c573d6000803e3d6000fd5b5050505050565b600260015414156136a9576040517f08c379a00000000000000000000000000000000000000000000000000000000081526004016136a0906150d8565b60405180910390fd5b600260018190555060006136bc826114fa565b90506000600383815481106136fa577f4e487b7100000000000000000000000000000000000000000000000000000000600052603260045260246000fd5b90600052602060002090600802019050600060076000836001015481526020019081526020016000206040518060e00160405290816000820160009054906101000a900473ffffffffffffffffffffffffffffffffffffffff1673ffffffffffffffffffffffffffffffffffffffff1673ffffffffffffffffffffffffffffffffffffffff168152602001600182015481526020016002820160009054906101000a900473ffffffffffffffffffffffffffffffffffffffff1673ffffffffffffffffffffffffffffffffffffffff1673ffffffffffffffffffffffffffffffffffffffff168152602001600382015481526020016004820160009054906101000a900460ff161515151581526020016004820160019054906101000a900460ff161515151581526020016005820154815250509050600115158160a0015115151461387b576040517f08c379a000000000000000000000000000000000000000000000000000000000815260040161387290615038565b60405180910390fd5b600082600701541115613f975760008260000160009054906101000a900473ffffffffffffffffffffffffffffffffffffffff1690503073ffffffffffffffffffffffffffffffffffffffff168173ffffffffffffffffffffffffffffffffffffffff1663081812fc85600101546040518263ffffffff1660e01b815260040161390591906150f8565b60206040518083038186803b15801561391d57600080fd5b505afa158015613931573d6000803e3d6000fd5b505050506040513d601f19601f8201168201806040525081019061395591906145c9565b73ffffffffffffffffffffffffffffffffffffffff16146139ab576040517f08c379a00000000000000000000000000000000000000000000000000000000081526004016139a2906150b8565b60405180910390fd5b8260020160009054906101000a900473ffffffffffffffffffffffffffffffffffffffff1673ffffffffffffffffffffffffffffffffffffffff168173ffffffffffffffffffffffffffffffffffffffff16636352211e85600101546040518263ffffffff1660e01b8152600401613a2391906150f8565b60206040518083038186803b158015613a3b57600080fd5b505afa158015613a4f573d6000803e3d6000fd5b505050506040513d601f19601f82011682018060405250810190613a7391906145c9565b73ffffffffffffffffffffffffffffffffffffffff1614613ac9576040517f08c379a0000000000000000000000000000000000000000000000000000000008152600401613ac090614f58565b60405180910390fd5b8073ffffffffffffffffffffffffffffffffffffffff166342842e0e8460020160009054906101000a900473ffffffffffffffffffffffffffffffffffffffff168686600101546040518463ffffffff1660e01b8152600401613b2e93929190614bb9565b600060405180830381600087803b158015613b4857600080fd5b505af1158015613b5c573d6000803e3d6000fd5b505050507f35538759d80c1fd7bb450a0d05601db5a99fa8b5d073a07c847a9fd61029b1078585604051613b91929190615113565b60405180910390a160008173ffffffffffffffffffffffffffffffffffffffff1663d48e638a85600101546040518263ffffffff1660e01b8152600401613bd891906150f8565b60206040518083038186803b158015613bf057600080fd5b505afa158015613c04573d6000803e3d6000fd5b505050506040513d601f19601f82011682018060405250810190613c2891906145c9565b90506000612710613c4860045487600501546143e090919063ffffffff16565b613c52919061537c565b905060008560020160009054906101000a900473ffffffffffffffffffffffffffffffffffffffff1673ffffffffffffffffffffffffffffffffffffffff168373ffffffffffffffffffffffffffffffffffffffff1614613de057612710613d538573ffffffffffffffffffffffffffffffffffffffff1663bb3bafd689600101546040518263ffffffff1660e01b8152600401613cf091906150f8565b60206040518083038186803b158015613d0857600080fd5b505afa158015613d1c573d6000803e3d6000fd5b505050506040513d601f19601f82011682018060405250810190613d409190614748565b88600501546143e090919063ffffffff16565b613d5d919061537c565b90508273ffffffffffffffffffffffffffffffffffffffff166108fc829081150290604051600060405180830381858888f19350505050158015613da5573d6000803e3d6000fd5b507f54b960faf8b038c33ba9912fdb9ac1e8e0096c5f327d1c89e62b5d9c5357ddb68382604051613dd7929190614bf0565b60405180910390a15b6000613e0b82613dfd858a600501546143f690919063ffffffff16565b6143f690919063ffffffff16565b905060008760020160009054906101000a900473ffffffffffffffffffffffffffffffffffffffff1673ffffffffffffffffffffffffffffffffffffffff1682604051613e5790614b89565b60006040518083038185875af1925050503d8060008114613e94576040519150601f19603f3d011682016040523d82523d6000602084013e613e99565b606091505b5050905080613edd576040517f08c379a0000000000000000000000000000000000000000000000000000000008152600401613ed490615098565b60405180910390fd5b7f9a37aa02cc986a4a0c2d22af3dcdb9db27c178f7feed43e7037c783b55ed91ba8860020160009054906101000a900473ffffffffffffffffffffffffffffffffffffffff16838686878988613f339190615326565b613f3d9190615326565b604051613f4e959493929190614c19565b60405180910390a1613f6b846005546140d590919063ffffffff16565b600581905550613f8a88600501546006546140d590919063ffffffff16565b6006819055505050505050505b60008160a0019015159081151581525050600081608001901515908115158152505080600760008460010154815260200190815260200160002060008201518160000160006101000a81548173ffffffffffffffffffffffffffffffffffffffff021916908373ffffffffffffffffffffffffffffffffffffffff1602179055506020820151816001015560408201518160020160006101000a81548173ffffffffffffffffffffffffffffffffffffffff021916908373ffffffffffffffffffffffffffffffffffffffff1602179055506060820151816003015560808201518160040160006101000a81548160ff02191690831515021790555060a08201518160040160016101000a81548160ff02191690831515021790555060c082015181600501559050505050506001808190555050565b600033905090565b600081836140e39190615326565b905092915050565b60008060009054906101000a900473ffffffffffffffffffffffffffffffffffffffff169050816000806101000a81548173ffffffffffffffffffffffffffffffffffffffff021916908373ffffffffffffffffffffffffffffffffffffffff1602179055508173ffffffffffffffffffffffffffffffffffffffff168173ffffffffffffffffffffffffffffffffffffffff167f8be0079c531659141344cd1fd0a4f28419497f9722a3daafe3b4186f6b6457e060405160405180910390a35050565b6000808314156141bd574292505b60006040518061010001604052808873ffffffffffffffffffffffffffffffffffffffff1681526020018781526020013373ffffffffffffffffffffffffffffffffffffffff168152602001858152602001848152602001868152602001600073ffffffffffffffffffffffffffffffffffffffff16815260200160008152509050600381908060018154018082558091505060019003906000526020600020906008020160009091909190915060008201518160000160006101000a81548173ffffffffffffffffffffffffffffffffffffffff021916908373ffffffffffffffffffffffffffffffffffffffff1602179055506020820151816001015560408201518160020160006101000a81548173ffffffffffffffffffffffffffffffffffffffff021916908373ffffffffffffffffffffffffffffffffffffffff160217905550606082015181600301556080820151816004015560a0820151816005015560c08201518160060160006101000a81548173ffffffffffffffffffffffffffffffffffffffff021916908373ffffffffffffffffffffffffffffffffffffffff16021790555060e082015181600701555050600061438f60016003805490506143f690919063ffffffff16565b90507fc9050d42180a61cb0d9ebb8ad118b62fe6eab12cf12ff752c4a0cc7da9ddf62781836040015189896040516143ca9493929190615173565b60405180910390a1809250505095945050505050565b600081836143ee91906153ad565b905092915050565b600081836144049190615407565b905092915050565b600260009054906101000a900473ffffffffffffffffffffffffffffffffffffffff1673ffffffffffffffffffffffffffffffffffffffff16635db8de19338360016040518463ffffffff1660e01b815260040161446c93929190614df0565b600060405180830381600087803b15801561448657600080fd5b505af115801561449a573d6000803e3d6000fd5b5050505050565b60006144b46144af846152a5565b615280565b905080838252602082019050828560208602820111156144d357600080fd5b60005b8581101561450357816144e98882614576565b8452602084019350602083019250506001810190506144d6565b5050509392505050565b60008135905061451c816159e1565b92915050565b600081519050614531816159e1565b92915050565b600082601f83011261454857600080fd5b81356145588482602086016144a1565b91505092915050565b600081359050614570816159f8565b92915050565b60008135905061458581615a0f565b92915050565b60008151905061459a81615a0f565b92915050565b6000602082840312156145b257600080fd5b60006145c08482850161450d565b91505092915050565b6000602082840312156145db57600080fd5b60006145e984828501614522565b91505092915050565b6000806000806080858703121561460857600080fd5b60006146168782880161450d565b94505060206146278782880161450d565b935050604085013567ffffffffffffffff81111561464457600080fd5b61465087828801614537565b925050606061466187828801614576565b91505092959194509250565b600080600080600080600080610100898b03121561468a57600080fd5b60006146988b828c0161450d565b98505060206146a98b828c01614576565b97505060406146ba8b828c01614561565b96505060606146cb8b828c01614561565b95505060806146dc8b828c01614576565b94505060a06146ed8b828c01614576565b93505060c06146fe8b828c01614576565b92505060e061470f8b828c01614576565b9150509295985092959890939650565b60006020828403121561473157600080fd5b600061473f84828501614576565b91505092915050565b60006020828403121561475a57600080fd5b60006147688482850161458b565b91505092915050565b6000806040838503121561478457600080fd5b600061479285828601614576565b92505060206147a385828601614576565b9150509250929050565b60006147b98383614b6b565b60208301905092915050565b6147ce816154a8565b82525050565b6147dd8161544d565b82525050565b6147ec8161543b565b82525050565b60006147fd826152e1565b61480781856152f9565b9350614812836152d1565b8060005b8381101561484357815161482a88826147ad565b9750614835836152ec565b925050600181019050614816565b5085935050505092915050565b6148598161545f565b82525050565b614868816154ba565b82525050565b614877816154de565b82525050565b614886816154f0565b82525050565b6000614899601383615315565b91506148a482615624565b602082019050919050565b60006148bc601883615315565b91506148c78261564d565b602082019050919050565b60006148df600b83615315565b91506148ea82615676565b602082019050919050565b6000614902602483615315565b915061490d8261569f565b604082019050919050565b6000614925602683615315565b9150614930826156ee565b604082019050919050565b6000614948600d83615315565b91506149538261573d565b602082019050919050565b600061496b600e83615315565b915061497682615766565b602082019050919050565b600061498e602083615315565b91506149998261578f565b602082019050919050565b60006149b1601583615315565b91506149bc826157b8565b602082019050919050565b60006149d4601c83615315565b91506149df826157e1565b602082019050919050565b60006149f7601e83615315565b9150614a028261580a565b602082019050919050565b6000614a1a600d83615315565b9150614a2582615833565b602082019050919050565b6000614a3d602583615315565b9150614a488261585c565b604082019050919050565b6000614a60602083615315565b9150614a6b826158ab565b602082019050919050565b6000614a83601283615315565b9150614a8e826158d4565b602082019050919050565b6000614aa6601683615315565b9150614ab1826158fd565b602082019050919050565b6000614ac9601383615315565b9150614ad482615926565b602082019050919050565b6000614aec60008361530a565b9150614af78261594f565b600082019050919050565b6000614b0f601083615315565b9150614b1a82615952565b602082019050919050565b6000614b32601083615315565b9150614b3d8261597b565b602082019050919050565b6000614b55601f83615315565b9150614b60826159a4565b602082019050919050565b614b748161549e565b82525050565b614b838161549e565b82525050565b6000614b9482614adf565b9150819050919050565b6000602082019050614bb360008301846147e3565b92915050565b6000606082019050614bce60008301866147c5565b614bdb60208301856147e3565b614be86040830184614b7a565b949350505050565b6000604082019050614c0560008301856147c5565b614c126020830184614b7a565b9392505050565b600060a082019050614c2e60008301886147c5565b614c3b6020830187614b7a565b614c486040830186614b7a565b614c556060830185614b7a565b614c626080830184614b7a565b9695505050505050565b6000606082019050614c8160008301866147e3565b614c8e60208301856147c5565b614c9b6040830184614b7a565b949350505050565b6000606082019050614cb860008301866147e3565b614cc560208301856147e3565b614cd26040830184614b7a565b949350505050565b6000604082019050614cef60008301856147e3565b614cfc6020830184614b7a565b9392505050565b600060e082019050614d18600083018a6147e3565b614d256020830189614b7a565b614d3260408301886147d4565b614d3f6060830187614b7a565b614d4c6080830186614850565b614d5960a0830185614850565b614d6660c0830184614b7a565b98975050505050505050565b600061010082019050614d88600083018b6147e3565b614d95602083018a614b7a565b614da260408301896147d4565b614daf6060830188614b7a565b614dbc6080830187614b7a565b614dc960a0830186614b7a565b614dd660c08301856147d4565b614de360e0830184614b7a565b9998505050505050505050565b6000606082019050614e0560008301866147e3565b614e126020830185614b7a565b614e1f6040830184614850565b949350505050565b6000602082019050614e3c6000830184614850565b92915050565b6000602082019050614e57600083018461485f565b92915050565b6000602082019050614e72600083018461486e565b92915050565b60006020820190508181036000830152614e918161488c565b9050919050565b60006020820190508181036000830152614eb1816148af565b9050919050565b60006020820190508181036000830152614ed1816148d2565b9050919050565b60006020820190508181036000830152614ef1816148f5565b9050919050565b60006020820190508181036000830152614f1181614918565b9050919050565b60006020820190508181036000830152614f318161493b565b9050919050565b60006020820190508181036000830152614f518161495e565b9050919050565b60006020820190508181036000830152614f7181614981565b9050919050565b60006020820190508181036000830152614f91816149a4565b9050919050565b60006020820190508181036000830152614fb1816149c7565b9050919050565b60006020820190508181036000830152614fd1816149ea565b9050919050565b60006020820190508181036000830152614ff181614a0d565b9050919050565b6000602082019050818103600083015261501181614a30565b9050919050565b6000602082019050818103600083015261503181614a53565b9050919050565b6000602082019050818103600083015261505181614a76565b9050919050565b6000602082019050818103600083015261507181614a99565b9050919050565b6000602082019050818103600083015261509181614abc565b9050919050565b600060208201905081810360008301526150b181614b02565b9050919050565b600060208201905081810360008301526150d181614b25565b9050919050565b600060208201905081810360008301526150f181614b48565b9050919050565b600060208201905061510d6000830184614b7a565b92915050565b60006040820190506151286000830185614b7a565b61513560208301846147e3565b9392505050565b60006060820190506151516000830186614b7a565b61515e60208301856147c5565b61516b6040830184614b7a565b949350505050565b60006080820190506151886000830187614b7a565b61519560208301866147c5565b6151a26040830185614b7a565b6151af6060830184614b7a565b95945050505050565b600060c0820190506151cd6000830189614b7a565b6151da60208301886147e3565b6151e760408301876147e3565b6151f4606083018661487d565b6152016080830185614b7a565b61520e60a0830184614850565b979650505050505050565b600060608201905061522e6000830186614b7a565b61523b60208301856147e3565b6152486040830184614b7a565b949350505050565b60006040820190506152656000830185614b7a565b818103602083015261527781846147f2565b90509392505050565b600061528a61529b565b90506152968282615526565b919050565b6000604051905090565b600067ffffffffffffffff8211156152c0576152bf6155e4565b5b602082029050602081019050919050565b6000819050602082019050919050565b600081519050919050565b6000602082019050919050565b600082825260208201905092915050565b600081905092915050565b600082825260208201905092915050565b60006153318261549e565b915061533c8361549e565b9250827fffffffffffffffffffffffffffffffffffffffffffffffffffffffffffffffff0382111561537157615370615557565b5b828201905092915050565b60006153878261549e565b91506153928361549e565b9250826153a2576153a1615586565b5b828204905092915050565b60006153b88261549e565b91506153c38361549e565b9250817fffffffffffffffffffffffffffffffffffffffffffffffffffffffffffffffff04831182151516156153fc576153fb615557565b5b828202905092915050565b60006154128261549e565b915061541d8361549e565b9250828210156154305761542f615557565b5b828203905092915050565b60006154468261547e565b9050919050565b60006154588261547e565b9050919050565b60008115159050919050565b6000819050615479826159cd565b919050565b600073ffffffffffffffffffffffffffffffffffffffff82169050919050565b6000819050919050565b60006154b382615502565b9050919050565b60006154c5826154cc565b9050919050565b60006154d78261547e565b9050919050565b60006154e98261546b565b9050919050565b60006154fb8261549e565b9050919050565b600061550d82615514565b9050919050565b600061551f8261547e565b9050919050565b61552f82615613565b810181811067ffffffffffffffff8211171561554e5761554d6155e4565b5b80604052505050565b7f4e487b7100000000000000000000000000000000000000000000000000000000600052601160045260246000fd5b7f4e487b7100000000000000000000000000000000000000000000000000000000600052601260045260246000fd5b7f4e487b7100000000000000000000000000000000000000000000000000000000600052602160045260246000fd5b7f4e487b7100000000000000000000000000000000000000000000000000000000600052604160045260246000fd5b6000601f19601f8301169050919050565b7f5072696365206973206e6f7420656e6f75676800000000000000000000000000600082015250565b7f41756374696f6e206e6f742066696e6973686564207965740000000000000000600082015250565b7f42696420746f6f206c6f77000000000000000000000000000000000000000000600082015250565b7f5374616b696e673a204e6f7420746865207374616b6572206f6620746865207460008201527f6f6b656e00000000000000000000000000000000000000000000000000000000602082015250565b7f4f776e61626c653a206e6577206f776e657220697320746865207a65726f206160008201527f6464726573730000000000000000000000000000000000000000000000000000602082015250565b7f42696473206578697374696e6700000000000000000000000000000000000000600082015250565b7f426964206e6f7420616374697665000000000000000000000000000000000000600082015250565b7f41756374696f6e2063726561746f72206973206e6f74206e6674206f776e6572600082015250565b7f596f7520617265206e6f7420746865206f776e65720000000000000000000000600082015250565b7f43616e6e6f74206269642e204572726f7220696e2061756374696f6e00000000600082015250565b7f416e20616374697665206f6666657220616c7265616479206578697374730000600082015250565b7f4e6f7420746865206f776e657200000000000000000000000000000000000000600082015250565b7f436c61696d2061737365742066726f6d2061756374696f6e206861732070726960008201527f6f72697479000000000000000000000000000000000000000000000000000000602082015250565b7f4f776e61626c653a2063616c6c6572206973206e6f7420746865206f776e6572600082015250565b7f4e4654206e6f7420696e2061756374696f6e0000000000000000000000000000600082015250565b7f4e4654206e6f7420696e206469726563742073616c6500000000000000000000600082015250565b7f436f6d6d697373696f6e20746f6f206869676800000000000000000000000000600082015250565b50565b7f5472616e73666572206661696c65642e00000000000000000000000000000000600082015250565b7f4e4654206e6f7420617070726f76656400000000000000000000000000000000600082015250565b7f5265656e7472616e637947756172643a207265656e7472616e742063616c6c00600082015250565b600381106159de576159dd6155b5565b5b50565b6159ea8161543b565b81146159f557600080fd5b50565b615a018161545f565b8114615a0c57600080fd5b50565b615a188161549e565b8114615a2357600080fd5b5056fea264697066735822122094cb9f86c5201270a282321772bd8b8edd91e4825a1874f9f4c8a6cde93de9f664736f6c63430008040033",
  "immutableReferences": {},
  "source": "// SPDX-License-Identifier: UNLICENSED\r\npragma solidity 0.8.4;\r\n\r\n//import \"./AddressUtils.sol\";\r\nimport \"@openzeppelin/contracts/token/ERC721/ERC721.sol\";\r\nimport \"@openzeppelin/contracts/access/Ownable.sol\";\r\nimport \"./PumlNFT.sol\";\r\nimport \"./PumlStake.sol\";\r\nimport \"@openzeppelin/contracts/utils/math/SafeMath.sol\";\r\nimport \"@openzeppelin/contracts/security/ReentrancyGuard.sol\";\r\n\r\ncontract Engine is Ownable, ReentrancyGuard {\r\n    using SafeMath for uint256;\r\n    PumlStake public stakePUMLx;\r\n\r\n    constructor(address _stakeAddress) {\r\n        stakePUMLx = PumlStake(_stakeAddress);\r\n    }\r\n\r\n    event OfferCreated(\r\n        uint256 _tokenId,\r\n        address _creator,\r\n        address _asset,\r\n        uint256 numCopies,\r\n        uint256 amount,\r\n        bool isSale\r\n    );\r\n    // Event triggered when an auction is created\r\n    event AuctionCreated(\r\n        uint256 _auctionId,\r\n        address _creator,\r\n        uint256 _tokenId,\r\n        uint256 _startPrice\r\n    );\r\n    // Event triggered when an auction receives a bid\r\n    event AuctionBid(uint256 _index, address _bidder, uint256 amount);\r\n    // Event triggered when an ended auction winner claims the NFT\r\n    event Claim(uint256 auctionIndex, address claimer);\r\n    // Event triggered when an auction received a bid that implies sending funds back to previous best bidder\r\n    event ReturnBidFunds(uint256 _index, address _bidder, uint256 amount);\r\n    // Event triggered when a royalties payment is generated, either on direct sales or on auctions\r\n    event Royalties(address receiver, uint256 amount);\r\n    // Event triggered when a payment to the owner is generated, either on direct sales or on auctions.assetAddress\r\n    // This event is useful to check that all the payments funds are the right ones.\r\n    event PaymentToOwner(\r\n        address receiver,\r\n        uint256 amount,\r\n        //    uint256 paidByCustomer,\r\n        uint256 commission,\r\n        uint256 royalties,\r\n        uint256 safetyCheckValue\r\n    );\r\n    event Buy(uint256 _index, address buyer, uint256 _amount);\r\n\r\n    // Status of an auction, calculated using the start date, the duration and the current timeblock\r\n    enum Status {\r\n        pending,\r\n        active,\r\n        finished\r\n    }\r\n    // Data of an auction\r\n    struct Auction {\r\n        address assetAddress; // token address\r\n        uint256 assetId; // token id\r\n        address payable creator; // creator of the auction, which is the token owner\r\n        uint256 startTime; // time (unix, in seconds) where the auction will start\r\n        uint256 duration; // duration in seconds of the auction\r\n        uint256 currentBidAmount; // amount in ETH of the current bid amount\r\n        address payable currentBidOwner; // address of the user who places the best bid\r\n        uint256 bidCount; // number of bids of the auction\r\n    }\r\n    Auction[] public auctions;\r\n\r\n    uint256 public commission = 0; // this is the commission in basic points that will charge the marketplace by default.\r\n    uint256 public accumulatedCommission = 0; // this is the amount in ETH accumulated on marketplace wallet\r\n    uint256 public totalSales = 0;\r\n\r\n    struct Offer {\r\n        address assetAddress; // address of the token\r\n        uint256 tokenId; // the tokenId returned when calling \"createItem\"\r\n        address payable creator; // who creates the offer\r\n        uint256 price; // price of each token\r\n        bool isOnSale; // is on sale or not\r\n        bool isAuction; // is this offer is for an auction\r\n        uint256 idAuction; // the id of the auction\r\n    }\r\n    mapping(uint256 => Offer) public offers;\r\n\r\n    // Every time a token is put on sale, an offer is created. An offer can be a direct sale, an auction\r\n    // or a combination of both.\r\n    function createOffer(\r\n        address _assetAddress, // address of the token\r\n        uint256 _tokenId, // tokenId\r\n        bool _isDirectSale, // true if can be bought on a direct sale\r\n        bool _isAuction, // true if can be bought in an auction\r\n        uint256 _price, // price that if paid in a direct sale, transfers the NFT\r\n        uint256 _startPrice, // minimum price on the auction\r\n        uint256 _startTime, // time when the auction will start. Check the format with frontend\r\n        uint256 _duration // duration in seconds of the auction\r\n    ) public {\r\n        ERC721 asset = ERC721(_assetAddress);\r\n        require(asset.ownerOf(_tokenId) == msg.sender, \"Not the owner\");\r\n        require(\r\n            asset.getApproved(_tokenId) == address(this),\r\n            \"NFT not approved\"\r\n        );\r\n        // Could not be used to update an existing offer (#02)\r\n        Offer memory previous = offers[_tokenId];\r\n        require(\r\n            previous.isOnSale == false && previous.isAuction == false,\r\n            \"An active offer already exists\"\r\n        );\r\n\r\n        // First create the offer\r\n        Offer memory offer = Offer({\r\n            assetAddress: _assetAddress,\r\n            tokenId: _tokenId,\r\n            creator: payable(msg.sender),\r\n            price: _price,\r\n            isOnSale: _isDirectSale,\r\n            isAuction: _isAuction,\r\n            idAuction: 0\r\n        });\r\n        // only if the offer has the \"is_auction\" flag, add the auction to the list\r\n        if (_isAuction) {\r\n            offer.idAuction = createAuction(\r\n                _assetAddress,\r\n                _tokenId,\r\n                _startPrice,\r\n                _startTime,\r\n                _duration\r\n            );\r\n        }\r\n        offers[_tokenId] = offer;\r\n        emit OfferCreated(\r\n            _tokenId,\r\n            msg.sender,\r\n            _assetAddress,\r\n            1,\r\n            _price,\r\n            _isDirectSale\r\n        );\r\n    }\r\n\r\n    // returns the auctionId from the offerId\r\n    function getAuctionId(uint256 _tokenId) public view returns (uint256) {\r\n        Offer memory offer = offers[_tokenId];\r\n        return offer.idAuction;\r\n    }\r\n\r\n    // this method returns the current date and time of the blockchain. Used also to check the contract is alive\r\n    function ahora() public view returns (uint256) {\r\n        return block.timestamp;\r\n    }\r\n\r\n    // Remove an auction from the offer that did not have previous bids. Beware could be a direct sale\r\n    function removeFromAuction(uint256 _tokenId) public {\r\n        Offer memory offer = offers[_tokenId];\r\n        require(msg.sender == offer.creator, \"You are not the owner\");\r\n        Auction memory auction = auctions[offer.idAuction];\r\n        require(auction.bidCount == 0, \"Bids existing\");\r\n        offer.isAuction = false;\r\n        offer.idAuction = 0;\r\n        offers[_tokenId] = offer;\r\n    }\r\n\r\n    // remove a direct sale from an offer. Beware that could be an auction for the token\r\n    function removeFromSale(uint256 _tokenId) public {\r\n        Offer memory offer = offers[_tokenId];\r\n        require(msg.sender == offer.creator, \"You are not the owner\");\r\n        offer.isOnSale = false;\r\n        offers[_tokenId] = offer;\r\n    }\r\n\r\n    // Changes the default commission. Only the owner of the marketplace can do that. In basic points\r\n    function setCommission(uint256 _commission) public onlyOwner {\r\n        require(_commission <= 5000, \"Commission too high\");\r\n        commission = _commission;\r\n    }\r\n\r\n    // called in a direct sale by the customer. Transfer the nft to the customer, the royalties (if any)\r\n    // to the token creator, the commission for the marketplace is keeped on the contract and the remaining\r\n    // funds are transferred to the token owner.\r\n    // is there is an auction open, the last bid amount is sent back to the last bidder\r\n    // After that, the offer is cleared.\r\n    function buy(uint256 _tokenId, uint256 _puml) external payable nonReentrant {\r\n        address buyer = msg.sender;\r\n        uint256 paidPrice = msg.value;\r\n\r\n        Offer memory offer = offers[_tokenId];\r\n        require(offer.isOnSale == true, \"NFT not in direct sale\");\r\n        uint256 price = offer.price;\r\n        require(paidPrice >= price, \"Price is not enough\");\r\n\r\n        //if there is a bid and the auction is closed but not claimed, give priority to claim\r\n        require(\r\n            !(offer.isAuction == true &&\r\n                isFinished(offer.idAuction) &&\r\n                auctions[offer.idAuction].bidCount > 0),\r\n            \"Claim asset from auction has priority\"\r\n        );\r\n\r\n        emit Claim(_tokenId, buyer);\r\n        PumlNFT asset = PumlNFT(offer.assetAddress);\r\n        asset.safeTransferFrom(offer.creator, buyer, _tokenId);\r\n\r\n        // now, pay the amount - commission - royalties to the auction creator\r\n        address payable creatorNFT = payable(asset.getCreator(_tokenId));\r\n\r\n        uint256 commissionToPay = (paidPrice.mul(commission)) / 10000;\r\n        uint256 royaltiesToPay = 0;\r\n        if (creatorNFT != offer.creator) {\r\n            // It is a resale. Transfer royalties\r\n            royaltiesToPay =\r\n                (paidPrice.mul(asset.getRoyalties(_tokenId))) /\r\n                10000;\r\n\r\n            (bool success, ) = creatorNFT.call{value: royaltiesToPay}(\"\");\r\n            require(success, \"Transfer failed.\");\r\n\r\n            emit Royalties(creatorNFT, royaltiesToPay);\r\n        }\r\n        uint256 amountToPay = paidPrice.sub(commissionToPay).sub(\r\n            royaltiesToPay\r\n        );\r\n\r\n        (bool success2, ) = offer.creator.call{value: amountToPay}(\"\");\r\n        require(success2, \"Transfer failed.\");\r\n        emit PaymentToOwner(\r\n            offer.creator,\r\n            amountToPay,\r\n            //     paidPrice,\r\n            commissionToPay,\r\n            royaltiesToPay,\r\n            amountToPay + ((paidPrice * commission) / 10000) // using safemath will trigger an error because of stack size\r\n        );\r\n\r\n        // is there is an auction open, we have to give back the last bid amount to the last bidder\r\n        if (offer.isAuction == true) {\r\n            Auction memory auction = auctions[offer.idAuction];\r\n            // #4. Only if there is at least a bid and the bid amount > 0, give it back to last bidder\r\n            if (auction.currentBidAmount != 0 && auction.bidCount > 0) {\r\n                // return funds to the previuos bidder\r\n                (bool success3, ) = auction.currentBidOwner.call{\r\n                    value: auction.currentBidAmount\r\n                }(\"\");\r\n                require(success3, \"Transfer failed.\");\r\n                emit ReturnBidFunds(\r\n                    offer.idAuction,\r\n                    auction.currentBidOwner,\r\n                    auction.currentBidAmount\r\n                );\r\n            }\r\n        }\r\n\r\n        emit Buy(_tokenId, buyer, msg.value);\r\n\r\n        accumulatedCommission = accumulatedCommission.add(commissionToPay);\r\n\r\n        offer.isAuction = false;\r\n        offer.isOnSale = false;\r\n        offers[_tokenId] = offer;\r\n\r\n        totalSales = totalSales.add(msg.value);\r\n\r\n        stakePUMLx.setTransferPuml(buyer, offer.creator, _puml);\r\n    }\r\n\r\n    // Creates an auction for a token. It is linked to an offer\r\n    function createAuction(\r\n        address _assetAddress, // address of the PumlNFT token\r\n        uint256 _assetId, // id of the NFT\r\n        uint256 _startPrice, // minimum price\r\n        uint256 _startTime, // time when the auction will start. Check with frontend because is unix time in seconds, not millisecs!\r\n        uint256 _duration // duration in seconds of the auction\r\n    ) private returns (uint256) {\r\n        if (_startTime == 0) {\r\n            _startTime = block.timestamp;\r\n        }\r\n\r\n        Auction memory auction = Auction({\r\n            creator: payable(msg.sender),\r\n            assetAddress: _assetAddress,\r\n            assetId: _assetId,\r\n            startTime: _startTime,\r\n            duration: _duration,\r\n            currentBidAmount: _startPrice,\r\n            currentBidOwner: payable(address(0)),\r\n            bidCount: 0\r\n        });\r\n        auctions.push(auction);\r\n        uint256 index = auctions.length.sub(1);\r\n\r\n        emit AuctionCreated(index, auction.creator, _assetId, _startPrice);\r\n\r\n        return index;\r\n    }\r\n\r\n    // At the end of the call, the amount is saved on the marketplace wallet and the previous bid amount is returned to old bidder\r\n    // except in the case of the first bid, as could exists a minimum price set by the creator as first bid.\r\n    function bid(uint256 auctionIndex, uint256 _puml) public payable nonReentrant {\r\n        address bidder = msg.sender;\r\n\r\n        Auction storage auction = auctions[auctionIndex];\r\n        require(auction.creator != address(0), \"Cannot bid. Error in auction\");\r\n        require(isActive(auctionIndex), \"Bid not active\");\r\n        require(msg.value > auction.currentBidAmount, \"Bid too low\");\r\n        // we got a better bid. Return funds to the previous best bidder\r\n        // and register the sender as `currentBidOwner`\r\n\r\n        // this check is for not transferring back funds on the first bid, as the fist bid is the minimum price set by the auction creator\r\n        // and the bid owner is address(0)\r\n        if (\r\n            auction.currentBidAmount != 0 &&\r\n            auction.currentBidOwner != address(0)\r\n        ) {\r\n            // return funds to the previuos bidder\r\n            (bool success, ) = auction.currentBidOwner.call{\r\n                value: auction.currentBidAmount\r\n            }(\"\");\r\n            require(success, \"Transfer failed.\");\r\n            emit ReturnBidFunds(\r\n                auctionIndex,\r\n                auction.currentBidOwner,\r\n                auction.currentBidAmount\r\n            );\r\n        }\r\n        // register new bidder\r\n        auction.currentBidAmount = msg.value;\r\n        auction.currentBidOwner = payable(bidder);\r\n        auction.bidCount = auction.bidCount.add(1);\r\n\r\n        stakePUMLx.setDepositPuml(bidder, _puml);\r\n\r\n        emit AuctionBid(auctionIndex, bidder, msg.value);\r\n    }\r\n\r\n    function getTotalAuctions() public view returns (uint256) {\r\n        return auctions.length;\r\n    }\r\n\r\n    function isActive(uint256 _auctionIndex) public view returns (bool) {\r\n        return getStatus(_auctionIndex) == Status.active;\r\n    }\r\n\r\n    function isFinished(uint256 _auctionIndex) public view returns (bool) {\r\n        return getStatus(_auctionIndex) == Status.finished;\r\n    }\r\n\r\n    // The auctions did not be affected if the current time is 15 seconds wrong\r\n    // So, according to Consensys security advices, it is safe using block.timestamp\r\n    function getStatus(uint256 _auctionIndex) public view returns (Status) {\r\n        Auction storage auction = auctions[_auctionIndex];\r\n        if (block.timestamp < auction.startTime) {\r\n            return Status.pending;\r\n        } else if (block.timestamp < auction.startTime.add(auction.duration)) {\r\n            return Status.active;\r\n        } else {\r\n            return Status.finished;\r\n        }\r\n    }\r\n\r\n    // returns the end date of the auction, in unix time using seconds\r\n    function endDate(uint256 _auctionIndex) public view returns (uint256) {\r\n        Auction storage auction = auctions[_auctionIndex];\r\n        return auction.startTime.add(auction.duration);\r\n    }\r\n\r\n    // returns the user with the best bid until now on an auction\r\n    function getCurrentBidOwner(uint256 _auctionIndex)\r\n        public\r\n        view\r\n        returns (address)\r\n    {\r\n        return auctions[_auctionIndex].currentBidOwner;\r\n    }\r\n\r\n    // returns the amount in ETH of the best bid until now on an auction\r\n    function getCurrentBidAmount(uint256 _auctionIndex)\r\n        public\r\n        view\r\n        returns (uint256)\r\n    {\r\n        return auctions[_auctionIndex].currentBidAmount;\r\n    }\r\n\r\n    // returns the number of bids of an auction (0 by default)\r\n    function getBidCount(uint256 _auctionIndex) public view returns (uint256) {\r\n        return auctions[_auctionIndex].bidCount;\r\n    }\r\n\r\n    // returns the winner of an auction once the auction finished\r\n    function getWinner(uint256 auctionIndex) public view returns (address) {\r\n        require(isFinished(auctionIndex), \"Auction not finished yet\");\r\n        return auctions[auctionIndex].currentBidOwner;\r\n    }\r\n\r\n    // called when the auction is finished by the user who won the auction\r\n    // transfer the nft to the caller, the royalties (if any) to the nft creator\r\n    // the commission of the marketplace is calculated, and the remaining funds\r\n    // are transferred to the token owner\r\n    // After this, the offer is disabled\r\n    function closeAuction(uint256 auctionIndex) public {\r\n        //    address winner = getWinner(auctionIndex);\r\n        //    require(winner == msg.sender, \"You are not the winner of the auction\");\r\n        auctionTransferAsset(auctionIndex);\r\n    }\r\n\r\n    function automaticSetWinner(uint256 auctionIndex) public onlyOwner {\r\n        auctionTransferAsset(auctionIndex);\r\n    }\r\n\r\n    function auctionTransferAsset(uint256 auctionIndex) private nonReentrant {\r\n        // require(isFinished(auctionIndex), \"The auction is still active\");\r\n        address winner = getWinner(auctionIndex);\r\n\r\n        Auction storage auction = auctions[auctionIndex];\r\n\r\n        // the token could be sold in direct sale or the owner cancelled the auction\r\n        Offer memory offer = offers[auction.assetId];\r\n        require(offer.isAuction == true, \"NFT not in auction\");\r\n\r\n        if (auction.bidCount > 0) {\r\n            PumlNFT asset = PumlNFT(auction.assetAddress);\r\n\r\n            // #3, check if the asset owner had removed their approval or the offer creator is not the token owner anymore.\r\n            require(\r\n                asset.getApproved(auction.assetId) == address(this),\r\n                \"NFT not approved\"\r\n            );\r\n            require(\r\n                asset.ownerOf(auction.assetId) == auction.creator,\r\n                \"Auction creator is not nft owner\"\r\n            );\r\n\r\n            asset.safeTransferFrom(auction.creator, winner, auction.assetId);\r\n\r\n            emit Claim(auctionIndex, winner);\r\n\r\n            // now, pay the amount - commission - royalties to the auction creator\r\n            address payable creatorNFT = payable(\r\n                asset.getCreator(auction.assetId)\r\n            );\r\n            uint256 commissionToPay = (\r\n                auction.currentBidAmount.mul(commission)\r\n            ) / 10000;\r\n            uint256 royaltiesToPay = 0;\r\n            if (creatorNFT != auction.creator) {\r\n                // It is a resale. Transfer royalties\r\n                royaltiesToPay =\r\n                    (\r\n                        auction.currentBidAmount.mul(\r\n                            asset.getRoyalties(auction.assetId)\r\n                        )\r\n                    ) /\r\n                    10000;\r\n                creatorNFT.transfer(royaltiesToPay);\r\n                emit Royalties(creatorNFT, royaltiesToPay);\r\n            }\r\n            uint256 amountToPay = auction\r\n                .currentBidAmount\r\n                .sub(commissionToPay)\r\n                .sub(royaltiesToPay);\r\n\r\n            (bool success, ) = auction.creator.call{value: amountToPay}(\"\");\r\n            require(success, \"Transfer failed.\");\r\n            emit PaymentToOwner(\r\n                auction.creator,\r\n                amountToPay,\r\n                //  auction.currentBidAmount,\r\n                commissionToPay,\r\n                royaltiesToPay,\r\n                amountToPay + commissionToPay + royaltiesToPay\r\n            );\r\n\r\n            accumulatedCommission = accumulatedCommission.add(commissionToPay);\r\n\r\n            totalSales = totalSales.add(auction.currentBidAmount);\r\n        }\r\n\r\n        offer.isAuction = false;\r\n        offer.isOnSale = false;\r\n        offers[auction.assetId] = offer;\r\n    }\r\n\r\n    //stake NFT\r\n    \r\n    function stakeNFT(\r\n        address _assetAddress,\r\n        address _to, \r\n        uint256[] memory tokenIds,\r\n        uint256 feeward\r\n    ) external payable nonReentrant {\r\n\r\n        uint256 amount;\r\n        ERC721 token = ERC721(_assetAddress);\r\n        for (uint256 i = 0; i < tokenIds.length; i += 1) {\r\n            // Transfer user's NFTs to the staking contract\r\n            token.safeTransferFrom(msg.sender, _to, tokenIds[i]);\r\n            // Increment the amount which will be staked\r\n            amount += 1;\r\n            // Save who is the staker/depositor of the token\r\n            stakePUMLx.setStakedAssets(tokenIds[i], msg.sender);\r\n        }\r\n        stakePUMLx.setUserUpdate(msg.sender, feeward);\r\n        _stakeNFT(amount);\r\n        emit StakedNFT(msg.sender, amount, tokenIds);\r\n    }\r\n\r\n    function withdrawNFT(\r\n        address _assetAddress, \r\n        address _from, \r\n        uint256[] memory tokenIds,\r\n        uint256 feeward\r\n    ) public payable nonReentrant {\r\n\r\n        uint256 amount;\r\n        ERC721 token = ERC721(_assetAddress);\r\n        for (uint256 i = 0; i < tokenIds.length; i += 1) {\r\n            // Check if the user who withdraws is the owner\r\n            require(\r\n                stakePUMLx.getStakedAssets(tokenIds[i]) == msg.sender,\r\n                \"Staking: Not the staker of the token\"\r\n            );\r\n            // Transfer NFTs back to the owner\r\n            token.safeTransferFrom(_from, msg.sender, tokenIds[i]);\r\n            // Increment the amount which will be withdrawn\r\n            amount += 1;\r\n            // Cleanup stakedAssets for the current tokenId\r\n            stakePUMLx.setStakedAssets(tokenIds[i], address(0));\r\n        }\r\n        stakePUMLx.setUserUpdate(msg.sender, feeward);\r\n        _withdrawNFT(amount);\r\n        emit WithdrawnNFT(msg.sender, amount, tokenIds);\r\n    }\r\n\r\n    function _stakeNFT(uint256 _amount) internal {\r\n        stakePUMLx.setBalancesNFT(msg.sender, _amount, true);\r\n    }\r\n\r\n    function _withdrawNFT(uint256 _amount) internal {\r\n        stakePUMLx.setBalancesNFT(msg.sender, _amount, false);\r\n    }\r\n\r\n    event StakedNFT(address indexed user, uint256 amount, uint256[] tokenIds);\r\n    event WithdrawnNFT(address indexed user, uint256 amount, uint256[] tokenIds);\r\n}\r\n",
  "sourcePath": "F:\\work\\puml-project\\ethcontracts\\contracts\\Engine.sol",
  "compiler": {
    "name": "solc",
    "version": "0.8.4+commit.c7e474f2.Emscripten.clang"
  },
  "schemaVersion": "3.4.5",
  "updatedAt": "2022-08-29T16:57:06.939Z",
  "devdoc": {
    "kind": "dev",
    "methods": {
      "owner()": {
        "details": "Returns the address of the current owner."
      },
      "renounceOwnership()": {
        "details": "Leaves the contract without owner. It will not be possible to call `onlyOwner` functions anymore. Can only be called by the current owner. NOTE: Renouncing ownership will leave the contract without an owner, thereby removing any functionality that is only available to the owner."
      },
      "transferOwnership(address)": {
        "details": "Transfers ownership of the contract to a new account (`newOwner`). Can only be called by the current owner."
      }
    },
    "version": 1
  },
  "userdoc": {
    "kind": "user",
    "methods": {},
    "version": 1
  }
}