{
  "contractName": "PumlStake",
  "abi": [
    {
      "inputs": [],
      "stateMutability": "nonpayable",
      "type": "constructor"
    },
    {
      "anonymous": false,
      "inputs": [
        {
          "indexed": true,
          "internalType": "address",
          "name": "user",
          "type": "address"
        },
        {
          "indexed": false,
          "internalType": "uint256",
          "name": "collect",
          "type": "uint256"
        }
      ],
      "name": "Collect",
      "type": "event"
    },
    {
      "anonymous": false,
      "inputs": [
        {
          "indexed": true,
          "internalType": "address",
          "name": "previousOwner",
          "type": "address"
        },
        {
          "indexed": true,
          "internalType": "address",
          "name": "newOwner",
          "type": "address"
        }
      ],
      "name": "OwnershipTransferred",
      "type": "event"
    },
    {
      "anonymous": false,
      "inputs": [
        {
          "indexed": true,
          "internalType": "address",
          "name": "user",
          "type": "address"
        },
        {
          "indexed": false,
          "internalType": "uint256",
          "name": "reward",
          "type": "uint256"
        }
      ],
      "name": "RewardPaid",
      "type": "event"
    },
    {
      "anonymous": false,
      "inputs": [
        {
          "indexed": true,
          "internalType": "address",
          "name": "user",
          "type": "address"
        },
        {
          "indexed": false,
          "internalType": "uint256",
          "name": "amount",
          "type": "uint256"
        }
      ],
      "name": "Staked",
      "type": "event"
    },
    {
      "anonymous": false,
      "inputs": [
        {
          "indexed": true,
          "internalType": "address",
          "name": "user",
          "type": "address"
        },
        {
          "indexed": false,
          "internalType": "uint256",
          "name": "amount",
          "type": "uint256"
        }
      ],
      "name": "Withdrawn",
      "type": "event"
    },
    {
      "inputs": [
        {
          "internalType": "address",
          "name": "",
          "type": "address"
        }
      ],
      "name": "balances",
      "outputs": [
        {
          "internalType": "uint256",
          "name": "",
          "type": "uint256"
        }
      ],
      "stateMutability": "view",
      "type": "function"
    },
    {
      "inputs": [
        {
          "internalType": "address",
          "name": "",
          "type": "address"
        }
      ],
      "name": "balancesNFT",
      "outputs": [
        {
          "internalType": "uint256",
          "name": "",
          "type": "uint256"
        }
      ],
      "stateMutability": "view",
      "type": "function"
    },
    {
      "inputs": [],
      "name": "lastUpdateTime",
      "outputs": [
        {
          "internalType": "uint256",
          "name": "",
          "type": "uint256"
        }
      ],
      "stateMutability": "view",
      "type": "function"
    },
    {
      "inputs": [],
      "name": "owner",
      "outputs": [
        {
          "internalType": "address",
          "name": "",
          "type": "address"
        }
      ],
      "stateMutability": "view",
      "type": "function"
    },
    {
      "inputs": [],
      "name": "renounceOwnership",
      "outputs": [],
      "stateMutability": "nonpayable",
      "type": "function"
    },
    {
      "inputs": [],
      "name": "rewardRate",
      "outputs": [
        {
          "internalType": "uint256",
          "name": "",
          "type": "uint256"
        }
      ],
      "stateMutability": "view",
      "type": "function"
    },
    {
      "inputs": [
        {
          "internalType": "uint256",
          "name": "",
          "type": "uint256"
        }
      ],
      "name": "stakeData",
      "outputs": [
        {
          "internalType": "uint256",
          "name": "",
          "type": "uint256"
        }
      ],
      "stateMutability": "view",
      "type": "function"
    },
    {
      "inputs": [
        {
          "internalType": "uint256",
          "name": "",
          "type": "uint256"
        }
      ],
      "name": "stakedAssets",
      "outputs": [
        {
          "internalType": "address",
          "name": "",
          "type": "address"
        }
      ],
      "stateMutability": "view",
      "type": "function"
    },
    {
      "inputs": [],
      "name": "totalSupply",
      "outputs": [
        {
          "internalType": "uint256",
          "name": "",
          "type": "uint256"
        }
      ],
      "stateMutability": "view",
      "type": "function"
    },
    {
      "inputs": [
        {
          "internalType": "address",
          "name": "newOwner",
          "type": "address"
        }
      ],
      "name": "transferOwnership",
      "outputs": [],
      "stateMutability": "nonpayable",
      "type": "function"
    },
    {
      "inputs": [
        {
          "internalType": "address",
          "name": "",
          "type": "address"
        }
      ],
      "name": "userFeeReward",
      "outputs": [
        {
          "internalType": "uint256",
          "name": "",
          "type": "uint256"
        }
      ],
      "stateMutability": "view",
      "type": "function"
    },
    {
      "inputs": [
        {
          "internalType": "address",
          "name": "",
          "type": "address"
        }
      ],
      "name": "userFeewardStored",
      "outputs": [
        {
          "internalType": "uint256",
          "name": "",
          "type": "uint256"
        }
      ],
      "stateMutability": "view",
      "type": "function"
    },
    {
      "inputs": [
        {
          "internalType": "address",
          "name": "",
          "type": "address"
        }
      ],
      "name": "userLastReward",
      "outputs": [
        {
          "internalType": "uint256",
          "name": "",
          "type": "uint256"
        }
      ],
      "stateMutability": "view",
      "type": "function"
    },
    {
      "inputs": [
        {
          "internalType": "address",
          "name": "",
          "type": "address"
        }
      ],
      "name": "userLastUpdateTime",
      "outputs": [
        {
          "internalType": "uint256",
          "name": "",
          "type": "uint256"
        }
      ],
      "stateMutability": "view",
      "type": "function"
    },
    {
      "inputs": [
        {
          "internalType": "address",
          "name": "",
          "type": "address"
        }
      ],
      "name": "userLastUpdateTimeFeeward",
      "outputs": [
        {
          "internalType": "uint256",
          "name": "",
          "type": "uint256"
        }
      ],
      "stateMutability": "view",
      "type": "function"
    },
    {
      "inputs": [
        {
          "internalType": "address",
          "name": "",
          "type": "address"
        }
      ],
      "name": "userLastUpdateTimeStake",
      "outputs": [
        {
          "internalType": "uint256",
          "name": "",
          "type": "uint256"
        }
      ],
      "stateMutability": "view",
      "type": "function"
    },
    {
      "inputs": [
        {
          "internalType": "address",
          "name": "",
          "type": "address"
        }
      ],
      "name": "userRewardPaid",
      "outputs": [
        {
          "internalType": "uint256",
          "name": "",
          "type": "uint256"
        }
      ],
      "stateMutability": "view",
      "type": "function"
    },
    {
      "inputs": [
        {
          "internalType": "address",
          "name": "",
          "type": "address"
        }
      ],
      "name": "userRewardStored",
      "outputs": [
        {
          "internalType": "uint256",
          "name": "",
          "type": "uint256"
        }
      ],
      "stateMutability": "view",
      "type": "function"
    },
    {
      "inputs": [
        {
          "internalType": "uint256",
          "name": "_tokenId",
          "type": "uint256"
        }
      ],
      "name": "getStakedAssets",
      "outputs": [
        {
          "internalType": "address",
          "name": "",
          "type": "address"
        }
      ],
      "stateMutability": "view",
      "type": "function"
    },
    {
      "inputs": [
        {
          "internalType": "uint256",
          "name": "_tokenId",
          "type": "uint256"
        },
        {
          "internalType": "address",
          "name": "_address",
          "type": "address"
        }
      ],
      "name": "setStakedAssets",
      "outputs": [],
      "stateMutability": "nonpayable",
      "type": "function"
    },
    {
      "inputs": [
        {
          "internalType": "address",
          "name": "_address",
          "type": "address"
        },
        {
          "internalType": "uint256",
          "name": "_amount",
          "type": "uint256"
        },
        {
          "internalType": "bool",
          "name": "param",
          "type": "bool"
        }
      ],
      "name": "setBalancesNFT",
      "outputs": [],
      "stateMutability": "nonpayable",
      "type": "function"
    },
    {
      "inputs": [
        {
          "internalType": "address",
          "name": "account",
          "type": "address"
        },
        {
          "internalType": "uint256",
          "name": "collect",
          "type": "uint256"
        },
        {
          "internalType": "uint256",
          "name": "feeward",
          "type": "uint256"
        }
      ],
      "name": "setUserRewardUpdate",
      "outputs": [],
      "stateMutability": "nonpayable",
      "type": "function"
    },
    {
      "inputs": [],
      "name": "lastTimeRewardApplicable",
      "outputs": [
        {
          "internalType": "uint256",
          "name": "",
          "type": "uint256"
        }
      ],
      "stateMutability": "view",
      "type": "function"
    },
    {
      "inputs": [
        {
          "internalType": "address",
          "name": "account",
          "type": "address"
        }
      ],
      "name": "getRewardData",
      "outputs": [
        {
          "components": [
            {
              "internalType": "uint256",
              "name": "lastUpdateTime",
              "type": "uint256"
            },
            {
              "internalType": "uint256",
              "name": "userLastUpdateTime",
              "type": "uint256"
            },
            {
              "internalType": "uint256",
              "name": "userLastUpdateTimeStake",
              "type": "uint256"
            },
            {
              "internalType": "uint256",
              "name": "userLastUpdateTimeFeeward",
              "type": "uint256"
            },
            {
              "internalType": "uint256",
              "name": "userRewardStored",
              "type": "uint256"
            },
            {
              "internalType": "uint256",
              "name": "userFeewardStored",
              "type": "uint256"
            },
            {
              "internalType": "uint256",
              "name": "balances",
              "type": "uint256"
            },
            {
              "internalType": "uint256",
              "name": "totalBalances",
              "type": "uint256"
            },
            {
              "internalType": "uint256",
              "name": "balancesNFT",
              "type": "uint256"
            },
            {
              "internalType": "uint256",
              "name": "userRewardPaid",
              "type": "uint256"
            }
          ],
          "internalType": "struct PumlStake.StakeData",
          "name": "",
          "type": "tuple"
        }
      ],
      "stateMutability": "view",
      "type": "function"
    },
    {
      "inputs": [
        {
          "internalType": "address",
          "name": "_from",
          "type": "address"
        },
        {
          "internalType": "address",
          "name": "_to",
          "type": "address"
        },
        {
          "internalType": "uint256",
          "name": "_amount",
          "type": "uint256"
        }
      ],
      "name": "setTransferPuml",
      "outputs": [],
      "stateMutability": "nonpayable",
      "type": "function"
    },
    {
      "inputs": [
        {
          "internalType": "address",
          "name": "_from",
          "type": "address"
        },
        {
          "internalType": "uint256",
          "name": "_amount",
          "type": "uint256"
        }
      ],
      "name": "setDepositPuml",
      "outputs": [],
      "stateMutability": "nonpayable",
      "type": "function"
    },
    {
      "inputs": [
        {
          "internalType": "uint256",
          "name": "amount",
          "type": "uint256"
        },
        {
          "internalType": "uint256",
          "name": "collect",
          "type": "uint256"
        },
        {
          "internalType": "uint256",
          "name": "feeward",
          "type": "uint256"
        },
        {
          "internalType": "uint256",
          "name": "stakeamount",
          "type": "uint256"
        }
      ],
      "name": "stake",
      "outputs": [],
      "stateMutability": "payable",
      "type": "function"
    },
    {
      "inputs": [
        {
          "internalType": "uint256",
          "name": "amount",
          "type": "uint256"
        },
        {
          "internalType": "uint256",
          "name": "collect",
          "type": "uint256"
        },
        {
          "internalType": "uint256",
          "name": "feeward",
          "type": "uint256"
        },
        {
          "internalType": "uint256",
          "name": "unstakeamount",
          "type": "uint256"
        }
      ],
      "name": "withdraw",
      "outputs": [],
      "stateMutability": "payable",
      "type": "function"
    },
    {
      "inputs": [
        {
          "internalType": "uint256",
          "name": "feeward",
          "type": "uint256"
        },
        {
          "internalType": "uint256",
          "name": "collect",
          "type": "uint256"
        }
      ],
      "name": "getCollect",
      "outputs": [],
      "stateMutability": "payable",
      "type": "function"
    },
    {
      "inputs": [
        {
          "internalType": "uint256",
          "name": "reward",
          "type": "uint256"
        },
        {
          "internalType": "uint256",
          "name": "collect",
          "type": "uint256"
        },
        {
          "internalType": "uint256",
          "name": "feeward",
          "type": "uint256"
        }
      ],
      "name": "getReward",
      "outputs": [],
      "stateMutability": "payable",
      "type": "function"
    },
    {
      "inputs": [
        {
          "internalType": "address",
          "name": "_to",
          "type": "address"
        },
        {
          "internalType": "uint256",
          "name": "_amount",
          "type": "uint256"
        }
      ],
      "name": "transferPuml",
      "outputs": [],
      "stateMutability": "payable",
      "type": "function"
    },
    {
      "inputs": [
        {
          "internalType": "address",
          "name": "_to",
          "type": "address"
        },
        {
          "internalType": "uint256",
          "name": "_amount",
          "type": "uint256"
        }
      ],
      "name": "pickPuml",
      "outputs": [],
      "stateMutability": "payable",
      "type": "function"
    },
    {
      "inputs": [
        {
          "internalType": "uint256",
          "name": "_amount",
          "type": "uint256"
        }
      ],
      "name": "depositPuml",
      "outputs": [],
      "stateMutability": "payable",
      "type": "function"
    }
  ],
  "bytecode": "0x6080604052600a6003553480156200001657600080fd5b50620000376200002b6200009960201b60201c565b620000a160201b60201c565b6001808190555073bc75ecc12c77506dcfd70113b15683a9a0768ab4600260006101000a81548173ffffffffffffffffffffffffffffffffffffffff021916908373ffffffffffffffffffffffffffffffffffffffff16021790555062000165565b600033905090565b60008060009054906101000a900473ffffffffffffffffffffffffffffffffffffffff169050816000806101000a81548173ffffffffffffffffffffffffffffffffffffffff021916908373ffffffffffffffffffffffffffffffffffffffff1602179055508173ffffffffffffffffffffffffffffffffffffffff168173ffffffffffffffffffffffffffffffffffffffff167f8be0079c531659141344cd1fd0a4f28419497f9722a3daafe3b4186f6b6457e060405160405180910390a35050565b6127a780620001756000396000f3fe6080604052600436106101ee5760003560e01c80637b0a47ee1161010d578063ba14f26a116100a0578063ce93a8821161006f578063ce93a88214610716578063d17f742a14610732578063e856ee481461076f578063f2fde38b146107ac578063f47cbe17146107d5576101ee565b8063ba14f26a14610648578063bcb4fa4214610685578063c5fc82a1146106ae578063c8f33c91146106eb576101ee565b80638da5cb5b116100dc5780638da5cb5b1461059b5780639d756a8d146105c6578063aeb640f1146105ef578063b3ddcb791461062c576101ee565b80637b0a47ee146104cb5780637d8fc88e146104f657806380faa57d146105335780638107368b1461055e576101ee565b80633cbdef13116101855780634a90bc3f116101545780634a90bc3f146104325780635db8de191461046f578063674fb1b414610498578063715018a6146104b4576101ee565b80633cbdef13146103875780633dfc7087146103a3578063451831e4146103cc5780634595242d14610409576101ee565b80630bacec21116101c15780630bacec21146102c657806318160ddd146102e257806327e235e31461030d5780633a42b0531461034a576101ee565b80630190b2c2146101f35780630223705e1461020f5780630723d60d1461024c57806307c217ec14610289575b600080fd5b61020d60048036038101906102089190611f8b565b6107f1565b005b34801561021b57600080fd5b5061023660048036038101906102319190611f13565b61093f565b60405161024391906124c0565b60405180910390f35b34801561025857600080fd5b50610273600480360381019061026e9190611f13565b610957565b60405161028091906124c0565b60405180910390f35b34801561029557600080fd5b506102b060048036038101906102ab9190611f13565b61096f565b6040516102bd91906124c0565b60405180910390f35b6102e060048036038101906102db919061212f565b610987565b005b3480156102ee57600080fd5b506102f7610b34565b60405161030491906124c0565b60405180910390f35b34801561031957600080fd5b50610334600480360381019061032f9190611f13565b610b3a565b60405161034191906124c0565b60405180910390f35b34801561035657600080fd5b50610371600480360381019061036c919061208e565b610b52565b60405161037e9190612389565b60405180910390f35b6103a1600480360381019061039c91906120f3565b610b8f565b005b3480156103af57600080fd5b506103ca60048036038101906103c59190611f3c565b610c4b565b005b3480156103d857600080fd5b506103f360048036038101906103ee9190611f13565b610d45565b60405161040091906124a4565b60405180910390f35b34801561041557600080fd5b50610430600480360381019061042b9190612016565b610fa1565b005b34801561043e57600080fd5b506104596004803603810190610454919061208e565b610ffc565b60405161046691906124c0565b60405180910390f35b34801561047b57600080fd5b5061049660048036038101906104919190611fc7565b611020565b005b6104b260048036038101906104ad919061217e565b6110dd565b005b3480156104c057600080fd5b506104c961124a565b005b3480156104d757600080fd5b506104e06112d2565b6040516104ed91906124c0565b60405180910390f35b34801561050257600080fd5b5061051d6004803603810190610518919061208e565b6112d8565b60405161052a9190612389565b60405180910390f35b34801561053f57600080fd5b5061054861130b565b60405161055591906124c0565b60405180910390f35b34801561056a57600080fd5b5061058560048036038101906105809190611f13565b611313565b60405161059291906124c0565b60405180910390f35b3480156105a757600080fd5b506105b061132b565b6040516105bd9190612389565b60405180910390f35b3480156105d257600080fd5b506105ed60048036038101906105e89190611f8b565b611354565b005b3480156105fb57600080fd5b5061061660048036038101906106119190611f13565b61144d565b60405161062391906124c0565b60405180910390f35b6106466004803603810190610641919061208e565b611465565b005b34801561065457600080fd5b5061066f600480360381019061066a9190611f13565b6115b2565b60405161067c91906124c0565b60405180910390f35b34801561069157600080fd5b506106ac60048036038101906106a791906120b7565b6115ca565b005b3480156106ba57600080fd5b506106d560048036038101906106d09190611f13565b611620565b6040516106e291906124c0565b60405180910390f35b3480156106f757600080fd5b50610700611638565b60405161070d91906124c0565b60405180910390f35b610730600480360381019061072b919061217e565b61163e565b005b34801561073e57600080fd5b5061075960048036038101906107549190611f13565b6117ae565b60405161076691906124c0565b60405180910390f35b34801561077b57600080fd5b5061079660048036038101906107919190611f13565b6117c6565b6040516107a391906124c0565b60405180910390f35b3480156107b857600080fd5b506107d360048036038101906107ce9190611f13565b6117de565b005b6107ef60048036038101906107ea9190611f8b565b6118d6565b005b60026001541415610837576040517f08c379a000000000000000000000000000000000000000000000000000000000815260040161082e90612484565b60405180910390fd5b600260018190555060008111610882576040517f08c379a000000000000000000000000000000000000000000000000000000000815260040161087990612424565b60405180910390fd5b600260009054906101000a900473ffffffffffffffffffffffffffffffffffffffff1673ffffffffffffffffffffffffffffffffffffffff166323b872dd3384846040518463ffffffff1660e01b81526004016108e1939291906123a4565b602060405180830381600087803b1580156108fb57600080fd5b505af115801561090f573d6000803e3d6000fd5b505050506040513d601f19601f820116820180604052508101906109339190612065565b50600180819055505050565b60106020528060005260406000206000915090505481565b600c6020528060005260406000206000915090505481565b60096020528060005260406000206000915090505481565b600260015414156109cd576040517f08c379a00000000000000000000000000000000000000000000000000000000081526004016109c490612484565b60405180910390fd5b60026001819055506000831115610b28576109e9338383611a22565b82600960003373ffffffffffffffffffffffffffffffffffffffff1673ffffffffffffffffffffffffffffffffffffffff1681526020019081526020016000206000828254610a389190612542565b9250508190555082600a60003373ffffffffffffffffffffffffffffffffffffffff1673ffffffffffffffffffffffffffffffffffffffff1681526020019081526020016000208190555082600b60003373ffffffffffffffffffffffffffffffffffffffff1673ffffffffffffffffffffffffffffffffffffffff1681526020019081526020016000206000828254610ad291906124ec565b925050819055503373ffffffffffffffffffffffffffffffffffffffff167fe2403640ba68fed3a2f88b7557551d1993f84b99bb10ff833f0cf8db0c5e048684604051610b1f91906124c0565b60405180910390a25b60018081905550505050565b600e5481565b600f6020528060005260406000206000915090505481565b60006011600083815260200190815260200160002060009054906101000a900473ffffffffffffffffffffffffffffffffffffffff169050919050565b60026001541415610bd5576040517f08c379a0000000000000000000000000000000000000000000000000000000008152600401610bcc90612484565b60405180910390fd5b60026001819055506000811115610c4057610bf1338383611b69565b3373ffffffffffffffffffffffffffffffffffffffff167f4256a058fa2b123d727576d3d31e3a272db98ee5fe264e229610ce43dc84999982604051610c3791906124c0565b60405180910390a25b600180819055505050565b60008111610c8e576040517f08c379a0000000000000000000000000000000000000000000000000000000008152600401610c8590612424565b60405180910390fd5b600260009054906101000a900473ffffffffffffffffffffffffffffffffffffffff1673ffffffffffffffffffffffffffffffffffffffff166323b872dd8484846040518463ffffffff1660e01b8152600401610ced939291906123a4565b602060405180830381600087803b158015610d0757600080fd5b505af1158015610d1b573d6000803e3d6000fd5b505050506040513d601f19601f82011682018060405250810190610d3f9190612065565b50505050565b610d4d611e6c565b6000604051806101400160405280610d6361130b565b8152602001600660008673ffffffffffffffffffffffffffffffffffffffff1673ffffffffffffffffffffffffffffffffffffffff168152602001908152602001600020548152602001600860008673ffffffffffffffffffffffffffffffffffffffff1673ffffffffffffffffffffffffffffffffffffffff168152602001908152602001600020548152602001600760008673ffffffffffffffffffffffffffffffffffffffff1673ffffffffffffffffffffffffffffffffffffffff168152602001908152602001600020548152602001600960008673ffffffffffffffffffffffffffffffffffffffff1673ffffffffffffffffffffffffffffffffffffffff168152602001908152602001600020548152602001600c60008673ffffffffffffffffffffffffffffffffffffffff1673ffffffffffffffffffffffffffffffffffffffff168152602001908152602001600020548152602001600f60008673ffffffffffffffffffffffffffffffffffffffff1673ffffffffffffffffffffffffffffffffffffffff168152602001908152602001600020548152602001600e548152602001601060008673ffffffffffffffffffffffffffffffffffffffff1673ffffffffffffffffffffffffffffffffffffffff168152602001908152602001600020548152602001600b60008673ffffffffffffffffffffffffffffffffffffffff1673ffffffffffffffffffffffffffffffffffffffff16815260200190815260200160002054815250905080915050919050565b610fac838383611a22565b610fb461130b565b600860008573ffffffffffffffffffffffffffffffffffffffff1673ffffffffffffffffffffffffffffffffffffffff16815260200190815260200160002081905550505050565b6005818154811061100c57600080fd5b906000526020600020016000915090505481565b80156110815781601060008573ffffffffffffffffffffffffffffffffffffffff1673ffffffffffffffffffffffffffffffffffffffff168152602001908152602001600020600082825461107591906124ec565b925050819055506110d8565b81601060008573ffffffffffffffffffffffffffffffffffffffff1673ffffffffffffffffffffffffffffffffffffffff16815260200190815260200160002060008282546110d09190612542565b925050819055505b505050565b60026001541415611123576040517f08c379a000000000000000000000000000000000000000000000000000000000815260040161111a90612484565b60405180910390fd5b600260018190555061113484611cbb565b61113f338484610fa1565b3373ffffffffffffffffffffffffffffffffffffffff167f7084f5476618d8e60b11ef0d7d3f06914655adb8793e28ff7f018d4c76d505d58560405161118591906124c0565b60405180910390a2600260009054906101000a900473ffffffffffffffffffffffffffffffffffffffff1673ffffffffffffffffffffffffffffffffffffffff1663a9059cbb33836040518363ffffffff1660e01b81526004016111ea9291906123db565b602060405180830381600087803b15801561120457600080fd5b505af1158015611218573d6000803e3d6000fd5b505050506040513d601f19601f8201168201806040525081019061123c9190612065565b506001808190555050505050565b611252611d2d565b73ffffffffffffffffffffffffffffffffffffffff1661127061132b565b73ffffffffffffffffffffffffffffffffffffffff16146112c6576040517f08c379a00000000000000000000000000000000000000000000000000000000081526004016112bd90612444565b60405180910390fd5b6112d06000611d35565b565b60035481565b60116020528060005260406000206000915054906101000a900473ffffffffffffffffffffffffffffffffffffffff1681565b600042905090565b60066020528060005260406000206000915090505481565b60008060009054906101000a900473ffffffffffffffffffffffffffffffffffffffff16905090565b60008111611397576040517f08c379a000000000000000000000000000000000000000000000000000000000815260040161138e90612464565b60405180910390fd5b600260009054906101000a900473ffffffffffffffffffffffffffffffffffffffff1673ffffffffffffffffffffffffffffffffffffffff166323b872dd8330846040518463ffffffff1660e01b81526004016113f6939291906123a4565b602060405180830381600087803b15801561141057600080fd5b505af1158015611424573d6000803e3d6000fd5b505050506040513d601f19601f820116820180604052508101906114489190612065565b505050565b60076020528060005260406000206000915090505481565b600260015414156114ab576040517f08c379a00000000000000000000000000000000000000000000000000000000081526004016114a290612484565b60405180910390fd5b6002600181905550600081116114f6576040517f08c379a00000000000000000000000000000000000000000000000000000000081526004016114ed90612464565b60405180910390fd5b600260009054906101000a900473ffffffffffffffffffffffffffffffffffffffff1673ffffffffffffffffffffffffffffffffffffffff166323b872dd3330846040518463ffffffff1660e01b8152600401611555939291906123a4565b602060405180830381600087803b15801561156f57600080fd5b505af1158015611583573d6000803e3d6000fd5b505050506040513d601f19601f820116820180604052508101906115a79190612065565b506001808190555050565b600b6020528060005260406000206000915090505481565b806011600084815260200190815260200160002060006101000a81548173ffffffffffffffffffffffffffffffffffffffff021916908373ffffffffffffffffffffffffffffffffffffffff1602179055505050565b60086020528060005260406000206000915090505481565b60045481565b60026001541415611684576040517f08c379a000000000000000000000000000000000000000000000000000000000815260040161167b90612484565b60405180910390fd5b60026001819055506116968433611df9565b6116a1338484610fa1565b3373ffffffffffffffffffffffffffffffffffffffff167f9e71bc8eea02a63969f509818f2dafb9254532904319f9dbda79b67bd34a5f3d856040516116e791906124c0565b60405180910390a2600260009054906101000a900473ffffffffffffffffffffffffffffffffffffffff1673ffffffffffffffffffffffffffffffffffffffff166323b872dd3330846040518463ffffffff1660e01b815260040161174e939291906123a4565b602060405180830381600087803b15801561176857600080fd5b505af115801561177c573d6000803e3d6000fd5b505050506040513d601f19601f820116820180604052508101906117a09190612065565b506001808190555050505050565b600a6020528060005260406000206000915090505481565b600d6020528060005260406000206000915090505481565b6117e6611d2d565b73ffffffffffffffffffffffffffffffffffffffff1661180461132b565b73ffffffffffffffffffffffffffffffffffffffff161461185a576040517f08c379a000000000000000000000000000000000000000000000000000000000815260040161185190612444565b60405180910390fd5b600073ffffffffffffffffffffffffffffffffffffffff168173ffffffffffffffffffffffffffffffffffffffff1614156118ca576040517f08c379a00000000000000000000000000000000000000000000000000000000081526004016118c190612404565b60405180910390fd5b6118d381611d35565b50565b6002600154141561191c576040517f08c379a000000000000000000000000000000000000000000000000000000000815260040161191390612484565b60405180910390fd5b600260018190555060008111611967576040517f08c379a000000000000000000000000000000000000000000000000000000000815260040161195e90612424565b60405180910390fd5b600260009054906101000a900473ffffffffffffffffffffffffffffffffffffffff1673ffffffffffffffffffffffffffffffffffffffff1663a9059cbb83836040518363ffffffff1660e01b81526004016119c49291906123db565b602060405180830381600087803b1580156119de57600080fd5b505af11580156119f2573d6000803e3d6000fd5b505050506040513d601f19601f82011682018060405250810190611a169190612065565b50600180819055505050565b81600960008573ffffffffffffffffffffffffffffffffffffffff1673ffffffffffffffffffffffffffffffffffffffff1681526020019081526020016000206000828254611a7191906124ec565b9250508190555080600c60008573ffffffffffffffffffffffffffffffffffffffff1673ffffffffffffffffffffffffffffffffffffffff1681526020019081526020016000206000828254611ac791906124ec565b92505081905550611ad661130b565b600660008573ffffffffffffffffffffffffffffffffffffffff1673ffffffffffffffffffffffffffffffffffffffff16815260200190815260200160002081905550611b2161130b565b600760008573ffffffffffffffffffffffffffffffffffffffff1673ffffffffffffffffffffffffffffffffffffffff16815260200190815260200160002081905550505050565b80600960008573ffffffffffffffffffffffffffffffffffffffff1673ffffffffffffffffffffffffffffffffffffffff1681526020019081526020016000206000828254611bb891906124ec565b9250508190555081600c60008573ffffffffffffffffffffffffffffffffffffffff1673ffffffffffffffffffffffffffffffffffffffff1681526020019081526020016000206000828254611c0e91906124ec565b9250508190555080600c60008573ffffffffffffffffffffffffffffffffffffffff1673ffffffffffffffffffffffffffffffffffffffff1681526020019081526020016000206000828254611c649190612542565b92505081905550611c7361130b565b600760008573ffffffffffffffffffffffffffffffffffffffff1673ffffffffffffffffffffffffffffffffffffffff16815260200190815260200160002081905550505050565b80600e6000828254611ccd9190612542565b9250508190555080600f60003373ffffffffffffffffffffffffffffffffffffffff1673ffffffffffffffffffffffffffffffffffffffff1681526020019081526020016000206000828254611d239190612542565b9250508190555050565b600033905090565b60008060009054906101000a900473ffffffffffffffffffffffffffffffffffffffff169050816000806101000a81548173ffffffffffffffffffffffffffffffffffffffff021916908373ffffffffffffffffffffffffffffffffffffffff1602179055508173ffffffffffffffffffffffffffffffffffffffff168173ffffffffffffffffffffffffffffffffffffffff167f8be0079c531659141344cd1fd0a4f28419497f9722a3daafe3b4186f6b6457e060405160405180910390a35050565b81600e6000828254611e0b91906124ec565b9250508190555081600f60008373ffffffffffffffffffffffffffffffffffffffff1673ffffffffffffffffffffffffffffffffffffffff1681526020019081526020016000206000828254611e6191906124ec565b925050819055505050565b604051806101400160405280600081526020016000815260200160008152602001600081526020016000815260200160008152602001600081526020016000815260200160008152602001600081525090565b600081359050611ece8161272c565b92915050565b600081359050611ee381612743565b92915050565b600081519050611ef881612743565b92915050565b600081359050611f0d8161275a565b92915050565b600060208284031215611f2557600080fd5b6000611f3384828501611ebf565b91505092915050565b600080600060608486031215611f5157600080fd5b6000611f5f86828701611ebf565b9350506020611f7086828701611ebf565b9250506040611f8186828701611efe565b9150509250925092565b60008060408385031215611f9e57600080fd5b6000611fac85828601611ebf565b9250506020611fbd85828601611efe565b9150509250929050565b600080600060608486031215611fdc57600080fd5b6000611fea86828701611ebf565b9350506020611ffb86828701611efe565b925050604061200c86828701611ed4565b9150509250925092565b60008060006060848603121561202b57600080fd5b600061203986828701611ebf565b935050602061204a86828701611efe565b925050604061205b86828701611efe565b9150509250925092565b60006020828403121561207757600080fd5b600061208584828501611ee9565b91505092915050565b6000602082840312156120a057600080fd5b60006120ae84828501611efe565b91505092915050565b600080604083850312156120ca57600080fd5b60006120d885828601611efe565b92505060206120e985828601611ebf565b9150509250929050565b6000806040838503121561210657600080fd5b600061211485828601611efe565b925050602061212585828601611efe565b9150509250929050565b60008060006060848603121561214457600080fd5b600061215286828701611efe565b935050602061216386828701611efe565b925050604061217486828701611efe565b9150509250925092565b6000806000806080858703121561219457600080fd5b60006121a287828801611efe565b94505060206121b387828801611efe565b93505060406121c487828801611efe565b92505060606121d587828801611efe565b91505092959194509250565b6121ea81612576565b82525050565b60006121fd6026836124db565b9150612208826125ed565b604082019050919050565b60006122206029836124db565b915061222b8261263c565b604082019050919050565b60006122436020836124db565b915061224e8261268b565b602082019050919050565b60006122666029836124db565b9150612271826126b4565b604082019050919050565b6000612289601f836124db565b915061229482612703565b602082019050919050565b610140820160008201516122b6600085018261236b565b5060208201516122c9602085018261236b565b5060408201516122dc604085018261236b565b5060608201516122ef606085018261236b565b506080820151612302608085018261236b565b5060a082015161231560a085018261236b565b5060c082015161232860c085018261236b565b5060e082015161233b60e085018261236b565b5061010082015161235061010085018261236b565b5061012082015161236561012085018261236b565b50505050565b612374816125b4565b82525050565b612383816125b4565b82525050565b600060208201905061239e60008301846121e1565b92915050565b60006060820190506123b960008301866121e1565b6123c660208301856121e1565b6123d3604083018461237a565b949350505050565b60006040820190506123f060008301856121e1565b6123fd602083018461237a565b9392505050565b6000602082019050818103600083015261241d816121f0565b9050919050565b6000602082019050818103600083015261243d81612213565b9050919050565b6000602082019050818103600083015261245d81612236565b9050919050565b6000602082019050818103600083015261247d81612259565b9050919050565b6000602082019050818103600083015261249d8161227c565b9050919050565b6000610140820190506124ba600083018461229f565b92915050565b60006020820190506124d5600083018461237a565b92915050565b600082825260208201905092915050565b60006124f7826125b4565b9150612502836125b4565b9250827fffffffffffffffffffffffffffffffffffffffffffffffffffffffffffffffff03821115612537576125366125be565b5b828201905092915050565b600061254d826125b4565b9150612558836125b4565b92508282101561256b5761256a6125be565b5b828203905092915050565b600061258182612594565b9050919050565b60008115159050919050565b600073ffffffffffffffffffffffffffffffffffffffff82169050919050565b6000819050919050565b7f4e487b7100000000000000000000000000000000000000000000000000000000600052601160045260246000fd5b7f4f776e61626c653a206e6577206f776e657220697320746865207a65726f206160008201527f6464726573730000000000000000000000000000000000000000000000000000602082015250565b7f596f75206e65656420746f207472616e73666572206174206c6561737420736f60008201527f6d6520746f6b656e730000000000000000000000000000000000000000000000602082015250565b7f4f776e61626c653a2063616c6c6572206973206e6f7420746865206f776e6572600082015250565b7f596f75206e65656420746f206465706f73697465206174206c6561737420736f60008201527f6d6520746f6b656e730000000000000000000000000000000000000000000000602082015250565b7f5265656e7472616e637947756172643a207265656e7472616e742063616c6c00600082015250565b61273581612576565b811461274057600080fd5b50565b61274c81612588565b811461275757600080fd5b50565b612763816125b4565b811461276e57600080fd5b5056fea264697066735822122057a9b63b218bbe1584bce86528b193c71b5eaa1fda275fcaa99c1cc1196fe04264736f6c63430008040033",
  "immutableReferences": {},
  "source": "// SPDX-License-Identifier: UNLICENSED\r\npragma solidity 0.8.4;\r\n\r\nimport \"@openzeppelin/contracts/token/ERC721/ERC721.sol\";\r\nimport \"@openzeppelin/contracts/token/ERC20/IERC20.sol\";\r\nimport \"@openzeppelin/contracts/access/Ownable.sol\";\r\nimport \"@openzeppelin/contracts/utils/math/SafeMath.sol\";\r\nimport \"@openzeppelin/contracts/security/ReentrancyGuard.sol\";\r\n\r\ncontract PumlStake is Ownable, ReentrancyGuard {\r\n\r\n    IERC20 _puml;\r\n\r\n    constructor() {\r\n        _puml = IERC20(0xbc75ECc12c77506DCFd70113B15683A9a0768AB4);\r\n    }\r\n\r\n    using SafeMath for uint256;\r\n\r\n    /* ========== STATE VARIABLES ========== */\r\n\r\n    uint256 public rewardRate = 10;\r\n    uint256 public lastUpdateTime;\r\n    uint256[] public stakeData;\r\n\r\n    mapping(address => uint256) public userLastUpdateTime;\r\n    mapping(address => uint256) public userLastUpdateTimeFeeward;\r\n    mapping(address => uint256) public userLastUpdateTimeStake;\r\n    mapping(address => uint256) public userRewardStored;\r\n    mapping(address => uint256) public userLastReward;\r\n    mapping(address => uint256) public userRewardPaid;\r\n    mapping(address => uint256) public userFeewardStored;\r\n    mapping(address => uint256) public userFeeReward;\r\n\r\n    uint256 public totalSupply;\r\n    mapping(address => uint256) public balances;\r\n    mapping(address => uint256) public balancesNFT;\r\n    mapping(uint256 => address) public stakedAssets;\r\n\r\n    struct StakeData {\r\n        uint256 lastUpdateTime;\r\n        uint256 userLastUpdateTime;\r\n        uint256 userLastUpdateTimeStake;\r\n        uint256 userLastUpdateTimeFeeward;\r\n        uint256 userRewardStored;\r\n        uint256 userFeewardStored;\r\n        uint256 balances;\r\n        uint256 totalBalances;\r\n        uint256 balancesNFT;\r\n        uint256 userRewardPaid;\r\n    }\r\n\r\n\r\n\r\n    /* ========== VIEWS ========== */\r\n\r\n    function getStakedAssets(uint256 _tokenId) public view returns (address) {\r\n        return stakedAssets[_tokenId];\r\n    }\r\n\r\n    function setStakedAssets(uint256 _tokenId, address _address) public {\r\n        stakedAssets[_tokenId] = _address;\r\n    }\r\n\r\n    function setBalancesNFT(address _address, uint256 _amount, bool param) public {\r\n        if (param) {\r\n            balancesNFT[_address] += _amount;\r\n        } else {\r\n            balancesNFT[_address] -= _amount;\r\n        }\r\n    }\r\n\r\n    function setUserRewardUpdate(address account, uint256 collect, uint256 feeward) public {\r\n        _updatePerUser(account, collect, feeward);\r\n        userLastUpdateTimeStake[account] = lastTimeRewardApplicable();\r\n    }\r\n\r\n    function lastTimeRewardApplicable() public view returns (uint256) {\r\n        return block.timestamp;\r\n    }\r\n\r\n    function _updatePerUser(address account, uint256 collect, uint256 feeward) internal {\r\n        userRewardStored[account] += collect;\r\n        userFeewardStored[account] += feeward;\r\n        userLastUpdateTime[account] = lastTimeRewardApplicable();\r\n        userLastUpdateTimeFeeward[account] = lastTimeRewardApplicable();\r\n    }\r\n\r\n    function _feewardPerUser(address account, uint256 feeward, uint256 collect) internal {\r\n        userRewardStored[account] += collect;\r\n        userFeewardStored[account] += feeward;\r\n        userFeewardStored[account] -= collect;\r\n        userLastUpdateTimeFeeward[account] = lastTimeRewardApplicable();\r\n    }\r\n\r\n    function getRewardData(address account) public view returns (StakeData memory) {\r\n        StakeData memory stakedata = StakeData({\r\n            lastUpdateTime: lastTimeRewardApplicable(),\r\n            userLastUpdateTime: userLastUpdateTime[account],\r\n            userLastUpdateTimeStake: userLastUpdateTimeStake[account],\r\n            userLastUpdateTimeFeeward: userLastUpdateTimeFeeward[account],\r\n            userRewardStored: userRewardStored[account],\r\n            userFeewardStored: userFeewardStored[account],\r\n            balances: balances[account],\r\n            totalBalances: totalSupply,\r\n            balancesNFT: balancesNFT[account],\r\n            userRewardPaid: userRewardPaid[account]\r\n        });\r\n\r\n        return stakedata;\r\n    }\r\n\r\n    function setTransferPuml(address _from, address _to, uint256 _amount) public {\r\n        require(_amount > 0, \"You need to transfer at least some tokens\");\r\n        _puml.transferFrom(_from, _to, _amount);\r\n    }\r\n\r\n    function setDepositPuml(address _from, uint256 _amount) public {\r\n        require(_amount > 0, \"You need to deposite at least some tokens\");\r\n        _puml.transferFrom(_from, address(this), _amount);\r\n    }\r\n\r\n\r\n    /* ========== MUTATIVE FUNCTIONS ========== */\r\n\r\n    function stake(uint256 amount, uint256 collect, uint256 feeward, uint256 stakeamount) external payable nonReentrant {\r\n\r\n        _stake(amount, msg.sender);\r\n        setUserRewardUpdate(msg.sender, collect, feeward);\r\n        emit Staked(msg.sender, amount);\r\n\r\n        _puml.transferFrom(msg.sender, address(this), stakeamount);\r\n    }\r\n\r\n    function withdraw(uint256 amount, uint256 collect, uint256 feeward, uint256 unstakeamount) public payable nonReentrant {\r\n\r\n        _withdraw(amount);\r\n        setUserRewardUpdate(msg.sender, collect, feeward);\r\n        emit Withdrawn(msg.sender, amount);\r\n\r\n        _puml.transfer(msg.sender, unstakeamount);\r\n    }\r\n\r\n    function getCollect(uint256 feeward, uint256 collect) public payable nonReentrant {\r\n\r\n        if (collect > 0) {\r\n            _feewardPerUser(msg.sender, feeward, collect);\r\n\r\n            emit Collect(msg.sender, collect);\r\n        }\r\n    }\r\n\r\n    function getReward(uint256 reward, uint256 collect, uint256 feeward) public payable nonReentrant {\r\n\r\n        if (reward > 0) {\r\n            _updatePerUser(msg.sender, collect, feeward);\r\n\r\n            userRewardStored[msg.sender] -= reward;\r\n            userLastReward[msg.sender] = reward;\r\n            userRewardPaid[msg.sender] += reward;\r\n\r\n            emit RewardPaid(msg.sender, reward);\r\n        }\r\n    }\r\n\r\n    function _stake(uint256 _amount, address _staker) internal {\r\n        totalSupply += _amount;\r\n        balances[_staker] += _amount;\r\n    }\r\n\r\n    function _withdraw(uint256 _amount) internal {\r\n        totalSupply -= _amount;\r\n        balances[msg.sender] -= _amount;\r\n    }\r\n\r\n    function transferPuml(address _to, uint256 _amount) public payable nonReentrant {\r\n        require(_amount > 0, \"You need to transfer at least some tokens\");\r\n        _puml.transferFrom(msg.sender, _to, _amount);\r\n    }\r\n\r\n    function pickPuml(address _to, uint256 _amount) public payable nonReentrant {\r\n        require(_amount > 0, \"You need to transfer at least some tokens\");\r\n        _puml.transfer(_to, _amount);\r\n    }\r\n\r\n    function depositPuml(uint256 _amount) public payable nonReentrant {\r\n        require(_amount > 0, \"You need to deposite at least some tokens\");\r\n        _puml.transferFrom(msg.sender, address(this), _amount);\r\n    }\r\n\r\n    /* ========== MODIFIERS ========== */\r\n\r\n    modifier updateReward(address account, uint256 feeward, uint256 collect) {\r\n        if (account != address(0)) {\r\n            _updatePerUser(account, feeward, collect);\r\n            userLastUpdateTime[account] = lastTimeRewardApplicable();\r\n        }\r\n         _;\r\n    }\r\n\r\n    modifier checkAllowance(uint amount) {\r\n        require(_puml.allowance(msg.sender, address(this)) >= amount, \"Error\");\r\n        _;\r\n    }\r\n\r\n    /* ========== EVENTS ========== */\r\n\r\n\r\n    event Staked(address indexed user, uint256 amount);\r\n    event Withdrawn(address indexed user, uint256 amount);\r\n    event RewardPaid(address indexed user, uint256 reward);\r\n    event Collect(address indexed user, uint256 collect);\r\n}\r\n",
  "sourcePath": "F:\\work\\puml-project\\ethcontracts\\contracts\\PumlStake.sol",
  "compiler": {
    "name": "solc",
    "version": "0.8.4+commit.c7e474f2.Emscripten.clang"
  },
  "schemaVersion": "3.4.5",
  "updatedAt": "2022-08-24T20:27:26.214Z",
  "devdoc": {
    "kind": "dev",
    "methods": {
      "owner()": {
        "details": "Returns the address of the current owner."
      },
      "renounceOwnership()": {
        "details": "Leaves the contract without owner. It will not be possible to call `onlyOwner` functions anymore. Can only be called by the current owner. NOTE: Renouncing ownership will leave the contract without an owner, thereby removing any functionality that is only available to the owner."
      },
      "transferOwnership(address)": {
        "details": "Transfers ownership of the contract to a new account (`newOwner`). Can only be called by the current owner."
      }
    },
    "version": 1
  },
  "userdoc": {
    "kind": "user",
    "methods": {},
    "version": 1
  }
}