{
  "contractName": "PumlNFT",
  "abi": [
    {
      "inputs": [
        {
          "internalType": "string",
          "name": "_name",
          "type": "string"
        },
        {
          "internalType": "string",
          "name": "_symbol",
          "type": "string"
        }
      ],
      "stateMutability": "nonpayable",
      "type": "constructor"
    },
    {
      "anonymous": false,
      "inputs": [
        {
          "indexed": true,
          "internalType": "address",
          "name": "owner",
          "type": "address"
        },
        {
          "indexed": true,
          "internalType": "address",
          "name": "approved",
          "type": "address"
        },
        {
          "indexed": true,
          "internalType": "uint256",
          "name": "tokenId",
          "type": "uint256"
        }
      ],
      "name": "Approval",
      "type": "event"
    },
    {
      "anonymous": false,
      "inputs": [
        {
          "indexed": true,
          "internalType": "address",
          "name": "owner",
          "type": "address"
        },
        {
          "indexed": true,
          "internalType": "address",
          "name": "operator",
          "type": "address"
        },
        {
          "indexed": false,
          "internalType": "bool",
          "name": "approved",
          "type": "bool"
        }
      ],
      "name": "ApprovalForAll",
      "type": "event"
    },
    {
      "anonymous": false,
      "inputs": [
        {
          "indexed": true,
          "internalType": "address",
          "name": "from",
          "type": "address"
        },
        {
          "indexed": true,
          "internalType": "address",
          "name": "to",
          "type": "address"
        },
        {
          "indexed": true,
          "internalType": "uint256",
          "name": "tokenId",
          "type": "uint256"
        }
      ],
      "name": "Transfer",
      "type": "event"
    },
    {
      "inputs": [
        {
          "internalType": "address",
          "name": "to",
          "type": "address"
        },
        {
          "internalType": "uint256",
          "name": "tokenId",
          "type": "uint256"
        }
      ],
      "name": "approve",
      "outputs": [],
      "stateMutability": "nonpayable",
      "type": "function"
    },
    {
      "inputs": [
        {
          "internalType": "address",
          "name": "owner",
          "type": "address"
        }
      ],
      "name": "balanceOf",
      "outputs": [
        {
          "internalType": "uint256",
          "name": "",
          "type": "uint256"
        }
      ],
      "stateMutability": "view",
      "type": "function",
      "constant": true
    },
    {
      "inputs": [
        {
          "internalType": "uint256",
          "name": "tokenId",
          "type": "uint256"
        }
      ],
      "name": "getApproved",
      "outputs": [
        {
          "internalType": "address",
          "name": "",
          "type": "address"
        }
      ],
      "stateMutability": "view",
      "type": "function",
      "constant": true
    },
    {
      "inputs": [
        {
          "internalType": "address",
          "name": "owner",
          "type": "address"
        },
        {
          "internalType": "address",
          "name": "operator",
          "type": "address"
        }
      ],
      "name": "isApprovedForAll",
      "outputs": [
        {
          "internalType": "bool",
          "name": "",
          "type": "bool"
        }
      ],
      "stateMutability": "view",
      "type": "function",
      "constant": true
    },
    {
      "inputs": [],
      "name": "name",
      "outputs": [
        {
          "internalType": "string",
          "name": "",
          "type": "string"
        }
      ],
      "stateMutability": "view",
      "type": "function",
      "constant": true
    },
    {
      "inputs": [
        {
          "internalType": "uint256",
          "name": "tokenId",
          "type": "uint256"
        }
      ],
      "name": "ownerOf",
      "outputs": [
        {
          "internalType": "address",
          "name": "",
          "type": "address"
        }
      ],
      "stateMutability": "view",
      "type": "function",
      "constant": true
    },
    {
      "inputs": [
        {
          "internalType": "address",
          "name": "from",
          "type": "address"
        },
        {
          "internalType": "address",
          "name": "to",
          "type": "address"
        },
        {
          "internalType": "uint256",
          "name": "tokenId",
          "type": "uint256"
        }
      ],
      "name": "safeTransferFrom",
      "outputs": [],
      "stateMutability": "nonpayable",
      "type": "function"
    },
    {
      "inputs": [
        {
          "internalType": "address",
          "name": "from",
          "type": "address"
        },
        {
          "internalType": "address",
          "name": "to",
          "type": "address"
        },
        {
          "internalType": "uint256",
          "name": "tokenId",
          "type": "uint256"
        },
        {
          "internalType": "bytes",
          "name": "_data",
          "type": "bytes"
        }
      ],
      "name": "safeTransferFrom",
      "outputs": [],
      "stateMutability": "nonpayable",
      "type": "function"
    },
    {
      "inputs": [
        {
          "internalType": "address",
          "name": "operator",
          "type": "address"
        },
        {
          "internalType": "bool",
          "name": "approved",
          "type": "bool"
        }
      ],
      "name": "setApprovalForAll",
      "outputs": [],
      "stateMutability": "nonpayable",
      "type": "function"
    },
    {
      "inputs": [
        {
          "internalType": "bytes4",
          "name": "interfaceId",
          "type": "bytes4"
        }
      ],
      "name": "supportsInterface",
      "outputs": [
        {
          "internalType": "bool",
          "name": "",
          "type": "bool"
        }
      ],
      "stateMutability": "view",
      "type": "function",
      "constant": true
    },
    {
      "inputs": [],
      "name": "symbol",
      "outputs": [
        {
          "internalType": "string",
          "name": "",
          "type": "string"
        }
      ],
      "stateMutability": "view",
      "type": "function",
      "constant": true
    },
    {
      "inputs": [
        {
          "internalType": "uint256",
          "name": "tokenId",
          "type": "uint256"
        }
      ],
      "name": "tokenURI",
      "outputs": [
        {
          "internalType": "string",
          "name": "",
          "type": "string"
        }
      ],
      "stateMutability": "view",
      "type": "function",
      "constant": true
    },
    {
      "inputs": [
        {
          "internalType": "address",
          "name": "from",
          "type": "address"
        },
        {
          "internalType": "address",
          "name": "to",
          "type": "address"
        },
        {
          "internalType": "uint256",
          "name": "tokenId",
          "type": "uint256"
        }
      ],
      "name": "transferFrom",
      "outputs": [],
      "stateMutability": "nonpayable",
      "type": "function"
    },
    {
      "inputs": [
        {
          "internalType": "uint256",
          "name": "_tokenId",
          "type": "uint256"
        }
      ],
      "name": "getCreator",
      "outputs": [
        {
          "internalType": "address",
          "name": "",
          "type": "address"
        }
      ],
      "stateMutability": "view",
      "type": "function",
      "constant": true
    },
    {
      "inputs": [
        {
          "internalType": "uint256",
          "name": "_tokenId",
          "type": "uint256"
        }
      ],
      "name": "getRoyalties",
      "outputs": [
        {
          "internalType": "uint256",
          "name": "",
          "type": "uint256"
        }
      ],
      "stateMutability": "view",
      "type": "function",
      "constant": true
    },
    {
      "inputs": [
        {
          "internalType": "string",
          "name": "tokenURI",
          "type": "string"
        },
        {
          "internalType": "uint256",
          "name": "_royalties",
          "type": "uint256"
        },
        {
          "internalType": "string",
          "name": "_lockedContent",
          "type": "string"
        }
      ],
      "name": "createItem",
      "outputs": [
        {
          "internalType": "uint256",
          "name": "",
          "type": "uint256"
        }
      ],
      "stateMutability": "nonpayable",
      "type": "function"
    },
    {
      "inputs": [
        {
          "internalType": "uint256",
          "name": "_tokenId",
          "type": "uint256"
        }
      ],
      "name": "unlockContent",
      "outputs": [
        {
          "internalType": "string",
          "name": "",
          "type": "string"
        }
      ],
      "stateMutability": "view",
      "type": "function",
      "constant": true
    }
  ],
  "bytecode": "0x60806040523480156200001157600080fd5b50604051620033e1380380620033e1833981810160405281019062000037919062000197565b818181600090805190602001906200005192919062000075565b5080600190805190602001906200006a92919062000075565b50505050506200037a565b82805462000083906200029f565b90600052602060002090601f016020900481019282620000a75760008555620000f3565b82601f10620000c257805160ff1916838001178555620000f3565b82800160010185558215620000f3579182015b82811115620000f2578251825591602001919060010190620000d5565b5b50905062000102919062000106565b5090565b5b808211156200012157600081600090555060010162000107565b5090565b60006200013c620001368462000233565b6200020a565b9050828152602081018484840111156200015557600080fd5b6200016284828562000269565b509392505050565b600082601f8301126200017c57600080fd5b81516200018e84826020860162000125565b91505092915050565b60008060408385031215620001ab57600080fd5b600083015167ffffffffffffffff811115620001c657600080fd5b620001d4858286016200016a565b925050602083015167ffffffffffffffff811115620001f257600080fd5b62000200858286016200016a565b9150509250929050565b60006200021662000229565b9050620002248282620002d5565b919050565b6000604051905090565b600067ffffffffffffffff8211156200025157620002506200033a565b5b6200025c8262000369565b9050602081019050919050565b60005b83811015620002895780820151818401526020810190506200026c565b8381111562000299576000848401525b50505050565b60006002820490506001821680620002b857607f821691505b60208210811415620002cf57620002ce6200030b565b5b50919050565b620002e08262000369565b810181811067ffffffffffffffff821117156200030257620003016200033a565b5b80604052505050565b7f4e487b7100000000000000000000000000000000000000000000000000000000600052602260045260246000fd5b7f4e487b7100000000000000000000000000000000000000000000000000000000600052604160045260246000fd5b6000601f19601f8301169050919050565b613057806200038a6000396000f3fe608060405234801561001057600080fd5b506004361061010b5760003560e01c80636352211e116100a2578063b88d4fde11610071578063b88d4fde146102dc578063bb3bafd6146102f8578063c87b56dd14610328578063d48e638a14610358578063e985e9c5146103885761010b565b80636352211e1461024257806370a082311461027257806395d89b41146102a2578063a22cb465146102c05761010b565b806323b872dd116100de57806323b872dd146101aa57806328d82e30146101c65780633457770d146101f657806342842e0e146102265761010b565b806301ffc9a71461011057806306fdde0314610140578063081812fc1461015e578063095ea7b31461018e575b600080fd5b61012a60048036038101906101259190611fad565b6103b8565b6040516101379190612478565b60405180910390f35b61014861049a565b6040516101559190612493565b60405180910390f35b6101786004803603810190610173919061207e565b61052c565b6040516101859190612411565b60405180910390f35b6101a860048036038101906101a39190611f71565b6105b1565b005b6101c460048036038101906101bf9190611e6b565b6106c9565b005b6101e060048036038101906101db919061207e565b610729565b6040516101ed9190612493565b60405180910390f35b610210600480360381019061020b9190611fff565b6108c7565b60405161021d91906126f5565b60405180910390f35b610240600480360381019061023b9190611e6b565b6109fa565b005b61025c6004803603810190610257919061207e565b610a1a565b6040516102699190612411565b60405180910390f35b61028c60048036038101906102879190611ddd565b610acc565b60405161029991906126f5565b60405180910390f35b6102aa610b84565b6040516102b79190612493565b60405180910390f35b6102da60048036038101906102d59190611f35565b610c16565b005b6102f660048036038101906102f19190611eba565b610d97565b005b610312600480360381019061030d919061207e565b610df9565b60405161031f91906126f5565b60405180910390f35b610342600480360381019061033d919061207e565b610e19565b60405161034f9190612493565b60405180910390f35b610372600480360381019061036d919061207e565b610f6b565b60405161037f9190612411565b60405180910390f35b6103a2600480360381019061039d9190611e2f565b610fab565b6040516103af9190612478565b60405180910390f35b60007f80ac58cd000000000000000000000000000000000000000000000000000000007bffffffffffffffffffffffffffffffffffffffffffffffffffffffff1916827bffffffffffffffffffffffffffffffffffffffffffffffffffffffff1916148061048357507f5b5e139f000000000000000000000000000000000000000000000000000000007bffffffffffffffffffffffffffffffffffffffffffffffffffffffff1916827bffffffffffffffffffffffffffffffffffffffffffffffffffffffff1916145b8061049357506104928261103f565b5b9050919050565b6060600080546104a99061294b565b80601f01602080910402602001604051908101604052809291908181526020018280546104d59061294b565b80156105225780601f106104f757610100808354040283529160200191610522565b820191906000526020600020905b81548152906001019060200180831161050557829003601f168201915b5050505050905090565b6000610537826110a9565b610576576040517f08c379a000000000000000000000000000000000000000000000000000000000815260040161056d90612655565b60405180910390fd5b6004600083815260200190815260200160002060009054906101000a900473ffffffffffffffffffffffffffffffffffffffff169050919050565b60006105bc82610a1a565b90508073ffffffffffffffffffffffffffffffffffffffff168373ffffffffffffffffffffffffffffffffffffffff16141561062d576040517f08c379a0000000000000000000000000000000000000000000000000000000008152600401610624906126b5565b60405180910390fd5b8073ffffffffffffffffffffffffffffffffffffffff1661064c611115565b73ffffffffffffffffffffffffffffffffffffffff16148061067b575061067a81610675611115565b610fab565b5b6106ba576040517f08c379a00000000000000000000000000000000000000000000000000000000081526004016106b190612555565b60405180910390fd5b6106c4838361111d565b505050565b6106da6106d4611115565b826111d6565b610719576040517f08c379a0000000000000000000000000000000000000000000000000000000008152600401610710906126d5565b60405180910390fd5b6107248383836112b4565b505050565b60603373ffffffffffffffffffffffffffffffffffffffff163073ffffffffffffffffffffffffffffffffffffffff16636352211e846040518263ffffffff1660e01b815260040161077b91906126f5565b60206040518083038186803b15801561079357600080fd5b505afa1580156107a7573d6000803e3d6000fd5b505050506040513d601f19601f820116820180604052508101906107cb9190611e06565b73ffffffffffffffffffffffffffffffffffffffff1614610821576040517f08c379a000000000000000000000000000000000000000000000000000000000815260040161081890612575565b60405180910390fd5b6008600083815260200190815260200160002060020180546108429061294b565b80601f016020809104026020016040519081016040528092919081815260200182805461086e9061294b565b80156108bb5780601f10610890576101008083540402835291602001916108bb565b820191906000526020600020905b81548152906001019060200180831161089e57829003601f168201915b50505050509050919050565b600061138883111561090e576040517f08c379a0000000000000000000000000000000000000000000000000000000008152600401610905906125f5565b60405180910390fd5b6109186007611510565b60006109246007611526565b90506109303382611534565b61093a8186611702565b60405180606001604052803373ffffffffffffffffffffffffffffffffffffffff168152602001858152602001848152506008600083815260200190815260200160002060008201518160000160006101000a81548173ffffffffffffffffffffffffffffffffffffffff021916908373ffffffffffffffffffffffffffffffffffffffff1602179055506020820151816001015560408201518160020190805190602001906109eb929190611bec565b50905050809150509392505050565b610a1583838360405180602001604052806000815250610d97565b505050565b6000806002600084815260200190815260200160002060009054906101000a900473ffffffffffffffffffffffffffffffffffffffff169050600073ffffffffffffffffffffffffffffffffffffffff168173ffffffffffffffffffffffffffffffffffffffff161415610ac3576040517f08c379a0000000000000000000000000000000000000000000000000000000008152600401610aba906125b5565b60405180910390fd5b80915050919050565b60008073ffffffffffffffffffffffffffffffffffffffff168273ffffffffffffffffffffffffffffffffffffffff161415610b3d576040517f08c379a0000000000000000000000000000000000000000000000000000000008152600401610b3490612595565b60405180910390fd5b600360008373ffffffffffffffffffffffffffffffffffffffff1673ffffffffffffffffffffffffffffffffffffffff168152602001908152602001600020549050919050565b606060018054610b939061294b565b80601f0160208091040260200160405190810160405280929190818152602001828054610bbf9061294b565b8015610c0c5780601f10610be157610100808354040283529160200191610c0c565b820191906000526020600020905b815481529060010190602001808311610bef57829003601f168201915b5050505050905090565b610c1e611115565b73ffffffffffffffffffffffffffffffffffffffff168273ffffffffffffffffffffffffffffffffffffffff161415610c8c576040517f08c379a0000000000000000000000000000000000000000000000000000000008152600401610c8390612515565b60405180910390fd5b8060056000610c99611115565b73ffffffffffffffffffffffffffffffffffffffff1673ffffffffffffffffffffffffffffffffffffffff16815260200190815260200160002060008473ffffffffffffffffffffffffffffffffffffffff1673ffffffffffffffffffffffffffffffffffffffff16815260200190815260200160002060006101000a81548160ff0219169083151502179055508173ffffffffffffffffffffffffffffffffffffffff16610d46611115565b73ffffffffffffffffffffffffffffffffffffffff167f17307eab39ab6107e8899845ad3d59bd9653f200f220920489ca2b5937696c3183604051610d8b9190612478565b60405180910390a35050565b610da8610da2611115565b836111d6565b610de7576040517f08c379a0000000000000000000000000000000000000000000000000000000008152600401610dde906126d5565b60405180910390fd5b610df384848484611776565b50505050565b600060086000838152602001908152602001600020600101549050919050565b6060610e24826110a9565b610e63576040517f08c379a0000000000000000000000000000000000000000000000000000000008152600401610e5a90612635565b60405180910390fd5b6000600660008481526020019081526020016000208054610e839061294b565b80601f0160208091040260200160405190810160405280929190818152602001828054610eaf9061294b565b8015610efc5780601f10610ed157610100808354040283529160200191610efc565b820191906000526020600020905b815481529060010190602001808311610edf57829003601f168201915b505050505090506000610f0d6117d2565b9050600081511415610f23578192505050610f66565b600082511115610f58578082604051602001610f409291906123ed565b60405160208183030381529060405292505050610f66565b610f61846117e9565b925050505b919050565b60006008600083815260200190815260200160002060000160009054906101000a900473ffffffffffffffffffffffffffffffffffffffff169050919050565b6000600560008473ffffffffffffffffffffffffffffffffffffffff1673ffffffffffffffffffffffffffffffffffffffff16815260200190815260200160002060008373ffffffffffffffffffffffffffffffffffffffff1673ffffffffffffffffffffffffffffffffffffffff16815260200190815260200160002060009054906101000a900460ff16905092915050565b60007f01ffc9a7000000000000000000000000000000000000000000000000000000007bffffffffffffffffffffffffffffffffffffffffffffffffffffffff1916827bffffffffffffffffffffffffffffffffffffffffffffffffffffffff1916149050919050565b60008073ffffffffffffffffffffffffffffffffffffffff166002600084815260200190815260200160002060009054906101000a900473ffffffffffffffffffffffffffffffffffffffff1673ffffffffffffffffffffffffffffffffffffffff1614159050919050565b600033905090565b816004600083815260200190815260200160002060006101000a81548173ffffffffffffffffffffffffffffffffffffffff021916908373ffffffffffffffffffffffffffffffffffffffff160217905550808273ffffffffffffffffffffffffffffffffffffffff1661119083610a1a565b73ffffffffffffffffffffffffffffffffffffffff167f8c5be1e5ebec7d5bd14f71427d1e84f3dd0314c0f7b2291e5b200ac8c7c3b92560405160405180910390a45050565b60006111e1826110a9565b611220576040517f08c379a000000000000000000000000000000000000000000000000000000000815260040161121790612535565b60405180910390fd5b600061122b83610a1a565b90508073ffffffffffffffffffffffffffffffffffffffff168473ffffffffffffffffffffffffffffffffffffffff16148061129a57508373ffffffffffffffffffffffffffffffffffffffff166112828461052c565b73ffffffffffffffffffffffffffffffffffffffff16145b806112ab57506112aa8185610fab565b5b91505092915050565b8273ffffffffffffffffffffffffffffffffffffffff166112d482610a1a565b73ffffffffffffffffffffffffffffffffffffffff161461132a576040517f08c379a000000000000000000000000000000000000000000000000000000000815260040161132190612675565b60405180910390fd5b600073ffffffffffffffffffffffffffffffffffffffff168273ffffffffffffffffffffffffffffffffffffffff16141561139a576040517f08c379a0000000000000000000000000000000000000000000000000000000008152600401611391906124f5565b60405180910390fd5b6113a5838383611890565b6113b060008261111d565b6001600360008573ffffffffffffffffffffffffffffffffffffffff1673ffffffffffffffffffffffffffffffffffffffff16815260200190815260200160002060008282546114009190612861565b925050819055506001600360008473ffffffffffffffffffffffffffffffffffffffff1673ffffffffffffffffffffffffffffffffffffffff168152602001908152602001600020600082825461145791906127da565b92505081905550816002600083815260200190815260200160002060006101000a81548173ffffffffffffffffffffffffffffffffffffffff021916908373ffffffffffffffffffffffffffffffffffffffff160217905550808273ffffffffffffffffffffffffffffffffffffffff168473ffffffffffffffffffffffffffffffffffffffff167fddf252ad1be2c89b69c2b068fc378daa952ba7f163c4a11628f55a4df523b3ef60405160405180910390a4505050565b6001816000016000828254019250508190555050565b600081600001549050919050565b600073ffffffffffffffffffffffffffffffffffffffff168273ffffffffffffffffffffffffffffffffffffffff1614156115a4576040517f08c379a000000000000000000000000000000000000000000000000000000000815260040161159b90612615565b60405180910390fd5b6115ad816110a9565b156115ed576040517f08c379a00000000000000000000000000000000000000000000000000000000081526004016115e4906124d5565b60405180910390fd5b6115f960008383611890565b6001600360008473ffffffffffffffffffffffffffffffffffffffff1673ffffffffffffffffffffffffffffffffffffffff168152602001908152602001600020600082825461164991906127da565b92505081905550816002600083815260200190815260200160002060006101000a81548173ffffffffffffffffffffffffffffffffffffffff021916908373ffffffffffffffffffffffffffffffffffffffff160217905550808273ffffffffffffffffffffffffffffffffffffffff16600073ffffffffffffffffffffffffffffffffffffffff167fddf252ad1be2c89b69c2b068fc378daa952ba7f163c4a11628f55a4df523b3ef60405160405180910390a45050565b61170b826110a9565b61174a576040517f08c379a0000000000000000000000000000000000000000000000000000000008152600401611741906125d5565b60405180910390fd5b80600660008481526020019081526020016000209080519060200190611771929190611bec565b505050565b6117818484846112b4565b61178d84848484611895565b6117cc576040517f08c379a00000000000000000000000000000000000000000000000000000000081526004016117c3906124b5565b60405180910390fd5b50505050565b606060405180602001604052806000815250905090565b60606117f4826110a9565b611833576040517f08c379a000000000000000000000000000000000000000000000000000000000815260040161182a90612695565b60405180910390fd5b600061183d6117d2565b9050600081511161185d5760405180602001604052806000815250611888565b8061186784611a2c565b6040516020016118789291906123ed565b6040516020818303038152906040525b915050919050565b505050565b60006118b68473ffffffffffffffffffffffffffffffffffffffff16611bd9565b15611a1f578373ffffffffffffffffffffffffffffffffffffffff1663150b7a026118df611115565b8786866040518563ffffffff1660e01b8152600401611901949392919061242c565b602060405180830381600087803b15801561191b57600080fd5b505af192505050801561194c57506040513d601f19601f820116820180604052508101906119499190611fd6565b60015b6119cf573d806000811461197c576040519150601f19603f3d011682016040523d82523d6000602084013e611981565b606091505b506000815114156119c7576040517f08c379a00000000000000000000000000000000000000000000000000000000081526004016119be906124b5565b60405180910390fd5b805181602001fd5b63150b7a0260e01b7bffffffffffffffffffffffffffffffffffffffffffffffffffffffff1916817bffffffffffffffffffffffffffffffffffffffffffffffffffffffff191614915050611a24565b600190505b949350505050565b60606000821415611a74576040518060400160405280600181526020017f30000000000000000000000000000000000000000000000000000000000000008152509050611bd4565b600082905060005b60008214611aa6578080611a8f906129ae565b915050600a82611a9f9190612830565b9150611a7c565b60008167ffffffffffffffff811115611ae8577f4e487b7100000000000000000000000000000000000000000000000000000000600052604160045260246000fd5b6040519080825280601f01601f191660200182016040528015611b1a5781602001600182028036833780820191505090505b5090505b60008514611bcd57600182611b339190612861565b9150600a85611b4291906129f7565b6030611b4e91906127da565b60f81b818381518110611b8a577f4e487b7100000000000000000000000000000000000000000000000000000000600052603260045260246000fd5b60200101907effffffffffffffffffffffffffffffffffffffffffffffffffffffffffffff1916908160001a905350600a85611bc69190612830565b9450611b1e565b8093505050505b919050565b600080823b905060008111915050919050565b828054611bf89061294b565b90600052602060002090601f016020900481019282611c1a5760008555611c61565b82601f10611c3357805160ff1916838001178555611c61565b82800160010185558215611c61579182015b82811115611c60578251825591602001919060010190611c45565b5b509050611c6e9190611c72565b5090565b5b80821115611c8b576000816000905550600101611c73565b5090565b6000611ca2611c9d84612735565b612710565b905082815260208101848484011115611cba57600080fd5b611cc5848285612909565b509392505050565b6000611ce0611cdb84612766565b612710565b905082815260208101848484011115611cf857600080fd5b611d03848285612909565b509392505050565b600081359050611d1a81612fc5565b92915050565b600081519050611d2f81612fc5565b92915050565b600081359050611d4481612fdc565b92915050565b600081359050611d5981612ff3565b92915050565b600081519050611d6e81612ff3565b92915050565b600082601f830112611d8557600080fd5b8135611d95848260208601611c8f565b91505092915050565b600082601f830112611daf57600080fd5b8135611dbf848260208601611ccd565b91505092915050565b600081359050611dd78161300a565b92915050565b600060208284031215611def57600080fd5b6000611dfd84828501611d0b565b91505092915050565b600060208284031215611e1857600080fd5b6000611e2684828501611d20565b91505092915050565b60008060408385031215611e4257600080fd5b6000611e5085828601611d0b565b9250506020611e6185828601611d0b565b9150509250929050565b600080600060608486031215611e8057600080fd5b6000611e8e86828701611d0b565b9350506020611e9f86828701611d0b565b9250506040611eb086828701611dc8565b9150509250925092565b60008060008060808587031215611ed057600080fd5b6000611ede87828801611d0b565b9450506020611eef87828801611d0b565b9350506040611f0087828801611dc8565b925050606085013567ffffffffffffffff811115611f1d57600080fd5b611f2987828801611d74565b91505092959194509250565b60008060408385031215611f4857600080fd5b6000611f5685828601611d0b565b9250506020611f6785828601611d35565b9150509250929050565b60008060408385031215611f8457600080fd5b6000611f9285828601611d0b565b9250506020611fa385828601611dc8565b9150509250929050565b600060208284031215611fbf57600080fd5b6000611fcd84828501611d4a565b91505092915050565b600060208284031215611fe857600080fd5b6000611ff684828501611d5f565b91505092915050565b60008060006060848603121561201457600080fd5b600084013567ffffffffffffffff81111561202e57600080fd5b61203a86828701611d9e565b935050602061204b86828701611dc8565b925050604084013567ffffffffffffffff81111561206857600080fd5b61207486828701611d9e565b9150509250925092565b60006020828403121561209057600080fd5b600061209e84828501611dc8565b91505092915050565b6120b081612895565b82525050565b6120bf816128a7565b82525050565b60006120d082612797565b6120da81856127ad565b93506120ea818560208601612918565b6120f381612ae4565b840191505092915050565b6000612109826127a2565b61211381856127be565b9350612123818560208601612918565b61212c81612ae4565b840191505092915050565b6000612142826127a2565b61214c81856127cf565b935061215c818560208601612918565b80840191505092915050565b60006121756032836127be565b915061218082612af5565b604082019050919050565b6000612198601c836127be565b91506121a382612b44565b602082019050919050565b60006121bb6024836127be565b91506121c682612b6d565b604082019050919050565b60006121de6019836127be565b91506121e982612bbc565b602082019050919050565b6000612201602c836127be565b915061220c82612be5565b604082019050919050565b60006122246038836127be565b915061222f82612c34565b604082019050919050565b6000612247600d836127be565b915061225282612c83565b602082019050919050565b600061226a602a836127be565b915061227582612cac565b604082019050919050565b600061228d6029836127be565b915061229882612cfb565b604082019050919050565b60006122b0602e836127be565b91506122bb82612d4a565b604082019050919050565b60006122d36015836127be565b91506122de82612d99565b602082019050919050565b60006122f66020836127be565b915061230182612dc2565b602082019050919050565b60006123196031836127be565b915061232482612deb565b604082019050919050565b600061233c602c836127be565b915061234782612e3a565b604082019050919050565b600061235f6029836127be565b915061236a82612e89565b604082019050919050565b6000612382602f836127be565b915061238d82612ed8565b604082019050919050565b60006123a56021836127be565b91506123b082612f27565b604082019050919050565b60006123c86031836127be565b91506123d382612f76565b604082019050919050565b6123e7816128ff565b82525050565b60006123f98285612137565b91506124058284612137565b91508190509392505050565b600060208201905061242660008301846120a7565b92915050565b600060808201905061244160008301876120a7565b61244e60208301866120a7565b61245b60408301856123de565b818103606083015261246d81846120c5565b905095945050505050565b600060208201905061248d60008301846120b6565b92915050565b600060208201905081810360008301526124ad81846120fe565b905092915050565b600060208201905081810360008301526124ce81612168565b9050919050565b600060208201905081810360008301526124ee8161218b565b9050919050565b6000602082019050818103600083015261250e816121ae565b9050919050565b6000602082019050818103600083015261252e816121d1565b9050919050565b6000602082019050818103600083015261254e816121f4565b9050919050565b6000602082019050818103600083015261256e81612217565b9050919050565b6000602082019050818103600083015261258e8161223a565b9050919050565b600060208201905081810360008301526125ae8161225d565b9050919050565b600060208201905081810360008301526125ce81612280565b9050919050565b600060208201905081810360008301526125ee816122a3565b9050919050565b6000602082019050818103600083015261260e816122c6565b9050919050565b6000602082019050818103600083015261262e816122e9565b9050919050565b6000602082019050818103600083015261264e8161230c565b9050919050565b6000602082019050818103600083015261266e8161232f565b9050919050565b6000602082019050818103600083015261268e81612352565b9050919050565b600060208201905081810360008301526126ae81612375565b9050919050565b600060208201905081810360008301526126ce81612398565b9050919050565b600060208201905081810360008301526126ee816123bb565b9050919050565b600060208201905061270a60008301846123de565b92915050565b600061271a61272b565b9050612726828261297d565b919050565b6000604051905090565b600067ffffffffffffffff8211156127505761274f612ab5565b5b61275982612ae4565b9050602081019050919050565b600067ffffffffffffffff82111561278157612780612ab5565b5b61278a82612ae4565b9050602081019050919050565b600081519050919050565b600081519050919050565b600082825260208201905092915050565b600082825260208201905092915050565b600081905092915050565b60006127e5826128ff565b91506127f0836128ff565b9250827fffffffffffffffffffffffffffffffffffffffffffffffffffffffffffffffff0382111561282557612824612a28565b5b828201905092915050565b600061283b826128ff565b9150612846836128ff565b92508261285657612855612a57565b5b828204905092915050565b600061286c826128ff565b9150612877836128ff565b92508282101561288a57612889612a28565b5b828203905092915050565b60006128a0826128df565b9050919050565b60008115159050919050565b60007fffffffff0000000000000000000000000000000000000000000000000000000082169050919050565b600073ffffffffffffffffffffffffffffffffffffffff82169050919050565b6000819050919050565b82818337600083830152505050565b60005b8381101561293657808201518184015260208101905061291b565b83811115612945576000848401525b50505050565b6000600282049050600182168061296357607f821691505b6020821081141561297757612976612a86565b5b50919050565b61298682612ae4565b810181811067ffffffffffffffff821117156129a5576129a4612ab5565b5b80604052505050565b60006129b9826128ff565b91507fffffffffffffffffffffffffffffffffffffffffffffffffffffffffffffffff8214156129ec576129eb612a28565b5b600182019050919050565b6000612a02826128ff565b9150612a0d836128ff565b925082612a1d57612a1c612a57565b5b828206905092915050565b7f4e487b7100000000000000000000000000000000000000000000000000000000600052601160045260246000fd5b7f4e487b7100000000000000000000000000000000000000000000000000000000600052601260045260246000fd5b7f4e487b7100000000000000000000000000000000000000000000000000000000600052602260045260246000fd5b7f4e487b7100000000000000000000000000000000000000000000000000000000600052604160045260246000fd5b6000601f19601f8301169050919050565b7f4552433732313a207472616e7366657220746f206e6f6e20455243373231526560008201527f63656976657220696d706c656d656e7465720000000000000000000000000000602082015250565b7f4552433732313a20746f6b656e20616c7265616479206d696e74656400000000600082015250565b7f4552433732313a207472616e7366657220746f20746865207a65726f2061646460008201527f7265737300000000000000000000000000000000000000000000000000000000602082015250565b7f4552433732313a20617070726f766520746f2063616c6c657200000000000000600082015250565b7f4552433732313a206f70657261746f7220717565727920666f72206e6f6e657860008201527f697374656e7420746f6b656e0000000000000000000000000000000000000000602082015250565b7f4552433732313a20617070726f76652063616c6c6572206973206e6f74206f7760008201527f6e6572206e6f7220617070726f76656420666f7220616c6c0000000000000000602082015250565b7f4e6f7420746865206f776e657200000000000000000000000000000000000000600082015250565b7f4552433732313a2062616c616e636520717565727920666f7220746865207a6560008201527f726f206164647265737300000000000000000000000000000000000000000000602082015250565b7f4552433732313a206f776e657220717565727920666f72206e6f6e657869737460008201527f656e7420746f6b656e0000000000000000000000000000000000000000000000602082015250565b7f45524337323155524953746f726167653a2055524920736574206f66206e6f6e60008201527f6578697374656e7420746f6b656e000000000000000000000000000000000000602082015250565b7f4d617820726f79616c7469657320617265203530250000000000000000000000600082015250565b7f4552433732313a206d696e7420746f20746865207a65726f2061646472657373600082015250565b7f45524337323155524953746f726167653a2055524920717565727920666f722060008201527f6e6f6e6578697374656e7420746f6b656e000000000000000000000000000000602082015250565b7f4552433732313a20617070726f76656420717565727920666f72206e6f6e657860008201527f697374656e7420746f6b656e0000000000000000000000000000000000000000602082015250565b7f4552433732313a207472616e73666572206f6620746f6b656e2074686174206960008201527f73206e6f74206f776e0000000000000000000000000000000000000000000000602082015250565b7f4552433732314d657461646174613a2055524920717565727920666f72206e6f60008201527f6e6578697374656e7420746f6b656e0000000000000000000000000000000000602082015250565b7f4552433732313a20617070726f76616c20746f2063757272656e74206f776e6560008201527f7200000000000000000000000000000000000000000000000000000000000000602082015250565b7f4552433732313a207472616e736665722063616c6c6572206973206e6f74206f60008201527f776e6572206e6f7220617070726f766564000000000000000000000000000000602082015250565b612fce81612895565b8114612fd957600080fd5b50565b612fe5816128a7565b8114612ff057600080fd5b50565b612ffc816128b3565b811461300757600080fd5b50565b613013816128ff565b811461301e57600080fd5b5056fea26469706673582212201819e564778f34e56e851b01a3236670f49e615e0de6d59adc79c626ed3d131e64736f6c63430008040033",
  "immutableReferences": {},
  "source": "// SPDX-License-Identifier: UNLICENSED\r\npragma solidity 0.8.4;\r\n\r\nimport \"@openzeppelin/contracts/utils/Counters.sol\";\r\nimport \"@openzeppelin/contracts/token/ERC721/extensions/ERC721URIStorage.sol\";\r\n\r\n// ERC721URIStorage is the contract from openzeppelin for v0.8 that includes the metadata \r\ncontract PumlNFT is ERC721URIStorage {\r\n    using Counters for Counters.Counter;\r\n    Counters.Counter private _tokenIds;\r\n\r\n    // Data of each NFT\r\n    struct TokenData {\r\n        address payable creator; // creator of the NFT\r\n        uint256 royalties;       // royalties to be paid to NFT creator on a resale. In basic points\r\n        string lockedContent;    // Content that is locked until the token is sold, and then will be visible to the owner\r\n    }\r\n    mapping(uint256 => TokenData) tokens;\r\n\r\n    constructor(string memory _name, string memory _symbol) ERC721(_name, _symbol) {}\r\n\r\n    function getCreator(uint256 _tokenId) public view returns (address) {\r\n        return tokens[_tokenId].creator;\r\n    }\r\n\r\n    // returns in basic points the royalties of a token\r\n    function getRoyalties(uint256 _tokenId) public view returns (uint256) {\r\n        return tokens[_tokenId].royalties;\r\n    }\r\n\r\n    // mints the NFT and save the data in the \"tokens\" map\r\n    function createItem(string memory tokenURI, uint256 _royalties, string memory _lockedContent)\r\n        public\r\n        returns (uint256)\r\n    {\r\n        require(_royalties <=5000, \"Max royalties are 50%\");\r\n\r\n        _tokenIds.increment();\r\n\r\n        uint256 newItemId = _tokenIds.current();\r\n        _mint(msg.sender, newItemId);\r\n        _setTokenURI(newItemId, tokenURI);\r\n\r\n        tokens[newItemId] = TokenData({ creator: payable(msg.sender), royalties: _royalties, lockedContent:_lockedContent});\r\n    \r\n        return newItemId;\r\n    }\r\n\r\n    // returns the string \"locked\", only available for the owner\r\n    function unlockContent(uint256 _tokenId) public view returns (string memory)\r\n    {\r\n        require(this.ownerOf(_tokenId) == msg.sender, \"Not the owner\");\r\n        return tokens[_tokenId].lockedContent;\r\n    }\r\n}\r\n",
  "sourcePath": "/Volumes/Work/work/PUML/ethcontracts/contracts/PumlNFT.sol",
  "compiler": {
    "name": "solc",
    "version": "0.8.4+commit.c7e474f2.Emscripten.clang"
  },
  "schemaVersion": "3.4.3",
  "updatedAt": "2022-03-02T19:34:12.999Z",
  "networkType": "ethereum",
  "devdoc": {
    "kind": "dev",
    "methods": {
      "approve(address,uint256)": {
        "details": "See {IERC721-approve}."
      },
      "balanceOf(address)": {
        "details": "See {IERC721-balanceOf}."
      },
      "getApproved(uint256)": {
        "details": "See {IERC721-getApproved}."
      },
      "isApprovedForAll(address,address)": {
        "details": "See {IERC721-isApprovedForAll}."
      },
      "name()": {
        "details": "See {IERC721Metadata-name}."
      },
      "ownerOf(uint256)": {
        "details": "See {IERC721-ownerOf}."
      },
      "safeTransferFrom(address,address,uint256)": {
        "details": "See {IERC721-safeTransferFrom}."
      },
      "safeTransferFrom(address,address,uint256,bytes)": {
        "details": "See {IERC721-safeTransferFrom}."
      },
      "setApprovalForAll(address,bool)": {
        "details": "See {IERC721-setApprovalForAll}."
      },
      "supportsInterface(bytes4)": {
        "details": "See {IERC165-supportsInterface}."
      },
      "symbol()": {
        "details": "See {IERC721Metadata-symbol}."
      },
      "tokenURI(uint256)": {
        "details": "See {IERC721Metadata-tokenURI}."
      },
      "transferFrom(address,address,uint256)": {
        "details": "See {IERC721-transferFrom}."
      }
    },
    "version": 1
  },
  "userdoc": {
    "kind": "user",
    "methods": {},
    "version": 1
  }
}