{
  "contractName": "PumlxStaking",
  "abi": [
    {
      "inputs": [
        {
          "internalType": "address",
          "name": "_stakingToken",
          "type": "address"
        }
      ],
      "stateMutability": "nonpayable",
      "type": "constructor"
    },
    {
      "anonymous": false,
      "inputs": [
        {
          "indexed": true,
          "internalType": "address",
          "name": "previousOwner",
          "type": "address"
        },
        {
          "indexed": true,
          "internalType": "address",
          "name": "newOwner",
          "type": "address"
        }
      ],
      "name": "OwnershipTransferred",
      "type": "event"
    },
    {
      "anonymous": false,
      "inputs": [
        {
          "indexed": false,
          "internalType": "address",
          "name": "account",
          "type": "address"
        }
      ],
      "name": "Paused",
      "type": "event"
    },
    {
      "anonymous": false,
      "inputs": [
        {
          "indexed": true,
          "internalType": "address",
          "name": "user",
          "type": "address"
        },
        {
          "indexed": false,
          "internalType": "uint256",
          "name": "reward",
          "type": "uint256"
        }
      ],
      "name": "RewardPaid",
      "type": "event"
    },
    {
      "anonymous": false,
      "inputs": [
        {
          "indexed": true,
          "internalType": "address",
          "name": "user",
          "type": "address"
        },
        {
          "indexed": false,
          "internalType": "uint256",
          "name": "amount",
          "type": "uint256"
        }
      ],
      "name": "Staked",
      "type": "event"
    },
    {
      "anonymous": false,
      "inputs": [
        {
          "indexed": true,
          "internalType": "address",
          "name": "user",
          "type": "address"
        },
        {
          "indexed": false,
          "internalType": "uint256",
          "name": "amount",
          "type": "uint256"
        },
        {
          "indexed": false,
          "internalType": "uint256[]",
          "name": "tokenIds",
          "type": "uint256[]"
        }
      ],
      "name": "StakedNFT",
      "type": "event"
    },
    {
      "anonymous": false,
      "inputs": [
        {
          "indexed": false,
          "internalType": "address",
          "name": "account",
          "type": "address"
        }
      ],
      "name": "Unpaused",
      "type": "event"
    },
    {
      "anonymous": false,
      "inputs": [
        {
          "indexed": true,
          "internalType": "address",
          "name": "user",
          "type": "address"
        },
        {
          "indexed": false,
          "internalType": "uint256",
          "name": "amount",
          "type": "uint256"
        }
      ],
      "name": "Withdrawn",
      "type": "event"
    },
    {
      "anonymous": false,
      "inputs": [
        {
          "indexed": true,
          "internalType": "address",
          "name": "user",
          "type": "address"
        },
        {
          "indexed": false,
          "internalType": "uint256",
          "name": "amount",
          "type": "uint256"
        },
        {
          "indexed": false,
          "internalType": "uint256[]",
          "name": "tokenIds",
          "type": "uint256[]"
        }
      ],
      "name": "WithdrawnNFT",
      "type": "event"
    },
    {
      "inputs": [
        {
          "internalType": "address",
          "name": "",
          "type": "address"
        }
      ],
      "name": "balances",
      "outputs": [
        {
          "internalType": "uint256",
          "name": "",
          "type": "uint256"
        }
      ],
      "stateMutability": "view",
      "type": "function"
    },
    {
      "inputs": [
        {
          "internalType": "address",
          "name": "",
          "type": "address"
        }
      ],
      "name": "balancesNFT",
      "outputs": [
        {
          "internalType": "uint256",
          "name": "",
          "type": "uint256"
        }
      ],
      "stateMutability": "view",
      "type": "function"
    },
    {
      "inputs": [],
      "name": "lastUpdateTime",
      "outputs": [
        {
          "internalType": "uint256",
          "name": "",
          "type": "uint256"
        }
      ],
      "stateMutability": "view",
      "type": "function"
    },
    {
      "inputs": [
        {
          "internalType": "address",
          "name": "",
          "type": "address"
        },
        {
          "internalType": "address",
          "name": "",
          "type": "address"
        },
        {
          "internalType": "uint256",
          "name": "",
          "type": "uint256"
        },
        {
          "internalType": "bytes",
          "name": "",
          "type": "bytes"
        }
      ],
      "name": "onERC721Received",
      "outputs": [
        {
          "internalType": "bytes4",
          "name": "",
          "type": "bytes4"
        }
      ],
      "stateMutability": "nonpayable",
      "type": "function"
    },
    {
      "inputs": [],
      "name": "owner",
      "outputs": [
        {
          "internalType": "address",
          "name": "",
          "type": "address"
        }
      ],
      "stateMutability": "view",
      "type": "function"
    },
    {
      "inputs": [],
      "name": "paused",
      "outputs": [
        {
          "internalType": "bool",
          "name": "",
          "type": "bool"
        }
      ],
      "stateMutability": "view",
      "type": "function"
    },
    {
      "inputs": [],
      "name": "pumlxToken",
      "outputs": [
        {
          "internalType": "contract IERC20",
          "name": "",
          "type": "address"
        }
      ],
      "stateMutability": "view",
      "type": "function"
    },
    {
      "inputs": [],
      "name": "renounceOwnership",
      "outputs": [],
      "stateMutability": "nonpayable",
      "type": "function"
    },
    {
      "inputs": [],
      "name": "rewardRate",
      "outputs": [
        {
          "internalType": "uint256",
          "name": "",
          "type": "uint256"
        }
      ],
      "stateMutability": "view",
      "type": "function"
    },
    {
      "inputs": [
        {
          "internalType": "uint256",
          "name": "",
          "type": "uint256"
        }
      ],
      "name": "stakedAssets",
      "outputs": [
        {
          "internalType": "address",
          "name": "",
          "type": "address"
        }
      ],
      "stateMutability": "view",
      "type": "function"
    },
    {
      "inputs": [],
      "name": "stakingToken",
      "outputs": [
        {
          "internalType": "contract IERC721",
          "name": "",
          "type": "address"
        }
      ],
      "stateMutability": "view",
      "type": "function"
    },
    {
      "inputs": [],
      "name": "totalSupply",
      "outputs": [
        {
          "internalType": "uint256",
          "name": "",
          "type": "uint256"
        }
      ],
      "stateMutability": "view",
      "type": "function"
    },
    {
      "inputs": [],
      "name": "totalSupplyNFT",
      "outputs": [
        {
          "internalType": "uint256",
          "name": "",
          "type": "uint256"
        }
      ],
      "stateMutability": "view",
      "type": "function"
    },
    {
      "inputs": [
        {
          "internalType": "address",
          "name": "newOwner",
          "type": "address"
        }
      ],
      "name": "transferOwnership",
      "outputs": [],
      "stateMutability": "nonpayable",
      "type": "function"
    },
    {
      "inputs": [
        {
          "internalType": "address",
          "name": "",
          "type": "address"
        }
      ],
      "name": "userLastReward",
      "outputs": [
        {
          "internalType": "uint256",
          "name": "",
          "type": "uint256"
        }
      ],
      "stateMutability": "view",
      "type": "function"
    },
    {
      "inputs": [
        {
          "internalType": "address",
          "name": "",
          "type": "address"
        }
      ],
      "name": "userLastUpdateTime",
      "outputs": [
        {
          "internalType": "uint256",
          "name": "",
          "type": "uint256"
        }
      ],
      "stateMutability": "view",
      "type": "function"
    },
    {
      "inputs": [
        {
          "internalType": "address",
          "name": "",
          "type": "address"
        }
      ],
      "name": "userRewardPaid",
      "outputs": [
        {
          "internalType": "uint256",
          "name": "",
          "type": "uint256"
        }
      ],
      "stateMutability": "view",
      "type": "function"
    },
    {
      "inputs": [
        {
          "internalType": "address",
          "name": "",
          "type": "address"
        }
      ],
      "name": "userRewardStored",
      "outputs": [
        {
          "internalType": "uint256",
          "name": "",
          "type": "uint256"
        }
      ],
      "stateMutability": "view",
      "type": "function"
    },
    {
      "inputs": [],
      "name": "lastTimeRewardApplicable",
      "outputs": [
        {
          "internalType": "uint256",
          "name": "",
          "type": "uint256"
        }
      ],
      "stateMutability": "view",
      "type": "function"
    },
    {
      "inputs": [
        {
          "internalType": "address",
          "name": "account",
          "type": "address"
        }
      ],
      "name": "userUpdateTime",
      "outputs": [
        {
          "internalType": "uint256",
          "name": "",
          "type": "uint256"
        }
      ],
      "stateMutability": "view",
      "type": "function"
    },
    {
      "inputs": [
        {
          "internalType": "address",
          "name": "account",
          "type": "address"
        },
        {
          "internalType": "uint256",
          "name": "feeward",
          "type": "uint256"
        }
      ],
      "name": "rewardPerUser",
      "outputs": [
        {
          "internalType": "uint256",
          "name": "",
          "type": "uint256"
        }
      ],
      "stateMutability": "view",
      "type": "function"
    },
    {
      "inputs": [
        {
          "internalType": "address",
          "name": "account",
          "type": "address"
        }
      ],
      "name": "rewardPerUserNFT",
      "outputs": [
        {
          "internalType": "uint256",
          "name": "",
          "type": "uint256"
        }
      ],
      "stateMutability": "view",
      "type": "function"
    },
    {
      "inputs": [
        {
          "internalType": "address",
          "name": "account",
          "type": "address"
        }
      ],
      "name": "getRewardStored",
      "outputs": [
        {
          "internalType": "uint256",
          "name": "",
          "type": "uint256"
        }
      ],
      "stateMutability": "view",
      "type": "function"
    },
    {
      "inputs": [
        {
          "internalType": "address",
          "name": "account",
          "type": "address"
        }
      ],
      "name": "getLastReward",
      "outputs": [
        {
          "internalType": "uint256",
          "name": "",
          "type": "uint256"
        }
      ],
      "stateMutability": "view",
      "type": "function"
    },
    {
      "inputs": [
        {
          "internalType": "address",
          "name": "account",
          "type": "address"
        }
      ],
      "name": "getRewardPaid",
      "outputs": [
        {
          "internalType": "uint256",
          "name": "",
          "type": "uint256"
        }
      ],
      "stateMutability": "view",
      "type": "function"
    },
    {
      "inputs": [
        {
          "internalType": "uint256",
          "name": "amount",
          "type": "uint256"
        },
        {
          "internalType": "uint256",
          "name": "feeward",
          "type": "uint256"
        }
      ],
      "name": "stake",
      "outputs": [],
      "stateMutability": "nonpayable",
      "type": "function"
    },
    {
      "inputs": [
        {
          "internalType": "uint256",
          "name": "amount",
          "type": "uint256"
        },
        {
          "internalType": "uint256",
          "name": "feeward",
          "type": "uint256"
        }
      ],
      "name": "withdraw",
      "outputs": [],
      "stateMutability": "nonpayable",
      "type": "function"
    },
    {
      "inputs": [
        {
          "internalType": "uint256[]",
          "name": "tokenIds",
          "type": "uint256[]"
        }
      ],
      "name": "stakeNFT",
      "outputs": [],
      "stateMutability": "nonpayable",
      "type": "function"
    },
    {
      "inputs": [
        {
          "internalType": "uint256[]",
          "name": "tokenIds",
          "type": "uint256[]"
        }
      ],
      "name": "withdrawNFT",
      "outputs": [],
      "stateMutability": "nonpayable",
      "type": "function"
    },
    {
      "inputs": [
        {
          "internalType": "uint256",
          "name": "reward",
          "type": "uint256"
        },
        {
          "internalType": "uint256",
          "name": "feeward",
          "type": "uint256"
        }
      ],
      "name": "getReward",
      "outputs": [],
      "stateMutability": "nonpayable",
      "type": "function"
    },
    {
      "inputs": [],
      "name": "pause",
      "outputs": [],
      "stateMutability": "nonpayable",
      "type": "function"
    },
    {
      "inputs": [],
      "name": "unpause",
      "outputs": [],
      "stateMutability": "nonpayable",
      "type": "function"
    }
  ],
  "bytecode": "0x6080604052600a6004553480156200001657600080fd5b50604051620037ea380380620037ea83398181016040528101906200003c919062000201565b600160008190555062000064620000586200011c60201b60201c565b6200012460201b60201c565b6000600160146101000a81548160ff02191690831515021790555073bc75ecc12c77506dcfd70113b15683a9a0768ab4600260006101000a81548173ffffffffffffffffffffffffffffffffffffffff021916908373ffffffffffffffffffffffffffffffffffffffff16021790555080600360006101000a81548173ffffffffffffffffffffffffffffffffffffffff021916908373ffffffffffffffffffffffffffffffffffffffff160217905550506200027b565b600033905090565b6000600160009054906101000a900473ffffffffffffffffffffffffffffffffffffffff16905081600160006101000a81548173ffffffffffffffffffffffffffffffffffffffff021916908373ffffffffffffffffffffffffffffffffffffffff1602179055508173ffffffffffffffffffffffffffffffffffffffff168173ffffffffffffffffffffffffffffffffffffffff167f8be0079c531659141344cd1fd0a4f28419497f9722a3daafe3b4186f6b6457e060405160405180910390a35050565b600081519050620001fb8162000261565b92915050565b6000602082840312156200021457600080fd5b60006200022484828501620001ea565b91505092915050565b60006200023a8262000241565b9050919050565b600073ffffffffffffffffffffffffffffffffffffffff82169050919050565b6200026c816200022d565b81146200027857600080fd5b50565b61355f806200028b6000396000f3fe608060405234801561001057600080fd5b50600436106101f05760003560e01c806380faa57d1161010f578063ba14f26a116100a2578063da717e1e11610071578063da717e1e146105cf578063f2fde38b146105ff578063f6518ed91461061b578063fcf97c4414610639576101f0565b8063ba14f26a14610521578063c8f33c9114610551578063d080ee701461056f578063d17f742a1461059f576101f0565b806391a31d11116100de57806391a31d1114610487578063b0ea6a84146104b7578063b6108ccf146104d5578063b90bc51914610505576101f0565b806380faa57d146104115780638107368b1461042f5780638456cb591461045f5780638da5cb5b14610469576101f0565b80634b0b3dc71161018757806372f702f31161015657806372f702f3146103895780637b0472f0146103a75780637b0a47ee146103c35780637d8fc88e146103e1576101f0565b80634b0b3dc7146103155780635c975abb1461033157806370b495331461034f578063715018a61461037f576101f0565b8063182c5744116101c3578063182c5744146102a357806327e235e3146102bf5780633f4ba83a146102ef578063441a3e70146102f9576101f0565b80630223705e146101f557806307c217ec14610225578063150b7a021461025557806318160ddd14610285575b600080fd5b61020f600480360381019061020a919061270a565b610669565b60405161021c9190612e46565b60405180910390f35b61023f600480360381019061023a919061270a565b610681565b60405161024c9190612e46565b60405180910390f35b61026f600480360381019061026a9190612733565b610699565b60405161027c9190612c53565b60405180910390f35b61028d6106ad565b60405161029a9190612e46565b60405180910390f35b6102bd60048036038101906102b891906127ea565b6106b3565b005b6102d960048036038101906102d4919061270a565b610a67565b6040516102e69190612e46565b60405180910390f35b6102f7610a7f565b005b610313600480360381019061030e919061287d565b610b05565b005b61032f600480360381019061032a91906127ea565b610d27565b005b610339611175565b6040516103469190612c38565b60405180910390f35b6103696004803603810190610364919061270a565b61118c565b6040516103769190612e46565b60405180910390f35b6103876111d5565b005b61039161125d565b60405161039e9190612c89565b60405180910390f35b6103c160048036038101906103bc919061287d565b611283565b005b6103cb6114eb565b6040516103d89190612e46565b60405180910390f35b6103fb60048036038101906103f69190612854565b6114f1565b6040516104089190612bbd565b60405180910390f35b610419611524565b6040516104269190612e46565b60405180910390f35b6104496004803603810190610444919061270a565b61152c565b6040516104569190612e46565b60405180910390f35b610467611544565b005b6104716115ca565b60405161047e9190612bbd565b60405180910390f35b6104a1600480360381019061049c919061270a565b6115f4565b6040516104ae9190612e46565b60405180910390f35b6104bf61163d565b6040516104cc9190612e46565b60405180910390f35b6104ef60048036038101906104ea91906127ae565b611643565b6040516104fc9190612e46565b60405180910390f35b61051f600480360381019061051a919061287d565b611815565b005b61053b6004803603810190610536919061270a565b611b64565b6040516105489190612e46565b60405180910390f35b610559611b7c565b6040516105669190612e46565b60405180910390f35b6105896004803603810190610584919061270a565b611b82565b6040516105969190612e46565b60405180910390f35b6105b960048036038101906105b4919061270a565b611c9f565b6040516105c69190612e46565b60405180910390f35b6105e960048036038101906105e4919061270a565b611cb7565b6040516105f69190612e46565b60405180910390f35b6106196004803603810190610614919061270a565b611d00565b005b610623611df8565b6040516106309190612c6e565b60405180910390f35b610653600480360381019061064e919061270a565b611e1e565b6040516106609190612e46565b60405180910390f35b600d6020528060005260406000206000915090505481565b60076020528060005260406000206000915090505481565b600063150b7a0260e01b9050949350505050565b600a5481565b600260005414156106f9576040517f08c379a00000000000000000000000000000000000000000000000000000000081526004016106f090612e26565b60405180910390fd5b6002600081905550610709611175565b15610749576040517f08c379a000000000000000000000000000000000000000000000000000000000815260040161074090612d86565b60405180910390fd5b33600073ffffffffffffffffffffffffffffffffffffffff168173ffffffffffffffffffffffffffffffffffffffff16146108245761078781611b82565b600760008373ffffffffffffffffffffffffffffffffffffffff1673ffffffffffffffffffffffffffffffffffffffff168152602001908152602001600020819055506107d2611524565b6005819055506107e0611524565b600660008373ffffffffffffffffffffffffffffffffffffffff1673ffffffffffffffffffffffffffffffffffffffff168152602001908152602001600020819055505b600082511415610869576040517f08c379a000000000000000000000000000000000000000000000000000000000815260040161086090612de6565b60405180910390fd5b600080600090505b8351811015610a0057600360009054906101000a900473ffffffffffffffffffffffffffffffffffffffff1673ffffffffffffffffffffffffffffffffffffffff166342842e0e33308785815181106108f3577f4e487b7100000000000000000000000000000000000000000000000000000000600052603260045260246000fd5b60200260200101516040518463ffffffff1660e01b815260040161091993929190612bd8565b600060405180830381600087803b15801561093357600080fd5b505af1158015610947573d6000803e3d6000fd5b505050506001826109589190612f7e565b915033600e6000868481518110610998577f4e487b7100000000000000000000000000000000000000000000000000000000600052603260045260246000fd5b6020026020010151815260200190815260200160002060006101000a81548173ffffffffffffffffffffffffffffffffffffffff021916908373ffffffffffffffffffffffffffffffffffffffff1602179055506001816109f99190612f7e565b9050610871565b50610a0a81611e67565b3373ffffffffffffffffffffffffffffffffffffffff167fdeaad30c9e3118ba3b39651e76dd3db3536ec6872639078cfe472ab46316afae8285604051610a52929190612e61565b60405180910390a25050600160008190555050565b600c6020528060005260406000206000915090505481565b610a87611ed9565b73ffffffffffffffffffffffffffffffffffffffff16610aa56115ca565b73ffffffffffffffffffffffffffffffffffffffff1614610afb576040517f08c379a0000000000000000000000000000000000000000000000000000000008152600401610af290612da6565b60405180910390fd5b610b03611ee1565b565b60026000541415610b4b576040517f08c379a0000000000000000000000000000000000000000000000000000000008152600401610b4290612e26565b60405180910390fd5b60026000819055503381600073ffffffffffffffffffffffffffffffffffffffff168273ffffffffffffffffffffffffffffffffffffffff1614610c3057610b938282611643565b600760008473ffffffffffffffffffffffffffffffffffffffff1673ffffffffffffffffffffffffffffffffffffffff16815260200190815260200160002081905550610bde611524565b600581905550610bec611524565b600660008473ffffffffffffffffffffffffffffffffffffffff1673ffffffffffffffffffffffffffffffffffffffff168152602001908152602001600020819055505b60008411610c73576040517f08c379a0000000000000000000000000000000000000000000000000000000008152600401610c6a90612d66565b60405180910390fd5b610cc2303386600260009054906101000a900473ffffffffffffffffffffffffffffffffffffffff1673ffffffffffffffffffffffffffffffffffffffff16611f83909392919063ffffffff16565b610ccb8461200c565b3373ffffffffffffffffffffffffffffffffffffffff167f7084f5476618d8e60b11ef0d7d3f06914655adb8793e28ff7f018d4c76d505d585604051610d119190612e46565b60405180910390a2505060016000819055505050565b60026000541415610d6d576040517f08c379a0000000000000000000000000000000000000000000000000000000008152600401610d6490612e26565b60405180910390fd5b600260008190555033600073ffffffffffffffffffffffffffffffffffffffff168173ffffffffffffffffffffffffffffffffffffffff1614610e5057610db381611b82565b600760008373ffffffffffffffffffffffffffffffffffffffff1673ffffffffffffffffffffffffffffffffffffffff16815260200190815260200160002081905550610dfe611524565b600581905550610e0c611524565b600660008373ffffffffffffffffffffffffffffffffffffffff1673ffffffffffffffffffffffffffffffffffffffff168152602001908152602001600020819055505b600082511415610e95576040517f08c379a0000000000000000000000000000000000000000000000000000000008152600401610e8c90612de6565b60405180910390fd5b600080600090505b835181101561110e573373ffffffffffffffffffffffffffffffffffffffff16600e6000868481518110610efa577f4e487b7100000000000000000000000000000000000000000000000000000000600052603260045260246000fd5b6020026020010151815260200190815260200160002060009054906101000a900473ffffffffffffffffffffffffffffffffffffffff1673ffffffffffffffffffffffffffffffffffffffff1614610f87576040517f08c379a0000000000000000000000000000000000000000000000000000000008152600401610f7e90612ce6565b60405180910390fd5b600360009054906101000a900473ffffffffffffffffffffffffffffffffffffffff1673ffffffffffffffffffffffffffffffffffffffff166342842e0e3033878581518110611000577f4e487b7100000000000000000000000000000000000000000000000000000000600052603260045260246000fd5b60200260200101516040518463ffffffff1660e01b815260040161102693929190612bd8565b600060405180830381600087803b15801561104057600080fd5b505af1158015611054573d6000803e3d6000fd5b505050506001826110659190612f7e565b91506000600e60008684815181106110a6577f4e487b7100000000000000000000000000000000000000000000000000000000600052603260045260246000fd5b6020026020010151815260200190815260200160002060006101000a81548173ffffffffffffffffffffffffffffffffffffffff021916908373ffffffffffffffffffffffffffffffffffffffff1602179055506001816111079190612f7e565b9050610e9d565b506111188161207e565b3373ffffffffffffffffffffffffffffffffffffffff167f62ce610c288a7f8a9a6715f35d395ec0702a9719aa06b15bb5e6869d7d19a9528285604051611160929190612e61565b60405180910390a25050600160008190555050565b6000600160149054906101000a900460ff16905090565b6000600660008373ffffffffffffffffffffffffffffffffffffffff1673ffffffffffffffffffffffffffffffffffffffff168152602001908152602001600020549050919050565b6111dd611ed9565b73ffffffffffffffffffffffffffffffffffffffff166111fb6115ca565b73ffffffffffffffffffffffffffffffffffffffff1614611251576040517f08c379a000000000000000000000000000000000000000000000000000000000815260040161124890612da6565b60405180910390fd5b61125b60006120f0565b565b600360009054906101000a900473ffffffffffffffffffffffffffffffffffffffff1681565b600260005414156112c9576040517f08c379a00000000000000000000000000000000000000000000000000000000081526004016112c090612e26565b60405180910390fd5b60026000819055506112d9611175565b15611319576040517f08c379a000000000000000000000000000000000000000000000000000000000815260040161131090612d86565b60405180910390fd5b3381600073ffffffffffffffffffffffffffffffffffffffff168273ffffffffffffffffffffffffffffffffffffffff16146113f6576113598282611643565b600760008473ffffffffffffffffffffffffffffffffffffffff1673ffffffffffffffffffffffffffffffffffffffff168152602001908152602001600020819055506113a4611524565b6005819055506113b2611524565b600660008473ffffffffffffffffffffffffffffffffffffffff1673ffffffffffffffffffffffffffffffffffffffff168152602001908152602001600020819055505b60008411611439576040517f08c379a000000000000000000000000000000000000000000000000000000000815260040161143090612d66565b60405180910390fd5b6114863385600260009054906101000a900473ffffffffffffffffffffffffffffffffffffffff1673ffffffffffffffffffffffffffffffffffffffff166121b69092919063ffffffff16565b61148f8461223c565b3373ffffffffffffffffffffffffffffffffffffffff167f9e71bc8eea02a63969f509818f2dafb9254532904319f9dbda79b67bd34a5f3d856040516114d59190612e46565b60405180910390a2505060016000819055505050565b60045481565b600e6020528060005260406000206000915054906101000a900473ffffffffffffffffffffffffffffffffffffffff1681565b600042905090565b60066020528060005260406000206000915090505481565b61154c611ed9565b73ffffffffffffffffffffffffffffffffffffffff1661156a6115ca565b73ffffffffffffffffffffffffffffffffffffffff16146115c0576040517f08c379a00000000000000000000000000000000000000000000000000000000081526004016115b790612da6565b60405180910390fd5b6115c86122ae565b565b6000600160009054906101000a900473ffffffffffffffffffffffffffffffffffffffff16905090565b6000600960008373ffffffffffffffffffffffffffffffffffffffff1673ffffffffffffffffffffffffffffffffffffffff168152602001908152602001600020549050919050565b600b5481565b600080600a54141561169657600760008473ffffffffffffffffffffffffffffffffffffffff1673ffffffffffffffffffffffffffffffffffffffff16815260200190815260200160002054905061180f565b600a54600c60003373ffffffffffffffffffffffffffffffffffffffff1673ffffffffffffffffffffffffffffffffffffffff16815260200190815260200160002054836116e49190613005565b6116ee9190612fd4565b600c60008573ffffffffffffffffffffffffffffffffffffffff1673ffffffffffffffffffffffffffffffffffffffff16815260200190815260200160002054670de0b6b3a7640000620151a86004546117489190612fd4565b600660008873ffffffffffffffffffffffffffffffffffffffff1673ffffffffffffffffffffffffffffffffffffffff16815260200190815260200160002054611790611524565b61179a919061305f565b6117a49190613005565b6117ae9190613005565b6117b89190613005565b600760008673ffffffffffffffffffffffffffffffffffffffff1673ffffffffffffffffffffffffffffffffffffffff168152602001908152602001600020546118029190612f7e565b61180c9190612f7e565b90505b92915050565b6002600054141561185b576040517f08c379a000000000000000000000000000000000000000000000000000000000815260040161185290612e26565b60405180910390fd5b60026000819055503381600073ffffffffffffffffffffffffffffffffffffffff168273ffffffffffffffffffffffffffffffffffffffff1614611940576118a38282611643565b600760008473ffffffffffffffffffffffffffffffffffffffff1673ffffffffffffffffffffffffffffffffffffffff168152602001908152602001600020819055506118ee611524565b6005819055506118fc611524565b600660008473ffffffffffffffffffffffffffffffffffffffff1673ffffffffffffffffffffffffffffffffffffffff168152602001908152602001600020819055505b83600760003373ffffffffffffffffffffffffffffffffffffffff1673ffffffffffffffffffffffffffffffffffffffff16815260200190815260200160002054116119c1576040517f08c379a00000000000000000000000000000000000000000000000000000000081526004016119b890612d46565b60405180910390fd5b6000841115611b5657611a173385600260009054906101000a900473ffffffffffffffffffffffffffffffffffffffff1673ffffffffffffffffffffffffffffffffffffffff166121b69092919063ffffffff16565b83600760003373ffffffffffffffffffffffffffffffffffffffff1673ffffffffffffffffffffffffffffffffffffffff1681526020019081526020016000206000828254611a66919061305f565b9250508190555083600860003373ffffffffffffffffffffffffffffffffffffffff1673ffffffffffffffffffffffffffffffffffffffff1681526020019081526020016000208190555083600960003373ffffffffffffffffffffffffffffffffffffffff1673ffffffffffffffffffffffffffffffffffffffff1681526020019081526020016000206000828254611b009190612f7e565b925050819055503373ffffffffffffffffffffffffffffffffffffffff167fe2403640ba68fed3a2f88b7557551d1993f84b99bb10ff833f0cf8db0c5e048685604051611b4d9190612e46565b60405180910390a25b505060016000819055505050565b60096020528060005260406000206000915090505481565b60055481565b6000600c60008373ffffffffffffffffffffffffffffffffffffffff1673ffffffffffffffffffffffffffffffffffffffff16815260200190815260200160002054670de0b6b3a7640000620151a8600454611bde9190612fd4565b600660008673ffffffffffffffffffffffffffffffffffffffff1673ffffffffffffffffffffffffffffffffffffffff16815260200190815260200160002054611c26611524565b611c30919061305f565b611c3a9190613005565b611c449190613005565b611c4e9190613005565b600760008473ffffffffffffffffffffffffffffffffffffffff1673ffffffffffffffffffffffffffffffffffffffff16815260200190815260200160002054611c989190612f7e565b9050919050565b60086020528060005260406000206000915090505481565b6000600760008373ffffffffffffffffffffffffffffffffffffffff1673ffffffffffffffffffffffffffffffffffffffff168152602001908152602001600020549050919050565b611d08611ed9565b73ffffffffffffffffffffffffffffffffffffffff16611d266115ca565b73ffffffffffffffffffffffffffffffffffffffff1614611d7c576040517f08c379a0000000000000000000000000000000000000000000000000000000008152600401611d7390612da6565b60405180910390fd5b600073ffffffffffffffffffffffffffffffffffffffff168173ffffffffffffffffffffffffffffffffffffffff161415611dec576040517f08c379a0000000000000000000000000000000000000000000000000000000008152600401611de390612d06565b60405180910390fd5b611df5816120f0565b50565b600260009054906101000a900473ffffffffffffffffffffffffffffffffffffffff1681565b6000600860008373ffffffffffffffffffffffffffffffffffffffff1673ffffffffffffffffffffffffffffffffffffffff168152602001908152602001600020549050919050565b80600b6000828254611e799190612f7e565b9250508190555080600d60003373ffffffffffffffffffffffffffffffffffffffff1673ffffffffffffffffffffffffffffffffffffffff1681526020019081526020016000206000828254611ecf9190612f7e565b9250508190555050565b600033905090565b611ee9611175565b611f28576040517f08c379a0000000000000000000000000000000000000000000000000000000008152600401611f1f90612cc6565b60405180910390fd5b6000600160146101000a81548160ff0219169083151502179055507f5db9ee0a495bf2e6ff9c91a7834c1ba4fdd244a5e8aa4e537bd38aeae4b073aa611f6c611ed9565b604051611f799190612bbd565b60405180910390a1565b612006846323b872dd60e01b858585604051602401611fa493929190612bd8565b604051602081830303815290604052907bffffffffffffffffffffffffffffffffffffffffffffffffffffffff19166020820180517bffffffffffffffffffffffffffffffffffffffffffffffffffffffff8381831617835250505050612350565b50505050565b80600a600082825461201e919061305f565b9250508190555080600c60003373ffffffffffffffffffffffffffffffffffffffff1673ffffffffffffffffffffffffffffffffffffffff1681526020019081526020016000206000828254612074919061305f565b9250508190555050565b80600b6000828254612090919061305f565b9250508190555080600d60003373ffffffffffffffffffffffffffffffffffffffff1673ffffffffffffffffffffffffffffffffffffffff16815260200190815260200160002060008282546120e6919061305f565b9250508190555050565b6000600160009054906101000a900473ffffffffffffffffffffffffffffffffffffffff16905081600160006101000a81548173ffffffffffffffffffffffffffffffffffffffff021916908373ffffffffffffffffffffffffffffffffffffffff1602179055508173ffffffffffffffffffffffffffffffffffffffff168173ffffffffffffffffffffffffffffffffffffffff167f8be0079c531659141344cd1fd0a4f28419497f9722a3daafe3b4186f6b6457e060405160405180910390a35050565b6122378363a9059cbb60e01b84846040516024016121d5929190612c0f565b604051602081830303815290604052907bffffffffffffffffffffffffffffffffffffffffffffffffffffffff19166020820180517bffffffffffffffffffffffffffffffffffffffffffffffffffffffff8381831617835250505050612350565b505050565b80600a600082825461224e9190612f7e565b9250508190555080600c60003373ffffffffffffffffffffffffffffffffffffffff1673ffffffffffffffffffffffffffffffffffffffff16815260200190815260200160002060008282546122a49190612f7e565b9250508190555050565b6122b6611175565b156122f6576040517f08c379a00000000000000000000000000000000000000000000000000000000081526004016122ed90612d86565b60405180910390fd5b60018060146101000a81548160ff0219169083151502179055507f62e78cea01bee320cd4e420270b5ea74000d11b0c9f74754ebdbfc544b05a258612339611ed9565b6040516123469190612bbd565b60405180910390a1565b60006123b2826040518060400160405280602081526020017f5361666545524332303a206c6f772d6c6576656c2063616c6c206661696c65648152508573ffffffffffffffffffffffffffffffffffffffff166124179092919063ffffffff16565b905060008151111561241257808060200190518101906123d2919061282b565b612411576040517f08c379a000000000000000000000000000000000000000000000000000000000815260040161240890612e06565b60405180910390fd5b5b505050565b6060612426848460008561242f565b90509392505050565b606082471015612474576040517f08c379a000000000000000000000000000000000000000000000000000000000815260040161246b90612d26565b60405180910390fd5b61247d85612543565b6124bc576040517f08c379a00000000000000000000000000000000000000000000000000000000081526004016124b390612dc6565b60405180910390fd5b6000808673ffffffffffffffffffffffffffffffffffffffff1685876040516124e59190612ba6565b60006040518083038185875af1925050503d8060008114612522576040519150601f19603f3d011682016040523d82523d6000602084013e612527565b606091505b5091509150612537828286612566565b92505050949350505050565b6000808273ffffffffffffffffffffffffffffffffffffffff163b119050919050565b60608315612576578290506125c6565b6000835111156125895782518084602001fd5b816040517f08c379a00000000000000000000000000000000000000000000000000000000081526004016125bd9190612ca4565b60405180910390fd5b9392505050565b60006125e06125db84612eb6565b612e91565b905080838252602082019050828560208602820111156125ff57600080fd5b60005b8581101561262f578161261588826126f5565b845260208401935060208301925050600181019050612602565b5050509392505050565b600061264c61264784612ee2565b612e91565b90508281526020810184848401111561266457600080fd5b61266f84828561314f565b509392505050565b600081359050612686816134e4565b92915050565b600082601f83011261269d57600080fd5b81356126ad8482602086016125cd565b91505092915050565b6000815190506126c5816134fb565b92915050565b600082601f8301126126dc57600080fd5b81356126ec848260208601612639565b91505092915050565b60008135905061270481613512565b92915050565b60006020828403121561271c57600080fd5b600061272a84828501612677565b91505092915050565b6000806000806080858703121561274957600080fd5b600061275787828801612677565b945050602061276887828801612677565b9350506040612779878288016126f5565b925050606085013567ffffffffffffffff81111561279657600080fd5b6127a2878288016126cb565b91505092959194509250565b600080604083850312156127c157600080fd5b60006127cf85828601612677565b92505060206127e0858286016126f5565b9150509250929050565b6000602082840312156127fc57600080fd5b600082013567ffffffffffffffff81111561281657600080fd5b6128228482850161268c565b91505092915050565b60006020828403121561283d57600080fd5b600061284b848285016126b6565b91505092915050565b60006020828403121561286657600080fd5b6000612874848285016126f5565b91505092915050565b6000806040838503121561289057600080fd5b600061289e858286016126f5565b92505060206128af858286016126f5565b9150509250929050565b60006128c58383612b88565b60208301905092915050565b6128da81613093565b82525050565b60006128eb82612f23565b6128f58185612f51565b935061290083612f13565b8060005b8381101561293157815161291888826128b9565b975061292383612f44565b925050600181019050612904565b5085935050505092915050565b612947816130a5565b82525050565b612956816130b1565b82525050565b600061296782612f2e565b6129718185612f62565b935061298181856020860161315e565b80840191505092915050565b61299681613107565b82525050565b6129a58161312b565b82525050565b60006129b682612f39565b6129c08185612f6d565b93506129d081856020860161315e565b6129d98161324f565b840191505092915050565b60006129f1601483612f6d565b91506129fc82613260565b602082019050919050565b6000612a14602483612f6d565b9150612a1f82613289565b604082019050919050565b6000612a37602683612f6d565b9150612a42826132d8565b604082019050919050565b6000612a5a602683612f6d565b9150612a6582613327565b604082019050919050565b6000612a7d601783612f6d565b9150612a8882613376565b602082019050919050565b6000612aa0601a83612f6d565b9150612aab8261339f565b602082019050919050565b6000612ac3601083612f6d565b9150612ace826133c8565b602082019050919050565b6000612ae6602083612f6d565b9150612af1826133f1565b602082019050919050565b6000612b09601d83612f6d565b9150612b148261341a565b602082019050919050565b6000612b2c601d83612f6d565b9150612b3782613443565b602082019050919050565b6000612b4f602a83612f6d565b9150612b5a8261346c565b604082019050919050565b6000612b72601f83612f6d565b9150612b7d826134bb565b602082019050919050565b612b91816130fd565b82525050565b612ba0816130fd565b82525050565b6000612bb2828461295c565b915081905092915050565b6000602082019050612bd260008301846128d1565b92915050565b6000606082019050612bed60008301866128d1565b612bfa60208301856128d1565b612c076040830184612b97565b949350505050565b6000604082019050612c2460008301856128d1565b612c316020830184612b97565b9392505050565b6000602082019050612c4d600083018461293e565b92915050565b6000602082019050612c68600083018461294d565b92915050565b6000602082019050612c83600083018461298d565b92915050565b6000602082019050612c9e600083018461299c565b92915050565b60006020820190508181036000830152612cbe81846129ab565b905092915050565b60006020820190508181036000830152612cdf816129e4565b9050919050565b60006020820190508181036000830152612cff81612a07565b9050919050565b60006020820190508181036000830152612d1f81612a2a565b9050919050565b60006020820190508181036000830152612d3f81612a4d565b9050919050565b60006020820190508181036000830152612d5f81612a70565b9050919050565b60006020820190508181036000830152612d7f81612a93565b9050919050565b60006020820190508181036000830152612d9f81612ab6565b9050919050565b60006020820190508181036000830152612dbf81612ad9565b9050919050565b60006020820190508181036000830152612ddf81612afc565b9050919050565b60006020820190508181036000830152612dff81612b1f565b9050919050565b60006020820190508181036000830152612e1f81612b42565b9050919050565b60006020820190508181036000830152612e3f81612b65565b9050919050565b6000602082019050612e5b6000830184612b97565b92915050565b6000604082019050612e766000830185612b97565b8181036020830152612e8881846128e0565b90509392505050565b6000612e9b612eac565b9050612ea78282613191565b919050565b6000604051905090565b600067ffffffffffffffff821115612ed157612ed0613220565b5b602082029050602081019050919050565b600067ffffffffffffffff821115612efd57612efc613220565b5b612f068261324f565b9050602081019050919050565b6000819050602082019050919050565b600081519050919050565b600081519050919050565b600081519050919050565b6000602082019050919050565b600082825260208201905092915050565b600081905092915050565b600082825260208201905092915050565b6000612f89826130fd565b9150612f94836130fd565b9250827fffffffffffffffffffffffffffffffffffffffffffffffffffffffffffffffff03821115612fc957612fc86131c2565b5b828201905092915050565b6000612fdf826130fd565b9150612fea836130fd565b925082612ffa57612ff96131f1565b5b828204905092915050565b6000613010826130fd565b915061301b836130fd565b9250817fffffffffffffffffffffffffffffffffffffffffffffffffffffffffffffffff0483118215151615613054576130536131c2565b5b828202905092915050565b600061306a826130fd565b9150613075836130fd565b925082821015613088576130876131c2565b5b828203905092915050565b600061309e826130dd565b9050919050565b60008115159050919050565b60007fffffffff0000000000000000000000000000000000000000000000000000000082169050919050565b600073ffffffffffffffffffffffffffffffffffffffff82169050919050565b6000819050919050565b600061311282613119565b9050919050565b6000613124826130dd565b9050919050565b60006131368261313d565b9050919050565b6000613148826130dd565b9050919050565b82818337600083830152505050565b60005b8381101561317c578082015181840152602081019050613161565b8381111561318b576000848401525b50505050565b61319a8261324f565b810181811067ffffffffffffffff821117156131b9576131b8613220565b5b80604052505050565b7f4e487b7100000000000000000000000000000000000000000000000000000000600052601160045260246000fd5b7f4e487b7100000000000000000000000000000000000000000000000000000000600052601260045260246000fd5b7f4e487b7100000000000000000000000000000000000000000000000000000000600052604160045260246000fd5b6000601f19601f8301169050919050565b7f5061757361626c653a206e6f7420706175736564000000000000000000000000600082015250565b7f5374616b696e673a204e6f7420746865207374616b6572206f6620746865207460008201527f6f6b656e00000000000000000000000000000000000000000000000000000000602082015250565b7f4f776e61626c653a206e6577206f776e657220697320746865207a65726f206160008201527f6464726573730000000000000000000000000000000000000000000000000000602082015250565b7f416464726573733a20696e73756666696369656e742062616c616e636520666f60008201527f722063616c6c0000000000000000000000000000000000000000000000000000602082015250565b7f526577617264732077616e74656420746f6f206d756368000000000000000000600082015250565b7f5374616b696e673a204e6f2070756d6c782070726f7669646564000000000000600082015250565b7f5061757361626c653a2070617573656400000000000000000000000000000000600082015250565b7f4f776e61626c653a2063616c6c6572206973206e6f7420746865206f776e6572600082015250565b7f416464726573733a2063616c6c20746f206e6f6e2d636f6e7472616374000000600082015250565b7f5374616b696e673a204e6f20746f6b656e4964732070726f7669646564000000600082015250565b7f5361666545524332303a204552433230206f7065726174696f6e20646964206e60008201527f6f74207375636365656400000000000000000000000000000000000000000000602082015250565b7f5265656e7472616e637947756172643a207265656e7472616e742063616c6c00600082015250565b6134ed81613093565b81146134f857600080fd5b50565b613504816130a5565b811461350f57600080fd5b50565b61351b816130fd565b811461352657600080fd5b5056fea264697066735822122091e0d94b8e1868025708688738172b6f90922532eb964d82d16706bb797b366864736f6c63430008040033",
  "immutableReferences": {},
  "source": "// SPDX-License-Identifier: MIT\r\npragma solidity ^0.8.4;\r\n\r\nimport \"@openzeppelin/contracts/token/ERC721/IERC721.sol\";\r\nimport \"@openzeppelin/contracts/token/ERC20/IERC20.sol\";\r\nimport \"@openzeppelin/contracts/token/ERC20/utils/SafeERC20.sol\";\r\nimport \"@openzeppelin/contracts/token/ERC721/utils/ERC721Holder.sol\";\r\nimport \"@openzeppelin/contracts/security/ReentrancyGuard.sol\";\r\nimport \"@openzeppelin/contracts/security/Pausable.sol\";\r\nimport \"@openzeppelin/contracts/access/Ownable.sol\";\r\n\r\ncontract PumlxStaking is ERC721Holder, ReentrancyGuard, Ownable, Pausable {\r\n    using SafeERC20 for IERC20;\r\n\r\n    /* ========== STATE VARIABLES ========== */\r\n\r\n    IERC20 public pumlxToken;\r\n    IERC721 public stakingToken;\r\n    uint256 public rewardRate = 10;\r\n    uint256 public lastUpdateTime;\r\n\r\n    mapping(address => uint256) public userLastUpdateTime;\r\n    mapping(address => uint256) public userRewardStored;\r\n    mapping(address => uint256) public userLastReward;\r\n    mapping(address => uint256) public userRewardPaid;\r\n\r\n    uint256 public totalSupply;\r\n    uint256 public totalSupplyNFT;\r\n    mapping(address => uint256) public balances;\r\n    mapping(address => uint256) public balancesNFT;\r\n    mapping(uint256 => address) public stakedAssets;\r\n\r\n    /* ========== CONSTRUCTOR ========== */\r\n\r\n    constructor(address _stakingToken) {\r\n        pumlxToken = IERC20(0xbc75ECc12c77506DCFd70113B15683A9a0768AB4);\r\n        stakingToken = IERC721(_stakingToken);\r\n    }\r\n\r\n    /* ========== VIEWS ========== */\r\n\r\n    function lastTimeRewardApplicable() public view returns (uint256) {\r\n        return block.timestamp;\r\n    }\r\n\r\n    function userUpdateTime(address account) public view returns (uint256) {\r\n        return userLastUpdateTime[account];\r\n    }\r\n\r\n    function rewardPerUser(address account, uint256 feeward) public view returns (uint256) {\r\n        if (totalSupply == 0) {\r\n            return userRewardStored[account];\r\n        } else {\r\n            return\r\n                userRewardStored[account] +\r\n                ((lastTimeRewardApplicable() - userLastUpdateTime[account]) * (rewardRate / 86440) * 1e18 * balances[account]) +\r\n                (feeward * balances[msg.sender] / totalSupply);\r\n        }\r\n    }\r\n\r\n    function rewardPerUserNFT(address account) public view returns (uint256) {\r\n        return\r\n            userRewardStored[account] +\r\n            ((lastTimeRewardApplicable() - userLastUpdateTime[account]) * (rewardRate / 86440) * 1e18 * balances[account]);\r\n    }\r\n\r\n    function getRewardStored(address account) public view returns (uint256) {\r\n        return userRewardStored[account];\r\n    }\r\n\r\n    function getLastReward(address account) public view returns (uint256) {\r\n        return userLastReward[account];\r\n    }\r\n\r\n    function getRewardPaid(address account) public view returns (uint256) {\r\n        return userRewardPaid[account];\r\n    }\r\n\r\n    /* ========== MUTATIVE FUNCTIONS ========== */\r\n\r\n    function stake(uint256 amount, uint256 feeward) external nonReentrant whenNotPaused updateReward(msg.sender, feeward) {\r\n        require(amount > 0, \"Staking: No pumlx provided\");\r\n\r\n        pumlxToken.safeTransfer(msg.sender, amount);\r\n        _stake(amount);\r\n        emit Staked(msg.sender, amount);\r\n    }\r\n\r\n    function withdraw(uint256 amount, uint256 feeward) public nonReentrant updateReward(msg.sender, feeward) {\r\n        require(amount > 0, \"Staking: No pumlx provided\");\r\n\r\n        pumlxToken.safeTransferFrom(address(this), msg.sender, amount);\r\n        _withdraw(amount);\r\n\r\n        emit Withdrawn(msg.sender, amount);\r\n    }\r\n\r\n    /// @notice Stakes user's NFTs\r\n    /// @param tokenIds The tokenIds of the NFTs which will be staked\r\n    function stakeNFT(uint256[] memory tokenIds) external nonReentrant whenNotPaused updateRewardNFT(msg.sender) {\r\n        require(tokenIds.length != 0, \"Staking: No tokenIds provided\");\r\n\r\n        uint256 amount;\r\n        for (uint256 i = 0; i < tokenIds.length; i += 1) {\r\n            // Transfer user's NFTs to the staking contract\r\n            stakingToken.safeTransferFrom(msg.sender, address(this), tokenIds[i]);\r\n            // Increment the amount which will be staked\r\n            amount += 1;\r\n            // Save who is the staker/depositor of the token\r\n            stakedAssets[tokenIds[i]] = msg.sender;\r\n        }\r\n        _stakeNFT(amount);\r\n        emit StakedNFT(msg.sender, amount, tokenIds);\r\n    }\r\n\r\n    /// @notice Withdraws staked user's NFTs\r\n    /// @param tokenIds The tokenIds of the NFTs which will be withdrawn\r\n    function withdrawNFT(uint256[] memory tokenIds) public nonReentrant updateRewardNFT(msg.sender) {\r\n        require(tokenIds.length != 0, \"Staking: No tokenIds provided\");\r\n\r\n        uint256 amount;\r\n        for (uint256 i = 0; i < tokenIds.length; i += 1) {\r\n            // Check if the user who withdraws is the owner\r\n            require(\r\n                stakedAssets[tokenIds[i]] == msg.sender,\r\n                \"Staking: Not the staker of the token\"\r\n            );\r\n            // Transfer NFTs back to the owner\r\n            stakingToken.safeTransferFrom(address(this), msg.sender, tokenIds[i]);\r\n            // Increment the amount which will be withdrawn\r\n            amount += 1;\r\n            // Cleanup stakedAssets for the current tokenId\r\n            stakedAssets[tokenIds[i]] = address(0);\r\n        }\r\n        _withdrawNFT(amount);\r\n\r\n        emit WithdrawnNFT(msg.sender, amount, tokenIds);\r\n    }\r\n\r\n    function getReward(uint256 reward, uint256 feeward) public nonReentrant updateReward(msg.sender, feeward) {\r\n\r\n        require(userRewardStored[msg.sender] > reward, \"Rewards wanted too much\");\r\n\r\n        if (reward > 0) {\r\n            pumlxToken.safeTransfer(msg.sender, reward);\r\n            userRewardStored[msg.sender] -= reward;\r\n            userLastReward[msg.sender] = reward;\r\n            userRewardPaid[msg.sender] += reward;\r\n\r\n            emit RewardPaid(msg.sender, reward);\r\n        }\r\n    }\r\n\r\n    function _stake(uint256 _amount) internal {\r\n        totalSupply += _amount;\r\n        balances[msg.sender] += _amount;\r\n    }\r\n\r\n    function _withdraw(uint256 _amount) internal {\r\n        totalSupply -= _amount;\r\n        balances[msg.sender] -= _amount;\r\n    }\r\n\r\n    function _stakeNFT(uint256 _amount) internal {\r\n        totalSupplyNFT += _amount;\r\n        balancesNFT[msg.sender] += _amount;\r\n    }\r\n\r\n    function _withdrawNFT(uint256 _amount) internal {\r\n        totalSupplyNFT -= _amount;\r\n        balancesNFT[msg.sender] -= _amount;\r\n    }\r\n\r\n    /* ========== RESTRICTED FUNCTIONS ========== */\r\n\r\n    function pause() external onlyOwner {\r\n        _pause();\r\n    }\r\n\r\n    function unpause() external onlyOwner {\r\n        _unpause();\r\n    }\r\n\r\n    /* ========== MODIFIERS ========== */\r\n\r\n    modifier updateReward(address account, uint256 feeward) {\r\n        if (account != address(0)) {\r\n            userRewardStored[account] = rewardPerUser(account, feeward);\r\n            lastUpdateTime = lastTimeRewardApplicable();\r\n            userLastUpdateTime[account] = lastTimeRewardApplicable();\r\n        }\r\n         _;\r\n    }\r\n\r\n    modifier updateRewardNFT(address account) {\r\n        if (account != address(0)) {\r\n            userRewardStored[account] = rewardPerUserNFT(account);\r\n            lastUpdateTime = lastTimeRewardApplicable();\r\n            userLastUpdateTime[account] = lastTimeRewardApplicable();\r\n        }\r\n        _;\r\n    }\r\n\r\n    /* ========== EVENTS ========== */\r\n\r\n\r\n    event Staked(address indexed user, uint256 amount);\r\n    event Withdrawn(address indexed user, uint256 amount);\r\n    event RewardPaid(address indexed user, uint256 reward);\r\n\r\n    event StakedNFT(address indexed user, uint256 amount, uint256[] tokenIds);\r\n    event WithdrawnNFT(address indexed user, uint256 amount, uint256[] tokenIds);\r\n}\r\n",
  "sourcePath": "F:\\work\\puml-project\\stakingcontracts\\contracts\\PumlxStaking.sol",
  "compiler": {
    "name": "solc",
    "version": "0.8.4+commit.c7e474f2.Emscripten.clang"
  },
  "schemaVersion": "3.4.5",
  "updatedAt": "2022-03-29T16:47:26.080Z",
  "devdoc": {
    "kind": "dev",
    "methods": {
      "onERC721Received(address,address,uint256,bytes)": {
        "details": "See {IERC721Receiver-onERC721Received}. Always returns `IERC721Receiver.onERC721Received.selector`."
      },
      "owner()": {
        "details": "Returns the address of the current owner."
      },
      "paused()": {
        "details": "Returns true if the contract is paused, and false otherwise."
      },
      "renounceOwnership()": {
        "details": "Leaves the contract without owner. It will not be possible to call `onlyOwner` functions anymore. Can only be called by the current owner. NOTE: Renouncing ownership will leave the contract without an owner, thereby removing any functionality that is only available to the owner."
      },
      "stakeNFT(uint256[])": {
        "params": {
          "tokenIds": "The tokenIds of the NFTs which will be staked"
        }
      },
      "transferOwnership(address)": {
        "details": "Transfers ownership of the contract to a new account (`newOwner`). Can only be called by the current owner."
      },
      "withdrawNFT(uint256[])": {
        "params": {
          "tokenIds": "The tokenIds of the NFTs which will be withdrawn"
        }
      }
    },
    "version": 1
  },
  "userdoc": {
    "kind": "user",
    "methods": {
      "stakeNFT(uint256[])": {
        "notice": "Stakes user's NFTs"
      },
      "withdrawNFT(uint256[])": {
        "notice": "Withdraws staked user's NFTs"
      }
    },
    "version": 1
  }
}