{
  "contractName": "PumlxStaking",
  "abi": [
    {
      "inputs": [
        {
          "internalType": "address",
          "name": "_stakingToken",
          "type": "address"
        }
      ],
      "stateMutability": "nonpayable",
      "type": "constructor"
    },
    {
      "anonymous": false,
      "inputs": [
        {
          "indexed": true,
          "internalType": "address",
          "name": "previousOwner",
          "type": "address"
        },
        {
          "indexed": true,
          "internalType": "address",
          "name": "newOwner",
          "type": "address"
        }
      ],
      "name": "OwnershipTransferred",
      "type": "event"
    },
    {
      "anonymous": false,
      "inputs": [
        {
          "indexed": false,
          "internalType": "address",
          "name": "account",
          "type": "address"
        }
      ],
      "name": "Paused",
      "type": "event"
    },
    {
      "anonymous": false,
      "inputs": [
        {
          "indexed": true,
          "internalType": "address",
          "name": "user",
          "type": "address"
        },
        {
          "indexed": false,
          "internalType": "uint256",
          "name": "reward",
          "type": "uint256"
        }
      ],
      "name": "RewardPaid",
      "type": "event"
    },
    {
      "anonymous": false,
      "inputs": [
        {
          "indexed": true,
          "internalType": "address",
          "name": "user",
          "type": "address"
        },
        {
          "indexed": false,
          "internalType": "uint256",
          "name": "amount",
          "type": "uint256"
        }
      ],
      "name": "Staked",
      "type": "event"
    },
    {
      "anonymous": false,
      "inputs": [
        {
          "indexed": true,
          "internalType": "address",
          "name": "user",
          "type": "address"
        },
        {
          "indexed": false,
          "internalType": "uint256",
          "name": "amount",
          "type": "uint256"
        },
        {
          "indexed": false,
          "internalType": "uint256[]",
          "name": "tokenIds",
          "type": "uint256[]"
        }
      ],
      "name": "StakedNFT",
      "type": "event"
    },
    {
      "anonymous": false,
      "inputs": [
        {
          "indexed": false,
          "internalType": "address",
          "name": "account",
          "type": "address"
        }
      ],
      "name": "Unpaused",
      "type": "event"
    },
    {
      "anonymous": false,
      "inputs": [
        {
          "indexed": true,
          "internalType": "address",
          "name": "user",
          "type": "address"
        },
        {
          "indexed": false,
          "internalType": "uint256",
          "name": "amount",
          "type": "uint256"
        }
      ],
      "name": "Withdrawn",
      "type": "event"
    },
    {
      "anonymous": false,
      "inputs": [
        {
          "indexed": true,
          "internalType": "address",
          "name": "user",
          "type": "address"
        },
        {
          "indexed": false,
          "internalType": "uint256",
          "name": "amount",
          "type": "uint256"
        },
        {
          "indexed": false,
          "internalType": "uint256[]",
          "name": "tokenIds",
          "type": "uint256[]"
        }
      ],
      "name": "WithdrawnNFT",
      "type": "event"
    },
    {
      "inputs": [
        {
          "internalType": "address",
          "name": "",
          "type": "address"
        }
      ],
      "name": "balances",
      "outputs": [
        {
          "internalType": "uint256",
          "name": "",
          "type": "uint256"
        }
      ],
      "stateMutability": "view",
      "type": "function"
    },
    {
      "inputs": [
        {
          "internalType": "address",
          "name": "",
          "type": "address"
        }
      ],
      "name": "balancesNFT",
      "outputs": [
        {
          "internalType": "uint256",
          "name": "",
          "type": "uint256"
        }
      ],
      "stateMutability": "view",
      "type": "function"
    },
    {
      "inputs": [],
      "name": "lastUpdateTime",
      "outputs": [
        {
          "internalType": "uint256",
          "name": "",
          "type": "uint256"
        }
      ],
      "stateMutability": "view",
      "type": "function"
    },
    {
      "inputs": [
        {
          "internalType": "address",
          "name": "",
          "type": "address"
        },
        {
          "internalType": "address",
          "name": "",
          "type": "address"
        },
        {
          "internalType": "uint256",
          "name": "",
          "type": "uint256"
        },
        {
          "internalType": "bytes",
          "name": "",
          "type": "bytes"
        }
      ],
      "name": "onERC721Received",
      "outputs": [
        {
          "internalType": "bytes4",
          "name": "",
          "type": "bytes4"
        }
      ],
      "stateMutability": "nonpayable",
      "type": "function"
    },
    {
      "inputs": [],
      "name": "owner",
      "outputs": [
        {
          "internalType": "address",
          "name": "",
          "type": "address"
        }
      ],
      "stateMutability": "view",
      "type": "function"
    },
    {
      "inputs": [],
      "name": "paused",
      "outputs": [
        {
          "internalType": "bool",
          "name": "",
          "type": "bool"
        }
      ],
      "stateMutability": "view",
      "type": "function"
    },
    {
      "inputs": [],
      "name": "pumlxToken",
      "outputs": [
        {
          "internalType": "contract IERC20",
          "name": "",
          "type": "address"
        }
      ],
      "stateMutability": "view",
      "type": "function"
    },
    {
      "inputs": [],
      "name": "renounceOwnership",
      "outputs": [],
      "stateMutability": "nonpayable",
      "type": "function"
    },
    {
      "inputs": [],
      "name": "rewardRate",
      "outputs": [
        {
          "internalType": "uint256",
          "name": "",
          "type": "uint256"
        }
      ],
      "stateMutability": "view",
      "type": "function"
    },
    {
      "inputs": [
        {
          "internalType": "uint256",
          "name": "",
          "type": "uint256"
        }
      ],
      "name": "stakeData",
      "outputs": [
        {
          "internalType": "uint256",
          "name": "",
          "type": "uint256"
        }
      ],
      "stateMutability": "view",
      "type": "function"
    },
    {
      "inputs": [
        {
          "internalType": "uint256",
          "name": "",
          "type": "uint256"
        }
      ],
      "name": "stakedAssets",
      "outputs": [
        {
          "internalType": "address",
          "name": "",
          "type": "address"
        }
      ],
      "stateMutability": "view",
      "type": "function"
    },
    {
      "inputs": [],
      "name": "stakingToken",
      "outputs": [
        {
          "internalType": "contract IERC721",
          "name": "",
          "type": "address"
        }
      ],
      "stateMutability": "view",
      "type": "function"
    },
    {
      "inputs": [],
      "name": "totalSupply",
      "outputs": [
        {
          "internalType": "uint256",
          "name": "",
          "type": "uint256"
        }
      ],
      "stateMutability": "view",
      "type": "function"
    },
    {
      "inputs": [],
      "name": "totalSupplyNFT",
      "outputs": [
        {
          "internalType": "uint256",
          "name": "",
          "type": "uint256"
        }
      ],
      "stateMutability": "view",
      "type": "function"
    },
    {
      "inputs": [
        {
          "internalType": "address",
          "name": "newOwner",
          "type": "address"
        }
      ],
      "name": "transferOwnership",
      "outputs": [],
      "stateMutability": "nonpayable",
      "type": "function"
    },
    {
      "inputs": [
        {
          "internalType": "address",
          "name": "",
          "type": "address"
        }
      ],
      "name": "userLastReward",
      "outputs": [
        {
          "internalType": "uint256",
          "name": "",
          "type": "uint256"
        }
      ],
      "stateMutability": "view",
      "type": "function"
    },
    {
      "inputs": [
        {
          "internalType": "address",
          "name": "",
          "type": "address"
        }
      ],
      "name": "userLastUpdateTime",
      "outputs": [
        {
          "internalType": "uint256",
          "name": "",
          "type": "uint256"
        }
      ],
      "stateMutability": "view",
      "type": "function"
    },
    {
      "inputs": [
        {
          "internalType": "address",
          "name": "",
          "type": "address"
        }
      ],
      "name": "userRewardPaid",
      "outputs": [
        {
          "internalType": "uint256",
          "name": "",
          "type": "uint256"
        }
      ],
      "stateMutability": "view",
      "type": "function"
    },
    {
      "inputs": [
        {
          "internalType": "address",
          "name": "",
          "type": "address"
        }
      ],
      "name": "userRewardStored",
      "outputs": [
        {
          "internalType": "uint256",
          "name": "",
          "type": "uint256"
        }
      ],
      "stateMutability": "view",
      "type": "function"
    },
    {
      "inputs": [],
      "name": "lastTimeRewardApplicable",
      "outputs": [
        {
          "internalType": "uint256",
          "name": "",
          "type": "uint256"
        }
      ],
      "stateMutability": "view",
      "type": "function"
    },
    {
      "inputs": [
        {
          "internalType": "address",
          "name": "account",
          "type": "address"
        }
      ],
      "name": "userUpdateTime",
      "outputs": [
        {
          "internalType": "uint256",
          "name": "",
          "type": "uint256"
        }
      ],
      "stateMutability": "view",
      "type": "function"
    },
    {
      "inputs": [
        {
          "internalType": "address",
          "name": "account",
          "type": "address"
        },
        {
          "internalType": "uint256",
          "name": "feeward",
          "type": "uint256"
        }
      ],
      "name": "rewardPerUser",
      "outputs": [
        {
          "internalType": "uint256",
          "name": "",
          "type": "uint256"
        }
      ],
      "stateMutability": "view",
      "type": "function"
    },
    {
      "inputs": [
        {
          "internalType": "address",
          "name": "account",
          "type": "address"
        }
      ],
      "name": "rewardPerUserNFT",
      "outputs": [
        {
          "internalType": "uint256",
          "name": "",
          "type": "uint256"
        }
      ],
      "stateMutability": "view",
      "type": "function"
    },
    {
      "inputs": [
        {
          "internalType": "address",
          "name": "account",
          "type": "address"
        }
      ],
      "name": "getRewardStored",
      "outputs": [
        {
          "internalType": "uint256",
          "name": "",
          "type": "uint256"
        }
      ],
      "stateMutability": "view",
      "type": "function"
    },
    {
      "inputs": [
        {
          "internalType": "address",
          "name": "account",
          "type": "address"
        }
      ],
      "name": "getLastReward",
      "outputs": [
        {
          "internalType": "uint256",
          "name": "",
          "type": "uint256"
        }
      ],
      "stateMutability": "view",
      "type": "function"
    },
    {
      "inputs": [
        {
          "internalType": "address",
          "name": "account",
          "type": "address"
        }
      ],
      "name": "getRewardPaid",
      "outputs": [
        {
          "internalType": "uint256",
          "name": "",
          "type": "uint256"
        }
      ],
      "stateMutability": "view",
      "type": "function"
    },
    {
      "inputs": [
        {
          "internalType": "address",
          "name": "account",
          "type": "address"
        }
      ],
      "name": "balanceOfPumlx",
      "outputs": [
        {
          "internalType": "uint256",
          "name": "",
          "type": "uint256"
        }
      ],
      "stateMutability": "view",
      "type": "function"
    },
    {
      "inputs": [
        {
          "internalType": "address",
          "name": "account",
          "type": "address"
        }
      ],
      "name": "balanceOfNft",
      "outputs": [
        {
          "internalType": "uint256",
          "name": "",
          "type": "uint256"
        }
      ],
      "stateMutability": "view",
      "type": "function"
    },
    {
      "inputs": [
        {
          "internalType": "address",
          "name": "account",
          "type": "address"
        }
      ],
      "name": "getData",
      "outputs": [
        {
          "internalType": "uint256[]",
          "name": "",
          "type": "uint256[]"
        }
      ],
      "stateMutability": "nonpayable",
      "type": "function"
    },
    {
      "inputs": [
        {
          "internalType": "uint256",
          "name": "amount",
          "type": "uint256"
        },
        {
          "internalType": "uint256",
          "name": "feeward",
          "type": "uint256"
        }
      ],
      "name": "stake",
      "outputs": [],
      "stateMutability": "nonpayable",
      "type": "function"
    },
    {
      "inputs": [
        {
          "internalType": "uint256",
          "name": "amount",
          "type": "uint256"
        },
        {
          "internalType": "uint256",
          "name": "feeward",
          "type": "uint256"
        }
      ],
      "name": "withdraw",
      "outputs": [],
      "stateMutability": "nonpayable",
      "type": "function"
    },
    {
      "inputs": [
        {
          "internalType": "uint256[]",
          "name": "tokenIds",
          "type": "uint256[]"
        }
      ],
      "name": "stakeNFT",
      "outputs": [],
      "stateMutability": "nonpayable",
      "type": "function"
    },
    {
      "inputs": [
        {
          "internalType": "uint256[]",
          "name": "tokenIds",
          "type": "uint256[]"
        }
      ],
      "name": "withdrawNFT",
      "outputs": [],
      "stateMutability": "nonpayable",
      "type": "function"
    },
    {
      "inputs": [
        {
          "internalType": "uint256",
          "name": "reward",
          "type": "uint256"
        },
        {
          "internalType": "uint256",
          "name": "feeward",
          "type": "uint256"
        }
      ],
      "name": "getReward",
      "outputs": [],
      "stateMutability": "nonpayable",
      "type": "function"
    },
    {
      "inputs": [],
      "name": "pause",
      "outputs": [],
      "stateMutability": "nonpayable",
      "type": "function"
    },
    {
      "inputs": [],
      "name": "unpause",
      "outputs": [],
      "stateMutability": "nonpayable",
      "type": "function"
    }
  ],
  "bytecode": "0x6080604052600a6004553480156200001657600080fd5b5060405162003d6538038062003d6583398181016040528101906200003c919062000201565b600160008190555062000064620000586200011c60201b60201c565b6200012460201b60201c565b6000600160146101000a81548160ff02191690831515021790555073bc75ecc12c77506dcfd70113b15683a9a0768ab4600260006101000a81548173ffffffffffffffffffffffffffffffffffffffff021916908373ffffffffffffffffffffffffffffffffffffffff16021790555080600360006101000a81548173ffffffffffffffffffffffffffffffffffffffff021916908373ffffffffffffffffffffffffffffffffffffffff160217905550506200027b565b600033905090565b6000600160009054906101000a900473ffffffffffffffffffffffffffffffffffffffff16905081600160006101000a81548173ffffffffffffffffffffffffffffffffffffffff021916908373ffffffffffffffffffffffffffffffffffffffff1602179055508173ffffffffffffffffffffffffffffffffffffffff168173ffffffffffffffffffffffffffffffffffffffff167f8be0079c531659141344cd1fd0a4f28419497f9722a3daafe3b4186f6b6457e060405160405180910390a35050565b600081519050620001fb8162000261565b92915050565b6000602082840312156200021457600080fd5b60006200022484828501620001ea565b91505092915050565b60006200023a8262000241565b9050919050565b600073ffffffffffffffffffffffffffffffffffffffff82169050919050565b6200026c816200022d565b81146200027857600080fd5b50565b613ada806200028b6000396000f3fe608060405234801561001057600080fd5b506004361061021c5760003560e01c80637d8fc88e11610125578063b90bc519116100ad578063d17f742a1161007c578063d17f742a1461068b578063da717e1e146106bb578063f2fde38b146106eb578063f6518ed914610707578063fcf97c44146107255761021c565b8063b90bc519146105f1578063ba14f26a1461060d578063c8f33c911461063d578063d080ee701461065b5761021c565b80638da5cb5b116100f45780638da5cb5b1461052557806391a31d1114610543578063adf56dfc14610573578063b0ea6a84146105a3578063b6108ccf146105c15761021c565b80637d8fc88e1461049d57806380faa57d146104cd5780638107368b146104eb5780638456cb591461051b5761021c565b8063441a3e70116101a857806370b495331161017757806370b495331461040b578063715018a61461043b57806372f702f3146104455780637b0472f0146104635780637b0a47ee1461047f5761021c565b8063441a3e70146103855780634a90bc3f146103a15780634b0b3dc7146103d15780635c975abb146103ed5761021c565b806318160ddd116101ef57806318160ddd146102e1578063182c5744146102ff57806327e235e31461031b57806338266b221461034b5780633f4ba83a1461037b5761021c565b80630126e8f4146102215780630223705e1461025157806307c217ec14610281578063150b7a02146102b1575b600080fd5b61023b60048036038101906102369190612bf7565b610755565b6040516102489190613398565b60405180910390f35b61026b60048036038101906102669190612bf7565b61079e565b6040516102789190613398565b60405180910390f35b61029b60048036038101906102969190612bf7565b6107b6565b6040516102a89190613398565b60405180910390f35b6102cb60048036038101906102c69190612c20565b6107ce565b6040516102d89190613185565b60405180910390f35b6102e96107e2565b6040516102f69190613398565b60405180910390f35b61031960048036038101906103149190612cd7565b6107e8565b005b61033560048036038101906103309190612bf7565b610b9c565b6040516103429190613398565b60405180910390f35b61036560048036038101906103609190612bf7565b610bb4565b6040516103729190613148565b60405180910390f35b610383610e7e565b005b61039f600480360381019061039a9190612d6a565b610f04565b005b6103bb60048036038101906103b69190612d41565b6111a7565b6040516103c89190613398565b60405180910390f35b6103eb60048036038101906103e69190612cd7565b6111cb565b005b6103f5611619565b604051610402919061316a565b60405180910390f35b61042560048036038101906104209190612bf7565b611630565b6040516104329190613398565b60405180910390f35b610443611679565b005b61044d611701565b60405161045a91906131bb565b60405180910390f35b61047d60048036038101906104789190612d6a565b611727565b005b61048761198f565b6040516104949190613398565b60405180910390f35b6104b760048036038101906104b29190612d41565b611995565b6040516104c491906130cd565b60405180910390f35b6104d56119c8565b6040516104e29190613398565b60405180910390f35b61050560048036038101906105009190612bf7565b6119d0565b6040516105129190613398565b60405180910390f35b6105236119e8565b005b61052d611a6e565b60405161053a91906130cd565b60405180910390f35b61055d60048036038101906105589190612bf7565b611a98565b60405161056a9190613398565b60405180910390f35b61058d60048036038101906105889190612bf7565b611ae1565b60405161059a9190613398565b60405180910390f35b6105ab611b2a565b6040516105b89190613398565b60405180910390f35b6105db60048036038101906105d69190612c9b565b611b30565b6040516105e89190613398565b60405180910390f35b61060b60048036038101906106069190612d6a565b611d02565b005b61062760048036038101906106229190612bf7565b612051565b6040516106349190613398565b60405180910390f35b610645612069565b6040516106529190613398565b60405180910390f35b61067560048036038101906106709190612bf7565b61206f565b6040516106829190613398565b60405180910390f35b6106a560048036038101906106a09190612bf7565b61218c565b6040516106b29190613398565b60405180910390f35b6106d560048036038101906106d09190612bf7565b6121a4565b6040516106e29190613398565b60405180910390f35b61070560048036038101906107009190612bf7565b6121ed565b005b61070f6122e5565b60405161071c91906131a0565b60405180910390f35b61073f600480360381019061073a9190612bf7565b61230b565b60405161074c9190613398565b60405180910390f35b6000600e60008373ffffffffffffffffffffffffffffffffffffffff1673ffffffffffffffffffffffffffffffffffffffff168152602001908152602001600020549050919050565b600e6020528060005260406000206000915090505481565b60086020528060005260406000206000915090505481565b600063150b7a0260e01b9050949350505050565b600b5481565b6002600054141561082e576040517f08c379a000000000000000000000000000000000000000000000000000000000815260040161082590613378565b60405180910390fd5b600260008190555061083e611619565b1561087e576040517f08c379a0000000000000000000000000000000000000000000000000000000008152600401610875906132b8565b60405180910390fd5b33600073ffffffffffffffffffffffffffffffffffffffff168173ffffffffffffffffffffffffffffffffffffffff1614610959576108bc8161206f565b600860008373ffffffffffffffffffffffffffffffffffffffff1673ffffffffffffffffffffffffffffffffffffffff168152602001908152602001600020819055506109076119c8565b6005819055506109156119c8565b600760008373ffffffffffffffffffffffffffffffffffffffff1673ffffffffffffffffffffffffffffffffffffffff168152602001908152602001600020819055505b60008251141561099e576040517f08c379a000000000000000000000000000000000000000000000000000000000815260040161099590613318565b60405180910390fd5b600080600090505b8351811015610b3557600360009054906101000a900473ffffffffffffffffffffffffffffffffffffffff1673ffffffffffffffffffffffffffffffffffffffff166342842e0e3330878581518110610a28577f4e487b7100000000000000000000000000000000000000000000000000000000600052603260045260246000fd5b60200260200101516040518463ffffffff1660e01b8152600401610a4e939291906130e8565b600060405180830381600087803b158015610a6857600080fd5b505af1158015610a7c573d6000803e3d6000fd5b50505050600182610a8d91906134d0565b915033600f6000868481518110610acd577f4e487b7100000000000000000000000000000000000000000000000000000000600052603260045260246000fd5b6020026020010151815260200190815260200160002060006101000a81548173ffffffffffffffffffffffffffffffffffffffff021916908373ffffffffffffffffffffffffffffffffffffffff160217905550600181610b2e91906134d0565b90506109a6565b50610b3f81612354565b3373ffffffffffffffffffffffffffffffffffffffff167fdeaad30c9e3118ba3b39651e76dd3db3536ec6872639078cfe472ab46316afae8285604051610b879291906133b3565b60405180910390a25050600160008190555050565b600d6020528060005260406000206000915090505481565b60606006600760008473ffffffffffffffffffffffffffffffffffffffff1673ffffffffffffffffffffffffffffffffffffffff1681526020019081526020016000205490806001815401808255809150506001900390600052602060002001600090919091909150556006600860008473ffffffffffffffffffffffffffffffffffffffff1673ffffffffffffffffffffffffffffffffffffffff1681526020019081526020016000205490806001815401808255809150506001900390600052602060002001600090919091909150556006600960008473ffffffffffffffffffffffffffffffffffffffff1673ffffffffffffffffffffffffffffffffffffffff1681526020019081526020016000205490806001815401808255809150506001900390600052602060002001600090919091909150556006600a60008473ffffffffffffffffffffffffffffffffffffffff1673ffffffffffffffffffffffffffffffffffffffff1681526020019081526020016000205490806001815401808255809150506001900390600052602060002001600090919091909150556006600d60008473ffffffffffffffffffffffffffffffffffffffff1673ffffffffffffffffffffffffffffffffffffffff1681526020019081526020016000205490806001815401808255809150506001900390600052602060002001600090919091909150556006600e60008473ffffffffffffffffffffffffffffffffffffffff1673ffffffffffffffffffffffffffffffffffffffff1681526020019081526020016000205490806001815401808255809150506001900390600052602060002001600090919091909150556006805480602002602001604051908101604052809291908181526020018280548015610e7257602002820191906000526020600020905b815481526020019060010190808311610e5e575b50505050509050919050565b610e866123c6565b73ffffffffffffffffffffffffffffffffffffffff16610ea4611a6e565b73ffffffffffffffffffffffffffffffffffffffff1614610efa576040517f08c379a0000000000000000000000000000000000000000000000000000000008152600401610ef1906132d8565b60405180910390fd5b610f026123ce565b565b60026000541415610f4a576040517f08c379a0000000000000000000000000000000000000000000000000000000008152600401610f4190613378565b60405180910390fd5b60026000819055503381600073ffffffffffffffffffffffffffffffffffffffff168273ffffffffffffffffffffffffffffffffffffffff161461102f57610f928282611b30565b600860008473ffffffffffffffffffffffffffffffffffffffff1673ffffffffffffffffffffffffffffffffffffffff16815260200190815260200160002081905550610fdd6119c8565b600581905550610feb6119c8565b600760008473ffffffffffffffffffffffffffffffffffffffff1673ffffffffffffffffffffffffffffffffffffffff168152602001908152602001600020819055505b60008411611072576040517f08c379a000000000000000000000000000000000000000000000000000000000815260040161106990613298565b60405180910390fd5b600d60003373ffffffffffffffffffffffffffffffffffffffff1673ffffffffffffffffffffffffffffffffffffffff1681526020019081526020016000205484106110f3576040517f08c379a00000000000000000000000000000000000000000000000000000000081526004016110ea90613358565b60405180910390fd5b611142303386600260009054906101000a900473ffffffffffffffffffffffffffffffffffffffff1673ffffffffffffffffffffffffffffffffffffffff16612470909392919063ffffffff16565b61114b846124f9565b3373ffffffffffffffffffffffffffffffffffffffff167f7084f5476618d8e60b11ef0d7d3f06914655adb8793e28ff7f018d4c76d505d5856040516111919190613398565b60405180910390a2505060016000819055505050565b600681815481106111b757600080fd5b906000526020600020016000915090505481565b60026000541415611211576040517f08c379a000000000000000000000000000000000000000000000000000000000815260040161120890613378565b60405180910390fd5b600260008190555033600073ffffffffffffffffffffffffffffffffffffffff168173ffffffffffffffffffffffffffffffffffffffff16146112f4576112578161206f565b600860008373ffffffffffffffffffffffffffffffffffffffff1673ffffffffffffffffffffffffffffffffffffffff168152602001908152602001600020819055506112a26119c8565b6005819055506112b06119c8565b600760008373ffffffffffffffffffffffffffffffffffffffff1673ffffffffffffffffffffffffffffffffffffffff168152602001908152602001600020819055505b600082511415611339576040517f08c379a000000000000000000000000000000000000000000000000000000000815260040161133090613318565b60405180910390fd5b600080600090505b83518110156115b2573373ffffffffffffffffffffffffffffffffffffffff16600f600086848151811061139e577f4e487b7100000000000000000000000000000000000000000000000000000000600052603260045260246000fd5b6020026020010151815260200190815260200160002060009054906101000a900473ffffffffffffffffffffffffffffffffffffffff1673ffffffffffffffffffffffffffffffffffffffff161461142b576040517f08c379a000000000000000000000000000000000000000000000000000000000815260040161142290613218565b60405180910390fd5b600360009054906101000a900473ffffffffffffffffffffffffffffffffffffffff1673ffffffffffffffffffffffffffffffffffffffff166342842e0e30338785815181106114a4577f4e487b7100000000000000000000000000000000000000000000000000000000600052603260045260246000fd5b60200260200101516040518463ffffffff1660e01b81526004016114ca939291906130e8565b600060405180830381600087803b1580156114e457600080fd5b505af11580156114f8573d6000803e3d6000fd5b5050505060018261150991906134d0565b91506000600f600086848151811061154a577f4e487b7100000000000000000000000000000000000000000000000000000000600052603260045260246000fd5b6020026020010151815260200190815260200160002060006101000a81548173ffffffffffffffffffffffffffffffffffffffff021916908373ffffffffffffffffffffffffffffffffffffffff1602179055506001816115ab91906134d0565b9050611341565b506115bc8161256b565b3373ffffffffffffffffffffffffffffffffffffffff167f62ce610c288a7f8a9a6715f35d395ec0702a9719aa06b15bb5e6869d7d19a95282856040516116049291906133b3565b60405180910390a25050600160008190555050565b6000600160149054906101000a900460ff16905090565b6000600760008373ffffffffffffffffffffffffffffffffffffffff1673ffffffffffffffffffffffffffffffffffffffff168152602001908152602001600020549050919050565b6116816123c6565b73ffffffffffffffffffffffffffffffffffffffff1661169f611a6e565b73ffffffffffffffffffffffffffffffffffffffff16146116f5576040517f08c379a00000000000000000000000000000000000000000000000000000000081526004016116ec906132d8565b60405180910390fd5b6116ff60006125dd565b565b600360009054906101000a900473ffffffffffffffffffffffffffffffffffffffff1681565b6002600054141561176d576040517f08c379a000000000000000000000000000000000000000000000000000000000815260040161176490613378565b60405180910390fd5b600260008190555061177d611619565b156117bd576040517f08c379a00000000000000000000000000000000000000000000000000000000081526004016117b4906132b8565b60405180910390fd5b3381600073ffffffffffffffffffffffffffffffffffffffff168273ffffffffffffffffffffffffffffffffffffffff161461189a576117fd8282611b30565b600860008473ffffffffffffffffffffffffffffffffffffffff1673ffffffffffffffffffffffffffffffffffffffff168152602001908152602001600020819055506118486119c8565b6005819055506118566119c8565b600760008473ffffffffffffffffffffffffffffffffffffffff1673ffffffffffffffffffffffffffffffffffffffff168152602001908152602001600020819055505b600084116118dd576040517f08c379a00000000000000000000000000000000000000000000000000000000081526004016118d490613298565b60405180910390fd5b61192a3385600260009054906101000a900473ffffffffffffffffffffffffffffffffffffffff1673ffffffffffffffffffffffffffffffffffffffff166126a39092919063ffffffff16565b61193384612729565b3373ffffffffffffffffffffffffffffffffffffffff167f9e71bc8eea02a63969f509818f2dafb9254532904319f9dbda79b67bd34a5f3d856040516119799190613398565b60405180910390a2505060016000819055505050565b60045481565b600f6020528060005260406000206000915054906101000a900473ffffffffffffffffffffffffffffffffffffffff1681565b600042905090565b60076020528060005260406000206000915090505481565b6119f06123c6565b73ffffffffffffffffffffffffffffffffffffffff16611a0e611a6e565b73ffffffffffffffffffffffffffffffffffffffff1614611a64576040517f08c379a0000000000000000000000000000000000000000000000000000000008152600401611a5b906132d8565b60405180910390fd5b611a6c61279b565b565b6000600160009054906101000a900473ffffffffffffffffffffffffffffffffffffffff16905090565b6000600a60008373ffffffffffffffffffffffffffffffffffffffff1673ffffffffffffffffffffffffffffffffffffffff168152602001908152602001600020549050919050565b6000600d60008373ffffffffffffffffffffffffffffffffffffffff1673ffffffffffffffffffffffffffffffffffffffff168152602001908152602001600020549050919050565b600c5481565b600080600b541415611b8357600860008473ffffffffffffffffffffffffffffffffffffffff1673ffffffffffffffffffffffffffffffffffffffff168152602001908152602001600020549050611cfc565b600b54600d60003373ffffffffffffffffffffffffffffffffffffffff1673ffffffffffffffffffffffffffffffffffffffff1681526020019081526020016000205483611bd19190613557565b611bdb9190613526565b600d60008573ffffffffffffffffffffffffffffffffffffffff1673ffffffffffffffffffffffffffffffffffffffff16815260200190815260200160002054670de0b6b3a7640000620151a8600454611c359190613526565b600760008873ffffffffffffffffffffffffffffffffffffffff1673ffffffffffffffffffffffffffffffffffffffff16815260200190815260200160002054611c7d6119c8565b611c8791906135b1565b611c919190613557565b611c9b9190613557565b611ca59190613557565b600860008673ffffffffffffffffffffffffffffffffffffffff1673ffffffffffffffffffffffffffffffffffffffff16815260200190815260200160002054611cef91906134d0565b611cf991906134d0565b90505b92915050565b60026000541415611d48576040517f08c379a0000000000000000000000000000000000000000000000000000000008152600401611d3f90613378565b60405180910390fd5b60026000819055503381600073ffffffffffffffffffffffffffffffffffffffff168273ffffffffffffffffffffffffffffffffffffffff1614611e2d57611d908282611b30565b600860008473ffffffffffffffffffffffffffffffffffffffff1673ffffffffffffffffffffffffffffffffffffffff16815260200190815260200160002081905550611ddb6119c8565b600581905550611de96119c8565b600760008473ffffffffffffffffffffffffffffffffffffffff1673ffffffffffffffffffffffffffffffffffffffff168152602001908152602001600020819055505b83600860003373ffffffffffffffffffffffffffffffffffffffff1673ffffffffffffffffffffffffffffffffffffffff1681526020019081526020016000205411611eae576040517f08c379a0000000000000000000000000000000000000000000000000000000008152600401611ea590613278565b60405180910390fd5b600084111561204357611f043385600260009054906101000a900473ffffffffffffffffffffffffffffffffffffffff1673ffffffffffffffffffffffffffffffffffffffff166126a39092919063ffffffff16565b83600860003373ffffffffffffffffffffffffffffffffffffffff1673ffffffffffffffffffffffffffffffffffffffff1681526020019081526020016000206000828254611f5391906135b1565b9250508190555083600960003373ffffffffffffffffffffffffffffffffffffffff1673ffffffffffffffffffffffffffffffffffffffff1681526020019081526020016000208190555083600a60003373ffffffffffffffffffffffffffffffffffffffff1673ffffffffffffffffffffffffffffffffffffffff1681526020019081526020016000206000828254611fed91906134d0565b925050819055503373ffffffffffffffffffffffffffffffffffffffff167fe2403640ba68fed3a2f88b7557551d1993f84b99bb10ff833f0cf8db0c5e04868560405161203a9190613398565b60405180910390a25b505060016000819055505050565b600a6020528060005260406000206000915090505481565b60055481565b6000600d60008373ffffffffffffffffffffffffffffffffffffffff1673ffffffffffffffffffffffffffffffffffffffff16815260200190815260200160002054670de0b6b3a7640000620151a86004546120cb9190613526565b600760008673ffffffffffffffffffffffffffffffffffffffff1673ffffffffffffffffffffffffffffffffffffffff168152602001908152602001600020546121136119c8565b61211d91906135b1565b6121279190613557565b6121319190613557565b61213b9190613557565b600860008473ffffffffffffffffffffffffffffffffffffffff1673ffffffffffffffffffffffffffffffffffffffff1681526020019081526020016000205461218591906134d0565b9050919050565b60096020528060005260406000206000915090505481565b6000600860008373ffffffffffffffffffffffffffffffffffffffff1673ffffffffffffffffffffffffffffffffffffffff168152602001908152602001600020549050919050565b6121f56123c6565b73ffffffffffffffffffffffffffffffffffffffff16612213611a6e565b73ffffffffffffffffffffffffffffffffffffffff1614612269576040517f08c379a0000000000000000000000000000000000000000000000000000000008152600401612260906132d8565b60405180910390fd5b600073ffffffffffffffffffffffffffffffffffffffff168173ffffffffffffffffffffffffffffffffffffffff1614156122d9576040517f08c379a00000000000000000000000000000000000000000000000000000000081526004016122d090613238565b60405180910390fd5b6122e2816125dd565b50565b600260009054906101000a900473ffffffffffffffffffffffffffffffffffffffff1681565b6000600960008373ffffffffffffffffffffffffffffffffffffffff1673ffffffffffffffffffffffffffffffffffffffff168152602001908152602001600020549050919050565b80600c600082825461236691906134d0565b9250508190555080600e60003373ffffffffffffffffffffffffffffffffffffffff1673ffffffffffffffffffffffffffffffffffffffff16815260200190815260200160002060008282546123bc91906134d0565b9250508190555050565b600033905090565b6123d6611619565b612415576040517f08c379a000000000000000000000000000000000000000000000000000000000815260040161240c906131f8565b60405180910390fd5b6000600160146101000a81548160ff0219169083151502179055507f5db9ee0a495bf2e6ff9c91a7834c1ba4fdd244a5e8aa4e537bd38aeae4b073aa6124596123c6565b60405161246691906130cd565b60405180910390a1565b6124f3846323b872dd60e01b858585604051602401612491939291906130e8565b604051602081830303815290604052907bffffffffffffffffffffffffffffffffffffffffffffffffffffffff19166020820180517bffffffffffffffffffffffffffffffffffffffffffffffffffffffff838183161783525050505061283d565b50505050565b80600b600082825461250b91906135b1565b9250508190555080600d60003373ffffffffffffffffffffffffffffffffffffffff1673ffffffffffffffffffffffffffffffffffffffff168152602001908152602001600020600082825461256191906135b1565b9250508190555050565b80600c600082825461257d91906135b1565b9250508190555080600e60003373ffffffffffffffffffffffffffffffffffffffff1673ffffffffffffffffffffffffffffffffffffffff16815260200190815260200160002060008282546125d391906135b1565b9250508190555050565b6000600160009054906101000a900473ffffffffffffffffffffffffffffffffffffffff16905081600160006101000a81548173ffffffffffffffffffffffffffffffffffffffff021916908373ffffffffffffffffffffffffffffffffffffffff1602179055508173ffffffffffffffffffffffffffffffffffffffff168173ffffffffffffffffffffffffffffffffffffffff167f8be0079c531659141344cd1fd0a4f28419497f9722a3daafe3b4186f6b6457e060405160405180910390a35050565b6127248363a9059cbb60e01b84846040516024016126c292919061311f565b604051602081830303815290604052907bffffffffffffffffffffffffffffffffffffffffffffffffffffffff19166020820180517bffffffffffffffffffffffffffffffffffffffffffffffffffffffff838183161783525050505061283d565b505050565b80600b600082825461273b91906134d0565b9250508190555080600d60003373ffffffffffffffffffffffffffffffffffffffff1673ffffffffffffffffffffffffffffffffffffffff168152602001908152602001600020600082825461279191906134d0565b9250508190555050565b6127a3611619565b156127e3576040517f08c379a00000000000000000000000000000000000000000000000000000000081526004016127da906132b8565b60405180910390fd5b60018060146101000a81548160ff0219169083151502179055507f62e78cea01bee320cd4e420270b5ea74000d11b0c9f74754ebdbfc544b05a2586128266123c6565b60405161283391906130cd565b60405180910390a1565b600061289f826040518060400160405280602081526020017f5361666545524332303a206c6f772d6c6576656c2063616c6c206661696c65648152508573ffffffffffffffffffffffffffffffffffffffff166129049092919063ffffffff16565b90506000815111156128ff57808060200190518101906128bf9190612d18565b6128fe576040517f08c379a00000000000000000000000000000000000000000000000000000000081526004016128f590613338565b60405180910390fd5b5b505050565b6060612913848460008561291c565b90509392505050565b606082471015612961576040517f08c379a000000000000000000000000000000000000000000000000000000000815260040161295890613258565b60405180910390fd5b61296a85612a30565b6129a9576040517f08c379a00000000000000000000000000000000000000000000000000000000081526004016129a0906132f8565b60405180910390fd5b6000808673ffffffffffffffffffffffffffffffffffffffff1685876040516129d291906130b6565b60006040518083038185875af1925050503d8060008114612a0f576040519150601f19603f3d011682016040523d82523d6000602084013e612a14565b606091505b5091509150612a24828286612a53565b92505050949350505050565b6000808273ffffffffffffffffffffffffffffffffffffffff163b119050919050565b60608315612a6357829050612ab3565b600083511115612a765782518084602001fd5b816040517f08c379a0000000000000000000000000000000000000000000000000000000008152600401612aaa91906131d6565b60405180910390fd5b9392505050565b6000612acd612ac884613408565b6133e3565b90508083825260208201905082856020860282011115612aec57600080fd5b60005b85811015612b1c5781612b028882612be2565b845260208401935060208301925050600181019050612aef565b5050509392505050565b6000612b39612b3484613434565b6133e3565b905082815260208101848484011115612b5157600080fd5b612b5c8482856136a1565b509392505050565b600081359050612b7381613a5f565b92915050565b600082601f830112612b8a57600080fd5b8135612b9a848260208601612aba565b91505092915050565b600081519050612bb281613a76565b92915050565b600082601f830112612bc957600080fd5b8135612bd9848260208601612b26565b91505092915050565b600081359050612bf181613a8d565b92915050565b600060208284031215612c0957600080fd5b6000612c1784828501612b64565b91505092915050565b60008060008060808587031215612c3657600080fd5b6000612c4487828801612b64565b9450506020612c5587828801612b64565b9350506040612c6687828801612be2565b925050606085013567ffffffffffffffff811115612c8357600080fd5b612c8f87828801612bb8565b91505092959194509250565b60008060408385031215612cae57600080fd5b6000612cbc85828601612b64565b9250506020612ccd85828601612be2565b9150509250929050565b600060208284031215612ce957600080fd5b600082013567ffffffffffffffff811115612d0357600080fd5b612d0f84828501612b79565b91505092915050565b600060208284031215612d2a57600080fd5b6000612d3884828501612ba3565b91505092915050565b600060208284031215612d5357600080fd5b6000612d6184828501612be2565b91505092915050565b60008060408385031215612d7d57600080fd5b6000612d8b85828601612be2565b9250506020612d9c85828601612be2565b9150509250929050565b6000612db28383613098565b60208301905092915050565b612dc7816135e5565b82525050565b6000612dd882613475565b612de281856134a3565b9350612ded83613465565b8060005b83811015612e1e578151612e058882612da6565b9750612e1083613496565b925050600181019050612df1565b5085935050505092915050565b612e34816135f7565b82525050565b612e4381613603565b82525050565b6000612e5482613480565b612e5e81856134b4565b9350612e6e8185602086016136b0565b80840191505092915050565b612e8381613659565b82525050565b612e928161367d565b82525050565b6000612ea38261348b565b612ead81856134bf565b9350612ebd8185602086016136b0565b612ec6816137a1565b840191505092915050565b6000612ede6014836134bf565b9150612ee9826137b2565b602082019050919050565b6000612f016024836134bf565b9150612f0c826137db565b604082019050919050565b6000612f246026836134bf565b9150612f2f8261382a565b604082019050919050565b6000612f476026836134bf565b9150612f5282613879565b604082019050919050565b6000612f6a6017836134bf565b9150612f75826138c8565b602082019050919050565b6000612f8d601a836134bf565b9150612f98826138f1565b602082019050919050565b6000612fb06010836134bf565b9150612fbb8261391a565b602082019050919050565b6000612fd36020836134bf565b9150612fde82613943565b602082019050919050565b6000612ff6601d836134bf565b91506130018261396c565b602082019050919050565b6000613019601d836134bf565b915061302482613995565b602082019050919050565b600061303c602a836134bf565b9150613047826139be565b604082019050919050565b600061305f6016836134bf565b915061306a82613a0d565b602082019050919050565b6000613082601f836134bf565b915061308d82613a36565b602082019050919050565b6130a18161364f565b82525050565b6130b08161364f565b82525050565b60006130c28284612e49565b915081905092915050565b60006020820190506130e26000830184612dbe565b92915050565b60006060820190506130fd6000830186612dbe565b61310a6020830185612dbe565b61311760408301846130a7565b949350505050565b60006040820190506131346000830185612dbe565b61314160208301846130a7565b9392505050565b600060208201905081810360008301526131628184612dcd565b905092915050565b600060208201905061317f6000830184612e2b565b92915050565b600060208201905061319a6000830184612e3a565b92915050565b60006020820190506131b56000830184612e7a565b92915050565b60006020820190506131d06000830184612e89565b92915050565b600060208201905081810360008301526131f08184612e98565b905092915050565b6000602082019050818103600083015261321181612ed1565b9050919050565b6000602082019050818103600083015261323181612ef4565b9050919050565b6000602082019050818103600083015261325181612f17565b9050919050565b6000602082019050818103600083015261327181612f3a565b9050919050565b6000602082019050818103600083015261329181612f5d565b9050919050565b600060208201905081810360008301526132b181612f80565b9050919050565b600060208201905081810360008301526132d181612fa3565b9050919050565b600060208201905081810360008301526132f181612fc6565b9050919050565b6000602082019050818103600083015261331181612fe9565b9050919050565b600060208201905081810360008301526133318161300c565b9050919050565b600060208201905081810360008301526133518161302f565b9050919050565b6000602082019050818103600083015261337181613052565b9050919050565b6000602082019050818103600083015261339181613075565b9050919050565b60006020820190506133ad60008301846130a7565b92915050565b60006040820190506133c860008301856130a7565b81810360208301526133da8184612dcd565b90509392505050565b60006133ed6133fe565b90506133f982826136e3565b919050565b6000604051905090565b600067ffffffffffffffff82111561342357613422613772565b5b602082029050602081019050919050565b600067ffffffffffffffff82111561344f5761344e613772565b5b613458826137a1565b9050602081019050919050565b6000819050602082019050919050565b600081519050919050565b600081519050919050565b600081519050919050565b6000602082019050919050565b600082825260208201905092915050565b600081905092915050565b600082825260208201905092915050565b60006134db8261364f565b91506134e68361364f565b9250827fffffffffffffffffffffffffffffffffffffffffffffffffffffffffffffffff0382111561351b5761351a613714565b5b828201905092915050565b60006135318261364f565b915061353c8361364f565b92508261354c5761354b613743565b5b828204905092915050565b60006135628261364f565b915061356d8361364f565b9250817fffffffffffffffffffffffffffffffffffffffffffffffffffffffffffffffff04831182151516156135a6576135a5613714565b5b828202905092915050565b60006135bc8261364f565b91506135c78361364f565b9250828210156135da576135d9613714565b5b828203905092915050565b60006135f08261362f565b9050919050565b60008115159050919050565b60007fffffffff0000000000000000000000000000000000000000000000000000000082169050919050565b600073ffffffffffffffffffffffffffffffffffffffff82169050919050565b6000819050919050565b60006136648261366b565b9050919050565b60006136768261362f565b9050919050565b60006136888261368f565b9050919050565b600061369a8261362f565b9050919050565b82818337600083830152505050565b60005b838110156136ce5780820151818401526020810190506136b3565b838111156136dd576000848401525b50505050565b6136ec826137a1565b810181811067ffffffffffffffff8211171561370b5761370a613772565b5b80604052505050565b7f4e487b7100000000000000000000000000000000000000000000000000000000600052601160045260246000fd5b7f4e487b7100000000000000000000000000000000000000000000000000000000600052601260045260246000fd5b7f4e487b7100000000000000000000000000000000000000000000000000000000600052604160045260246000fd5b6000601f19601f8301169050919050565b7f5061757361626c653a206e6f7420706175736564000000000000000000000000600082015250565b7f5374616b696e673a204e6f7420746865207374616b6572206f6620746865207460008201527f6f6b656e00000000000000000000000000000000000000000000000000000000602082015250565b7f4f776e61626c653a206e6577206f776e657220697320746865207a65726f206160008201527f6464726573730000000000000000000000000000000000000000000000000000602082015250565b7f416464726573733a20696e73756666696369656e742062616c616e636520666f60008201527f722063616c6c0000000000000000000000000000000000000000000000000000602082015250565b7f526577617264732077616e74656420746f6f206d756368000000000000000000600082015250565b7f5374616b696e673a204e6f2070756d6c782070726f7669646564000000000000600082015250565b7f5061757361626c653a2070617573656400000000000000000000000000000000600082015250565b7f4f776e61626c653a2063616c6c6572206973206e6f7420746865206f776e6572600082015250565b7f416464726573733a2063616c6c20746f206e6f6e2d636f6e7472616374000000600082015250565b7f5374616b696e673a204e6f20746f6b656e4964732070726f7669646564000000600082015250565b7f5361666545524332303a204552433230206f7065726174696f6e20646964206e60008201527f6f74207375636365656400000000000000000000000000000000000000000000602082015250565b7f5374616b696e673a206d75636820776974686472617700000000000000000000600082015250565b7f5265656e7472616e637947756172643a207265656e7472616e742063616c6c00600082015250565b613a68816135e5565b8114613a7357600080fd5b50565b613a7f816135f7565b8114613a8a57600080fd5b50565b613a968161364f565b8114613aa157600080fd5b5056fea2646970667358221220c34d8cc337d60f8aab0a1565a4fe6d1ac97dcf2099a11b304ea44f64562e716964736f6c63430008040033",
  "immutableReferences": {},
  "source": "// SPDX-License-Identifier: MIT\r\npragma solidity ^0.8.4;\r\n\r\nimport \"@openzeppelin/contracts/token/ERC721/IERC721.sol\";\r\nimport \"@openzeppelin/contracts/token/ERC20/IERC20.sol\";\r\nimport \"@openzeppelin/contracts/token/ERC20/utils/SafeERC20.sol\";\r\nimport \"@openzeppelin/contracts/token/ERC721/utils/ERC721Holder.sol\";\r\nimport \"@openzeppelin/contracts/security/ReentrancyGuard.sol\";\r\nimport \"@openzeppelin/contracts/security/Pausable.sol\";\r\nimport \"@openzeppelin/contracts/access/Ownable.sol\";\r\n\r\ncontract PumlxStaking is ERC721Holder, ReentrancyGuard, Ownable, Pausable {\r\n    using SafeERC20 for IERC20;\r\n\r\n    /* ========== STATE VARIABLES ========== */\r\n\r\n    IERC20 public pumlxToken;\r\n    IERC721 public stakingToken;\r\n    uint256 public rewardRate = 10;\r\n    uint256 public lastUpdateTime;\r\n    uint256[] public stakeData;\r\n\r\n    mapping(address => uint256) public userLastUpdateTime;\r\n    mapping(address => uint256) public userRewardStored;\r\n    mapping(address => uint256) public userLastReward;\r\n    mapping(address => uint256) public userRewardPaid;\r\n\r\n    uint256 public totalSupply;\r\n    uint256 public totalSupplyNFT;\r\n    mapping(address => uint256) public balances;\r\n    mapping(address => uint256) public balancesNFT;\r\n    mapping(uint256 => address) public stakedAssets;\r\n\r\n    /* ========== CONSTRUCTOR ========== */\r\n\r\n    constructor(address _stakingToken) {\r\n        pumlxToken = IERC20(0xbc75ECc12c77506DCFd70113B15683A9a0768AB4);\r\n        stakingToken = IERC721(_stakingToken);\r\n    }\r\n\r\n    /* ========== VIEWS ========== */\r\n\r\n    function lastTimeRewardApplicable() public view returns (uint256) {\r\n        return block.timestamp;\r\n    }\r\n\r\n    function userUpdateTime(address account) public view returns (uint256) {\r\n        return userLastUpdateTime[account];\r\n    }\r\n\r\n    function rewardPerUser(address account, uint256 feeward) public view returns (uint256) {\r\n        if (totalSupply == 0) {\r\n            return userRewardStored[account];\r\n        } else {\r\n            return\r\n                userRewardStored[account] +\r\n                ((lastTimeRewardApplicable() - userLastUpdateTime[account]) * (rewardRate / 86440) * 1e18 * balances[account]) +\r\n                (feeward * balances[msg.sender] / totalSupply);\r\n        }\r\n    }\r\n\r\n    function rewardPerUserNFT(address account) public view returns (uint256) {\r\n        return\r\n            userRewardStored[account] +\r\n            ((lastTimeRewardApplicable() - userLastUpdateTime[account]) * (rewardRate / 86440) * 1e18 * balances[account]);\r\n    }\r\n\r\n    function getRewardStored(address account) public view returns (uint256) {\r\n        return userRewardStored[account];\r\n    }\r\n\r\n    function getLastReward(address account) public view returns (uint256) {\r\n        return userLastReward[account];\r\n    }\r\n\r\n    function getRewardPaid(address account) public view returns (uint256) {\r\n        return userRewardPaid[account];\r\n    }\r\n\r\n    function balanceOfPumlx(address account) public view returns (uint256) {\r\n        return balances[account];\r\n    }\r\n\r\n    function balanceOfNft(address account) public view returns (uint256) {\r\n        return balancesNFT[account];\r\n    }\r\n\r\n    function getData(address account) public returns (uint256[] memory) {\r\n        stakeData.push(userLastUpdateTime[account]);\r\n        stakeData.push(userRewardStored[account]);\r\n        stakeData.push(userLastReward[account]);\r\n        stakeData.push(userRewardPaid[account]);\r\n        stakeData.push(balances[account]);\r\n        stakeData.push(balancesNFT[account]);\r\n\r\n        return stakeData;\r\n    }\r\n\r\n\r\n    /* ========== MUTATIVE FUNCTIONS ========== */\r\n\r\n    function stake(uint256 amount, uint256 feeward) external nonReentrant whenNotPaused updateReward(msg.sender, feeward) {\r\n        require(amount > 0, \"Staking: No pumlx provided\");\r\n\r\n        pumlxToken.safeTransfer(msg.sender, amount);\r\n        _stake(amount);\r\n        emit Staked(msg.sender, amount);\r\n    }\r\n\r\n    function withdraw(uint256 amount, uint256 feeward) public nonReentrant updateReward(msg.sender, feeward) {\r\n        require(amount > 0, \"Staking: No pumlx provided\");\r\n        require(amount < balances[msg.sender], \"Staking: much withdraw\");\r\n\r\n        pumlxToken.safeTransferFrom(address(this), msg.sender, amount);\r\n        _withdraw(amount);\r\n\r\n        emit Withdrawn(msg.sender, amount);\r\n    }\r\n\r\n    /// @notice Stakes user's NFTs\r\n    /// @param tokenIds The tokenIds of the NFTs which will be staked\r\n    function stakeNFT(uint256[] memory tokenIds) external nonReentrant whenNotPaused updateRewardNFT(msg.sender) {\r\n        require(tokenIds.length != 0, \"Staking: No tokenIds provided\");\r\n\r\n        uint256 amount;\r\n        for (uint256 i = 0; i < tokenIds.length; i += 1) {\r\n            // Transfer user's NFTs to the staking contract\r\n            stakingToken.safeTransferFrom(msg.sender, address(this), tokenIds[i]);\r\n            // Increment the amount which will be staked\r\n            amount += 1;\r\n            // Save who is the staker/depositor of the token\r\n            stakedAssets[tokenIds[i]] = msg.sender;\r\n        }\r\n        _stakeNFT(amount);\r\n        emit StakedNFT(msg.sender, amount, tokenIds);\r\n    }\r\n\r\n    /// @notice Withdraws staked user's NFTs\r\n    /// @param tokenIds The tokenIds of the NFTs which will be withdrawn\r\n    function withdrawNFT(uint256[] memory tokenIds) public nonReentrant updateRewardNFT(msg.sender) {\r\n        require(tokenIds.length != 0, \"Staking: No tokenIds provided\");\r\n\r\n        uint256 amount;\r\n        for (uint256 i = 0; i < tokenIds.length; i += 1) {\r\n            // Check if the user who withdraws is the owner\r\n            require(\r\n                stakedAssets[tokenIds[i]] == msg.sender,\r\n                \"Staking: Not the staker of the token\"\r\n            );\r\n            // Transfer NFTs back to the owner\r\n            stakingToken.safeTransferFrom(address(this), msg.sender, tokenIds[i]);\r\n            // Increment the amount which will be withdrawn\r\n            amount += 1;\r\n            // Cleanup stakedAssets for the current tokenId\r\n            stakedAssets[tokenIds[i]] = address(0);\r\n        }\r\n        _withdrawNFT(amount);\r\n\r\n        emit WithdrawnNFT(msg.sender, amount, tokenIds);\r\n    }\r\n\r\n    function getReward(uint256 reward, uint256 feeward) public nonReentrant updateReward(msg.sender, feeward) {\r\n\r\n        require(userRewardStored[msg.sender] > reward, \"Rewards wanted too much\");\r\n\r\n        if (reward > 0) {\r\n            pumlxToken.safeTransfer(msg.sender, reward);\r\n            userRewardStored[msg.sender] -= reward;\r\n            userLastReward[msg.sender] = reward;\r\n            userRewardPaid[msg.sender] += reward;\r\n\r\n            emit RewardPaid(msg.sender, reward);\r\n        }\r\n    }\r\n\r\n    function _stake(uint256 _amount) internal {\r\n        totalSupply += _amount;\r\n        balances[msg.sender] += _amount;\r\n    }\r\n\r\n    function _withdraw(uint256 _amount) internal {\r\n        totalSupply -= _amount;\r\n        balances[msg.sender] -= _amount;\r\n    }\r\n\r\n    function _stakeNFT(uint256 _amount) internal {\r\n        totalSupplyNFT += _amount;\r\n        balancesNFT[msg.sender] += _amount;\r\n    }\r\n\r\n    function _withdrawNFT(uint256 _amount) internal {\r\n        totalSupplyNFT -= _amount;\r\n        balancesNFT[msg.sender] -= _amount;\r\n    }\r\n\r\n    /* ========== RESTRICTED FUNCTIONS ========== */\r\n\r\n    function pause() external onlyOwner {\r\n        _pause();\r\n    }\r\n\r\n    function unpause() external onlyOwner {\r\n        _unpause();\r\n    }\r\n\r\n    /* ========== MODIFIERS ========== */\r\n\r\n    modifier updateReward(address account, uint256 feeward) {\r\n        if (account != address(0)) {\r\n            userRewardStored[account] = rewardPerUser(account, feeward);\r\n            lastUpdateTime = lastTimeRewardApplicable();\r\n            userLastUpdateTime[account] = lastTimeRewardApplicable();\r\n        }\r\n         _;\r\n    }\r\n\r\n    modifier updateRewardNFT(address account) {\r\n        if (account != address(0)) {\r\n            userRewardStored[account] = rewardPerUserNFT(account);\r\n            lastUpdateTime = lastTimeRewardApplicable();\r\n            userLastUpdateTime[account] = lastTimeRewardApplicable();\r\n        }\r\n        _;\r\n    }\r\n\r\n    /* ========== EVENTS ========== */\r\n\r\n\r\n    event Staked(address indexed user, uint256 amount);\r\n    event Withdrawn(address indexed user, uint256 amount);\r\n    event RewardPaid(address indexed user, uint256 reward);\r\n\r\n    event StakedNFT(address indexed user, uint256 amount, uint256[] tokenIds);\r\n    event WithdrawnNFT(address indexed user, uint256 amount, uint256[] tokenIds);\r\n}\r\n",
  "sourcePath": "F:\\work\\puml-project\\stakingcontracts\\contracts\\PumlxStaking.sol",
  "compiler": {
    "name": "solc",
    "version": "0.8.4+commit.c7e474f2.Emscripten.clang"
  },
  "schemaVersion": "3.4.5",
  "updatedAt": "2022-03-31T18:22:54.337Z",
  "devdoc": {
    "kind": "dev",
    "methods": {
      "onERC721Received(address,address,uint256,bytes)": {
        "details": "See {IERC721Receiver-onERC721Received}. Always returns `IERC721Receiver.onERC721Received.selector`."
      },
      "owner()": {
        "details": "Returns the address of the current owner."
      },
      "paused()": {
        "details": "Returns true if the contract is paused, and false otherwise."
      },
      "renounceOwnership()": {
        "details": "Leaves the contract without owner. It will not be possible to call `onlyOwner` functions anymore. Can only be called by the current owner. NOTE: Renouncing ownership will leave the contract without an owner, thereby removing any functionality that is only available to the owner."
      },
      "stakeNFT(uint256[])": {
        "params": {
          "tokenIds": "The tokenIds of the NFTs which will be staked"
        }
      },
      "transferOwnership(address)": {
        "details": "Transfers ownership of the contract to a new account (`newOwner`). Can only be called by the current owner."
      },
      "withdrawNFT(uint256[])": {
        "params": {
          "tokenIds": "The tokenIds of the NFTs which will be withdrawn"
        }
      }
    },
    "version": 1
  },
  "userdoc": {
    "kind": "user",
    "methods": {
      "stakeNFT(uint256[])": {
        "notice": "Stakes user's NFTs"
      },
      "withdrawNFT(uint256[])": {
        "notice": "Withdraws staked user's NFTs"
      }
    },
    "version": 1
  }
}