{
  "contractName": "PumlStake",
  "abi": [
    {
      "anonymous": false,
      "inputs": [
        {
          "indexed": true,
          "internalType": "address",
          "name": "previousOwner",
          "type": "address"
        },
        {
          "indexed": true,
          "internalType": "address",
          "name": "newOwner",
          "type": "address"
        }
      ],
      "name": "OwnershipTransferred",
      "type": "event"
    },
    {
      "anonymous": false,
      "inputs": [
        {
          "indexed": true,
          "internalType": "address",
          "name": "user",
          "type": "address"
        },
        {
          "indexed": false,
          "internalType": "uint256",
          "name": "reward",
          "type": "uint256"
        }
      ],
      "name": "RewardPaid",
      "type": "event"
    },
    {
      "anonymous": false,
      "inputs": [
        {
          "indexed": true,
          "internalType": "address",
          "name": "user",
          "type": "address"
        },
        {
          "indexed": false,
          "internalType": "uint256",
          "name": "amount",
          "type": "uint256"
        }
      ],
      "name": "Staked",
      "type": "event"
    },
    {
      "anonymous": false,
      "inputs": [
        {
          "indexed": true,
          "internalType": "address",
          "name": "user",
          "type": "address"
        },
        {
          "indexed": false,
          "internalType": "uint256",
          "name": "amount",
          "type": "uint256"
        }
      ],
      "name": "Withdrawn",
      "type": "event"
    },
    {
      "inputs": [
        {
          "internalType": "address",
          "name": "",
          "type": "address"
        }
      ],
      "name": "balances",
      "outputs": [
        {
          "internalType": "uint256",
          "name": "",
          "type": "uint256"
        }
      ],
      "stateMutability": "view",
      "type": "function"
    },
    {
      "inputs": [
        {
          "internalType": "address",
          "name": "",
          "type": "address"
        }
      ],
      "name": "balancesNFT",
      "outputs": [
        {
          "internalType": "uint256",
          "name": "",
          "type": "uint256"
        }
      ],
      "stateMutability": "view",
      "type": "function"
    },
    {
      "inputs": [],
      "name": "lastUpdateTime",
      "outputs": [
        {
          "internalType": "uint256",
          "name": "",
          "type": "uint256"
        }
      ],
      "stateMutability": "view",
      "type": "function"
    },
    {
      "inputs": [],
      "name": "owner",
      "outputs": [
        {
          "internalType": "address",
          "name": "",
          "type": "address"
        }
      ],
      "stateMutability": "view",
      "type": "function"
    },
    {
      "inputs": [],
      "name": "renounceOwnership",
      "outputs": [],
      "stateMutability": "nonpayable",
      "type": "function"
    },
    {
      "inputs": [],
      "name": "rewardRate",
      "outputs": [
        {
          "internalType": "uint256",
          "name": "",
          "type": "uint256"
        }
      ],
      "stateMutability": "view",
      "type": "function"
    },
    {
      "inputs": [
        {
          "internalType": "uint256",
          "name": "",
          "type": "uint256"
        }
      ],
      "name": "stakeData",
      "outputs": [
        {
          "internalType": "uint256",
          "name": "",
          "type": "uint256"
        }
      ],
      "stateMutability": "view",
      "type": "function"
    },
    {
      "inputs": [
        {
          "internalType": "uint256",
          "name": "",
          "type": "uint256"
        }
      ],
      "name": "stakedAssets",
      "outputs": [
        {
          "internalType": "address",
          "name": "",
          "type": "address"
        }
      ],
      "stateMutability": "view",
      "type": "function"
    },
    {
      "inputs": [],
      "name": "totalSupply",
      "outputs": [
        {
          "internalType": "uint256",
          "name": "",
          "type": "uint256"
        }
      ],
      "stateMutability": "view",
      "type": "function"
    },
    {
      "inputs": [
        {
          "internalType": "address",
          "name": "newOwner",
          "type": "address"
        }
      ],
      "name": "transferOwnership",
      "outputs": [],
      "stateMutability": "nonpayable",
      "type": "function"
    },
    {
      "inputs": [
        {
          "internalType": "address",
          "name": "",
          "type": "address"
        }
      ],
      "name": "userLastReward",
      "outputs": [
        {
          "internalType": "uint256",
          "name": "",
          "type": "uint256"
        }
      ],
      "stateMutability": "view",
      "type": "function"
    },
    {
      "inputs": [
        {
          "internalType": "address",
          "name": "",
          "type": "address"
        }
      ],
      "name": "userLastUpdateTime",
      "outputs": [
        {
          "internalType": "uint256",
          "name": "",
          "type": "uint256"
        }
      ],
      "stateMutability": "view",
      "type": "function"
    },
    {
      "inputs": [
        {
          "internalType": "address",
          "name": "",
          "type": "address"
        }
      ],
      "name": "userLastUpdateTimeNFT",
      "outputs": [
        {
          "internalType": "uint256",
          "name": "",
          "type": "uint256"
        }
      ],
      "stateMutability": "view",
      "type": "function"
    },
    {
      "inputs": [
        {
          "internalType": "address",
          "name": "",
          "type": "address"
        }
      ],
      "name": "userRewardPaid",
      "outputs": [
        {
          "internalType": "uint256",
          "name": "",
          "type": "uint256"
        }
      ],
      "stateMutability": "view",
      "type": "function"
    },
    {
      "inputs": [
        {
          "internalType": "address",
          "name": "",
          "type": "address"
        }
      ],
      "name": "userRewardStored",
      "outputs": [
        {
          "internalType": "uint256",
          "name": "",
          "type": "uint256"
        }
      ],
      "stateMutability": "view",
      "type": "function"
    },
    {
      "inputs": [
        {
          "internalType": "uint256",
          "name": "_tokenId",
          "type": "uint256"
        }
      ],
      "name": "getStakedAssets",
      "outputs": [
        {
          "internalType": "address",
          "name": "",
          "type": "address"
        }
      ],
      "stateMutability": "view",
      "type": "function"
    },
    {
      "inputs": [
        {
          "internalType": "uint256",
          "name": "_tokenId",
          "type": "uint256"
        },
        {
          "internalType": "address",
          "name": "_address",
          "type": "address"
        }
      ],
      "name": "setStakedAssets",
      "outputs": [],
      "stateMutability": "nonpayable",
      "type": "function"
    },
    {
      "inputs": [
        {
          "internalType": "address",
          "name": "_address",
          "type": "address"
        },
        {
          "internalType": "uint256",
          "name": "_amount",
          "type": "uint256"
        },
        {
          "internalType": "bool",
          "name": "param",
          "type": "bool"
        }
      ],
      "name": "setBalancesNFT",
      "outputs": [],
      "stateMutability": "nonpayable",
      "type": "function"
    },
    {
      "inputs": [
        {
          "internalType": "address",
          "name": "account",
          "type": "address"
        },
        {
          "internalType": "uint256",
          "name": "collect",
          "type": "uint256"
        }
      ],
      "name": "setUserRewardUpdate",
      "outputs": [],
      "stateMutability": "nonpayable",
      "type": "function"
    },
    {
      "inputs": [],
      "name": "lastTimeRewardApplicable",
      "outputs": [
        {
          "internalType": "uint256",
          "name": "",
          "type": "uint256"
        }
      ],
      "stateMutability": "view",
      "type": "function"
    },
    {
      "inputs": [
        {
          "internalType": "address",
          "name": "account",
          "type": "address"
        }
      ],
      "name": "getRewardData",
      "outputs": [
        {
          "internalType": "uint256[]",
          "name": "",
          "type": "uint256[]"
        }
      ],
      "stateMutability": "nonpayable",
      "type": "function"
    },
    {
      "inputs": [
        {
          "internalType": "uint256",
          "name": "amount",
          "type": "uint256"
        },
        {
          "internalType": "uint256",
          "name": "collect",
          "type": "uint256"
        },
        {
          "internalType": "address",
          "name": "staker",
          "type": "address"
        }
      ],
      "name": "stake",
      "outputs": [],
      "stateMutability": "payable",
      "type": "function"
    },
    {
      "inputs": [
        {
          "internalType": "uint256",
          "name": "amount",
          "type": "uint256"
        },
        {
          "internalType": "uint256",
          "name": "collect",
          "type": "uint256"
        }
      ],
      "name": "withdraw",
      "outputs": [],
      "stateMutability": "payable",
      "type": "function"
    },
    {
      "inputs": [
        {
          "internalType": "uint256",
          "name": "reward",
          "type": "uint256"
        },
        {
          "internalType": "uint256",
          "name": "collect",
          "type": "uint256"
        }
      ],
      "name": "getReward",
      "outputs": [],
      "stateMutability": "payable",
      "type": "function"
    }
  ],
  "bytecode": "0x6080604052600a60025534801561001557600080fd5b5061003261002761003e60201b60201c565b61004660201b60201c565b6001808190555061010a565b600033905090565b60008060009054906101000a900473ffffffffffffffffffffffffffffffffffffffff169050816000806101000a81548173ffffffffffffffffffffffffffffffffffffffff021916908373ffffffffffffffffffffffffffffffffffffffff1602179055508173ffffffffffffffffffffffffffffffffffffffff168173ffffffffffffffffffffffffffffffffffffffff167f8be0079c531659141344cd1fd0a4f28419497f9722a3daafe3b4186f6b6457e060405160405180910390a35050565b61189f806101196000396000f3fe60806040526004361061014b5760003560e01c80637b0a47ee116100b6578063ba14f26a1161006f578063ba14f26a146104a1578063bcb4fa42146104de578063c8f33c9114610507578063ca88612114610532578063d17f742a1461056f578063f2fde38b146105ac5761014b565b80637b0a47ee1461038a5780637d8fc88e146103b557806380faa57d146103f25780638107368b1461041d5780638da5cb5b1461045a578063b90bc519146104855761014b565b8063441a3e7011610108578063441a3e7014610298578063451831e4146102b45780634a90bc3f146102f15780635db8de191461032e578063715018a6146103575780637628a37d1461036e5761014b565b80630223705e1461015057806307c217ec1461018d57806318160ddd146101ca5780631aa24d62146101f557806327e235e31461021e5780633a42b0531461025b575b600080fd5b34801561015c57600080fd5b50610177600480360381019061017291906112d0565b6105d5565b604051610184919061161d565b60405180910390f35b34801561019957600080fd5b506101b460048036038101906101af91906112d0565b6105ed565b6040516101c1919061161d565b60405180910390f35b3480156101d657600080fd5b506101df610605565b6040516101ec919061161d565b60405180910390f35b34801561020157600080fd5b5061021c600480360381019061021791906112f9565b61060b565b005b34801561022a57600080fd5b50610245600480360381019061024091906112d0565b610619565b604051610252919061161d565b60405180910390f35b34801561026757600080fd5b50610282600480360381019061027d9190611384565b610631565b60405161028f9190611580565b60405180910390f35b6102b260048036038101906102ad91906113e9565b61066e565b005b3480156102c057600080fd5b506102db60048036038101906102d691906112d0565b610728565b6040516102e8919061159b565b60405180910390f35b3480156102fd57600080fd5b5061031860048036038101906103139190611384565b610a4d565b604051610325919061161d565b60405180910390f35b34801561033a57600080fd5b5061035560048036038101906103509190611335565b610a71565b005b34801561036357600080fd5b5061036c610b2e565b005b61038860048036038101906103839190611425565b610bb6565b005b34801561039657600080fd5b5061039f610c72565b6040516103ac919061161d565b60405180910390f35b3480156103c157600080fd5b506103dc60048036038101906103d79190611384565b610c78565b6040516103e99190611580565b60405180910390f35b3480156103fe57600080fd5b50610407610cab565b604051610414919061161d565b60405180910390f35b34801561042957600080fd5b50610444600480360381019061043f91906112d0565b610cb3565b604051610451919061161d565b60405180910390f35b34801561046657600080fd5b5061046f610ccb565b60405161047c9190611580565b60405180910390f35b61049f600480360381019061049a91906113e9565b610cf4565b005b3480156104ad57600080fd5b506104c860048036038101906104c391906112d0565b610e9f565b6040516104d5919061161d565b60405180910390f35b3480156104ea57600080fd5b50610505600480360381019061050091906113ad565b610eb7565b005b34801561051357600080fd5b5061051c610f0d565b604051610529919061161d565b60405180910390f35b34801561053e57600080fd5b50610559600480360381019061055491906112d0565b610f13565b604051610566919061161d565b60405180910390f35b34801561057b57600080fd5b50610596600480360381019061059191906112d0565b610f2b565b6040516105a3919061161d565b60405180910390f35b3480156105b857600080fd5b506105d360048036038101906105ce91906112d0565b610f43565b005b600c6020528060005260406000206000915090505481565b60076020528060005260406000206000915090505481565b600a5481565b610615828261103b565b5050565b600b6020528060005260406000206000915090505481565b6000600d600083815260200190815260200160002060009054906101000a900473ffffffffffffffffffffffffffffffffffffffff169050919050565b600260015414156106b4576040517f08c379a00000000000000000000000000000000000000000000000000000000081526004016106ab906115fd565b60405180910390fd5b60026001819055506106c5826110e0565b6106cf338261103b565b3373ffffffffffffffffffffffffffffffffffffffff167f7084f5476618d8e60b11ef0d7d3f06914655adb8793e28ff7f018d4c76d505d583604051610715919061161d565b60405180910390a2600180819055505050565b60606004600560008473ffffffffffffffffffffffffffffffffffffffff1673ffffffffffffffffffffffffffffffffffffffff1681526020019081526020016000205490806001815401808255809150506001900390600052602060002001600090919091909150556004600760008473ffffffffffffffffffffffffffffffffffffffff1673ffffffffffffffffffffffffffffffffffffffff1681526020019081526020016000205490806001815401808255809150506001900390600052602060002001600090919091909150556004600860008473ffffffffffffffffffffffffffffffffffffffff1673ffffffffffffffffffffffffffffffffffffffff1681526020019081526020016000205490806001815401808255809150506001900390600052602060002001600090919091909150556004600960008473ffffffffffffffffffffffffffffffffffffffff1673ffffffffffffffffffffffffffffffffffffffff1681526020019081526020016000205490806001815401808255809150506001900390600052602060002001600090919091909150556004600b60008473ffffffffffffffffffffffffffffffffffffffff1673ffffffffffffffffffffffffffffffffffffffff1681526020019081526020016000205490806001815401808255809150506001900390600052602060002001600090919091909150556004600c60008473ffffffffffffffffffffffffffffffffffffffff1673ffffffffffffffffffffffffffffffffffffffff16815260200190815260200160002054908060018154018082558091505060019003906000526020600020016000909190919091505560046109a4610cab565b90806001815401808255809150506001900390600052602060002001600090919091909150556004600a5490806001815401808255809150506001900390600052602060002001600090919091909150556004805480602002602001604051908101604052809291908181526020018280548015610a4157602002820191906000526020600020905b815481526020019060010190808311610a2d575b50505050509050919050565b60048181548110610a5d57600080fd5b906000526020600020016000915090505481565b8015610ad25781600c60008573ffffffffffffffffffffffffffffffffffffffff1673ffffffffffffffffffffffffffffffffffffffff1681526020019081526020016000206000828254610ac69190611682565b92505081905550610b29565b81600c60008573ffffffffffffffffffffffffffffffffffffffff1673ffffffffffffffffffffffffffffffffffffffff1681526020019081526020016000206000828254610b2191906116d8565b925050819055505b505050565b610b36611152565b73ffffffffffffffffffffffffffffffffffffffff16610b54610ccb565b73ffffffffffffffffffffffffffffffffffffffff1614610baa576040517f08c379a0000000000000000000000000000000000000000000000000000000008152600401610ba1906115dd565b60405180910390fd5b610bb4600061115a565b565b60026001541415610bfc576040517f08c379a0000000000000000000000000000000000000000000000000000000008152600401610bf3906115fd565b60405180910390fd5b6002600181905550610c0e838261121e565b610c18818361103b565b8073ffffffffffffffffffffffffffffffffffffffff167f9e71bc8eea02a63969f509818f2dafb9254532904319f9dbda79b67bd34a5f3d84604051610c5e919061161d565b60405180910390a260018081905550505050565b60025481565b600d6020528060005260406000206000915054906101000a900473ffffffffffffffffffffffffffffffffffffffff1681565b600042905090565b60056020528060005260406000206000915090505481565b60008060009054906101000a900473ffffffffffffffffffffffffffffffffffffffff16905090565b60026001541415610d3a576040517f08c379a0000000000000000000000000000000000000000000000000000000008152600401610d31906115fd565b60405180910390fd5b60026001819055506000821115610e9457610d55338261103b565b81600760003373ffffffffffffffffffffffffffffffffffffffff1673ffffffffffffffffffffffffffffffffffffffff1681526020019081526020016000206000828254610da491906116d8565b9250508190555081600860003373ffffffffffffffffffffffffffffffffffffffff1673ffffffffffffffffffffffffffffffffffffffff1681526020019081526020016000208190555081600960003373ffffffffffffffffffffffffffffffffffffffff1673ffffffffffffffffffffffffffffffffffffffff1681526020019081526020016000206000828254610e3e9190611682565b925050819055503373ffffffffffffffffffffffffffffffffffffffff167fe2403640ba68fed3a2f88b7557551d1993f84b99bb10ff833f0cf8db0c5e048683604051610e8b919061161d565b60405180910390a25b600180819055505050565b60096020528060005260406000206000915090505481565b80600d600084815260200190815260200160002060006101000a81548173ffffffffffffffffffffffffffffffffffffffff021916908373ffffffffffffffffffffffffffffffffffffffff1602179055505050565b60035481565b60066020528060005260406000206000915090505481565b60086020528060005260406000206000915090505481565b610f4b611152565b73ffffffffffffffffffffffffffffffffffffffff16610f69610ccb565b73ffffffffffffffffffffffffffffffffffffffff1614610fbf576040517f08c379a0000000000000000000000000000000000000000000000000000000008152600401610fb6906115dd565b60405180910390fd5b600073ffffffffffffffffffffffffffffffffffffffff168173ffffffffffffffffffffffffffffffffffffffff16141561102f576040517f08c379a0000000000000000000000000000000000000000000000000000000008152600401611026906115bd565b60405180910390fd5b6110388161115a565b50565b80600760008473ffffffffffffffffffffffffffffffffffffffff1673ffffffffffffffffffffffffffffffffffffffff168152602001908152602001600020600082825461108a9190611682565b92505081905550611099610cab565b600560008473ffffffffffffffffffffffffffffffffffffffff1673ffffffffffffffffffffffffffffffffffffffff168152602001908152602001600020819055505050565b80600a60008282546110f291906116d8565b9250508190555080600b60003373ffffffffffffffffffffffffffffffffffffffff1673ffffffffffffffffffffffffffffffffffffffff168152602001908152602001600020600082825461114891906116d8565b9250508190555050565b600033905090565b60008060009054906101000a900473ffffffffffffffffffffffffffffffffffffffff169050816000806101000a81548173ffffffffffffffffffffffffffffffffffffffff021916908373ffffffffffffffffffffffffffffffffffffffff1602179055508173ffffffffffffffffffffffffffffffffffffffff168173ffffffffffffffffffffffffffffffffffffffff167f8be0079c531659141344cd1fd0a4f28419497f9722a3daafe3b4186f6b6457e060405160405180910390a35050565b81600a60008282546112309190611682565b9250508190555081600b60008373ffffffffffffffffffffffffffffffffffffffff1673ffffffffffffffffffffffffffffffffffffffff16815260200190815260200160002060008282546112869190611682565b925050819055505050565b6000813590506112a081611824565b92915050565b6000813590506112b58161183b565b92915050565b6000813590506112ca81611852565b92915050565b6000602082840312156112e257600080fd5b60006112f084828501611291565b91505092915050565b6000806040838503121561130c57600080fd5b600061131a85828601611291565b925050602061132b858286016112bb565b9150509250929050565b60008060006060848603121561134a57600080fd5b600061135886828701611291565b9350506020611369868287016112bb565b925050604061137a868287016112a6565b9150509250925092565b60006020828403121561139657600080fd5b60006113a4848285016112bb565b91505092915050565b600080604083850312156113c057600080fd5b60006113ce858286016112bb565b92505060206113df85828601611291565b9150509250929050565b600080604083850312156113fc57600080fd5b600061140a858286016112bb565b925050602061141b858286016112bb565b9150509250929050565b60008060006060848603121561143a57600080fd5b6000611448868287016112bb565b9350506020611459868287016112bb565b925050604061146a86828701611291565b9150509250925092565b60006114808383611562565b60208301905092915050565b6114958161170c565b82525050565b60006114a682611648565b6114b08185611660565b93506114bb83611638565b8060005b838110156114ec5781516114d38882611474565b97506114de83611653565b9250506001810190506114bf565b5085935050505092915050565b6000611506602683611671565b915061151182611783565b604082019050919050565b6000611529602083611671565b9150611534826117d2565b602082019050919050565b600061154c601f83611671565b9150611557826117fb565b602082019050919050565b61156b8161174a565b82525050565b61157a8161174a565b82525050565b6000602082019050611595600083018461148c565b92915050565b600060208201905081810360008301526115b5818461149b565b905092915050565b600060208201905081810360008301526115d6816114f9565b9050919050565b600060208201905081810360008301526115f68161151c565b9050919050565b600060208201905081810360008301526116168161153f565b9050919050565b60006020820190506116326000830184611571565b92915050565b6000819050602082019050919050565b600081519050919050565b6000602082019050919050565b600082825260208201905092915050565b600082825260208201905092915050565b600061168d8261174a565b91506116988361174a565b9250827fffffffffffffffffffffffffffffffffffffffffffffffffffffffffffffffff038211156116cd576116cc611754565b5b828201905092915050565b60006116e38261174a565b91506116ee8361174a565b92508282101561170157611700611754565b5b828203905092915050565b60006117178261172a565b9050919050565b60008115159050919050565b600073ffffffffffffffffffffffffffffffffffffffff82169050919050565b6000819050919050565b7f4e487b7100000000000000000000000000000000000000000000000000000000600052601160045260246000fd5b7f4f776e61626c653a206e6577206f776e657220697320746865207a65726f206160008201527f6464726573730000000000000000000000000000000000000000000000000000602082015250565b7f4f776e61626c653a2063616c6c6572206973206e6f7420746865206f776e6572600082015250565b7f5265656e7472616e637947756172643a207265656e7472616e742063616c6c00600082015250565b61182d8161170c565b811461183857600080fd5b50565b6118448161171e565b811461184f57600080fd5b50565b61185b8161174a565b811461186657600080fd5b5056fea26469706673582212201a8a73c95ffbd4afed740efd8f2ce1022449c6e05be312234ce4f7fc1281b6f764736f6c63430008040033",
  "immutableReferences": {},
  "source": "// SPDX-License-Identifier: UNLICENSED\r\npragma solidity 0.8.4;\r\n\r\nimport \"@openzeppelin/contracts/token/ERC721/ERC721.sol\";\r\nimport \"@openzeppelin/contracts/token/ERC20/IERC20.sol\";\r\nimport \"@openzeppelin/contracts/access/Ownable.sol\";\r\nimport \"@openzeppelin/contracts/utils/math/SafeMath.sol\";\r\nimport \"@openzeppelin/contracts/security/ReentrancyGuard.sol\";\r\n\r\ncontract PumlStake is Ownable, ReentrancyGuard {\r\n\r\n    using SafeMath for uint256;\r\n\r\n    /* ========== STATE VARIABLES ========== */\r\n\r\n    uint256 public rewardRate = 10;\r\n    uint256 public lastUpdateTime;\r\n    uint256[] public stakeData;\r\n\r\n    mapping(address => uint256) public userLastUpdateTime;\r\n    mapping(address => uint256) public userLastUpdateTimeNFT;\r\n    mapping(address => uint256) public userRewardStored;\r\n    mapping(address => uint256) public userLastReward;\r\n    mapping(address => uint256) public userRewardPaid;\r\n\r\n    uint256 public totalSupply;\r\n    mapping(address => uint256) public balances;\r\n    mapping(address => uint256) public balancesNFT;\r\n    mapping(uint256 => address) public stakedAssets;\r\n\r\n\r\n\r\n    /* ========== VIEWS ========== */\r\n\r\n    function getStakedAssets(uint256 _tokenId) public view returns (address) {\r\n        return stakedAssets[_tokenId];\r\n    }\r\n\r\n    function setStakedAssets(uint256 _tokenId, address _address) public {\r\n        stakedAssets[_tokenId] = _address;\r\n    }\r\n\r\n    function setBalancesNFT(address _address, uint256 _amount, bool param) public {\r\n        if (param) {\r\n            balancesNFT[_address] += _amount;\r\n        } else {\r\n            balancesNFT[_address] -= _amount;\r\n        }\r\n    }\r\n\r\n    function setUserRewardUpdate(address account, uint256 collect) public {\r\n        _rewardPerUser(account, collect);\r\n    }\r\n\r\n    function lastTimeRewardApplicable() public view returns (uint256) {\r\n        return block.timestamp;\r\n    }\r\n\r\n    function _rewardPerUser(address account, uint256 collect) internal {\r\n        userRewardStored[account] += collect;\r\n        userLastUpdateTime[account] = lastTimeRewardApplicable();\r\n    }\r\n\r\n    function getRewardData(address account) public returns (uint256[] memory) {\r\n        stakeData.push(userLastUpdateTime[account]);\r\n        stakeData.push(userRewardStored[account]);\r\n        stakeData.push(userLastReward[account]);\r\n        stakeData.push(userRewardPaid[account]);\r\n        stakeData.push(balances[account]);\r\n        stakeData.push(balancesNFT[account]);\r\n        stakeData.push(lastTimeRewardApplicable());\r\n        stakeData.push(totalSupply);\r\n\r\n        return stakeData;\r\n    }\r\n\r\n\r\n    /* ========== MUTATIVE FUNCTIONS ========== */\r\n\r\n    function stake(uint256 amount, uint256 collect, address staker) external payable nonReentrant {\r\n\r\n        _stake(amount, staker);\r\n        _rewardPerUser(staker, collect);\r\n        emit Staked(staker, amount);\r\n    }\r\n\r\n    function withdraw(uint256 amount, uint256 collect) public payable nonReentrant {\r\n\r\n        _withdraw(amount);\r\n        _rewardPerUser(msg.sender, collect);\r\n        emit Withdrawn(msg.sender, amount);\r\n    }\r\n\r\n    function getReward(uint256 reward, uint256 collect) public payable nonReentrant {\r\n\r\n        if (reward > 0) {\r\n             _rewardPerUser(msg.sender, collect);\r\n            userRewardStored[msg.sender] -= reward;\r\n            userLastReward[msg.sender] = reward;\r\n            userRewardPaid[msg.sender] += reward;\r\n\r\n            emit RewardPaid(msg.sender, reward);\r\n        }\r\n    }\r\n\r\n    function _stake(uint256 _amount, address _staker) internal {\r\n        totalSupply += _amount;\r\n        balances[_staker] += _amount;\r\n    }\r\n\r\n    function _withdraw(uint256 _amount) internal {\r\n        totalSupply -= _amount;\r\n        balances[msg.sender] -= _amount;\r\n    }\r\n\r\n    /* ========== MODIFIERS ========== */\r\n\r\n    modifier updateReward(address account, uint256 feeward) {\r\n        if (account != address(0)) {\r\n            _rewardPerUser(account, feeward);\r\n            userLastUpdateTime[account] = lastTimeRewardApplicable();\r\n        }\r\n         _;\r\n    }\r\n\r\n    /* ========== EVENTS ========== */\r\n\r\n\r\n    event Staked(address indexed user, uint256 amount);\r\n    event Withdrawn(address indexed user, uint256 amount);\r\n    event RewardPaid(address indexed user, uint256 reward);\r\n    \r\n}\r\n",
  "sourcePath": "F:\\work\\puml-project\\ethcontracts\\contracts\\PumlStake.sol",
  "compiler": {
    "name": "solc",
    "version": "0.8.4+commit.c7e474f2.Emscripten.clang"
  },
  "schemaVersion": "3.4.5",
  "updatedAt": "2022-04-08T05:43:52.528Z",
  "devdoc": {
    "kind": "dev",
    "methods": {
      "owner()": {
        "details": "Returns the address of the current owner."
      },
      "renounceOwnership()": {
        "details": "Leaves the contract without owner. It will not be possible to call `onlyOwner` functions anymore. Can only be called by the current owner. NOTE: Renouncing ownership will leave the contract without an owner, thereby removing any functionality that is only available to the owner."
      },
      "transferOwnership(address)": {
        "details": "Transfers ownership of the contract to a new account (`newOwner`). Can only be called by the current owner."
      }
    },
    "version": 1
  },
  "userdoc": {
    "kind": "user",
    "methods": {},
    "version": 1
  }
}