{
  "contractName": "PumlStake",
  "abi": [
    {
      "inputs": [],
      "stateMutability": "nonpayable",
      "type": "constructor"
    },
    {
      "anonymous": false,
      "inputs": [
        {
          "indexed": true,
          "internalType": "address",
          "name": "user",
          "type": "address"
        },
        {
          "indexed": false,
          "internalType": "uint256",
          "name": "amount",
          "type": "uint256"
        }
      ],
      "name": "Collect",
      "type": "event"
    },
    {
      "anonymous": false,
      "inputs": [
        {
          "indexed": true,
          "internalType": "address",
          "name": "previousOwner",
          "type": "address"
        },
        {
          "indexed": true,
          "internalType": "address",
          "name": "newOwner",
          "type": "address"
        }
      ],
      "name": "OwnershipTransferred",
      "type": "event"
    },
    {
      "anonymous": false,
      "inputs": [
        {
          "indexed": true,
          "internalType": "address",
          "name": "user",
          "type": "address"
        },
        {
          "indexed": false,
          "internalType": "uint256",
          "name": "reward",
          "type": "uint256"
        }
      ],
      "name": "RewardPaid",
      "type": "event"
    },
    {
      "anonymous": false,
      "inputs": [
        {
          "indexed": true,
          "internalType": "address",
          "name": "user",
          "type": "address"
        },
        {
          "indexed": false,
          "internalType": "uint256",
          "name": "amount",
          "type": "uint256"
        }
      ],
      "name": "Staked",
      "type": "event"
    },
    {
      "anonymous": false,
      "inputs": [
        {
          "indexed": true,
          "internalType": "address",
          "name": "user",
          "type": "address"
        },
        {
          "indexed": false,
          "internalType": "uint256",
          "name": "amount",
          "type": "uint256"
        }
      ],
      "name": "Withdrawn",
      "type": "event"
    },
    {
      "inputs": [],
      "name": "avgBlocksPerDay",
      "outputs": [
        {
          "internalType": "uint256",
          "name": "",
          "type": "uint256"
        }
      ],
      "stateMutability": "view",
      "type": "function"
    },
    {
      "inputs": [
        {
          "internalType": "address",
          "name": "",
          "type": "address"
        }
      ],
      "name": "balances",
      "outputs": [
        {
          "internalType": "uint256",
          "name": "",
          "type": "uint256"
        }
      ],
      "stateMutability": "view",
      "type": "function"
    },
    {
      "inputs": [
        {
          "internalType": "address",
          "name": "",
          "type": "address"
        }
      ],
      "name": "balancesNFT",
      "outputs": [
        {
          "internalType": "uint256",
          "name": "",
          "type": "uint256"
        }
      ],
      "stateMutability": "view",
      "type": "function"
    },
    {
      "inputs": [],
      "name": "blockLength",
      "outputs": [
        {
          "internalType": "uint256",
          "name": "",
          "type": "uint256"
        }
      ],
      "stateMutability": "view",
      "type": "function"
    },
    {
      "inputs": [],
      "name": "owner",
      "outputs": [
        {
          "internalType": "address",
          "name": "",
          "type": "address"
        }
      ],
      "stateMutability": "view",
      "type": "function"
    },
    {
      "inputs": [],
      "name": "renounceOwnership",
      "outputs": [],
      "stateMutability": "nonpayable",
      "type": "function"
    },
    {
      "inputs": [
        {
          "internalType": "uint256",
          "name": "",
          "type": "uint256"
        }
      ],
      "name": "stakedAssets",
      "outputs": [
        {
          "internalType": "address",
          "name": "",
          "type": "address"
        }
      ],
      "stateMutability": "view",
      "type": "function"
    },
    {
      "inputs": [],
      "name": "totalSupply",
      "outputs": [
        {
          "internalType": "uint256",
          "name": "",
          "type": "uint256"
        }
      ],
      "stateMutability": "view",
      "type": "function"
    },
    {
      "inputs": [],
      "name": "totalSupplyNFT",
      "outputs": [
        {
          "internalType": "uint256",
          "name": "",
          "type": "uint256"
        }
      ],
      "stateMutability": "view",
      "type": "function"
    },
    {
      "inputs": [
        {
          "internalType": "address",
          "name": "newOwner",
          "type": "address"
        }
      ],
      "name": "transferOwnership",
      "outputs": [],
      "stateMutability": "nonpayable",
      "type": "function"
    },
    {
      "inputs": [
        {
          "internalType": "address",
          "name": "",
          "type": "address"
        }
      ],
      "name": "userLastCollect",
      "outputs": [
        {
          "internalType": "uint256",
          "name": "",
          "type": "uint256"
        }
      ],
      "stateMutability": "view",
      "type": "function"
    },
    {
      "inputs": [
        {
          "internalType": "address",
          "name": "",
          "type": "address"
        }
      ],
      "name": "userLastReward",
      "outputs": [
        {
          "internalType": "uint256",
          "name": "",
          "type": "uint256"
        }
      ],
      "stateMutability": "view",
      "type": "function"
    },
    {
      "inputs": [
        {
          "internalType": "address",
          "name": "",
          "type": "address"
        }
      ],
      "name": "userLastUpdateTime",
      "outputs": [
        {
          "internalType": "uint256",
          "name": "",
          "type": "uint256"
        }
      ],
      "stateMutability": "view",
      "type": "function"
    },
    {
      "inputs": [
        {
          "internalType": "address",
          "name": "",
          "type": "address"
        }
      ],
      "name": "userRewardStored",
      "outputs": [
        {
          "internalType": "uint256",
          "name": "",
          "type": "uint256"
        }
      ],
      "stateMutability": "view",
      "type": "function"
    },
    {
      "inputs": [
        {
          "internalType": "uint256",
          "name": "_tokenId",
          "type": "uint256"
        }
      ],
      "name": "getStakedAssets",
      "outputs": [
        {
          "internalType": "address",
          "name": "",
          "type": "address"
        }
      ],
      "stateMutability": "view",
      "type": "function"
    },
    {
      "inputs": [
        {
          "internalType": "uint256",
          "name": "_tokenId",
          "type": "uint256"
        },
        {
          "internalType": "address",
          "name": "_address",
          "type": "address"
        }
      ],
      "name": "setStakedAssets",
      "outputs": [],
      "stateMutability": "nonpayable",
      "type": "function"
    },
    {
      "inputs": [
        {
          "internalType": "address",
          "name": "_address",
          "type": "address"
        },
        {
          "internalType": "uint256",
          "name": "_amount",
          "type": "uint256"
        },
        {
          "internalType": "bool",
          "name": "param",
          "type": "bool"
        }
      ],
      "name": "setBalancesNFT",
      "outputs": [],
      "stateMutability": "nonpayable",
      "type": "function"
    },
    {
      "inputs": [
        {
          "internalType": "address",
          "name": "account",
          "type": "address"
        },
        {
          "internalType": "uint256",
          "name": "feeward",
          "type": "uint256"
        }
      ],
      "name": "setUserUpdate",
      "outputs": [],
      "stateMutability": "nonpayable",
      "type": "function"
    },
    {
      "inputs": [
        {
          "internalType": "address",
          "name": "account",
          "type": "address"
        },
        {
          "internalType": "uint256",
          "name": "reward",
          "type": "uint256"
        }
      ],
      "name": "setUserRewardUpdate",
      "outputs": [],
      "stateMutability": "nonpayable",
      "type": "function"
    },
    {
      "inputs": [],
      "name": "lastTimeRewardApplicable",
      "outputs": [
        {
          "internalType": "uint256",
          "name": "",
          "type": "uint256"
        }
      ],
      "stateMutability": "view",
      "type": "function"
    },
    {
      "inputs": [],
      "name": "balanceOfPumlx",
      "outputs": [
        {
          "internalType": "uint256",
          "name": "",
          "type": "uint256"
        }
      ],
      "stateMutability": "view",
      "type": "function"
    },
    {
      "inputs": [
        {
          "internalType": "address",
          "name": "account",
          "type": "address"
        },
        {
          "internalType": "uint256",
          "name": "feeward",
          "type": "uint256"
        }
      ],
      "name": "collectPerUser",
      "outputs": [
        {
          "internalType": "uint256",
          "name": "",
          "type": "uint256"
        }
      ],
      "stateMutability": "view",
      "type": "function"
    },
    {
      "inputs": [
        {
          "internalType": "address",
          "name": "account",
          "type": "address"
        }
      ],
      "name": "getUserData",
      "outputs": [
        {
          "components": [
            {
              "internalType": "uint256",
              "name": "userLastUpdateTime",
              "type": "uint256"
            },
            {
              "internalType": "uint256",
              "name": "userRewardStored",
              "type": "uint256"
            },
            {
              "internalType": "uint256",
              "name": "userLastReward",
              "type": "uint256"
            },
            {
              "internalType": "uint256",
              "name": "userLastCollect",
              "type": "uint256"
            },
            {
              "internalType": "uint256",
              "name": "balances",
              "type": "uint256"
            },
            {
              "internalType": "uint256",
              "name": "totalBalances",
              "type": "uint256"
            },
            {
              "internalType": "uint256",
              "name": "balancesNFT",
              "type": "uint256"
            },
            {
              "internalType": "uint256",
              "name": "totalBalancesNFT",
              "type": "uint256"
            }
          ],
          "internalType": "struct PumlStake.UserData",
          "name": "",
          "type": "tuple"
        }
      ],
      "stateMutability": "view",
      "type": "function"
    },
    {
      "inputs": [
        {
          "internalType": "address",
          "name": "_from",
          "type": "address"
        },
        {
          "internalType": "address",
          "name": "_to",
          "type": "address"
        },
        {
          "internalType": "uint256",
          "name": "_amount",
          "type": "uint256"
        }
      ],
      "name": "setTransferPuml",
      "outputs": [],
      "stateMutability": "nonpayable",
      "type": "function"
    },
    {
      "inputs": [
        {
          "internalType": "address",
          "name": "_from",
          "type": "address"
        },
        {
          "internalType": "uint256",
          "name": "_amount",
          "type": "uint256"
        }
      ],
      "name": "setDepositPuml",
      "outputs": [],
      "stateMutability": "nonpayable",
      "type": "function"
    },
    {
      "inputs": [
        {
          "internalType": "uint256",
          "name": "amount",
          "type": "uint256"
        },
        {
          "internalType": "uint256",
          "name": "stakeamount",
          "type": "uint256"
        },
        {
          "internalType": "uint256",
          "name": "feeward",
          "type": "uint256"
        }
      ],
      "name": "stake",
      "outputs": [],
      "stateMutability": "payable",
      "type": "function"
    },
    {
      "inputs": [
        {
          "internalType": "uint256",
          "name": "amount",
          "type": "uint256"
        },
        {
          "internalType": "uint256",
          "name": "unstakeamount",
          "type": "uint256"
        },
        {
          "internalType": "uint256",
          "name": "feeward",
          "type": "uint256"
        }
      ],
      "name": "withdraw",
      "outputs": [],
      "stateMutability": "payable",
      "type": "function"
    },
    {
      "inputs": [
        {
          "internalType": "uint256",
          "name": "reward",
          "type": "uint256"
        },
        {
          "internalType": "uint256",
          "name": "feeward",
          "type": "uint256"
        }
      ],
      "name": "claim",
      "outputs": [],
      "stateMutability": "payable",
      "type": "function"
    },
    {
      "inputs": [
        {
          "internalType": "address",
          "name": "claimer",
          "type": "address"
        },
        {
          "internalType": "uint256",
          "name": "reward",
          "type": "uint256"
        },
        {
          "internalType": "uint256",
          "name": "feeward",
          "type": "uint256"
        }
      ],
      "name": "claimApi",
      "outputs": [],
      "stateMutability": "payable",
      "type": "function"
    },
    {
      "inputs": [
        {
          "internalType": "uint256",
          "name": "amount",
          "type": "uint256"
        },
        {
          "internalType": "uint256",
          "name": "feeward",
          "type": "uint256"
        }
      ],
      "name": "collect",
      "outputs": [],
      "stateMutability": "payable",
      "type": "function"
    },
    {
      "inputs": [
        {
          "internalType": "address",
          "name": "_to",
          "type": "address"
        },
        {
          "internalType": "uint256",
          "name": "_amount",
          "type": "uint256"
        }
      ],
      "name": "transferPuml",
      "outputs": [],
      "stateMutability": "payable",
      "type": "function"
    },
    {
      "inputs": [
        {
          "internalType": "address",
          "name": "_to",
          "type": "address"
        },
        {
          "internalType": "uint256",
          "name": "_amount",
          "type": "uint256"
        }
      ],
      "name": "pickPuml",
      "outputs": [],
      "stateMutability": "payable",
      "type": "function"
    },
    {
      "inputs": [
        {
          "internalType": "uint256",
          "name": "_amount",
          "type": "uint256"
        }
      ],
      "name": "depositPuml",
      "outputs": [],
      "stateMutability": "payable",
      "type": "function"
    }
  ],
  "bytecode": "0x6080604052611964600355622433946004553480156200001e57600080fd5b506200003f62000033620000a160201b60201c565b620000a960201b60201c565b6001808190555073bc75ecc12c77506dcfd70113b15683a9a0768ab4600260006101000a81548173ffffffffffffffffffffffffffffffffffffffff021916908373ffffffffffffffffffffffffffffffffffffffff1602179055506200016d565b600033905090565b60008060009054906101000a900473ffffffffffffffffffffffffffffffffffffffff169050816000806101000a81548173ffffffffffffffffffffffffffffffffffffffff021916908373ffffffffffffffffffffffffffffffffffffffff1602179055508173ffffffffffffffffffffffffffffffffffffffff168173ffffffffffffffffffffffffffffffffffffffff167f8be0079c531659141344cd1fd0a4f28419497f9722a3daafe3b4186f6b6457e060405160405180910390a35050565b612c7a806200017d6000396000f3fe6080604052600436106101ee5760003560e01c80638da5cb5b1161010d578063bcb4fa42116100a0578063d4a881821161006f578063d4a88182146106ae578063f2fde38b146106eb578063f47cbe1714610714578063fe6ad68614610730578063ffc9896b1461075b576101ee565b8063bcb4fa4214610610578063c349026314610639578063cfa6f82714610655578063d17f742a14610671576101ee565b8063a41fe49f116100dc578063a41fe49f14610591578063a638f2e2146105ad578063b0ea6a84146105c9578063b3ddcb79146105f4576101ee565b80638da5cb5b146104e757806392ebf4dd146105125780639d756a8d1461053d578063a145203b14610566576101ee565b80635db8de191161018557806380faa57d1161015457806380faa57d1461043a57806381051b80146104655780638107368b1461048e5780638a007902146104cb576101ee565b80635db8de19146103805780636fd52ccc146103a9578063715018a6146103e65780637d8fc88e146103fd576101ee565b80631aa24d62116101c15780631aa24d62146102b457806327e235e3146102dd5780633a42b0531461031a5780633dfc708714610357576101ee565b80630190b2c2146101f35780630223705e1461020f57806307c217ec1461024c57806318160ddd14610289575b600080fd5b61020d600480360381019061020891906122e4565b610798565b005b34801561021b57600080fd5b506102366004803603810190610231919061226c565b6108e6565b604051610243919061283b565b60405180910390f35b34801561025857600080fd5b50610273600480360381019061026e919061226c565b6108fe565b604051610280919061283b565b60405180910390f35b34801561029557600080fd5b5061029e610916565b6040516102ab919061283b565b60405180910390f35b3480156102c057600080fd5b506102db60048036038101906102d691906122e4565b61091c565b005b3480156102e957600080fd5b5061030460048036038101906102ff919061226c565b61092a565b604051610311919061283b565b60405180910390f35b34801561032657600080fd5b50610341600480360381019061033c91906123e7565b610942565b60405161034e91906126c4565b60405180910390f35b34801561036357600080fd5b5061037e60048036038101906103799190612295565b61097f565b005b34801561038c57600080fd5b506103a760048036038101906103a29190612320565b610a79565b005b3480156103b557600080fd5b506103d060048036038101906103cb91906122e4565b610b68565b6040516103dd919061283b565b60405180910390f35b3480156103f257600080fd5b506103fb610d04565b005b34801561040957600080fd5b50610424600480360381019061041f91906123e7565b610d8c565b60405161043191906126c4565b60405180910390f35b34801561044657600080fd5b5061044f610dbf565b60405161045c919061283b565b60405180910390f35b34801561047157600080fd5b5061048c600480360381019061048791906122e4565b610dc7565b005b34801561049a57600080fd5b506104b560048036038101906104b0919061226c565b610dd5565b6040516104c2919061283b565b60405180910390f35b6104e560048036038101906104e0919061236f565b610ded565b005b3480156104f357600080fd5b506104fc610fe4565b60405161050991906126c4565b60405180910390f35b34801561051e57600080fd5b5061052761100d565b604051610534919061283b565b60405180910390f35b34801561054957600080fd5b50610564600480360381019061055f91906122e4565b611013565b005b34801561057257600080fd5b5061057b61110c565b604051610588919061283b565b60405180910390f35b6105ab60048036038101906105a691906124b1565b611112565b005b6105c760048036038101906105c291906124b1565b61127d565b005b3480156105d557600080fd5b506105de6113eb565b6040516105eb919061283b565b60405180910390f35b61060e600480360381019061060991906123e7565b6113f1565b005b34801561061c57600080fd5b5061063760048036038101906106329190612439565b61153e565b005b610653600480360381019061064e9190612475565b611594565b005b61066f600480360381019061066a9190612475565b61178a565b005b34801561067d57600080fd5b506106986004803603810190610693919061226c565b61196b565b6040516106a5919061283b565b60405180910390f35b3480156106ba57600080fd5b506106d560048036038101906106d0919061226c565b611983565b6040516106e2919061283b565b60405180910390f35b3480156106f757600080fd5b50610712600480360381019061070d919061226c565b61199b565b005b61072e600480360381019061072991906122e4565b611a93565b005b34801561073c57600080fd5b50610745611bdf565b604051610752919061283b565b60405180910390f35b34801561076757600080fd5b50610782600480360381019061077d919061226c565b611c91565b60405161078f919061281f565b60405180910390f35b600260015414156107de576040517f08c379a00000000000000000000000000000000000000000000000000000000081526004016107d5906127ff565b60405180910390fd5b600260018190555060008111610829576040517f08c379a00000000000000000000000000000000000000000000000000000000081526004016108209061277f565b60405180910390fd5b600260009054906101000a900473ffffffffffffffffffffffffffffffffffffffff1673ffffffffffffffffffffffffffffffffffffffff166323b872dd3384846040518463ffffffff1660e01b8152600401610888939291906126df565b602060405180830381600087803b1580156108a257600080fd5b505af11580156108b6573d6000803e3d6000fd5b505050506040513d601f19601f820116820180604052508101906108da91906123be565b50600180819055505050565b600c6020528060005260406000206000915090505481565b60066020528060005260406000206000915090505481565b60095481565b6109268282611e5e565b5050565b600b6020528060005260406000206000915090505481565b6000600d600083815260200190815260200160002060009054906101000a900473ffffffffffffffffffffffffffffffffffffffff169050919050565b600081116109c2576040517f08c379a00000000000000000000000000000000000000000000000000000000081526004016109b99061277f565b60405180910390fd5b600260009054906101000a900473ffffffffffffffffffffffffffffffffffffffff1673ffffffffffffffffffffffffffffffffffffffff166323b872dd8484846040518463ffffffff1660e01b8152600401610a21939291906126df565b602060405180830381600087803b158015610a3b57600080fd5b505af1158015610a4f573d6000803e3d6000fd5b505050506040513d601f19601f82011682018060405250810190610a7391906123be565b50505050565b8015610af35781600c60008573ffffffffffffffffffffffffffffffffffffffff1673ffffffffffffffffffffffffffffffffffffffff1681526020019081526020016000206000828254610ace9190612867565b9250508190555081600a6000828254610ae79190612867565b92505081905550610b63565b81600c60008573ffffffffffffffffffffffffffffffffffffffff1673ffffffffffffffffffffffffffffffffffffffff1681526020019081526020016000206000828254610b429190612948565b9250508190555081600a6000828254610b5b9190612948565b925050819055505b505050565b60008082905060006009541115610bd457600954600b60008673ffffffffffffffffffffffffffffffffffffffff1673ffffffffffffffffffffffffffffffffffffffff16815260200190815260200160002054610bc691906128bd565b81610bd19190612867565b90505b6000600a541115610c3a57600a54600c60008673ffffffffffffffffffffffffffffffffffffffff1673ffffffffffffffffffffffffffffffffffffffff16815260200190815260200160002054610c2c91906128bd565b81610c379190612867565b90505b603c806018610cdd600560008973ffffffffffffffffffffffffffffffffffffffff1673ffffffffffffffffffffffffffffffffffffffff16815260200190815260200160002054610c8a610dbf565b610c949190612948565b610ccf610cc0600354600454610ca8611bdf565b610cb291906128bd565b611efc90919063ffffffff16565b87611efc90919063ffffffff16565b611efc90919063ffffffff16565b610ce791906128bd565b610cf191906128bd565b610cfb91906128bd565b91505092915050565b610d0c611f12565b73ffffffffffffffffffffffffffffffffffffffff16610d2a610fe4565b73ffffffffffffffffffffffffffffffffffffffff1614610d80576040517f08c379a0000000000000000000000000000000000000000000000000000000008152600401610d77906127bf565b60405180910390fd5b610d8a6000611f1a565b565b600d6020528060005260406000206000915054906101000a900473ffffffffffffffffffffffffffffffffffffffff1681565b600042905090565b610dd18282611fde565b5050565b60056020528060005260406000206000915090505481565b60026001541415610e33576040517f08c379a0000000000000000000000000000000000000000000000000000000008152600401610e2a906127ff565b60405180910390fd5b600260018190555081600660008573ffffffffffffffffffffffffffffffffffffffff1673ffffffffffffffffffffffffffffffffffffffff1681526020019081526020016000205411610ebc576040517f08c379a0000000000000000000000000000000000000000000000000000000008152600401610eb39061275f565b60405180910390fd5b6000821115610fd857610ecf8382611fde565b610ed98383611e5e565b600260009054906101000a900473ffffffffffffffffffffffffffffffffffffffff1673ffffffffffffffffffffffffffffffffffffffff1663a9059cbb84846040518363ffffffff1660e01b8152600401610f36929190612716565b602060405180830381600087803b158015610f5057600080fd5b505af1158015610f64573d6000803e3d6000fd5b505050506040513d601f19601f82011682018060405250810190610f8891906123be565b508273ffffffffffffffffffffffffffffffffffffffff167fe2403640ba68fed3a2f88b7557551d1993f84b99bb10ff833f0cf8db0c5e048683604051610fcf919061283b565b60405180910390a25b60018081905550505050565b60008060009054906101000a900473ffffffffffffffffffffffffffffffffffffffff16905090565b60035481565b60008111611056576040517f08c379a000000000000000000000000000000000000000000000000000000000815260040161104d906127df565b60405180910390fd5b600260009054906101000a900473ffffffffffffffffffffffffffffffffffffffff1673ffffffffffffffffffffffffffffffffffffffff166323b872dd8330846040518463ffffffff1660e01b81526004016110b5939291906126df565b602060405180830381600087803b1580156110cf57600080fd5b505af11580156110e3573d6000803e3d6000fd5b505050506040513d601f19601f8201168201806040525081019061110791906123be565b505050565b60045481565b60026001541415611158576040517f08c379a000000000000000000000000000000000000000000000000000000000815260040161114f906127ff565b60405180910390fd5b600260018190555061116a3382611fde565b611173836120d9565b3373ffffffffffffffffffffffffffffffffffffffff167f7084f5476618d8e60b11ef0d7d3f06914655adb8793e28ff7f018d4c76d505d5846040516111b9919061283b565b60405180910390a2600260009054906101000a900473ffffffffffffffffffffffffffffffffffffffff1673ffffffffffffffffffffffffffffffffffffffff1663a9059cbb33846040518363ffffffff1660e01b815260040161121e929190612716565b602060405180830381600087803b15801561123857600080fd5b505af115801561124c573d6000803e3d6000fd5b505050506040513d601f19601f8201168201806040525081019061127091906123be565b5060018081905550505050565b600260015414156112c3576040517f08c379a00000000000000000000000000000000000000000000000000000000081526004016112ba906127ff565b60405180910390fd5b60026001819055506112d53382611fde565b6112df833361214b565b3373ffffffffffffffffffffffffffffffffffffffff167f9e71bc8eea02a63969f509818f2dafb9254532904319f9dbda79b67bd34a5f3d84604051611325919061283b565b60405180910390a2600260009054906101000a900473ffffffffffffffffffffffffffffffffffffffff1673ffffffffffffffffffffffffffffffffffffffff166323b872dd3330856040518463ffffffff1660e01b815260040161138c939291906126df565b602060405180830381600087803b1580156113a657600080fd5b505af11580156113ba573d6000803e3d6000fd5b505050506040513d601f19601f820116820180604052508101906113de91906123be565b5060018081905550505050565b600a5481565b60026001541415611437576040517f08c379a000000000000000000000000000000000000000000000000000000000815260040161142e906127ff565b60405180910390fd5b600260018190555060008111611482576040517f08c379a0000000000000000000000000000000000000000000000000000000008152600401611479906127df565b60405180910390fd5b600260009054906101000a900473ffffffffffffffffffffffffffffffffffffffff1673ffffffffffffffffffffffffffffffffffffffff166323b872dd3330846040518463ffffffff1660e01b81526004016114e1939291906126df565b602060405180830381600087803b1580156114fb57600080fd5b505af115801561150f573d6000803e3d6000fd5b505050506040513d601f19601f8201168201806040525081019061153391906123be565b506001808190555050565b80600d600084815260200190815260200160002060006101000a81548173ffffffffffffffffffffffffffffffffffffffff021916908373ffffffffffffffffffffffffffffffffffffffff1602179055505050565b600260015414156115da576040517f08c379a00000000000000000000000000000000000000000000000000000000081526004016115d1906127ff565b60405180910390fd5b600260018190555081600660003373ffffffffffffffffffffffffffffffffffffffff1673ffffffffffffffffffffffffffffffffffffffff1681526020019081526020016000205411611663576040517f08c379a000000000000000000000000000000000000000000000000000000000815260040161165a9061275f565b60405180910390fd5b600082111561177f576116763382611fde565b6116803383611e5e565b600260009054906101000a900473ffffffffffffffffffffffffffffffffffffffff1673ffffffffffffffffffffffffffffffffffffffff1663a9059cbb33846040518363ffffffff1660e01b81526004016116dd929190612716565b602060405180830381600087803b1580156116f757600080fd5b505af115801561170b573d6000803e3d6000fd5b505050506040513d601f19601f8201168201806040525081019061172f91906123be565b503373ffffffffffffffffffffffffffffffffffffffff167fe2403640ba68fed3a2f88b7557551d1993f84b99bb10ff833f0cf8db0c5e048683604051611776919061283b565b60405180910390a25b600180819055505050565b600260015414156117d0576040517f08c379a00000000000000000000000000000000000000000000000000000000081526004016117c7906127ff565b60405180910390fd5b6002600181905550816117e33383610b68565b11611823576040517f08c379a000000000000000000000000000000000000000000000000000000000815260040161181a9061279f565b60405180910390fd5b60008211156119605781600860003373ffffffffffffffffffffffffffffffffffffffff1673ffffffffffffffffffffffffffffffffffffffff1681526020019081526020016000208190555081600660003373ffffffffffffffffffffffffffffffffffffffff1673ffffffffffffffffffffffffffffffffffffffff16815260200190815260200160002060008282546118bf9190612867565b925050819055506118ce610dbf565b600560003373ffffffffffffffffffffffffffffffffffffffff1673ffffffffffffffffffffffffffffffffffffffff168152602001908152602001600020819055503373ffffffffffffffffffffffffffffffffffffffff167f4256a058fa2b123d727576d3d31e3a272db98ee5fe264e229610ce43dc84999983604051611957919061283b565b60405180910390a25b600180819055505050565b60076020528060005260406000206000915090505481565b60086020528060005260406000206000915090505481565b6119a3611f12565b73ffffffffffffffffffffffffffffffffffffffff166119c1610fe4565b73ffffffffffffffffffffffffffffffffffffffff1614611a17576040517f08c379a0000000000000000000000000000000000000000000000000000000008152600401611a0e906127bf565b60405180910390fd5b600073ffffffffffffffffffffffffffffffffffffffff168173ffffffffffffffffffffffffffffffffffffffff161415611a87576040517f08c379a0000000000000000000000000000000000000000000000000000000008152600401611a7e9061273f565b60405180910390fd5b611a9081611f1a565b50565b60026001541415611ad9576040517f08c379a0000000000000000000000000000000000000000000000000000000008152600401611ad0906127ff565b60405180910390fd5b600260018190555060008111611b24576040517f08c379a0000000000000000000000000000000000000000000000000000000008152600401611b1b9061277f565b60405180910390fd5b600260009054906101000a900473ffffffffffffffffffffffffffffffffffffffff1673ffffffffffffffffffffffffffffffffffffffff1663a9059cbb83836040518363ffffffff1660e01b8152600401611b81929190612716565b602060405180830381600087803b158015611b9b57600080fd5b505af1158015611baf573d6000803e3d6000fd5b505050506040513d601f19601f82011682018060405250810190611bd391906123be565b50600180819055505050565b6000600260009054906101000a900473ffffffffffffffffffffffffffffffffffffffff1673ffffffffffffffffffffffffffffffffffffffff166370a08231306040518263ffffffff1660e01b8152600401611c3c91906126c4565b60206040518083038186803b158015611c5457600080fd5b505afa158015611c68573d6000803e3d6000fd5b505050506040513d601f19601f82011682018060405250810190611c8c9190612410565b905090565b611c996121be565b6000604051806101000160405280600560008673ffffffffffffffffffffffffffffffffffffffff1673ffffffffffffffffffffffffffffffffffffffff168152602001908152602001600020548152602001600660008673ffffffffffffffffffffffffffffffffffffffff1673ffffffffffffffffffffffffffffffffffffffff168152602001908152602001600020548152602001600760008673ffffffffffffffffffffffffffffffffffffffff1673ffffffffffffffffffffffffffffffffffffffff168152602001908152602001600020548152602001600860008673ffffffffffffffffffffffffffffffffffffffff1673ffffffffffffffffffffffffffffffffffffffff168152602001908152602001600020548152602001600b60008673ffffffffffffffffffffffffffffffffffffffff1673ffffffffffffffffffffffffffffffffffffffff1681526020019081526020016000205481526020016009548152602001600c60008673ffffffffffffffffffffffffffffffffffffffff1673ffffffffffffffffffffffffffffffffffffffff168152602001908152602001600020548152602001600a54815250905080915050919050565b80600760008473ffffffffffffffffffffffffffffffffffffffff1673ffffffffffffffffffffffffffffffffffffffff1681526020019081526020016000208190555080600660008473ffffffffffffffffffffffffffffffffffffffff1673ffffffffffffffffffffffffffffffffffffffff1681526020019081526020016000206000828254611ef19190612948565b925050819055505050565b60008183611f0a91906128ee565b905092915050565b600033905090565b60008060009054906101000a900473ffffffffffffffffffffffffffffffffffffffff169050816000806101000a81548173ffffffffffffffffffffffffffffffffffffffff021916908373ffffffffffffffffffffffffffffffffffffffff1602179055508173ffffffffffffffffffffffffffffffffffffffff168173ffffffffffffffffffffffffffffffffffffffff167f8be0079c531659141344cd1fd0a4f28419497f9722a3daafe3b4186f6b6457e060405160405180910390a35050565b611fe88282610b68565b600860008473ffffffffffffffffffffffffffffffffffffffff1673ffffffffffffffffffffffffffffffffffffffff168152602001908152602001600020819055506120358282610b68565b600660008473ffffffffffffffffffffffffffffffffffffffff1673ffffffffffffffffffffffffffffffffffffffff16815260200190815260200160002060008282546120839190612867565b92505081905550612092610dbf565b600560008473ffffffffffffffffffffffffffffffffffffffff1673ffffffffffffffffffffffffffffffffffffffff168152602001908152602001600020819055505050565b80600960008282546120eb9190612948565b9250508190555080600b60003373ffffffffffffffffffffffffffffffffffffffff1673ffffffffffffffffffffffffffffffffffffffff16815260200190815260200160002060008282546121419190612948565b9250508190555050565b816009600082825461215d9190612867565b9250508190555081600b60008373ffffffffffffffffffffffffffffffffffffffff1673ffffffffffffffffffffffffffffffffffffffff16815260200190815260200160002060008282546121b39190612867565b925050819055505050565b60405180610100016040528060008152602001600081526020016000815260200160008152602001600081526020016000815260200160008152602001600081525090565b60008135905061221281612bff565b92915050565b60008135905061222781612c16565b92915050565b60008151905061223c81612c16565b92915050565b60008135905061225181612c2d565b92915050565b60008151905061226681612c2d565b92915050565b60006020828403121561227e57600080fd5b600061228c84828501612203565b91505092915050565b6000806000606084860312156122aa57600080fd5b60006122b886828701612203565b93505060206122c986828701612203565b92505060406122da86828701612242565b9150509250925092565b600080604083850312156122f757600080fd5b600061230585828601612203565b925050602061231685828601612242565b9150509250929050565b60008060006060848603121561233557600080fd5b600061234386828701612203565b935050602061235486828701612242565b925050604061236586828701612218565b9150509250925092565b60008060006060848603121561238457600080fd5b600061239286828701612203565b93505060206123a386828701612242565b92505060406123b486828701612242565b9150509250925092565b6000602082840312156123d057600080fd5b60006123de8482850161222d565b91505092915050565b6000602082840312156123f957600080fd5b600061240784828501612242565b91505092915050565b60006020828403121561242257600080fd5b600061243084828501612257565b91505092915050565b6000806040838503121561244c57600080fd5b600061245a85828601612242565b925050602061246b85828601612203565b9150509250929050565b6000806040838503121561248857600080fd5b600061249685828601612242565b92505060206124a785828601612242565b9150509250929050565b6000806000606084860312156124c657600080fd5b60006124d486828701612242565b93505060206124e586828701612242565b92505060406124f686828701612242565b9150509250925092565b6125098161297c565b82525050565b600061251c602683612856565b915061252782612a22565b604082019050919050565b600061253f602583612856565b915061254a82612a71565b604082019050919050565b6000612562602983612856565b915061256d82612ac0565b604082019050919050565b6000612585602c83612856565b915061259082612b0f565b604082019050919050565b60006125a8602083612856565b91506125b382612b5e565b602082019050919050565b60006125cb602983612856565b91506125d682612b87565b604082019050919050565b60006125ee601f83612856565b91506125f982612bd6565b602082019050919050565b6101008201600082015161261b60008501826126a6565b50602082015161262e60208501826126a6565b50604082015161264160408501826126a6565b50606082015161265460608501826126a6565b50608082015161266760808501826126a6565b5060a082015161267a60a08501826126a6565b5060c082015161268d60c08501826126a6565b5060e08201516126a060e08501826126a6565b50505050565b6126af816129ba565b82525050565b6126be816129ba565b82525050565b60006020820190506126d96000830184612500565b92915050565b60006060820190506126f46000830186612500565b6127016020830185612500565b61270e60408301846126b5565b949350505050565b600060408201905061272b6000830185612500565b61273860208301846126b5565b9392505050565b600060208201905081810360008301526127588161250f565b9050919050565b6000602082019050818103600083015261277881612532565b9050919050565b6000602082019050818103600083015261279881612555565b9050919050565b600060208201905081810360008301526127b881612578565b9050919050565b600060208201905081810360008301526127d88161259b565b9050919050565b600060208201905081810360008301526127f8816125be565b9050919050565b60006020820190508181036000830152612818816125e1565b9050919050565b6000610100820190506128356000830184612604565b92915050565b600060208201905061285060008301846126b5565b92915050565b600082825260208201905092915050565b6000612872826129ba565b915061287d836129ba565b9250827fffffffffffffffffffffffffffffffffffffffffffffffffffffffffffffffff038211156128b2576128b16129c4565b5b828201905092915050565b60006128c8826129ba565b91506128d3836129ba565b9250826128e3576128e26129f3565b5b828204905092915050565b60006128f9826129ba565b9150612904836129ba565b9250817fffffffffffffffffffffffffffffffffffffffffffffffffffffffffffffffff048311821515161561293d5761293c6129c4565b5b828202905092915050565b6000612953826129ba565b915061295e836129ba565b925082821015612971576129706129c4565b5b828203905092915050565b60006129878261299a565b9050919050565b60008115159050919050565b600073ffffffffffffffffffffffffffffffffffffffff82169050919050565b6000819050919050565b7f4e487b7100000000000000000000000000000000000000000000000000000000600052601160045260246000fd5b7f4e487b7100000000000000000000000000000000000000000000000000000000600052601260045260246000fd5b7f4f776e61626c653a206e6577206f776e657220697320746865207a65726f206160008201527f6464726573730000000000000000000000000000000000000000000000000000602082015250565b7f596f75206e65656420746f207472616e73666572206c657373207468616e207360008201527f746f726564000000000000000000000000000000000000000000000000000000602082015250565b7f596f75206e65656420746f207472616e73666572206174206c6561737420736f60008201527f6d6520746f6b656e730000000000000000000000000000000000000000000000602082015250565b7f596f75206e65656420746f20636f6c6c656374206c657373207468616e20636f60008201527f6c6c656374506572557365720000000000000000000000000000000000000000602082015250565b7f4f776e61626c653a2063616c6c6572206973206e6f7420746865206f776e6572600082015250565b7f596f75206e65656420746f206465706f73697465206174206c6561737420736f60008201527f6d6520746f6b656e730000000000000000000000000000000000000000000000602082015250565b7f5265656e7472616e637947756172643a207265656e7472616e742063616c6c00600082015250565b612c088161297c565b8114612c1357600080fd5b50565b612c1f8161298e565b8114612c2a57600080fd5b50565b612c36816129ba565b8114612c4157600080fd5b5056fea2646970667358221220773faacb9f758c7f71602c208c6da98ff61e6997e404691b7032c6e3d3410f6464736f6c63430008040033",
  "immutableReferences": {},
  "source": "// SPDX-License-Identifier: UNLICENSED\r\npragma solidity 0.8.4;\r\n\r\nimport \"@openzeppelin/contracts/token/ERC721/ERC721.sol\";\r\nimport \"@openzeppelin/contracts/token/ERC20/IERC20.sol\";\r\nimport \"@openzeppelin/contracts/access/Ownable.sol\";\r\nimport \"@openzeppelin/contracts/utils/math/SafeMath.sol\";\r\nimport \"@openzeppelin/contracts/security/ReentrancyGuard.sol\";\r\n\r\ncontract PumlStake is Ownable, ReentrancyGuard {\r\n\r\n    IERC20 _puml;\r\n\r\n    constructor() {\r\n        _puml = IERC20(0xbc75ECc12c77506DCFd70113B15683A9a0768AB4);\r\n    }\r\n\r\n    using SafeMath for uint256;\r\n\r\n    /* ========== STATE VARIABLES ========== */\r\n\r\n    uint256 public avgBlocksPerDay = 6500;\r\n    uint256 public blockLength = 2372500;\r\n\r\n    mapping(address => uint256) public userLastUpdateTime;\r\n    mapping(address => uint256) public userRewardStored;\r\n    mapping(address => uint256) public userLastReward;\r\n    mapping(address => uint256) public userLastCollect;\r\n\r\n    uint256 public totalSupply;\r\n    uint256 public totalSupplyNFT;\r\n    mapping(address => uint256) public balances;\r\n    mapping(address => uint256) public balancesNFT;\r\n    mapping(uint256 => address) public stakedAssets;\r\n\r\n    struct UserData {\r\n        uint256 userLastUpdateTime;\r\n        uint256 userRewardStored;\r\n        uint256 userLastReward;\r\n        uint256 userLastCollect;\r\n        uint256 balances;\r\n        uint256 totalBalances;\r\n        uint256 balancesNFT;\r\n        uint256 totalBalancesNFT;\r\n    }\r\n\r\n\r\n\r\n    /* ========== VIEWS ========== */\r\n\r\n    function getStakedAssets(uint256 _tokenId) public view returns (address) {\r\n        return stakedAssets[_tokenId];\r\n    }\r\n\r\n    function setStakedAssets(uint256 _tokenId, address _address) public {\r\n        stakedAssets[_tokenId] = _address;\r\n    }\r\n\r\n    function setBalancesNFT(address _address, uint256 _amount, bool param) public {\r\n        if (param) {\r\n            balancesNFT[_address] += _amount;\r\n            totalSupplyNFT += _amount;\r\n        } else {\r\n            balancesNFT[_address] -= _amount;\r\n            totalSupplyNFT -= _amount;\r\n        }\r\n    }\r\n\r\n    function setUserUpdate(address account, uint256 feeward) public {\r\n        _updatePerUser(account, feeward);\r\n    }\r\n\r\n    function setUserRewardUpdate(address account, uint256 reward) public {\r\n        _updateRewardPerUser(account, reward);\r\n    }\r\n\r\n    function lastTimeRewardApplicable() public view returns (uint256) {\r\n        return block.timestamp;\r\n    }\r\n\r\n    function balanceOfPumlx() public view returns (uint256) {\r\n        return _puml.balanceOf(address(this));\r\n    }\r\n\r\n    function collectPerUser(address account, uint256 feeward) public view returns (uint256) {\r\n        uint256 collectRate = feeward;\r\n        if (totalSupply > 0) {\r\n            collectRate += balances[account]/totalSupply;\r\n        }\r\n        if (totalSupplyNFT > 0) {\r\n            collectRate += balancesNFT[account]/totalSupplyNFT;\r\n        }\r\n        return collectRate.mul((balanceOfPumlx()/blockLength).mul(avgBlocksPerDay)).mul(lastTimeRewardApplicable()-userLastUpdateTime[account])/24/60/60;\r\n    }\r\n\r\n    function _updatePerUser(address account, uint256 feeward) internal {\r\n        userLastCollect[account] = collectPerUser(account, feeward);\r\n        userRewardStored[account] += collectPerUser(account, feeward);\r\n        userLastUpdateTime[account] = lastTimeRewardApplicable();\r\n    }\r\n\r\n    function _updateRewardPerUser(address account, uint256 reward) internal {\r\n        userLastReward[account] = reward;\r\n        userRewardStored[account] -= reward;\r\n    }\r\n\r\n    function getUserData(address account) public view returns (UserData memory) {\r\n        UserData memory userdata = UserData({\r\n            userLastUpdateTime: userLastUpdateTime[account],\r\n            userRewardStored: userRewardStored[account],\r\n            userLastReward: userLastReward[account],\r\n            userLastCollect: userLastCollect[account],\r\n            balances: balances[account],\r\n            totalBalances: totalSupply,\r\n            balancesNFT: balancesNFT[account],\r\n            totalBalancesNFT: totalSupplyNFT\r\n        });\r\n\r\n        return userdata;\r\n    }\r\n\r\n    function setTransferPuml(address _from, address _to, uint256 _amount) public {\r\n        require(_amount > 0, \"You need to transfer at least some tokens\");\r\n        _puml.transferFrom(_from, _to, _amount);\r\n    }\r\n\r\n    function setDepositPuml(address _from, uint256 _amount) public {\r\n        require(_amount > 0, \"You need to deposite at least some tokens\");\r\n        _puml.transferFrom(_from, address(this), _amount);\r\n    }\r\n\r\n\r\n    /* ========== MUTATIVE FUNCTIONS ========== */\r\n\r\n    function stake(uint256 amount, uint256 stakeamount, uint256 feeward) external payable nonReentrant {\r\n\r\n        _updatePerUser(msg.sender, feeward);\r\n        _stake(amount, msg.sender);\r\n        emit Staked(msg.sender, amount);\r\n\r\n        _puml.transferFrom(msg.sender, address(this), stakeamount);\r\n    }\r\n\r\n    function withdraw(uint256 amount, uint256 unstakeamount, uint256 feeward) public payable nonReentrant {\r\n\r\n        _updatePerUser(msg.sender, feeward);\r\n        _withdraw(amount);\r\n        emit Withdrawn(msg.sender, amount);\r\n\r\n        _puml.transfer(msg.sender, unstakeamount);\r\n    }\r\n\r\n    function claim(uint256 reward, uint256 feeward) public payable nonReentrant {\r\n        require( userRewardStored[msg.sender] > reward, \"You need to transfer less than stored\");\r\n        if (reward > 0) {\r\n            _updatePerUser(msg.sender, feeward);\r\n            _updateRewardPerUser(msg.sender, reward);\r\n            _puml.transfer(msg.sender, reward);\r\n\r\n            emit RewardPaid(msg.sender, reward);\r\n        }\r\n    }\r\n\r\n    function claimApi(address claimer, uint256 reward, uint256 feeward) public payable nonReentrant {\r\n        require( userRewardStored[claimer] > reward, \"You need to transfer less than stored\");\r\n        if (reward > 0) {\r\n            _updatePerUser(claimer, feeward);\r\n            _updateRewardPerUser(claimer, reward);\r\n            _puml.transfer(claimer, reward);\r\n\r\n            emit RewardPaid(claimer, reward);\r\n        }\r\n    }\r\n\r\n    function collect(uint256 amount, uint256 feeward) public payable nonReentrant {\r\n        require( collectPerUser(msg.sender, feeward) > amount, \"You need to collect less than collectPerUser\");\r\n        if (amount > 0) {\r\n            userLastCollect[msg.sender] = amount;\r\n            userRewardStored[msg.sender] += amount;\r\n            userLastUpdateTime[msg.sender] = lastTimeRewardApplicable();\r\n\r\n            emit Collect(msg.sender, amount);\r\n        }\r\n    }\r\n\r\n    function _stake(uint256 _amount, address _staker) internal {\r\n        totalSupply += _amount;\r\n        balances[_staker] += _amount;\r\n    }\r\n\r\n    function _withdraw(uint256 _amount) internal {\r\n        totalSupply -= _amount;\r\n        balances[msg.sender] -= _amount;\r\n    }\r\n\r\n    function transferPuml(address _to, uint256 _amount) public payable nonReentrant {\r\n        require(_amount > 0, \"You need to transfer at least some tokens\");\r\n        _puml.transferFrom(msg.sender, _to, _amount);\r\n    }\r\n\r\n    function pickPuml(address _to, uint256 _amount) public payable nonReentrant {\r\n        require(_amount > 0, \"You need to transfer at least some tokens\");\r\n        _puml.transfer(_to, _amount);\r\n    }\r\n\r\n    function depositPuml(uint256 _amount) public payable nonReentrant {\r\n        require(_amount > 0, \"You need to deposite at least some tokens\");\r\n        _puml.transferFrom(msg.sender, address(this), _amount);\r\n    }\r\n\r\n    /* ========== MODIFIERS ========== */\r\n\r\n    modifier updateReward(address account, uint256 reward) {\r\n        if (account != address(0)) {\r\n            userLastReward[account] = reward;\r\n            userRewardStored[account] -= reward;\r\n        }\r\n         _;\r\n    }\r\n\r\n    modifier checkAllowance(uint amount) {\r\n        require(_puml.allowance(msg.sender, address(this)) >= amount, \"Error\");\r\n        _;\r\n    }\r\n\r\n    /* ========== EVENTS ========== */\r\n\r\n\r\n    event Staked(address indexed user, uint256 amount);\r\n    event Withdrawn(address indexed user, uint256 amount);\r\n    event RewardPaid(address indexed user, uint256 reward);\r\n    event Collect(address indexed user, uint256 amount);\r\n}\r\n",
  "sourcePath": "F:\\work\\puml-project\\ethcontracts\\contracts\\PumlStake.sol",
  "compiler": {
    "name": "solc",
    "version": "0.8.4+commit.c7e474f2.Emscripten.clang"
  },
  "schemaVersion": "3.4.5",
  "updatedAt": "2022-08-29T16:57:07.050Z",
  "devdoc": {
    "kind": "dev",
    "methods": {
      "owner()": {
        "details": "Returns the address of the current owner."
      },
      "renounceOwnership()": {
        "details": "Leaves the contract without owner. It will not be possible to call `onlyOwner` functions anymore. Can only be called by the current owner. NOTE: Renouncing ownership will leave the contract without an owner, thereby removing any functionality that is only available to the owner."
      },
      "transferOwnership(address)": {
        "details": "Transfers ownership of the contract to a new account (`newOwner`). Can only be called by the current owner."
      }
    },
    "version": 1
  },
  "userdoc": {
    "kind": "user",
    "methods": {},
    "version": 1
  }
}