{
  "contractName": "PumlStake",
  "abi": [
    {
      "inputs": [],
      "stateMutability": "nonpayable",
      "type": "constructor"
    },
    {
      "anonymous": false,
      "inputs": [
        {
          "indexed": true,
          "internalType": "address",
          "name": "user",
          "type": "address"
        },
        {
          "indexed": false,
          "internalType": "uint256",
          "name": "amount",
          "type": "uint256"
        }
      ],
      "name": "Collect",
      "type": "event"
    },
    {
      "anonymous": false,
      "inputs": [
        {
          "indexed": true,
          "internalType": "address",
          "name": "previousOwner",
          "type": "address"
        },
        {
          "indexed": true,
          "internalType": "address",
          "name": "newOwner",
          "type": "address"
        }
      ],
      "name": "OwnershipTransferred",
      "type": "event"
    },
    {
      "anonymous": false,
      "inputs": [
        {
          "indexed": true,
          "internalType": "address",
          "name": "user",
          "type": "address"
        },
        {
          "indexed": false,
          "internalType": "uint256",
          "name": "reward",
          "type": "uint256"
        }
      ],
      "name": "RewardPaid",
      "type": "event"
    },
    {
      "anonymous": false,
      "inputs": [
        {
          "indexed": true,
          "internalType": "address",
          "name": "user",
          "type": "address"
        },
        {
          "indexed": false,
          "internalType": "uint256",
          "name": "amount",
          "type": "uint256"
        }
      ],
      "name": "Staked",
      "type": "event"
    },
    {
      "anonymous": false,
      "inputs": [
        {
          "indexed": true,
          "internalType": "address",
          "name": "user",
          "type": "address"
        },
        {
          "indexed": false,
          "internalType": "uint256",
          "name": "amount",
          "type": "uint256"
        }
      ],
      "name": "Withdrawn",
      "type": "event"
    },
    {
      "inputs": [],
      "name": "avgBlocksPerDay",
      "outputs": [
        {
          "internalType": "uint256",
          "name": "",
          "type": "uint256"
        }
      ],
      "stateMutability": "view",
      "type": "function"
    },
    {
      "inputs": [
        {
          "internalType": "address",
          "name": "",
          "type": "address"
        }
      ],
      "name": "balances",
      "outputs": [
        {
          "internalType": "uint256",
          "name": "",
          "type": "uint256"
        }
      ],
      "stateMutability": "view",
      "type": "function"
    },
    {
      "inputs": [
        {
          "internalType": "address",
          "name": "",
          "type": "address"
        }
      ],
      "name": "balancesNFT",
      "outputs": [
        {
          "internalType": "uint256",
          "name": "",
          "type": "uint256"
        }
      ],
      "stateMutability": "view",
      "type": "function"
    },
    {
      "inputs": [],
      "name": "blockLength",
      "outputs": [
        {
          "internalType": "uint256",
          "name": "",
          "type": "uint256"
        }
      ],
      "stateMutability": "view",
      "type": "function"
    },
    {
      "inputs": [],
      "name": "owner",
      "outputs": [
        {
          "internalType": "address",
          "name": "",
          "type": "address"
        }
      ],
      "stateMutability": "view",
      "type": "function"
    },
    {
      "inputs": [],
      "name": "renounceOwnership",
      "outputs": [],
      "stateMutability": "nonpayable",
      "type": "function"
    },
    {
      "inputs": [],
      "name": "secondPerDay",
      "outputs": [
        {
          "internalType": "uint256",
          "name": "",
          "type": "uint256"
        }
      ],
      "stateMutability": "view",
      "type": "function"
    },
    {
      "inputs": [
        {
          "internalType": "uint256",
          "name": "",
          "type": "uint256"
        }
      ],
      "name": "stakedAssets",
      "outputs": [
        {
          "internalType": "address",
          "name": "",
          "type": "address"
        }
      ],
      "stateMutability": "view",
      "type": "function"
    },
    {
      "inputs": [],
      "name": "totalSupply",
      "outputs": [
        {
          "internalType": "uint256",
          "name": "",
          "type": "uint256"
        }
      ],
      "stateMutability": "view",
      "type": "function"
    },
    {
      "inputs": [],
      "name": "totalSupplyNFT",
      "outputs": [
        {
          "internalType": "uint256",
          "name": "",
          "type": "uint256"
        }
      ],
      "stateMutability": "view",
      "type": "function"
    },
    {
      "inputs": [
        {
          "internalType": "address",
          "name": "newOwner",
          "type": "address"
        }
      ],
      "name": "transferOwnership",
      "outputs": [],
      "stateMutability": "nonpayable",
      "type": "function"
    },
    {
      "inputs": [
        {
          "internalType": "address",
          "name": "",
          "type": "address"
        }
      ],
      "name": "userLastCollect",
      "outputs": [
        {
          "internalType": "uint256",
          "name": "",
          "type": "uint256"
        }
      ],
      "stateMutability": "view",
      "type": "function"
    },
    {
      "inputs": [
        {
          "internalType": "address",
          "name": "",
          "type": "address"
        }
      ],
      "name": "userLastReward",
      "outputs": [
        {
          "internalType": "uint256",
          "name": "",
          "type": "uint256"
        }
      ],
      "stateMutability": "view",
      "type": "function"
    },
    {
      "inputs": [
        {
          "internalType": "address",
          "name": "",
          "type": "address"
        }
      ],
      "name": "userLastUpdateTime",
      "outputs": [
        {
          "internalType": "uint256",
          "name": "",
          "type": "uint256"
        }
      ],
      "stateMutability": "view",
      "type": "function"
    },
    {
      "inputs": [
        {
          "internalType": "address",
          "name": "",
          "type": "address"
        }
      ],
      "name": "userRewardPaid",
      "outputs": [
        {
          "internalType": "uint256",
          "name": "",
          "type": "uint256"
        }
      ],
      "stateMutability": "view",
      "type": "function"
    },
    {
      "inputs": [
        {
          "internalType": "address",
          "name": "",
          "type": "address"
        }
      ],
      "name": "userRewardStored",
      "outputs": [
        {
          "internalType": "uint256",
          "name": "",
          "type": "uint256"
        }
      ],
      "stateMutability": "view",
      "type": "function"
    },
    {
      "inputs": [
        {
          "internalType": "uint256",
          "name": "_tokenId",
          "type": "uint256"
        }
      ],
      "name": "getStakedAssets",
      "outputs": [
        {
          "internalType": "address",
          "name": "",
          "type": "address"
        }
      ],
      "stateMutability": "view",
      "type": "function"
    },
    {
      "inputs": [
        {
          "internalType": "uint256",
          "name": "_tokenId",
          "type": "uint256"
        },
        {
          "internalType": "address",
          "name": "_address",
          "type": "address"
        }
      ],
      "name": "setStakedAssets",
      "outputs": [],
      "stateMutability": "nonpayable",
      "type": "function"
    },
    {
      "inputs": [
        {
          "internalType": "address",
          "name": "_address",
          "type": "address"
        },
        {
          "internalType": "uint256",
          "name": "_amount",
          "type": "uint256"
        },
        {
          "internalType": "bool",
          "name": "param",
          "type": "bool"
        }
      ],
      "name": "setBalancesNFT",
      "outputs": [],
      "stateMutability": "nonpayable",
      "type": "function"
    },
    {
      "inputs": [
        {
          "internalType": "address",
          "name": "account",
          "type": "address"
        },
        {
          "internalType": "uint256",
          "name": "collectAmount",
          "type": "uint256"
        }
      ],
      "name": "setUserUpdate",
      "outputs": [],
      "stateMutability": "nonpayable",
      "type": "function"
    },
    {
      "inputs": [
        {
          "internalType": "address",
          "name": "account",
          "type": "address"
        },
        {
          "internalType": "uint256",
          "name": "reward",
          "type": "uint256"
        }
      ],
      "name": "setUserRewardUpdate",
      "outputs": [],
      "stateMutability": "nonpayable",
      "type": "function"
    },
    {
      "inputs": [],
      "name": "lastTimeRewardApplicable",
      "outputs": [
        {
          "internalType": "uint256",
          "name": "",
          "type": "uint256"
        }
      ],
      "stateMutability": "view",
      "type": "function"
    },
    {
      "inputs": [],
      "name": "balanceOfPumlx",
      "outputs": [
        {
          "internalType": "uint256",
          "name": "",
          "type": "uint256"
        }
      ],
      "stateMutability": "view",
      "type": "function"
    },
    {
      "inputs": [
        {
          "internalType": "address",
          "name": "account",
          "type": "address"
        }
      ],
      "name": "getUserData",
      "outputs": [
        {
          "components": [
            {
              "internalType": "uint256",
              "name": "userLastUpdateTime",
              "type": "uint256"
            },
            {
              "internalType": "uint256",
              "name": "userRewardStored",
              "type": "uint256"
            },
            {
              "internalType": "uint256",
              "name": "userRewardPaid",
              "type": "uint256"
            },
            {
              "internalType": "uint256",
              "name": "userLastReward",
              "type": "uint256"
            },
            {
              "internalType": "uint256",
              "name": "userLastCollect",
              "type": "uint256"
            },
            {
              "internalType": "uint256",
              "name": "balances",
              "type": "uint256"
            },
            {
              "internalType": "uint256",
              "name": "totalBalances",
              "type": "uint256"
            },
            {
              "internalType": "uint256",
              "name": "balancesNFT",
              "type": "uint256"
            },
            {
              "internalType": "uint256",
              "name": "totalBalancesNFT",
              "type": "uint256"
            }
          ],
          "internalType": "struct PumlStake.UserData",
          "name": "",
          "type": "tuple"
        }
      ],
      "stateMutability": "view",
      "type": "function"
    },
    {
      "inputs": [
        {
          "internalType": "address",
          "name": "_from",
          "type": "address"
        },
        {
          "internalType": "address",
          "name": "_to",
          "type": "address"
        },
        {
          "internalType": "uint256",
          "name": "_amount",
          "type": "uint256"
        }
      ],
      "name": "setTransferPuml",
      "outputs": [],
      "stateMutability": "nonpayable",
      "type": "function"
    },
    {
      "inputs": [
        {
          "internalType": "address",
          "name": "_from",
          "type": "address"
        },
        {
          "internalType": "uint256",
          "name": "_amount",
          "type": "uint256"
        }
      ],
      "name": "setDepositPuml",
      "outputs": [],
      "stateMutability": "nonpayable",
      "type": "function"
    },
    {
      "inputs": [
        {
          "internalType": "uint256",
          "name": "amount",
          "type": "uint256"
        },
        {
          "internalType": "uint256",
          "name": "stakeamount",
          "type": "uint256"
        },
        {
          "internalType": "uint256",
          "name": "collectAmount",
          "type": "uint256"
        }
      ],
      "name": "stake",
      "outputs": [],
      "stateMutability": "payable",
      "type": "function"
    },
    {
      "inputs": [
        {
          "internalType": "uint256",
          "name": "amount",
          "type": "uint256"
        },
        {
          "internalType": "uint256",
          "name": "unstakeamount",
          "type": "uint256"
        },
        {
          "internalType": "uint256",
          "name": "collectAmount",
          "type": "uint256"
        }
      ],
      "name": "withdraw",
      "outputs": [],
      "stateMutability": "payable",
      "type": "function"
    },
    {
      "inputs": [
        {
          "internalType": "uint256",
          "name": "reward",
          "type": "uint256"
        },
        {
          "internalType": "uint256",
          "name": "collectAmount",
          "type": "uint256"
        }
      ],
      "name": "claim",
      "outputs": [],
      "stateMutability": "payable",
      "type": "function"
    },
    {
      "inputs": [
        {
          "internalType": "address",
          "name": "claimer",
          "type": "address"
        },
        {
          "internalType": "uint256",
          "name": "reward",
          "type": "uint256"
        },
        {
          "internalType": "uint256",
          "name": "collectAmount",
          "type": "uint256"
        }
      ],
      "name": "claimApi",
      "outputs": [],
      "stateMutability": "payable",
      "type": "function"
    },
    {
      "inputs": [
        {
          "internalType": "uint256",
          "name": "amount",
          "type": "uint256"
        }
      ],
      "name": "collect",
      "outputs": [],
      "stateMutability": "payable",
      "type": "function"
    },
    {
      "inputs": [
        {
          "internalType": "address",
          "name": "_to",
          "type": "address"
        },
        {
          "internalType": "uint256",
          "name": "_amount",
          "type": "uint256"
        }
      ],
      "name": "transferPuml",
      "outputs": [],
      "stateMutability": "payable",
      "type": "function"
    },
    {
      "inputs": [
        {
          "internalType": "address",
          "name": "_to",
          "type": "address"
        },
        {
          "internalType": "uint256",
          "name": "_amount",
          "type": "uint256"
        }
      ],
      "name": "pickPuml",
      "outputs": [],
      "stateMutability": "payable",
      "type": "function"
    },
    {
      "inputs": [
        {
          "internalType": "uint256",
          "name": "_amount",
          "type": "uint256"
        }
      ],
      "name": "depositPuml",
      "outputs": [],
      "stateMutability": "payable",
      "type": "function"
    }
  ],
  "bytecode": "0x608060405261196460035562243394600455620151806005553480156200002557600080fd5b50620000466200003a620000a860201b60201c565b620000b060201b60201c565b6001808190555073b2e408bc3e7674de7c589f4f8e5471c81f09f5c6600260006101000a81548173ffffffffffffffffffffffffffffffffffffffff021916908373ffffffffffffffffffffffffffffffffffffffff16021790555062000174565b600033905090565b60008060009054906101000a900473ffffffffffffffffffffffffffffffffffffffff169050816000806101000a81548173ffffffffffffffffffffffffffffffffffffffff021916908373ffffffffffffffffffffffffffffffffffffffff1602179055508173ffffffffffffffffffffffffffffffffffffffff168173ffffffffffffffffffffffffffffffffffffffff167f8be0079c531659141344cd1fd0a4f28419497f9722a3daafe3b4186f6b6457e060405160405180910390a35050565b6129a880620001846000396000f3fe6080604052600436106101f95760003560e01c806392ebf4dd1161010d578063bcb4fa42116100a0578063d4a881821161006f578063d4a88182146106e4578063f2fde38b14610721578063f47cbe171461074a578063fe6ad68614610766578063ffc9896b14610791576101f9565b8063bcb4fa4214610646578063c34902631461066f578063ce3f865f1461068b578063d17f742a146106a7576101f9565b8063a638f2e2116100dc578063a638f2e2146105a6578063b0ea6a84146105c2578063b3ddcb79146105ed578063ba14f26a14610609576101f9565b806392ebf4dd1461050b5780639d756a8d14610536578063a145203b1461055f578063a41fe49f1461058a576101f9565b80633dfc70871161019057806380faa57d1161015f57806380faa57d1461043357806381051b801461045e5780638107368b146104875780638a007902146104c45780638da5cb5b146104e0576101f9565b80633dfc70871461038d5780635db8de19146103b6578063715018a6146103df5780637d8fc88e146103f6576101f9565b80631aa24d62116101cc5780631aa24d62146102bf578063264218b9146102e857806327e235e3146103135780633a42b05314610350576101f9565b80630190b2c2146101fe5780630223705e1461021a57806307c217ec1461025757806318160ddd14610294575b600080fd5b61021860048036038101906102139190612149565b6107ce565b005b34801561022657600080fd5b50610241600480360381019061023c91906120d1565b61091c565b60405161024e9190612672565b60405180910390f35b34801561026357600080fd5b5061027e600480360381019061027991906120d1565b610934565b60405161028b9190612672565b60405180910390f35b3480156102a057600080fd5b506102a961094c565b6040516102b69190612672565b60405180910390f35b3480156102cb57600080fd5b506102e660048036038101906102e19190612149565b610952565b005b3480156102f457600080fd5b506102fd610960565b60405161030a9190612672565b60405180910390f35b34801561031f57600080fd5b5061033a600480360381019061033591906120d1565b610966565b6040516103479190612672565b60405180910390f35b34801561035c57600080fd5b506103776004803603810190610372919061224c565b61097e565b604051610384919061251b565b60405180910390f35b34801561039957600080fd5b506103b460048036038101906103af91906120fa565b6109bb565b005b3480156103c257600080fd5b506103dd60048036038101906103d89190612185565b610ab5565b005b3480156103eb57600080fd5b506103f4610ba4565b005b34801561040257600080fd5b5061041d6004803603810190610418919061224c565b610c2c565b60405161042a919061251b565b60405180910390f35b34801561043f57600080fd5b50610448610c5f565b6040516104559190612672565b60405180910390f35b34801561046a57600080fd5b5061048560048036038101906104809190612149565b610c67565b005b34801561049357600080fd5b506104ae60048036038101906104a991906120d1565b610c75565b6040516104bb9190612672565b60405180910390f35b6104de60048036038101906104d991906121d4565b610c8d565b005b3480156104ec57600080fd5b506104f5610e84565b604051610502919061251b565b60405180910390f35b34801561051757600080fd5b50610520610ead565b60405161052d9190612672565b60405180910390f35b34801561054257600080fd5b5061055d60048036038101906105589190612149565b610eb3565b005b34801561056b57600080fd5b50610574610fac565b6040516105819190612672565b60405180910390f35b6105a4600480360381019061059f9190612316565b610fb2565b005b6105c060048036038101906105bb9190612316565b61111d565b005b3480156105ce57600080fd5b506105d761128b565b6040516105e49190612672565b60405180910390f35b6106076004803603810190610602919061224c565b611291565b005b34801561061557600080fd5b50610630600480360381019061062b91906120d1565b6113de565b60405161063d9190612672565b60405180910390f35b34801561065257600080fd5b5061066d6004803603810190610668919061229e565b6113f6565b005b610689600480360381019061068491906122da565b61144c565b005b6106a560048036038101906106a0919061224c565b6115c1565b005b3480156106b357600080fd5b506106ce60048036038101906106c991906120d1565b611756565b6040516106db9190612672565b60405180910390f35b3480156106f057600080fd5b5061070b600480360381019061070691906120d1565b61176e565b6040516107189190612672565b60405180910390f35b34801561072d57600080fd5b50610748600480360381019061074391906120d1565b611786565b005b610764600480360381019061075f9190612149565b61187e565b005b34801561077257600080fd5b5061077b6119ca565b6040516107889190612672565b60405180910390f35b34801561079d57600080fd5b506107b860048036038101906107b391906120d1565b611a7c565b6040516107c59190612656565b60405180910390f35b60026001541415610814576040517f08c379a000000000000000000000000000000000000000000000000000000000815260040161080b90612636565b60405180910390fd5b60026001819055506000811161085f576040517f08c379a0000000000000000000000000000000000000000000000000000000008152600401610856906125d6565b60405180910390fd5b600260009054906101000a900473ffffffffffffffffffffffffffffffffffffffff1673ffffffffffffffffffffffffffffffffffffffff166323b872dd3384846040518463ffffffff1660e01b81526004016108be93929190612536565b602060405180830381600087803b1580156108d857600080fd5b505af11580156108ec573d6000803e3d6000fd5b505050506040513d601f19601f820116820180604052508101906109109190612223565b50600180819055505050565b600e6020528060005260406000206000915090505481565b60076020528060005260406000206000915090505481565b600b5481565b61095c8282611c8e565b5050565b60055481565b600d6020528060005260406000206000915090505481565b6000600f600083815260200190815260200160002060009054906101000a900473ffffffffffffffffffffffffffffffffffffffff169050919050565b600081116109fe576040517f08c379a00000000000000000000000000000000000000000000000000000000081526004016109f5906125d6565b60405180910390fd5b600260009054906101000a900473ffffffffffffffffffffffffffffffffffffffff1673ffffffffffffffffffffffffffffffffffffffff166323b872dd8484846040518463ffffffff1660e01b8152600401610a5d93929190612536565b602060405180830381600087803b158015610a7757600080fd5b505af1158015610a8b573d6000803e3d6000fd5b505050506040513d601f19601f82011682018060405250810190610aaf9190612223565b50505050565b8015610b2f5781600e60008573ffffffffffffffffffffffffffffffffffffffff1673ffffffffffffffffffffffffffffffffffffffff1681526020019081526020016000206000828254610b0a919061269e565b9250508190555081600c6000828254610b23919061269e565b92505081905550610b9f565b81600e60008573ffffffffffffffffffffffffffffffffffffffff1673ffffffffffffffffffffffffffffffffffffffff1681526020019081526020016000206000828254610b7e91906126f4565b9250508190555081600c6000828254610b9791906126f4565b925050819055505b505050565b610bac611d82565b73ffffffffffffffffffffffffffffffffffffffff16610bca610e84565b73ffffffffffffffffffffffffffffffffffffffff1614610c20576040517f08c379a0000000000000000000000000000000000000000000000000000000008152600401610c17906125f6565b60405180910390fd5b610c2a6000611d8a565b565b600f6020528060005260406000206000915054906101000a900473ffffffffffffffffffffffffffffffffffffffff1681565b600042905090565b610c718282611e4e565b5050565b60066020528060005260406000206000915090505481565b60026001541415610cd3576040517f08c379a0000000000000000000000000000000000000000000000000000000008152600401610cca90612636565b60405180910390fd5b600260018190555081600760008573ffffffffffffffffffffffffffffffffffffffff1673ffffffffffffffffffffffffffffffffffffffff1681526020019081526020016000205411610d5c576040517f08c379a0000000000000000000000000000000000000000000000000000000008152600401610d53906125b6565b60405180910390fd5b6000821115610e7857610d6f8382611e4e565b610d798383611c8e565b600260009054906101000a900473ffffffffffffffffffffffffffffffffffffffff1673ffffffffffffffffffffffffffffffffffffffff1663a9059cbb84846040518363ffffffff1660e01b8152600401610dd692919061256d565b602060405180830381600087803b158015610df057600080fd5b505af1158015610e04573d6000803e3d6000fd5b505050506040513d601f19601f82011682018060405250810190610e289190612223565b508273ffffffffffffffffffffffffffffffffffffffff167fe2403640ba68fed3a2f88b7557551d1993f84b99bb10ff833f0cf8db0c5e048683604051610e6f9190612672565b60405180910390a25b60018081905550505050565b60008060009054906101000a900473ffffffffffffffffffffffffffffffffffffffff16905090565b60035481565b60008111610ef6576040517f08c379a0000000000000000000000000000000000000000000000000000000008152600401610eed90612616565b60405180910390fd5b600260009054906101000a900473ffffffffffffffffffffffffffffffffffffffff1673ffffffffffffffffffffffffffffffffffffffff166323b872dd8330846040518463ffffffff1660e01b8152600401610f5593929190612536565b602060405180830381600087803b158015610f6f57600080fd5b505af1158015610f83573d6000803e3d6000fd5b505050506040513d601f19601f82011682018060405250810190610fa79190612223565b505050565b60045481565b60026001541415610ff8576040517f08c379a0000000000000000000000000000000000000000000000000000000008152600401610fef90612636565b60405180910390fd5b600260018190555061100a3382611e4e565b61101383611f37565b3373ffffffffffffffffffffffffffffffffffffffff167f7084f5476618d8e60b11ef0d7d3f06914655adb8793e28ff7f018d4c76d505d5846040516110599190612672565b60405180910390a2600260009054906101000a900473ffffffffffffffffffffffffffffffffffffffff1673ffffffffffffffffffffffffffffffffffffffff1663a9059cbb33846040518363ffffffff1660e01b81526004016110be92919061256d565b602060405180830381600087803b1580156110d857600080fd5b505af11580156110ec573d6000803e3d6000fd5b505050506040513d601f19601f820116820180604052508101906111109190612223565b5060018081905550505050565b60026001541415611163576040517f08c379a000000000000000000000000000000000000000000000000000000000815260040161115a90612636565b60405180910390fd5b60026001819055506111753382611e4e565b61117f8333611fa9565b3373ffffffffffffffffffffffffffffffffffffffff167f9e71bc8eea02a63969f509818f2dafb9254532904319f9dbda79b67bd34a5f3d846040516111c59190612672565b60405180910390a2600260009054906101000a900473ffffffffffffffffffffffffffffffffffffffff1673ffffffffffffffffffffffffffffffffffffffff166323b872dd3330856040518463ffffffff1660e01b815260040161122c93929190612536565b602060405180830381600087803b15801561124657600080fd5b505af115801561125a573d6000803e3d6000fd5b505050506040513d601f19601f8201168201806040525081019061127e9190612223565b5060018081905550505050565b600c5481565b600260015414156112d7576040517f08c379a00000000000000000000000000000000000000000000000000000000081526004016112ce90612636565b60405180910390fd5b600260018190555060008111611322576040517f08c379a000000000000000000000000000000000000000000000000000000000815260040161131990612616565b60405180910390fd5b600260009054906101000a900473ffffffffffffffffffffffffffffffffffffffff1673ffffffffffffffffffffffffffffffffffffffff166323b872dd3330846040518463ffffffff1660e01b815260040161138193929190612536565b602060405180830381600087803b15801561139b57600080fd5b505af11580156113af573d6000803e3d6000fd5b505050506040513d601f19601f820116820180604052508101906113d39190612223565b506001808190555050565b600a6020528060005260406000206000915090505481565b80600f600084815260200190815260200160002060006101000a81548173ffffffffffffffffffffffffffffffffffffffff021916908373ffffffffffffffffffffffffffffffffffffffff1602179055505050565b60026001541415611492576040517f08c379a000000000000000000000000000000000000000000000000000000000815260040161148990612636565b60405180910390fd5b600260018190555060008211156115b6576114ad3382611e4e565b6114b73383611c8e565b600260009054906101000a900473ffffffffffffffffffffffffffffffffffffffff1673ffffffffffffffffffffffffffffffffffffffff1663a9059cbb33846040518363ffffffff1660e01b815260040161151492919061256d565b602060405180830381600087803b15801561152e57600080fd5b505af1158015611542573d6000803e3d6000fd5b505050506040513d601f19601f820116820180604052508101906115669190612223565b503373ffffffffffffffffffffffffffffffffffffffff167fe2403640ba68fed3a2f88b7557551d1993f84b99bb10ff833f0cf8db0c5e0486836040516115ad9190612672565b60405180910390a25b600180819055505050565b60026001541415611607576040517f08c379a00000000000000000000000000000000000000000000000000000000081526004016115fe90612636565b60405180910390fd5b6002600181905550600081111561174c5780600960003373ffffffffffffffffffffffffffffffffffffffff1673ffffffffffffffffffffffffffffffffffffffff1681526020019081526020016000208190555080600760003373ffffffffffffffffffffffffffffffffffffffff1673ffffffffffffffffffffffffffffffffffffffff16815260200190815260200160002060008282546116ab919061269e565b925050819055506116ba610c5f565b600660003373ffffffffffffffffffffffffffffffffffffffff1673ffffffffffffffffffffffffffffffffffffffff168152602001908152602001600020819055503373ffffffffffffffffffffffffffffffffffffffff167f4256a058fa2b123d727576d3d31e3a272db98ee5fe264e229610ce43dc849999826040516117439190612672565b60405180910390a25b6001808190555050565b60086020528060005260406000206000915090505481565b60096020528060005260406000206000915090505481565b61178e611d82565b73ffffffffffffffffffffffffffffffffffffffff166117ac610e84565b73ffffffffffffffffffffffffffffffffffffffff1614611802576040517f08c379a00000000000000000000000000000000000000000000000000000000081526004016117f9906125f6565b60405180910390fd5b600073ffffffffffffffffffffffffffffffffffffffff168173ffffffffffffffffffffffffffffffffffffffff161415611872576040517f08c379a000000000000000000000000000000000000000000000000000000000815260040161186990612596565b60405180910390fd5b61187b81611d8a565b50565b600260015414156118c4576040517f08c379a00000000000000000000000000000000000000000000000000000000081526004016118bb90612636565b60405180910390fd5b60026001819055506000811161190f576040517f08c379a0000000000000000000000000000000000000000000000000000000008152600401611906906125d6565b60405180910390fd5b600260009054906101000a900473ffffffffffffffffffffffffffffffffffffffff1673ffffffffffffffffffffffffffffffffffffffff1663a9059cbb83836040518363ffffffff1660e01b815260040161196c92919061256d565b602060405180830381600087803b15801561198657600080fd5b505af115801561199a573d6000803e3d6000fd5b505050506040513d601f19601f820116820180604052508101906119be9190612223565b50600180819055505050565b6000600260009054906101000a900473ffffffffffffffffffffffffffffffffffffffff1673ffffffffffffffffffffffffffffffffffffffff166370a08231306040518263ffffffff1660e01b8152600401611a27919061251b565b60206040518083038186803b158015611a3f57600080fd5b505afa158015611a53573d6000803e3d6000fd5b505050506040513d601f19601f82011682018060405250810190611a779190612275565b905090565b611a8461201c565b6000604051806101200160405280600660008673ffffffffffffffffffffffffffffffffffffffff1673ffffffffffffffffffffffffffffffffffffffff168152602001908152602001600020548152602001600760008673ffffffffffffffffffffffffffffffffffffffff1673ffffffffffffffffffffffffffffffffffffffff168152602001908152602001600020548152602001600a60008673ffffffffffffffffffffffffffffffffffffffff1673ffffffffffffffffffffffffffffffffffffffff168152602001908152602001600020548152602001600860008673ffffffffffffffffffffffffffffffffffffffff1673ffffffffffffffffffffffffffffffffffffffff168152602001908152602001600020548152602001600960008673ffffffffffffffffffffffffffffffffffffffff1673ffffffffffffffffffffffffffffffffffffffff168152602001908152602001600020548152602001600d60008673ffffffffffffffffffffffffffffffffffffffff1673ffffffffffffffffffffffffffffffffffffffff168152602001908152602001600020548152602001600b548152602001600e60008673ffffffffffffffffffffffffffffffffffffffff1673ffffffffffffffffffffffffffffffffffffffff168152602001908152602001600020548152602001600c54815250905080915050919050565b80600860008473ffffffffffffffffffffffffffffffffffffffff1673ffffffffffffffffffffffffffffffffffffffff1681526020019081526020016000208190555080600a60008473ffffffffffffffffffffffffffffffffffffffff1673ffffffffffffffffffffffffffffffffffffffff1681526020019081526020016000206000828254611d21919061269e565b9250508190555080600760008473ffffffffffffffffffffffffffffffffffffffff1673ffffffffffffffffffffffffffffffffffffffff1681526020019081526020016000206000828254611d7791906126f4565b925050819055505050565b600033905090565b60008060009054906101000a900473ffffffffffffffffffffffffffffffffffffffff169050816000806101000a81548173ffffffffffffffffffffffffffffffffffffffff021916908373ffffffffffffffffffffffffffffffffffffffff1602179055508173ffffffffffffffffffffffffffffffffffffffff168173ffffffffffffffffffffffffffffffffffffffff167f8be0079c531659141344cd1fd0a4f28419497f9722a3daafe3b4186f6b6457e060405160405180910390a35050565b80600960003373ffffffffffffffffffffffffffffffffffffffff1673ffffffffffffffffffffffffffffffffffffffff1681526020019081526020016000208190555080600760008473ffffffffffffffffffffffffffffffffffffffff1673ffffffffffffffffffffffffffffffffffffffff1681526020019081526020016000206000828254611ee1919061269e565b92505081905550611ef0610c5f565b600660008473ffffffffffffffffffffffffffffffffffffffff1673ffffffffffffffffffffffffffffffffffffffff168152602001908152602001600020819055505050565b80600b6000828254611f4991906126f4565b9250508190555080600d60003373ffffffffffffffffffffffffffffffffffffffff1673ffffffffffffffffffffffffffffffffffffffff1681526020019081526020016000206000828254611f9f91906126f4565b9250508190555050565b81600b6000828254611fbb919061269e565b9250508190555081600d60008373ffffffffffffffffffffffffffffffffffffffff1673ffffffffffffffffffffffffffffffffffffffff1681526020019081526020016000206000828254612011919061269e565b925050819055505050565b6040518061012001604052806000815260200160008152602001600081526020016000815260200160008152602001600081526020016000815260200160008152602001600081525090565b6000813590506120778161292d565b92915050565b60008135905061208c81612944565b92915050565b6000815190506120a181612944565b92915050565b6000813590506120b68161295b565b92915050565b6000815190506120cb8161295b565b92915050565b6000602082840312156120e357600080fd5b60006120f184828501612068565b91505092915050565b60008060006060848603121561210f57600080fd5b600061211d86828701612068565b935050602061212e86828701612068565b925050604061213f868287016120a7565b9150509250925092565b6000806040838503121561215c57600080fd5b600061216a85828601612068565b925050602061217b858286016120a7565b9150509250929050565b60008060006060848603121561219a57600080fd5b60006121a886828701612068565b93505060206121b9868287016120a7565b92505060406121ca8682870161207d565b9150509250925092565b6000806000606084860312156121e957600080fd5b60006121f786828701612068565b9350506020612208868287016120a7565b9250506040612219868287016120a7565b9150509250925092565b60006020828403121561223557600080fd5b600061224384828501612092565b91505092915050565b60006020828403121561225e57600080fd5b600061226c848285016120a7565b91505092915050565b60006020828403121561228757600080fd5b6000612295848285016120bc565b91505092915050565b600080604083850312156122b157600080fd5b60006122bf858286016120a7565b92505060206122d085828601612068565b9150509250929050565b600080604083850312156122ed57600080fd5b60006122fb858286016120a7565b925050602061230c858286016120a7565b9150509250929050565b60008060006060848603121561232b57600080fd5b6000612339868287016120a7565b935050602061234a868287016120a7565b925050604061235b868287016120a7565b9150509250925092565b61236e81612728565b82525050565b600061238160268361268d565b915061238c8261279f565b604082019050919050565b60006123a460258361268d565b91506123af826127ee565b604082019050919050565b60006123c760298361268d565b91506123d28261283d565b604082019050919050565b60006123ea60208361268d565b91506123f58261288c565b602082019050919050565b600061240d60298361268d565b9150612418826128b5565b604082019050919050565b6000612430601f8361268d565b915061243b82612904565b602082019050919050565b6101208201600082015161245d60008501826124fd565b50602082015161247060208501826124fd565b50604082015161248360408501826124fd565b50606082015161249660608501826124fd565b5060808201516124a960808501826124fd565b5060a08201516124bc60a08501826124fd565b5060c08201516124cf60c08501826124fd565b5060e08201516124e260e08501826124fd565b506101008201516124f76101008501826124fd565b50505050565b61250681612766565b82525050565b61251581612766565b82525050565b60006020820190506125306000830184612365565b92915050565b600060608201905061254b6000830186612365565b6125586020830185612365565b612565604083018461250c565b949350505050565b60006040820190506125826000830185612365565b61258f602083018461250c565b9392505050565b600060208201905081810360008301526125af81612374565b9050919050565b600060208201905081810360008301526125cf81612397565b9050919050565b600060208201905081810360008301526125ef816123ba565b9050919050565b6000602082019050818103600083015261260f816123dd565b9050919050565b6000602082019050818103600083015261262f81612400565b9050919050565b6000602082019050818103600083015261264f81612423565b9050919050565b60006101208201905061266c6000830184612446565b92915050565b6000602082019050612687600083018461250c565b92915050565b600082825260208201905092915050565b60006126a982612766565b91506126b483612766565b9250827fffffffffffffffffffffffffffffffffffffffffffffffffffffffffffffffff038211156126e9576126e8612770565b5b828201905092915050565b60006126ff82612766565b915061270a83612766565b92508282101561271d5761271c612770565b5b828203905092915050565b600061273382612746565b9050919050565b60008115159050919050565b600073ffffffffffffffffffffffffffffffffffffffff82169050919050565b6000819050919050565b7f4e487b7100000000000000000000000000000000000000000000000000000000600052601160045260246000fd5b7f4f776e61626c653a206e6577206f776e657220697320746865207a65726f206160008201527f6464726573730000000000000000000000000000000000000000000000000000602082015250565b7f596f75206e65656420746f207472616e73666572206c657373207468616e207360008201527f746f726564000000000000000000000000000000000000000000000000000000602082015250565b7f596f75206e65656420746f207472616e73666572206174206c6561737420736f60008201527f6d6520746f6b656e730000000000000000000000000000000000000000000000602082015250565b7f4f776e61626c653a2063616c6c6572206973206e6f7420746865206f776e6572600082015250565b7f596f75206e65656420746f206465706f73697465206174206c6561737420736f60008201527f6d6520746f6b656e730000000000000000000000000000000000000000000000602082015250565b7f5265656e7472616e637947756172643a207265656e7472616e742063616c6c00600082015250565b61293681612728565b811461294157600080fd5b50565b61294d8161273a565b811461295857600080fd5b50565b61296481612766565b811461296f57600080fd5b5056fea264697066735822122081e21077b7aac318e46eb7f34715ba76b7166eaba2f7fab4eee193686ce1816e64736f6c63430008040033",
  "immutableReferences": {},
  "source": "// SPDX-License-Identifier: UNLICENSED\r\npragma solidity 0.8.4;\r\n\r\nimport \"@openzeppelin/contracts/token/ERC721/ERC721.sol\";\r\nimport \"@openzeppelin/contracts/token/ERC20/IERC20.sol\";\r\nimport \"@openzeppelin/contracts/access/Ownable.sol\";\r\nimport \"@openzeppelin/contracts/utils/math/SafeMath.sol\";\r\nimport \"@openzeppelin/contracts/security/ReentrancyGuard.sol\";\r\n\r\ncontract PumlStake is Ownable, ReentrancyGuard {\r\n\r\n    IERC20 _puml;\r\n\r\n    constructor() {\r\n        _puml = IERC20(0xB2e408bc3E7674De7c589F4f8E5471C81F09F5c6);\r\n    }\r\n\r\n    using SafeMath for uint256;\r\n\r\n    /* ========== STATE VARIABLES ========== */\r\n\r\n    uint256 public avgBlocksPerDay = 6500;\r\n    uint256 public blockLength = 2372500;\r\n    uint256 public secondPerDay = 86400;\r\n\r\n    mapping(address => uint256) public userLastUpdateTime;\r\n    mapping(address => uint256) public userRewardStored;\r\n    mapping(address => uint256) public userLastReward;\r\n    mapping(address => uint256) public userLastCollect;\r\n    mapping(address => uint256) public userRewardPaid;\r\n\r\n    uint256 public totalSupply;\r\n    uint256 public totalSupplyNFT;\r\n    mapping(address => uint256) public balances;\r\n    mapping(address => uint256) public balancesNFT;\r\n    mapping(uint256 => address) public stakedAssets;\r\n\r\n    struct UserData {\r\n        uint256 userLastUpdateTime;\r\n        uint256 userRewardStored;\r\n        uint256 userRewardPaid;\r\n        uint256 userLastReward;\r\n        uint256 userLastCollect;\r\n        uint256 balances;\r\n        uint256 totalBalances;\r\n        uint256 balancesNFT;\r\n        uint256 totalBalancesNFT;\r\n    }\r\n\r\n    /* ========== VIEWS ========== */\r\n\r\n    function getStakedAssets(uint256 _tokenId) public view returns (address) {\r\n        return stakedAssets[_tokenId];\r\n    }\r\n\r\n    function setStakedAssets(uint256 _tokenId, address _address) public {\r\n        stakedAssets[_tokenId] = _address;\r\n    }\r\n\r\n    function setBalancesNFT(address _address, uint256 _amount, bool param) public {\r\n        if (param) {\r\n            balancesNFT[_address] += _amount;\r\n            totalSupplyNFT += _amount;\r\n        } else {\r\n            balancesNFT[_address] -= _amount;\r\n            totalSupplyNFT -= _amount;\r\n        }\r\n    }\r\n\r\n    function setUserUpdate(address account, uint256 collectAmount) public {\r\n        _updatePerUser(account, collectAmount);\r\n    }\r\n\r\n    function setUserRewardUpdate(address account, uint256 reward) public {\r\n        _updateRewardPerUser(account, reward);\r\n    }\r\n\r\n    function lastTimeRewardApplicable() public view returns (uint256) {\r\n        return block.timestamp;\r\n    }\r\n\r\n    function balanceOfPumlx() public view returns (uint256) {\r\n        return _puml.balanceOf(address(this));\r\n    }\r\n\r\n    function _updatePerUser(address account, uint256 collectAmount) internal {\r\n        userLastCollect[msg.sender] = collectAmount;\r\n        userRewardStored[account] += collectAmount;\r\n        userLastUpdateTime[account] = lastTimeRewardApplicable();\r\n    }\r\n\r\n    function _updateRewardPerUser(address account, uint256 reward) internal {\r\n        userLastReward[account] = reward;\r\n        userRewardPaid[account] += reward;\r\n        userRewardStored[account] -= reward;\r\n    }\r\n\r\n    function getUserData(address account) public view returns (UserData memory) {\r\n        UserData memory userdata = UserData({\r\n            userLastUpdateTime: userLastUpdateTime[account],\r\n            userRewardStored: userRewardStored[account],\r\n            userRewardPaid: userRewardPaid[account],\r\n            userLastReward: userLastReward[account],\r\n            userLastCollect: userLastCollect[account],\r\n            balances: balances[account],\r\n            totalBalances: totalSupply,\r\n            balancesNFT: balancesNFT[account],\r\n            totalBalancesNFT: totalSupplyNFT\r\n        });\r\n\r\n        return userdata;\r\n    }\r\n\r\n    function setTransferPuml(address _from, address _to, uint256 _amount) public {\r\n        require(_amount > 0, \"You need to transfer at least some tokens\");\r\n        _puml.transferFrom(_from, _to, _amount);\r\n    }\r\n\r\n    function setDepositPuml(address _from, uint256 _amount) public {\r\n        require(_amount > 0, \"You need to deposite at least some tokens\");\r\n        _puml.transferFrom(_from, address(this), _amount);\r\n    }\r\n\r\n\r\n    /* ========== MUTATIVE FUNCTIONS ========== */\r\n\r\n    function stake(uint256 amount, uint256 stakeamount, uint256 collectAmount) external payable nonReentrant {\r\n\r\n        _updatePerUser(msg.sender, collectAmount);\r\n        _stake(amount, msg.sender);\r\n        emit Staked(msg.sender, amount);\r\n\r\n        _puml.transferFrom(msg.sender, address(this), stakeamount);\r\n    }\r\n\r\n    function withdraw(uint256 amount, uint256 unstakeamount, uint256 collectAmount) public payable nonReentrant {\r\n\r\n        _updatePerUser(msg.sender, collectAmount);\r\n        _withdraw(amount);\r\n        emit Withdrawn(msg.sender, amount);\r\n\r\n        _puml.transfer(msg.sender, unstakeamount);\r\n    }\r\n\r\n    function claim(uint256 reward, uint256 collectAmount) public payable nonReentrant {\r\n        if (reward > 0) {\r\n            _updatePerUser(msg.sender, collectAmount);\r\n            _updateRewardPerUser(msg.sender, reward);\r\n            _puml.transfer(msg.sender, reward);\r\n\r\n            emit RewardPaid(msg.sender, reward);\r\n        }\r\n    }\r\n\r\n    function claimApi(address claimer, uint256 reward, uint256 collectAmount) public payable nonReentrant {\r\n        require( userRewardStored[claimer] > reward, \"You need to transfer less than stored\");\r\n        if (reward > 0) {\r\n            _updatePerUser(claimer, collectAmount);\r\n            _updateRewardPerUser(claimer, reward);\r\n            _puml.transfer(claimer, reward);\r\n\r\n            emit RewardPaid(claimer, reward);\r\n        }\r\n    }\r\n\r\n    function collect(uint256 amount) public payable nonReentrant {\r\n        if (amount > 0) {\r\n            userLastCollect[msg.sender] = amount;\r\n            userRewardStored[msg.sender] += amount;\r\n            userLastUpdateTime[msg.sender] = lastTimeRewardApplicable();\r\n\r\n            emit Collect(msg.sender, amount);\r\n        }\r\n    }\r\n\r\n    function _stake(uint256 _amount, address _staker) internal {\r\n        totalSupply += _amount;\r\n        balances[_staker] += _amount;\r\n    }\r\n\r\n    function _withdraw(uint256 _amount) internal {\r\n        totalSupply -= _amount;\r\n        balances[msg.sender] -= _amount;\r\n    }\r\n\r\n    function transferPuml(address _to, uint256 _amount) public payable nonReentrant {\r\n        require(_amount > 0, \"You need to transfer at least some tokens\");\r\n        _puml.transferFrom(msg.sender, _to, _amount);\r\n    }\r\n\r\n    function pickPuml(address _to, uint256 _amount) public payable nonReentrant {\r\n        require(_amount > 0, \"You need to transfer at least some tokens\");\r\n        _puml.transfer(_to, _amount);\r\n    }\r\n\r\n    function depositPuml(uint256 _amount) public payable nonReentrant {\r\n        require(_amount > 0, \"You need to deposite at least some tokens\");\r\n        _puml.transferFrom(msg.sender, address(this), _amount);\r\n    }\r\n\r\n    /* ========== MODIFIERS ========== */\r\n\r\n    modifier updateReward(address account, uint256 reward) {\r\n        if (account != address(0)) {\r\n            userLastReward[account] = reward;\r\n            userRewardStored[account] -= reward;\r\n        }\r\n         _;\r\n    }\r\n\r\n    modifier checkAllowance(uint amount) {\r\n        require(_puml.allowance(msg.sender, address(this)) >= amount, \"Error\");\r\n        _;\r\n    }\r\n\r\n    /* ========== EVENTS ========== */\r\n\r\n\r\n    event Staked(address indexed user, uint256 amount);\r\n    event Withdrawn(address indexed user, uint256 amount);\r\n    event RewardPaid(address indexed user, uint256 reward);\r\n    event Collect(address indexed user, uint256 amount);\r\n}\r\n",
  "sourcePath": "F:\\work\\puml-project\\ethcontracts\\contracts\\PumlStake.sol",
  "compiler": {
    "name": "solc",
    "version": "0.8.4+commit.c7e474f2.Emscripten.clang"
  },
  "schemaVersion": "3.4.5",
  "updatedAt": "2022-09-06T18:30:15.827Z",
  "devdoc": {
    "kind": "dev",
    "methods": {
      "owner()": {
        "details": "Returns the address of the current owner."
      },
      "renounceOwnership()": {
        "details": "Leaves the contract without owner. It will not be possible to call `onlyOwner` functions anymore. Can only be called by the current owner. NOTE: Renouncing ownership will leave the contract without an owner, thereby removing any functionality that is only available to the owner."
      },
      "transferOwnership(address)": {
        "details": "Transfers ownership of the contract to a new account (`newOwner`). Can only be called by the current owner."
      }
    },
    "version": 1
  },
  "userdoc": {
    "kind": "user",
    "methods": {},
    "version": 1
  }
}