{
  "contractName": "PumlStake",
  "abi": [
    {
      "inputs": [
        {
          "internalType": "address",
          "name": "_pumlxPoolAddress",
          "type": "address"
        },
        {
          "internalType": "address",
          "name": "_nftPoolAddress",
          "type": "address"
        }
      ],
      "stateMutability": "nonpayable",
      "type": "constructor"
    },
    {
      "anonymous": false,
      "inputs": [
        {
          "indexed": true,
          "internalType": "address",
          "name": "previousOwner",
          "type": "address"
        },
        {
          "indexed": true,
          "internalType": "address",
          "name": "newOwner",
          "type": "address"
        }
      ],
      "name": "OwnershipTransferred",
      "type": "event"
    },
    {
      "anonymous": false,
      "inputs": [
        {
          "indexed": true,
          "internalType": "address",
          "name": "user",
          "type": "address"
        },
        {
          "indexed": false,
          "internalType": "uint256",
          "name": "reward",
          "type": "uint256"
        }
      ],
      "name": "RewardPaid",
      "type": "event"
    },
    {
      "anonymous": false,
      "inputs": [
        {
          "indexed": true,
          "internalType": "address",
          "name": "user",
          "type": "address"
        },
        {
          "indexed": false,
          "internalType": "uint256",
          "name": "amount",
          "type": "uint256"
        }
      ],
      "name": "Staked",
      "type": "event"
    },
    {
      "anonymous": false,
      "inputs": [
        {
          "indexed": true,
          "internalType": "address",
          "name": "user",
          "type": "address"
        },
        {
          "indexed": false,
          "internalType": "uint256",
          "name": "amount",
          "type": "uint256"
        }
      ],
      "name": "Withdrawn",
      "type": "event"
    },
    {
      "inputs": [],
      "name": "_nftPool",
      "outputs": [
        {
          "internalType": "contract PUMLx",
          "name": "",
          "type": "address"
        }
      ],
      "stateMutability": "view",
      "type": "function"
    },
    {
      "inputs": [],
      "name": "_pumlxPool",
      "outputs": [
        {
          "internalType": "contract PUMLx",
          "name": "",
          "type": "address"
        }
      ],
      "stateMutability": "view",
      "type": "function"
    },
    {
      "inputs": [
        {
          "internalType": "address",
          "name": "",
          "type": "address"
        }
      ],
      "name": "balances",
      "outputs": [
        {
          "internalType": "uint256",
          "name": "",
          "type": "uint256"
        }
      ],
      "stateMutability": "view",
      "type": "function"
    },
    {
      "inputs": [
        {
          "internalType": "address",
          "name": "",
          "type": "address"
        }
      ],
      "name": "balancesNFT",
      "outputs": [
        {
          "internalType": "uint256",
          "name": "",
          "type": "uint256"
        }
      ],
      "stateMutability": "view",
      "type": "function"
    },
    {
      "inputs": [],
      "name": "owner",
      "outputs": [
        {
          "internalType": "address",
          "name": "",
          "type": "address"
        }
      ],
      "stateMutability": "view",
      "type": "function"
    },
    {
      "inputs": [],
      "name": "renounceOwnership",
      "outputs": [],
      "stateMutability": "nonpayable",
      "type": "function"
    },
    {
      "inputs": [
        {
          "internalType": "address",
          "name": "",
          "type": "address"
        },
        {
          "internalType": "uint256",
          "name": "",
          "type": "uint256"
        }
      ],
      "name": "stakedAssets",
      "outputs": [
        {
          "internalType": "address",
          "name": "",
          "type": "address"
        }
      ],
      "stateMutability": "view",
      "type": "function"
    },
    {
      "inputs": [],
      "name": "totalSupply",
      "outputs": [
        {
          "internalType": "uint256",
          "name": "",
          "type": "uint256"
        }
      ],
      "stateMutability": "view",
      "type": "function"
    },
    {
      "inputs": [],
      "name": "totalSupplyNFT",
      "outputs": [
        {
          "internalType": "uint256",
          "name": "",
          "type": "uint256"
        }
      ],
      "stateMutability": "view",
      "type": "function"
    },
    {
      "inputs": [
        {
          "internalType": "address",
          "name": "newOwner",
          "type": "address"
        }
      ],
      "name": "transferOwnership",
      "outputs": [],
      "stateMutability": "nonpayable",
      "type": "function"
    },
    {
      "inputs": [
        {
          "internalType": "address",
          "name": "",
          "type": "address"
        }
      ],
      "name": "userCollect",
      "outputs": [
        {
          "internalType": "uint256",
          "name": "",
          "type": "uint256"
        }
      ],
      "stateMutability": "view",
      "type": "function"
    },
    {
      "inputs": [
        {
          "internalType": "address",
          "name": "",
          "type": "address"
        }
      ],
      "name": "userLastCollect",
      "outputs": [
        {
          "internalType": "uint256",
          "name": "",
          "type": "uint256"
        }
      ],
      "stateMutability": "view",
      "type": "function"
    },
    {
      "inputs": [
        {
          "internalType": "address",
          "name": "",
          "type": "address"
        }
      ],
      "name": "userLastReward",
      "outputs": [
        {
          "internalType": "uint256",
          "name": "",
          "type": "uint256"
        }
      ],
      "stateMutability": "view",
      "type": "function"
    },
    {
      "inputs": [
        {
          "internalType": "address",
          "name": "",
          "type": "address"
        }
      ],
      "name": "userLastUpdateTime",
      "outputs": [
        {
          "internalType": "uint256",
          "name": "",
          "type": "uint256"
        }
      ],
      "stateMutability": "view",
      "type": "function"
    },
    {
      "inputs": [
        {
          "internalType": "address",
          "name": "",
          "type": "address"
        }
      ],
      "name": "userLastUpdateTimeNFT",
      "outputs": [
        {
          "internalType": "uint256",
          "name": "",
          "type": "uint256"
        }
      ],
      "stateMutability": "view",
      "type": "function"
    },
    {
      "inputs": [
        {
          "internalType": "address",
          "name": "",
          "type": "address"
        }
      ],
      "name": "userReward",
      "outputs": [
        {
          "internalType": "uint256",
          "name": "",
          "type": "uint256"
        }
      ],
      "stateMutability": "view",
      "type": "function"
    },
    {
      "inputs": [
        {
          "internalType": "address",
          "name": "_contractAddress",
          "type": "address"
        },
        {
          "internalType": "uint256",
          "name": "_tokenId",
          "type": "uint256"
        }
      ],
      "name": "getStakedAssets",
      "outputs": [
        {
          "internalType": "address",
          "name": "",
          "type": "address"
        }
      ],
      "stateMutability": "view",
      "type": "function"
    },
    {
      "inputs": [
        {
          "internalType": "address",
          "name": "_contractAddress",
          "type": "address"
        },
        {
          "internalType": "uint256",
          "name": "_tokenId",
          "type": "uint256"
        },
        {
          "internalType": "address",
          "name": "_staker",
          "type": "address"
        }
      ],
      "name": "setStakedAssets",
      "outputs": [],
      "stateMutability": "nonpayable",
      "type": "function"
    },
    {
      "inputs": [
        {
          "internalType": "address",
          "name": "_address",
          "type": "address"
        },
        {
          "internalType": "uint256",
          "name": "_amount",
          "type": "uint256"
        },
        {
          "internalType": "bool",
          "name": "param",
          "type": "bool"
        }
      ],
      "name": "setBalancesNFT",
      "outputs": [],
      "stateMutability": "nonpayable",
      "type": "function"
    },
    {
      "inputs": [],
      "name": "lastTimeRewardApplicable",
      "outputs": [
        {
          "internalType": "uint256",
          "name": "",
          "type": "uint256"
        }
      ],
      "stateMutability": "view",
      "type": "function"
    },
    {
      "inputs": [
        {
          "internalType": "address",
          "name": "account",
          "type": "address"
        }
      ],
      "name": "getUserData",
      "outputs": [
        {
          "components": [
            {
              "internalType": "uint256",
              "name": "userLastUpdateTime",
              "type": "uint256"
            },
            {
              "internalType": "uint256",
              "name": "userLastUpdateTimeNFT",
              "type": "uint256"
            },
            {
              "internalType": "uint256",
              "name": "balances",
              "type": "uint256"
            },
            {
              "internalType": "uint256",
              "name": "totalBalances",
              "type": "uint256"
            },
            {
              "internalType": "uint256",
              "name": "balancesNFT",
              "type": "uint256"
            },
            {
              "internalType": "uint256",
              "name": "totalBalancesNFT",
              "type": "uint256"
            },
            {
              "internalType": "uint256",
              "name": "userReward",
              "type": "uint256"
            },
            {
              "internalType": "uint256",
              "name": "userLastReward",
              "type": "uint256"
            },
            {
              "internalType": "uint256",
              "name": "userCollect",
              "type": "uint256"
            },
            {
              "internalType": "uint256",
              "name": "userLastCollect",
              "type": "uint256"
            }
          ],
          "internalType": "struct PumlStake.UserData",
          "name": "",
          "type": "tuple"
        }
      ],
      "stateMutability": "view",
      "type": "function"
    },
    {
      "inputs": [
        {
          "internalType": "address",
          "name": "_from",
          "type": "address"
        },
        {
          "internalType": "address",
          "name": "_to",
          "type": "address"
        },
        {
          "internalType": "uint256",
          "name": "_amount",
          "type": "uint256"
        }
      ],
      "name": "setTransferPuml",
      "outputs": [],
      "stateMutability": "nonpayable",
      "type": "function"
    },
    {
      "inputs": [
        {
          "internalType": "address",
          "name": "_from",
          "type": "address"
        },
        {
          "internalType": "uint256",
          "name": "_amount",
          "type": "uint256"
        }
      ],
      "name": "setDepositPuml",
      "outputs": [],
      "stateMutability": "nonpayable",
      "type": "function"
    },
    {
      "inputs": [
        {
          "internalType": "uint256",
          "name": "amount",
          "type": "uint256"
        },
        {
          "internalType": "uint256",
          "name": "stakeamount",
          "type": "uint256"
        }
      ],
      "name": "stake",
      "outputs": [],
      "stateMutability": "payable",
      "type": "function"
    },
    {
      "inputs": [
        {
          "internalType": "uint256",
          "name": "amount",
          "type": "uint256"
        },
        {
          "internalType": "uint256",
          "name": "unstakeamount",
          "type": "uint256"
        },
        {
          "internalType": "uint256",
          "name": "claimAmount",
          "type": "uint256"
        }
      ],
      "name": "withdraw",
      "outputs": [],
      "stateMutability": "payable",
      "type": "function"
    },
    {
      "inputs": [
        {
          "internalType": "uint256",
          "name": "collectAmount",
          "type": "uint256"
        }
      ],
      "name": "collectNftReward",
      "outputs": [],
      "stateMutability": "payable",
      "type": "function"
    },
    {
      "inputs": [
        {
          "internalType": "address",
          "name": "claimer",
          "type": "address"
        },
        {
          "internalType": "uint256",
          "name": "reward",
          "type": "uint256"
        }
      ],
      "name": "claimApi",
      "outputs": [],
      "stateMutability": "payable",
      "type": "function"
    },
    {
      "inputs": [
        {
          "internalType": "address",
          "name": "_to",
          "type": "address"
        },
        {
          "internalType": "uint256",
          "name": "_amount",
          "type": "uint256"
        }
      ],
      "name": "transferPuml",
      "outputs": [],
      "stateMutability": "payable",
      "type": "function"
    },
    {
      "inputs": [
        {
          "internalType": "address",
          "name": "_to",
          "type": "address"
        },
        {
          "internalType": "uint256",
          "name": "_amount",
          "type": "uint256"
        }
      ],
      "name": "pickPuml",
      "outputs": [],
      "stateMutability": "payable",
      "type": "function"
    },
    {
      "inputs": [
        {
          "internalType": "uint256",
          "name": "_amount",
          "type": "uint256"
        }
      ],
      "name": "depositPuml",
      "outputs": [],
      "stateMutability": "payable",
      "type": "function"
    }
  ],
  "bytecode": "0x60806040523480156200001157600080fd5b5060405162002a1e38038062002a1e833981810160405281019062000037919062000220565b620000576200004b6200013d60201b60201c565b6200014560201b60201c565b6001808190555073b2e408bc3e7674de7c589f4f8e5471c81f09f5c6600260006101000a81548173ffffffffffffffffffffffffffffffffffffffff021916908373ffffffffffffffffffffffffffffffffffffffff16021790555081600360006101000a81548173ffffffffffffffffffffffffffffffffffffffff021916908373ffffffffffffffffffffffffffffffffffffffff16021790555080600460006101000a81548173ffffffffffffffffffffffffffffffffffffffff021916908373ffffffffffffffffffffffffffffffffffffffff1602179055505050620002af565b600033905090565b60008060009054906101000a900473ffffffffffffffffffffffffffffffffffffffff169050816000806101000a81548173ffffffffffffffffffffffffffffffffffffffff021916908373ffffffffffffffffffffffffffffffffffffffff1602179055508173ffffffffffffffffffffffffffffffffffffffff168173ffffffffffffffffffffffffffffffffffffffff167f8be0079c531659141344cd1fd0a4f28419497f9722a3daafe3b4186f6b6457e060405160405180910390a35050565b6000815190506200021a8162000295565b92915050565b600080604083850312156200023457600080fd5b6000620002448582860162000209565b9250506020620002578582860162000209565b9150509250929050565b60006200026e8262000275565b9050919050565b600073ffffffffffffffffffffffffffffffffffffffff82169050919050565b620002a08162000261565b8114620002ac57600080fd5b50565b61275f80620002bf6000396000f3fe6080604052600436106101cc5760003560e01c80638da5cb5b116100f7578063ca88612111610095578063f2fde38b11610064578063f2fde38b1461065b578063f47cbe1714610684578063fef9e8a7146106a0578063ffc9896b146106dd576101cc565b8063ca88612114610588578063cf56664d146105c5578063d17f742a146105e1578063d4a881821461061e576101cc565b8063a41fe49f116100d1578063a41fe49f146104fc578063b0ea6a8414610518578063b3ddcb7914610543578063c77013ca1461055f576101cc565b80638da5cb5b1461048c5780639616b5a7146104b75780639d756a8d146104d3576101cc565b80633dfc70871161016f57806378c7a7071161013e57806378c7a707146103dd5780637b0472f01461040857806380faa57d146104245780638107368b1461044f576101cc565b80633dfc7087146103375780635b491f5a146103605780635db8de191461039d578063715018a6146103c6576101cc565b806312b9881c116101ab57806312b9881c1461026757806318160ddd1461029257806327e235e3146102bd5780633ce72e5a146102fa576101cc565b80620a74be146101d15780630190b2c21461020e5780630223705e1461022a575b600080fd5b3480156101dd57600080fd5b506101f860048036038101906101f39190611f1c565b61071a565b6040516102059190612454565b60405180910390f35b61022860048036038101906102239190611f94565b610732565b005b34801561023657600080fd5b50610251600480360381019061024c9190611f1c565b610880565b60405161025e9190612454565b60405180910390f35b34801561027357600080fd5b5061027c610898565b604051610289919061237d565b60405180910390f35b34801561029e57600080fd5b506102a76108be565b6040516102b49190612454565b60405180910390f35b3480156102c957600080fd5b506102e460048036038101906102df9190611f1c565b6108c4565b6040516102f19190612454565b60405180910390f35b34801561030657600080fd5b50610321600480360381019061031c9190611f94565b6108dc565b60405161032e9190612302565b60405180910390f35b34801561034357600080fd5b5061035e60048036038101906103599190611f45565b610957565b005b34801561036c57600080fd5b5061038760048036038101906103829190611f1c565b610a51565b6040516103949190612454565b60405180910390f35b3480156103a957600080fd5b506103c460048036038101906103bf919061201f565b610a69565b005b3480156103d257600080fd5b506103db610beb565b005b3480156103e957600080fd5b506103f2610c73565b6040516103ff919061237d565b60405180910390f35b610422600480360381019061041d91906120c0565b610c99565b005b34801561043057600080fd5b50610439610dfc565b6040516104469190612454565b60405180910390f35b34801561045b57600080fd5b5061047660048036038101906104719190611f1c565b610e04565b6040516104839190612454565b60405180910390f35b34801561049857600080fd5b506104a1610e1c565b6040516104ae9190612302565b60405180910390f35b6104d160048036038101906104cc9190611f94565b610e45565b005b3480156104df57600080fd5b506104fa60048036038101906104f59190611f94565b610f85565b005b610516600480360381019061051191906120fc565b61107e565b005b34801561052457600080fd5b5061052d611356565b60405161053a9190612454565b60405180910390f35b61055d60048036038101906105589190612097565b61135c565b005b34801561056b57600080fd5b5061058660048036038101906105819190611fd0565b6114a9565b005b34801561059457600080fd5b506105af60048036038101906105aa9190611f1c565b61153d565b6040516105bc9190612454565b60405180910390f35b6105df60048036038101906105da9190612097565b611555565b005b3480156105ed57600080fd5b5061060860048036038101906106039190611f1c565b611724565b6040516106159190612454565b60405180910390f35b34801561062a57600080fd5b5061064560048036038101906106409190611f1c565b61173c565b6040516106529190612454565b60405180910390f35b34801561066757600080fd5b50610682600480360381019061067d9190611f1c565b611754565b005b61069e60048036038101906106999190611f94565b61184c565b005b3480156106ac57600080fd5b506106c760048036038101906106c29190611f94565b611998565b6040516106d49190612302565b60405180910390f35b3480156106e957600080fd5b5061070460048036038101906106ff9190611f1c565b6119da565b6040516107119190612438565b60405180910390f35b60076020528060005260406000206000915090505481565b60026001541415610778576040517f08c379a000000000000000000000000000000000000000000000000000000000815260040161076f90612418565b60405180910390fd5b6002600181905550600081116107c3576040517f08c379a00000000000000000000000000000000000000000000000000000000081526004016107ba906123b8565b60405180910390fd5b600260009054906101000a900473ffffffffffffffffffffffffffffffffffffffff1673ffffffffffffffffffffffffffffffffffffffff166323b872dd3384846040518463ffffffff1660e01b81526004016108229392919061231d565b602060405180830381600087803b15801561083c57600080fd5b505af1158015610850573d6000803e3d6000fd5b505050506040513d601f19601f82011682018060405250810190610874919061206e565b50600180819055505050565b600e6020528060005260406000206000915090505481565b600460009054906101000a900473ffffffffffffffffffffffffffffffffffffffff1681565b600b5481565b600d6020528060005260406000206000915090505481565b6000600f60008473ffffffffffffffffffffffffffffffffffffffff1673ffffffffffffffffffffffffffffffffffffffff168152602001908152602001600020600083815260200190815260200160002060009054906101000a900473ffffffffffffffffffffffffffffffffffffffff16905092915050565b6000811161099a576040517f08c379a0000000000000000000000000000000000000000000000000000000008152600401610991906123b8565b60405180910390fd5b600260009054906101000a900473ffffffffffffffffffffffffffffffffffffffff1673ffffffffffffffffffffffffffffffffffffffff166323b872dd8484846040518463ffffffff1660e01b81526004016109f99392919061231d565b602060405180830381600087803b158015610a1357600080fd5b505af1158015610a27573d6000803e3d6000fd5b505050506040513d601f19601f82011682018060405250810190610a4b919061206e565b50505050565b60096020528060005260406000206000915090505481565b8015610b765781600e60008573ffffffffffffffffffffffffffffffffffffffff1673ffffffffffffffffffffffffffffffffffffffff1681526020019081526020016000206000828254610abe9190612480565b9250508190555081600e60008573ffffffffffffffffffffffffffffffffffffffff1673ffffffffffffffffffffffffffffffffffffffff168152602001908152602001600020541415610b5857610b14610dfc565b600660003373ffffffffffffffffffffffffffffffffffffffff1673ffffffffffffffffffffffffffffffffffffffff168152602001908152602001600020819055505b81600c6000828254610b6a9190612480565b92505081905550610be6565b81600e60008573ffffffffffffffffffffffffffffffffffffffff1673ffffffffffffffffffffffffffffffffffffffff1681526020019081526020016000206000828254610bc591906124d6565b9250508190555081600c6000828254610bde91906124d6565b925050819055505b505050565b610bf3611c31565b73ffffffffffffffffffffffffffffffffffffffff16610c11610e1c565b73ffffffffffffffffffffffffffffffffffffffff1614610c67576040517f08c379a0000000000000000000000000000000000000000000000000000000008152600401610c5e906123d8565b60405180910390fd5b610c716000611c39565b565b600360009054906101000a900473ffffffffffffffffffffffffffffffffffffffff1681565b60026001541415610cdf576040517f08c379a0000000000000000000000000000000000000000000000000000000008152600401610cd690612418565b60405180910390fd5b6002600181905550610cf18233611cfd565b3373ffffffffffffffffffffffffffffffffffffffff167f9e71bc8eea02a63969f509818f2dafb9254532904319f9dbda79b67bd34a5f3d83604051610d379190612454565b60405180910390a2600260009054906101000a900473ffffffffffffffffffffffffffffffffffffffff1673ffffffffffffffffffffffffffffffffffffffff166323b872dd3330846040518463ffffffff1660e01b8152600401610d9e9392919061231d565b602060405180830381600087803b158015610db857600080fd5b505af1158015610dcc573d6000803e3d6000fd5b505050506040513d601f19601f82011682018060405250810190610df0919061206e565b50600180819055505050565b600042905090565b60056020528060005260406000206000915090505481565b60008060009054906101000a900473ffffffffffffffffffffffffffffffffffffffff16905090565b60026001541415610e8b576040517f08c379a0000000000000000000000000000000000000000000000000000000008152600401610e8290612418565b60405180910390fd5b60026001819055506000811115610f7a57600360009054906101000a900473ffffffffffffffffffffffffffffffffffffffff1673ffffffffffffffffffffffffffffffffffffffff16630190b2c283836040518363ffffffff1660e01b8152600401610ef9929190612354565b600060405180830381600087803b158015610f1357600080fd5b505af1158015610f27573d6000803e3d6000fd5b505050508173ffffffffffffffffffffffffffffffffffffffff167fe2403640ba68fed3a2f88b7557551d1993f84b99bb10ff833f0cf8db0c5e048682604051610f719190612454565b60405180910390a25b600180819055505050565b60008111610fc8576040517f08c379a0000000000000000000000000000000000000000000000000000000008152600401610fbf906123f8565b60405180910390fd5b600260009054906101000a900473ffffffffffffffffffffffffffffffffffffffff1673ffffffffffffffffffffffffffffffffffffffff166323b872dd8330846040518463ffffffff1660e01b81526004016110279392919061231d565b602060405180830381600087803b15801561104157600080fd5b505af1158015611055573d6000803e3d6000fd5b505050506040513d601f19601f82011682018060405250810190611079919061206e565b505050565b600260015414156110c4576040517f08c379a00000000000000000000000000000000000000000000000000000000081526004016110bb90612418565b60405180910390fd5b60026001819055506110d583611e03565b80600760003373ffffffffffffffffffffffffffffffffffffffff1673ffffffffffffffffffffffffffffffffffffffff16815260200190815260200160002060008282546111249190612480565b9250508190555080600860003373ffffffffffffffffffffffffffffffffffffffff1673ffffffffffffffffffffffffffffffffffffffff168152602001908152602001600020819055503373ffffffffffffffffffffffffffffffffffffffff167f7084f5476618d8e60b11ef0d7d3f06914655adb8793e28ff7f018d4c76d505d5846040516111b59190612454565b60405180910390a23373ffffffffffffffffffffffffffffffffffffffff167fe2403640ba68fed3a2f88b7557551d1993f84b99bb10ff833f0cf8db0c5e0486826040516112039190612454565b60405180910390a2600260009054906101000a900473ffffffffffffffffffffffffffffffffffffffff1673ffffffffffffffffffffffffffffffffffffffff1663a9059cbb33846040518363ffffffff1660e01b8152600401611268929190612354565b602060405180830381600087803b15801561128257600080fd5b505af1158015611296573d6000803e3d6000fd5b505050506040513d601f19601f820116820180604052508101906112ba919061206e565b50600360009054906101000a900473ffffffffffffffffffffffffffffffffffffffff1673ffffffffffffffffffffffffffffffffffffffff16630190b2c233836040518363ffffffff1660e01b8152600401611318929190612354565b600060405180830381600087803b15801561133257600080fd5b505af1158015611346573d6000803e3d6000fd5b5050505060018081905550505050565b600c5481565b600260015414156113a2576040517f08c379a000000000000000000000000000000000000000000000000000000000815260040161139990612418565b60405180910390fd5b6002600181905550600081116113ed576040517f08c379a00000000000000000000000000000000000000000000000000000000081526004016113e4906123f8565b60405180910390fd5b600260009054906101000a900473ffffffffffffffffffffffffffffffffffffffff1673ffffffffffffffffffffffffffffffffffffffff166323b872dd3330846040518463ffffffff1660e01b815260040161144c9392919061231d565b602060405180830381600087803b15801561146657600080fd5b505af115801561147a573d6000803e3d6000fd5b505050506040513d601f19601f8201168201806040525081019061149e919061206e565b506001808190555050565b80600f60008573ffffffffffffffffffffffffffffffffffffffff1673ffffffffffffffffffffffffffffffffffffffff168152602001908152602001600020600084815260200190815260200160002060006101000a81548173ffffffffffffffffffffffffffffffffffffffff021916908373ffffffffffffffffffffffffffffffffffffffff160217905550505050565b60066020528060005260406000206000915090505481565b6002600154141561159b576040517f08c379a000000000000000000000000000000000000000000000000000000000815260040161159290612418565b60405180910390fd5b600260018190555080600960003373ffffffffffffffffffffffffffffffffffffffff1673ffffffffffffffffffffffffffffffffffffffff16815260200190815260200160002060008282546115f29190612480565b9250508190555080600a60003373ffffffffffffffffffffffffffffffffffffffff1673ffffffffffffffffffffffffffffffffffffffff16815260200190815260200160002081905550600460009054906101000a900473ffffffffffffffffffffffffffffffffffffffff1673ffffffffffffffffffffffffffffffffffffffff16630190b2c233836040518363ffffffff1660e01b815260040161169a929190612354565b600060405180830381600087803b1580156116b457600080fd5b505af11580156116c8573d6000803e3d6000fd5b505050503373ffffffffffffffffffffffffffffffffffffffff167fe2403640ba68fed3a2f88b7557551d1993f84b99bb10ff833f0cf8db0c5e0486826040516117129190612454565b60405180910390a26001808190555050565b60086020528060005260406000206000915090505481565b600a6020528060005260406000206000915090505481565b61175c611c31565b73ffffffffffffffffffffffffffffffffffffffff1661177a610e1c565b73ffffffffffffffffffffffffffffffffffffffff16146117d0576040517f08c379a00000000000000000000000000000000000000000000000000000000081526004016117c7906123d8565b60405180910390fd5b600073ffffffffffffffffffffffffffffffffffffffff168173ffffffffffffffffffffffffffffffffffffffff161415611840576040517f08c379a000000000000000000000000000000000000000000000000000000000815260040161183790612398565b60405180910390fd5b61184981611c39565b50565b60026001541415611892576040517f08c379a000000000000000000000000000000000000000000000000000000000815260040161188990612418565b60405180910390fd5b6002600181905550600081116118dd576040517f08c379a00000000000000000000000000000000000000000000000000000000081526004016118d4906123b8565b60405180910390fd5b600260009054906101000a900473ffffffffffffffffffffffffffffffffffffffff1673ffffffffffffffffffffffffffffffffffffffff1663a9059cbb83836040518363ffffffff1660e01b815260040161193a929190612354565b602060405180830381600087803b15801561195457600080fd5b505af1158015611968573d6000803e3d6000fd5b505050506040513d601f19601f8201168201806040525081019061198c919061206e565b50600180819055505050565b600f6020528160005260406000206020528060005260406000206000915091509054906101000a900473ffffffffffffffffffffffffffffffffffffffff1681565b6119e2611e75565b6000604051806101400160405280600560008673ffffffffffffffffffffffffffffffffffffffff1673ffffffffffffffffffffffffffffffffffffffff168152602001908152602001600020548152602001600660008673ffffffffffffffffffffffffffffffffffffffff1673ffffffffffffffffffffffffffffffffffffffff168152602001908152602001600020548152602001600d60008673ffffffffffffffffffffffffffffffffffffffff1673ffffffffffffffffffffffffffffffffffffffff168152602001908152602001600020548152602001600b548152602001600e60008673ffffffffffffffffffffffffffffffffffffffff1673ffffffffffffffffffffffffffffffffffffffff168152602001908152602001600020548152602001600c548152602001600760008673ffffffffffffffffffffffffffffffffffffffff1673ffffffffffffffffffffffffffffffffffffffff168152602001908152602001600020548152602001600860008673ffffffffffffffffffffffffffffffffffffffff1673ffffffffffffffffffffffffffffffffffffffff168152602001908152602001600020548152602001600960008673ffffffffffffffffffffffffffffffffffffffff1673ffffffffffffffffffffffffffffffffffffffff168152602001908152602001600020548152602001600a60008673ffffffffffffffffffffffffffffffffffffffff1673ffffffffffffffffffffffffffffffffffffffff16815260200190815260200160002054815250905080915050919050565b600033905090565b60008060009054906101000a900473ffffffffffffffffffffffffffffffffffffffff169050816000806101000a81548173ffffffffffffffffffffffffffffffffffffffff021916908373ffffffffffffffffffffffffffffffffffffffff1602179055508173ffffffffffffffffffffffffffffffffffffffff168173ffffffffffffffffffffffffffffffffffffffff167f8be0079c531659141344cd1fd0a4f28419497f9722a3daafe3b4186f6b6457e060405160405180910390a35050565b81600b6000828254611d0f9190612480565b9250508190555081600d60008373ffffffffffffffffffffffffffffffffffffffff1673ffffffffffffffffffffffffffffffffffffffff1681526020019081526020016000206000828254611d659190612480565b9250508190555081600d60008373ffffffffffffffffffffffffffffffffffffffff1673ffffffffffffffffffffffffffffffffffffffff168152602001908152602001600020541415611dff57611dbb610dfc565b600560008373ffffffffffffffffffffffffffffffffffffffff1673ffffffffffffffffffffffffffffffffffffffff168152602001908152602001600020819055505b5050565b80600b6000828254611e1591906124d6565b9250508190555080600d60003373ffffffffffffffffffffffffffffffffffffffff1673ffffffffffffffffffffffffffffffffffffffff1681526020019081526020016000206000828254611e6b91906124d6565b9250508190555050565b604051806101400160405280600081526020016000815260200160008152602001600081526020016000815260200160008152602001600081526020016000815260200160008152602001600081525090565b600081359050611ed7816126e4565b92915050565b600081359050611eec816126fb565b92915050565b600081519050611f01816126fb565b92915050565b600081359050611f1681612712565b92915050565b600060208284031215611f2e57600080fd5b6000611f3c84828501611ec8565b91505092915050565b600080600060608486031215611f5a57600080fd5b6000611f6886828701611ec8565b9350506020611f7986828701611ec8565b9250506040611f8a86828701611f07565b9150509250925092565b60008060408385031215611fa757600080fd5b6000611fb585828601611ec8565b9250506020611fc685828601611f07565b9150509250929050565b600080600060608486031215611fe557600080fd5b6000611ff386828701611ec8565b935050602061200486828701611f07565b925050604061201586828701611ec8565b9150509250925092565b60008060006060848603121561203457600080fd5b600061204286828701611ec8565b935050602061205386828701611f07565b925050604061206486828701611edd565b9150509250925092565b60006020828403121561208057600080fd5b600061208e84828501611ef2565b91505092915050565b6000602082840312156120a957600080fd5b60006120b784828501611f07565b91505092915050565b600080604083850312156120d357600080fd5b60006120e185828601611f07565b92505060206120f285828601611f07565b9150509250929050565b60008060006060848603121561211157600080fd5b600061211f86828701611f07565b935050602061213086828701611f07565b925050604061214186828701611f07565b9150509250925092565b6121548161250a565b82525050565b61216381612552565b82525050565b600061217660268361246f565b9150612181826125a5565b604082019050919050565b600061219960298361246f565b91506121a4826125f4565b604082019050919050565b60006121bc60208361246f565b91506121c782612643565b602082019050919050565b60006121df60298361246f565b91506121ea8261266c565b604082019050919050565b6000612202601f8361246f565b915061220d826126bb565b602082019050919050565b6101408201600082015161222f60008501826122e4565b50602082015161224260208501826122e4565b50604082015161225560408501826122e4565b50606082015161226860608501826122e4565b50608082015161227b60808501826122e4565b5060a082015161228e60a08501826122e4565b5060c08201516122a160c08501826122e4565b5060e08201516122b460e08501826122e4565b506101008201516122c96101008501826122e4565b506101208201516122de6101208501826122e4565b50505050565b6122ed81612548565b82525050565b6122fc81612548565b82525050565b6000602082019050612317600083018461214b565b92915050565b6000606082019050612332600083018661214b565b61233f602083018561214b565b61234c60408301846122f3565b949350505050565b6000604082019050612369600083018561214b565b61237660208301846122f3565b9392505050565b6000602082019050612392600083018461215a565b92915050565b600060208201905081810360008301526123b181612169565b9050919050565b600060208201905081810360008301526123d18161218c565b9050919050565b600060208201905081810360008301526123f1816121af565b9050919050565b60006020820190508181036000830152612411816121d2565b9050919050565b60006020820190508181036000830152612431816121f5565b9050919050565b60006101408201905061244e6000830184612218565b92915050565b600060208201905061246960008301846122f3565b92915050565b600082825260208201905092915050565b600061248b82612548565b915061249683612548565b9250827fffffffffffffffffffffffffffffffffffffffffffffffffffffffffffffffff038211156124cb576124ca612576565b5b828201905092915050565b60006124e182612548565b91506124ec83612548565b9250828210156124ff576124fe612576565b5b828203905092915050565b600061251582612528565b9050919050565b60008115159050919050565b600073ffffffffffffffffffffffffffffffffffffffff82169050919050565b6000819050919050565b600061255d82612564565b9050919050565b600061256f82612528565b9050919050565b7f4e487b7100000000000000000000000000000000000000000000000000000000600052601160045260246000fd5b7f4f776e61626c653a206e6577206f776e657220697320746865207a65726f206160008201527f6464726573730000000000000000000000000000000000000000000000000000602082015250565b7f596f75206e65656420746f207472616e73666572206174206c6561737420736f60008201527f6d6520746f6b656e730000000000000000000000000000000000000000000000602082015250565b7f4f776e61626c653a2063616c6c6572206973206e6f7420746865206f776e6572600082015250565b7f596f75206e65656420746f206465706f73697465206174206c6561737420736f60008201527f6d6520746f6b656e730000000000000000000000000000000000000000000000602082015250565b7f5265656e7472616e637947756172643a207265656e7472616e742063616c6c00600082015250565b6126ed8161250a565b81146126f857600080fd5b50565b6127048161251c565b811461270f57600080fd5b50565b61271b81612548565b811461272657600080fd5b5056fea26469706673582212203f02b2f0b5a1fc153cf2bf282d56c2147b66ca0504af294ef995eb0349cbc81864736f6c63430008040033",
  "immutableReferences": {},
  "source": "// SPDX-License-Identifier: UNLICENSED\r\npragma solidity 0.8.4;\r\n\r\nimport \"@openzeppelin/contracts/token/ERC721/ERC721.sol\";\r\nimport \"@openzeppelin/contracts/token/ERC20/IERC20.sol\";\r\nimport \"@openzeppelin/contracts/access/Ownable.sol\";\r\nimport \"@openzeppelin/contracts/utils/math/SafeMath.sol\";\r\nimport \"@openzeppelin/contracts/security/ReentrancyGuard.sol\";\r\nimport \"./Pumlx.sol\";\r\n\r\n\r\ncontract PumlStake is Ownable, ReentrancyGuard {\r\n\r\n    IERC20 _puml;\r\n    PUMLx public _pumlxPool;\r\n    PUMLx public _nftPool;\r\n\r\n    constructor(address _pumlxPoolAddress, address _nftPoolAddress) {\r\n        _puml = IERC20(0xB2e408bc3E7674De7c589F4f8E5471C81F09F5c6);\r\n        _pumlxPool = PUMLx(_pumlxPoolAddress);\r\n        _nftPool = PUMLx(_nftPoolAddress);\r\n    }\r\n\r\n    using SafeMath for uint256;\r\n\r\n    /* ========== STATE VARIABLES ========== */\r\n\r\n    mapping(address => uint256) public userLastUpdateTime;\r\n    mapping(address => uint256) public userLastUpdateTimeNFT;\r\n    mapping(address => uint256) public userReward;\r\n    mapping(address => uint256) public userLastReward;\r\n    mapping(address => uint256) public userCollect;\r\n    mapping(address => uint256) public userLastCollect;\r\n\r\n    uint256 public totalSupply;\r\n    uint256 public totalSupplyNFT;\r\n    mapping(address => uint256) public balances;\r\n    mapping(address => uint256) public balancesNFT;\r\n    /*mapping(uint256 => address) public stakedAssets;*/\r\n    mapping(address => mapping(uint256 => address)) public stakedAssets;\r\n\r\n    struct UserData {\r\n        uint256 userLastUpdateTime;\r\n        uint256 userLastUpdateTimeNFT;\r\n        uint256 balances;\r\n        uint256 totalBalances;\r\n        uint256 balancesNFT;\r\n        uint256 totalBalancesNFT;\r\n        uint256 userReward;\r\n        uint256 userLastReward;\r\n        uint256 userCollect;\r\n        uint256 userLastCollect;\r\n    }\r\n\r\n    /* ========== VIEWS ========== */\r\n\r\n    function getStakedAssets(address _contractAddress, uint256 _tokenId) public view returns (address) {\r\n        return stakedAssets[_contractAddress][_tokenId];\r\n    }\r\n\r\n    function setStakedAssets(address _contractAddress, uint256 _tokenId, address _staker) public {\r\n        stakedAssets[_contractAddress][_tokenId] = _staker;\r\n    }\r\n\r\n    function setBalancesNFT(address _address, uint256 _amount, bool param) public {\r\n        if (param) {\r\n            balancesNFT[_address] += _amount;\r\n            if (balancesNFT[_address] == _amount) {\r\n               userLastUpdateTimeNFT[msg.sender] = lastTimeRewardApplicable(); \r\n            }\r\n            totalSupplyNFT += _amount;\r\n        } else {\r\n            balancesNFT[_address] -= _amount;\r\n            totalSupplyNFT -= _amount;\r\n        }\r\n    }\r\n\r\n    function lastTimeRewardApplicable() public view returns (uint256) {\r\n        return block.timestamp;\r\n    }\r\n\r\n    function getUserData(address account) public view returns (UserData memory) {\r\n        UserData memory userdata = UserData({\r\n            userLastUpdateTime: userLastUpdateTime[account],\r\n            userLastUpdateTimeNFT: userLastUpdateTimeNFT[account],\r\n            balances: balances[account],\r\n            totalBalances: totalSupply,\r\n            balancesNFT: balancesNFT[account],\r\n            totalBalancesNFT: totalSupplyNFT,\r\n            userReward: userReward[account],\r\n            userLastReward: userLastReward[account],\r\n            userCollect: userCollect[account],\r\n            userLastCollect: userLastCollect[account]\r\n        });\r\n\r\n        return userdata;\r\n    }\r\n\r\n    function setTransferPuml(address _from, address _to, uint256 _amount) public {\r\n        require(_amount > 0, \"You need to transfer at least some tokens\");\r\n        _puml.transferFrom(_from, _to, _amount);\r\n    }\r\n\r\n    function setDepositPuml(address _from, uint256 _amount) public {\r\n        require(_amount > 0, \"You need to deposite at least some tokens\");\r\n        _puml.transferFrom(_from, address(this), _amount);\r\n    }\r\n\r\n\r\n    /* ========== MUTATIVE FUNCTIONS ========== */\r\n\r\n    function stake(uint256 amount, uint256 stakeamount) external payable nonReentrant {\r\n        _stake(amount, msg.sender);\r\n        emit Staked(msg.sender, amount);\r\n\r\n        _puml.transferFrom(msg.sender, address(this), stakeamount);\r\n    }\r\n\r\n    function withdraw(uint256 amount, uint256 unstakeamount, uint256 claimAmount) public payable nonReentrant {\r\n\r\n        _withdraw(amount);\r\n        userReward[msg.sender] += claimAmount;\r\n        userLastReward[msg.sender] = claimAmount;\r\n\r\n        emit Withdrawn(msg.sender, amount);\r\n        emit RewardPaid(msg.sender, claimAmount);\r\n\r\n        _puml.transfer(msg.sender, unstakeamount);\r\n        _pumlxPool.transferPuml(msg.sender, claimAmount);\r\n    }\r\n\r\n    function collectNftReward(uint256 collectAmount) public payable nonReentrant {\r\n        userCollect[msg.sender] += collectAmount;\r\n        userLastCollect[msg.sender] = collectAmount;\r\n\r\n        _nftPool.transferPuml(msg.sender, collectAmount);\r\n        emit RewardPaid(msg.sender, collectAmount);\r\n    }\r\n\r\n    function claimApi(address claimer, uint256 reward) public payable nonReentrant {\r\n        if (reward > 0) { \r\n            _pumlxPool.transferPuml(claimer, reward);\r\n            emit RewardPaid(claimer, reward);\r\n        }\r\n    }\r\n\r\n    function _stake(uint256 _amount, address _staker) internal {\r\n        totalSupply += _amount;\r\n        balances[_staker] += _amount;\r\n        if (balances[_staker] == _amount) {\r\n            userLastUpdateTime[_staker] = lastTimeRewardApplicable();\r\n        }\r\n    }\r\n\r\n    function _withdraw(uint256 _amount) internal {\r\n        totalSupply -= _amount;\r\n        balances[msg.sender] -= _amount;\r\n    }\r\n\r\n    function transferPuml(address _to, uint256 _amount) public payable nonReentrant {\r\n        require(_amount > 0, \"You need to transfer at least some tokens\");\r\n        _puml.transferFrom(msg.sender, _to, _amount);\r\n    }\r\n\r\n    function pickPuml(address _to, uint256 _amount) public payable nonReentrant {\r\n        require(_amount > 0, \"You need to transfer at least some tokens\");\r\n        _puml.transfer(_to, _amount);\r\n    }\r\n\r\n    function depositPuml(uint256 _amount) public payable nonReentrant {\r\n        require(_amount > 0, \"You need to deposite at least some tokens\");\r\n        _puml.transferFrom(msg.sender, address(this), _amount);\r\n    }\r\n\r\n    \r\n    /* ========== EVENTS ========== */\r\n\r\n\r\n    event Staked(address indexed user, uint256 amount);\r\n    event Withdrawn(address indexed user, uint256 amount);\r\n    event RewardPaid(address indexed user, uint256 reward);\r\n}\r\n",
  "sourcePath": "F:\\work\\puml-project\\ethcontracts\\contracts\\PumlStake.sol",
  "compiler": {
    "name": "solc",
    "version": "0.8.4+commit.c7e474f2.Emscripten.clang"
  },
  "schemaVersion": "3.4.5",
  "updatedAt": "2022-09-22T21:05:47.940Z",
  "devdoc": {
    "kind": "dev",
    "methods": {
      "owner()": {
        "details": "Returns the address of the current owner."
      },
      "renounceOwnership()": {
        "details": "Leaves the contract without owner. It will not be possible to call `onlyOwner` functions anymore. Can only be called by the current owner. NOTE: Renouncing ownership will leave the contract without an owner, thereby removing any functionality that is only available to the owner."
      },
      "transferOwnership(address)": {
        "details": "Transfers ownership of the contract to a new account (`newOwner`). Can only be called by the current owner."
      }
    },
    "version": 1
  },
  "userdoc": {
    "kind": "user",
    "methods": {},
    "version": 1
  }
}