{
  "contractName": "PumlStake",
  "abi": [
    {
      "anonymous": false,
      "inputs": [
        {
          "indexed": true,
          "internalType": "address",
          "name": "previousOwner",
          "type": "address"
        },
        {
          "indexed": true,
          "internalType": "address",
          "name": "newOwner",
          "type": "address"
        }
      ],
      "name": "OwnershipTransferred",
      "type": "event"
    },
    {
      "anonymous": false,
      "inputs": [
        {
          "indexed": true,
          "internalType": "address",
          "name": "user",
          "type": "address"
        },
        {
          "indexed": false,
          "internalType": "uint256",
          "name": "reward",
          "type": "uint256"
        }
      ],
      "name": "RewardPaid",
      "type": "event"
    },
    {
      "anonymous": false,
      "inputs": [
        {
          "indexed": true,
          "internalType": "address",
          "name": "user",
          "type": "address"
        },
        {
          "indexed": false,
          "internalType": "uint256",
          "name": "amount",
          "type": "uint256"
        }
      ],
      "name": "Staked",
      "type": "event"
    },
    {
      "anonymous": false,
      "inputs": [
        {
          "indexed": true,
          "internalType": "address",
          "name": "user",
          "type": "address"
        },
        {
          "indexed": false,
          "internalType": "uint256",
          "name": "amount",
          "type": "uint256"
        }
      ],
      "name": "Withdrawn",
      "type": "event"
    },
    {
      "inputs": [
        {
          "internalType": "address",
          "name": "",
          "type": "address"
        }
      ],
      "name": "balances",
      "outputs": [
        {
          "internalType": "uint256",
          "name": "",
          "type": "uint256"
        }
      ],
      "stateMutability": "view",
      "type": "function"
    },
    {
      "inputs": [
        {
          "internalType": "address",
          "name": "",
          "type": "address"
        }
      ],
      "name": "balancesNFT",
      "outputs": [
        {
          "internalType": "uint256",
          "name": "",
          "type": "uint256"
        }
      ],
      "stateMutability": "view",
      "type": "function"
    },
    {
      "inputs": [],
      "name": "lastUpdateTime",
      "outputs": [
        {
          "internalType": "uint256",
          "name": "",
          "type": "uint256"
        }
      ],
      "stateMutability": "view",
      "type": "function"
    },
    {
      "inputs": [],
      "name": "owner",
      "outputs": [
        {
          "internalType": "address",
          "name": "",
          "type": "address"
        }
      ],
      "stateMutability": "view",
      "type": "function"
    },
    {
      "inputs": [],
      "name": "renounceOwnership",
      "outputs": [],
      "stateMutability": "nonpayable",
      "type": "function"
    },
    {
      "inputs": [],
      "name": "rewardRate",
      "outputs": [
        {
          "internalType": "uint256",
          "name": "",
          "type": "uint256"
        }
      ],
      "stateMutability": "view",
      "type": "function"
    },
    {
      "inputs": [
        {
          "internalType": "uint256",
          "name": "",
          "type": "uint256"
        }
      ],
      "name": "stakeData",
      "outputs": [
        {
          "internalType": "uint256",
          "name": "",
          "type": "uint256"
        }
      ],
      "stateMutability": "view",
      "type": "function"
    },
    {
      "inputs": [
        {
          "internalType": "uint256",
          "name": "",
          "type": "uint256"
        }
      ],
      "name": "stakedAssets",
      "outputs": [
        {
          "internalType": "address",
          "name": "",
          "type": "address"
        }
      ],
      "stateMutability": "view",
      "type": "function"
    },
    {
      "inputs": [],
      "name": "totalSupply",
      "outputs": [
        {
          "internalType": "uint256",
          "name": "",
          "type": "uint256"
        }
      ],
      "stateMutability": "view",
      "type": "function"
    },
    {
      "inputs": [],
      "name": "totalSupplyNFT",
      "outputs": [
        {
          "internalType": "uint256",
          "name": "",
          "type": "uint256"
        }
      ],
      "stateMutability": "view",
      "type": "function"
    },
    {
      "inputs": [
        {
          "internalType": "address",
          "name": "newOwner",
          "type": "address"
        }
      ],
      "name": "transferOwnership",
      "outputs": [],
      "stateMutability": "nonpayable",
      "type": "function"
    },
    {
      "inputs": [
        {
          "internalType": "address",
          "name": "",
          "type": "address"
        }
      ],
      "name": "userLastReward",
      "outputs": [
        {
          "internalType": "uint256",
          "name": "",
          "type": "uint256"
        }
      ],
      "stateMutability": "view",
      "type": "function"
    },
    {
      "inputs": [
        {
          "internalType": "address",
          "name": "",
          "type": "address"
        }
      ],
      "name": "userLastUpdateTime",
      "outputs": [
        {
          "internalType": "uint256",
          "name": "",
          "type": "uint256"
        }
      ],
      "stateMutability": "view",
      "type": "function"
    },
    {
      "inputs": [
        {
          "internalType": "address",
          "name": "",
          "type": "address"
        }
      ],
      "name": "userLastUpdateTimeNFT",
      "outputs": [
        {
          "internalType": "uint256",
          "name": "",
          "type": "uint256"
        }
      ],
      "stateMutability": "view",
      "type": "function"
    },
    {
      "inputs": [
        {
          "internalType": "address",
          "name": "",
          "type": "address"
        }
      ],
      "name": "userRewardPaid",
      "outputs": [
        {
          "internalType": "uint256",
          "name": "",
          "type": "uint256"
        }
      ],
      "stateMutability": "view",
      "type": "function"
    },
    {
      "inputs": [
        {
          "internalType": "address",
          "name": "",
          "type": "address"
        }
      ],
      "name": "userRewardStored",
      "outputs": [
        {
          "internalType": "uint256",
          "name": "",
          "type": "uint256"
        }
      ],
      "stateMutability": "view",
      "type": "function"
    },
    {
      "inputs": [
        {
          "internalType": "uint256",
          "name": "_tokenId",
          "type": "uint256"
        }
      ],
      "name": "getStakedAssets",
      "outputs": [
        {
          "internalType": "address",
          "name": "",
          "type": "address"
        }
      ],
      "stateMutability": "view",
      "type": "function"
    },
    {
      "inputs": [
        {
          "internalType": "uint256",
          "name": "_tokenId",
          "type": "uint256"
        },
        {
          "internalType": "address",
          "name": "_address",
          "type": "address"
        }
      ],
      "name": "setStakedAssets",
      "outputs": [],
      "stateMutability": "nonpayable",
      "type": "function"
    },
    {
      "inputs": [
        {
          "internalType": "uint256",
          "name": "_amount",
          "type": "uint256"
        },
        {
          "internalType": "bool",
          "name": "param",
          "type": "bool"
        }
      ],
      "name": "setTotalSupplyNFT",
      "outputs": [],
      "stateMutability": "nonpayable",
      "type": "function"
    },
    {
      "inputs": [
        {
          "internalType": "address",
          "name": "_address",
          "type": "address"
        },
        {
          "internalType": "uint256",
          "name": "_amount",
          "type": "uint256"
        },
        {
          "internalType": "bool",
          "name": "param",
          "type": "bool"
        }
      ],
      "name": "setBalancesNFT",
      "outputs": [],
      "stateMutability": "nonpayable",
      "type": "function"
    },
    {
      "inputs": [
        {
          "internalType": "address",
          "name": "_address",
          "type": "address"
        },
        {
          "internalType": "uint256",
          "name": "_amount",
          "type": "uint256"
        }
      ],
      "name": "setUserRewardStored",
      "outputs": [],
      "stateMutability": "nonpayable",
      "type": "function"
    },
    {
      "inputs": [
        {
          "internalType": "address",
          "name": "_address",
          "type": "address"
        },
        {
          "internalType": "uint256",
          "name": "_amount",
          "type": "uint256"
        }
      ],
      "name": "setUserLastUpdateTimeNFT",
      "outputs": [],
      "stateMutability": "nonpayable",
      "type": "function"
    },
    {
      "inputs": [],
      "name": "lastTimeRewardApplicable",
      "outputs": [
        {
          "internalType": "uint256",
          "name": "",
          "type": "uint256"
        }
      ],
      "stateMutability": "view",
      "type": "function"
    },
    {
      "inputs": [
        {
          "internalType": "address",
          "name": "account",
          "type": "address"
        },
        {
          "internalType": "uint256",
          "name": "feeward",
          "type": "uint256"
        }
      ],
      "name": "rewardPerUser",
      "outputs": [
        {
          "internalType": "uint256",
          "name": "",
          "type": "uint256"
        }
      ],
      "stateMutability": "view",
      "type": "function"
    },
    {
      "inputs": [
        {
          "internalType": "address",
          "name": "account",
          "type": "address"
        }
      ],
      "name": "getRewardData",
      "outputs": [
        {
          "internalType": "uint256[]",
          "name": "",
          "type": "uint256[]"
        }
      ],
      "stateMutability": "nonpayable",
      "type": "function"
    },
    {
      "inputs": [
        {
          "internalType": "address",
          "name": "account",
          "type": "address"
        }
      ],
      "name": "rewardPerUserNFT",
      "outputs": [
        {
          "internalType": "uint256",
          "name": "",
          "type": "uint256"
        }
      ],
      "stateMutability": "view",
      "type": "function"
    },
    {
      "inputs": [
        {
          "internalType": "uint256",
          "name": "amount",
          "type": "uint256"
        },
        {
          "internalType": "uint256",
          "name": "feeward",
          "type": "uint256"
        },
        {
          "internalType": "address",
          "name": "staker",
          "type": "address"
        }
      ],
      "name": "stake",
      "outputs": [],
      "stateMutability": "payable",
      "type": "function"
    },
    {
      "inputs": [
        {
          "internalType": "uint256",
          "name": "amount",
          "type": "uint256"
        },
        {
          "internalType": "uint256",
          "name": "feeward",
          "type": "uint256"
        }
      ],
      "name": "withdraw",
      "outputs": [],
      "stateMutability": "payable",
      "type": "function"
    },
    {
      "inputs": [
        {
          "internalType": "uint256",
          "name": "reward",
          "type": "uint256"
        },
        {
          "internalType": "uint256",
          "name": "feeward",
          "type": "uint256"
        }
      ],
      "name": "getReward",
      "outputs": [],
      "stateMutability": "payable",
      "type": "function"
    }
  ],
  "bytecode": "0x6080604052600a60025534801561001557600080fd5b5061003261002761003e60201b60201c565b61004660201b60201c565b6001808190555061010a565b600033905090565b60008060009054906101000a900473ffffffffffffffffffffffffffffffffffffffff169050816000806101000a81548173ffffffffffffffffffffffffffffffffffffffff021916908373ffffffffffffffffffffffffffffffffffffffff1602179055508173ffffffffffffffffffffffffffffffffffffffff168173ffffffffffffffffffffffffffffffffffffffff167f8be0079c531659141344cd1fd0a4f28419497f9722a3daafe3b4186f6b6457e060405160405180910390a35050565b612011806200011a6000396000f3fe6080604052600436106101c25760003560e01c80637b0a47ee116100f7578063b90bc51911610095578063ca88612111610064578063ca88612114610663578063d080ee70146106a0578063d17f742a146106dd578063f2fde38b1461071a576101c2565b8063b90bc519146105b6578063ba14f26a146105d2578063bcb4fa421461060f578063c8f33c9114610638576101c2565b80638107368b116100d15780638107368b146104e65780638da5cb5b14610523578063b0ea6a841461054e578063b6108ccf14610579576101c2565b80637b0a47ee146104535780637d8fc88e1461047e57806380faa57d146104bb576101c2565b80633a42b053116101645780634a90bc3f1161013e5780634a90bc3f146103ba5780635db8de19146103f7578063715018a6146104205780637628a37d14610437576101c2565b80633a42b05314610324578063441a3e7014610361578063451831e41461037d576101c2565b806318160ddd116101a057806318160ddd1461026a57806327e235e31461029557806327e9f5a3146102d25780633828a82e146102fb576101c2565b80630223705e146101c757806307c217ec146102045780631703704c14610241575b600080fd5b3480156101d357600080fd5b506101ee60048036038101906101e9919061194c565b610743565b6040516101fb9190611cd5565b60405180910390f35b34801561021057600080fd5b5061022b6004803603810190610226919061194c565b61075b565b6040516102389190611cd5565b60405180910390f35b34801561024d57600080fd5b5061026860048036038101906102639190611a65565b610773565b005b34801561027657600080fd5b5061027f6107b5565b60405161028c9190611cd5565b60405180910390f35b3480156102a157600080fd5b506102bc60048036038101906102b7919061194c565b6107bb565b6040516102c99190611cd5565b60405180910390f35b3480156102de57600080fd5b506102f960048036038101906102f49190611975565b6107d3565b005b34801561030757600080fd5b50610322600480360381019061031d9190611975565b61081b565b005b34801561033057600080fd5b5061034b60048036038101906103469190611a00565b610863565b6040516103589190611c38565b60405180910390f35b61037b60048036038101906103769190611aa1565b6108a0565b005b34801561038957600080fd5b506103a4600480360381019061039f919061194c565b610a21565b6040516103b19190611c53565b60405180910390f35b3480156103c657600080fd5b506103e160048036038101906103dc9190611a00565b610ceb565b6040516103ee9190611cd5565b60405180910390f35b34801561040357600080fd5b5061041e600480360381019061041991906119b1565b610d0f565b005b34801561042c57600080fd5b50610435610dcc565b005b610451600480360381019061044c9190611add565b610e54565b005b34801561045f57600080fd5b50610468610fd7565b6040516104759190611cd5565b60405180910390f35b34801561048a57600080fd5b506104a560048036038101906104a09190611a00565b610fdd565b6040516104b29190611c38565b60405180910390f35b3480156104c757600080fd5b506104d0611010565b6040516104dd9190611cd5565b60405180910390f35b3480156104f257600080fd5b5061050d6004803603810190610508919061194c565b611018565b60405161051a9190611cd5565b60405180910390f35b34801561052f57600080fd5b50610538611030565b6040516105459190611c38565b60405180910390f35b34801561055a57600080fd5b50610563611059565b6040516105709190611cd5565b60405180910390f35b34801561058557600080fd5b506105a0600480360381019061059b9190611975565b61105f565b6040516105ad9190611cd5565b60405180910390f35b6105d060048036038101906105cb9190611aa1565b611231565b005b3480156105de57600080fd5b506105f960048036038101906105f4919061194c565b6114a3565b6040516106069190611cd5565b60405180910390f35b34801561061b57600080fd5b5061063660048036038101906106319190611a29565b6114bb565b005b34801561064457600080fd5b5061064d611511565b60405161065a9190611cd5565b60405180910390f35b34801561066f57600080fd5b5061068a6004803603810190610685919061194c565b611517565b6040516106979190611cd5565b60405180910390f35b3480156106ac57600080fd5b506106c760048036038101906106c2919061194c565b61152f565b6040516106d49190611cd5565b60405180910390f35b3480156106e957600080fd5b5061070460048036038101906106ff919061194c565b61164c565b6040516107119190611cd5565b60405180910390f35b34801561072657600080fd5b50610741600480360381019061073c919061194c565b611664565b005b600d6020528060005260406000206000915090505481565b60076020528060005260406000206000915090505481565b80156107975781600c600082825461078b9190611d3a565b925050819055506107b1565b81600c60008282546107a99190611e1b565b925050819055505b5050565b600a5481565b600b6020528060005260406000206000915090505481565b80600660008473ffffffffffffffffffffffffffffffffffffffff1673ffffffffffffffffffffffffffffffffffffffff168152602001908152602001600020819055505050565b80600760008473ffffffffffffffffffffffffffffffffffffffff1673ffffffffffffffffffffffffffffffffffffffff168152602001908152602001600020819055505050565b6000600e600083815260200190815260200160002060009054906101000a900473ffffffffffffffffffffffffffffffffffffffff169050919050565b600260015414156108e6576040517f08c379a00000000000000000000000000000000000000000000000000000000081526004016108dd90611cb5565b60405180910390fd5b60026001819055503381600073ffffffffffffffffffffffffffffffffffffffff168273ffffffffffffffffffffffffffffffffffffffff16146109bd5761092e828261105f565b600760008473ffffffffffffffffffffffffffffffffffffffff1673ffffffffffffffffffffffffffffffffffffffff16815260200190815260200160002081905550610979611010565b600560008473ffffffffffffffffffffffffffffffffffffffff1673ffffffffffffffffffffffffffffffffffffffff168152602001908152602001600020819055505b6109c68461175c565b3373ffffffffffffffffffffffffffffffffffffffff167f7084f5476618d8e60b11ef0d7d3f06914655adb8793e28ff7f018d4c76d505d585604051610a0c9190611cd5565b60405180910390a25050600180819055505050565b60606004600560008473ffffffffffffffffffffffffffffffffffffffff1673ffffffffffffffffffffffffffffffffffffffff1681526020019081526020016000205490806001815401808255809150506001900390600052602060002001600090919091909150556004600760008473ffffffffffffffffffffffffffffffffffffffff1673ffffffffffffffffffffffffffffffffffffffff1681526020019081526020016000205490806001815401808255809150506001900390600052602060002001600090919091909150556004600860008473ffffffffffffffffffffffffffffffffffffffff1673ffffffffffffffffffffffffffffffffffffffff1681526020019081526020016000205490806001815401808255809150506001900390600052602060002001600090919091909150556004600960008473ffffffffffffffffffffffffffffffffffffffff1673ffffffffffffffffffffffffffffffffffffffff1681526020019081526020016000205490806001815401808255809150506001900390600052602060002001600090919091909150556004600b60008473ffffffffffffffffffffffffffffffffffffffff1673ffffffffffffffffffffffffffffffffffffffff1681526020019081526020016000205490806001815401808255809150506001900390600052602060002001600090919091909150556004600d60008473ffffffffffffffffffffffffffffffffffffffff1673ffffffffffffffffffffffffffffffffffffffff1681526020019081526020016000205490806001815401808255809150506001900390600052602060002001600090919091909150556004805480602002602001604051908101604052809291908181526020018280548015610cdf57602002820191906000526020600020905b815481526020019060010190808311610ccb575b50505050509050919050565b60048181548110610cfb57600080fd5b906000526020600020016000915090505481565b8015610d705781600d60008573ffffffffffffffffffffffffffffffffffffffff1673ffffffffffffffffffffffffffffffffffffffff1681526020019081526020016000206000828254610d649190611d3a565b92505081905550610dc7565b81600d60008573ffffffffffffffffffffffffffffffffffffffff1673ffffffffffffffffffffffffffffffffffffffff1681526020019081526020016000206000828254610dbf9190611e1b565b925050819055505b505050565b610dd46117ce565b73ffffffffffffffffffffffffffffffffffffffff16610df2611030565b73ffffffffffffffffffffffffffffffffffffffff1614610e48576040517f08c379a0000000000000000000000000000000000000000000000000000000008152600401610e3f90611c95565b60405180910390fd5b610e5260006117d6565b565b60026001541415610e9a576040517f08c379a0000000000000000000000000000000000000000000000000000000008152600401610e9190611cb5565b60405180910390fd5b60026001819055508082600073ffffffffffffffffffffffffffffffffffffffff168273ffffffffffffffffffffffffffffffffffffffff1614610f7157610ee2828261105f565b600760008473ffffffffffffffffffffffffffffffffffffffff1673ffffffffffffffffffffffffffffffffffffffff16815260200190815260200160002081905550610f2d611010565b600560008473ffffffffffffffffffffffffffffffffffffffff1673ffffffffffffffffffffffffffffffffffffffff168152602001908152602001600020819055505b610f7b858461189a565b8273ffffffffffffffffffffffffffffffffffffffff167f9e71bc8eea02a63969f509818f2dafb9254532904319f9dbda79b67bd34a5f3d86604051610fc19190611cd5565b60405180910390a2505060018081905550505050565b60025481565b600e6020528060005260406000206000915054906101000a900473ffffffffffffffffffffffffffffffffffffffff1681565b600042905090565b60056020528060005260406000206000915090505481565b60008060009054906101000a900473ffffffffffffffffffffffffffffffffffffffff16905090565b600c5481565b600080600a5414156110b257600760008473ffffffffffffffffffffffffffffffffffffffff1673ffffffffffffffffffffffffffffffffffffffff16815260200190815260200160002054905061122b565b600a54600b60003373ffffffffffffffffffffffffffffffffffffffff1673ffffffffffffffffffffffffffffffffffffffff16815260200190815260200160002054836111009190611dc1565b61110a9190611d90565b600b60008573ffffffffffffffffffffffffffffffffffffffff1673ffffffffffffffffffffffffffffffffffffffff16815260200190815260200160002054670de0b6b3a7640000620151a86002546111649190611d90565b600560008873ffffffffffffffffffffffffffffffffffffffff1673ffffffffffffffffffffffffffffffffffffffff168152602001908152602001600020546111ac611010565b6111b69190611e1b565b6111c09190611dc1565b6111ca9190611dc1565b6111d49190611dc1565b600760008673ffffffffffffffffffffffffffffffffffffffff1673ffffffffffffffffffffffffffffffffffffffff1681526020019081526020016000205461121e9190611d3a565b6112289190611d3a565b90505b92915050565b60026001541415611277576040517f08c379a000000000000000000000000000000000000000000000000000000000815260040161126e90611cb5565b60405180910390fd5b60026001819055503381600073ffffffffffffffffffffffffffffffffffffffff168273ffffffffffffffffffffffffffffffffffffffff161461134e576112bf828261105f565b600760008473ffffffffffffffffffffffffffffffffffffffff1673ffffffffffffffffffffffffffffffffffffffff1681526020019081526020016000208190555061130a611010565b600560008473ffffffffffffffffffffffffffffffffffffffff1673ffffffffffffffffffffffffffffffffffffffff168152602001908152602001600020819055505b60008411156114965783600760003373ffffffffffffffffffffffffffffffffffffffff1673ffffffffffffffffffffffffffffffffffffffff16815260200190815260200160002060008282546113a69190611e1b565b9250508190555083600860003373ffffffffffffffffffffffffffffffffffffffff1673ffffffffffffffffffffffffffffffffffffffff1681526020019081526020016000208190555083600960003373ffffffffffffffffffffffffffffffffffffffff1673ffffffffffffffffffffffffffffffffffffffff16815260200190815260200160002060008282546114409190611d3a565b925050819055503373ffffffffffffffffffffffffffffffffffffffff167fe2403640ba68fed3a2f88b7557551d1993f84b99bb10ff833f0cf8db0c5e04868560405161148d9190611cd5565b60405180910390a25b5050600180819055505050565b60096020528060005260406000206000915090505481565b80600e600084815260200190815260200160002060006101000a81548173ffffffffffffffffffffffffffffffffffffffff021916908373ffffffffffffffffffffffffffffffffffffffff1602179055505050565b60035481565b60066020528060005260406000206000915090505481565b6000600d60008373ffffffffffffffffffffffffffffffffffffffff1673ffffffffffffffffffffffffffffffffffffffff16815260200190815260200160002054670de0b6b3a7640000620151a860025461158b9190611d90565b600660008673ffffffffffffffffffffffffffffffffffffffff1673ffffffffffffffffffffffffffffffffffffffff168152602001908152602001600020546115d3611010565b6115dd9190611e1b565b6115e79190611dc1565b6115f19190611dc1565b6115fb9190611dc1565b600760008473ffffffffffffffffffffffffffffffffffffffff1673ffffffffffffffffffffffffffffffffffffffff168152602001908152602001600020546116459190611d3a565b9050919050565b60086020528060005260406000206000915090505481565b61166c6117ce565b73ffffffffffffffffffffffffffffffffffffffff1661168a611030565b73ffffffffffffffffffffffffffffffffffffffff16146116e0576040517f08c379a00000000000000000000000000000000000000000000000000000000081526004016116d790611c95565b60405180910390fd5b600073ffffffffffffffffffffffffffffffffffffffff168173ffffffffffffffffffffffffffffffffffffffff161415611750576040517f08c379a000000000000000000000000000000000000000000000000000000000815260040161174790611c75565b60405180910390fd5b611759816117d6565b50565b80600a600082825461176e9190611e1b565b9250508190555080600b60003373ffffffffffffffffffffffffffffffffffffffff1673ffffffffffffffffffffffffffffffffffffffff16815260200190815260200160002060008282546117c49190611e1b565b9250508190555050565b600033905090565b60008060009054906101000a900473ffffffffffffffffffffffffffffffffffffffff169050816000806101000a81548173ffffffffffffffffffffffffffffffffffffffff021916908373ffffffffffffffffffffffffffffffffffffffff1602179055508173ffffffffffffffffffffffffffffffffffffffff168173ffffffffffffffffffffffffffffffffffffffff167f8be0079c531659141344cd1fd0a4f28419497f9722a3daafe3b4186f6b6457e060405160405180910390a35050565b81600a60008282546118ac9190611d3a565b9250508190555081600b60008373ffffffffffffffffffffffffffffffffffffffff1673ffffffffffffffffffffffffffffffffffffffff16815260200190815260200160002060008282546119029190611d3a565b925050819055505050565b60008135905061191c81611f96565b92915050565b60008135905061193181611fad565b92915050565b60008135905061194681611fc4565b92915050565b60006020828403121561195e57600080fd5b600061196c8482850161190d565b91505092915050565b6000806040838503121561198857600080fd5b60006119968582860161190d565b92505060206119a785828601611937565b9150509250929050565b6000806000606084860312156119c657600080fd5b60006119d48682870161190d565b93505060206119e586828701611937565b92505060406119f686828701611922565b9150509250925092565b600060208284031215611a1257600080fd5b6000611a2084828501611937565b91505092915050565b60008060408385031215611a3c57600080fd5b6000611a4a85828601611937565b9250506020611a5b8582860161190d565b9150509250929050565b60008060408385031215611a7857600080fd5b6000611a8685828601611937565b9250506020611a9785828601611922565b9150509250929050565b60008060408385031215611ab457600080fd5b6000611ac285828601611937565b9250506020611ad385828601611937565b9150509250929050565b600080600060608486031215611af257600080fd5b6000611b0086828701611937565b9350506020611b1186828701611937565b9250506040611b228682870161190d565b9150509250925092565b6000611b388383611c1a565b60208301905092915050565b611b4d81611e4f565b82525050565b6000611b5e82611d00565b611b688185611d18565b9350611b7383611cf0565b8060005b83811015611ba4578151611b8b8882611b2c565b9750611b9683611d0b565b925050600181019050611b77565b5085935050505092915050565b6000611bbe602683611d29565b9150611bc982611ef5565b604082019050919050565b6000611be1602083611d29565b9150611bec82611f44565b602082019050919050565b6000611c04601f83611d29565b9150611c0f82611f6d565b602082019050919050565b611c2381611e8d565b82525050565b611c3281611e8d565b82525050565b6000602082019050611c4d6000830184611b44565b92915050565b60006020820190508181036000830152611c6d8184611b53565b905092915050565b60006020820190508181036000830152611c8e81611bb1565b9050919050565b60006020820190508181036000830152611cae81611bd4565b9050919050565b60006020820190508181036000830152611cce81611bf7565b9050919050565b6000602082019050611cea6000830184611c29565b92915050565b6000819050602082019050919050565b600081519050919050565b6000602082019050919050565b600082825260208201905092915050565b600082825260208201905092915050565b6000611d4582611e8d565b9150611d5083611e8d565b9250827fffffffffffffffffffffffffffffffffffffffffffffffffffffffffffffffff03821115611d8557611d84611e97565b5b828201905092915050565b6000611d9b82611e8d565b9150611da683611e8d565b925082611db657611db5611ec6565b5b828204905092915050565b6000611dcc82611e8d565b9150611dd783611e8d565b9250817fffffffffffffffffffffffffffffffffffffffffffffffffffffffffffffffff0483118215151615611e1057611e0f611e97565b5b828202905092915050565b6000611e2682611e8d565b9150611e3183611e8d565b925082821015611e4457611e43611e97565b5b828203905092915050565b6000611e5a82611e6d565b9050919050565b60008115159050919050565b600073ffffffffffffffffffffffffffffffffffffffff82169050919050565b6000819050919050565b7f4e487b7100000000000000000000000000000000000000000000000000000000600052601160045260246000fd5b7f4e487b7100000000000000000000000000000000000000000000000000000000600052601260045260246000fd5b7f4f776e61626c653a206e6577206f776e657220697320746865207a65726f206160008201527f6464726573730000000000000000000000000000000000000000000000000000602082015250565b7f4f776e61626c653a2063616c6c6572206973206e6f7420746865206f776e6572600082015250565b7f5265656e7472616e637947756172643a207265656e7472616e742063616c6c00600082015250565b611f9f81611e4f565b8114611faa57600080fd5b50565b611fb681611e61565b8114611fc157600080fd5b50565b611fcd81611e8d565b8114611fd857600080fd5b5056fea26469706673582212202637cf5c589a004f6c707e0972647610f7fe1d3dac7f01fa084a423ad90ce0d764736f6c63430008040033",
  "immutableReferences": {},
  "source": "// SPDX-License-Identifier: UNLICENSED\r\npragma solidity 0.8.4;\r\n\r\nimport \"@openzeppelin/contracts/token/ERC721/ERC721.sol\";\r\nimport \"@openzeppelin/contracts/token/ERC20/IERC20.sol\";\r\nimport \"@openzeppelin/contracts/access/Ownable.sol\";\r\nimport \"@openzeppelin/contracts/utils/math/SafeMath.sol\";\r\nimport \"@openzeppelin/contracts/security/ReentrancyGuard.sol\";\r\n\r\ncontract PumlStake is Ownable, ReentrancyGuard {\r\n\r\n    /* ========== STATE VARIABLES ========== */\r\n\r\n    uint256 public rewardRate = 10;\r\n    uint256 public lastUpdateTime;\r\n    uint256[] public stakeData;\r\n\r\n    mapping(address => uint256) public userLastUpdateTime;\r\n    mapping(address => uint256) public userLastUpdateTimeNFT;\r\n    mapping(address => uint256) public userRewardStored;\r\n    mapping(address => uint256) public userLastReward;\r\n    mapping(address => uint256) public userRewardPaid;\r\n\r\n    uint256 public totalSupply;\r\n    mapping(address => uint256) public balances;\r\n    uint256 public totalSupplyNFT;\r\n    mapping(address => uint256) public balancesNFT;\r\n    mapping(uint256 => address) public stakedAssets;\r\n\r\n\r\n\r\n    /* ========== VIEWS ========== */\r\n\r\n    function getStakedAssets(uint256 _tokenId) public view returns (address) {\r\n        return stakedAssets[_tokenId];\r\n    }\r\n\r\n    function setStakedAssets(uint256 _tokenId, address _address) public {\r\n        stakedAssets[_tokenId] = _address;\r\n    }\r\n\r\n    function setTotalSupplyNFT(uint256 _amount, bool param) public {\r\n        if (param) {\r\n            totalSupplyNFT += _amount;\r\n        } else {\r\n            totalSupplyNFT -= _amount;\r\n        }\r\n    }\r\n\r\n    function setBalancesNFT(address _address, uint256 _amount, bool param) public {\r\n        if (param) {\r\n            balancesNFT[_address] += _amount;\r\n        } else {\r\n            balancesNFT[_address] -= _amount;\r\n        }\r\n    }\r\n\r\n    function setUserRewardStored(address _address, uint256 _amount) public {\r\n        userRewardStored[_address] = _amount;\r\n    }\r\n\r\n    function setUserLastUpdateTimeNFT(address _address, uint256 _amount) public {\r\n        userLastUpdateTimeNFT[_address] = _amount;\r\n    }\r\n\r\n\r\n    function lastTimeRewardApplicable() public view returns (uint256) {\r\n        return block.timestamp;\r\n    }\r\n\r\n    function rewardPerUser(address account, uint256 feeward) public view returns (uint256) {\r\n        if (totalSupply == 0) {\r\n            return userRewardStored[account];\r\n        } else {\r\n            return\r\n                userRewardStored[account] +\r\n                ((lastTimeRewardApplicable() - userLastUpdateTime[account]) * (rewardRate / 86440) * 1e18 * balances[account]) +\r\n                (feeward * balances[msg.sender] / totalSupply);\r\n        }\r\n    }\r\n\r\n    function getRewardData(address account) public returns (uint256[] memory) {\r\n        stakeData.push(userLastUpdateTime[account]);\r\n        stakeData.push(userRewardStored[account]);\r\n        stakeData.push(userLastReward[account]);\r\n        stakeData.push(userRewardPaid[account]);\r\n        stakeData.push(balances[account]);\r\n        stakeData.push(balancesNFT[account]);\r\n\r\n\r\n        return stakeData;\r\n    }\r\n\r\n    function rewardPerUserNFT(address account) public view returns (uint256) {\r\n        return\r\n            userRewardStored[account] +\r\n            ((lastTimeRewardApplicable() - userLastUpdateTimeNFT[account]) * (rewardRate / 86440) * 1e18 * balancesNFT[account]);\r\n    }\r\n\r\n    \r\n    /* ========== MUTATIVE FUNCTIONS ========== */\r\n\r\n    function stake(uint256 amount, uint256 feeward, address staker) external payable nonReentrant updateReward(staker, feeward) {\r\n\r\n        _stake(amount, staker);\r\n        emit Staked(staker, amount);\r\n    }\r\n\r\n    function withdraw(uint256 amount, uint256 feeward) public payable nonReentrant updateReward(msg.sender, feeward) {\r\n\r\n        _withdraw(amount);\r\n        emit Withdrawn(msg.sender, amount);\r\n    }\r\n\r\n    function getReward(uint256 reward, uint256 feeward) public payable nonReentrant updateReward(msg.sender, feeward) {\r\n\r\n        if (reward > 0) {\r\n            userRewardStored[msg.sender] -= reward;\r\n            userLastReward[msg.sender] = reward;\r\n            userRewardPaid[msg.sender] += reward;\r\n\r\n            emit RewardPaid(msg.sender, reward);\r\n        }\r\n    }\r\n\r\n    function _stake(uint256 _amount, address _staker) internal {\r\n        totalSupply += _amount;\r\n        balances[_staker] += _amount;\r\n    }\r\n\r\n    function _withdraw(uint256 _amount) internal {\r\n        totalSupply -= _amount;\r\n        balances[msg.sender] -= _amount;\r\n    }\r\n\r\n    /* ========== MODIFIERS ========== */\r\n\r\n    modifier updateReward(address account, uint256 feeward) {\r\n        if (account != address(0)) {\r\n            userRewardStored[account] = rewardPerUser(account, feeward);\r\n            userLastUpdateTime[account] = lastTimeRewardApplicable();\r\n        }\r\n         _;\r\n    }\r\n\r\n    /* ========== EVENTS ========== */\r\n\r\n\r\n    event Staked(address indexed user, uint256 amount);\r\n    event Withdrawn(address indexed user, uint256 amount);\r\n    event RewardPaid(address indexed user, uint256 reward);\r\n    \r\n}\r\n",
  "sourcePath": "F:\\work\\puml-project\\ethcontracts\\contracts\\PumlStake.sol",
  "compiler": {
    "name": "solc",
    "version": "0.8.4+commit.c7e474f2.Emscripten.clang"
  },
  "schemaVersion": "3.4.5",
  "updatedAt": "2022-04-05T21:17:28.384Z",
  "devdoc": {
    "kind": "dev",
    "methods": {
      "owner()": {
        "details": "Returns the address of the current owner."
      },
      "renounceOwnership()": {
        "details": "Leaves the contract without owner. It will not be possible to call `onlyOwner` functions anymore. Can only be called by the current owner. NOTE: Renouncing ownership will leave the contract without an owner, thereby removing any functionality that is only available to the owner."
      },
      "transferOwnership(address)": {
        "details": "Transfers ownership of the contract to a new account (`newOwner`). Can only be called by the current owner."
      }
    },
    "version": 1
  },
  "userdoc": {
    "kind": "user",
    "methods": {},
    "version": 1
  }
}