{
  "contractName": "PumlStake",
  "abi": [
    {
      "inputs": [],
      "stateMutability": "nonpayable",
      "type": "constructor"
    },
    {
      "anonymous": false,
      "inputs": [
        {
          "indexed": true,
          "internalType": "address",
          "name": "user",
          "type": "address"
        },
        {
          "indexed": false,
          "internalType": "uint256",
          "name": "amount",
          "type": "uint256"
        }
      ],
      "name": "Collect",
      "type": "event"
    },
    {
      "anonymous": false,
      "inputs": [
        {
          "indexed": true,
          "internalType": "address",
          "name": "previousOwner",
          "type": "address"
        },
        {
          "indexed": true,
          "internalType": "address",
          "name": "newOwner",
          "type": "address"
        }
      ],
      "name": "OwnershipTransferred",
      "type": "event"
    },
    {
      "anonymous": false,
      "inputs": [
        {
          "indexed": true,
          "internalType": "address",
          "name": "user",
          "type": "address"
        },
        {
          "indexed": false,
          "internalType": "uint256",
          "name": "reward",
          "type": "uint256"
        }
      ],
      "name": "RewardPaid",
      "type": "event"
    },
    {
      "anonymous": false,
      "inputs": [
        {
          "indexed": true,
          "internalType": "address",
          "name": "user",
          "type": "address"
        },
        {
          "indexed": false,
          "internalType": "uint256",
          "name": "amount",
          "type": "uint256"
        }
      ],
      "name": "Staked",
      "type": "event"
    },
    {
      "anonymous": false,
      "inputs": [
        {
          "indexed": true,
          "internalType": "address",
          "name": "user",
          "type": "address"
        },
        {
          "indexed": false,
          "internalType": "uint256",
          "name": "amount",
          "type": "uint256"
        }
      ],
      "name": "Withdrawn",
      "type": "event"
    },
    {
      "inputs": [],
      "name": "avgBlocksPerDay",
      "outputs": [
        {
          "internalType": "uint256",
          "name": "",
          "type": "uint256"
        }
      ],
      "stateMutability": "view",
      "type": "function"
    },
    {
      "inputs": [
        {
          "internalType": "address",
          "name": "",
          "type": "address"
        }
      ],
      "name": "balances",
      "outputs": [
        {
          "internalType": "uint256",
          "name": "",
          "type": "uint256"
        }
      ],
      "stateMutability": "view",
      "type": "function"
    },
    {
      "inputs": [
        {
          "internalType": "address",
          "name": "",
          "type": "address"
        }
      ],
      "name": "balancesNFT",
      "outputs": [
        {
          "internalType": "uint256",
          "name": "",
          "type": "uint256"
        }
      ],
      "stateMutability": "view",
      "type": "function"
    },
    {
      "inputs": [],
      "name": "blockLength",
      "outputs": [
        {
          "internalType": "uint256",
          "name": "",
          "type": "uint256"
        }
      ],
      "stateMutability": "view",
      "type": "function"
    },
    {
      "inputs": [],
      "name": "owner",
      "outputs": [
        {
          "internalType": "address",
          "name": "",
          "type": "address"
        }
      ],
      "stateMutability": "view",
      "type": "function"
    },
    {
      "inputs": [],
      "name": "renounceOwnership",
      "outputs": [],
      "stateMutability": "nonpayable",
      "type": "function"
    },
    {
      "inputs": [],
      "name": "secondPerDay",
      "outputs": [
        {
          "internalType": "uint256",
          "name": "",
          "type": "uint256"
        }
      ],
      "stateMutability": "view",
      "type": "function"
    },
    {
      "inputs": [
        {
          "internalType": "uint256",
          "name": "",
          "type": "uint256"
        }
      ],
      "name": "stakedAssets",
      "outputs": [
        {
          "internalType": "address",
          "name": "",
          "type": "address"
        }
      ],
      "stateMutability": "view",
      "type": "function"
    },
    {
      "inputs": [],
      "name": "totalSupply",
      "outputs": [
        {
          "internalType": "uint256",
          "name": "",
          "type": "uint256"
        }
      ],
      "stateMutability": "view",
      "type": "function"
    },
    {
      "inputs": [],
      "name": "totalSupplyNFT",
      "outputs": [
        {
          "internalType": "uint256",
          "name": "",
          "type": "uint256"
        }
      ],
      "stateMutability": "view",
      "type": "function"
    },
    {
      "inputs": [
        {
          "internalType": "address",
          "name": "newOwner",
          "type": "address"
        }
      ],
      "name": "transferOwnership",
      "outputs": [],
      "stateMutability": "nonpayable",
      "type": "function"
    },
    {
      "inputs": [
        {
          "internalType": "address",
          "name": "",
          "type": "address"
        }
      ],
      "name": "userLastCollect",
      "outputs": [
        {
          "internalType": "uint256",
          "name": "",
          "type": "uint256"
        }
      ],
      "stateMutability": "view",
      "type": "function"
    },
    {
      "inputs": [
        {
          "internalType": "address",
          "name": "",
          "type": "address"
        }
      ],
      "name": "userLastReward",
      "outputs": [
        {
          "internalType": "uint256",
          "name": "",
          "type": "uint256"
        }
      ],
      "stateMutability": "view",
      "type": "function"
    },
    {
      "inputs": [
        {
          "internalType": "address",
          "name": "",
          "type": "address"
        }
      ],
      "name": "userLastUpdateTime",
      "outputs": [
        {
          "internalType": "uint256",
          "name": "",
          "type": "uint256"
        }
      ],
      "stateMutability": "view",
      "type": "function"
    },
    {
      "inputs": [
        {
          "internalType": "address",
          "name": "",
          "type": "address"
        }
      ],
      "name": "userRewardPaid",
      "outputs": [
        {
          "internalType": "uint256",
          "name": "",
          "type": "uint256"
        }
      ],
      "stateMutability": "view",
      "type": "function"
    },
    {
      "inputs": [
        {
          "internalType": "address",
          "name": "",
          "type": "address"
        }
      ],
      "name": "userRewardStored",
      "outputs": [
        {
          "internalType": "uint256",
          "name": "",
          "type": "uint256"
        }
      ],
      "stateMutability": "view",
      "type": "function"
    },
    {
      "inputs": [
        {
          "internalType": "uint256",
          "name": "_tokenId",
          "type": "uint256"
        }
      ],
      "name": "getStakedAssets",
      "outputs": [
        {
          "internalType": "address",
          "name": "",
          "type": "address"
        }
      ],
      "stateMutability": "view",
      "type": "function"
    },
    {
      "inputs": [
        {
          "internalType": "uint256",
          "name": "_tokenId",
          "type": "uint256"
        },
        {
          "internalType": "address",
          "name": "_address",
          "type": "address"
        }
      ],
      "name": "setStakedAssets",
      "outputs": [],
      "stateMutability": "nonpayable",
      "type": "function"
    },
    {
      "inputs": [
        {
          "internalType": "address",
          "name": "_address",
          "type": "address"
        },
        {
          "internalType": "uint256",
          "name": "_amount",
          "type": "uint256"
        },
        {
          "internalType": "bool",
          "name": "param",
          "type": "bool"
        }
      ],
      "name": "setBalancesNFT",
      "outputs": [],
      "stateMutability": "nonpayable",
      "type": "function"
    },
    {
      "inputs": [
        {
          "internalType": "address",
          "name": "account",
          "type": "address"
        },
        {
          "internalType": "uint256",
          "name": "feeward",
          "type": "uint256"
        }
      ],
      "name": "setUserUpdate",
      "outputs": [],
      "stateMutability": "nonpayable",
      "type": "function"
    },
    {
      "inputs": [
        {
          "internalType": "address",
          "name": "account",
          "type": "address"
        },
        {
          "internalType": "uint256",
          "name": "reward",
          "type": "uint256"
        }
      ],
      "name": "setUserRewardUpdate",
      "outputs": [],
      "stateMutability": "nonpayable",
      "type": "function"
    },
    {
      "inputs": [],
      "name": "lastTimeRewardApplicable",
      "outputs": [
        {
          "internalType": "uint256",
          "name": "",
          "type": "uint256"
        }
      ],
      "stateMutability": "view",
      "type": "function"
    },
    {
      "inputs": [],
      "name": "balanceOfPumlx",
      "outputs": [
        {
          "internalType": "uint256",
          "name": "",
          "type": "uint256"
        }
      ],
      "stateMutability": "view",
      "type": "function"
    },
    {
      "inputs": [
        {
          "internalType": "address",
          "name": "account",
          "type": "address"
        },
        {
          "internalType": "uint256",
          "name": "feeward",
          "type": "uint256"
        }
      ],
      "name": "collectPerUser",
      "outputs": [
        {
          "internalType": "uint256",
          "name": "",
          "type": "uint256"
        }
      ],
      "stateMutability": "view",
      "type": "function"
    },
    {
      "inputs": [
        {
          "internalType": "address",
          "name": "account",
          "type": "address"
        }
      ],
      "name": "getUserData",
      "outputs": [
        {
          "components": [
            {
              "internalType": "uint256",
              "name": "userLastUpdateTime",
              "type": "uint256"
            },
            {
              "internalType": "uint256",
              "name": "userRewardStored",
              "type": "uint256"
            },
            {
              "internalType": "uint256",
              "name": "userRewardPaid",
              "type": "uint256"
            },
            {
              "internalType": "uint256",
              "name": "userLastReward",
              "type": "uint256"
            },
            {
              "internalType": "uint256",
              "name": "userLastCollect",
              "type": "uint256"
            },
            {
              "internalType": "uint256",
              "name": "balances",
              "type": "uint256"
            },
            {
              "internalType": "uint256",
              "name": "totalBalances",
              "type": "uint256"
            },
            {
              "internalType": "uint256",
              "name": "balancesNFT",
              "type": "uint256"
            },
            {
              "internalType": "uint256",
              "name": "totalBalancesNFT",
              "type": "uint256"
            }
          ],
          "internalType": "struct PumlStake.UserData",
          "name": "",
          "type": "tuple"
        }
      ],
      "stateMutability": "view",
      "type": "function"
    },
    {
      "inputs": [
        {
          "internalType": "address",
          "name": "_from",
          "type": "address"
        },
        {
          "internalType": "address",
          "name": "_to",
          "type": "address"
        },
        {
          "internalType": "uint256",
          "name": "_amount",
          "type": "uint256"
        }
      ],
      "name": "setTransferPuml",
      "outputs": [],
      "stateMutability": "nonpayable",
      "type": "function"
    },
    {
      "inputs": [
        {
          "internalType": "address",
          "name": "_from",
          "type": "address"
        },
        {
          "internalType": "uint256",
          "name": "_amount",
          "type": "uint256"
        }
      ],
      "name": "setDepositPuml",
      "outputs": [],
      "stateMutability": "nonpayable",
      "type": "function"
    },
    {
      "inputs": [
        {
          "internalType": "uint256",
          "name": "amount",
          "type": "uint256"
        },
        {
          "internalType": "uint256",
          "name": "stakeamount",
          "type": "uint256"
        },
        {
          "internalType": "uint256",
          "name": "feeward",
          "type": "uint256"
        }
      ],
      "name": "stake",
      "outputs": [],
      "stateMutability": "payable",
      "type": "function"
    },
    {
      "inputs": [
        {
          "internalType": "uint256",
          "name": "amount",
          "type": "uint256"
        },
        {
          "internalType": "uint256",
          "name": "unstakeamount",
          "type": "uint256"
        },
        {
          "internalType": "uint256",
          "name": "feeward",
          "type": "uint256"
        }
      ],
      "name": "withdraw",
      "outputs": [],
      "stateMutability": "payable",
      "type": "function"
    },
    {
      "inputs": [
        {
          "internalType": "uint256",
          "name": "reward",
          "type": "uint256"
        },
        {
          "internalType": "uint256",
          "name": "feeward",
          "type": "uint256"
        }
      ],
      "name": "claim",
      "outputs": [],
      "stateMutability": "payable",
      "type": "function"
    },
    {
      "inputs": [
        {
          "internalType": "address",
          "name": "claimer",
          "type": "address"
        },
        {
          "internalType": "uint256",
          "name": "reward",
          "type": "uint256"
        },
        {
          "internalType": "uint256",
          "name": "feeward",
          "type": "uint256"
        }
      ],
      "name": "claimApi",
      "outputs": [],
      "stateMutability": "payable",
      "type": "function"
    },
    {
      "inputs": [
        {
          "internalType": "uint256",
          "name": "amount",
          "type": "uint256"
        },
        {
          "internalType": "uint256",
          "name": "feeward",
          "type": "uint256"
        }
      ],
      "name": "collect",
      "outputs": [],
      "stateMutability": "payable",
      "type": "function"
    },
    {
      "inputs": [
        {
          "internalType": "address",
          "name": "_to",
          "type": "address"
        },
        {
          "internalType": "uint256",
          "name": "_amount",
          "type": "uint256"
        }
      ],
      "name": "transferPuml",
      "outputs": [],
      "stateMutability": "payable",
      "type": "function"
    },
    {
      "inputs": [
        {
          "internalType": "address",
          "name": "_to",
          "type": "address"
        },
        {
          "internalType": "uint256",
          "name": "_amount",
          "type": "uint256"
        }
      ],
      "name": "pickPuml",
      "outputs": [],
      "stateMutability": "payable",
      "type": "function"
    },
    {
      "inputs": [
        {
          "internalType": "uint256",
          "name": "_amount",
          "type": "uint256"
        }
      ],
      "name": "depositPuml",
      "outputs": [],
      "stateMutability": "payable",
      "type": "function"
    }
  ],
  "bytecode": "0x608060405261196460035562243394600455620151806005553480156200002557600080fd5b50620000466200003a620000a860201b60201c565b620000b060201b60201c565b6001808190555073bc75ecc12c77506dcfd70113b15683a9a0768ab4600260006101000a81548173ffffffffffffffffffffffffffffffffffffffff021916908373ffffffffffffffffffffffffffffffffffffffff16021790555062000174565b600033905090565b60008060009054906101000a900473ffffffffffffffffffffffffffffffffffffffff169050816000806101000a81548173ffffffffffffffffffffffffffffffffffffffff021916908373ffffffffffffffffffffffffffffffffffffffff1602179055508173ffffffffffffffffffffffffffffffffffffffff168173ffffffffffffffffffffffffffffffffffffffff167f8be0079c531659141344cd1fd0a4f28419497f9722a3daafe3b4186f6b6457e060405160405180910390a35050565b612db780620001846000396000f3fe6080604052600436106102045760003560e01c80638da5cb5b11610118578063bcb4fa42116100a0578063d4a881821161006f578063d4a881821461072c578063f2fde38b14610769578063f47cbe1714610792578063fe6ad686146107ae578063ffc9896b146107d957610204565b8063bcb4fa421461068e578063c3490263146106b7578063cfa6f827146106d3578063d17f742a146106ef57610204565b8063a41fe49f116100e7578063a41fe49f146105d2578063a638f2e2146105ee578063b0ea6a841461060a578063b3ddcb7914610635578063ba14f26a1461065157610204565b80638da5cb5b1461052857806392ebf4dd146105535780639d756a8d1461057e578063a145203b146105a757610204565b80633dfc70871161019b5780637d8fc88e1161016a5780637d8fc88e1461043e57806380faa57d1461047b57806381051b80146104a65780638107368b146104cf5780638a0079021461050c57610204565b80633dfc7087146103985780635db8de19146103c15780636fd52ccc146103ea578063715018a61461042757610204565b80631aa24d62116101d75780631aa24d62146102ca578063264218b9146102f357806327e235e31461031e5780633a42b0531461035b57610204565b80630190b2c2146102095780630223705e1461022557806307c217ec1461026257806318160ddd1461029f575b600080fd5b610223600480360381019061021e919061240c565b610816565b005b34801561023157600080fd5b5061024c60048036038101906102479190612394565b610964565b6040516102599190612978565b60405180910390f35b34801561026e57600080fd5b5061028960048036038101906102849190612394565b61097c565b6040516102969190612978565b60405180910390f35b3480156102ab57600080fd5b506102b4610994565b6040516102c19190612978565b60405180910390f35b3480156102d657600080fd5b506102f160048036038101906102ec919061240c565b61099a565b005b3480156102ff57600080fd5b506103086109a8565b6040516103159190612978565b60405180910390f35b34801561032a57600080fd5b5061034560048036038101906103409190612394565b6109ae565b6040516103529190612978565b60405180910390f35b34801561036757600080fd5b50610382600480360381019061037d919061250f565b6109c6565b60405161038f9190612801565b60405180910390f35b3480156103a457600080fd5b506103bf60048036038101906103ba91906123bd565b610a03565b005b3480156103cd57600080fd5b506103e860048036038101906103e39190612448565b610afd565b005b3480156103f657600080fd5b50610411600480360381019061040c919061240c565b610bec565b60405161041e9190612978565b60405180910390f35b34801561043357600080fd5b5061043c610d72565b005b34801561044a57600080fd5b506104656004803603810190610460919061250f565b610dfa565b6040516104729190612801565b60405180910390f35b34801561048757600080fd5b50610490610e2d565b60405161049d9190612978565b60405180910390f35b3480156104b257600080fd5b506104cd60048036038101906104c8919061240c565b610e35565b005b3480156104db57600080fd5b506104f660048036038101906104f19190612394565b610e43565b6040516105039190612978565b60405180910390f35b61052660048036038101906105219190612497565b610e5b565b005b34801561053457600080fd5b5061053d611052565b60405161054a9190612801565b60405180910390f35b34801561055f57600080fd5b5061056861107b565b6040516105759190612978565b60405180910390f35b34801561058a57600080fd5b506105a560048036038101906105a0919061240c565b611081565b005b3480156105b357600080fd5b506105bc61117a565b6040516105c99190612978565b60405180910390f35b6105ec60048036038101906105e791906125d9565b611180565b005b610608600480360381019061060391906125d9565b6112eb565b005b34801561061657600080fd5b5061061f611459565b60405161062c9190612978565b60405180910390f35b61064f600480360381019061064a919061250f565b61145f565b005b34801561065d57600080fd5b5061067860048036038101906106739190612394565b6115ac565b6040516106859190612978565b60405180910390f35b34801561069a57600080fd5b506106b560048036038101906106b09190612561565b6115c4565b005b6106d160048036038101906106cc919061259d565b61161a565b005b6106ed60048036038101906106e8919061259d565b611810565b005b3480156106fb57600080fd5b5061071660048036038101906107119190612394565b6119f1565b6040516107239190612978565b60405180910390f35b34801561073857600080fd5b50610753600480360381019061074e9190612394565b611a09565b6040516107609190612978565b60405180910390f35b34801561077557600080fd5b50610790600480360381019061078b9190612394565b611a21565b005b6107ac60048036038101906107a7919061240c565b611b19565b005b3480156107ba57600080fd5b506107c3611c65565b6040516107d09190612978565b60405180910390f35b3480156107e557600080fd5b5061080060048036038101906107fb9190612394565b611d17565b60405161080d919061295c565b60405180910390f35b6002600154141561085c576040517f08c379a00000000000000000000000000000000000000000000000000000000081526004016108539061293c565b60405180910390fd5b6002600181905550600081116108a7576040517f08c379a000000000000000000000000000000000000000000000000000000000815260040161089e906128bc565b60405180910390fd5b600260009054906101000a900473ffffffffffffffffffffffffffffffffffffffff1673ffffffffffffffffffffffffffffffffffffffff166323b872dd3384846040518463ffffffff1660e01b81526004016109069392919061281c565b602060405180830381600087803b15801561092057600080fd5b505af1158015610934573d6000803e3d6000fd5b505050506040513d601f19601f8201168201806040525081019061095891906124e6565b50600180819055505050565b600e6020528060005260406000206000915090505481565b60076020528060005260406000206000915090505481565b600b5481565b6109a48282611f29565b5050565b60055481565b600d6020528060005260406000206000915090505481565b6000600f600083815260200190815260200160002060009054906101000a900473ffffffffffffffffffffffffffffffffffffffff169050919050565b60008111610a46576040517f08c379a0000000000000000000000000000000000000000000000000000000008152600401610a3d906128bc565b60405180910390fd5b600260009054906101000a900473ffffffffffffffffffffffffffffffffffffffff1673ffffffffffffffffffffffffffffffffffffffff166323b872dd8484846040518463ffffffff1660e01b8152600401610aa59392919061281c565b602060405180830381600087803b158015610abf57600080fd5b505af1158015610ad3573d6000803e3d6000fd5b505050506040513d601f19601f82011682018060405250810190610af791906124e6565b50505050565b8015610b775781600e60008573ffffffffffffffffffffffffffffffffffffffff1673ffffffffffffffffffffffffffffffffffffffff1681526020019081526020016000206000828254610b5291906129a4565b9250508190555081600c6000828254610b6b91906129a4565b92505081905550610be7565b81600e60008573ffffffffffffffffffffffffffffffffffffffff1673ffffffffffffffffffffffffffffffffffffffff1681526020019081526020016000206000828254610bc69190612a85565b9250508190555081600c6000828254610bdf9190612a85565b925050819055505b505050565b6000808290506000600b541115610c5857600b54600d60008673ffffffffffffffffffffffffffffffffffffffff1673ffffffffffffffffffffffffffffffffffffffff16815260200190815260200160002054610c4a91906129fa565b81610c5591906129a4565b90505b6000600c541115610cbe57600c54600e60008673ffffffffffffffffffffffffffffffffffffffff1673ffffffffffffffffffffffffffffffffffffffff16815260200190815260200160002054610cb091906129fa565b81610cbb91906129a4565b90505b600554610d5f600660008773ffffffffffffffffffffffffffffffffffffffff1673ffffffffffffffffffffffffffffffffffffffff16815260200190815260200160002054610d0c610e2d565b610d169190612a85565b610d51610d42600354600454610d2a611c65565b610d3491906129fa565b61201d90919063ffffffff16565b8561201d90919063ffffffff16565b61201d90919063ffffffff16565b610d6991906129fa565b91505092915050565b610d7a612033565b73ffffffffffffffffffffffffffffffffffffffff16610d98611052565b73ffffffffffffffffffffffffffffffffffffffff1614610dee576040517f08c379a0000000000000000000000000000000000000000000000000000000008152600401610de5906128fc565b60405180910390fd5b610df8600061203b565b565b600f6020528060005260406000206000915054906101000a900473ffffffffffffffffffffffffffffffffffffffff1681565b600042905090565b610e3f82826120ff565b5050565b60066020528060005260406000206000915090505481565b60026001541415610ea1576040517f08c379a0000000000000000000000000000000000000000000000000000000008152600401610e989061293c565b60405180910390fd5b600260018190555081600760008573ffffffffffffffffffffffffffffffffffffffff1673ffffffffffffffffffffffffffffffffffffffff1681526020019081526020016000205411610f2a576040517f08c379a0000000000000000000000000000000000000000000000000000000008152600401610f219061289c565b60405180910390fd5b600082111561104657610f3d83826120ff565b610f478383611f29565b600260009054906101000a900473ffffffffffffffffffffffffffffffffffffffff1673ffffffffffffffffffffffffffffffffffffffff1663a9059cbb84846040518363ffffffff1660e01b8152600401610fa4929190612853565b602060405180830381600087803b158015610fbe57600080fd5b505af1158015610fd2573d6000803e3d6000fd5b505050506040513d601f19601f82011682018060405250810190610ff691906124e6565b508273ffffffffffffffffffffffffffffffffffffffff167fe2403640ba68fed3a2f88b7557551d1993f84b99bb10ff833f0cf8db0c5e04868360405161103d9190612978565b60405180910390a25b60018081905550505050565b60008060009054906101000a900473ffffffffffffffffffffffffffffffffffffffff16905090565b60035481565b600081116110c4576040517f08c379a00000000000000000000000000000000000000000000000000000000081526004016110bb9061291c565b60405180910390fd5b600260009054906101000a900473ffffffffffffffffffffffffffffffffffffffff1673ffffffffffffffffffffffffffffffffffffffff166323b872dd8330846040518463ffffffff1660e01b81526004016111239392919061281c565b602060405180830381600087803b15801561113d57600080fd5b505af1158015611151573d6000803e3d6000fd5b505050506040513d601f19601f8201168201806040525081019061117591906124e6565b505050565b60045481565b600260015414156111c6576040517f08c379a00000000000000000000000000000000000000000000000000000000081526004016111bd9061293c565b60405180910390fd5b60026001819055506111d833826120ff565b6111e1836121fa565b3373ffffffffffffffffffffffffffffffffffffffff167f7084f5476618d8e60b11ef0d7d3f06914655adb8793e28ff7f018d4c76d505d5846040516112279190612978565b60405180910390a2600260009054906101000a900473ffffffffffffffffffffffffffffffffffffffff1673ffffffffffffffffffffffffffffffffffffffff1663a9059cbb33846040518363ffffffff1660e01b815260040161128c929190612853565b602060405180830381600087803b1580156112a657600080fd5b505af11580156112ba573d6000803e3d6000fd5b505050506040513d601f19601f820116820180604052508101906112de91906124e6565b5060018081905550505050565b60026001541415611331576040517f08c379a00000000000000000000000000000000000000000000000000000000081526004016113289061293c565b60405180910390fd5b600260018190555061134333826120ff565b61134d833361226c565b3373ffffffffffffffffffffffffffffffffffffffff167f9e71bc8eea02a63969f509818f2dafb9254532904319f9dbda79b67bd34a5f3d846040516113939190612978565b60405180910390a2600260009054906101000a900473ffffffffffffffffffffffffffffffffffffffff1673ffffffffffffffffffffffffffffffffffffffff166323b872dd3330856040518463ffffffff1660e01b81526004016113fa9392919061281c565b602060405180830381600087803b15801561141457600080fd5b505af1158015611428573d6000803e3d6000fd5b505050506040513d601f19601f8201168201806040525081019061144c91906124e6565b5060018081905550505050565b600c5481565b600260015414156114a5576040517f08c379a000000000000000000000000000000000000000000000000000000000815260040161149c9061293c565b60405180910390fd5b6002600181905550600081116114f0576040517f08c379a00000000000000000000000000000000000000000000000000000000081526004016114e79061291c565b60405180910390fd5b600260009054906101000a900473ffffffffffffffffffffffffffffffffffffffff1673ffffffffffffffffffffffffffffffffffffffff166323b872dd3330846040518463ffffffff1660e01b815260040161154f9392919061281c565b602060405180830381600087803b15801561156957600080fd5b505af115801561157d573d6000803e3d6000fd5b505050506040513d601f19601f820116820180604052508101906115a191906124e6565b506001808190555050565b600a6020528060005260406000206000915090505481565b80600f600084815260200190815260200160002060006101000a81548173ffffffffffffffffffffffffffffffffffffffff021916908373ffffffffffffffffffffffffffffffffffffffff1602179055505050565b60026001541415611660576040517f08c379a00000000000000000000000000000000000000000000000000000000081526004016116579061293c565b60405180910390fd5b600260018190555081600760003373ffffffffffffffffffffffffffffffffffffffff1673ffffffffffffffffffffffffffffffffffffffff16815260200190815260200160002054116116e9576040517f08c379a00000000000000000000000000000000000000000000000000000000081526004016116e09061289c565b60405180910390fd5b6000821115611805576116fc33826120ff565b6117063383611f29565b600260009054906101000a900473ffffffffffffffffffffffffffffffffffffffff1673ffffffffffffffffffffffffffffffffffffffff1663a9059cbb33846040518363ffffffff1660e01b8152600401611763929190612853565b602060405180830381600087803b15801561177d57600080fd5b505af1158015611791573d6000803e3d6000fd5b505050506040513d601f19601f820116820180604052508101906117b591906124e6565b503373ffffffffffffffffffffffffffffffffffffffff167fe2403640ba68fed3a2f88b7557551d1993f84b99bb10ff833f0cf8db0c5e0486836040516117fc9190612978565b60405180910390a25b600180819055505050565b60026001541415611856576040517f08c379a000000000000000000000000000000000000000000000000000000000815260040161184d9061293c565b60405180910390fd5b6002600181905550816118693383610bec565b116118a9576040517f08c379a00000000000000000000000000000000000000000000000000000000081526004016118a0906128dc565b60405180910390fd5b60008211156119e65781600960003373ffffffffffffffffffffffffffffffffffffffff1673ffffffffffffffffffffffffffffffffffffffff1681526020019081526020016000208190555081600760003373ffffffffffffffffffffffffffffffffffffffff1673ffffffffffffffffffffffffffffffffffffffff168152602001908152602001600020600082825461194591906129a4565b92505081905550611954610e2d565b600660003373ffffffffffffffffffffffffffffffffffffffff1673ffffffffffffffffffffffffffffffffffffffff168152602001908152602001600020819055503373ffffffffffffffffffffffffffffffffffffffff167f4256a058fa2b123d727576d3d31e3a272db98ee5fe264e229610ce43dc849999836040516119dd9190612978565b60405180910390a25b600180819055505050565b60086020528060005260406000206000915090505481565b60096020528060005260406000206000915090505481565b611a29612033565b73ffffffffffffffffffffffffffffffffffffffff16611a47611052565b73ffffffffffffffffffffffffffffffffffffffff1614611a9d576040517f08c379a0000000000000000000000000000000000000000000000000000000008152600401611a94906128fc565b60405180910390fd5b600073ffffffffffffffffffffffffffffffffffffffff168173ffffffffffffffffffffffffffffffffffffffff161415611b0d576040517f08c379a0000000000000000000000000000000000000000000000000000000008152600401611b049061287c565b60405180910390fd5b611b168161203b565b50565b60026001541415611b5f576040517f08c379a0000000000000000000000000000000000000000000000000000000008152600401611b569061293c565b60405180910390fd5b600260018190555060008111611baa576040517f08c379a0000000000000000000000000000000000000000000000000000000008152600401611ba1906128bc565b60405180910390fd5b600260009054906101000a900473ffffffffffffffffffffffffffffffffffffffff1673ffffffffffffffffffffffffffffffffffffffff1663a9059cbb83836040518363ffffffff1660e01b8152600401611c07929190612853565b602060405180830381600087803b158015611c2157600080fd5b505af1158015611c35573d6000803e3d6000fd5b505050506040513d601f19601f82011682018060405250810190611c5991906124e6565b50600180819055505050565b6000600260009054906101000a900473ffffffffffffffffffffffffffffffffffffffff1673ffffffffffffffffffffffffffffffffffffffff166370a08231306040518263ffffffff1660e01b8152600401611cc29190612801565b60206040518083038186803b158015611cda57600080fd5b505afa158015611cee573d6000803e3d6000fd5b505050506040513d601f19601f82011682018060405250810190611d129190612538565b905090565b611d1f6122df565b6000604051806101200160405280600660008673ffffffffffffffffffffffffffffffffffffffff1673ffffffffffffffffffffffffffffffffffffffff168152602001908152602001600020548152602001600760008673ffffffffffffffffffffffffffffffffffffffff1673ffffffffffffffffffffffffffffffffffffffff168152602001908152602001600020548152602001600a60008673ffffffffffffffffffffffffffffffffffffffff1673ffffffffffffffffffffffffffffffffffffffff168152602001908152602001600020548152602001600860008673ffffffffffffffffffffffffffffffffffffffff1673ffffffffffffffffffffffffffffffffffffffff168152602001908152602001600020548152602001600960008673ffffffffffffffffffffffffffffffffffffffff1673ffffffffffffffffffffffffffffffffffffffff168152602001908152602001600020548152602001600d60008673ffffffffffffffffffffffffffffffffffffffff1673ffffffffffffffffffffffffffffffffffffffff168152602001908152602001600020548152602001600b548152602001600e60008673ffffffffffffffffffffffffffffffffffffffff1673ffffffffffffffffffffffffffffffffffffffff168152602001908152602001600020548152602001600c54815250905080915050919050565b80600860008473ffffffffffffffffffffffffffffffffffffffff1673ffffffffffffffffffffffffffffffffffffffff1681526020019081526020016000208190555080600a60008473ffffffffffffffffffffffffffffffffffffffff1673ffffffffffffffffffffffffffffffffffffffff1681526020019081526020016000206000828254611fbc91906129a4565b9250508190555080600760008473ffffffffffffffffffffffffffffffffffffffff1673ffffffffffffffffffffffffffffffffffffffff16815260200190815260200160002060008282546120129190612a85565b925050819055505050565b6000818361202b9190612a2b565b905092915050565b600033905090565b60008060009054906101000a900473ffffffffffffffffffffffffffffffffffffffff169050816000806101000a81548173ffffffffffffffffffffffffffffffffffffffff021916908373ffffffffffffffffffffffffffffffffffffffff1602179055508173ffffffffffffffffffffffffffffffffffffffff168173ffffffffffffffffffffffffffffffffffffffff167f8be0079c531659141344cd1fd0a4f28419497f9722a3daafe3b4186f6b6457e060405160405180910390a35050565b6121098282610bec565b600960008473ffffffffffffffffffffffffffffffffffffffff1673ffffffffffffffffffffffffffffffffffffffff168152602001908152602001600020819055506121568282610bec565b600760008473ffffffffffffffffffffffffffffffffffffffff1673ffffffffffffffffffffffffffffffffffffffff16815260200190815260200160002060008282546121a491906129a4565b925050819055506121b3610e2d565b600660008473ffffffffffffffffffffffffffffffffffffffff1673ffffffffffffffffffffffffffffffffffffffff168152602001908152602001600020819055505050565b80600b600082825461220c9190612a85565b9250508190555080600d60003373ffffffffffffffffffffffffffffffffffffffff1673ffffffffffffffffffffffffffffffffffffffff16815260200190815260200160002060008282546122629190612a85565b9250508190555050565b81600b600082825461227e91906129a4565b9250508190555081600d60008373ffffffffffffffffffffffffffffffffffffffff1673ffffffffffffffffffffffffffffffffffffffff16815260200190815260200160002060008282546122d491906129a4565b925050819055505050565b6040518061012001604052806000815260200160008152602001600081526020016000815260200160008152602001600081526020016000815260200160008152602001600081525090565b60008135905061233a81612d3c565b92915050565b60008135905061234f81612d53565b92915050565b60008151905061236481612d53565b92915050565b60008135905061237981612d6a565b92915050565b60008151905061238e81612d6a565b92915050565b6000602082840312156123a657600080fd5b60006123b48482850161232b565b91505092915050565b6000806000606084860312156123d257600080fd5b60006123e08682870161232b565b93505060206123f18682870161232b565b92505060406124028682870161236a565b9150509250925092565b6000806040838503121561241f57600080fd5b600061242d8582860161232b565b925050602061243e8582860161236a565b9150509250929050565b60008060006060848603121561245d57600080fd5b600061246b8682870161232b565b935050602061247c8682870161236a565b925050604061248d86828701612340565b9150509250925092565b6000806000606084860312156124ac57600080fd5b60006124ba8682870161232b565b93505060206124cb8682870161236a565b92505060406124dc8682870161236a565b9150509250925092565b6000602082840312156124f857600080fd5b600061250684828501612355565b91505092915050565b60006020828403121561252157600080fd5b600061252f8482850161236a565b91505092915050565b60006020828403121561254a57600080fd5b60006125588482850161237f565b91505092915050565b6000806040838503121561257457600080fd5b60006125828582860161236a565b92505060206125938582860161232b565b9150509250929050565b600080604083850312156125b057600080fd5b60006125be8582860161236a565b92505060206125cf8582860161236a565b9150509250929050565b6000806000606084860312156125ee57600080fd5b60006125fc8682870161236a565b935050602061260d8682870161236a565b925050604061261e8682870161236a565b9150509250925092565b61263181612ab9565b82525050565b6000612644602683612993565b915061264f82612b5f565b604082019050919050565b6000612667602583612993565b915061267282612bae565b604082019050919050565b600061268a602983612993565b915061269582612bfd565b604082019050919050565b60006126ad602c83612993565b91506126b882612c4c565b604082019050919050565b60006126d0602083612993565b91506126db82612c9b565b602082019050919050565b60006126f3602983612993565b91506126fe82612cc4565b604082019050919050565b6000612716601f83612993565b915061272182612d13565b602082019050919050565b6101208201600082015161274360008501826127e3565b50602082015161275660208501826127e3565b50604082015161276960408501826127e3565b50606082015161277c60608501826127e3565b50608082015161278f60808501826127e3565b5060a08201516127a260a08501826127e3565b5060c08201516127b560c08501826127e3565b5060e08201516127c860e08501826127e3565b506101008201516127dd6101008501826127e3565b50505050565b6127ec81612af7565b82525050565b6127fb81612af7565b82525050565b60006020820190506128166000830184612628565b92915050565b60006060820190506128316000830186612628565b61283e6020830185612628565b61284b60408301846127f2565b949350505050565b60006040820190506128686000830185612628565b61287560208301846127f2565b9392505050565b6000602082019050818103600083015261289581612637565b9050919050565b600060208201905081810360008301526128b58161265a565b9050919050565b600060208201905081810360008301526128d58161267d565b9050919050565b600060208201905081810360008301526128f5816126a0565b9050919050565b60006020820190508181036000830152612915816126c3565b9050919050565b60006020820190508181036000830152612935816126e6565b9050919050565b6000602082019050818103600083015261295581612709565b9050919050565b600061012082019050612972600083018461272c565b92915050565b600060208201905061298d60008301846127f2565b92915050565b600082825260208201905092915050565b60006129af82612af7565b91506129ba83612af7565b9250827fffffffffffffffffffffffffffffffffffffffffffffffffffffffffffffffff038211156129ef576129ee612b01565b5b828201905092915050565b6000612a0582612af7565b9150612a1083612af7565b925082612a2057612a1f612b30565b5b828204905092915050565b6000612a3682612af7565b9150612a4183612af7565b9250817fffffffffffffffffffffffffffffffffffffffffffffffffffffffffffffffff0483118215151615612a7a57612a79612b01565b5b828202905092915050565b6000612a9082612af7565b9150612a9b83612af7565b925082821015612aae57612aad612b01565b5b828203905092915050565b6000612ac482612ad7565b9050919050565b60008115159050919050565b600073ffffffffffffffffffffffffffffffffffffffff82169050919050565b6000819050919050565b7f4e487b7100000000000000000000000000000000000000000000000000000000600052601160045260246000fd5b7f4e487b7100000000000000000000000000000000000000000000000000000000600052601260045260246000fd5b7f4f776e61626c653a206e6577206f776e657220697320746865207a65726f206160008201527f6464726573730000000000000000000000000000000000000000000000000000602082015250565b7f596f75206e65656420746f207472616e73666572206c657373207468616e207360008201527f746f726564000000000000000000000000000000000000000000000000000000602082015250565b7f596f75206e65656420746f207472616e73666572206174206c6561737420736f60008201527f6d6520746f6b656e730000000000000000000000000000000000000000000000602082015250565b7f596f75206e65656420746f20636f6c6c656374206c657373207468616e20636f60008201527f6c6c656374506572557365720000000000000000000000000000000000000000602082015250565b7f4f776e61626c653a2063616c6c6572206973206e6f7420746865206f776e6572600082015250565b7f596f75206e65656420746f206465706f73697465206174206c6561737420736f60008201527f6d6520746f6b656e730000000000000000000000000000000000000000000000602082015250565b7f5265656e7472616e637947756172643a207265656e7472616e742063616c6c00600082015250565b612d4581612ab9565b8114612d5057600080fd5b50565b612d5c81612acb565b8114612d6757600080fd5b50565b612d7381612af7565b8114612d7e57600080fd5b5056fea2646970667358221220ebd0cddbb0784bd7bbfe0069dd949d58ad237f569e32839294e8f3d8fd989dfb64736f6c63430008040033",
  "immutableReferences": {},
  "source": "// SPDX-License-Identifier: UNLICENSED\r\npragma solidity 0.8.4;\r\n\r\nimport \"@openzeppelin/contracts/token/ERC721/ERC721.sol\";\r\nimport \"@openzeppelin/contracts/token/ERC20/IERC20.sol\";\r\nimport \"@openzeppelin/contracts/access/Ownable.sol\";\r\nimport \"@openzeppelin/contracts/utils/math/SafeMath.sol\";\r\nimport \"@openzeppelin/contracts/security/ReentrancyGuard.sol\";\r\n\r\ncontract PumlStake is Ownable, ReentrancyGuard {\r\n\r\n    IERC20 _puml;\r\n\r\n    constructor() {\r\n        _puml = IERC20(0xbc75ECc12c77506DCFd70113B15683A9a0768AB4);\r\n    }\r\n\r\n    using SafeMath for uint256;\r\n\r\n    /* ========== STATE VARIABLES ========== */\r\n\r\n    uint256 public avgBlocksPerDay = 6500;\r\n    uint256 public blockLength = 2372500;\r\n    uint256 public secondPerDay = 86400;\r\n\r\n    mapping(address => uint256) public userLastUpdateTime;\r\n    mapping(address => uint256) public userRewardStored;\r\n    mapping(address => uint256) public userLastReward;\r\n    mapping(address => uint256) public userLastCollect;\r\n    mapping(address => uint256) public userRewardPaid;\r\n\r\n    uint256 public totalSupply;\r\n    uint256 public totalSupplyNFT;\r\n    mapping(address => uint256) public balances;\r\n    mapping(address => uint256) public balancesNFT;\r\n    mapping(uint256 => address) public stakedAssets;\r\n\r\n    struct UserData {\r\n        uint256 userLastUpdateTime;\r\n        uint256 userRewardStored;\r\n        uint256 userRewardPaid;\r\n        uint256 userLastReward;\r\n        uint256 userLastCollect;\r\n        uint256 balances;\r\n        uint256 totalBalances;\r\n        uint256 balancesNFT;\r\n        uint256 totalBalancesNFT;\r\n    }\r\n\r\n\r\n\r\n    /* ========== VIEWS ========== */\r\n\r\n    function getStakedAssets(uint256 _tokenId) public view returns (address) {\r\n        return stakedAssets[_tokenId];\r\n    }\r\n\r\n    function setStakedAssets(uint256 _tokenId, address _address) public {\r\n        stakedAssets[_tokenId] = _address;\r\n    }\r\n\r\n    function setBalancesNFT(address _address, uint256 _amount, bool param) public {\r\n        if (param) {\r\n            balancesNFT[_address] += _amount;\r\n            totalSupplyNFT += _amount;\r\n        } else {\r\n            balancesNFT[_address] -= _amount;\r\n            totalSupplyNFT -= _amount;\r\n        }\r\n    }\r\n\r\n    function setUserUpdate(address account, uint256 feeward) public {\r\n        _updatePerUser(account, feeward);\r\n    }\r\n\r\n    function setUserRewardUpdate(address account, uint256 reward) public {\r\n        _updateRewardPerUser(account, reward);\r\n    }\r\n\r\n    function lastTimeRewardApplicable() public view returns (uint256) {\r\n        return block.timestamp;\r\n    }\r\n\r\n    function balanceOfPumlx() public view returns (uint256) {\r\n        return _puml.balanceOf(address(this));\r\n    }\r\n\r\n    function collectPerUser(address account, uint256 feeward) public view returns (uint256) {\r\n        uint256 collectRate = feeward;\r\n        if (totalSupply > 0) {\r\n            collectRate += balances[account]/totalSupply;\r\n        }\r\n        if (totalSupplyNFT > 0) {\r\n            collectRate += balancesNFT[account]/totalSupplyNFT;\r\n        }\r\n        return collectRate.mul((balanceOfPumlx()/blockLength).mul(avgBlocksPerDay)).mul(lastTimeRewardApplicable()-userLastUpdateTime[account])/secondPerDay;\r\n    }\r\n\r\n    function _updatePerUser(address account, uint256 feeward) internal {\r\n        userLastCollect[account] = collectPerUser(account, feeward);\r\n        userRewardStored[account] += collectPerUser(account, feeward);\r\n        userLastUpdateTime[account] = lastTimeRewardApplicable();\r\n    }\r\n\r\n    function _updateRewardPerUser(address account, uint256 reward) internal {\r\n        userLastReward[account] = reward;\r\n        userRewardPaid[account] += reward;\r\n        userRewardStored[account] -= reward;\r\n    }\r\n\r\n    function getUserData(address account) public view returns (UserData memory) {\r\n        UserData memory userdata = UserData({\r\n            userLastUpdateTime: userLastUpdateTime[account],\r\n            userRewardStored: userRewardStored[account],\r\n            userRewardPaid: userRewardPaid[account],\r\n            userLastReward: userLastReward[account],\r\n            userLastCollect: userLastCollect[account],\r\n            balances: balances[account],\r\n            totalBalances: totalSupply,\r\n            balancesNFT: balancesNFT[account],\r\n            totalBalancesNFT: totalSupplyNFT\r\n        });\r\n\r\n        return userdata;\r\n    }\r\n\r\n    function setTransferPuml(address _from, address _to, uint256 _amount) public {\r\n        require(_amount > 0, \"You need to transfer at least some tokens\");\r\n        _puml.transferFrom(_from, _to, _amount);\r\n    }\r\n\r\n    function setDepositPuml(address _from, uint256 _amount) public {\r\n        require(_amount > 0, \"You need to deposite at least some tokens\");\r\n        _puml.transferFrom(_from, address(this), _amount);\r\n    }\r\n\r\n\r\n    /* ========== MUTATIVE FUNCTIONS ========== */\r\n\r\n    function stake(uint256 amount, uint256 stakeamount, uint256 feeward) external payable nonReentrant {\r\n\r\n        _updatePerUser(msg.sender, feeward);\r\n        _stake(amount, msg.sender);\r\n        emit Staked(msg.sender, amount);\r\n\r\n        _puml.transferFrom(msg.sender, address(this), stakeamount);\r\n    }\r\n\r\n    function withdraw(uint256 amount, uint256 unstakeamount, uint256 feeward) public payable nonReentrant {\r\n\r\n        _updatePerUser(msg.sender, feeward);\r\n        _withdraw(amount);\r\n        emit Withdrawn(msg.sender, amount);\r\n\r\n        _puml.transfer(msg.sender, unstakeamount);\r\n    }\r\n\r\n    function claim(uint256 reward, uint256 feeward) public payable nonReentrant {\r\n        require( userRewardStored[msg.sender] > reward, \"You need to transfer less than stored\");\r\n        if (reward > 0) {\r\n            _updatePerUser(msg.sender, feeward);\r\n            _updateRewardPerUser(msg.sender, reward);\r\n            _puml.transfer(msg.sender, reward);\r\n\r\n            emit RewardPaid(msg.sender, reward);\r\n        }\r\n    }\r\n\r\n    function claimApi(address claimer, uint256 reward, uint256 feeward) public payable nonReentrant {\r\n        require( userRewardStored[claimer] > reward, \"You need to transfer less than stored\");\r\n        if (reward > 0) {\r\n            _updatePerUser(claimer, feeward);\r\n            _updateRewardPerUser(claimer, reward);\r\n            _puml.transfer(claimer, reward);\r\n\r\n            emit RewardPaid(claimer, reward);\r\n        }\r\n    }\r\n\r\n    function collect(uint256 amount, uint256 feeward) public payable nonReentrant {\r\n        require( collectPerUser(msg.sender, feeward) > amount, \"You need to collect less than collectPerUser\");\r\n        if (amount > 0) {\r\n            userLastCollect[msg.sender] = amount;\r\n            userRewardStored[msg.sender] += amount;\r\n            userLastUpdateTime[msg.sender] = lastTimeRewardApplicable();\r\n\r\n            emit Collect(msg.sender, amount);\r\n        }\r\n    }\r\n\r\n    function _stake(uint256 _amount, address _staker) internal {\r\n        totalSupply += _amount;\r\n        balances[_staker] += _amount;\r\n    }\r\n\r\n    function _withdraw(uint256 _amount) internal {\r\n        totalSupply -= _amount;\r\n        balances[msg.sender] -= _amount;\r\n    }\r\n\r\n    function transferPuml(address _to, uint256 _amount) public payable nonReentrant {\r\n        require(_amount > 0, \"You need to transfer at least some tokens\");\r\n        _puml.transferFrom(msg.sender, _to, _amount);\r\n    }\r\n\r\n    function pickPuml(address _to, uint256 _amount) public payable nonReentrant {\r\n        require(_amount > 0, \"You need to transfer at least some tokens\");\r\n        _puml.transfer(_to, _amount);\r\n    }\r\n\r\n    function depositPuml(uint256 _amount) public payable nonReentrant {\r\n        require(_amount > 0, \"You need to deposite at least some tokens\");\r\n        _puml.transferFrom(msg.sender, address(this), _amount);\r\n    }\r\n\r\n    /* ========== MODIFIERS ========== */\r\n\r\n    modifier updateReward(address account, uint256 reward) {\r\n        if (account != address(0)) {\r\n            userLastReward[account] = reward;\r\n            userRewardStored[account] -= reward;\r\n        }\r\n         _;\r\n    }\r\n\r\n    modifier checkAllowance(uint amount) {\r\n        require(_puml.allowance(msg.sender, address(this)) >= amount, \"Error\");\r\n        _;\r\n    }\r\n\r\n    /* ========== EVENTS ========== */\r\n\r\n\r\n    event Staked(address indexed user, uint256 amount);\r\n    event Withdrawn(address indexed user, uint256 amount);\r\n    event RewardPaid(address indexed user, uint256 reward);\r\n    event Collect(address indexed user, uint256 amount);\r\n}\r\n",
  "sourcePath": "F:\\work\\puml-project\\ethcontracts\\contracts\\PumlStake.sol",
  "compiler": {
    "name": "solc",
    "version": "0.8.4+commit.c7e474f2.Emscripten.clang"
  },
  "schemaVersion": "3.4.5",
  "updatedAt": "2022-09-01T20:35:59.280Z",
  "devdoc": {
    "kind": "dev",
    "methods": {
      "owner()": {
        "details": "Returns the address of the current owner."
      },
      "renounceOwnership()": {
        "details": "Leaves the contract without owner. It will not be possible to call `onlyOwner` functions anymore. Can only be called by the current owner. NOTE: Renouncing ownership will leave the contract without an owner, thereby removing any functionality that is only available to the owner."
      },
      "transferOwnership(address)": {
        "details": "Transfers ownership of the contract to a new account (`newOwner`). Can only be called by the current owner."
      }
    },
    "version": 1
  },
  "userdoc": {
    "kind": "user",
    "methods": {},
    "version": 1
  }
}