{
  "contractName": "PumlStake",
  "abi": [
    {
      "inputs": [],
      "stateMutability": "nonpayable",
      "type": "constructor"
    },
    {
      "anonymous": false,
      "inputs": [
        {
          "indexed": true,
          "internalType": "address",
          "name": "user",
          "type": "address"
        },
        {
          "indexed": false,
          "internalType": "uint256",
          "name": "amount",
          "type": "uint256"
        }
      ],
      "name": "Collect",
      "type": "event"
    },
    {
      "anonymous": false,
      "inputs": [
        {
          "indexed": true,
          "internalType": "address",
          "name": "previousOwner",
          "type": "address"
        },
        {
          "indexed": true,
          "internalType": "address",
          "name": "newOwner",
          "type": "address"
        }
      ],
      "name": "OwnershipTransferred",
      "type": "event"
    },
    {
      "anonymous": false,
      "inputs": [
        {
          "indexed": true,
          "internalType": "address",
          "name": "user",
          "type": "address"
        },
        {
          "indexed": false,
          "internalType": "uint256",
          "name": "reward",
          "type": "uint256"
        }
      ],
      "name": "RewardPaid",
      "type": "event"
    },
    {
      "anonymous": false,
      "inputs": [
        {
          "indexed": true,
          "internalType": "address",
          "name": "user",
          "type": "address"
        },
        {
          "indexed": false,
          "internalType": "uint256",
          "name": "amount",
          "type": "uint256"
        }
      ],
      "name": "Staked",
      "type": "event"
    },
    {
      "anonymous": false,
      "inputs": [
        {
          "indexed": true,
          "internalType": "address",
          "name": "user",
          "type": "address"
        },
        {
          "indexed": false,
          "internalType": "uint256",
          "name": "amount",
          "type": "uint256"
        }
      ],
      "name": "Withdrawn",
      "type": "event"
    },
    {
      "inputs": [],
      "name": "avgBlocksPerDay",
      "outputs": [
        {
          "internalType": "uint256",
          "name": "",
          "type": "uint256"
        }
      ],
      "stateMutability": "view",
      "type": "function"
    },
    {
      "inputs": [
        {
          "internalType": "address",
          "name": "",
          "type": "address"
        }
      ],
      "name": "balances",
      "outputs": [
        {
          "internalType": "uint256",
          "name": "",
          "type": "uint256"
        }
      ],
      "stateMutability": "view",
      "type": "function"
    },
    {
      "inputs": [
        {
          "internalType": "address",
          "name": "",
          "type": "address"
        }
      ],
      "name": "balancesNFT",
      "outputs": [
        {
          "internalType": "uint256",
          "name": "",
          "type": "uint256"
        }
      ],
      "stateMutability": "view",
      "type": "function"
    },
    {
      "inputs": [],
      "name": "blockLength",
      "outputs": [
        {
          "internalType": "uint256",
          "name": "",
          "type": "uint256"
        }
      ],
      "stateMutability": "view",
      "type": "function"
    },
    {
      "inputs": [],
      "name": "owner",
      "outputs": [
        {
          "internalType": "address",
          "name": "",
          "type": "address"
        }
      ],
      "stateMutability": "view",
      "type": "function"
    },
    {
      "inputs": [],
      "name": "renounceOwnership",
      "outputs": [],
      "stateMutability": "nonpayable",
      "type": "function"
    },
    {
      "inputs": [
        {
          "internalType": "uint256",
          "name": "",
          "type": "uint256"
        }
      ],
      "name": "stakedAssets",
      "outputs": [
        {
          "internalType": "address",
          "name": "",
          "type": "address"
        }
      ],
      "stateMutability": "view",
      "type": "function"
    },
    {
      "inputs": [],
      "name": "totalSupply",
      "outputs": [
        {
          "internalType": "uint256",
          "name": "",
          "type": "uint256"
        }
      ],
      "stateMutability": "view",
      "type": "function"
    },
    {
      "inputs": [],
      "name": "totalSupplyNFT",
      "outputs": [
        {
          "internalType": "uint256",
          "name": "",
          "type": "uint256"
        }
      ],
      "stateMutability": "view",
      "type": "function"
    },
    {
      "inputs": [
        {
          "internalType": "address",
          "name": "newOwner",
          "type": "address"
        }
      ],
      "name": "transferOwnership",
      "outputs": [],
      "stateMutability": "nonpayable",
      "type": "function"
    },
    {
      "inputs": [
        {
          "internalType": "address",
          "name": "",
          "type": "address"
        }
      ],
      "name": "userLastCollect",
      "outputs": [
        {
          "internalType": "uint256",
          "name": "",
          "type": "uint256"
        }
      ],
      "stateMutability": "view",
      "type": "function"
    },
    {
      "inputs": [
        {
          "internalType": "address",
          "name": "",
          "type": "address"
        }
      ],
      "name": "userLastReward",
      "outputs": [
        {
          "internalType": "uint256",
          "name": "",
          "type": "uint256"
        }
      ],
      "stateMutability": "view",
      "type": "function"
    },
    {
      "inputs": [
        {
          "internalType": "address",
          "name": "",
          "type": "address"
        }
      ],
      "name": "userLastUpdateTime",
      "outputs": [
        {
          "internalType": "uint256",
          "name": "",
          "type": "uint256"
        }
      ],
      "stateMutability": "view",
      "type": "function"
    },
    {
      "inputs": [
        {
          "internalType": "address",
          "name": "",
          "type": "address"
        }
      ],
      "name": "userRewardPaid",
      "outputs": [
        {
          "internalType": "uint256",
          "name": "",
          "type": "uint256"
        }
      ],
      "stateMutability": "view",
      "type": "function"
    },
    {
      "inputs": [
        {
          "internalType": "address",
          "name": "",
          "type": "address"
        }
      ],
      "name": "userRewardStored",
      "outputs": [
        {
          "internalType": "uint256",
          "name": "",
          "type": "uint256"
        }
      ],
      "stateMutability": "view",
      "type": "function"
    },
    {
      "inputs": [
        {
          "internalType": "uint256",
          "name": "_tokenId",
          "type": "uint256"
        }
      ],
      "name": "getStakedAssets",
      "outputs": [
        {
          "internalType": "address",
          "name": "",
          "type": "address"
        }
      ],
      "stateMutability": "view",
      "type": "function"
    },
    {
      "inputs": [
        {
          "internalType": "uint256",
          "name": "_tokenId",
          "type": "uint256"
        },
        {
          "internalType": "address",
          "name": "_address",
          "type": "address"
        }
      ],
      "name": "setStakedAssets",
      "outputs": [],
      "stateMutability": "nonpayable",
      "type": "function"
    },
    {
      "inputs": [
        {
          "internalType": "address",
          "name": "_address",
          "type": "address"
        },
        {
          "internalType": "uint256",
          "name": "_amount",
          "type": "uint256"
        },
        {
          "internalType": "bool",
          "name": "param",
          "type": "bool"
        }
      ],
      "name": "setBalancesNFT",
      "outputs": [],
      "stateMutability": "nonpayable",
      "type": "function"
    },
    {
      "inputs": [
        {
          "internalType": "address",
          "name": "account",
          "type": "address"
        },
        {
          "internalType": "uint256",
          "name": "feeward",
          "type": "uint256"
        }
      ],
      "name": "setUserUpdate",
      "outputs": [],
      "stateMutability": "nonpayable",
      "type": "function"
    },
    {
      "inputs": [
        {
          "internalType": "address",
          "name": "account",
          "type": "address"
        },
        {
          "internalType": "uint256",
          "name": "reward",
          "type": "uint256"
        }
      ],
      "name": "setUserRewardUpdate",
      "outputs": [],
      "stateMutability": "nonpayable",
      "type": "function"
    },
    {
      "inputs": [],
      "name": "lastTimeRewardApplicable",
      "outputs": [
        {
          "internalType": "uint256",
          "name": "",
          "type": "uint256"
        }
      ],
      "stateMutability": "view",
      "type": "function"
    },
    {
      "inputs": [],
      "name": "balanceOfPumlx",
      "outputs": [
        {
          "internalType": "uint256",
          "name": "",
          "type": "uint256"
        }
      ],
      "stateMutability": "view",
      "type": "function"
    },
    {
      "inputs": [
        {
          "internalType": "address",
          "name": "account",
          "type": "address"
        },
        {
          "internalType": "uint256",
          "name": "feeward",
          "type": "uint256"
        }
      ],
      "name": "collectPerUser",
      "outputs": [
        {
          "internalType": "uint256",
          "name": "",
          "type": "uint256"
        }
      ],
      "stateMutability": "view",
      "type": "function"
    },
    {
      "inputs": [
        {
          "internalType": "address",
          "name": "account",
          "type": "address"
        }
      ],
      "name": "getUserData",
      "outputs": [
        {
          "components": [
            {
              "internalType": "uint256",
              "name": "userLastUpdateTime",
              "type": "uint256"
            },
            {
              "internalType": "uint256",
              "name": "userRewardStored",
              "type": "uint256"
            },
            {
              "internalType": "uint256",
              "name": "userRewardPaid",
              "type": "uint256"
            },
            {
              "internalType": "uint256",
              "name": "userLastReward",
              "type": "uint256"
            },
            {
              "internalType": "uint256",
              "name": "userLastCollect",
              "type": "uint256"
            },
            {
              "internalType": "uint256",
              "name": "balances",
              "type": "uint256"
            },
            {
              "internalType": "uint256",
              "name": "totalBalances",
              "type": "uint256"
            },
            {
              "internalType": "uint256",
              "name": "balancesNFT",
              "type": "uint256"
            },
            {
              "internalType": "uint256",
              "name": "totalBalancesNFT",
              "type": "uint256"
            }
          ],
          "internalType": "struct PumlStake.UserData",
          "name": "",
          "type": "tuple"
        }
      ],
      "stateMutability": "view",
      "type": "function"
    },
    {
      "inputs": [
        {
          "internalType": "address",
          "name": "_from",
          "type": "address"
        },
        {
          "internalType": "address",
          "name": "_to",
          "type": "address"
        },
        {
          "internalType": "uint256",
          "name": "_amount",
          "type": "uint256"
        }
      ],
      "name": "setTransferPuml",
      "outputs": [],
      "stateMutability": "nonpayable",
      "type": "function"
    },
    {
      "inputs": [
        {
          "internalType": "address",
          "name": "_from",
          "type": "address"
        },
        {
          "internalType": "uint256",
          "name": "_amount",
          "type": "uint256"
        }
      ],
      "name": "setDepositPuml",
      "outputs": [],
      "stateMutability": "nonpayable",
      "type": "function"
    },
    {
      "inputs": [
        {
          "internalType": "uint256",
          "name": "amount",
          "type": "uint256"
        },
        {
          "internalType": "uint256",
          "name": "stakeamount",
          "type": "uint256"
        },
        {
          "internalType": "uint256",
          "name": "feeward",
          "type": "uint256"
        }
      ],
      "name": "stake",
      "outputs": [],
      "stateMutability": "payable",
      "type": "function"
    },
    {
      "inputs": [
        {
          "internalType": "uint256",
          "name": "amount",
          "type": "uint256"
        },
        {
          "internalType": "uint256",
          "name": "unstakeamount",
          "type": "uint256"
        },
        {
          "internalType": "uint256",
          "name": "feeward",
          "type": "uint256"
        }
      ],
      "name": "withdraw",
      "outputs": [],
      "stateMutability": "payable",
      "type": "function"
    },
    {
      "inputs": [
        {
          "internalType": "uint256",
          "name": "reward",
          "type": "uint256"
        },
        {
          "internalType": "uint256",
          "name": "feeward",
          "type": "uint256"
        }
      ],
      "name": "claim",
      "outputs": [],
      "stateMutability": "payable",
      "type": "function"
    },
    {
      "inputs": [
        {
          "internalType": "address",
          "name": "claimer",
          "type": "address"
        },
        {
          "internalType": "uint256",
          "name": "reward",
          "type": "uint256"
        },
        {
          "internalType": "uint256",
          "name": "feeward",
          "type": "uint256"
        }
      ],
      "name": "claimApi",
      "outputs": [],
      "stateMutability": "payable",
      "type": "function"
    },
    {
      "inputs": [
        {
          "internalType": "uint256",
          "name": "amount",
          "type": "uint256"
        },
        {
          "internalType": "uint256",
          "name": "feeward",
          "type": "uint256"
        }
      ],
      "name": "collect",
      "outputs": [],
      "stateMutability": "payable",
      "type": "function"
    },
    {
      "inputs": [
        {
          "internalType": "address",
          "name": "_to",
          "type": "address"
        },
        {
          "internalType": "uint256",
          "name": "_amount",
          "type": "uint256"
        }
      ],
      "name": "transferPuml",
      "outputs": [],
      "stateMutability": "payable",
      "type": "function"
    },
    {
      "inputs": [
        {
          "internalType": "address",
          "name": "_to",
          "type": "address"
        },
        {
          "internalType": "uint256",
          "name": "_amount",
          "type": "uint256"
        }
      ],
      "name": "pickPuml",
      "outputs": [],
      "stateMutability": "payable",
      "type": "function"
    },
    {
      "inputs": [
        {
          "internalType": "uint256",
          "name": "_amount",
          "type": "uint256"
        }
      ],
      "name": "depositPuml",
      "outputs": [],
      "stateMutability": "payable",
      "type": "function"
    }
  ],
  "bytecode": "0x6080604052611964600355622433946004553480156200001e57600080fd5b506200003f62000033620000a160201b60201c565b620000a960201b60201c565b6001808190555073bc75ecc12c77506dcfd70113b15683a9a0768ab4600260006101000a81548173ffffffffffffffffffffffffffffffffffffffff021916908373ffffffffffffffffffffffffffffffffffffffff1602179055506200016d565b600033905090565b60008060009054906101000a900473ffffffffffffffffffffffffffffffffffffffff169050816000806101000a81548173ffffffffffffffffffffffffffffffffffffffff021916908373ffffffffffffffffffffffffffffffffffffffff1602179055508173ffffffffffffffffffffffffffffffffffffffff168173ffffffffffffffffffffffffffffffffffffffff167f8be0079c531659141344cd1fd0a4f28419497f9722a3daafe3b4186f6b6457e060405160405180910390a35050565b612d91806200017d6000396000f3fe6080604052600436106101f95760003560e01c806392ebf4dd1161010d578063bcb4fa42116100a0578063d4a881821161006f578063d4a88182146106f6578063f2fde38b14610733578063f47cbe171461075c578063fe6ad68614610778578063ffc9896b146107a3576101f9565b8063bcb4fa4214610658578063c349026314610681578063cfa6f8271461069d578063d17f742a146106b9576101f9565b8063a638f2e2116100dc578063a638f2e2146105b8578063b0ea6a84146105d4578063b3ddcb79146105ff578063ba14f26a1461061b576101f9565b806392ebf4dd1461051d5780639d756a8d14610548578063a145203b14610571578063a41fe49f1461059c576101f9565b80635db8de191161019057806380faa57d1161015f57806380faa57d1461044557806381051b80146104705780638107368b146104995780638a007902146104d65780638da5cb5b146104f2576101f9565b80635db8de191461038b5780636fd52ccc146103b4578063715018a6146103f15780637d8fc88e14610408576101f9565b80631aa24d62116101cc5780631aa24d62146102bf57806327e235e3146102e85780633a42b053146103255780633dfc708714610362576101f9565b80630190b2c2146101fe5780630223705e1461021a57806307c217ec1461025757806318160ddd14610294575b600080fd5b610218600480360381019061021391906123e6565b6107e0565b005b34801561022657600080fd5b50610241600480360381019061023c919061236e565b61092e565b60405161024e9190612952565b60405180910390f35b34801561026357600080fd5b5061027e6004803603810190610279919061236e565b610946565b60405161028b9190612952565b60405180910390f35b3480156102a057600080fd5b506102a961095e565b6040516102b69190612952565b60405180910390f35b3480156102cb57600080fd5b506102e660048036038101906102e191906123e6565b610964565b005b3480156102f457600080fd5b5061030f600480360381019061030a919061236e565b610972565b60405161031c9190612952565b60405180910390f35b34801561033157600080fd5b5061034c600480360381019061034791906124e9565b61098a565b60405161035991906127db565b60405180910390f35b34801561036e57600080fd5b5061038960048036038101906103849190612397565b6109c7565b005b34801561039757600080fd5b506103b260048036038101906103ad9190612422565b610ac1565b005b3480156103c057600080fd5b506103db60048036038101906103d691906123e6565b610bb0565b6040516103e89190612952565b60405180910390f35b3480156103fd57600080fd5b50610406610d4c565b005b34801561041457600080fd5b5061042f600480360381019061042a91906124e9565b610dd4565b60405161043c91906127db565b60405180910390f35b34801561045157600080fd5b5061045a610e07565b6040516104679190612952565b60405180910390f35b34801561047c57600080fd5b50610497600480360381019061049291906123e6565b610e0f565b005b3480156104a557600080fd5b506104c060048036038101906104bb919061236e565b610e1d565b6040516104cd9190612952565b60405180910390f35b6104f060048036038101906104eb9190612471565b610e35565b005b3480156104fe57600080fd5b5061050761102c565b60405161051491906127db565b60405180910390f35b34801561052957600080fd5b50610532611055565b60405161053f9190612952565b60405180910390f35b34801561055457600080fd5b5061056f600480360381019061056a91906123e6565b61105b565b005b34801561057d57600080fd5b50610586611154565b6040516105939190612952565b60405180910390f35b6105b660048036038101906105b191906125b3565b61115a565b005b6105d260048036038101906105cd91906125b3565b6112c5565b005b3480156105e057600080fd5b506105e9611433565b6040516105f69190612952565b60405180910390f35b610619600480360381019061061491906124e9565b611439565b005b34801561062757600080fd5b50610642600480360381019061063d919061236e565b611586565b60405161064f9190612952565b60405180910390f35b34801561066457600080fd5b5061067f600480360381019061067a919061253b565b61159e565b005b61069b60048036038101906106969190612577565b6115f4565b005b6106b760048036038101906106b29190612577565b6117ea565b005b3480156106c557600080fd5b506106e060048036038101906106db919061236e565b6119cb565b6040516106ed9190612952565b60405180910390f35b34801561070257600080fd5b5061071d6004803603810190610718919061236e565b6119e3565b60405161072a9190612952565b60405180910390f35b34801561073f57600080fd5b5061075a6004803603810190610755919061236e565b6119fb565b005b610776600480360381019061077191906123e6565b611af3565b005b34801561078457600080fd5b5061078d611c3f565b60405161079a9190612952565b60405180910390f35b3480156107af57600080fd5b506107ca60048036038101906107c5919061236e565b611cf1565b6040516107d79190612936565b60405180910390f35b60026001541415610826576040517f08c379a000000000000000000000000000000000000000000000000000000000815260040161081d90612916565b60405180910390fd5b600260018190555060008111610871576040517f08c379a000000000000000000000000000000000000000000000000000000000815260040161086890612896565b60405180910390fd5b600260009054906101000a900473ffffffffffffffffffffffffffffffffffffffff1673ffffffffffffffffffffffffffffffffffffffff166323b872dd3384846040518463ffffffff1660e01b81526004016108d0939291906127f6565b602060405180830381600087803b1580156108ea57600080fd5b505af11580156108fe573d6000803e3d6000fd5b505050506040513d601f19601f8201168201806040525081019061092291906124c0565b50600180819055505050565b600d6020528060005260406000206000915090505481565b60066020528060005260406000206000915090505481565b600a5481565b61096e8282611f03565b5050565b600c6020528060005260406000206000915090505481565b6000600e600083815260200190815260200160002060009054906101000a900473ffffffffffffffffffffffffffffffffffffffff169050919050565b60008111610a0a576040517f08c379a0000000000000000000000000000000000000000000000000000000008152600401610a0190612896565b60405180910390fd5b600260009054906101000a900473ffffffffffffffffffffffffffffffffffffffff1673ffffffffffffffffffffffffffffffffffffffff166323b872dd8484846040518463ffffffff1660e01b8152600401610a69939291906127f6565b602060405180830381600087803b158015610a8357600080fd5b505af1158015610a97573d6000803e3d6000fd5b505050506040513d601f19601f82011682018060405250810190610abb91906124c0565b50505050565b8015610b3b5781600d60008573ffffffffffffffffffffffffffffffffffffffff1673ffffffffffffffffffffffffffffffffffffffff1681526020019081526020016000206000828254610b16919061297e565b9250508190555081600b6000828254610b2f919061297e565b92505081905550610bab565b81600d60008573ffffffffffffffffffffffffffffffffffffffff1673ffffffffffffffffffffffffffffffffffffffff1681526020019081526020016000206000828254610b8a9190612a5f565b9250508190555081600b6000828254610ba39190612a5f565b925050819055505b505050565b6000808290506000600a541115610c1c57600a54600c60008673ffffffffffffffffffffffffffffffffffffffff1673ffffffffffffffffffffffffffffffffffffffff16815260200190815260200160002054610c0e91906129d4565b81610c19919061297e565b90505b6000600b541115610c8257600b54600d60008673ffffffffffffffffffffffffffffffffffffffff1673ffffffffffffffffffffffffffffffffffffffff16815260200190815260200160002054610c7491906129d4565b81610c7f919061297e565b90505b603c806018610d25600560008973ffffffffffffffffffffffffffffffffffffffff1673ffffffffffffffffffffffffffffffffffffffff16815260200190815260200160002054610cd2610e07565b610cdc9190612a5f565b610d17610d08600354600454610cf0611c3f565b610cfa91906129d4565b611ff790919063ffffffff16565b87611ff790919063ffffffff16565b611ff790919063ffffffff16565b610d2f91906129d4565b610d3991906129d4565b610d4391906129d4565b91505092915050565b610d5461200d565b73ffffffffffffffffffffffffffffffffffffffff16610d7261102c565b73ffffffffffffffffffffffffffffffffffffffff1614610dc8576040517f08c379a0000000000000000000000000000000000000000000000000000000008152600401610dbf906128d6565b60405180910390fd5b610dd26000612015565b565b600e6020528060005260406000206000915054906101000a900473ffffffffffffffffffffffffffffffffffffffff1681565b600042905090565b610e1982826120d9565b5050565b60056020528060005260406000206000915090505481565b60026001541415610e7b576040517f08c379a0000000000000000000000000000000000000000000000000000000008152600401610e7290612916565b60405180910390fd5b600260018190555081600660008573ffffffffffffffffffffffffffffffffffffffff1673ffffffffffffffffffffffffffffffffffffffff1681526020019081526020016000205411610f04576040517f08c379a0000000000000000000000000000000000000000000000000000000008152600401610efb90612876565b60405180910390fd5b600082111561102057610f1783826120d9565b610f218383611f03565b600260009054906101000a900473ffffffffffffffffffffffffffffffffffffffff1673ffffffffffffffffffffffffffffffffffffffff1663a9059cbb84846040518363ffffffff1660e01b8152600401610f7e92919061282d565b602060405180830381600087803b158015610f9857600080fd5b505af1158015610fac573d6000803e3d6000fd5b505050506040513d601f19601f82011682018060405250810190610fd091906124c0565b508273ffffffffffffffffffffffffffffffffffffffff167fe2403640ba68fed3a2f88b7557551d1993f84b99bb10ff833f0cf8db0c5e0486836040516110179190612952565b60405180910390a25b60018081905550505050565b60008060009054906101000a900473ffffffffffffffffffffffffffffffffffffffff16905090565b60035481565b6000811161109e576040517f08c379a0000000000000000000000000000000000000000000000000000000008152600401611095906128f6565b60405180910390fd5b600260009054906101000a900473ffffffffffffffffffffffffffffffffffffffff1673ffffffffffffffffffffffffffffffffffffffff166323b872dd8330846040518463ffffffff1660e01b81526004016110fd939291906127f6565b602060405180830381600087803b15801561111757600080fd5b505af115801561112b573d6000803e3d6000fd5b505050506040513d601f19601f8201168201806040525081019061114f91906124c0565b505050565b60045481565b600260015414156111a0576040517f08c379a000000000000000000000000000000000000000000000000000000000815260040161119790612916565b60405180910390fd5b60026001819055506111b233826120d9565b6111bb836121d4565b3373ffffffffffffffffffffffffffffffffffffffff167f7084f5476618d8e60b11ef0d7d3f06914655adb8793e28ff7f018d4c76d505d5846040516112019190612952565b60405180910390a2600260009054906101000a900473ffffffffffffffffffffffffffffffffffffffff1673ffffffffffffffffffffffffffffffffffffffff1663a9059cbb33846040518363ffffffff1660e01b815260040161126692919061282d565b602060405180830381600087803b15801561128057600080fd5b505af1158015611294573d6000803e3d6000fd5b505050506040513d601f19601f820116820180604052508101906112b891906124c0565b5060018081905550505050565b6002600154141561130b576040517f08c379a000000000000000000000000000000000000000000000000000000000815260040161130290612916565b60405180910390fd5b600260018190555061131d33826120d9565b6113278333612246565b3373ffffffffffffffffffffffffffffffffffffffff167f9e71bc8eea02a63969f509818f2dafb9254532904319f9dbda79b67bd34a5f3d8460405161136d9190612952565b60405180910390a2600260009054906101000a900473ffffffffffffffffffffffffffffffffffffffff1673ffffffffffffffffffffffffffffffffffffffff166323b872dd3330856040518463ffffffff1660e01b81526004016113d4939291906127f6565b602060405180830381600087803b1580156113ee57600080fd5b505af1158015611402573d6000803e3d6000fd5b505050506040513d601f19601f8201168201806040525081019061142691906124c0565b5060018081905550505050565b600b5481565b6002600154141561147f576040517f08c379a000000000000000000000000000000000000000000000000000000000815260040161147690612916565b60405180910390fd5b6002600181905550600081116114ca576040517f08c379a00000000000000000000000000000000000000000000000000000000081526004016114c1906128f6565b60405180910390fd5b600260009054906101000a900473ffffffffffffffffffffffffffffffffffffffff1673ffffffffffffffffffffffffffffffffffffffff166323b872dd3330846040518463ffffffff1660e01b8152600401611529939291906127f6565b602060405180830381600087803b15801561154357600080fd5b505af1158015611557573d6000803e3d6000fd5b505050506040513d601f19601f8201168201806040525081019061157b91906124c0565b506001808190555050565b60096020528060005260406000206000915090505481565b80600e600084815260200190815260200160002060006101000a81548173ffffffffffffffffffffffffffffffffffffffff021916908373ffffffffffffffffffffffffffffffffffffffff1602179055505050565b6002600154141561163a576040517f08c379a000000000000000000000000000000000000000000000000000000000815260040161163190612916565b60405180910390fd5b600260018190555081600660003373ffffffffffffffffffffffffffffffffffffffff1673ffffffffffffffffffffffffffffffffffffffff16815260200190815260200160002054116116c3576040517f08c379a00000000000000000000000000000000000000000000000000000000081526004016116ba90612876565b60405180910390fd5b60008211156117df576116d633826120d9565b6116e03383611f03565b600260009054906101000a900473ffffffffffffffffffffffffffffffffffffffff1673ffffffffffffffffffffffffffffffffffffffff1663a9059cbb33846040518363ffffffff1660e01b815260040161173d92919061282d565b602060405180830381600087803b15801561175757600080fd5b505af115801561176b573d6000803e3d6000fd5b505050506040513d601f19601f8201168201806040525081019061178f91906124c0565b503373ffffffffffffffffffffffffffffffffffffffff167fe2403640ba68fed3a2f88b7557551d1993f84b99bb10ff833f0cf8db0c5e0486836040516117d69190612952565b60405180910390a25b600180819055505050565b60026001541415611830576040517f08c379a000000000000000000000000000000000000000000000000000000000815260040161182790612916565b60405180910390fd5b6002600181905550816118433383610bb0565b11611883576040517f08c379a000000000000000000000000000000000000000000000000000000000815260040161187a906128b6565b60405180910390fd5b60008211156119c05781600860003373ffffffffffffffffffffffffffffffffffffffff1673ffffffffffffffffffffffffffffffffffffffff1681526020019081526020016000208190555081600660003373ffffffffffffffffffffffffffffffffffffffff1673ffffffffffffffffffffffffffffffffffffffff168152602001908152602001600020600082825461191f919061297e565b9250508190555061192e610e07565b600560003373ffffffffffffffffffffffffffffffffffffffff1673ffffffffffffffffffffffffffffffffffffffff168152602001908152602001600020819055503373ffffffffffffffffffffffffffffffffffffffff167f4256a058fa2b123d727576d3d31e3a272db98ee5fe264e229610ce43dc849999836040516119b79190612952565b60405180910390a25b600180819055505050565b60076020528060005260406000206000915090505481565b60086020528060005260406000206000915090505481565b611a0361200d565b73ffffffffffffffffffffffffffffffffffffffff16611a2161102c565b73ffffffffffffffffffffffffffffffffffffffff1614611a77576040517f08c379a0000000000000000000000000000000000000000000000000000000008152600401611a6e906128d6565b60405180910390fd5b600073ffffffffffffffffffffffffffffffffffffffff168173ffffffffffffffffffffffffffffffffffffffff161415611ae7576040517f08c379a0000000000000000000000000000000000000000000000000000000008152600401611ade90612856565b60405180910390fd5b611af081612015565b50565b60026001541415611b39576040517f08c379a0000000000000000000000000000000000000000000000000000000008152600401611b3090612916565b60405180910390fd5b600260018190555060008111611b84576040517f08c379a0000000000000000000000000000000000000000000000000000000008152600401611b7b90612896565b60405180910390fd5b600260009054906101000a900473ffffffffffffffffffffffffffffffffffffffff1673ffffffffffffffffffffffffffffffffffffffff1663a9059cbb83836040518363ffffffff1660e01b8152600401611be192919061282d565b602060405180830381600087803b158015611bfb57600080fd5b505af1158015611c0f573d6000803e3d6000fd5b505050506040513d601f19601f82011682018060405250810190611c3391906124c0565b50600180819055505050565b6000600260009054906101000a900473ffffffffffffffffffffffffffffffffffffffff1673ffffffffffffffffffffffffffffffffffffffff166370a08231306040518263ffffffff1660e01b8152600401611c9c91906127db565b60206040518083038186803b158015611cb457600080fd5b505afa158015611cc8573d6000803e3d6000fd5b505050506040513d601f19601f82011682018060405250810190611cec9190612512565b905090565b611cf96122b9565b6000604051806101200160405280600560008673ffffffffffffffffffffffffffffffffffffffff1673ffffffffffffffffffffffffffffffffffffffff168152602001908152602001600020548152602001600660008673ffffffffffffffffffffffffffffffffffffffff1673ffffffffffffffffffffffffffffffffffffffff168152602001908152602001600020548152602001600960008673ffffffffffffffffffffffffffffffffffffffff1673ffffffffffffffffffffffffffffffffffffffff168152602001908152602001600020548152602001600760008673ffffffffffffffffffffffffffffffffffffffff1673ffffffffffffffffffffffffffffffffffffffff168152602001908152602001600020548152602001600860008673ffffffffffffffffffffffffffffffffffffffff1673ffffffffffffffffffffffffffffffffffffffff168152602001908152602001600020548152602001600c60008673ffffffffffffffffffffffffffffffffffffffff1673ffffffffffffffffffffffffffffffffffffffff168152602001908152602001600020548152602001600a548152602001600d60008673ffffffffffffffffffffffffffffffffffffffff1673ffffffffffffffffffffffffffffffffffffffff168152602001908152602001600020548152602001600b54815250905080915050919050565b80600760008473ffffffffffffffffffffffffffffffffffffffff1673ffffffffffffffffffffffffffffffffffffffff1681526020019081526020016000208190555080600960008473ffffffffffffffffffffffffffffffffffffffff1673ffffffffffffffffffffffffffffffffffffffff1681526020019081526020016000206000828254611f96919061297e565b9250508190555080600660008473ffffffffffffffffffffffffffffffffffffffff1673ffffffffffffffffffffffffffffffffffffffff1681526020019081526020016000206000828254611fec9190612a5f565b925050819055505050565b600081836120059190612a05565b905092915050565b600033905090565b60008060009054906101000a900473ffffffffffffffffffffffffffffffffffffffff169050816000806101000a81548173ffffffffffffffffffffffffffffffffffffffff021916908373ffffffffffffffffffffffffffffffffffffffff1602179055508173ffffffffffffffffffffffffffffffffffffffff168173ffffffffffffffffffffffffffffffffffffffff167f8be0079c531659141344cd1fd0a4f28419497f9722a3daafe3b4186f6b6457e060405160405180910390a35050565b6120e38282610bb0565b600860008473ffffffffffffffffffffffffffffffffffffffff1673ffffffffffffffffffffffffffffffffffffffff168152602001908152602001600020819055506121308282610bb0565b600660008473ffffffffffffffffffffffffffffffffffffffff1673ffffffffffffffffffffffffffffffffffffffff168152602001908152602001600020600082825461217e919061297e565b9250508190555061218d610e07565b600560008473ffffffffffffffffffffffffffffffffffffffff1673ffffffffffffffffffffffffffffffffffffffff168152602001908152602001600020819055505050565b80600a60008282546121e69190612a5f565b9250508190555080600c60003373ffffffffffffffffffffffffffffffffffffffff1673ffffffffffffffffffffffffffffffffffffffff168152602001908152602001600020600082825461223c9190612a5f565b9250508190555050565b81600a6000828254612258919061297e565b9250508190555081600c60008373ffffffffffffffffffffffffffffffffffffffff1673ffffffffffffffffffffffffffffffffffffffff16815260200190815260200160002060008282546122ae919061297e565b925050819055505050565b6040518061012001604052806000815260200160008152602001600081526020016000815260200160008152602001600081526020016000815260200160008152602001600081525090565b60008135905061231481612d16565b92915050565b60008135905061232981612d2d565b92915050565b60008151905061233e81612d2d565b92915050565b60008135905061235381612d44565b92915050565b60008151905061236881612d44565b92915050565b60006020828403121561238057600080fd5b600061238e84828501612305565b91505092915050565b6000806000606084860312156123ac57600080fd5b60006123ba86828701612305565b93505060206123cb86828701612305565b92505060406123dc86828701612344565b9150509250925092565b600080604083850312156123f957600080fd5b600061240785828601612305565b925050602061241885828601612344565b9150509250929050565b60008060006060848603121561243757600080fd5b600061244586828701612305565b935050602061245686828701612344565b92505060406124678682870161231a565b9150509250925092565b60008060006060848603121561248657600080fd5b600061249486828701612305565b93505060206124a586828701612344565b92505060406124b686828701612344565b9150509250925092565b6000602082840312156124d257600080fd5b60006124e08482850161232f565b91505092915050565b6000602082840312156124fb57600080fd5b600061250984828501612344565b91505092915050565b60006020828403121561252457600080fd5b600061253284828501612359565b91505092915050565b6000806040838503121561254e57600080fd5b600061255c85828601612344565b925050602061256d85828601612305565b9150509250929050565b6000806040838503121561258a57600080fd5b600061259885828601612344565b92505060206125a985828601612344565b9150509250929050565b6000806000606084860312156125c857600080fd5b60006125d686828701612344565b93505060206125e786828701612344565b92505060406125f886828701612344565b9150509250925092565b61260b81612a93565b82525050565b600061261e60268361296d565b915061262982612b39565b604082019050919050565b600061264160258361296d565b915061264c82612b88565b604082019050919050565b600061266460298361296d565b915061266f82612bd7565b604082019050919050565b6000612687602c8361296d565b915061269282612c26565b604082019050919050565b60006126aa60208361296d565b91506126b582612c75565b602082019050919050565b60006126cd60298361296d565b91506126d882612c9e565b604082019050919050565b60006126f0601f8361296d565b91506126fb82612ced565b602082019050919050565b6101208201600082015161271d60008501826127bd565b50602082015161273060208501826127bd565b50604082015161274360408501826127bd565b50606082015161275660608501826127bd565b50608082015161276960808501826127bd565b5060a082015161277c60a08501826127bd565b5060c082015161278f60c08501826127bd565b5060e08201516127a260e08501826127bd565b506101008201516127b76101008501826127bd565b50505050565b6127c681612ad1565b82525050565b6127d581612ad1565b82525050565b60006020820190506127f06000830184612602565b92915050565b600060608201905061280b6000830186612602565b6128186020830185612602565b61282560408301846127cc565b949350505050565b60006040820190506128426000830185612602565b61284f60208301846127cc565b9392505050565b6000602082019050818103600083015261286f81612611565b9050919050565b6000602082019050818103600083015261288f81612634565b9050919050565b600060208201905081810360008301526128af81612657565b9050919050565b600060208201905081810360008301526128cf8161267a565b9050919050565b600060208201905081810360008301526128ef8161269d565b9050919050565b6000602082019050818103600083015261290f816126c0565b9050919050565b6000602082019050818103600083015261292f816126e3565b9050919050565b60006101208201905061294c6000830184612706565b92915050565b600060208201905061296760008301846127cc565b92915050565b600082825260208201905092915050565b600061298982612ad1565b915061299483612ad1565b9250827fffffffffffffffffffffffffffffffffffffffffffffffffffffffffffffffff038211156129c9576129c8612adb565b5b828201905092915050565b60006129df82612ad1565b91506129ea83612ad1565b9250826129fa576129f9612b0a565b5b828204905092915050565b6000612a1082612ad1565b9150612a1b83612ad1565b9250817fffffffffffffffffffffffffffffffffffffffffffffffffffffffffffffffff0483118215151615612a5457612a53612adb565b5b828202905092915050565b6000612a6a82612ad1565b9150612a7583612ad1565b925082821015612a8857612a87612adb565b5b828203905092915050565b6000612a9e82612ab1565b9050919050565b60008115159050919050565b600073ffffffffffffffffffffffffffffffffffffffff82169050919050565b6000819050919050565b7f4e487b7100000000000000000000000000000000000000000000000000000000600052601160045260246000fd5b7f4e487b7100000000000000000000000000000000000000000000000000000000600052601260045260246000fd5b7f4f776e61626c653a206e6577206f776e657220697320746865207a65726f206160008201527f6464726573730000000000000000000000000000000000000000000000000000602082015250565b7f596f75206e65656420746f207472616e73666572206c657373207468616e207360008201527f746f726564000000000000000000000000000000000000000000000000000000602082015250565b7f596f75206e65656420746f207472616e73666572206174206c6561737420736f60008201527f6d6520746f6b656e730000000000000000000000000000000000000000000000602082015250565b7f596f75206e65656420746f20636f6c6c656374206c657373207468616e20636f60008201527f6c6c656374506572557365720000000000000000000000000000000000000000602082015250565b7f4f776e61626c653a2063616c6c6572206973206e6f7420746865206f776e6572600082015250565b7f596f75206e65656420746f206465706f73697465206174206c6561737420736f60008201527f6d6520746f6b656e730000000000000000000000000000000000000000000000602082015250565b7f5265656e7472616e637947756172643a207265656e7472616e742063616c6c00600082015250565b612d1f81612a93565b8114612d2a57600080fd5b50565b612d3681612aa5565b8114612d4157600080fd5b50565b612d4d81612ad1565b8114612d5857600080fd5b5056fea264697066735822122027192b0d9a6e7f251c6192f0240f9925d22bfde215aacb3c5335f9c7e55c16fe64736f6c63430008040033",
  "immutableReferences": {},
  "source": "// SPDX-License-Identifier: UNLICENSED\r\npragma solidity 0.8.4;\r\n\r\nimport \"@openzeppelin/contracts/token/ERC721/ERC721.sol\";\r\nimport \"@openzeppelin/contracts/token/ERC20/IERC20.sol\";\r\nimport \"@openzeppelin/contracts/access/Ownable.sol\";\r\nimport \"@openzeppelin/contracts/utils/math/SafeMath.sol\";\r\nimport \"@openzeppelin/contracts/security/ReentrancyGuard.sol\";\r\n\r\ncontract PumlStake is Ownable, ReentrancyGuard {\r\n\r\n    IERC20 _puml;\r\n\r\n    constructor() {\r\n        _puml = IERC20(0xbc75ECc12c77506DCFd70113B15683A9a0768AB4);\r\n    }\r\n\r\n    using SafeMath for uint256;\r\n\r\n    /* ========== STATE VARIABLES ========== */\r\n\r\n    uint256 public avgBlocksPerDay = 6500;\r\n    uint256 public blockLength = 2372500;\r\n\r\n    mapping(address => uint256) public userLastUpdateTime;\r\n    mapping(address => uint256) public userRewardStored;\r\n    mapping(address => uint256) public userLastReward;\r\n    mapping(address => uint256) public userLastCollect;\r\n    mapping(address => uint256) public userRewardPaid;\r\n\r\n    uint256 public totalSupply;\r\n    uint256 public totalSupplyNFT;\r\n    mapping(address => uint256) public balances;\r\n    mapping(address => uint256) public balancesNFT;\r\n    mapping(uint256 => address) public stakedAssets;\r\n\r\n    struct UserData {\r\n        uint256 userLastUpdateTime;\r\n        uint256 userRewardStored;\r\n        uint256 userRewardPaid;\r\n        uint256 userLastReward;\r\n        uint256 userLastCollect;\r\n        uint256 balances;\r\n        uint256 totalBalances;\r\n        uint256 balancesNFT;\r\n        uint256 totalBalancesNFT;\r\n    }\r\n\r\n\r\n\r\n    /* ========== VIEWS ========== */\r\n\r\n    function getStakedAssets(uint256 _tokenId) public view returns (address) {\r\n        return stakedAssets[_tokenId];\r\n    }\r\n\r\n    function setStakedAssets(uint256 _tokenId, address _address) public {\r\n        stakedAssets[_tokenId] = _address;\r\n    }\r\n\r\n    function setBalancesNFT(address _address, uint256 _amount, bool param) public {\r\n        if (param) {\r\n            balancesNFT[_address] += _amount;\r\n            totalSupplyNFT += _amount;\r\n        } else {\r\n            balancesNFT[_address] -= _amount;\r\n            totalSupplyNFT -= _amount;\r\n        }\r\n    }\r\n\r\n    function setUserUpdate(address account, uint256 feeward) public {\r\n        _updatePerUser(account, feeward);\r\n    }\r\n\r\n    function setUserRewardUpdate(address account, uint256 reward) public {\r\n        _updateRewardPerUser(account, reward);\r\n    }\r\n\r\n    function lastTimeRewardApplicable() public view returns (uint256) {\r\n        return block.timestamp;\r\n    }\r\n\r\n    function balanceOfPumlx() public view returns (uint256) {\r\n        return _puml.balanceOf(address(this));\r\n    }\r\n\r\n    function collectPerUser(address account, uint256 feeward) public view returns (uint256) {\r\n        uint256 collectRate = feeward;\r\n        if (totalSupply > 0) {\r\n            collectRate += balances[account]/totalSupply;\r\n        }\r\n        if (totalSupplyNFT > 0) {\r\n            collectRate += balancesNFT[account]/totalSupplyNFT;\r\n        }\r\n        return collectRate.mul((balanceOfPumlx()/blockLength).mul(avgBlocksPerDay)).mul(lastTimeRewardApplicable()-userLastUpdateTime[account])/24/60/60;\r\n    }\r\n\r\n    function _updatePerUser(address account, uint256 feeward) internal {\r\n        userLastCollect[account] = collectPerUser(account, feeward);\r\n        userRewardStored[account] += collectPerUser(account, feeward);\r\n        userLastUpdateTime[account] = lastTimeRewardApplicable();\r\n    }\r\n\r\n    function _updateRewardPerUser(address account, uint256 reward) internal {\r\n        userLastReward[account] = reward;\r\n        userRewardPaid[account] += reward;\r\n        userRewardStored[account] -= reward;\r\n    }\r\n\r\n    function getUserData(address account) public view returns (UserData memory) {\r\n        UserData memory userdata = UserData({\r\n            userLastUpdateTime: userLastUpdateTime[account],\r\n            userRewardStored: userRewardStored[account],\r\n            userRewardPaid: userRewardPaid[account],\r\n            userLastReward: userLastReward[account],\r\n            userLastCollect: userLastCollect[account],\r\n            balances: balances[account],\r\n            totalBalances: totalSupply,\r\n            balancesNFT: balancesNFT[account],\r\n            totalBalancesNFT: totalSupplyNFT\r\n        });\r\n\r\n        return userdata;\r\n    }\r\n\r\n    function setTransferPuml(address _from, address _to, uint256 _amount) public {\r\n        require(_amount > 0, \"You need to transfer at least some tokens\");\r\n        _puml.transferFrom(_from, _to, _amount);\r\n    }\r\n\r\n    function setDepositPuml(address _from, uint256 _amount) public {\r\n        require(_amount > 0, \"You need to deposite at least some tokens\");\r\n        _puml.transferFrom(_from, address(this), _amount);\r\n    }\r\n\r\n\r\n    /* ========== MUTATIVE FUNCTIONS ========== */\r\n\r\n    function stake(uint256 amount, uint256 stakeamount, uint256 feeward) external payable nonReentrant {\r\n\r\n        _updatePerUser(msg.sender, feeward);\r\n        _stake(amount, msg.sender);\r\n        emit Staked(msg.sender, amount);\r\n\r\n        _puml.transferFrom(msg.sender, address(this), stakeamount);\r\n    }\r\n\r\n    function withdraw(uint256 amount, uint256 unstakeamount, uint256 feeward) public payable nonReentrant {\r\n\r\n        _updatePerUser(msg.sender, feeward);\r\n        _withdraw(amount);\r\n        emit Withdrawn(msg.sender, amount);\r\n\r\n        _puml.transfer(msg.sender, unstakeamount);\r\n    }\r\n\r\n    function claim(uint256 reward, uint256 feeward) public payable nonReentrant {\r\n        require( userRewardStored[msg.sender] > reward, \"You need to transfer less than stored\");\r\n        if (reward > 0) {\r\n            _updatePerUser(msg.sender, feeward);\r\n            _updateRewardPerUser(msg.sender, reward);\r\n            _puml.transfer(msg.sender, reward);\r\n\r\n            emit RewardPaid(msg.sender, reward);\r\n        }\r\n    }\r\n\r\n    function claimApi(address claimer, uint256 reward, uint256 feeward) public payable nonReentrant {\r\n        require( userRewardStored[claimer] > reward, \"You need to transfer less than stored\");\r\n        if (reward > 0) {\r\n            _updatePerUser(claimer, feeward);\r\n            _updateRewardPerUser(claimer, reward);\r\n            _puml.transfer(claimer, reward);\r\n\r\n            emit RewardPaid(claimer, reward);\r\n        }\r\n    }\r\n\r\n    function collect(uint256 amount, uint256 feeward) public payable nonReentrant {\r\n        require( collectPerUser(msg.sender, feeward) > amount, \"You need to collect less than collectPerUser\");\r\n        if (amount > 0) {\r\n            userLastCollect[msg.sender] = amount;\r\n            userRewardStored[msg.sender] += amount;\r\n            userLastUpdateTime[msg.sender] = lastTimeRewardApplicable();\r\n\r\n            emit Collect(msg.sender, amount);\r\n        }\r\n    }\r\n\r\n    function _stake(uint256 _amount, address _staker) internal {\r\n        totalSupply += _amount;\r\n        balances[_staker] += _amount;\r\n    }\r\n\r\n    function _withdraw(uint256 _amount) internal {\r\n        totalSupply -= _amount;\r\n        balances[msg.sender] -= _amount;\r\n    }\r\n\r\n    function transferPuml(address _to, uint256 _amount) public payable nonReentrant {\r\n        require(_amount > 0, \"You need to transfer at least some tokens\");\r\n        _puml.transferFrom(msg.sender, _to, _amount);\r\n    }\r\n\r\n    function pickPuml(address _to, uint256 _amount) public payable nonReentrant {\r\n        require(_amount > 0, \"You need to transfer at least some tokens\");\r\n        _puml.transfer(_to, _amount);\r\n    }\r\n\r\n    function depositPuml(uint256 _amount) public payable nonReentrant {\r\n        require(_amount > 0, \"You need to deposite at least some tokens\");\r\n        _puml.transferFrom(msg.sender, address(this), _amount);\r\n    }\r\n\r\n    /* ========== MODIFIERS ========== */\r\n\r\n    modifier updateReward(address account, uint256 reward) {\r\n        if (account != address(0)) {\r\n            userLastReward[account] = reward;\r\n            userRewardStored[account] -= reward;\r\n        }\r\n         _;\r\n    }\r\n\r\n    modifier checkAllowance(uint amount) {\r\n        require(_puml.allowance(msg.sender, address(this)) >= amount, \"Error\");\r\n        _;\r\n    }\r\n\r\n    /* ========== EVENTS ========== */\r\n\r\n\r\n    event Staked(address indexed user, uint256 amount);\r\n    event Withdrawn(address indexed user, uint256 amount);\r\n    event RewardPaid(address indexed user, uint256 reward);\r\n    event Collect(address indexed user, uint256 amount);\r\n}\r\n",
  "sourcePath": "F:\\work\\puml-project\\ethcontracts\\contracts\\PumlStake.sol",
  "compiler": {
    "name": "solc",
    "version": "0.8.4+commit.c7e474f2.Emscripten.clang"
  },
  "schemaVersion": "3.4.5",
  "updatedAt": "2022-08-29T19:30:21.326Z",
  "devdoc": {
    "kind": "dev",
    "methods": {
      "owner()": {
        "details": "Returns the address of the current owner."
      },
      "renounceOwnership()": {
        "details": "Leaves the contract without owner. It will not be possible to call `onlyOwner` functions anymore. Can only be called by the current owner. NOTE: Renouncing ownership will leave the contract without an owner, thereby removing any functionality that is only available to the owner."
      },
      "transferOwnership(address)": {
        "details": "Transfers ownership of the contract to a new account (`newOwner`). Can only be called by the current owner."
      }
    },
    "version": 1
  },
  "userdoc": {
    "kind": "user",
    "methods": {},
    "version": 1
  }
}