{
  "contractName": "PumlNFT",
  "abi": [
    {
      "inputs": [],
      "stateMutability": "nonpayable",
      "type": "constructor"
    },
    {
      "anonymous": false,
      "inputs": [
        {
          "indexed": true,
          "internalType": "address",
          "name": "owner",
          "type": "address"
        },
        {
          "indexed": true,
          "internalType": "address",
          "name": "approved",
          "type": "address"
        },
        {
          "indexed": true,
          "internalType": "uint256",
          "name": "tokenId",
          "type": "uint256"
        }
      ],
      "name": "Approval",
      "type": "event"
    },
    {
      "anonymous": false,
      "inputs": [
        {
          "indexed": true,
          "internalType": "address",
          "name": "owner",
          "type": "address"
        },
        {
          "indexed": true,
          "internalType": "address",
          "name": "operator",
          "type": "address"
        },
        {
          "indexed": false,
          "internalType": "bool",
          "name": "approved",
          "type": "bool"
        }
      ],
      "name": "ApprovalForAll",
      "type": "event"
    },
    {
      "anonymous": false,
      "inputs": [
        {
          "indexed": true,
          "internalType": "address",
          "name": "from",
          "type": "address"
        },
        {
          "indexed": true,
          "internalType": "address",
          "name": "to",
          "type": "address"
        },
        {
          "indexed": true,
          "internalType": "uint256",
          "name": "tokenId",
          "type": "uint256"
        }
      ],
      "name": "Transfer",
      "type": "event"
    },
    {
      "inputs": [
        {
          "internalType": "address",
          "name": "to",
          "type": "address"
        },
        {
          "internalType": "uint256",
          "name": "tokenId",
          "type": "uint256"
        }
      ],
      "name": "approve",
      "outputs": [],
      "stateMutability": "nonpayable",
      "type": "function"
    },
    {
      "inputs": [
        {
          "internalType": "address",
          "name": "owner",
          "type": "address"
        }
      ],
      "name": "balanceOf",
      "outputs": [
        {
          "internalType": "uint256",
          "name": "",
          "type": "uint256"
        }
      ],
      "stateMutability": "view",
      "type": "function",
      "constant": true
    },
    {
      "inputs": [
        {
          "internalType": "uint256",
          "name": "tokenId",
          "type": "uint256"
        }
      ],
      "name": "getApproved",
      "outputs": [
        {
          "internalType": "address",
          "name": "",
          "type": "address"
        }
      ],
      "stateMutability": "view",
      "type": "function",
      "constant": true
    },
    {
      "inputs": [
        {
          "internalType": "address",
          "name": "owner",
          "type": "address"
        },
        {
          "internalType": "address",
          "name": "operator",
          "type": "address"
        }
      ],
      "name": "isApprovedForAll",
      "outputs": [
        {
          "internalType": "bool",
          "name": "",
          "type": "bool"
        }
      ],
      "stateMutability": "view",
      "type": "function",
      "constant": true
    },
    {
      "inputs": [],
      "name": "name",
      "outputs": [
        {
          "internalType": "string",
          "name": "",
          "type": "string"
        }
      ],
      "stateMutability": "view",
      "type": "function",
      "constant": true
    },
    {
      "inputs": [
        {
          "internalType": "uint256",
          "name": "tokenId",
          "type": "uint256"
        }
      ],
      "name": "ownerOf",
      "outputs": [
        {
          "internalType": "address",
          "name": "",
          "type": "address"
        }
      ],
      "stateMutability": "view",
      "type": "function",
      "constant": true
    },
    {
      "inputs": [
        {
          "internalType": "address",
          "name": "from",
          "type": "address"
        },
        {
          "internalType": "address",
          "name": "to",
          "type": "address"
        },
        {
          "internalType": "uint256",
          "name": "tokenId",
          "type": "uint256"
        }
      ],
      "name": "safeTransferFrom",
      "outputs": [],
      "stateMutability": "nonpayable",
      "type": "function"
    },
    {
      "inputs": [
        {
          "internalType": "address",
          "name": "from",
          "type": "address"
        },
        {
          "internalType": "address",
          "name": "to",
          "type": "address"
        },
        {
          "internalType": "uint256",
          "name": "tokenId",
          "type": "uint256"
        },
        {
          "internalType": "bytes",
          "name": "_data",
          "type": "bytes"
        }
      ],
      "name": "safeTransferFrom",
      "outputs": [],
      "stateMutability": "nonpayable",
      "type": "function"
    },
    {
      "inputs": [
        {
          "internalType": "address",
          "name": "operator",
          "type": "address"
        },
        {
          "internalType": "bool",
          "name": "approved",
          "type": "bool"
        }
      ],
      "name": "setApprovalForAll",
      "outputs": [],
      "stateMutability": "nonpayable",
      "type": "function"
    },
    {
      "inputs": [
        {
          "internalType": "bytes4",
          "name": "interfaceId",
          "type": "bytes4"
        }
      ],
      "name": "supportsInterface",
      "outputs": [
        {
          "internalType": "bool",
          "name": "",
          "type": "bool"
        }
      ],
      "stateMutability": "view",
      "type": "function",
      "constant": true
    },
    {
      "inputs": [],
      "name": "symbol",
      "outputs": [
        {
          "internalType": "string",
          "name": "",
          "type": "string"
        }
      ],
      "stateMutability": "view",
      "type": "function",
      "constant": true
    },
    {
      "inputs": [
        {
          "internalType": "uint256",
          "name": "tokenId",
          "type": "uint256"
        }
      ],
      "name": "tokenURI",
      "outputs": [
        {
          "internalType": "string",
          "name": "",
          "type": "string"
        }
      ],
      "stateMutability": "view",
      "type": "function",
      "constant": true
    },
    {
      "inputs": [
        {
          "internalType": "address",
          "name": "from",
          "type": "address"
        },
        {
          "internalType": "address",
          "name": "to",
          "type": "address"
        },
        {
          "internalType": "uint256",
          "name": "tokenId",
          "type": "uint256"
        }
      ],
      "name": "transferFrom",
      "outputs": [],
      "stateMutability": "nonpayable",
      "type": "function"
    },
    {
      "inputs": [
        {
          "internalType": "uint256",
          "name": "_tokenId",
          "type": "uint256"
        }
      ],
      "name": "getCreator",
      "outputs": [
        {
          "internalType": "address",
          "name": "",
          "type": "address"
        }
      ],
      "stateMutability": "view",
      "type": "function",
      "constant": true
    },
    {
      "inputs": [
        {
          "internalType": "uint256",
          "name": "_tokenId",
          "type": "uint256"
        }
      ],
      "name": "getRoyalties",
      "outputs": [
        {
          "internalType": "uint256",
          "name": "",
          "type": "uint256"
        }
      ],
      "stateMutability": "view",
      "type": "function",
      "constant": true
    },
    {
      "inputs": [
        {
          "internalType": "string",
          "name": "tokenURI",
          "type": "string"
        },
        {
          "internalType": "uint256",
          "name": "_royalties",
          "type": "uint256"
        },
        {
          "internalType": "string",
          "name": "_lockedContent",
          "type": "string"
        }
      ],
      "name": "createItem",
      "outputs": [
        {
          "internalType": "uint256",
          "name": "",
          "type": "uint256"
        }
      ],
      "stateMutability": "nonpayable",
      "type": "function"
    },
    {
      "inputs": [
        {
          "internalType": "uint256",
          "name": "_tokenId",
          "type": "uint256"
        }
      ],
      "name": "unlockContent",
      "outputs": [
        {
          "internalType": "string",
          "name": "",
          "type": "string"
        }
      ],
      "stateMutability": "view",
      "type": "function",
      "constant": true
    }
  ],
  "bytecode": "0x60806040523480156200001157600080fd5b506040518060400160405280600881526020017f50756d6c204e46540000000000000000000000000000000000000000000000008152506040518060400160405280600481526020017f50554d4c00000000000000000000000000000000000000000000000000000000815250816000908051906020019062000096929190620000b8565b508060019080519060200190620000af929190620000b8565b505050620001cd565b828054620000c69062000168565b90600052602060002090601f016020900481019282620000ea576000855562000136565b82601f106200010557805160ff191683800117855562000136565b8280016001018555821562000136579182015b828111156200013557825182559160200191906001019062000118565b5b50905062000145919062000149565b5090565b5b80821115620001645760008160009055506001016200014a565b5090565b600060028204905060018216806200018157607f821691505b602082108114156200019857620001976200019e565b5b50919050565b7f4e487b7100000000000000000000000000000000000000000000000000000000600052602260045260246000fd5b61305680620001dd6000396000f3fe608060405234801561001057600080fd5b506004361061010b5760003560e01c80636352211e116100a2578063b88d4fde11610071578063b88d4fde146102dc578063bb3bafd6146102f8578063c87b56dd14610328578063d48e638a14610358578063e985e9c5146103885761010b565b80636352211e1461024257806370a082311461027257806395d89b41146102a2578063a22cb465146102c05761010b565b806323b872dd116100de57806323b872dd146101aa57806328d82e30146101c65780633457770d146101f657806342842e0e146102265761010b565b806301ffc9a71461011057806306fdde0314610140578063081812fc1461015e578063095ea7b31461018e575b600080fd5b61012a60048036038101906101259190611fac565b6103b8565b6040516101379190612477565b60405180910390f35b61014861049a565b6040516101559190612492565b60405180910390f35b6101786004803603810190610173919061207d565b61052c565b6040516101859190612410565b60405180910390f35b6101a860048036038101906101a39190611f70565b6105b1565b005b6101c460048036038101906101bf9190611e6a565b6106c9565b005b6101e060048036038101906101db919061207d565b610729565b6040516101ed9190612492565b60405180910390f35b610210600480360381019061020b9190611ffe565b6108c7565b60405161021d91906126f4565b60405180910390f35b610240600480360381019061023b9190611e6a565b6109f9565b005b61025c6004803603810190610257919061207d565b610a19565b6040516102699190612410565b60405180910390f35b61028c60048036038101906102879190611ddc565b610acb565b60405161029991906126f4565b60405180910390f35b6102aa610b83565b6040516102b79190612492565b60405180910390f35b6102da60048036038101906102d59190611f34565b610c15565b005b6102f660048036038101906102f19190611eb9565b610d96565b005b610312600480360381019061030d919061207d565b610df8565b60405161031f91906126f4565b60405180910390f35b610342600480360381019061033d919061207d565b610e18565b60405161034f9190612492565b60405180910390f35b610372600480360381019061036d919061207d565b610f6a565b60405161037f9190612410565b60405180910390f35b6103a2600480360381019061039d9190611e2e565b610faa565b6040516103af9190612477565b60405180910390f35b60007f80ac58cd000000000000000000000000000000000000000000000000000000007bffffffffffffffffffffffffffffffffffffffffffffffffffffffff1916827bffffffffffffffffffffffffffffffffffffffffffffffffffffffff1916148061048357507f5b5e139f000000000000000000000000000000000000000000000000000000007bffffffffffffffffffffffffffffffffffffffffffffffffffffffff1916827bffffffffffffffffffffffffffffffffffffffffffffffffffffffff1916145b8061049357506104928261103e565b5b9050919050565b6060600080546104a99061294a565b80601f01602080910402602001604051908101604052809291908181526020018280546104d59061294a565b80156105225780601f106104f757610100808354040283529160200191610522565b820191906000526020600020905b81548152906001019060200180831161050557829003601f168201915b5050505050905090565b6000610537826110a8565b610576576040517f08c379a000000000000000000000000000000000000000000000000000000000815260040161056d90612654565b60405180910390fd5b6004600083815260200190815260200160002060009054906101000a900473ffffffffffffffffffffffffffffffffffffffff169050919050565b60006105bc82610a19565b90508073ffffffffffffffffffffffffffffffffffffffff168373ffffffffffffffffffffffffffffffffffffffff16141561062d576040517f08c379a0000000000000000000000000000000000000000000000000000000008152600401610624906126b4565b60405180910390fd5b8073ffffffffffffffffffffffffffffffffffffffff1661064c611114565b73ffffffffffffffffffffffffffffffffffffffff16148061067b575061067a81610675611114565b610faa565b5b6106ba576040517f08c379a00000000000000000000000000000000000000000000000000000000081526004016106b190612554565b60405180910390fd5b6106c4838361111c565b505050565b6106da6106d4611114565b826111d5565b610719576040517f08c379a0000000000000000000000000000000000000000000000000000000008152600401610710906126d4565b60405180910390fd5b6107248383836112b3565b505050565b60603373ffffffffffffffffffffffffffffffffffffffff163073ffffffffffffffffffffffffffffffffffffffff16636352211e846040518263ffffffff1660e01b815260040161077b91906126f4565b60206040518083038186803b15801561079357600080fd5b505afa1580156107a7573d6000803e3d6000fd5b505050506040513d601f19601f820116820180604052508101906107cb9190611e05565b73ffffffffffffffffffffffffffffffffffffffff1614610821576040517f08c379a000000000000000000000000000000000000000000000000000000000815260040161081890612574565b60405180910390fd5b6008600083815260200190815260200160002060020180546108429061294a565b80601f016020809104026020016040519081016040528092919081815260200182805461086e9061294a565b80156108bb5780601f10610890576101008083540402835291602001916108bb565b820191906000526020600020905b81548152906001019060200180831161089e57829003601f168201915b50505050509050919050565b6000612328831061090d576040517f08c379a0000000000000000000000000000000000000000000000000000000008152600401610904906125f4565b60405180910390fd5b610917600761150f565b60006109236007611525565b905061092f3382611533565b6109398186611701565b60405180606001604052803373ffffffffffffffffffffffffffffffffffffffff168152602001858152602001848152506008600083815260200190815260200160002060008201518160000160006101000a81548173ffffffffffffffffffffffffffffffffffffffff021916908373ffffffffffffffffffffffffffffffffffffffff1602179055506020820151816001015560408201518160020190805190602001906109ea929190611beb565b50905050809150509392505050565b610a1483838360405180602001604052806000815250610d96565b505050565b6000806002600084815260200190815260200160002060009054906101000a900473ffffffffffffffffffffffffffffffffffffffff169050600073ffffffffffffffffffffffffffffffffffffffff168173ffffffffffffffffffffffffffffffffffffffff161415610ac2576040517f08c379a0000000000000000000000000000000000000000000000000000000008152600401610ab9906125b4565b60405180910390fd5b80915050919050565b60008073ffffffffffffffffffffffffffffffffffffffff168273ffffffffffffffffffffffffffffffffffffffff161415610b3c576040517f08c379a0000000000000000000000000000000000000000000000000000000008152600401610b3390612594565b60405180910390fd5b600360008373ffffffffffffffffffffffffffffffffffffffff1673ffffffffffffffffffffffffffffffffffffffff168152602001908152602001600020549050919050565b606060018054610b929061294a565b80601f0160208091040260200160405190810160405280929190818152602001828054610bbe9061294a565b8015610c0b5780601f10610be057610100808354040283529160200191610c0b565b820191906000526020600020905b815481529060010190602001808311610bee57829003601f168201915b5050505050905090565b610c1d611114565b73ffffffffffffffffffffffffffffffffffffffff168273ffffffffffffffffffffffffffffffffffffffff161415610c8b576040517f08c379a0000000000000000000000000000000000000000000000000000000008152600401610c8290612514565b60405180910390fd5b8060056000610c98611114565b73ffffffffffffffffffffffffffffffffffffffff1673ffffffffffffffffffffffffffffffffffffffff16815260200190815260200160002060008473ffffffffffffffffffffffffffffffffffffffff1673ffffffffffffffffffffffffffffffffffffffff16815260200190815260200160002060006101000a81548160ff0219169083151502179055508173ffffffffffffffffffffffffffffffffffffffff16610d45611114565b73ffffffffffffffffffffffffffffffffffffffff167f17307eab39ab6107e8899845ad3d59bd9653f200f220920489ca2b5937696c3183604051610d8a9190612477565b60405180910390a35050565b610da7610da1611114565b836111d5565b610de6576040517f08c379a0000000000000000000000000000000000000000000000000000000008152600401610ddd906126d4565b60405180910390fd5b610df284848484611775565b50505050565b600060086000838152602001908152602001600020600101549050919050565b6060610e23826110a8565b610e62576040517f08c379a0000000000000000000000000000000000000000000000000000000008152600401610e5990612634565b60405180910390fd5b6000600660008481526020019081526020016000208054610e829061294a565b80601f0160208091040260200160405190810160405280929190818152602001828054610eae9061294a565b8015610efb5780601f10610ed057610100808354040283529160200191610efb565b820191906000526020600020905b815481529060010190602001808311610ede57829003601f168201915b505050505090506000610f0c6117d1565b9050600081511415610f22578192505050610f65565b600082511115610f57578082604051602001610f3f9291906123ec565b60405160208183030381529060405292505050610f65565b610f60846117e8565b925050505b919050565b60006008600083815260200190815260200160002060000160009054906101000a900473ffffffffffffffffffffffffffffffffffffffff169050919050565b6000600560008473ffffffffffffffffffffffffffffffffffffffff1673ffffffffffffffffffffffffffffffffffffffff16815260200190815260200160002060008373ffffffffffffffffffffffffffffffffffffffff1673ffffffffffffffffffffffffffffffffffffffff16815260200190815260200160002060009054906101000a900460ff16905092915050565b60007f01ffc9a7000000000000000000000000000000000000000000000000000000007bffffffffffffffffffffffffffffffffffffffffffffffffffffffff1916827bffffffffffffffffffffffffffffffffffffffffffffffffffffffff1916149050919050565b60008073ffffffffffffffffffffffffffffffffffffffff166002600084815260200190815260200160002060009054906101000a900473ffffffffffffffffffffffffffffffffffffffff1673ffffffffffffffffffffffffffffffffffffffff1614159050919050565b600033905090565b816004600083815260200190815260200160002060006101000a81548173ffffffffffffffffffffffffffffffffffffffff021916908373ffffffffffffffffffffffffffffffffffffffff160217905550808273ffffffffffffffffffffffffffffffffffffffff1661118f83610a19565b73ffffffffffffffffffffffffffffffffffffffff167f8c5be1e5ebec7d5bd14f71427d1e84f3dd0314c0f7b2291e5b200ac8c7c3b92560405160405180910390a45050565b60006111e0826110a8565b61121f576040517f08c379a000000000000000000000000000000000000000000000000000000000815260040161121690612534565b60405180910390fd5b600061122a83610a19565b90508073ffffffffffffffffffffffffffffffffffffffff168473ffffffffffffffffffffffffffffffffffffffff16148061129957508373ffffffffffffffffffffffffffffffffffffffff166112818461052c565b73ffffffffffffffffffffffffffffffffffffffff16145b806112aa57506112a98185610faa565b5b91505092915050565b8273ffffffffffffffffffffffffffffffffffffffff166112d382610a19565b73ffffffffffffffffffffffffffffffffffffffff1614611329576040517f08c379a000000000000000000000000000000000000000000000000000000000815260040161132090612674565b60405180910390fd5b600073ffffffffffffffffffffffffffffffffffffffff168273ffffffffffffffffffffffffffffffffffffffff161415611399576040517f08c379a0000000000000000000000000000000000000000000000000000000008152600401611390906124f4565b60405180910390fd5b6113a483838361188f565b6113af60008261111c565b6001600360008573ffffffffffffffffffffffffffffffffffffffff1673ffffffffffffffffffffffffffffffffffffffff16815260200190815260200160002060008282546113ff9190612860565b925050819055506001600360008473ffffffffffffffffffffffffffffffffffffffff1673ffffffffffffffffffffffffffffffffffffffff168152602001908152602001600020600082825461145691906127d9565b92505081905550816002600083815260200190815260200160002060006101000a81548173ffffffffffffffffffffffffffffffffffffffff021916908373ffffffffffffffffffffffffffffffffffffffff160217905550808273ffffffffffffffffffffffffffffffffffffffff168473ffffffffffffffffffffffffffffffffffffffff167fddf252ad1be2c89b69c2b068fc378daa952ba7f163c4a11628f55a4df523b3ef60405160405180910390a4505050565b6001816000016000828254019250508190555050565b600081600001549050919050565b600073ffffffffffffffffffffffffffffffffffffffff168273ffffffffffffffffffffffffffffffffffffffff1614156115a3576040517f08c379a000000000000000000000000000000000000000000000000000000000815260040161159a90612614565b60405180910390fd5b6115ac816110a8565b156115ec576040517f08c379a00000000000000000000000000000000000000000000000000000000081526004016115e3906124d4565b60405180910390fd5b6115f86000838361188f565b6001600360008473ffffffffffffffffffffffffffffffffffffffff1673ffffffffffffffffffffffffffffffffffffffff168152602001908152602001600020600082825461164891906127d9565b92505081905550816002600083815260200190815260200160002060006101000a81548173ffffffffffffffffffffffffffffffffffffffff021916908373ffffffffffffffffffffffffffffffffffffffff160217905550808273ffffffffffffffffffffffffffffffffffffffff16600073ffffffffffffffffffffffffffffffffffffffff167fddf252ad1be2c89b69c2b068fc378daa952ba7f163c4a11628f55a4df523b3ef60405160405180910390a45050565b61170a826110a8565b611749576040517f08c379a0000000000000000000000000000000000000000000000000000000008152600401611740906125d4565b60405180910390fd5b80600660008481526020019081526020016000209080519060200190611770929190611beb565b505050565b6117808484846112b3565b61178c84848484611894565b6117cb576040517f08c379a00000000000000000000000000000000000000000000000000000000081526004016117c2906124b4565b60405180910390fd5b50505050565b606060405180602001604052806000815250905090565b60606117f3826110a8565b611832576040517f08c379a000000000000000000000000000000000000000000000000000000000815260040161182990612694565b60405180910390fd5b600061183c6117d1565b9050600081511161185c5760405180602001604052806000815250611887565b8061186684611a2b565b6040516020016118779291906123ec565b6040516020818303038152906040525b915050919050565b505050565b60006118b58473ffffffffffffffffffffffffffffffffffffffff16611bd8565b15611a1e578373ffffffffffffffffffffffffffffffffffffffff1663150b7a026118de611114565b8786866040518563ffffffff1660e01b8152600401611900949392919061242b565b602060405180830381600087803b15801561191a57600080fd5b505af192505050801561194b57506040513d601f19601f820116820180604052508101906119489190611fd5565b60015b6119ce573d806000811461197b576040519150601f19603f3d011682016040523d82523d6000602084013e611980565b606091505b506000815114156119c6576040517f08c379a00000000000000000000000000000000000000000000000000000000081526004016119bd906124b4565b60405180910390fd5b805181602001fd5b63150b7a0260e01b7bffffffffffffffffffffffffffffffffffffffffffffffffffffffff1916817bffffffffffffffffffffffffffffffffffffffffffffffffffffffff191614915050611a23565b600190505b949350505050565b60606000821415611a73576040518060400160405280600181526020017f30000000000000000000000000000000000000000000000000000000000000008152509050611bd3565b600082905060005b60008214611aa5578080611a8e906129ad565b915050600a82611a9e919061282f565b9150611a7b565b60008167ffffffffffffffff811115611ae7577f4e487b7100000000000000000000000000000000000000000000000000000000600052604160045260246000fd5b6040519080825280601f01601f191660200182016040528015611b195781602001600182028036833780820191505090505b5090505b60008514611bcc57600182611b329190612860565b9150600a85611b4191906129f6565b6030611b4d91906127d9565b60f81b818381518110611b89577f4e487b7100000000000000000000000000000000000000000000000000000000600052603260045260246000fd5b60200101907effffffffffffffffffffffffffffffffffffffffffffffffffffffffffffff1916908160001a905350600a85611bc5919061282f565b9450611b1d565b8093505050505b919050565b600080823b905060008111915050919050565b828054611bf79061294a565b90600052602060002090601f016020900481019282611c195760008555611c60565b82601f10611c3257805160ff1916838001178555611c60565b82800160010185558215611c60579182015b82811115611c5f578251825591602001919060010190611c44565b5b509050611c6d9190611c71565b5090565b5b80821115611c8a576000816000905550600101611c72565b5090565b6000611ca1611c9c84612734565b61270f565b905082815260208101848484011115611cb957600080fd5b611cc4848285612908565b509392505050565b6000611cdf611cda84612765565b61270f565b905082815260208101848484011115611cf757600080fd5b611d02848285612908565b509392505050565b600081359050611d1981612fc4565b92915050565b600081519050611d2e81612fc4565b92915050565b600081359050611d4381612fdb565b92915050565b600081359050611d5881612ff2565b92915050565b600081519050611d6d81612ff2565b92915050565b600082601f830112611d8457600080fd5b8135611d94848260208601611c8e565b91505092915050565b600082601f830112611dae57600080fd5b8135611dbe848260208601611ccc565b91505092915050565b600081359050611dd681613009565b92915050565b600060208284031215611dee57600080fd5b6000611dfc84828501611d0a565b91505092915050565b600060208284031215611e1757600080fd5b6000611e2584828501611d1f565b91505092915050565b60008060408385031215611e4157600080fd5b6000611e4f85828601611d0a565b9250506020611e6085828601611d0a565b9150509250929050565b600080600060608486031215611e7f57600080fd5b6000611e8d86828701611d0a565b9350506020611e9e86828701611d0a565b9250506040611eaf86828701611dc7565b9150509250925092565b60008060008060808587031215611ecf57600080fd5b6000611edd87828801611d0a565b9450506020611eee87828801611d0a565b9350506040611eff87828801611dc7565b925050606085013567ffffffffffffffff811115611f1c57600080fd5b611f2887828801611d73565b91505092959194509250565b60008060408385031215611f4757600080fd5b6000611f5585828601611d0a565b9250506020611f6685828601611d34565b9150509250929050565b60008060408385031215611f8357600080fd5b6000611f9185828601611d0a565b9250506020611fa285828601611dc7565b9150509250929050565b600060208284031215611fbe57600080fd5b6000611fcc84828501611d49565b91505092915050565b600060208284031215611fe757600080fd5b6000611ff584828501611d5e565b91505092915050565b60008060006060848603121561201357600080fd5b600084013567ffffffffffffffff81111561202d57600080fd5b61203986828701611d9d565b935050602061204a86828701611dc7565b925050604084013567ffffffffffffffff81111561206757600080fd5b61207386828701611d9d565b9150509250925092565b60006020828403121561208f57600080fd5b600061209d84828501611dc7565b91505092915050565b6120af81612894565b82525050565b6120be816128a6565b82525050565b60006120cf82612796565b6120d981856127ac565b93506120e9818560208601612917565b6120f281612ae3565b840191505092915050565b6000612108826127a1565b61211281856127bd565b9350612122818560208601612917565b61212b81612ae3565b840191505092915050565b6000612141826127a1565b61214b81856127ce565b935061215b818560208601612917565b80840191505092915050565b60006121746032836127bd565b915061217f82612af4565b604082019050919050565b6000612197601c836127bd565b91506121a282612b43565b602082019050919050565b60006121ba6024836127bd565b91506121c582612b6c565b604082019050919050565b60006121dd6019836127bd565b91506121e882612bbb565b602082019050919050565b6000612200602c836127bd565b915061220b82612be4565b604082019050919050565b60006122236038836127bd565b915061222e82612c33565b604082019050919050565b6000612246600d836127bd565b915061225182612c82565b602082019050919050565b6000612269602a836127bd565b915061227482612cab565b604082019050919050565b600061228c6029836127bd565b915061229782612cfa565b604082019050919050565b60006122af602e836127bd565b91506122ba82612d49565b604082019050919050565b60006122d26015836127bd565b91506122dd82612d98565b602082019050919050565b60006122f56020836127bd565b915061230082612dc1565b602082019050919050565b60006123186031836127bd565b915061232382612dea565b604082019050919050565b600061233b602c836127bd565b915061234682612e39565b604082019050919050565b600061235e6029836127bd565b915061236982612e88565b604082019050919050565b6000612381602f836127bd565b915061238c82612ed7565b604082019050919050565b60006123a46021836127bd565b91506123af82612f26565b604082019050919050565b60006123c76031836127bd565b91506123d282612f75565b604082019050919050565b6123e6816128fe565b82525050565b60006123f88285612136565b91506124048284612136565b91508190509392505050565b600060208201905061242560008301846120a6565b92915050565b600060808201905061244060008301876120a6565b61244d60208301866120a6565b61245a60408301856123dd565b818103606083015261246c81846120c4565b905095945050505050565b600060208201905061248c60008301846120b5565b92915050565b600060208201905081810360008301526124ac81846120fd565b905092915050565b600060208201905081810360008301526124cd81612167565b9050919050565b600060208201905081810360008301526124ed8161218a565b9050919050565b6000602082019050818103600083015261250d816121ad565b9050919050565b6000602082019050818103600083015261252d816121d0565b9050919050565b6000602082019050818103600083015261254d816121f3565b9050919050565b6000602082019050818103600083015261256d81612216565b9050919050565b6000602082019050818103600083015261258d81612239565b9050919050565b600060208201905081810360008301526125ad8161225c565b9050919050565b600060208201905081810360008301526125cd8161227f565b9050919050565b600060208201905081810360008301526125ed816122a2565b9050919050565b6000602082019050818103600083015261260d816122c5565b9050919050565b6000602082019050818103600083015261262d816122e8565b9050919050565b6000602082019050818103600083015261264d8161230b565b9050919050565b6000602082019050818103600083015261266d8161232e565b9050919050565b6000602082019050818103600083015261268d81612351565b9050919050565b600060208201905081810360008301526126ad81612374565b9050919050565b600060208201905081810360008301526126cd81612397565b9050919050565b600060208201905081810360008301526126ed816123ba565b9050919050565b600060208201905061270960008301846123dd565b92915050565b600061271961272a565b9050612725828261297c565b919050565b6000604051905090565b600067ffffffffffffffff82111561274f5761274e612ab4565b5b61275882612ae3565b9050602081019050919050565b600067ffffffffffffffff8211156127805761277f612ab4565b5b61278982612ae3565b9050602081019050919050565b600081519050919050565b600081519050919050565b600082825260208201905092915050565b600082825260208201905092915050565b600081905092915050565b60006127e4826128fe565b91506127ef836128fe565b9250827fffffffffffffffffffffffffffffffffffffffffffffffffffffffffffffffff0382111561282457612823612a27565b5b828201905092915050565b600061283a826128fe565b9150612845836128fe565b92508261285557612854612a56565b5b828204905092915050565b600061286b826128fe565b9150612876836128fe565b92508282101561288957612888612a27565b5b828203905092915050565b600061289f826128de565b9050919050565b60008115159050919050565b60007fffffffff0000000000000000000000000000000000000000000000000000000082169050919050565b600073ffffffffffffffffffffffffffffffffffffffff82169050919050565b6000819050919050565b82818337600083830152505050565b60005b8381101561293557808201518184015260208101905061291a565b83811115612944576000848401525b50505050565b6000600282049050600182168061296257607f821691505b6020821081141561297657612975612a85565b5b50919050565b61298582612ae3565b810181811067ffffffffffffffff821117156129a4576129a3612ab4565b5b80604052505050565b60006129b8826128fe565b91507fffffffffffffffffffffffffffffffffffffffffffffffffffffffffffffffff8214156129eb576129ea612a27565b5b600182019050919050565b6000612a01826128fe565b9150612a0c836128fe565b925082612a1c57612a1b612a56565b5b828206905092915050565b7f4e487b7100000000000000000000000000000000000000000000000000000000600052601160045260246000fd5b7f4e487b7100000000000000000000000000000000000000000000000000000000600052601260045260246000fd5b7f4e487b7100000000000000000000000000000000000000000000000000000000600052602260045260246000fd5b7f4e487b7100000000000000000000000000000000000000000000000000000000600052604160045260246000fd5b6000601f19601f8301169050919050565b7f4552433732313a207472616e7366657220746f206e6f6e20455243373231526560008201527f63656976657220696d706c656d656e7465720000000000000000000000000000602082015250565b7f4552433732313a20746f6b656e20616c7265616479206d696e74656400000000600082015250565b7f4552433732313a207472616e7366657220746f20746865207a65726f2061646460008201527f7265737300000000000000000000000000000000000000000000000000000000602082015250565b7f4552433732313a20617070726f766520746f2063616c6c657200000000000000600082015250565b7f4552433732313a206f70657261746f7220717565727920666f72206e6f6e657860008201527f697374656e7420746f6b656e0000000000000000000000000000000000000000602082015250565b7f4552433732313a20617070726f76652063616c6c6572206973206e6f74206f7760008201527f6e6572206e6f7220617070726f76656420666f7220616c6c0000000000000000602082015250565b7f4e6f7420746865206f776e657200000000000000000000000000000000000000600082015250565b7f4552433732313a2062616c616e636520717565727920666f7220746865207a6560008201527f726f206164647265737300000000000000000000000000000000000000000000602082015250565b7f4552433732313a206f776e657220717565727920666f72206e6f6e657869737460008201527f656e7420746f6b656e0000000000000000000000000000000000000000000000602082015250565b7f45524337323155524953746f726167653a2055524920736574206f66206e6f6e60008201527f6578697374656e7420746f6b656e000000000000000000000000000000000000602082015250565b7f4d617820726f79616c7469657320617265203930250000000000000000000000600082015250565b7f4552433732313a206d696e7420746f20746865207a65726f2061646472657373600082015250565b7f45524337323155524953746f726167653a2055524920717565727920666f722060008201527f6e6f6e6578697374656e7420746f6b656e000000000000000000000000000000602082015250565b7f4552433732313a20617070726f76656420717565727920666f72206e6f6e657860008201527f697374656e7420746f6b656e0000000000000000000000000000000000000000602082015250565b7f4552433732313a207472616e73666572206f6620746f6b656e2074686174206960008201527f73206e6f74206f776e0000000000000000000000000000000000000000000000602082015250565b7f4552433732314d657461646174613a2055524920717565727920666f72206e6f60008201527f6e6578697374656e7420746f6b656e0000000000000000000000000000000000602082015250565b7f4552433732313a20617070726f76616c20746f2063757272656e74206f776e6560008201527f7200000000000000000000000000000000000000000000000000000000000000602082015250565b7f4552433732313a207472616e736665722063616c6c6572206973206e6f74206f60008201527f776e6572206e6f7220617070726f766564000000000000000000000000000000602082015250565b612fcd81612894565b8114612fd857600080fd5b50565b612fe4816128a6565b8114612fef57600080fd5b50565b612ffb816128b2565b811461300657600080fd5b50565b613012816128fe565b811461301d57600080fd5b5056fea264697066735822122059e86b715f1853527974c9c6d307a3589270b18ccaf0dc0c53170eceee4da2a864736f6c63430008040033",
  "immutableReferences": {},
  "source": "// SPDX-License-Identifier: UNLICENSED\r\npragma solidity 0.8.4;\r\n\r\nimport \"@openzeppelin/contracts/utils/Counters.sol\";\r\nimport \"@openzeppelin/contracts/token/ERC721/extensions/ERC721URIStorage.sol\";\r\n\r\n// ERC721URIStorage is the contract from openzeppelin for v0.8 that includes the metadata \r\ncontract PumlNFT is ERC721URIStorage {\r\n    using Counters for Counters.Counter;\r\n    Counters.Counter private _tokenIds;\r\n\r\n    // Data of each NFT\r\n    struct TokenData {\r\n        address payable creator; // creator of the NFT\r\n        uint256 royalties;       // royalties to be paid to NFT creator on a resale. In basic points\r\n        string lockedContent;    // Content that is locked until the token is sold, and then will be visible to the owner\r\n    }\r\n    mapping(uint256 => TokenData) tokens;\r\n\r\n    constructor() ERC721(\"Puml NFT\", \"PUML\") {}\r\n\r\n    function getCreator(uint256 _tokenId) public view returns (address) {\r\n        return tokens[_tokenId].creator;\r\n    }\r\n\r\n    // returns in basic points the royalties of a token\r\n    function getRoyalties(uint256 _tokenId) public view returns (uint256) {\r\n        return tokens[_tokenId].royalties;\r\n    }\r\n\r\n    // mints the NFT and save the data in the \"tokens\" map\r\n    function createItem(string memory tokenURI, uint256 _royalties, string memory _lockedContent)\r\n        public\r\n        returns (uint256)\r\n    {\r\n        require(_royalties <9000, \"Max royalties are 90%\");\r\n\r\n        _tokenIds.increment();\r\n\r\n        uint256 newItemId = _tokenIds.current();\r\n        _mint(msg.sender, newItemId);\r\n        _setTokenURI(newItemId, tokenURI);\r\n\r\n        tokens[newItemId] = TokenData({ creator: payable(msg.sender), royalties: _royalties, lockedContent:_lockedContent});\r\n    \r\n        return newItemId;\r\n    }\r\n\r\n    // returns the string \"locked\", only available for the owner\r\n    function unlockContent(uint256 _tokenId) public view returns (string memory)\r\n    {\r\n        require(this.ownerOf(_tokenId) == msg.sender, \"Not the owner\");\r\n        return tokens[_tokenId].lockedContent;\r\n    }\r\n}\r\n",
  "sourcePath": "/Volumes/Work/work/PUML/ethcontracts/contracts/PumlNFT.sol",
  "compiler": {
    "name": "solc",
    "version": "0.8.4+commit.c7e474f2.Emscripten.clang"
  },
  "schemaVersion": "3.4.3",
  "updatedAt": "2021-09-14T03:39:45.545Z",
  "networkType": "ethereum",
  "devdoc": {
    "kind": "dev",
    "methods": {
      "approve(address,uint256)": {
        "details": "See {IERC721-approve}."
      },
      "balanceOf(address)": {
        "details": "See {IERC721-balanceOf}."
      },
      "getApproved(uint256)": {
        "details": "See {IERC721-getApproved}."
      },
      "isApprovedForAll(address,address)": {
        "details": "See {IERC721-isApprovedForAll}."
      },
      "name()": {
        "details": "See {IERC721Metadata-name}."
      },
      "ownerOf(uint256)": {
        "details": "See {IERC721-ownerOf}."
      },
      "safeTransferFrom(address,address,uint256)": {
        "details": "See {IERC721-safeTransferFrom}."
      },
      "safeTransferFrom(address,address,uint256,bytes)": {
        "details": "See {IERC721-safeTransferFrom}."
      },
      "setApprovalForAll(address,bool)": {
        "details": "See {IERC721-setApprovalForAll}."
      },
      "supportsInterface(bytes4)": {
        "details": "See {IERC165-supportsInterface}."
      },
      "symbol()": {
        "details": "See {IERC721Metadata-symbol}."
      },
      "tokenURI(uint256)": {
        "details": "See {IERC721Metadata-tokenURI}."
      },
      "transferFrom(address,address,uint256)": {
        "details": "See {IERC721-transferFrom}."
      }
    },
    "version": 1
  },
  "userdoc": {
    "kind": "user",
    "methods": {},
    "version": 1
  }
}