{
  "contractName": "PumlStake",
  "abi": [
    {
      "anonymous": false,
      "inputs": [
        {
          "indexed": true,
          "internalType": "address",
          "name": "user",
          "type": "address"
        },
        {
          "indexed": false,
          "internalType": "uint256",
          "name": "collect",
          "type": "uint256"
        }
      ],
      "name": "Collect",
      "type": "event"
    },
    {
      "anonymous": false,
      "inputs": [
        {
          "indexed": true,
          "internalType": "address",
          "name": "previousOwner",
          "type": "address"
        },
        {
          "indexed": true,
          "internalType": "address",
          "name": "newOwner",
          "type": "address"
        }
      ],
      "name": "OwnershipTransferred",
      "type": "event"
    },
    {
      "anonymous": false,
      "inputs": [
        {
          "indexed": true,
          "internalType": "address",
          "name": "user",
          "type": "address"
        },
        {
          "indexed": false,
          "internalType": "uint256",
          "name": "reward",
          "type": "uint256"
        }
      ],
      "name": "RewardPaid",
      "type": "event"
    },
    {
      "anonymous": false,
      "inputs": [
        {
          "indexed": true,
          "internalType": "address",
          "name": "user",
          "type": "address"
        },
        {
          "indexed": false,
          "internalType": "uint256",
          "name": "amount",
          "type": "uint256"
        }
      ],
      "name": "Staked",
      "type": "event"
    },
    {
      "anonymous": false,
      "inputs": [
        {
          "indexed": true,
          "internalType": "address",
          "name": "user",
          "type": "address"
        },
        {
          "indexed": false,
          "internalType": "uint256",
          "name": "amount",
          "type": "uint256"
        }
      ],
      "name": "Withdrawn",
      "type": "event"
    },
    {
      "inputs": [
        {
          "internalType": "address",
          "name": "",
          "type": "address"
        }
      ],
      "name": "balances",
      "outputs": [
        {
          "internalType": "uint256",
          "name": "",
          "type": "uint256"
        }
      ],
      "stateMutability": "view",
      "type": "function"
    },
    {
      "inputs": [
        {
          "internalType": "address",
          "name": "",
          "type": "address"
        }
      ],
      "name": "balancesNFT",
      "outputs": [
        {
          "internalType": "uint256",
          "name": "",
          "type": "uint256"
        }
      ],
      "stateMutability": "view",
      "type": "function"
    },
    {
      "inputs": [],
      "name": "lastUpdateTime",
      "outputs": [
        {
          "internalType": "uint256",
          "name": "",
          "type": "uint256"
        }
      ],
      "stateMutability": "view",
      "type": "function"
    },
    {
      "inputs": [],
      "name": "owner",
      "outputs": [
        {
          "internalType": "address",
          "name": "",
          "type": "address"
        }
      ],
      "stateMutability": "view",
      "type": "function"
    },
    {
      "inputs": [],
      "name": "renounceOwnership",
      "outputs": [],
      "stateMutability": "nonpayable",
      "type": "function"
    },
    {
      "inputs": [],
      "name": "rewardRate",
      "outputs": [
        {
          "internalType": "uint256",
          "name": "",
          "type": "uint256"
        }
      ],
      "stateMutability": "view",
      "type": "function"
    },
    {
      "inputs": [
        {
          "internalType": "uint256",
          "name": "",
          "type": "uint256"
        }
      ],
      "name": "stakeData",
      "outputs": [
        {
          "internalType": "uint256",
          "name": "",
          "type": "uint256"
        }
      ],
      "stateMutability": "view",
      "type": "function"
    },
    {
      "inputs": [
        {
          "internalType": "uint256",
          "name": "",
          "type": "uint256"
        }
      ],
      "name": "stakedAssets",
      "outputs": [
        {
          "internalType": "address",
          "name": "",
          "type": "address"
        }
      ],
      "stateMutability": "view",
      "type": "function"
    },
    {
      "inputs": [],
      "name": "totalSupply",
      "outputs": [
        {
          "internalType": "uint256",
          "name": "",
          "type": "uint256"
        }
      ],
      "stateMutability": "view",
      "type": "function"
    },
    {
      "inputs": [
        {
          "internalType": "address",
          "name": "newOwner",
          "type": "address"
        }
      ],
      "name": "transferOwnership",
      "outputs": [],
      "stateMutability": "nonpayable",
      "type": "function"
    },
    {
      "inputs": [
        {
          "internalType": "address",
          "name": "",
          "type": "address"
        }
      ],
      "name": "userFeeReward",
      "outputs": [
        {
          "internalType": "uint256",
          "name": "",
          "type": "uint256"
        }
      ],
      "stateMutability": "view",
      "type": "function"
    },
    {
      "inputs": [
        {
          "internalType": "address",
          "name": "",
          "type": "address"
        }
      ],
      "name": "userFeewardStored",
      "outputs": [
        {
          "internalType": "uint256",
          "name": "",
          "type": "uint256"
        }
      ],
      "stateMutability": "view",
      "type": "function"
    },
    {
      "inputs": [
        {
          "internalType": "address",
          "name": "",
          "type": "address"
        }
      ],
      "name": "userLastReward",
      "outputs": [
        {
          "internalType": "uint256",
          "name": "",
          "type": "uint256"
        }
      ],
      "stateMutability": "view",
      "type": "function"
    },
    {
      "inputs": [
        {
          "internalType": "address",
          "name": "",
          "type": "address"
        }
      ],
      "name": "userLastUpdateTime",
      "outputs": [
        {
          "internalType": "uint256",
          "name": "",
          "type": "uint256"
        }
      ],
      "stateMutability": "view",
      "type": "function"
    },
    {
      "inputs": [
        {
          "internalType": "address",
          "name": "",
          "type": "address"
        }
      ],
      "name": "userLastUpdateTimeFeeward",
      "outputs": [
        {
          "internalType": "uint256",
          "name": "",
          "type": "uint256"
        }
      ],
      "stateMutability": "view",
      "type": "function"
    },
    {
      "inputs": [
        {
          "internalType": "address",
          "name": "",
          "type": "address"
        }
      ],
      "name": "userLastUpdateTimeStake",
      "outputs": [
        {
          "internalType": "uint256",
          "name": "",
          "type": "uint256"
        }
      ],
      "stateMutability": "view",
      "type": "function"
    },
    {
      "inputs": [
        {
          "internalType": "address",
          "name": "",
          "type": "address"
        }
      ],
      "name": "userRewardPaid",
      "outputs": [
        {
          "internalType": "uint256",
          "name": "",
          "type": "uint256"
        }
      ],
      "stateMutability": "view",
      "type": "function"
    },
    {
      "inputs": [
        {
          "internalType": "address",
          "name": "",
          "type": "address"
        }
      ],
      "name": "userRewardStored",
      "outputs": [
        {
          "internalType": "uint256",
          "name": "",
          "type": "uint256"
        }
      ],
      "stateMutability": "view",
      "type": "function"
    },
    {
      "inputs": [
        {
          "internalType": "uint256",
          "name": "_tokenId",
          "type": "uint256"
        }
      ],
      "name": "getStakedAssets",
      "outputs": [
        {
          "internalType": "address",
          "name": "",
          "type": "address"
        }
      ],
      "stateMutability": "view",
      "type": "function"
    },
    {
      "inputs": [
        {
          "internalType": "uint256",
          "name": "_tokenId",
          "type": "uint256"
        },
        {
          "internalType": "address",
          "name": "_address",
          "type": "address"
        }
      ],
      "name": "setStakedAssets",
      "outputs": [],
      "stateMutability": "nonpayable",
      "type": "function"
    },
    {
      "inputs": [
        {
          "internalType": "address",
          "name": "_address",
          "type": "address"
        },
        {
          "internalType": "uint256",
          "name": "_amount",
          "type": "uint256"
        },
        {
          "internalType": "bool",
          "name": "param",
          "type": "bool"
        }
      ],
      "name": "setBalancesNFT",
      "outputs": [],
      "stateMutability": "nonpayable",
      "type": "function"
    },
    {
      "inputs": [
        {
          "internalType": "address",
          "name": "account",
          "type": "address"
        },
        {
          "internalType": "uint256",
          "name": "collect",
          "type": "uint256"
        },
        {
          "internalType": "uint256",
          "name": "feeward",
          "type": "uint256"
        }
      ],
      "name": "setUserRewardUpdate",
      "outputs": [],
      "stateMutability": "nonpayable",
      "type": "function"
    },
    {
      "inputs": [],
      "name": "lastTimeRewardApplicable",
      "outputs": [
        {
          "internalType": "uint256",
          "name": "",
          "type": "uint256"
        }
      ],
      "stateMutability": "view",
      "type": "function"
    },
    {
      "inputs": [
        {
          "internalType": "address",
          "name": "account",
          "type": "address"
        }
      ],
      "name": "getRewardData",
      "outputs": [
        {
          "components": [
            {
              "internalType": "uint256",
              "name": "lastUpdateTime",
              "type": "uint256"
            },
            {
              "internalType": "uint256",
              "name": "userLastUpdateTime",
              "type": "uint256"
            },
            {
              "internalType": "uint256",
              "name": "userLastUpdateTimeStake",
              "type": "uint256"
            },
            {
              "internalType": "uint256",
              "name": "userLastUpdateTimeFeeward",
              "type": "uint256"
            },
            {
              "internalType": "uint256",
              "name": "userRewardStored",
              "type": "uint256"
            },
            {
              "internalType": "uint256",
              "name": "userFeewardStored",
              "type": "uint256"
            },
            {
              "internalType": "uint256",
              "name": "balances",
              "type": "uint256"
            },
            {
              "internalType": "uint256",
              "name": "totalBalances",
              "type": "uint256"
            },
            {
              "internalType": "uint256",
              "name": "balancesNFT",
              "type": "uint256"
            },
            {
              "internalType": "uint256",
              "name": "userRewardPaid",
              "type": "uint256"
            }
          ],
          "internalType": "struct PumlStake.StakeData",
          "name": "",
          "type": "tuple"
        }
      ],
      "stateMutability": "view",
      "type": "function"
    },
    {
      "inputs": [
        {
          "internalType": "uint256",
          "name": "amount",
          "type": "uint256"
        },
        {
          "internalType": "uint256",
          "name": "collect",
          "type": "uint256"
        },
        {
          "internalType": "uint256",
          "name": "feeward",
          "type": "uint256"
        },
        {
          "internalType": "address",
          "name": "staker",
          "type": "address"
        }
      ],
      "name": "stake",
      "outputs": [],
      "stateMutability": "payable",
      "type": "function"
    },
    {
      "inputs": [
        {
          "internalType": "uint256",
          "name": "amount",
          "type": "uint256"
        },
        {
          "internalType": "uint256",
          "name": "collect",
          "type": "uint256"
        },
        {
          "internalType": "uint256",
          "name": "feeward",
          "type": "uint256"
        }
      ],
      "name": "withdraw",
      "outputs": [],
      "stateMutability": "payable",
      "type": "function"
    },
    {
      "inputs": [
        {
          "internalType": "uint256",
          "name": "feeward",
          "type": "uint256"
        },
        {
          "internalType": "uint256",
          "name": "collect",
          "type": "uint256"
        }
      ],
      "name": "getCollect",
      "outputs": [],
      "stateMutability": "payable",
      "type": "function"
    },
    {
      "inputs": [
        {
          "internalType": "uint256",
          "name": "reward",
          "type": "uint256"
        },
        {
          "internalType": "uint256",
          "name": "collect",
          "type": "uint256"
        },
        {
          "internalType": "uint256",
          "name": "feeward",
          "type": "uint256"
        }
      ],
      "name": "getReward",
      "outputs": [],
      "stateMutability": "payable",
      "type": "function"
    }
  ],
  "bytecode": "0x6080604052600a60025534801561001557600080fd5b5061003261002761003e60201b60201c565b61004660201b60201c565b6001808190555061010a565b600033905090565b60008060009054906101000a900473ffffffffffffffffffffffffffffffffffffffff169050816000806101000a81548173ffffffffffffffffffffffffffffffffffffffff021916908373ffffffffffffffffffffffffffffffffffffffff1602179055508173ffffffffffffffffffffffffffffffffffffffff168173ffffffffffffffffffffffffffffffffffffffff167f8be0079c531659141344cd1fd0a4f28419497f9722a3daafe3b4186f6b6457e060405160405180910390a35050565b611d40806101196000396000f3fe6080604052600436106101b75760003560e01c80637b0a47ee116100ec578063ba14f26a1161008a578063c8f33c9111610064578063c8f33c9114610646578063d17f742a14610671578063e856ee48146106ae578063f2fde38b146106eb576101b7565b8063ba14f26a146105a3578063bcb4fa42146105e0578063c5fc82a114610609576101b7565b80638107368b116100c65780638107368b146104e25780638da5cb5b1461051f578063a41fe49f1461054a578063aeb640f114610566576101b7565b80637b0a47ee1461044f5780637d8fc88e1461047a57806380faa57d146104b7576101b7565b80633a42b053116101595780634595242d116101335780634595242d146103a95780634a90bc3f146103d25780635db8de191461040f578063715018a614610438576101b7565b80633a42b053146103135780633cbdef1314610350578063451831e41461036c576101b7565b80630bacec21116101955780630bacec211461027357806318160ddd1461028f57806327e235e3146102ba57806330815e56146102f7576101b7565b80630223705e146101bc5780630723d60d146101f957806307c217ec14610236575b600080fd5b3480156101c857600080fd5b506101e360048036038101906101de91906116e4565b610714565b6040516101f09190611af7565b60405180910390f35b34801561020557600080fd5b50610220600480360381019061021b91906116e4565b61072c565b60405161022d9190611af7565b60405180910390f35b34801561024257600080fd5b5061025d600480360381019061025891906116e4565b610744565b60405161026a9190611af7565b60405180910390f35b61028d6004803603810190610288919061184c565b61075c565b005b34801561029b57600080fd5b506102a4610909565b6040516102b19190611af7565b60405180910390f35b3480156102c657600080fd5b506102e160048036038101906102dc91906116e4565b61090f565b6040516102ee9190611af7565b60405180910390f35b610311600480360381019061030c919061189b565b610927565b005b34801561031f57600080fd5b5061033a600480360381019061033591906117ab565b6109e5565b6040516103479190611a60565b60405180910390f35b61036a60048036038101906103659190611810565b610a22565b005b34801561037857600080fd5b50610393600480360381019061038e91906116e4565b610ade565b6040516103a09190611adb565b60405180910390f35b3480156103b557600080fd5b506103d060048036038101906103cb919061175c565b610d3a565b005b3480156103de57600080fd5b506103f960048036038101906103f491906117ab565b610d95565b6040516104069190611af7565b60405180910390f35b34801561041b57600080fd5b506104366004803603810190610431919061170d565b610db9565b005b34801561044457600080fd5b5061044d610e76565b005b34801561045b57600080fd5b50610464610efe565b6040516104719190611af7565b60405180910390f35b34801561048657600080fd5b506104a1600480360381019061049c91906117ab565b610f04565b6040516104ae9190611a60565b60405180910390f35b3480156104c357600080fd5b506104cc610f37565b6040516104d99190611af7565b60405180910390f35b3480156104ee57600080fd5b50610509600480360381019061050491906116e4565b610f3f565b6040516105169190611af7565b60405180910390f35b34801561052b57600080fd5b50610534610f57565b6040516105419190611a60565b60405180910390f35b610564600480360381019061055f919061184c565b610f80565b005b34801561057257600080fd5b5061058d600480360381019061058891906116e4565b61103c565b60405161059a9190611af7565b60405180910390f35b3480156105af57600080fd5b506105ca60048036038101906105c591906116e4565b611054565b6040516105d79190611af7565b60405180910390f35b3480156105ec57600080fd5b50610607600480360381019061060291906117d4565b61106c565b005b34801561061557600080fd5b50610630600480360381019061062b91906116e4565b6110c2565b60405161063d9190611af7565b60405180910390f35b34801561065257600080fd5b5061065b6110da565b6040516106689190611af7565b60405180910390f35b34801561067d57600080fd5b50610698600480360381019061069391906116e4565b6110e0565b6040516106a59190611af7565b60405180910390f35b3480156106ba57600080fd5b506106d560048036038101906106d091906116e4565b6110f8565b6040516106e29190611af7565b60405180910390f35b3480156106f757600080fd5b50610712600480360381019061070d91906116e4565b611110565b005b600f6020528060005260406000206000915090505481565b600b6020528060005260406000206000915090505481565b60086020528060005260406000206000915090505481565b600260015414156107a2576040517f08c379a000000000000000000000000000000000000000000000000000000000815260040161079990611abb565b60405180910390fd5b600260018190555060008311156108fd576107be338383611208565b82600860003373ffffffffffffffffffffffffffffffffffffffff1673ffffffffffffffffffffffffffffffffffffffff168152602001908152602001600020600082825461080d9190611b79565b9250508190555082600960003373ffffffffffffffffffffffffffffffffffffffff1673ffffffffffffffffffffffffffffffffffffffff1681526020019081526020016000208190555082600a60003373ffffffffffffffffffffffffffffffffffffffff1673ffffffffffffffffffffffffffffffffffffffff16815260200190815260200160002060008282546108a79190611b23565b925050819055503373ffffffffffffffffffffffffffffffffffffffff167fe2403640ba68fed3a2f88b7557551d1993f84b99bb10ff833f0cf8db0c5e0486846040516108f49190611af7565b60405180910390a25b60018081905550505050565b600d5481565b600e6020528060005260406000206000915090505481565b6002600154141561096d576040517f08c379a000000000000000000000000000000000000000000000000000000000815260040161096490611abb565b60405180910390fd5b600260018190555061097f848261134f565b61098a818484610d3a565b8073ffffffffffffffffffffffffffffffffffffffff167f9e71bc8eea02a63969f509818f2dafb9254532904319f9dbda79b67bd34a5f3d856040516109d09190611af7565b60405180910390a26001808190555050505050565b60006010600083815260200190815260200160002060009054906101000a900473ffffffffffffffffffffffffffffffffffffffff169050919050565b60026001541415610a68576040517f08c379a0000000000000000000000000000000000000000000000000000000008152600401610a5f90611abb565b60405180910390fd5b60026001819055506000811115610ad357610a843383836113c2565b3373ffffffffffffffffffffffffffffffffffffffff167f4256a058fa2b123d727576d3d31e3a272db98ee5fe264e229610ce43dc84999982604051610aca9190611af7565b60405180910390a25b600180819055505050565b610ae6611652565b6000604051806101400160405280610afc610f37565b8152602001600560008673ffffffffffffffffffffffffffffffffffffffff1673ffffffffffffffffffffffffffffffffffffffff168152602001908152602001600020548152602001600760008673ffffffffffffffffffffffffffffffffffffffff1673ffffffffffffffffffffffffffffffffffffffff168152602001908152602001600020548152602001600660008673ffffffffffffffffffffffffffffffffffffffff1673ffffffffffffffffffffffffffffffffffffffff168152602001908152602001600020548152602001600860008673ffffffffffffffffffffffffffffffffffffffff1673ffffffffffffffffffffffffffffffffffffffff168152602001908152602001600020548152602001600b60008673ffffffffffffffffffffffffffffffffffffffff1673ffffffffffffffffffffffffffffffffffffffff168152602001908152602001600020548152602001600e60008673ffffffffffffffffffffffffffffffffffffffff1673ffffffffffffffffffffffffffffffffffffffff168152602001908152602001600020548152602001600d548152602001600f60008673ffffffffffffffffffffffffffffffffffffffff1673ffffffffffffffffffffffffffffffffffffffff168152602001908152602001600020548152602001600a60008673ffffffffffffffffffffffffffffffffffffffff1673ffffffffffffffffffffffffffffffffffffffff16815260200190815260200160002054815250905080915050919050565b610d45838383611208565b610d4d610f37565b600760008573ffffffffffffffffffffffffffffffffffffffff1673ffffffffffffffffffffffffffffffffffffffff16815260200190815260200160002081905550505050565b60048181548110610da557600080fd5b906000526020600020016000915090505481565b8015610e1a5781600f60008573ffffffffffffffffffffffffffffffffffffffff1673ffffffffffffffffffffffffffffffffffffffff1681526020019081526020016000206000828254610e0e9190611b23565b92505081905550610e71565b81600f60008573ffffffffffffffffffffffffffffffffffffffff1673ffffffffffffffffffffffffffffffffffffffff1681526020019081526020016000206000828254610e699190611b79565b925050819055505b505050565b610e7e611514565b73ffffffffffffffffffffffffffffffffffffffff16610e9c610f57565b73ffffffffffffffffffffffffffffffffffffffff1614610ef2576040517f08c379a0000000000000000000000000000000000000000000000000000000008152600401610ee990611a9b565b60405180910390fd5b610efc600061151c565b565b60025481565b60106020528060005260406000206000915054906101000a900473ffffffffffffffffffffffffffffffffffffffff1681565b600042905090565b60056020528060005260406000206000915090505481565b60008060009054906101000a900473ffffffffffffffffffffffffffffffffffffffff16905090565b60026001541415610fc6576040517f08c379a0000000000000000000000000000000000000000000000000000000008152600401610fbd90611abb565b60405180910390fd5b6002600181905550610fd7836115e0565b610fe2338383610d3a565b3373ffffffffffffffffffffffffffffffffffffffff167f7084f5476618d8e60b11ef0d7d3f06914655adb8793e28ff7f018d4c76d505d5846040516110289190611af7565b60405180910390a260018081905550505050565b60066020528060005260406000206000915090505481565b600a6020528060005260406000206000915090505481565b806010600084815260200190815260200160002060006101000a81548173ffffffffffffffffffffffffffffffffffffffff021916908373ffffffffffffffffffffffffffffffffffffffff1602179055505050565b60076020528060005260406000206000915090505481565b60035481565b60096020528060005260406000206000915090505481565b600c6020528060005260406000206000915090505481565b611118611514565b73ffffffffffffffffffffffffffffffffffffffff16611136610f57565b73ffffffffffffffffffffffffffffffffffffffff161461118c576040517f08c379a000000000000000000000000000000000000000000000000000000000815260040161118390611a9b565b60405180910390fd5b600073ffffffffffffffffffffffffffffffffffffffff168173ffffffffffffffffffffffffffffffffffffffff1614156111fc576040517f08c379a00000000000000000000000000000000000000000000000000000000081526004016111f390611a7b565b60405180910390fd5b6112058161151c565b50565b81600860008573ffffffffffffffffffffffffffffffffffffffff1673ffffffffffffffffffffffffffffffffffffffff16815260200190815260200160002060008282546112579190611b23565b9250508190555080600b60008573ffffffffffffffffffffffffffffffffffffffff1673ffffffffffffffffffffffffffffffffffffffff16815260200190815260200160002060008282546112ad9190611b23565b925050819055506112bc610f37565b600560008573ffffffffffffffffffffffffffffffffffffffff1673ffffffffffffffffffffffffffffffffffffffff16815260200190815260200160002081905550611307610f37565b600660008573ffffffffffffffffffffffffffffffffffffffff1673ffffffffffffffffffffffffffffffffffffffff16815260200190815260200160002081905550505050565b81600d60008282546113619190611b23565b9250508190555081600e60008373ffffffffffffffffffffffffffffffffffffffff1673ffffffffffffffffffffffffffffffffffffffff16815260200190815260200160002060008282546113b79190611b23565b925050819055505050565b80600860008573ffffffffffffffffffffffffffffffffffffffff1673ffffffffffffffffffffffffffffffffffffffff16815260200190815260200160002060008282546114119190611b23565b9250508190555081600b60008573ffffffffffffffffffffffffffffffffffffffff1673ffffffffffffffffffffffffffffffffffffffff16815260200190815260200160002060008282546114679190611b23565b9250508190555080600b60008573ffffffffffffffffffffffffffffffffffffffff1673ffffffffffffffffffffffffffffffffffffffff16815260200190815260200160002060008282546114bd9190611b79565b925050819055506114cc610f37565b600660008573ffffffffffffffffffffffffffffffffffffffff1673ffffffffffffffffffffffffffffffffffffffff16815260200190815260200160002081905550505050565b600033905090565b60008060009054906101000a900473ffffffffffffffffffffffffffffffffffffffff169050816000806101000a81548173ffffffffffffffffffffffffffffffffffffffff021916908373ffffffffffffffffffffffffffffffffffffffff1602179055508173ffffffffffffffffffffffffffffffffffffffff168173ffffffffffffffffffffffffffffffffffffffff167f8be0079c531659141344cd1fd0a4f28419497f9722a3daafe3b4186f6b6457e060405160405180910390a35050565b80600d60008282546115f29190611b79565b9250508190555080600e60003373ffffffffffffffffffffffffffffffffffffffff1673ffffffffffffffffffffffffffffffffffffffff16815260200190815260200160002060008282546116489190611b79565b9250508190555050565b604051806101400160405280600081526020016000815260200160008152602001600081526020016000815260200160008152602001600081526020016000815260200160008152602001600081525090565b6000813590506116b481611cc5565b92915050565b6000813590506116c981611cdc565b92915050565b6000813590506116de81611cf3565b92915050565b6000602082840312156116f657600080fd5b6000611704848285016116a5565b91505092915050565b60008060006060848603121561172257600080fd5b6000611730868287016116a5565b9350506020611741868287016116cf565b9250506040611752868287016116ba565b9150509250925092565b60008060006060848603121561177157600080fd5b600061177f868287016116a5565b9350506020611790868287016116cf565b92505060406117a1868287016116cf565b9150509250925092565b6000602082840312156117bd57600080fd5b60006117cb848285016116cf565b91505092915050565b600080604083850312156117e757600080fd5b60006117f5858286016116cf565b9250506020611806858286016116a5565b9150509250929050565b6000806040838503121561182357600080fd5b6000611831858286016116cf565b9250506020611842858286016116cf565b9150509250929050565b60008060006060848603121561186157600080fd5b600061186f868287016116cf565b9350506020611880868287016116cf565b9250506040611891868287016116cf565b9150509250925092565b600080600080608085870312156118b157600080fd5b60006118bf878288016116cf565b94505060206118d0878288016116cf565b93505060406118e1878288016116cf565b92505060606118f2878288016116a5565b91505092959194509250565b61190781611bad565b82525050565b600061191a602683611b12565b915061192582611c24565b604082019050919050565b600061193d602083611b12565b915061194882611c73565b602082019050919050565b6000611960601f83611b12565b915061196b82611c9c565b602082019050919050565b6101408201600082015161198d6000850182611a42565b5060208201516119a06020850182611a42565b5060408201516119b36040850182611a42565b5060608201516119c66060850182611a42565b5060808201516119d96080850182611a42565b5060a08201516119ec60a0850182611a42565b5060c08201516119ff60c0850182611a42565b5060e0820151611a1260e0850182611a42565b50610100820151611a27610100850182611a42565b50610120820151611a3c610120850182611a42565b50505050565b611a4b81611beb565b82525050565b611a5a81611beb565b82525050565b6000602082019050611a7560008301846118fe565b92915050565b60006020820190508181036000830152611a948161190d565b9050919050565b60006020820190508181036000830152611ab481611930565b9050919050565b60006020820190508181036000830152611ad481611953565b9050919050565b600061014082019050611af16000830184611976565b92915050565b6000602082019050611b0c6000830184611a51565b92915050565b600082825260208201905092915050565b6000611b2e82611beb565b9150611b3983611beb565b9250827fffffffffffffffffffffffffffffffffffffffffffffffffffffffffffffffff03821115611b6e57611b6d611bf5565b5b828201905092915050565b6000611b8482611beb565b9150611b8f83611beb565b925082821015611ba257611ba1611bf5565b5b828203905092915050565b6000611bb882611bcb565b9050919050565b60008115159050919050565b600073ffffffffffffffffffffffffffffffffffffffff82169050919050565b6000819050919050565b7f4e487b7100000000000000000000000000000000000000000000000000000000600052601160045260246000fd5b7f4f776e61626c653a206e6577206f776e657220697320746865207a65726f206160008201527f6464726573730000000000000000000000000000000000000000000000000000602082015250565b7f4f776e61626c653a2063616c6c6572206973206e6f7420746865206f776e6572600082015250565b7f5265656e7472616e637947756172643a207265656e7472616e742063616c6c00600082015250565b611cce81611bad565b8114611cd957600080fd5b50565b611ce581611bbf565b8114611cf057600080fd5b50565b611cfc81611beb565b8114611d0757600080fd5b5056fea2646970667358221220c461c2437cd8be4083705d2c17d8b6b15e8e92240b19becfe0449d78f2dfc55b64736f6c63430008040033",
  "immutableReferences": {},
  "source": "// SPDX-License-Identifier: UNLICENSED\r\npragma solidity 0.8.4;\r\n\r\nimport \"@openzeppelin/contracts/token/ERC721/ERC721.sol\";\r\nimport \"@openzeppelin/contracts/token/ERC20/IERC20.sol\";\r\nimport \"@openzeppelin/contracts/access/Ownable.sol\";\r\nimport \"@openzeppelin/contracts/utils/math/SafeMath.sol\";\r\nimport \"@openzeppelin/contracts/security/ReentrancyGuard.sol\";\r\n\r\ncontract PumlStake is Ownable, ReentrancyGuard {\r\n\r\n    using SafeMath for uint256;\r\n\r\n    /* ========== STATE VARIABLES ========== */\r\n\r\n    uint256 public rewardRate = 10;\r\n    uint256 public lastUpdateTime;\r\n    uint256[] public stakeData;\r\n\r\n    mapping(address => uint256) public userLastUpdateTime;\r\n    mapping(address => uint256) public userLastUpdateTimeFeeward;\r\n    mapping(address => uint256) public userLastUpdateTimeStake;\r\n    mapping(address => uint256) public userRewardStored;\r\n    mapping(address => uint256) public userLastReward;\r\n    mapping(address => uint256) public userRewardPaid;\r\n    mapping(address => uint256) public userFeewardStored;\r\n    mapping(address => uint256) public userFeeReward;\r\n\r\n    uint256 public totalSupply;\r\n    mapping(address => uint256) public balances;\r\n    mapping(address => uint256) public balancesNFT;\r\n    mapping(uint256 => address) public stakedAssets;\r\n\r\n    struct StakeData {\r\n        uint256 lastUpdateTime;\r\n        uint256 userLastUpdateTime;\r\n        uint256 userLastUpdateTimeStake;\r\n        uint256 userLastUpdateTimeFeeward;\r\n        uint256 userRewardStored;\r\n        uint256 userFeewardStored;\r\n        uint256 balances;\r\n        uint256 totalBalances;\r\n        uint256 balancesNFT;\r\n        uint256 userRewardPaid;\r\n    }\r\n\r\n\r\n\r\n    /* ========== VIEWS ========== */\r\n\r\n    function getStakedAssets(uint256 _tokenId) public view returns (address) {\r\n        return stakedAssets[_tokenId];\r\n    }\r\n\r\n    function setStakedAssets(uint256 _tokenId, address _address) public {\r\n        stakedAssets[_tokenId] = _address;\r\n    }\r\n\r\n    function setBalancesNFT(address _address, uint256 _amount, bool param) public {\r\n        if (param) {\r\n            balancesNFT[_address] += _amount;\r\n        } else {\r\n            balancesNFT[_address] -= _amount;\r\n        }\r\n    }\r\n\r\n    function setUserRewardUpdate(address account, uint256 collect, uint256 feeward) public {\r\n        _updatePerUser(account, collect, feeward);\r\n        userLastUpdateTimeStake[account] = lastTimeRewardApplicable();\r\n    }\r\n\r\n    function lastTimeRewardApplicable() public view returns (uint256) {\r\n        return block.timestamp;\r\n    }\r\n\r\n    function _updatePerUser(address account, uint256 collect, uint256 feeward) internal {\r\n        userRewardStored[account] += collect;\r\n        userFeewardStored[account] += feeward;\r\n        userLastUpdateTime[account] = lastTimeRewardApplicable();\r\n        userLastUpdateTimeFeeward[account] = lastTimeRewardApplicable();\r\n    }\r\n\r\n    function _feewardPerUser(address account, uint256 feeward, uint256 collect) internal {\r\n        userRewardStored[account] += collect;\r\n        userFeewardStored[account] += feeward;\r\n        userFeewardStored[account] -= collect;\r\n        userLastUpdateTimeFeeward[account] = lastTimeRewardApplicable();\r\n    }\r\n\r\n    function getRewardData(address account) public view returns (StakeData memory) {\r\n        StakeData memory stakedata = StakeData({\r\n            lastUpdateTime: lastTimeRewardApplicable(),\r\n            userLastUpdateTime: userLastUpdateTime[account],\r\n            userLastUpdateTimeStake: userLastUpdateTimeStake[account],\r\n            userLastUpdateTimeFeeward: userLastUpdateTimeFeeward[account],\r\n            userRewardStored: userRewardStored[account],\r\n            userFeewardStored: userFeewardStored[account],\r\n            balances: balances[account],\r\n            totalBalances: totalSupply,\r\n            balancesNFT: balancesNFT[account],\r\n            userRewardPaid: userRewardPaid[account]\r\n        });\r\n\r\n        return stakedata;\r\n    }\r\n\r\n\r\n    /* ========== MUTATIVE FUNCTIONS ========== */\r\n\r\n    function stake(uint256 amount, uint256 collect, uint256 feeward, address staker) external payable nonReentrant {\r\n\r\n        _stake(amount, staker);\r\n        setUserRewardUpdate(staker, collect, feeward);\r\n        emit Staked(staker, amount);\r\n    }\r\n\r\n    function withdraw(uint256 amount, uint256 collect, uint256 feeward) public payable nonReentrant {\r\n\r\n        _withdraw(amount);\r\n        setUserRewardUpdate(msg.sender, collect, feeward);\r\n        emit Withdrawn(msg.sender, amount);\r\n    }\r\n\r\n    function getCollect(uint256 feeward, uint256 collect) public payable nonReentrant {\r\n\r\n        if (collect > 0) {\r\n            _feewardPerUser(msg.sender, feeward, collect);\r\n\r\n            emit Collect(msg.sender, collect);\r\n        }\r\n    }\r\n\r\n    function getReward(uint256 reward, uint256 collect, uint256 feeward) public payable nonReentrant {\r\n\r\n        if (reward > 0) {\r\n            _updatePerUser(msg.sender, collect, feeward);\r\n\r\n            userRewardStored[msg.sender] -= reward;\r\n            userLastReward[msg.sender] = reward;\r\n            userRewardPaid[msg.sender] += reward;\r\n\r\n            emit RewardPaid(msg.sender, reward);\r\n        }\r\n    }\r\n\r\n    function _stake(uint256 _amount, address _staker) internal {\r\n        totalSupply += _amount;\r\n        balances[_staker] += _amount;\r\n    }\r\n\r\n    function _withdraw(uint256 _amount) internal {\r\n        totalSupply -= _amount;\r\n        balances[msg.sender] -= _amount;\r\n    }\r\n\r\n    /* ========== MODIFIERS ========== */\r\n\r\n    modifier updateReward(address account, uint256 feeward, uint256 collect) {\r\n        if (account != address(0)) {\r\n            _updatePerUser(account, feeward, collect);\r\n            userLastUpdateTime[account] = lastTimeRewardApplicable();\r\n        }\r\n         _;\r\n    }\r\n\r\n    /* ========== EVENTS ========== */\r\n\r\n\r\n    event Staked(address indexed user, uint256 amount);\r\n    event Withdrawn(address indexed user, uint256 amount);\r\n    event RewardPaid(address indexed user, uint256 reward);\r\n    event Collect(address indexed user, uint256 collect);\r\n}\r\n",
  "sourcePath": "F:\\work\\puml-project\\ethcontracts\\contracts\\PumlStake.sol",
  "compiler": {
    "name": "solc",
    "version": "0.8.4+commit.c7e474f2.Emscripten.clang"
  },
  "schemaVersion": "3.4.5",
  "updatedAt": "2022-04-14T15:27:55.929Z",
  "devdoc": {
    "kind": "dev",
    "methods": {
      "owner()": {
        "details": "Returns the address of the current owner."
      },
      "renounceOwnership()": {
        "details": "Leaves the contract without owner. It will not be possible to call `onlyOwner` functions anymore. Can only be called by the current owner. NOTE: Renouncing ownership will leave the contract without an owner, thereby removing any functionality that is only available to the owner."
      },
      "transferOwnership(address)": {
        "details": "Transfers ownership of the contract to a new account (`newOwner`). Can only be called by the current owner."
      }
    },
    "version": 1
  },
  "userdoc": {
    "kind": "user",
    "methods": {},
    "version": 1
  }
}