{
  "contractName": "PumlStake",
  "abi": [
    {
      "anonymous": false,
      "inputs": [
        {
          "indexed": true,
          "internalType": "address",
          "name": "previousOwner",
          "type": "address"
        },
        {
          "indexed": true,
          "internalType": "address",
          "name": "newOwner",
          "type": "address"
        }
      ],
      "name": "OwnershipTransferred",
      "type": "event"
    },
    {
      "anonymous": false,
      "inputs": [
        {
          "indexed": true,
          "internalType": "address",
          "name": "user",
          "type": "address"
        },
        {
          "indexed": false,
          "internalType": "uint256",
          "name": "reward",
          "type": "uint256"
        }
      ],
      "name": "RewardPaid",
      "type": "event"
    },
    {
      "anonymous": false,
      "inputs": [
        {
          "indexed": true,
          "internalType": "address",
          "name": "user",
          "type": "address"
        },
        {
          "indexed": false,
          "internalType": "uint256",
          "name": "amount",
          "type": "uint256"
        }
      ],
      "name": "Staked",
      "type": "event"
    },
    {
      "anonymous": false,
      "inputs": [
        {
          "indexed": true,
          "internalType": "address",
          "name": "user",
          "type": "address"
        },
        {
          "indexed": false,
          "internalType": "uint256",
          "name": "amount",
          "type": "uint256"
        },
        {
          "indexed": false,
          "internalType": "uint256[]",
          "name": "tokenIds",
          "type": "uint256[]"
        }
      ],
      "name": "StakedNFT",
      "type": "event"
    },
    {
      "anonymous": false,
      "inputs": [
        {
          "indexed": true,
          "internalType": "address",
          "name": "user",
          "type": "address"
        },
        {
          "indexed": false,
          "internalType": "uint256",
          "name": "amount",
          "type": "uint256"
        }
      ],
      "name": "Withdrawn",
      "type": "event"
    },
    {
      "anonymous": false,
      "inputs": [
        {
          "indexed": true,
          "internalType": "address",
          "name": "user",
          "type": "address"
        },
        {
          "indexed": false,
          "internalType": "uint256",
          "name": "amount",
          "type": "uint256"
        },
        {
          "indexed": false,
          "internalType": "uint256[]",
          "name": "tokenIds",
          "type": "uint256[]"
        }
      ],
      "name": "WithdrawnNFT",
      "type": "event"
    },
    {
      "inputs": [
        {
          "internalType": "address",
          "name": "",
          "type": "address"
        }
      ],
      "name": "balances",
      "outputs": [
        {
          "internalType": "uint256",
          "name": "",
          "type": "uint256"
        }
      ],
      "stateMutability": "view",
      "type": "function"
    },
    {
      "inputs": [
        {
          "internalType": "address",
          "name": "",
          "type": "address"
        }
      ],
      "name": "balancesNFT",
      "outputs": [
        {
          "internalType": "uint256",
          "name": "",
          "type": "uint256"
        }
      ],
      "stateMutability": "view",
      "type": "function"
    },
    {
      "inputs": [],
      "name": "lastUpdateTime",
      "outputs": [
        {
          "internalType": "uint256",
          "name": "",
          "type": "uint256"
        }
      ],
      "stateMutability": "view",
      "type": "function"
    },
    {
      "inputs": [],
      "name": "owner",
      "outputs": [
        {
          "internalType": "address",
          "name": "",
          "type": "address"
        }
      ],
      "stateMutability": "view",
      "type": "function"
    },
    {
      "inputs": [],
      "name": "renounceOwnership",
      "outputs": [],
      "stateMutability": "nonpayable",
      "type": "function"
    },
    {
      "inputs": [],
      "name": "rewardRate",
      "outputs": [
        {
          "internalType": "uint256",
          "name": "",
          "type": "uint256"
        }
      ],
      "stateMutability": "view",
      "type": "function"
    },
    {
      "inputs": [
        {
          "internalType": "uint256",
          "name": "",
          "type": "uint256"
        }
      ],
      "name": "stakeData",
      "outputs": [
        {
          "internalType": "uint256",
          "name": "",
          "type": "uint256"
        }
      ],
      "stateMutability": "view",
      "type": "function"
    },
    {
      "inputs": [
        {
          "internalType": "uint256",
          "name": "",
          "type": "uint256"
        }
      ],
      "name": "stakedAssets",
      "outputs": [
        {
          "internalType": "address",
          "name": "",
          "type": "address"
        }
      ],
      "stateMutability": "view",
      "type": "function"
    },
    {
      "inputs": [],
      "name": "totalSupply",
      "outputs": [
        {
          "internalType": "uint256",
          "name": "",
          "type": "uint256"
        }
      ],
      "stateMutability": "view",
      "type": "function"
    },
    {
      "inputs": [],
      "name": "totalSupplyNFT",
      "outputs": [
        {
          "internalType": "uint256",
          "name": "",
          "type": "uint256"
        }
      ],
      "stateMutability": "view",
      "type": "function"
    },
    {
      "inputs": [
        {
          "internalType": "address",
          "name": "newOwner",
          "type": "address"
        }
      ],
      "name": "transferOwnership",
      "outputs": [],
      "stateMutability": "nonpayable",
      "type": "function"
    },
    {
      "inputs": [
        {
          "internalType": "address",
          "name": "",
          "type": "address"
        }
      ],
      "name": "userLastReward",
      "outputs": [
        {
          "internalType": "uint256",
          "name": "",
          "type": "uint256"
        }
      ],
      "stateMutability": "view",
      "type": "function"
    },
    {
      "inputs": [
        {
          "internalType": "address",
          "name": "",
          "type": "address"
        }
      ],
      "name": "userLastUpdateTime",
      "outputs": [
        {
          "internalType": "uint256",
          "name": "",
          "type": "uint256"
        }
      ],
      "stateMutability": "view",
      "type": "function"
    },
    {
      "inputs": [
        {
          "internalType": "address",
          "name": "",
          "type": "address"
        }
      ],
      "name": "userLastUpdateTimeNFT",
      "outputs": [
        {
          "internalType": "uint256",
          "name": "",
          "type": "uint256"
        }
      ],
      "stateMutability": "view",
      "type": "function"
    },
    {
      "inputs": [
        {
          "internalType": "address",
          "name": "",
          "type": "address"
        }
      ],
      "name": "userRewardPaid",
      "outputs": [
        {
          "internalType": "uint256",
          "name": "",
          "type": "uint256"
        }
      ],
      "stateMutability": "view",
      "type": "function"
    },
    {
      "inputs": [
        {
          "internalType": "address",
          "name": "",
          "type": "address"
        }
      ],
      "name": "userRewardStored",
      "outputs": [
        {
          "internalType": "uint256",
          "name": "",
          "type": "uint256"
        }
      ],
      "stateMutability": "view",
      "type": "function"
    },
    {
      "inputs": [],
      "name": "lastTimeRewardApplicable",
      "outputs": [
        {
          "internalType": "uint256",
          "name": "",
          "type": "uint256"
        }
      ],
      "stateMutability": "view",
      "type": "function"
    },
    {
      "inputs": [
        {
          "internalType": "address",
          "name": "account",
          "type": "address"
        },
        {
          "internalType": "uint256",
          "name": "feeward",
          "type": "uint256"
        }
      ],
      "name": "rewardPerUser",
      "outputs": [
        {
          "internalType": "uint256",
          "name": "",
          "type": "uint256"
        }
      ],
      "stateMutability": "view",
      "type": "function"
    },
    {
      "inputs": [
        {
          "internalType": "address",
          "name": "account",
          "type": "address"
        }
      ],
      "name": "getRewardData",
      "outputs": [
        {
          "internalType": "uint256[]",
          "name": "",
          "type": "uint256[]"
        }
      ],
      "stateMutability": "nonpayable",
      "type": "function"
    },
    {
      "inputs": [
        {
          "internalType": "address",
          "name": "account",
          "type": "address"
        }
      ],
      "name": "rewardPerUserNFT",
      "outputs": [
        {
          "internalType": "uint256",
          "name": "",
          "type": "uint256"
        }
      ],
      "stateMutability": "view",
      "type": "function"
    },
    {
      "inputs": [
        {
          "internalType": "uint256",
          "name": "amount",
          "type": "uint256"
        },
        {
          "internalType": "uint256",
          "name": "feeward",
          "type": "uint256"
        },
        {
          "internalType": "address",
          "name": "staker",
          "type": "address"
        }
      ],
      "name": "stake",
      "outputs": [],
      "stateMutability": "payable",
      "type": "function"
    },
    {
      "inputs": [
        {
          "internalType": "uint256",
          "name": "amount",
          "type": "uint256"
        },
        {
          "internalType": "uint256",
          "name": "feeward",
          "type": "uint256"
        }
      ],
      "name": "withdraw",
      "outputs": [],
      "stateMutability": "payable",
      "type": "function"
    },
    {
      "inputs": [
        {
          "internalType": "uint256",
          "name": "reward",
          "type": "uint256"
        },
        {
          "internalType": "uint256",
          "name": "feeward",
          "type": "uint256"
        }
      ],
      "name": "getReward",
      "outputs": [],
      "stateMutability": "payable",
      "type": "function"
    },
    {
      "inputs": [
        {
          "internalType": "address",
          "name": "_assetAddress",
          "type": "address"
        },
        {
          "internalType": "address",
          "name": "_to",
          "type": "address"
        },
        {
          "internalType": "uint256[]",
          "name": "tokenIds",
          "type": "uint256[]"
        }
      ],
      "name": "stakeNFT",
      "outputs": [],
      "stateMutability": "payable",
      "type": "function"
    },
    {
      "inputs": [
        {
          "internalType": "address",
          "name": "_assetAddress",
          "type": "address"
        },
        {
          "internalType": "address",
          "name": "_from",
          "type": "address"
        },
        {
          "internalType": "uint256[]",
          "name": "tokenIds",
          "type": "uint256[]"
        }
      ],
      "name": "withdrawNFT",
      "outputs": [],
      "stateMutability": "payable",
      "type": "function"
    }
  ],
  "bytecode": "0x6080604052600a6002553480156200001657600080fd5b50620000376200002b6200004460201b60201c565b6200004c60201b60201c565b6001808190555062000110565b600033905090565b60008060009054906101000a900473ffffffffffffffffffffffffffffffffffffffff169050816000806101000a81548173ffffffffffffffffffffffffffffffffffffffff021916908373ffffffffffffffffffffffffffffffffffffffff1602179055508173ffffffffffffffffffffffffffffffffffffffff168173ffffffffffffffffffffffffffffffffffffffff167f8be0079c531659141344cd1fd0a4f28419497f9722a3daafe3b4186f6b6457e060405160405180910390a35050565b61263480620001206000396000f3fe6080604052600436106101665760003560e01c80638107368b116100d1578063ba14f26a1161008a578063d080ee7011610064578063d080ee7014610556578063d17f742a14610593578063f2fde38b146105d0578063faa4926c146105f957610166565b8063ba14f26a146104b1578063c8f33c91146104ee578063ca8861211461051957610166565b80638107368b146103a95780638da5cb5b146103e65780639a852a7614610411578063b0ea6a841461042d578063b6108ccf14610458578063b90bc5191461049557610166565b80634a90bc3f116101235780634a90bc3f146102a6578063715018a6146102e35780637628a37d146102fa5780637b0a47ee146103165780637d8fc88e1461034157806380faa57d1461037e57610166565b80630223705e1461016b57806307c217ec146101a857806318160ddd146101e557806327e235e314610210578063441a3e701461024d578063451831e414610269575b600080fd5b34801561017757600080fd5b50610192600480360381019061018d9190611e37565b610615565b60405161019f91906121da565b60405180910390f35b3480156101b457600080fd5b506101cf60048036038101906101ca9190611e37565b61062d565b6040516101dc91906121da565b60405180910390f35b3480156101f157600080fd5b506101fa610645565b60405161020791906121da565b60405180910390f35b34801561021c57600080fd5b5061023760048036038101906102329190611e37565b61064b565b60405161024491906121da565b60405180910390f35b61026760048036038101906102629190611f2c565b610663565b005b34801561027557600080fd5b50610290600480360381019061028b9190611e37565b6107e4565b60405161029d9190612138565b60405180910390f35b3480156102b257600080fd5b506102cd60048036038101906102c89190611f03565b610aae565b6040516102da91906121da565b60405180910390f35b3480156102ef57600080fd5b506102f8610ad2565b005b610314600480360381019061030f9190611f68565b610b5a565b005b34801561032257600080fd5b5061032b610cdd565b60405161033891906121da565b60405180910390f35b34801561034d57600080fd5b5061036860048036038101906103639190611f03565b610ce3565b60405161037591906120e6565b60405180910390f35b34801561038a57600080fd5b50610393610d16565b6040516103a091906121da565b60405180910390f35b3480156103b557600080fd5b506103d060048036038101906103cb9190611e37565b610d1e565b6040516103dd91906121da565b60405180910390f35b3480156103f257600080fd5b506103fb610d36565b60405161040891906120e6565b60405180910390f35b61042b60048036038101906104269190611e60565b610d5f565b005b34801561043957600080fd5b50610442611059565b60405161044f91906121da565b60405180910390f35b34801561046457600080fd5b5061047f600480360381019061047a9190611ec7565b61105f565b60405161048c91906121da565b60405180910390f35b6104af60048036038101906104aa9190611f2c565b611231565b005b3480156104bd57600080fd5b506104d860048036038101906104d39190611e37565b6114a3565b6040516104e591906121da565b60405180910390f35b3480156104fa57600080fd5b506105036114bb565b60405161051091906121da565b60405180910390f35b34801561052557600080fd5b50610540600480360381019061053b9190611e37565b6114c1565b60405161054d91906121da565b60405180910390f35b34801561056257600080fd5b5061057d60048036038101906105789190611e37565b6114d9565b60405161058a91906121da565b60405180910390f35b34801561059f57600080fd5b506105ba60048036038101906105b59190611e37565b6115f6565b6040516105c791906121da565b60405180910390f35b3480156105dc57600080fd5b506105f760048036038101906105f29190611e37565b61160e565b005b610613600480360381019061060e9190611e60565b611706565b005b600d6020528060005260406000206000915090505481565b60076020528060005260406000206000915090505481565b600a5481565b600b6020528060005260406000206000915090505481565b600260015414156106a9576040517f08c379a00000000000000000000000000000000000000000000000000000000081526004016106a0906121ba565b60405180910390fd5b60026001819055503381600073ffffffffffffffffffffffffffffffffffffffff168273ffffffffffffffffffffffffffffffffffffffff1614610780576106f1828261105f565b600760008473ffffffffffffffffffffffffffffffffffffffff1673ffffffffffffffffffffffffffffffffffffffff1681526020019081526020016000208190555061073c610d16565b600560008473ffffffffffffffffffffffffffffffffffffffff1673ffffffffffffffffffffffffffffffffffffffff168152602001908152602001600020819055505b61078984611ae2565b3373ffffffffffffffffffffffffffffffffffffffff167f7084f5476618d8e60b11ef0d7d3f06914655adb8793e28ff7f018d4c76d505d5856040516107cf91906121da565b60405180910390a25050600180819055505050565b60606004600560008473ffffffffffffffffffffffffffffffffffffffff1673ffffffffffffffffffffffffffffffffffffffff1681526020019081526020016000205490806001815401808255809150506001900390600052602060002001600090919091909150556004600760008473ffffffffffffffffffffffffffffffffffffffff1673ffffffffffffffffffffffffffffffffffffffff1681526020019081526020016000205490806001815401808255809150506001900390600052602060002001600090919091909150556004600860008473ffffffffffffffffffffffffffffffffffffffff1673ffffffffffffffffffffffffffffffffffffffff1681526020019081526020016000205490806001815401808255809150506001900390600052602060002001600090919091909150556004600960008473ffffffffffffffffffffffffffffffffffffffff1673ffffffffffffffffffffffffffffffffffffffff1681526020019081526020016000205490806001815401808255809150506001900390600052602060002001600090919091909150556004600b60008473ffffffffffffffffffffffffffffffffffffffff1673ffffffffffffffffffffffffffffffffffffffff1681526020019081526020016000205490806001815401808255809150506001900390600052602060002001600090919091909150556004600d60008473ffffffffffffffffffffffffffffffffffffffff1673ffffffffffffffffffffffffffffffffffffffff1681526020019081526020016000205490806001815401808255809150506001900390600052602060002001600090919091909150556004805480602002602001604051908101604052809291908181526020018280548015610aa257602002820191906000526020600020905b815481526020019060010190808311610a8e575b50505050509050919050565b60048181548110610abe57600080fd5b906000526020600020016000915090505481565b610ada611b54565b73ffffffffffffffffffffffffffffffffffffffff16610af8610d36565b73ffffffffffffffffffffffffffffffffffffffff1614610b4e576040517f08c379a0000000000000000000000000000000000000000000000000000000008152600401610b459061219a565b60405180910390fd5b610b586000611b5c565b565b60026001541415610ba0576040517f08c379a0000000000000000000000000000000000000000000000000000000008152600401610b97906121ba565b60405180910390fd5b60026001819055508082600073ffffffffffffffffffffffffffffffffffffffff168273ffffffffffffffffffffffffffffffffffffffff1614610c7757610be8828261105f565b600760008473ffffffffffffffffffffffffffffffffffffffff1673ffffffffffffffffffffffffffffffffffffffff16815260200190815260200160002081905550610c33610d16565b600560008473ffffffffffffffffffffffffffffffffffffffff1673ffffffffffffffffffffffffffffffffffffffff168152602001908152602001600020819055505b610c818584611c20565b8273ffffffffffffffffffffffffffffffffffffffff167f9e71bc8eea02a63969f509818f2dafb9254532904319f9dbda79b67bd34a5f3d86604051610cc791906121da565b60405180910390a2505060018081905550505050565b60025481565b600e6020528060005260406000206000915054906101000a900473ffffffffffffffffffffffffffffffffffffffff1681565b600042905090565b60056020528060005260406000206000915090505481565b60008060009054906101000a900473ffffffffffffffffffffffffffffffffffffffff16905090565b60026001541415610da5576040517f08c379a0000000000000000000000000000000000000000000000000000000008152600401610d9c906121ba565b60405180910390fd5b600260018190555033600073ffffffffffffffffffffffffffffffffffffffff168173ffffffffffffffffffffffffffffffffffffffff1614610e7a57610deb816114d9565b600760008373ffffffffffffffffffffffffffffffffffffffff1673ffffffffffffffffffffffffffffffffffffffff16815260200190815260200160002081905550610e36610d16565b600660008373ffffffffffffffffffffffffffffffffffffffff1673ffffffffffffffffffffffffffffffffffffffff168152602001908152602001600020819055505b60008085905060005b8451811015610ff0578173ffffffffffffffffffffffffffffffffffffffff166342842e0e3388888581518110610ee3577f4e487b7100000000000000000000000000000000000000000000000000000000600052603260045260246000fd5b60200260200101516040518463ffffffff1660e01b8152600401610f0993929190612101565b600060405180830381600087803b158015610f2357600080fd5b505af1158015610f37573d6000803e3d6000fd5b50505050600183610f4891906122c0565b925033600e6000878481518110610f88577f4e487b7100000000000000000000000000000000000000000000000000000000600052603260045260246000fd5b6020026020010151815260200190815260200160002060006101000a81548173ffffffffffffffffffffffffffffffffffffffff021916908373ffffffffffffffffffffffffffffffffffffffff160217905550600181610fe991906122c0565b9050610e83565b50610ffa82611c93565b3373ffffffffffffffffffffffffffffffffffffffff167fdeaad30c9e3118ba3b39651e76dd3db3536ec6872639078cfe472ab46316afae83866040516110429291906121f5565b60405180910390a250505060018081905550505050565b600c5481565b600080600a5414156110b257600760008473ffffffffffffffffffffffffffffffffffffffff1673ffffffffffffffffffffffffffffffffffffffff16815260200190815260200160002054905061122b565b600a54600b60003373ffffffffffffffffffffffffffffffffffffffff1673ffffffffffffffffffffffffffffffffffffffff16815260200190815260200160002054836111009190612347565b61110a9190612316565b600b60008573ffffffffffffffffffffffffffffffffffffffff1673ffffffffffffffffffffffffffffffffffffffff16815260200190815260200160002054670de0b6b3a7640000620151a86002546111649190612316565b600560008873ffffffffffffffffffffffffffffffffffffffff1673ffffffffffffffffffffffffffffffffffffffff168152602001908152602001600020546111ac610d16565b6111b691906123a1565b6111c09190612347565b6111ca9190612347565b6111d49190612347565b600760008673ffffffffffffffffffffffffffffffffffffffff1673ffffffffffffffffffffffffffffffffffffffff1681526020019081526020016000205461121e91906122c0565b61122891906122c0565b90505b92915050565b60026001541415611277576040517f08c379a000000000000000000000000000000000000000000000000000000000815260040161126e906121ba565b60405180910390fd5b60026001819055503381600073ffffffffffffffffffffffffffffffffffffffff168273ffffffffffffffffffffffffffffffffffffffff161461134e576112bf828261105f565b600760008473ffffffffffffffffffffffffffffffffffffffff1673ffffffffffffffffffffffffffffffffffffffff1681526020019081526020016000208190555061130a610d16565b600560008473ffffffffffffffffffffffffffffffffffffffff1673ffffffffffffffffffffffffffffffffffffffff168152602001908152602001600020819055505b60008411156114965783600760003373ffffffffffffffffffffffffffffffffffffffff1673ffffffffffffffffffffffffffffffffffffffff16815260200190815260200160002060008282546113a691906123a1565b9250508190555083600860003373ffffffffffffffffffffffffffffffffffffffff1673ffffffffffffffffffffffffffffffffffffffff1681526020019081526020016000208190555083600960003373ffffffffffffffffffffffffffffffffffffffff1673ffffffffffffffffffffffffffffffffffffffff168152602001908152602001600020600082825461144091906122c0565b925050819055503373ffffffffffffffffffffffffffffffffffffffff167fe2403640ba68fed3a2f88b7557551d1993f84b99bb10ff833f0cf8db0c5e04868560405161148d91906121da565b60405180910390a25b5050600180819055505050565b60096020528060005260406000206000915090505481565b60035481565b60066020528060005260406000206000915090505481565b6000600d60008373ffffffffffffffffffffffffffffffffffffffff1673ffffffffffffffffffffffffffffffffffffffff16815260200190815260200160002054670de0b6b3a7640000620151a86002546115359190612316565b600660008673ffffffffffffffffffffffffffffffffffffffff1673ffffffffffffffffffffffffffffffffffffffff1681526020019081526020016000205461157d610d16565b61158791906123a1565b6115919190612347565b61159b9190612347565b6115a59190612347565b600760008473ffffffffffffffffffffffffffffffffffffffff1673ffffffffffffffffffffffffffffffffffffffff168152602001908152602001600020546115ef91906122c0565b9050919050565b60086020528060005260406000206000915090505481565b611616611b54565b73ffffffffffffffffffffffffffffffffffffffff16611634610d36565b73ffffffffffffffffffffffffffffffffffffffff161461168a576040517f08c379a00000000000000000000000000000000000000000000000000000000081526004016116819061219a565b60405180910390fd5b600073ffffffffffffffffffffffffffffffffffffffff168173ffffffffffffffffffffffffffffffffffffffff1614156116fa576040517f08c379a00000000000000000000000000000000000000000000000000000000081526004016116f19061217a565b60405180910390fd5b61170381611b5c565b50565b6002600154141561174c576040517f08c379a0000000000000000000000000000000000000000000000000000000008152600401611743906121ba565b60405180910390fd5b600260018190555033600073ffffffffffffffffffffffffffffffffffffffff168173ffffffffffffffffffffffffffffffffffffffff161461182157611792816114d9565b600760008373ffffffffffffffffffffffffffffffffffffffff1673ffffffffffffffffffffffffffffffffffffffff168152602001908152602001600020819055506117dd610d16565b600660008373ffffffffffffffffffffffffffffffffffffffff1673ffffffffffffffffffffffffffffffffffffffff168152602001908152602001600020819055505b60008085905060005b8451811015611a79573373ffffffffffffffffffffffffffffffffffffffff16600e6000878481518110611887577f4e487b7100000000000000000000000000000000000000000000000000000000600052603260045260246000fd5b6020026020010151815260200190815260200160002060009054906101000a900473ffffffffffffffffffffffffffffffffffffffff1673ffffffffffffffffffffffffffffffffffffffff1614611914576040517f08c379a000000000000000000000000000000000000000000000000000000000815260040161190b9061215a565b60405180910390fd5b8173ffffffffffffffffffffffffffffffffffffffff166342842e0e873388858151811061196b577f4e487b7100000000000000000000000000000000000000000000000000000000600052603260045260246000fd5b60200260200101516040518463ffffffff1660e01b815260040161199193929190612101565b600060405180830381600087803b1580156119ab57600080fd5b505af11580156119bf573d6000803e3d6000fd5b505050506001836119d091906122c0565b92506000600e6000878481518110611a11577f4e487b7100000000000000000000000000000000000000000000000000000000600052603260045260246000fd5b6020026020010151815260200190815260200160002060006101000a81548173ffffffffffffffffffffffffffffffffffffffff021916908373ffffffffffffffffffffffffffffffffffffffff160217905550600181611a7291906122c0565b905061182a565b50611a8382611d05565b3373ffffffffffffffffffffffffffffffffffffffff167f62ce610c288a7f8a9a6715f35d395ec0702a9719aa06b15bb5e6869d7d19a9528386604051611acb9291906121f5565b60405180910390a250505060018081905550505050565b80600a6000828254611af491906123a1565b9250508190555080600b60003373ffffffffffffffffffffffffffffffffffffffff1673ffffffffffffffffffffffffffffffffffffffff1681526020019081526020016000206000828254611b4a91906123a1565b9250508190555050565b600033905090565b60008060009054906101000a900473ffffffffffffffffffffffffffffffffffffffff169050816000806101000a81548173ffffffffffffffffffffffffffffffffffffffff021916908373ffffffffffffffffffffffffffffffffffffffff1602179055508173ffffffffffffffffffffffffffffffffffffffff168173ffffffffffffffffffffffffffffffffffffffff167f8be0079c531659141344cd1fd0a4f28419497f9722a3daafe3b4186f6b6457e060405160405180910390a35050565b81600a6000828254611c3291906122c0565b9250508190555081600b60008373ffffffffffffffffffffffffffffffffffffffff1673ffffffffffffffffffffffffffffffffffffffff1681526020019081526020016000206000828254611c8891906122c0565b925050819055505050565b80600c6000828254611ca591906122c0565b9250508190555080600d60003373ffffffffffffffffffffffffffffffffffffffff1673ffffffffffffffffffffffffffffffffffffffff1681526020019081526020016000206000828254611cfb91906122c0565b9250508190555050565b80600c6000828254611d1791906123a1565b9250508190555080600d60003373ffffffffffffffffffffffffffffffffffffffff1673ffffffffffffffffffffffffffffffffffffffff1681526020019081526020016000206000828254611d6d91906123a1565b9250508190555050565b6000611d8a611d858461224a565b612225565b90508083825260208201905082856020860282011115611da957600080fd5b60005b85811015611dd95781611dbf8882611e22565b845260208401935060208301925050600181019050611dac565b5050509392505050565b600081359050611df2816125d0565b92915050565b600082601f830112611e0957600080fd5b8135611e19848260208601611d77565b91505092915050565b600081359050611e31816125e7565b92915050565b600060208284031215611e4957600080fd5b6000611e5784828501611de3565b91505092915050565b600080600060608486031215611e7557600080fd5b6000611e8386828701611de3565b9350506020611e9486828701611de3565b925050604084013567ffffffffffffffff811115611eb157600080fd5b611ebd86828701611df8565b9150509250925092565b60008060408385031215611eda57600080fd5b6000611ee885828601611de3565b9250506020611ef985828601611e22565b9150509250929050565b600060208284031215611f1557600080fd5b6000611f2384828501611e22565b91505092915050565b60008060408385031215611f3f57600080fd5b6000611f4d85828601611e22565b9250506020611f5e85828601611e22565b9150509250929050565b600080600060608486031215611f7d57600080fd5b6000611f8b86828701611e22565b9350506020611f9c86828701611e22565b9250506040611fad86828701611de3565b9150509250925092565b6000611fc383836120c8565b60208301905092915050565b611fd8816123d5565b82525050565b6000611fe982612286565b611ff3818561229e565b9350611ffe83612276565b8060005b8381101561202f5781516120168882611fb7565b975061202183612291565b925050600181019050612002565b5085935050505092915050565b60006120496024836122af565b9150612054826124e0565b604082019050919050565b600061206c6026836122af565b91506120778261252f565b604082019050919050565b600061208f6020836122af565b915061209a8261257e565b602082019050919050565b60006120b2601f836122af565b91506120bd826125a7565b602082019050919050565b6120d181612407565b82525050565b6120e081612407565b82525050565b60006020820190506120fb6000830184611fcf565b92915050565b60006060820190506121166000830186611fcf565b6121236020830185611fcf565b61213060408301846120d7565b949350505050565b600060208201905081810360008301526121528184611fde565b905092915050565b600060208201905081810360008301526121738161203c565b9050919050565b600060208201905081810360008301526121938161205f565b9050919050565b600060208201905081810360008301526121b381612082565b9050919050565b600060208201905081810360008301526121d3816120a5565b9050919050565b60006020820190506121ef60008301846120d7565b92915050565b600060408201905061220a60008301856120d7565b818103602083015261221c8184611fde565b90509392505050565b600061222f612240565b905061223b8282612411565b919050565b6000604051905090565b600067ffffffffffffffff821115612265576122646124a0565b5b602082029050602081019050919050565b6000819050602082019050919050565b600081519050919050565b6000602082019050919050565b600082825260208201905092915050565b600082825260208201905092915050565b60006122cb82612407565b91506122d683612407565b9250827fffffffffffffffffffffffffffffffffffffffffffffffffffffffffffffffff0382111561230b5761230a612442565b5b828201905092915050565b600061232182612407565b915061232c83612407565b92508261233c5761233b612471565b5b828204905092915050565b600061235282612407565b915061235d83612407565b9250817fffffffffffffffffffffffffffffffffffffffffffffffffffffffffffffffff048311821515161561239657612395612442565b5b828202905092915050565b60006123ac82612407565b91506123b783612407565b9250828210156123ca576123c9612442565b5b828203905092915050565b60006123e0826123e7565b9050919050565b600073ffffffffffffffffffffffffffffffffffffffff82169050919050565b6000819050919050565b61241a826124cf565b810181811067ffffffffffffffff82111715612439576124386124a0565b5b80604052505050565b7f4e487b7100000000000000000000000000000000000000000000000000000000600052601160045260246000fd5b7f4e487b7100000000000000000000000000000000000000000000000000000000600052601260045260246000fd5b7f4e487b7100000000000000000000000000000000000000000000000000000000600052604160045260246000fd5b6000601f19601f8301169050919050565b7f5374616b696e673a204e6f7420746865207374616b6572206f6620746865207460008201527f6f6b656e00000000000000000000000000000000000000000000000000000000602082015250565b7f4f776e61626c653a206e6577206f776e657220697320746865207a65726f206160008201527f6464726573730000000000000000000000000000000000000000000000000000602082015250565b7f4f776e61626c653a2063616c6c6572206973206e6f7420746865206f776e6572600082015250565b7f5265656e7472616e637947756172643a207265656e7472616e742063616c6c00600082015250565b6125d9816123d5565b81146125e457600080fd5b50565b6125f081612407565b81146125fb57600080fd5b5056fea2646970667358221220f7ac843f5877b15ca26e0ef5d1fd47163303e628e391137c175d82539fbfb2dd64736f6c63430008040033",
  "immutableReferences": {},
  "source": "// SPDX-License-Identifier: UNLICENSED\r\npragma solidity 0.8.4;\r\n\r\nimport \"@openzeppelin/contracts/token/ERC721/ERC721.sol\";\r\nimport \"@openzeppelin/contracts/token/ERC20/IERC20.sol\";\r\nimport \"@openzeppelin/contracts/access/Ownable.sol\";\r\nimport \"./PumlNFT.sol\";\r\nimport \"@openzeppelin/contracts/utils/math/SafeMath.sol\";\r\nimport \"@openzeppelin/contracts/security/ReentrancyGuard.sol\";\r\n\r\ncontract PumlStake is Ownable, ReentrancyGuard {\r\n\r\n    /* ========== STATE VARIABLES ========== */\r\n\r\n    uint256 public rewardRate = 10;\r\n    uint256 public lastUpdateTime;\r\n    uint256[] public stakeData;\r\n\r\n    mapping(address => uint256) public userLastUpdateTime;\r\n    mapping(address => uint256) public userLastUpdateTimeNFT;\r\n    mapping(address => uint256) public userRewardStored;\r\n    mapping(address => uint256) public userLastReward;\r\n    mapping(address => uint256) public userRewardPaid;\r\n\r\n    uint256 public totalSupply;\r\n    mapping(address => uint256) public balances;\r\n    uint256 public totalSupplyNFT;\r\n    mapping(address => uint256) public balancesNFT;\r\n    mapping(uint256 => address) public stakedAssets;\r\n\r\n\r\n\r\n    /* ========== VIEWS ========== */\r\n\r\n    function lastTimeRewardApplicable() public view returns (uint256) {\r\n        return block.timestamp;\r\n    }\r\n\r\n    function rewardPerUser(address account, uint256 feeward) public view returns (uint256) {\r\n        if (totalSupply == 0) {\r\n            return userRewardStored[account];\r\n        } else {\r\n            return\r\n                userRewardStored[account] +\r\n                ((lastTimeRewardApplicable() - userLastUpdateTime[account]) * (rewardRate / 86440) * 1e18 * balances[account]) +\r\n                (feeward * balances[msg.sender] / totalSupply);\r\n        }\r\n    }\r\n\r\n    function getRewardData(address account) public returns (uint256[] memory) {\r\n        stakeData.push(userLastUpdateTime[account]);\r\n        stakeData.push(userRewardStored[account]);\r\n        stakeData.push(userLastReward[account]);\r\n        stakeData.push(userRewardPaid[account]);\r\n        stakeData.push(balances[account]);\r\n        stakeData.push(balancesNFT[account]);\r\n\r\n\r\n        return stakeData;\r\n    }\r\n\r\n    function rewardPerUserNFT(address account) public view returns (uint256) {\r\n        return\r\n            userRewardStored[account] +\r\n            ((lastTimeRewardApplicable() - userLastUpdateTimeNFT[account]) * (rewardRate / 86440) * 1e18 * balancesNFT[account]);\r\n    }\r\n\r\n\r\n    /* ========== MUTATIVE FUNCTIONS ========== */\r\n\r\n    function stake(uint256 amount, uint256 feeward, address staker) external payable nonReentrant updateReward(staker, feeward) {\r\n\r\n        _stake(amount, staker);\r\n        emit Staked(staker, amount);\r\n    }\r\n\r\n    function withdraw(uint256 amount, uint256 feeward) public payable nonReentrant updateReward(msg.sender, feeward) {\r\n\r\n        _withdraw(amount);\r\n        emit Withdrawn(msg.sender, amount);\r\n    }\r\n\r\n    function getReward(uint256 reward, uint256 feeward) public payable nonReentrant updateReward(msg.sender, feeward) {\r\n\r\n        if (reward > 0) {\r\n            userRewardStored[msg.sender] -= reward;\r\n            userLastReward[msg.sender] = reward;\r\n            userRewardPaid[msg.sender] += reward;\r\n\r\n            emit RewardPaid(msg.sender, reward);\r\n        }\r\n    }\r\n\r\n    function stakeNFT(\r\n        address _assetAddress,\r\n        address _to, \r\n        uint256[] memory tokenIds\r\n    ) external payable nonReentrant updateRewardNFT(msg.sender) {\r\n\r\n        uint256 amount;\r\n        ERC721 token = ERC721(_assetAddress);\r\n        for (uint256 i = 0; i < tokenIds.length; i += 1) {\r\n            // Transfer user's NFTs to the staking contract\r\n            token.safeTransferFrom(msg.sender, _to, tokenIds[i]);\r\n            // Increment the amount which will be staked\r\n            amount += 1;\r\n            // Save who is the staker/depositor of the token\r\n            stakedAssets[tokenIds[i]] = msg.sender;\r\n        }\r\n        _stakeNFT(amount);\r\n        emit StakedNFT(msg.sender, amount, tokenIds);\r\n    }\r\n\r\n    function withdrawNFT(\r\n        address _assetAddress, \r\n        address _from, \r\n        uint256[] memory tokenIds\r\n    ) public payable nonReentrant updateRewardNFT(msg.sender) {\r\n\r\n        uint256 amount;\r\n        ERC721 token = ERC721(_assetAddress);\r\n        for (uint256 i = 0; i < tokenIds.length; i += 1) {\r\n            // Check if the user who withdraws is the owner\r\n            require(\r\n                stakedAssets[tokenIds[i]] == msg.sender,\r\n                \"Staking: Not the staker of the token\"\r\n            );\r\n            // Transfer NFTs back to the owner\r\n            token.safeTransferFrom(_from, msg.sender, tokenIds[i]);\r\n            // Increment the amount which will be withdrawn\r\n            amount += 1;\r\n            // Cleanup stakedAssets for the current tokenId\r\n            stakedAssets[tokenIds[i]] = address(0);\r\n        }\r\n        _withdrawNFT(amount);\r\n\r\n        emit WithdrawnNFT(msg.sender, amount, tokenIds);\r\n    }\r\n\r\n    function _stakeNFT(uint256 _amount) internal {\r\n        totalSupplyNFT += _amount;\r\n        balancesNFT[msg.sender] += _amount;\r\n    }\r\n\r\n    function _withdrawNFT(uint256 _amount) internal {\r\n        totalSupplyNFT -= _amount;\r\n        balancesNFT[msg.sender] -= _amount;\r\n    }\r\n\r\n    function _stake(uint256 _amount, address _staker) internal {\r\n        totalSupply += _amount;\r\n        balances[_staker] += _amount;\r\n    }\r\n\r\n    function _withdraw(uint256 _amount) internal {\r\n        totalSupply -= _amount;\r\n        balances[msg.sender] -= _amount;\r\n    }\r\n\r\n    /* ========== MODIFIERS ========== */\r\n\r\n    modifier updateReward(address account, uint256 feeward) {\r\n        if (account != address(0)) {\r\n            userRewardStored[account] = rewardPerUser(account, feeward);\r\n            userLastUpdateTime[account] = lastTimeRewardApplicable();\r\n        }\r\n         _;\r\n    }\r\n\r\n    modifier updateRewardNFT(address account) {\r\n        if (account != address(0)) {\r\n            userRewardStored[account] = rewardPerUserNFT(account);\r\n            userLastUpdateTimeNFT[account] = lastTimeRewardApplicable();\r\n        }\r\n        _;\r\n    }\r\n\r\n    /* ========== EVENTS ========== */\r\n\r\n\r\n    event Staked(address indexed user, uint256 amount);\r\n    event Withdrawn(address indexed user, uint256 amount);\r\n    event RewardPaid(address indexed user, uint256 reward);\r\n    event StakedNFT(address indexed user, uint256 amount, uint256[] tokenIds);\r\n    event WithdrawnNFT(address indexed user, uint256 amount, uint256[] tokenIds);\r\n}\r\n",
  "sourcePath": "F:\\work\\puml-project\\ethcontracts\\contracts\\PumlStake.sol",
  "compiler": {
    "name": "solc",
    "version": "0.8.4+commit.c7e474f2.Emscripten.clang"
  },
  "schemaVersion": "3.4.5",
  "updatedAt": "2022-04-05T03:05:31.035Z",
  "devdoc": {
    "kind": "dev",
    "methods": {
      "owner()": {
        "details": "Returns the address of the current owner."
      },
      "renounceOwnership()": {
        "details": "Leaves the contract without owner. It will not be possible to call `onlyOwner` functions anymore. Can only be called by the current owner. NOTE: Renouncing ownership will leave the contract without an owner, thereby removing any functionality that is only available to the owner."
      },
      "transferOwnership(address)": {
        "details": "Transfers ownership of the contract to a new account (`newOwner`). Can only be called by the current owner."
      }
    },
    "version": 1
  },
  "userdoc": {
    "kind": "user",
    "methods": {},
    "version": 1
  }
}