{
  "contractName": "PUMLx",
  "abi": [
    {
      "inputs": [],
      "stateMutability": "nonpayable",
      "type": "constructor"
    },
    {
      "anonymous": false,
      "inputs": [
        {
          "indexed": true,
          "internalType": "address",
          "name": "owner",
          "type": "address"
        },
        {
          "indexed": true,
          "internalType": "address",
          "name": "spender",
          "type": "address"
        },
        {
          "indexed": false,
          "internalType": "uint256",
          "name": "value",
          "type": "uint256"
        }
      ],
      "name": "Approval",
      "type": "event"
    },
    {
      "anonymous": false,
      "inputs": [
        {
          "indexed": true,
          "internalType": "address",
          "name": "previousOwner",
          "type": "address"
        },
        {
          "indexed": true,
          "internalType": "address",
          "name": "newOwner",
          "type": "address"
        }
      ],
      "name": "OwnershipTransferred",
      "type": "event"
    },
    {
      "anonymous": false,
      "inputs": [
        {
          "indexed": true,
          "internalType": "address",
          "name": "from",
          "type": "address"
        },
        {
          "indexed": true,
          "internalType": "address",
          "name": "to",
          "type": "address"
        },
        {
          "indexed": false,
          "internalType": "uint256",
          "name": "value",
          "type": "uint256"
        }
      ],
      "name": "Transfer",
      "type": "event"
    },
    {
      "inputs": [
        {
          "internalType": "address",
          "name": "owner",
          "type": "address"
        },
        {
          "internalType": "address",
          "name": "spender",
          "type": "address"
        }
      ],
      "name": "allowance",
      "outputs": [
        {
          "internalType": "uint256",
          "name": "",
          "type": "uint256"
        }
      ],
      "stateMutability": "view",
      "type": "function"
    },
    {
      "inputs": [
        {
          "internalType": "address",
          "name": "spender",
          "type": "address"
        },
        {
          "internalType": "uint256",
          "name": "amount",
          "type": "uint256"
        }
      ],
      "name": "approve",
      "outputs": [
        {
          "internalType": "bool",
          "name": "",
          "type": "bool"
        }
      ],
      "stateMutability": "nonpayable",
      "type": "function"
    },
    {
      "inputs": [
        {
          "internalType": "address",
          "name": "account",
          "type": "address"
        }
      ],
      "name": "balanceOf",
      "outputs": [
        {
          "internalType": "uint256",
          "name": "",
          "type": "uint256"
        }
      ],
      "stateMutability": "view",
      "type": "function"
    },
    {
      "inputs": [
        {
          "internalType": "uint256",
          "name": "amount",
          "type": "uint256"
        }
      ],
      "name": "burn",
      "outputs": [],
      "stateMutability": "nonpayable",
      "type": "function"
    },
    {
      "inputs": [
        {
          "internalType": "address",
          "name": "account",
          "type": "address"
        },
        {
          "internalType": "uint256",
          "name": "amount",
          "type": "uint256"
        }
      ],
      "name": "burnFrom",
      "outputs": [],
      "stateMutability": "nonpayable",
      "type": "function"
    },
    {
      "inputs": [],
      "name": "decimals",
      "outputs": [
        {
          "internalType": "uint8",
          "name": "",
          "type": "uint8"
        }
      ],
      "stateMutability": "view",
      "type": "function"
    },
    {
      "inputs": [
        {
          "internalType": "address",
          "name": "spender",
          "type": "address"
        },
        {
          "internalType": "uint256",
          "name": "subtractedValue",
          "type": "uint256"
        }
      ],
      "name": "decreaseAllowance",
      "outputs": [
        {
          "internalType": "bool",
          "name": "",
          "type": "bool"
        }
      ],
      "stateMutability": "nonpayable",
      "type": "function"
    },
    {
      "inputs": [
        {
          "internalType": "address",
          "name": "spender",
          "type": "address"
        },
        {
          "internalType": "uint256",
          "name": "addedValue",
          "type": "uint256"
        }
      ],
      "name": "increaseAllowance",
      "outputs": [
        {
          "internalType": "bool",
          "name": "",
          "type": "bool"
        }
      ],
      "stateMutability": "nonpayable",
      "type": "function"
    },
    {
      "inputs": [],
      "name": "name",
      "outputs": [
        {
          "internalType": "string",
          "name": "",
          "type": "string"
        }
      ],
      "stateMutability": "view",
      "type": "function"
    },
    {
      "inputs": [],
      "name": "owner",
      "outputs": [
        {
          "internalType": "address",
          "name": "",
          "type": "address"
        }
      ],
      "stateMutability": "view",
      "type": "function"
    },
    {
      "inputs": [],
      "name": "renounceOwnership",
      "outputs": [],
      "stateMutability": "nonpayable",
      "type": "function"
    },
    {
      "inputs": [],
      "name": "symbol",
      "outputs": [
        {
          "internalType": "string",
          "name": "",
          "type": "string"
        }
      ],
      "stateMutability": "view",
      "type": "function"
    },
    {
      "inputs": [],
      "name": "totalSupply",
      "outputs": [
        {
          "internalType": "uint256",
          "name": "",
          "type": "uint256"
        }
      ],
      "stateMutability": "view",
      "type": "function"
    },
    {
      "inputs": [
        {
          "internalType": "address",
          "name": "to",
          "type": "address"
        },
        {
          "internalType": "uint256",
          "name": "amount",
          "type": "uint256"
        }
      ],
      "name": "transfer",
      "outputs": [
        {
          "internalType": "bool",
          "name": "",
          "type": "bool"
        }
      ],
      "stateMutability": "nonpayable",
      "type": "function"
    },
    {
      "inputs": [
        {
          "internalType": "address",
          "name": "from",
          "type": "address"
        },
        {
          "internalType": "address",
          "name": "to",
          "type": "address"
        },
        {
          "internalType": "uint256",
          "name": "amount",
          "type": "uint256"
        }
      ],
      "name": "transferFrom",
      "outputs": [
        {
          "internalType": "bool",
          "name": "",
          "type": "bool"
        }
      ],
      "stateMutability": "nonpayable",
      "type": "function"
    },
    {
      "inputs": [
        {
          "internalType": "address",
          "name": "newOwner",
          "type": "address"
        }
      ],
      "name": "transferOwnership",
      "outputs": [],
      "stateMutability": "nonpayable",
      "type": "function"
    },
    {
      "inputs": [
        {
          "internalType": "address",
          "name": "_to",
          "type": "address"
        },
        {
          "internalType": "uint256",
          "name": "_amount",
          "type": "uint256"
        }
      ],
      "name": "transferPuml",
      "outputs": [],
      "stateMutability": "nonpayable",
      "type": "function"
    },
    {
      "inputs": [
        {
          "internalType": "address",
          "name": "_to",
          "type": "address"
        },
        {
          "internalType": "uint256",
          "name": "_amount",
          "type": "uint256"
        }
      ],
      "name": "pickPuml",
      "outputs": [],
      "stateMutability": "payable",
      "type": "function"
    }
  ],
  "bytecode": "0x60806040523480156200001157600080fd5b506040518060400160405280600581526020017f50554d4c780000000000000000000000000000000000000000000000000000008152506040518060400160405280600581526020017f50554d4c780000000000000000000000000000000000000000000000000000008152508160039080519060200190620000969291906200037a565b508060049080519060200190620000af9291906200037a565b505050620000d2620000c66200012060201b60201c565b6200012860201b60201c565b60016006819055506200011a33620000ef620001ee60201b60201c565b600a620000fd91906200056a565b631dcd65006200010e9190620006a7565b620001f760201b60201c565b620007e9565b600033905090565b6000600560009054906101000a900473ffffffffffffffffffffffffffffffffffffffff16905081600560006101000a81548173ffffffffffffffffffffffffffffffffffffffff021916908373ffffffffffffffffffffffffffffffffffffffff1602179055508173ffffffffffffffffffffffffffffffffffffffff168173ffffffffffffffffffffffffffffffffffffffff167f8be0079c531659141344cd1fd0a4f28419497f9722a3daafe3b4186f6b6457e060405160405180910390a35050565b60006012905090565b600073ffffffffffffffffffffffffffffffffffffffff168273ffffffffffffffffffffffffffffffffffffffff1614156200026a576040517f08c379a0000000000000000000000000000000000000000000000000000000008152600401620002619062000462565b60405180910390fd5b6200027e600083836200037060201b60201c565b8060026000828254620002929190620004b2565b92505081905550806000808473ffffffffffffffffffffffffffffffffffffffff1673ffffffffffffffffffffffffffffffffffffffff1681526020019081526020016000206000828254620002e99190620004b2565b925050819055508173ffffffffffffffffffffffffffffffffffffffff16600073ffffffffffffffffffffffffffffffffffffffff167fddf252ad1be2c89b69c2b068fc378daa952ba7f163c4a11628f55a4df523b3ef8360405162000350919062000484565b60405180910390a36200036c600083836200037560201b60201c565b5050565b505050565b505050565b82805462000388906200071f565b90600052602060002090601f016020900481019282620003ac5760008555620003f8565b82601f10620003c757805160ff1916838001178555620003f8565b82800160010185558215620003f8579182015b82811115620003f7578251825591602001919060010190620003da565b5b5090506200040791906200040b565b5090565b5b80821115620004265760008160009055506001016200040c565b5090565b600062000439601f83620004a1565b91506200044682620007c0565b602082019050919050565b6200045c8162000708565b82525050565b600060208201905081810360008301526200047d816200042a565b9050919050565b60006020820190506200049b600083018462000451565b92915050565b600082825260208201905092915050565b6000620004bf8262000708565b9150620004cc8362000708565b9250827fffffffffffffffffffffffffffffffffffffffffffffffffffffffffffffffff0382111562000504576200050362000755565b5b828201905092915050565b6000808291508390505b6001851115620005615780860481111562000539576200053862000755565b5b6001851615620005495780820291505b80810290506200055985620007b3565b945062000519565b94509492505050565b6000620005778262000708565b9150620005848362000712565b9250620005b37fffffffffffffffffffffffffffffffffffffffffffffffffffffffffffffffff8484620005bb565b905092915050565b600082620005cd5760019050620006a0565b81620005dd5760009050620006a0565b8160018114620005f65760028114620006015762000637565b6001915050620006a0565b60ff84111562000616576200061562000755565b5b8360020a91508482111562000630576200062f62000755565b5b50620006a0565b5060208310610133831016604e8410600b8410161715620006715782820a9050838111156200066b576200066a62000755565b5b620006a0565b6200068084848460016200050f565b925090508184048111156200069a576200069962000755565b5b81810290505b9392505050565b6000620006b48262000708565b9150620006c18362000708565b9250817fffffffffffffffffffffffffffffffffffffffffffffffffffffffffffffffff0483118215151615620006fd57620006fc62000755565b5b828202905092915050565b6000819050919050565b600060ff82169050919050565b600060028204905060018216806200073857607f821691505b602082108114156200074f576200074e62000784565b5b50919050565b7f4e487b7100000000000000000000000000000000000000000000000000000000600052601160045260246000fd5b7f4e487b7100000000000000000000000000000000000000000000000000000000600052602260045260246000fd5b60008160011c9050919050565b7f45524332303a206d696e7420746f20746865207a65726f206164647265737300600082015250565b611fbd80620007f96000396000f3fe6080604052600436106101095760003560e01c8063715018a611610095578063a457c2d711610064578063a457c2d71461036b578063a9059cbb146103a8578063dd62ed3e146103e5578063f2fde38b14610422578063f47cbe171461044b57610109565b8063715018a6146102d557806379cc6790146102ec5780638da5cb5b1461031557806395d89b411461034057610109565b806323b872dd116100dc57806323b872dd146101ca578063313ce56714610207578063395093511461023257806342966c681461026f57806370a082311461029857610109565b80630190b2c21461010e57806306fdde0314610137578063095ea7b31461016257806318160ddd1461019f575b600080fd5b34801561011a57600080fd5b50610135600480360381019061013091906114c1565b610467565b005b34801561014357600080fd5b5061014c6104b8565b60405161015991906117ea565b60405180910390f35b34801561016e57600080fd5b50610189600480360381019061018491906114c1565b61054a565b60405161019691906117cf565b60405180910390f35b3480156101ab57600080fd5b506101b461056d565b6040516101c191906119ac565b60405180910390f35b3480156101d657600080fd5b506101f160048036038101906101ec9190611472565b610577565b6040516101fe91906117cf565b60405180910390f35b34801561021357600080fd5b5061021c6105a6565b60405161022991906119c7565b60405180910390f35b34801561023e57600080fd5b50610259600480360381019061025491906114c1565b6105af565b60405161026691906117cf565b60405180910390f35b34801561027b57600080fd5b5061029660048036038101906102919190611526565b610659565b005b3480156102a457600080fd5b506102bf60048036038101906102ba919061140d565b61066d565b6040516102cc91906119ac565b60405180910390f35b3480156102e157600080fd5b506102ea6106b5565b005b3480156102f857600080fd5b50610313600480360381019061030e91906114c1565b61073d565b005b34801561032157600080fd5b5061032a61075d565b604051610337919061178b565b60405180910390f35b34801561034c57600080fd5b50610355610787565b60405161036291906117ea565b60405180910390f35b34801561037757600080fd5b50610392600480360381019061038d91906114c1565b610819565b60405161039f91906117cf565b60405180910390f35b3480156103b457600080fd5b506103cf60048036038101906103ca91906114c1565b610903565b6040516103dc91906117cf565b60405180910390f35b3480156103f157600080fd5b5061040c60048036038101906104079190611436565b610926565b60405161041991906119ac565b60405180910390f35b34801561042e57600080fd5b506104496004803603810190610444919061140d565b6109ad565b005b610465600480360381019061046091906114c1565b610aa5565b005b600081116104aa576040517f08c379a00000000000000000000000000000000000000000000000000000000081526004016104a1906118cc565b60405180910390fd5b6104b48282610aa5565b5050565b6060600380546104c790611b10565b80601f01602080910402602001604051908101604052809291908181526020018280546104f390611b10565b80156105405780601f1061051557610100808354040283529160200191610540565b820191906000526020600020905b81548152906001019060200180831161052357829003601f168201915b5050505050905090565b600080610555610c47565b9050610562818585610c4f565b600191505092915050565b6000600254905090565b600080610582610c47565b905061058f858285610e1a565b61059a858585610ea6565b60019150509392505050565b60006012905090565b6000806105ba610c47565b905061064e818585600160008673ffffffffffffffffffffffffffffffffffffffff1673ffffffffffffffffffffffffffffffffffffffff16815260200190815260200160002060008973ffffffffffffffffffffffffffffffffffffffff1673ffffffffffffffffffffffffffffffffffffffff1681526020019081526020016000205461064991906119fe565b610c4f565b600191505092915050565b61066a610664610c47565b82611127565b50565b60008060008373ffffffffffffffffffffffffffffffffffffffff1673ffffffffffffffffffffffffffffffffffffffff168152602001908152602001600020549050919050565b6106bd610c47565b73ffffffffffffffffffffffffffffffffffffffff166106db61075d565b73ffffffffffffffffffffffffffffffffffffffff1614610731576040517f08c379a0000000000000000000000000000000000000000000000000000000008152600401610728906118ec565b60405180910390fd5b61073b60006112fe565b565b61074f82610749610c47565b83610e1a565b6107598282611127565b5050565b6000600560009054906101000a900473ffffffffffffffffffffffffffffffffffffffff16905090565b60606004805461079690611b10565b80601f01602080910402602001604051908101604052809291908181526020018280546107c290611b10565b801561080f5780601f106107e45761010080835404028352916020019161080f565b820191906000526020600020905b8154815290600101906020018083116107f257829003601f168201915b5050505050905090565b600080610824610c47565b90506000600160008373ffffffffffffffffffffffffffffffffffffffff1673ffffffffffffffffffffffffffffffffffffffff16815260200190815260200160002060008673ffffffffffffffffffffffffffffffffffffffff1673ffffffffffffffffffffffffffffffffffffffff168152602001908152602001600020549050838110156108ea576040517f08c379a00000000000000000000000000000000000000000000000000000000081526004016108e19061198c565b60405180910390fd5b6108f78286868403610c4f565b60019250505092915050565b60008061090e610c47565b905061091b818585610ea6565b600191505092915050565b6000600160008473ffffffffffffffffffffffffffffffffffffffff1673ffffffffffffffffffffffffffffffffffffffff16815260200190815260200160002060008373ffffffffffffffffffffffffffffffffffffffff1673ffffffffffffffffffffffffffffffffffffffff16815260200190815260200160002054905092915050565b6109b5610c47565b73ffffffffffffffffffffffffffffffffffffffff166109d361075d565b73ffffffffffffffffffffffffffffffffffffffff1614610a29576040517f08c379a0000000000000000000000000000000000000000000000000000000008152600401610a20906118ec565b60405180910390fd5b600073ffffffffffffffffffffffffffffffffffffffff168173ffffffffffffffffffffffffffffffffffffffff161415610a99576040517f08c379a0000000000000000000000000000000000000000000000000000000008152600401610a909061184c565b60405180910390fd5b610aa2816112fe565b50565b60026006541415610aeb576040517f08c379a0000000000000000000000000000000000000000000000000000000008152600401610ae29061196c565b60405180910390fd5b600260068190555060008111610b36576040517f08c379a0000000000000000000000000000000000000000000000000000000008152600401610b2d906118cc565b60405180910390fd5b73b2e408bc3e7674de7c589f4f8e5471c81f09f5c6600760006101000a81548173ffffffffffffffffffffffffffffffffffffffff021916908373ffffffffffffffffffffffffffffffffffffffff160217905550600760009054906101000a900473ffffffffffffffffffffffffffffffffffffffff1673ffffffffffffffffffffffffffffffffffffffff1663a9059cbb83836040518363ffffffff1660e01b8152600401610be89291906117a6565b602060405180830381600087803b158015610c0257600080fd5b505af1158015610c16573d6000803e3d6000fd5b505050506040513d601f19601f82011682018060405250810190610c3a91906114fd565b5060016006819055505050565b600033905090565b600073ffffffffffffffffffffffffffffffffffffffff168373ffffffffffffffffffffffffffffffffffffffff161415610cbf576040517f08c379a0000000000000000000000000000000000000000000000000000000008152600401610cb69061194c565b60405180910390fd5b600073ffffffffffffffffffffffffffffffffffffffff168273ffffffffffffffffffffffffffffffffffffffff161415610d2f576040517f08c379a0000000000000000000000000000000000000000000000000000000008152600401610d269061186c565b60405180910390fd5b80600160008573ffffffffffffffffffffffffffffffffffffffff1673ffffffffffffffffffffffffffffffffffffffff16815260200190815260200160002060008473ffffffffffffffffffffffffffffffffffffffff1673ffffffffffffffffffffffffffffffffffffffff168152602001908152602001600020819055508173ffffffffffffffffffffffffffffffffffffffff168373ffffffffffffffffffffffffffffffffffffffff167f8c5be1e5ebec7d5bd14f71427d1e84f3dd0314c0f7b2291e5b200ac8c7c3b92583604051610e0d91906119ac565b60405180910390a3505050565b6000610e268484610926565b90507fffffffffffffffffffffffffffffffffffffffffffffffffffffffffffffffff8114610ea05781811015610e92576040517f08c379a0000000000000000000000000000000000000000000000000000000008152600401610e899061188c565b60405180910390fd5b610e9f8484848403610c4f565b5b50505050565b600073ffffffffffffffffffffffffffffffffffffffff168373ffffffffffffffffffffffffffffffffffffffff161415610f16576040517f08c379a0000000000000000000000000000000000000000000000000000000008152600401610f0d9061192c565b60405180910390fd5b600073ffffffffffffffffffffffffffffffffffffffff168273ffffffffffffffffffffffffffffffffffffffff161415610f86576040517f08c379a0000000000000000000000000000000000000000000000000000000008152600401610f7d9061180c565b60405180910390fd5b610f918383836113c4565b60008060008573ffffffffffffffffffffffffffffffffffffffff1673ffffffffffffffffffffffffffffffffffffffff16815260200190815260200160002054905081811015611017576040517f08c379a000000000000000000000000000000000000000000000000000000000815260040161100e906118ac565b60405180910390fd5b8181036000808673ffffffffffffffffffffffffffffffffffffffff1673ffffffffffffffffffffffffffffffffffffffff16815260200190815260200160002081905550816000808573ffffffffffffffffffffffffffffffffffffffff1673ffffffffffffffffffffffffffffffffffffffff16815260200190815260200160002060008282546110aa91906119fe565b925050819055508273ffffffffffffffffffffffffffffffffffffffff168473ffffffffffffffffffffffffffffffffffffffff167fddf252ad1be2c89b69c2b068fc378daa952ba7f163c4a11628f55a4df523b3ef8460405161110e91906119ac565b60405180910390a36111218484846113c9565b50505050565b600073ffffffffffffffffffffffffffffffffffffffff168273ffffffffffffffffffffffffffffffffffffffff161415611197576040517f08c379a000000000000000000000000000000000000000000000000000000000815260040161118e9061190c565b60405180910390fd5b6111a3826000836113c4565b60008060008473ffffffffffffffffffffffffffffffffffffffff1673ffffffffffffffffffffffffffffffffffffffff16815260200190815260200160002054905081811015611229576040517f08c379a00000000000000000000000000000000000000000000000000000000081526004016112209061182c565b60405180910390fd5b8181036000808573ffffffffffffffffffffffffffffffffffffffff1673ffffffffffffffffffffffffffffffffffffffff1681526020019081526020016000208190555081600260008282546112809190611a54565b92505081905550600073ffffffffffffffffffffffffffffffffffffffff168373ffffffffffffffffffffffffffffffffffffffff167fddf252ad1be2c89b69c2b068fc378daa952ba7f163c4a11628f55a4df523b3ef846040516112e591906119ac565b60405180910390a36112f9836000846113c9565b505050565b6000600560009054906101000a900473ffffffffffffffffffffffffffffffffffffffff16905081600560006101000a81548173ffffffffffffffffffffffffffffffffffffffff021916908373ffffffffffffffffffffffffffffffffffffffff1602179055508173ffffffffffffffffffffffffffffffffffffffff168173ffffffffffffffffffffffffffffffffffffffff167f8be0079c531659141344cd1fd0a4f28419497f9722a3daafe3b4186f6b6457e060405160405180910390a35050565b505050565b505050565b6000813590506113dd81611f42565b92915050565b6000815190506113f281611f59565b92915050565b60008135905061140781611f70565b92915050565b60006020828403121561141f57600080fd5b600061142d848285016113ce565b91505092915050565b6000806040838503121561144957600080fd5b6000611457858286016113ce565b9250506020611468858286016113ce565b9150509250929050565b60008060006060848603121561148757600080fd5b6000611495868287016113ce565b93505060206114a6868287016113ce565b92505060406114b7868287016113f8565b9150509250925092565b600080604083850312156114d457600080fd5b60006114e2858286016113ce565b92505060206114f3858286016113f8565b9150509250929050565b60006020828403121561150f57600080fd5b600061151d848285016113e3565b91505092915050565b60006020828403121561153857600080fd5b6000611546848285016113f8565b91505092915050565b61155881611a88565b82525050565b61156781611a9a565b82525050565b6000611578826119e2565b61158281856119ed565b9350611592818560208601611add565b61159b81611ba0565b840191505092915050565b60006115b36023836119ed565b91506115be82611bb1565b604082019050919050565b60006115d66022836119ed565b91506115e182611c00565b604082019050919050565b60006115f96026836119ed565b915061160482611c4f565b604082019050919050565b600061161c6022836119ed565b915061162782611c9e565b604082019050919050565b600061163f601d836119ed565b915061164a82611ced565b602082019050919050565b60006116626026836119ed565b915061166d82611d16565b604082019050919050565b60006116856029836119ed565b915061169082611d65565b604082019050919050565b60006116a86020836119ed565b91506116b382611db4565b602082019050919050565b60006116cb6021836119ed565b91506116d682611ddd565b604082019050919050565b60006116ee6025836119ed565b91506116f982611e2c565b604082019050919050565b60006117116024836119ed565b915061171c82611e7b565b604082019050919050565b6000611734601f836119ed565b915061173f82611eca565b602082019050919050565b60006117576025836119ed565b915061176282611ef3565b604082019050919050565b61177681611ac6565b82525050565b61178581611ad0565b82525050565b60006020820190506117a0600083018461154f565b92915050565b60006040820190506117bb600083018561154f565b6117c8602083018461176d565b9392505050565b60006020820190506117e4600083018461155e565b92915050565b60006020820190508181036000830152611804818461156d565b905092915050565b60006020820190508181036000830152611825816115a6565b9050919050565b60006020820190508181036000830152611845816115c9565b9050919050565b60006020820190508181036000830152611865816115ec565b9050919050565b600060208201905081810360008301526118858161160f565b9050919050565b600060208201905081810360008301526118a581611632565b9050919050565b600060208201905081810360008301526118c581611655565b9050919050565b600060208201905081810360008301526118e581611678565b9050919050565b600060208201905081810360008301526119058161169b565b9050919050565b60006020820190508181036000830152611925816116be565b9050919050565b60006020820190508181036000830152611945816116e1565b9050919050565b6000602082019050818103600083015261196581611704565b9050919050565b6000602082019050818103600083015261198581611727565b9050919050565b600060208201905081810360008301526119a58161174a565b9050919050565b60006020820190506119c1600083018461176d565b92915050565b60006020820190506119dc600083018461177c565b92915050565b600081519050919050565b600082825260208201905092915050565b6000611a0982611ac6565b9150611a1483611ac6565b9250827fffffffffffffffffffffffffffffffffffffffffffffffffffffffffffffffff03821115611a4957611a48611b42565b5b828201905092915050565b6000611a5f82611ac6565b9150611a6a83611ac6565b925082821015611a7d57611a7c611b42565b5b828203905092915050565b6000611a9382611aa6565b9050919050565b60008115159050919050565b600073ffffffffffffffffffffffffffffffffffffffff82169050919050565b6000819050919050565b600060ff82169050919050565b60005b83811015611afb578082015181840152602081019050611ae0565b83811115611b0a576000848401525b50505050565b60006002820490506001821680611b2857607f821691505b60208210811415611b3c57611b3b611b71565b5b50919050565b7f4e487b7100000000000000000000000000000000000000000000000000000000600052601160045260246000fd5b7f4e487b7100000000000000000000000000000000000000000000000000000000600052602260045260246000fd5b6000601f19601f8301169050919050565b7f45524332303a207472616e7366657220746f20746865207a65726f206164647260008201527f6573730000000000000000000000000000000000000000000000000000000000602082015250565b7f45524332303a206275726e20616d6f756e7420657863656564732062616c616e60008201527f6365000000000000000000000000000000000000000000000000000000000000602082015250565b7f4f776e61626c653a206e6577206f776e657220697320746865207a65726f206160008201527f6464726573730000000000000000000000000000000000000000000000000000602082015250565b7f45524332303a20617070726f766520746f20746865207a65726f20616464726560008201527f7373000000000000000000000000000000000000000000000000000000000000602082015250565b7f45524332303a20696e73756666696369656e7420616c6c6f77616e6365000000600082015250565b7f45524332303a207472616e7366657220616d6f756e742065786365656473206260008201527f616c616e63650000000000000000000000000000000000000000000000000000602082015250565b7f596f75206e65656420746f207472616e73666572206174206c6561737420736f60008201527f6d6520746f6b656e730000000000000000000000000000000000000000000000602082015250565b7f4f776e61626c653a2063616c6c6572206973206e6f7420746865206f776e6572600082015250565b7f45524332303a206275726e2066726f6d20746865207a65726f2061646472657360008201527f7300000000000000000000000000000000000000000000000000000000000000602082015250565b7f45524332303a207472616e736665722066726f6d20746865207a65726f20616460008201527f6472657373000000000000000000000000000000000000000000000000000000602082015250565b7f45524332303a20617070726f76652066726f6d20746865207a65726f2061646460008201527f7265737300000000000000000000000000000000000000000000000000000000602082015250565b7f5265656e7472616e637947756172643a207265656e7472616e742063616c6c00600082015250565b7f45524332303a2064656372656173656420616c6c6f77616e63652062656c6f7760008201527f207a65726f000000000000000000000000000000000000000000000000000000602082015250565b611f4b81611a88565b8114611f5657600080fd5b50565b611f6281611a9a565b8114611f6d57600080fd5b50565b611f7981611ac6565b8114611f8457600080fd5b5056fea2646970667358221220bad2d94703d0244d6e83d2dd6036a5f50dc99eb7bb8ed16301066ca78b7a022e64736f6c63430008040033",
  "immutableReferences": {},
  "source": "// SPDX-License-Identifier: UNLICENSED\r\n\r\npragma solidity 0.8.4;\r\n\r\n\r\nimport \"@openzeppelin/contracts/access/Ownable.sol\";\r\nimport \"@openzeppelin/contracts/token/ERC20/IERC20.sol\";\r\nimport \"@openzeppelin/contracts/token/ERC20/extensions/IERC20Metadata.sol\";\r\nimport \"@openzeppelin/contracts/token/ERC20/ERC20.sol\";\r\nimport \"@openzeppelin/contracts/token/ERC20/extensions/ERC20Burnable.sol\";\r\nimport \"@openzeppelin/contracts/security/ReentrancyGuard.sol\";\r\n\r\n\r\n\r\ncontract PUMLx is ERC20, ERC20Burnable, Ownable, ReentrancyGuard {\r\n    IERC20 _puml;\r\n    constructor() ERC20(\"PUMLx\", \"PUMLx\") {\r\n        _mint(msg.sender, 500000000 * 10 ** decimals());\r\n    }\r\n\r\n    function transferPuml(address _to, uint256 _amount) public {\r\n        require(_amount > 0, \"You need to transfer at least some tokens\");\r\n        pickPuml(_to, _amount);\r\n    }\r\n\r\n    function pickPuml(address _to, uint256 _amount) public payable nonReentrant {\r\n        require(_amount > 0, \"You need to transfer at least some tokens\");\r\n        _puml = IERC20(0xB2e408bc3E7674De7c589F4f8E5471C81F09F5c6);\r\n        _puml.transfer(_to, _amount);\r\n    }\r\n}",
  "sourcePath": "F:\\work\\puml-project\\ethcontracts\\contracts\\Pumlx.sol",
  "compiler": {
    "name": "solc",
    "version": "0.8.4+commit.c7e474f2.Emscripten.clang"
  },
  "schemaVersion": "3.4.5",
  "updatedAt": "2022-09-22T21:05:47.952Z",
  "devdoc": {
    "kind": "dev",
    "methods": {
      "allowance(address,address)": {
        "details": "See {IERC20-allowance}."
      },
      "approve(address,uint256)": {
        "details": "See {IERC20-approve}. NOTE: If `amount` is the maximum `uint256`, the allowance is not updated on `transferFrom`. This is semantically equivalent to an infinite approval. Requirements: - `spender` cannot be the zero address."
      },
      "balanceOf(address)": {
        "details": "See {IERC20-balanceOf}."
      },
      "burn(uint256)": {
        "details": "Destroys `amount` tokens from the caller. See {ERC20-_burn}."
      },
      "burnFrom(address,uint256)": {
        "details": "Destroys `amount` tokens from `account`, deducting from the caller's allowance. See {ERC20-_burn} and {ERC20-allowance}. Requirements: - the caller must have allowance for ``accounts``'s tokens of at least `amount`."
      },
      "decimals()": {
        "details": "Returns the number of decimals used to get its user representation. For example, if `decimals` equals `2`, a balance of `505` tokens should be displayed to a user as `5.05` (`505 / 10 ** 2`). Tokens usually opt for a value of 18, imitating the relationship between Ether and Wei. This is the value {ERC20} uses, unless this function is overridden; NOTE: This information is only used for _display_ purposes: it in no way affects any of the arithmetic of the contract, including {IERC20-balanceOf} and {IERC20-transfer}."
      },
      "decreaseAllowance(address,uint256)": {
        "details": "Atomically decreases the allowance granted to `spender` by the caller. This is an alternative to {approve} that can be used as a mitigation for problems described in {IERC20-approve}. Emits an {Approval} event indicating the updated allowance. Requirements: - `spender` cannot be the zero address. - `spender` must have allowance for the caller of at least `subtractedValue`."
      },
      "increaseAllowance(address,uint256)": {
        "details": "Atomically increases the allowance granted to `spender` by the caller. This is an alternative to {approve} that can be used as a mitigation for problems described in {IERC20-approve}. Emits an {Approval} event indicating the updated allowance. Requirements: - `spender` cannot be the zero address."
      },
      "name()": {
        "details": "Returns the name of the token."
      },
      "owner()": {
        "details": "Returns the address of the current owner."
      },
      "renounceOwnership()": {
        "details": "Leaves the contract without owner. It will not be possible to call `onlyOwner` functions anymore. Can only be called by the current owner. NOTE: Renouncing ownership will leave the contract without an owner, thereby removing any functionality that is only available to the owner."
      },
      "symbol()": {
        "details": "Returns the symbol of the token, usually a shorter version of the name."
      },
      "totalSupply()": {
        "details": "See {IERC20-totalSupply}."
      },
      "transfer(address,uint256)": {
        "details": "See {IERC20-transfer}. Requirements: - `to` cannot be the zero address. - the caller must have a balance of at least `amount`."
      },
      "transferFrom(address,address,uint256)": {
        "details": "See {IERC20-transferFrom}. Emits an {Approval} event indicating the updated allowance. This is not required by the EIP. See the note at the beginning of {ERC20}. NOTE: Does not update the allowance if the current allowance is the maximum `uint256`. Requirements: - `from` and `to` cannot be the zero address. - `from` must have a balance of at least `amount`. - the caller must have allowance for ``from``'s tokens of at least `amount`."
      },
      "transferOwnership(address)": {
        "details": "Transfers ownership of the contract to a new account (`newOwner`). Can only be called by the current owner."
      }
    },
    "version": 1
  },
  "userdoc": {
    "kind": "user",
    "methods": {},
    "version": 1
  }
}