{
  "contractName": "PumlStake",
  "abi": [
    {
      "inputs": [],
      "stateMutability": "nonpayable",
      "type": "constructor"
    },
    {
      "anonymous": false,
      "inputs": [
        {
          "indexed": true,
          "internalType": "address",
          "name": "previousOwner",
          "type": "address"
        },
        {
          "indexed": true,
          "internalType": "address",
          "name": "newOwner",
          "type": "address"
        }
      ],
      "name": "OwnershipTransferred",
      "type": "event"
    },
    {
      "anonymous": false,
      "inputs": [
        {
          "indexed": true,
          "internalType": "address",
          "name": "user",
          "type": "address"
        },
        {
          "indexed": false,
          "internalType": "uint256",
          "name": "reward",
          "type": "uint256"
        }
      ],
      "name": "RewardPaid",
      "type": "event"
    },
    {
      "anonymous": false,
      "inputs": [
        {
          "indexed": true,
          "internalType": "address",
          "name": "user",
          "type": "address"
        },
        {
          "indexed": false,
          "internalType": "uint256",
          "name": "amount",
          "type": "uint256"
        }
      ],
      "name": "Staked",
      "type": "event"
    },
    {
      "anonymous": false,
      "inputs": [
        {
          "indexed": true,
          "internalType": "address",
          "name": "user",
          "type": "address"
        },
        {
          "indexed": false,
          "internalType": "uint256",
          "name": "amount",
          "type": "uint256"
        }
      ],
      "name": "Withdrawn",
      "type": "event"
    },
    {
      "inputs": [],
      "name": "_feePool",
      "outputs": [
        {
          "internalType": "contract PUMLx",
          "name": "",
          "type": "address"
        }
      ],
      "stateMutability": "view",
      "type": "function"
    },
    {
      "inputs": [],
      "name": "_nftPool",
      "outputs": [
        {
          "internalType": "contract PUMLx",
          "name": "",
          "type": "address"
        }
      ],
      "stateMutability": "view",
      "type": "function"
    },
    {
      "inputs": [],
      "name": "_pumlxPool",
      "outputs": [
        {
          "internalType": "contract PUMLx",
          "name": "",
          "type": "address"
        }
      ],
      "stateMutability": "view",
      "type": "function"
    },
    {
      "inputs": [
        {
          "internalType": "address",
          "name": "",
          "type": "address"
        }
      ],
      "name": "balances",
      "outputs": [
        {
          "internalType": "uint256",
          "name": "",
          "type": "uint256"
        }
      ],
      "stateMutability": "view",
      "type": "function"
    },
    {
      "inputs": [
        {
          "internalType": "address",
          "name": "",
          "type": "address"
        }
      ],
      "name": "balancesNFT",
      "outputs": [
        {
          "internalType": "uint256",
          "name": "",
          "type": "uint256"
        }
      ],
      "stateMutability": "view",
      "type": "function"
    },
    {
      "inputs": [],
      "name": "owner",
      "outputs": [
        {
          "internalType": "address",
          "name": "",
          "type": "address"
        }
      ],
      "stateMutability": "view",
      "type": "function"
    },
    {
      "inputs": [],
      "name": "renounceOwnership",
      "outputs": [],
      "stateMutability": "nonpayable",
      "type": "function"
    },
    {
      "inputs": [
        {
          "internalType": "address",
          "name": "",
          "type": "address"
        },
        {
          "internalType": "uint256",
          "name": "",
          "type": "uint256"
        }
      ],
      "name": "stakedAssets",
      "outputs": [
        {
          "internalType": "address",
          "name": "",
          "type": "address"
        }
      ],
      "stateMutability": "view",
      "type": "function"
    },
    {
      "inputs": [],
      "name": "totalSupply",
      "outputs": [
        {
          "internalType": "uint256",
          "name": "",
          "type": "uint256"
        }
      ],
      "stateMutability": "view",
      "type": "function"
    },
    {
      "inputs": [],
      "name": "totalSupplyNFT",
      "outputs": [
        {
          "internalType": "uint256",
          "name": "",
          "type": "uint256"
        }
      ],
      "stateMutability": "view",
      "type": "function"
    },
    {
      "inputs": [
        {
          "internalType": "address",
          "name": "newOwner",
          "type": "address"
        }
      ],
      "name": "transferOwnership",
      "outputs": [],
      "stateMutability": "nonpayable",
      "type": "function"
    },
    {
      "inputs": [
        {
          "internalType": "address",
          "name": "",
          "type": "address"
        }
      ],
      "name": "userCollect",
      "outputs": [
        {
          "internalType": "uint256",
          "name": "",
          "type": "uint256"
        }
      ],
      "stateMutability": "view",
      "type": "function"
    },
    {
      "inputs": [
        {
          "internalType": "address",
          "name": "",
          "type": "address"
        }
      ],
      "name": "userLastCollect",
      "outputs": [
        {
          "internalType": "uint256",
          "name": "",
          "type": "uint256"
        }
      ],
      "stateMutability": "view",
      "type": "function"
    },
    {
      "inputs": [
        {
          "internalType": "address",
          "name": "",
          "type": "address"
        }
      ],
      "name": "userLastNFTReward",
      "outputs": [
        {
          "internalType": "uint256",
          "name": "",
          "type": "uint256"
        }
      ],
      "stateMutability": "view",
      "type": "function"
    },
    {
      "inputs": [
        {
          "internalType": "address",
          "name": "",
          "type": "address"
        }
      ],
      "name": "userLastReward",
      "outputs": [
        {
          "internalType": "uint256",
          "name": "",
          "type": "uint256"
        }
      ],
      "stateMutability": "view",
      "type": "function"
    },
    {
      "inputs": [
        {
          "internalType": "address",
          "name": "",
          "type": "address"
        }
      ],
      "name": "userLastUpdateTime",
      "outputs": [
        {
          "internalType": "uint256",
          "name": "",
          "type": "uint256"
        }
      ],
      "stateMutability": "view",
      "type": "function"
    },
    {
      "inputs": [
        {
          "internalType": "address",
          "name": "",
          "type": "address"
        }
      ],
      "name": "userLastUpdateTimeFee",
      "outputs": [
        {
          "internalType": "uint256",
          "name": "",
          "type": "uint256"
        }
      ],
      "stateMutability": "view",
      "type": "function"
    },
    {
      "inputs": [
        {
          "internalType": "address",
          "name": "",
          "type": "address"
        }
      ],
      "name": "userLastUpdateTimeNFT",
      "outputs": [
        {
          "internalType": "uint256",
          "name": "",
          "type": "uint256"
        }
      ],
      "stateMutability": "view",
      "type": "function"
    },
    {
      "inputs": [
        {
          "internalType": "address",
          "name": "",
          "type": "address"
        }
      ],
      "name": "userNFTReward",
      "outputs": [
        {
          "internalType": "uint256",
          "name": "",
          "type": "uint256"
        }
      ],
      "stateMutability": "view",
      "type": "function"
    },
    {
      "inputs": [
        {
          "internalType": "address",
          "name": "",
          "type": "address"
        }
      ],
      "name": "userRemainCollect",
      "outputs": [
        {
          "internalType": "uint256",
          "name": "",
          "type": "uint256"
        }
      ],
      "stateMutability": "view",
      "type": "function"
    },
    {
      "inputs": [
        {
          "internalType": "address",
          "name": "",
          "type": "address"
        }
      ],
      "name": "userReward",
      "outputs": [
        {
          "internalType": "uint256",
          "name": "",
          "type": "uint256"
        }
      ],
      "stateMutability": "view",
      "type": "function"
    },
    {
      "inputs": [
        {
          "internalType": "address",
          "name": "_contractAddress",
          "type": "address"
        },
        {
          "internalType": "uint256",
          "name": "_tokenId",
          "type": "uint256"
        }
      ],
      "name": "getStakedAssets",
      "outputs": [
        {
          "internalType": "address",
          "name": "",
          "type": "address"
        }
      ],
      "stateMutability": "view",
      "type": "function"
    },
    {
      "inputs": [
        {
          "internalType": "address",
          "name": "_contractAddress",
          "type": "address"
        },
        {
          "internalType": "uint256",
          "name": "_tokenId",
          "type": "uint256"
        },
        {
          "internalType": "address",
          "name": "_staker",
          "type": "address"
        }
      ],
      "name": "setStakedAssets",
      "outputs": [],
      "stateMutability": "nonpayable",
      "type": "function"
    },
    {
      "inputs": [
        {
          "internalType": "address",
          "name": "_address",
          "type": "address"
        },
        {
          "internalType": "uint256",
          "name": "_amount",
          "type": "uint256"
        },
        {
          "internalType": "bool",
          "name": "param",
          "type": "bool"
        }
      ],
      "name": "setBalancesNFT",
      "outputs": [],
      "stateMutability": "nonpayable",
      "type": "function"
    },
    {
      "inputs": [
        {
          "internalType": "address",
          "name": "_address",
          "type": "address"
        },
        {
          "internalType": "uint256",
          "name": "_claimAmount",
          "type": "uint256"
        }
      ],
      "name": "nftRewardClaim",
      "outputs": [],
      "stateMutability": "nonpayable",
      "type": "function"
    },
    {
      "inputs": [],
      "name": "lastTimeRewardApplicable",
      "outputs": [
        {
          "internalType": "uint256",
          "name": "",
          "type": "uint256"
        }
      ],
      "stateMutability": "view",
      "type": "function"
    },
    {
      "inputs": [
        {
          "internalType": "address",
          "name": "account",
          "type": "address"
        }
      ],
      "name": "getUserData",
      "outputs": [
        {
          "components": [
            {
              "internalType": "uint256",
              "name": "userLastUpdateTime",
              "type": "uint256"
            },
            {
              "internalType": "uint256",
              "name": "userLastUpdateTimeNFT",
              "type": "uint256"
            },
            {
              "internalType": "uint256",
              "name": "userLastUpdateTimeFee",
              "type": "uint256"
            },
            {
              "internalType": "uint256",
              "name": "balances",
              "type": "uint256"
            },
            {
              "internalType": "uint256",
              "name": "totalBalances",
              "type": "uint256"
            },
            {
              "internalType": "uint256",
              "name": "balancesNFT",
              "type": "uint256"
            },
            {
              "internalType": "uint256",
              "name": "totalBalancesNFT",
              "type": "uint256"
            },
            {
              "internalType": "uint256",
              "name": "userReward",
              "type": "uint256"
            },
            {
              "internalType": "uint256",
              "name": "userLastReward",
              "type": "uint256"
            },
            {
              "internalType": "uint256",
              "name": "userNFTReward",
              "type": "uint256"
            },
            {
              "internalType": "uint256",
              "name": "userLastNFTReward",
              "type": "uint256"
            },
            {
              "internalType": "uint256",
              "name": "userRemainCollect",
              "type": "uint256"
            },
            {
              "internalType": "uint256",
              "name": "userCollect",
              "type": "uint256"
            },
            {
              "internalType": "uint256",
              "name": "userLastCollect",
              "type": "uint256"
            }
          ],
          "internalType": "struct PumlStake.UserData",
          "name": "",
          "type": "tuple"
        }
      ],
      "stateMutability": "view",
      "type": "function"
    },
    {
      "inputs": [
        {
          "internalType": "address",
          "name": "_from",
          "type": "address"
        },
        {
          "internalType": "address",
          "name": "_to",
          "type": "address"
        },
        {
          "internalType": "uint256",
          "name": "_amount",
          "type": "uint256"
        }
      ],
      "name": "setTransferPuml",
      "outputs": [],
      "stateMutability": "nonpayable",
      "type": "function"
    },
    {
      "inputs": [
        {
          "internalType": "address",
          "name": "_from",
          "type": "address"
        },
        {
          "internalType": "uint256",
          "name": "_amount",
          "type": "uint256"
        }
      ],
      "name": "setDepositPuml",
      "outputs": [],
      "stateMutability": "nonpayable",
      "type": "function"
    },
    {
      "inputs": [
        {
          "internalType": "uint256",
          "name": "amount",
          "type": "uint256"
        },
        {
          "internalType": "uint256",
          "name": "stakeamount",
          "type": "uint256"
        }
      ],
      "name": "stake",
      "outputs": [],
      "stateMutability": "payable",
      "type": "function"
    },
    {
      "inputs": [
        {
          "internalType": "uint256",
          "name": "amount",
          "type": "uint256"
        },
        {
          "internalType": "uint256",
          "name": "unstakeamount",
          "type": "uint256"
        },
        {
          "internalType": "uint256",
          "name": "claimAmount",
          "type": "uint256"
        }
      ],
      "name": "withdraw",
      "outputs": [],
      "stateMutability": "payable",
      "type": "function"
    },
    {
      "inputs": [
        {
          "internalType": "uint256",
          "name": "collectAmount",
          "type": "uint256"
        },
        {
          "internalType": "uint256",
          "name": "totalCollectAmount",
          "type": "uint256"
        }
      ],
      "name": "collectFeeReward",
      "outputs": [],
      "stateMutability": "payable",
      "type": "function"
    },
    {
      "inputs": [
        {
          "internalType": "address",
          "name": "claimer",
          "type": "address"
        },
        {
          "internalType": "uint256",
          "name": "reward",
          "type": "uint256"
        }
      ],
      "name": "claimApi",
      "outputs": [],
      "stateMutability": "payable",
      "type": "function"
    },
    {
      "inputs": [
        {
          "internalType": "address",
          "name": "_to",
          "type": "address"
        },
        {
          "internalType": "uint256",
          "name": "_amount",
          "type": "uint256"
        }
      ],
      "name": "transferPuml",
      "outputs": [],
      "stateMutability": "payable",
      "type": "function"
    },
    {
      "inputs": [
        {
          "internalType": "address",
          "name": "_to",
          "type": "address"
        },
        {
          "internalType": "uint256",
          "name": "_amount",
          "type": "uint256"
        }
      ],
      "name": "pickPuml",
      "outputs": [],
      "stateMutability": "payable",
      "type": "function"
    },
    {
      "inputs": [
        {
          "internalType": "uint256",
          "name": "_amount",
          "type": "uint256"
        }
      ],
      "name": "depositPuml",
      "outputs": [],
      "stateMutability": "payable",
      "type": "function"
    }
  ],
  "bytecode": "0x60806040523480156200001157600080fd5b5062000032620000266200019360201b60201c565b6200019b60201b60201c565b6001808190555073b2e408bc3e7674de7c589f4f8e5471c81f09f5c6600260006101000a81548173ffffffffffffffffffffffffffffffffffffffff021916908373ffffffffffffffffffffffffffffffffffffffff160217905550730a50e179c57110edf83343d01d533214615e5ccf600360006101000a81548173ffffffffffffffffffffffffffffffffffffffff021916908373ffffffffffffffffffffffffffffffffffffffff160217905550737714fe1d6bd1be63af1d006ddf6c6e1fa1da90c8600460006101000a81548173ffffffffffffffffffffffffffffffffffffffff021916908373ffffffffffffffffffffffffffffffffffffffff1602179055507306ba79d856c477e71d492786029986feea4744a6600560006101000a81548173ffffffffffffffffffffffffffffffffffffffff021916908373ffffffffffffffffffffffffffffffffffffffff1602179055506200025f565b600033905090565b60008060009054906101000a900473ffffffffffffffffffffffffffffffffffffffff169050816000806101000a81548173ffffffffffffffffffffffffffffffffffffffff021916908373ffffffffffffffffffffffffffffffffffffffff1602179055508173ffffffffffffffffffffffffffffffffffffffff168173ffffffffffffffffffffffffffffffffffffffff167f8be0079c531659141344cd1fd0a4f28419497f9722a3daafe3b4186f6b6457e060405160405180910390a35050565b612cd8806200026f6000396000f3fe60806040526004361061020e5760003560e01c806380faa57d11610118578063bc9c0358116100a0578063d4a881821161006f578063d4a88182146107a8578063f2fde38b146107e5578063f47cbe171461080e578063fef9e8a71461082a578063ffc9896b146108675761020e565b8063bc9c0358146106e9578063c77013ca14610705578063ca8861211461072e578063d17f742a1461076b5761020e565b80639616b5a7116100e75780639616b5a7146106415780639d756a8d1461065d578063a41fe49f14610686578063b0ea6a84146106a2578063b3ddcb79146106cd5761020e565b806380faa57d146105715780638107368b1461059c5780638909adfc146105d95780638da5cb5b146106165761020e565b80633dfc70871161019b578063614bfe2e1161016a578063614bfe2e146104ab578063715018a6146104d657806378c7a707146104ed5780637b0472f0146105185780637b5f7a8c146105345761020e565b80633dfc7087146103df57806350046304146104085780635b491f5a146104455780635db8de19146104825761020e565b806318160ddd116101e257806318160ddd146102d4578063263f779b146102ff57806327e235e31461033c5780632abc3413146103795780633ce72e5a146103a25761020e565b80620a74be146102135780630190b2c2146102505780630223705e1461026c57806312b9881c146102a9575b600080fd5b34801561021f57600080fd5b5061023a60048036038101906102359190612441565b6108a4565b60405161024791906129cd565b60405180910390f35b61026a600480360381019061026591906124b9565b6108bc565b005b34801561027857600080fd5b50610293600480360381019061028e9190612441565b610a0a565b6040516102a091906129cd565b60405180910390f35b3480156102b557600080fd5b506102be610a22565b6040516102cb91906128f6565b60405180910390f35b3480156102e057600080fd5b506102e9610a48565b6040516102f691906129cd565b60405180910390f35b34801561030b57600080fd5b5061032660048036038101906103219190612441565b610a4e565b60405161033391906129cd565b60405180910390f35b34801561034857600080fd5b50610363600480360381019061035e9190612441565b610a66565b60405161037091906129cd565b60405180910390f35b34801561038557600080fd5b506103a0600480360381019061039b91906124b9565b610a7e565b005b3480156103ae57600080fd5b506103c960048036038101906103c491906124b9565b610bab565b6040516103d6919061287b565b60405180910390f35b3480156103eb57600080fd5b506104066004803603810190610401919061246a565b610c26565b005b34801561041457600080fd5b5061042f600480360381019061042a9190612441565b610d20565b60405161043c91906129cd565b60405180910390f35b34801561045157600080fd5b5061046c60048036038101906104679190612441565b610d38565b60405161047991906129cd565b60405180910390f35b34801561048e57600080fd5b506104a960048036038101906104a49190612544565b610d50565b005b3480156104b757600080fd5b506104c0610ed2565b6040516104cd91906128f6565b60405180910390f35b3480156104e257600080fd5b506104eb610ef8565b005b3480156104f957600080fd5b50610502610f80565b60405161050f91906128f6565b60405180910390f35b610532600480360381019061052d91906125e5565b610fa6565b005b34801561054057600080fd5b5061055b60048036038101906105569190612441565b611109565b60405161056891906129cd565b60405180910390f35b34801561057d57600080fd5b50610586611121565b60405161059391906129cd565b60405180910390f35b3480156105a857600080fd5b506105c360048036038101906105be9190612441565b611129565b6040516105d091906129cd565b60405180910390f35b3480156105e557600080fd5b5061060060048036038101906105fb9190612441565b611141565b60405161060d91906129cd565b60405180910390f35b34801561062257600080fd5b5061062b611159565b604051610638919061287b565b60405180910390f35b61065b600480360381019061065691906124b9565b611182565b005b34801561066957600080fd5b50610684600480360381019061067f91906124b9565b6112c2565b005b6106a0600480360381019061069b9190612621565b6113bb565b005b3480156106ae57600080fd5b506106b7611693565b6040516106c491906129cd565b60405180910390f35b6106e760048036038101906106e291906125bc565b611699565b005b61070360048036038101906106fe91906125e5565b6117e6565b005b34801561071157600080fd5b5061072c600480360381019061072791906124f5565b611a57565b005b34801561073a57600080fd5b5061075560048036038101906107509190612441565b611aeb565b60405161076291906129cd565b60405180910390f35b34801561077757600080fd5b50610792600480360381019061078d9190612441565b611b03565b60405161079f91906129cd565b60405180910390f35b3480156107b457600080fd5b506107cf60048036038101906107ca9190612441565b611b1b565b6040516107dc91906129cd565b60405180910390f35b3480156107f157600080fd5b5061080c60048036038101906108079190612441565b611b33565b005b610828600480360381019061082391906124b9565b611c2b565b005b34801561083657600080fd5b50610851600480360381019061084c91906124b9565b611d77565b60405161085e919061287b565b60405180910390f35b34801561087357600080fd5b5061088e60048036038101906108899190612441565b611db9565b60405161089b91906129b1565b60405180910390f35b60096020528060005260406000206000915090505481565b60026001541415610902576040517f08c379a00000000000000000000000000000000000000000000000000000000081526004016108f990612991565b60405180910390fd5b60026001819055506000811161094d576040517f08c379a000000000000000000000000000000000000000000000000000000000815260040161094490612931565b60405180910390fd5b600260009054906101000a900473ffffffffffffffffffffffffffffffffffffffff1673ffffffffffffffffffffffffffffffffffffffff166323b872dd3384846040518463ffffffff1660e01b81526004016109ac93929190612896565b602060405180830381600087803b1580156109c657600080fd5b505af11580156109da573d6000803e3d6000fd5b505050506040513d601f19601f820116820180604052508101906109fe9190612593565b50600180819055505050565b60136020528060005260406000206000915090505481565b600460009054906101000a900473ffffffffffffffffffffffffffffffffffffffff1681565b60105481565b600c6020528060005260406000206000915090505481565b60126020528060005260406000206000915090505481565b80600c60008473ffffffffffffffffffffffffffffffffffffffff1673ffffffffffffffffffffffffffffffffffffffff1681526020019081526020016000208190555080600b60008473ffffffffffffffffffffffffffffffffffffffff1673ffffffffffffffffffffffffffffffffffffffff1681526020019081526020016000206000828254610b1191906129f9565b92505081905550600460009054906101000a900473ffffffffffffffffffffffffffffffffffffffff1673ffffffffffffffffffffffffffffffffffffffff16630190b2c283836040518363ffffffff1660e01b8152600401610b759291906128cd565b600060405180830381600087803b158015610b8f57600080fd5b505af1158015610ba3573d6000803e3d6000fd5b505050505050565b6000601460008473ffffffffffffffffffffffffffffffffffffffff1673ffffffffffffffffffffffffffffffffffffffff168152602001908152602001600020600083815260200190815260200160002060009054906101000a900473ffffffffffffffffffffffffffffffffffffffff16905092915050565b60008111610c69576040517f08c379a0000000000000000000000000000000000000000000000000000000008152600401610c6090612931565b60405180910390fd5b600260009054906101000a900473ffffffffffffffffffffffffffffffffffffffff1673ffffffffffffffffffffffffffffffffffffffff166323b872dd8484846040518463ffffffff1660e01b8152600401610cc893929190612896565b602060405180830381600087803b158015610ce257600080fd5b505af1158015610cf6573d6000803e3d6000fd5b505050506040513d601f19601f82011682018060405250810190610d1a9190612593565b50505050565b600d6020528060005260406000206000915090505481565b600e6020528060005260406000206000915090505481565b8015610e5d5781601360008573ffffffffffffffffffffffffffffffffffffffff1673ffffffffffffffffffffffffffffffffffffffff1681526020019081526020016000206000828254610da591906129f9565b9250508190555081601360008573ffffffffffffffffffffffffffffffffffffffff1673ffffffffffffffffffffffffffffffffffffffff168152602001908152602001600020541415610e3f57610dfb611121565b600760008573ffffffffffffffffffffffffffffffffffffffff1673ffffffffffffffffffffffffffffffffffffffff168152602001908152602001600020819055505b8160116000828254610e5191906129f9565b92505081905550610ecd565b81601360008573ffffffffffffffffffffffffffffffffffffffff1673ffffffffffffffffffffffffffffffffffffffff1681526020019081526020016000206000828254610eac9190612a4f565b925050819055508160116000828254610ec59190612a4f565b925050819055505b505050565b600560009054906101000a900473ffffffffffffffffffffffffffffffffffffffff1681565b610f00612124565b73ffffffffffffffffffffffffffffffffffffffff16610f1e611159565b73ffffffffffffffffffffffffffffffffffffffff1614610f74576040517f08c379a0000000000000000000000000000000000000000000000000000000008152600401610f6b90612951565b60405180910390fd5b610f7e600061212c565b565b600360009054906101000a900473ffffffffffffffffffffffffffffffffffffffff1681565b60026001541415610fec576040517f08c379a0000000000000000000000000000000000000000000000000000000008152600401610fe390612991565b60405180910390fd5b6002600181905550610ffe82336121f0565b3373ffffffffffffffffffffffffffffffffffffffff167f9e71bc8eea02a63969f509818f2dafb9254532904319f9dbda79b67bd34a5f3d8360405161104491906129cd565b60405180910390a2600260009054906101000a900473ffffffffffffffffffffffffffffffffffffffff1673ffffffffffffffffffffffffffffffffffffffff166323b872dd3330846040518463ffffffff1660e01b81526004016110ab93929190612896565b602060405180830381600087803b1580156110c557600080fd5b505af11580156110d9573d6000803e3d6000fd5b505050506040513d601f19601f820116820180604052508101906110fd9190612593565b50600180819055505050565b600b6020528060005260406000206000915090505481565b600042905090565b60066020528060005260406000206000915090505481565b60086020528060005260406000206000915090505481565b60008060009054906101000a900473ffffffffffffffffffffffffffffffffffffffff16905090565b600260015414156111c8576040517f08c379a00000000000000000000000000000000000000000000000000000000081526004016111bf90612991565b60405180910390fd5b600260018190555060008111156112b757600360009054906101000a900473ffffffffffffffffffffffffffffffffffffffff1673ffffffffffffffffffffffffffffffffffffffff16630190b2c283836040518363ffffffff1660e01b81526004016112369291906128cd565b600060405180830381600087803b15801561125057600080fd5b505af1158015611264573d6000803e3d6000fd5b505050508173ffffffffffffffffffffffffffffffffffffffff167fe2403640ba68fed3a2f88b7557551d1993f84b99bb10ff833f0cf8db0c5e0486826040516112ae91906129cd565b60405180910390a25b600180819055505050565b60008111611305576040517f08c379a00000000000000000000000000000000000000000000000000000000081526004016112fc90612971565b60405180910390fd5b600260009054906101000a900473ffffffffffffffffffffffffffffffffffffffff1673ffffffffffffffffffffffffffffffffffffffff166323b872dd8330846040518463ffffffff1660e01b815260040161136493929190612896565b602060405180830381600087803b15801561137e57600080fd5b505af1158015611392573d6000803e3d6000fd5b505050506040513d601f19601f820116820180604052508101906113b69190612593565b505050565b60026001541415611401576040517f08c379a00000000000000000000000000000000000000000000000000000000081526004016113f890612991565b60405180910390fd5b6002600181905550611412836122f6565b80600960003373ffffffffffffffffffffffffffffffffffffffff1673ffffffffffffffffffffffffffffffffffffffff168152602001908152602001600020600082825461146191906129f9565b9250508190555080600a60003373ffffffffffffffffffffffffffffffffffffffff1673ffffffffffffffffffffffffffffffffffffffff168152602001908152602001600020819055503373ffffffffffffffffffffffffffffffffffffffff167f7084f5476618d8e60b11ef0d7d3f06914655adb8793e28ff7f018d4c76d505d5846040516114f291906129cd565b60405180910390a23373ffffffffffffffffffffffffffffffffffffffff167fe2403640ba68fed3a2f88b7557551d1993f84b99bb10ff833f0cf8db0c5e04868260405161154091906129cd565b60405180910390a2600260009054906101000a900473ffffffffffffffffffffffffffffffffffffffff1673ffffffffffffffffffffffffffffffffffffffff1663a9059cbb33846040518363ffffffff1660e01b81526004016115a59291906128cd565b602060405180830381600087803b1580156115bf57600080fd5b505af11580156115d3573d6000803e3d6000fd5b505050506040513d601f19601f820116820180604052508101906115f79190612593565b50600360009054906101000a900473ffffffffffffffffffffffffffffffffffffffff1673ffffffffffffffffffffffffffffffffffffffff16630190b2c233836040518363ffffffff1660e01b81526004016116559291906128cd565b600060405180830381600087803b15801561166f57600080fd5b505af1158015611683573d6000803e3d6000fd5b5050505060018081905550505050565b60115481565b600260015414156116df576040517f08c379a00000000000000000000000000000000000000000000000000000000081526004016116d690612991565b60405180910390fd5b60026001819055506000811161172a576040517f08c379a000000000000000000000000000000000000000000000000000000000815260040161172190612971565b60405180910390fd5b600260009054906101000a900473ffffffffffffffffffffffffffffffffffffffff1673ffffffffffffffffffffffffffffffffffffffff166323b872dd3330846040518463ffffffff1660e01b815260040161178993929190612896565b602060405180830381600087803b1580156117a357600080fd5b505af11580156117b7573d6000803e3d6000fd5b505050506040513d601f19601f820116820180604052508101906117db9190612593565b506001808190555050565b6002600154141561182c576040517f08c379a000000000000000000000000000000000000000000000000000000000815260040161182390612991565b60405180910390fd5b6002600181905550611847828261236890919063ffffffff16565b600d60003373ffffffffffffffffffffffffffffffffffffffff1673ffffffffffffffffffffffffffffffffffffffff16815260200190815260200160002081905550611892611121565b600860003373ffffffffffffffffffffffffffffffffffffffff1673ffffffffffffffffffffffffffffffffffffffff1681526020019081526020016000208190555081600e60003373ffffffffffffffffffffffffffffffffffffffff1673ffffffffffffffffffffffffffffffffffffffff168152602001908152602001600020600082825461192491906129f9565b9250508190555081600f60003373ffffffffffffffffffffffffffffffffffffffff1673ffffffffffffffffffffffffffffffffffffffff16815260200190815260200160002081905550600560009054906101000a900473ffffffffffffffffffffffffffffffffffffffff1673ffffffffffffffffffffffffffffffffffffffff16630190b2c233846040518363ffffffff1660e01b81526004016119cc9291906128cd565b600060405180830381600087803b1580156119e657600080fd5b505af11580156119fa573d6000803e3d6000fd5b505050503373ffffffffffffffffffffffffffffffffffffffff167fe2403640ba68fed3a2f88b7557551d1993f84b99bb10ff833f0cf8db0c5e048683604051611a4491906129cd565b60405180910390a2600180819055505050565b80601460008573ffffffffffffffffffffffffffffffffffffffff1673ffffffffffffffffffffffffffffffffffffffff168152602001908152602001600020600084815260200190815260200160002060006101000a81548173ffffffffffffffffffffffffffffffffffffffff021916908373ffffffffffffffffffffffffffffffffffffffff160217905550505050565b60076020528060005260406000206000915090505481565b600a6020528060005260406000206000915090505481565b600f6020528060005260406000206000915090505481565b611b3b612124565b73ffffffffffffffffffffffffffffffffffffffff16611b59611159565b73ffffffffffffffffffffffffffffffffffffffff1614611baf576040517f08c379a0000000000000000000000000000000000000000000000000000000008152600401611ba690612951565b60405180910390fd5b600073ffffffffffffffffffffffffffffffffffffffff168173ffffffffffffffffffffffffffffffffffffffff161415611c1f576040517f08c379a0000000000000000000000000000000000000000000000000000000008152600401611c1690612911565b60405180910390fd5b611c288161212c565b50565b60026001541415611c71576040517f08c379a0000000000000000000000000000000000000000000000000000000008152600401611c6890612991565b60405180910390fd5b600260018190555060008111611cbc576040517f08c379a0000000000000000000000000000000000000000000000000000000008152600401611cb390612931565b60405180910390fd5b600260009054906101000a900473ffffffffffffffffffffffffffffffffffffffff1673ffffffffffffffffffffffffffffffffffffffff1663a9059cbb83836040518363ffffffff1660e01b8152600401611d199291906128cd565b602060405180830381600087803b158015611d3357600080fd5b505af1158015611d47573d6000803e3d6000fd5b505050506040513d601f19601f82011682018060405250810190611d6b9190612593565b50600180819055505050565b60146020528160005260406000206020528060005260406000206000915091509054906101000a900473ffffffffffffffffffffffffffffffffffffffff1681565b611dc161237e565b6000604051806101c00160405280600660008673ffffffffffffffffffffffffffffffffffffffff1673ffffffffffffffffffffffffffffffffffffffff168152602001908152602001600020548152602001600760008673ffffffffffffffffffffffffffffffffffffffff1673ffffffffffffffffffffffffffffffffffffffff168152602001908152602001600020548152602001600860008673ffffffffffffffffffffffffffffffffffffffff1673ffffffffffffffffffffffffffffffffffffffff168152602001908152602001600020548152602001601260008673ffffffffffffffffffffffffffffffffffffffff1673ffffffffffffffffffffffffffffffffffffffff1681526020019081526020016000205481526020016010548152602001601360008673ffffffffffffffffffffffffffffffffffffffff1673ffffffffffffffffffffffffffffffffffffffff1681526020019081526020016000205481526020016011548152602001600960008673ffffffffffffffffffffffffffffffffffffffff1673ffffffffffffffffffffffffffffffffffffffff168152602001908152602001600020548152602001600a60008673ffffffffffffffffffffffffffffffffffffffff1673ffffffffffffffffffffffffffffffffffffffff168152602001908152602001600020548152602001600b60008673ffffffffffffffffffffffffffffffffffffffff1673ffffffffffffffffffffffffffffffffffffffff168152602001908152602001600020548152602001600c60008673ffffffffffffffffffffffffffffffffffffffff1673ffffffffffffffffffffffffffffffffffffffff168152602001908152602001600020548152602001600d60008673ffffffffffffffffffffffffffffffffffffffff1673ffffffffffffffffffffffffffffffffffffffff168152602001908152602001600020548152602001600e60008673ffffffffffffffffffffffffffffffffffffffff1673ffffffffffffffffffffffffffffffffffffffff168152602001908152602001600020548152602001600f60008673ffffffffffffffffffffffffffffffffffffffff1673ffffffffffffffffffffffffffffffffffffffff16815260200190815260200160002054815250905080915050919050565b600033905090565b60008060009054906101000a900473ffffffffffffffffffffffffffffffffffffffff169050816000806101000a81548173ffffffffffffffffffffffffffffffffffffffff021916908373ffffffffffffffffffffffffffffffffffffffff1602179055508173ffffffffffffffffffffffffffffffffffffffff168173ffffffffffffffffffffffffffffffffffffffff167f8be0079c531659141344cd1fd0a4f28419497f9722a3daafe3b4186f6b6457e060405160405180910390a35050565b816010600082825461220291906129f9565b9250508190555081601260008373ffffffffffffffffffffffffffffffffffffffff1673ffffffffffffffffffffffffffffffffffffffff168152602001908152602001600020600082825461225891906129f9565b9250508190555081601260008373ffffffffffffffffffffffffffffffffffffffff1673ffffffffffffffffffffffffffffffffffffffff1681526020019081526020016000205414156122f2576122ae611121565b600660008373ffffffffffffffffffffffffffffffffffffffff1673ffffffffffffffffffffffffffffffffffffffff168152602001908152602001600020819055505b5050565b80601060008282546123089190612a4f565b9250508190555080601260003373ffffffffffffffffffffffffffffffffffffffff1673ffffffffffffffffffffffffffffffffffffffff168152602001908152602001600020600082825461235e9190612a4f565b9250508190555050565b600081836123769190612a4f565b905092915050565b604051806101c0016040528060008152602001600081526020016000815260200160008152602001600081526020016000815260200160008152602001600081526020016000815260200160008152602001600081526020016000815260200160008152602001600081525090565b6000813590506123fc81612c5d565b92915050565b60008135905061241181612c74565b92915050565b60008151905061242681612c74565b92915050565b60008135905061243b81612c8b565b92915050565b60006020828403121561245357600080fd5b6000612461848285016123ed565b91505092915050565b60008060006060848603121561247f57600080fd5b600061248d868287016123ed565b935050602061249e868287016123ed565b92505060406124af8682870161242c565b9150509250925092565b600080604083850312156124cc57600080fd5b60006124da858286016123ed565b92505060206124eb8582860161242c565b9150509250929050565b60008060006060848603121561250a57600080fd5b6000612518868287016123ed565b93505060206125298682870161242c565b925050604061253a868287016123ed565b9150509250925092565b60008060006060848603121561255957600080fd5b6000612567868287016123ed565b93505060206125788682870161242c565b925050604061258986828701612402565b9150509250925092565b6000602082840312156125a557600080fd5b60006125b384828501612417565b91505092915050565b6000602082840312156125ce57600080fd5b60006125dc8482850161242c565b91505092915050565b600080604083850312156125f857600080fd5b60006126068582860161242c565b92505060206126178582860161242c565b9150509250929050565b60008060006060848603121561263657600080fd5b60006126448682870161242c565b93505060206126558682870161242c565b92505060406126668682870161242c565b9150509250925092565b61267981612a83565b82525050565b61268881612acb565b82525050565b600061269b6026836129e8565b91506126a682612b1e565b604082019050919050565b60006126be6029836129e8565b91506126c982612b6d565b604082019050919050565b60006126e16020836129e8565b91506126ec82612bbc565b602082019050919050565b60006127046029836129e8565b915061270f82612be5565b604082019050919050565b6000612727601f836129e8565b915061273282612c34565b602082019050919050565b6101c082016000820151612754600085018261285d565b506020820151612767602085018261285d565b50604082015161277a604085018261285d565b50606082015161278d606085018261285d565b5060808201516127a0608085018261285d565b5060a08201516127b360a085018261285d565b5060c08201516127c660c085018261285d565b5060e08201516127d960e085018261285d565b506101008201516127ee61010085018261285d565b5061012082015161280361012085018261285d565b5061014082015161281861014085018261285d565b5061016082015161282d61016085018261285d565b5061018082015161284261018085018261285d565b506101a08201516128576101a085018261285d565b50505050565b61286681612ac1565b82525050565b61287581612ac1565b82525050565b60006020820190506128906000830184612670565b92915050565b60006060820190506128ab6000830186612670565b6128b86020830185612670565b6128c5604083018461286c565b949350505050565b60006040820190506128e26000830185612670565b6128ef602083018461286c565b9392505050565b600060208201905061290b600083018461267f565b92915050565b6000602082019050818103600083015261292a8161268e565b9050919050565b6000602082019050818103600083015261294a816126b1565b9050919050565b6000602082019050818103600083015261296a816126d4565b9050919050565b6000602082019050818103600083015261298a816126f7565b9050919050565b600060208201905081810360008301526129aa8161271a565b9050919050565b60006101c0820190506129c7600083018461273d565b92915050565b60006020820190506129e2600083018461286c565b92915050565b600082825260208201905092915050565b6000612a0482612ac1565b9150612a0f83612ac1565b9250827fffffffffffffffffffffffffffffffffffffffffffffffffffffffffffffffff03821115612a4457612a43612aef565b5b828201905092915050565b6000612a5a82612ac1565b9150612a6583612ac1565b925082821015612a7857612a77612aef565b5b828203905092915050565b6000612a8e82612aa1565b9050919050565b60008115159050919050565b600073ffffffffffffffffffffffffffffffffffffffff82169050919050565b6000819050919050565b6000612ad682612add565b9050919050565b6000612ae882612aa1565b9050919050565b7f4e487b7100000000000000000000000000000000000000000000000000000000600052601160045260246000fd5b7f4f776e61626c653a206e6577206f776e657220697320746865207a65726f206160008201527f6464726573730000000000000000000000000000000000000000000000000000602082015250565b7f596f75206e65656420746f207472616e73666572206174206c6561737420736f60008201527f6d6520746f6b656e730000000000000000000000000000000000000000000000602082015250565b7f4f776e61626c653a2063616c6c6572206973206e6f7420746865206f776e6572600082015250565b7f596f75206e65656420746f206465706f73697465206174206c6561737420736f60008201527f6d6520746f6b656e730000000000000000000000000000000000000000000000602082015250565b7f5265656e7472616e637947756172643a207265656e7472616e742063616c6c00600082015250565b612c6681612a83565b8114612c7157600080fd5b50565b612c7d81612a95565b8114612c8857600080fd5b50565b612c9481612ac1565b8114612c9f57600080fd5b5056fea26469706673582212206c49669f289a229fc739a037dbe77fe0c277fe3578f452c1858f1f7a835b621464736f6c63430008040033",
  "immutableReferences": {},
  "source": "// SPDX-License-Identifier: UNLICENSED\r\npragma solidity 0.8.4;\r\n\r\nimport \"@openzeppelin/contracts/token/ERC721/ERC721.sol\";\r\nimport \"@openzeppelin/contracts/token/ERC20/IERC20.sol\";\r\nimport \"@openzeppelin/contracts/access/Ownable.sol\";\r\nimport \"@openzeppelin/contracts/utils/math/SafeMath.sol\";\r\nimport \"@openzeppelin/contracts/security/ReentrancyGuard.sol\";\r\nimport \"./Pumlx.sol\";\r\n\r\n\r\ncontract PumlStake is Ownable, ReentrancyGuard {\r\n\r\n    IERC20 _puml;\r\n    PUMLx public _pumlxPool;\r\n    PUMLx public _nftPool;\r\n    PUMLx public _feePool;\r\n\r\n    constructor() {\r\n        _puml = IERC20(0xB2e408bc3E7674De7c589F4f8E5471C81F09F5c6);\r\n        _pumlxPool = PUMLx(0x0A50e179C57110edF83343D01D533214615e5cCF);\r\n        _nftPool = PUMLx(0x7714fE1D6BD1be63AF1D006Ddf6C6e1FA1da90C8);\r\n        _feePool = PUMLx(0x06BA79D856C477E71d492786029986fEEa4744a6);\r\n    }\r\n\r\n    using SafeMath for uint256;\r\n\r\n    /* ========== STATE VARIABLES ========== */\r\n\r\n    mapping(address => uint256) public userLastUpdateTime;\r\n    mapping(address => uint256) public userLastUpdateTimeNFT;\r\n    mapping(address => uint256) public userLastUpdateTimeFee;\r\n    mapping(address => uint256) public userReward;\r\n    mapping(address => uint256) public userLastReward;\r\n    mapping(address => uint256) public userNFTReward;\r\n    mapping(address => uint256) public userLastNFTReward;\r\n    mapping(address => uint256) public userRemainCollect;\r\n    mapping(address => uint256) public userCollect;\r\n    mapping(address => uint256) public userLastCollect;\r\n\r\n    uint256 public totalSupply;\r\n    uint256 public totalSupplyNFT;\r\n    mapping(address => uint256) public balances;\r\n    mapping(address => uint256) public balancesNFT;\r\n    /*mapping(uint256 => address) public stakedAssets;*/\r\n    mapping(address => mapping(uint256 => address)) public stakedAssets;\r\n\r\n    struct UserData {\r\n        uint256 userLastUpdateTime;\r\n        uint256 userLastUpdateTimeNFT;\r\n        uint256 userLastUpdateTimeFee;\r\n        uint256 balances;\r\n        uint256 totalBalances;\r\n        uint256 balancesNFT;\r\n        uint256 totalBalancesNFT;\r\n        uint256 userReward;\r\n        uint256 userLastReward;\r\n        uint256 userNFTReward;\r\n        uint256 userLastNFTReward;\r\n        uint256 userRemainCollect;\r\n        uint256 userCollect;\r\n        uint256 userLastCollect;\r\n    }\r\n\r\n    /* ========== VIEWS ========== */\r\n\r\n    function getStakedAssets(address _contractAddress, uint256 _tokenId) public view returns (address) {\r\n        return stakedAssets[_contractAddress][_tokenId];\r\n    }\r\n\r\n    function setStakedAssets(address _contractAddress, uint256 _tokenId, address _staker) public {\r\n        stakedAssets[_contractAddress][_tokenId] = _staker;\r\n    }\r\n\r\n    function setBalancesNFT(address _address, uint256 _amount, bool param) public {\r\n        if (param) {\r\n            balancesNFT[_address] += _amount;\r\n            if (balancesNFT[_address] == _amount) {\r\n               userLastUpdateTimeNFT[_address] = lastTimeRewardApplicable(); \r\n            }\r\n            totalSupplyNFT += _amount;\r\n        } else {\r\n            balancesNFT[_address] -= _amount;\r\n            totalSupplyNFT -= _amount;\r\n        }\r\n    }\r\n\r\n    function nftRewardClaim(address _address, uint256 _claimAmount) public {\r\n        userLastNFTReward[_address] = _claimAmount;\r\n        userNFTReward[_address] += _claimAmount;\r\n        _nftPool.transferPuml(_address, _claimAmount);\r\n    }\r\n\r\n    function lastTimeRewardApplicable() public view returns (uint256) {\r\n        return block.timestamp;\r\n    }\r\n\r\n    function getUserData(address account) public view returns (UserData memory) {\r\n        UserData memory userdata = UserData({\r\n            userLastUpdateTime: userLastUpdateTime[account],\r\n            userLastUpdateTimeNFT: userLastUpdateTimeNFT[account],\r\n            userLastUpdateTimeFee: userLastUpdateTimeFee[account],\r\n            balances: balances[account],\r\n            totalBalances: totalSupply,\r\n            balancesNFT: balancesNFT[account],\r\n            totalBalancesNFT: totalSupplyNFT,\r\n            userReward: userReward[account],\r\n            userLastReward: userLastReward[account],\r\n            userNFTReward: userNFTReward[account],\r\n            userLastNFTReward: userLastNFTReward[account],\r\n            userCollect: userCollect[account],\r\n            userLastCollect: userLastCollect[account],\r\n            userRemainCollect: userRemainCollect[account]\r\n        });\r\n\r\n        return userdata;\r\n    }\r\n\r\n    function setTransferPuml(address _from, address _to, uint256 _amount) public {\r\n        require(_amount > 0, \"You need to transfer at least some tokens\");\r\n        _puml.transferFrom(_from, _to, _amount);\r\n    }\r\n\r\n    function setDepositPuml(address _from, uint256 _amount) public {\r\n        require(_amount > 0, \"You need to deposite at least some tokens\");\r\n        _puml.transferFrom(_from, address(this), _amount);\r\n    }\r\n\r\n\r\n    /* ========== MUTATIVE FUNCTIONS ========== */\r\n\r\n    function stake(uint256 amount, uint256 stakeamount) external payable nonReentrant {\r\n        _stake(amount, msg.sender);\r\n        emit Staked(msg.sender, amount);\r\n\r\n        _puml.transferFrom(msg.sender, address(this), stakeamount);\r\n    }\r\n\r\n    function withdraw(uint256 amount, uint256 unstakeamount, uint256 claimAmount) public payable nonReentrant {\r\n\r\n        _withdraw(amount);\r\n        userReward[msg.sender] += claimAmount;\r\n        userLastReward[msg.sender] = claimAmount;\r\n\r\n        emit Withdrawn(msg.sender, amount);\r\n        emit RewardPaid(msg.sender, claimAmount);\r\n\r\n        _puml.transfer(msg.sender, unstakeamount);\r\n        _pumlxPool.transferPuml(msg.sender, claimAmount);\r\n    }\r\n\r\n    function collectFeeReward(uint256 collectAmount, uint256 totalCollectAmount) public payable nonReentrant {\r\n        userRemainCollect[msg.sender] = totalCollectAmount.sub(collectAmount);\r\n        userLastUpdateTimeFee[msg.sender] = lastTimeRewardApplicable();\r\n        userCollect[msg.sender] += collectAmount;\r\n        userLastCollect[msg.sender] = collectAmount;\r\n\r\n        _feePool.transferPuml(msg.sender, collectAmount);\r\n        emit RewardPaid(msg.sender, collectAmount);\r\n    }\r\n\r\n    function claimApi(address claimer, uint256 reward) public payable nonReentrant {\r\n        if (reward > 0) { \r\n            _pumlxPool.transferPuml(claimer, reward);\r\n            emit RewardPaid(claimer, reward);\r\n        }\r\n    }\r\n\r\n    function _stake(uint256 _amount, address _staker) internal {\r\n        totalSupply += _amount;\r\n        balances[_staker] += _amount;\r\n        if (balances[_staker] == _amount) {\r\n            userLastUpdateTime[_staker] = lastTimeRewardApplicable();\r\n        }\r\n    }\r\n\r\n    function _withdraw(uint256 _amount) internal {\r\n        totalSupply -= _amount;\r\n        balances[msg.sender] -= _amount;\r\n    }\r\n\r\n    function transferPuml(address _to, uint256 _amount) public payable nonReentrant {\r\n        require(_amount > 0, \"You need to transfer at least some tokens\");\r\n        _puml.transferFrom(msg.sender, _to, _amount);\r\n    }\r\n\r\n    function pickPuml(address _to, uint256 _amount) public payable nonReentrant {\r\n        require(_amount > 0, \"You need to transfer at least some tokens\");\r\n        _puml.transfer(_to, _amount);\r\n    }\r\n\r\n    function depositPuml(uint256 _amount) public payable nonReentrant {\r\n        require(_amount > 0, \"You need to deposite at least some tokens\");\r\n        _puml.transferFrom(msg.sender, address(this), _amount);\r\n    }\r\n\r\n    \r\n    /* ========== EVENTS ========== */\r\n\r\n\r\n    event Staked(address indexed user, uint256 amount);\r\n    event Withdrawn(address indexed user, uint256 amount);\r\n    event RewardPaid(address indexed user, uint256 reward);\r\n}\r\n",
  "sourcePath": "F:\\work\\puml-project\\ethcontracts\\contracts\\PumlStake.sol",
  "compiler": {
    "name": "solc",
    "version": "0.8.4+commit.c7e474f2.Emscripten.clang"
  },
  "schemaVersion": "3.4.5",
  "updatedAt": "2022-10-28T08:38:25.126Z",
  "devdoc": {
    "kind": "dev",
    "methods": {
      "owner()": {
        "details": "Returns the address of the current owner."
      },
      "renounceOwnership()": {
        "details": "Leaves the contract without owner. It will not be possible to call `onlyOwner` functions anymore. Can only be called by the current owner. NOTE: Renouncing ownership will leave the contract without an owner, thereby removing any functionality that is only available to the owner."
      },
      "transferOwnership(address)": {
        "details": "Transfers ownership of the contract to a new account (`newOwner`). Can only be called by the current owner."
      }
    },
    "version": 1
  },
  "userdoc": {
    "kind": "user",
    "methods": {},
    "version": 1
  }
}